:020000040804EE
:100000000000022095730408751F0408771F040878
:10001000791F04087B1F04087D1F040800000000EE
:10002000000000000000000000000000A15A0408C9
:100030007F1F040800000000415B0408A55B040862
:10004000E5730408E5730408E5730408E573040820
:10005000E5730408E5730408E5730408E573040810
:10006000E5730408E5730408E5730408E573040800
:10007000E5730408E5730408E5730408E5730408F0
:10008000E5730408E5730408811F0408E573040898
:10009000E5730408E5730408E5730408E5730408D0
:1000A000E5730408E5730408E5730408E5730408C0
:1000B000E5730408E5730408E5730408E5730408B0
:1000C000E5730408E5730408E5730408E5730408A0
:1000D000E573040835200408E5730408E573040893
:1000E000E5730408E5730408E5730408E573040880
:1000F000E5730408911F0408E5730408E573040818
:10010000E5730408E5730408E5730408E57304085F
:10011000E5730408E5730408E5730408E57304084F
:10012000A11F0408E5730408B11F0408E57304085F
:10013000E5730408E5730408E5730408E57304082F
:10014000E5730408E5730408E5730408E57304081F
:10015000E5730408E5730408E5730408E57304080F
:10016000E5730408E5730408E5730408E5730408FF
:10017000E5730408E5730408E57304080000000053
:08018000E5730408E5730408AF
:1001C00010B5054C237833B9044B13B10448AFF391
:1001D00000800123237010BDC8090020000000002A
:1001E0006CDB040808B5034B1BB103490348AFF3AC
:1001F000008008BD00000000CC0900206CDB040872
:1002000081F0004102E000BF83F0004330B54FEAC7
:1002100041044FEA430594EA050F08BF90EA020F34
:100220001FBF54EA000C55EA020C7FEA645C7FEAC7
:10023000655C00F0E2804FEA5454D4EB5555B8BFEA
:100240006D420CDD2C4480EA020281EA030382EA5B
:10025000000083EA010180EA020281EA0303362DED
:1002600088BF30BD11F0004F4FEA01314FF4801CC0
:100270004CEA113102D0404261EB410113F0004FD2
:100280004FEA03334CEA133302D0524263EB430389
:1002900094EA050F00F0A780A4F10104D5F1200E27
:1002A0000DDB02FA0EFC22FA05F2801841F1000182
:1002B00003FA0EF2801843FA05F359410EE0A5F156
:1002C00020050EF1200E012A03FA0EFC28BF4CF087
:1002D000020C43FA05F3C01851EBE37101F000453D
:1002E00007D54FF0000EDCF1000C7EEB00006EEB4A
:1002F0000101B1F5801F1BD3B1F5001F0CD34908D4
:100300005FEA30004FEA3C0C04F101044FEA44522A
:1003100012F5800F80F09A80BCF1004F08BF5FEAB1
:10032000500C50F1000041EB045141EA050130BD91
:100330005FEA4C0C404141EB0101013C28BFB1F5A3
:10034000801FE9D291F0000F04BF01460020B1FAEE
:1003500081F308BF2033A3F10B03B3F120020CDAC1
:100360000C3208DD02F1140CC2F10C0201FA0CF09F
:1003700021FA02F10CE002F11402D8BFC2F1200C04
:1003800001FA02F120FA0CFCDCBF41EA0C019040BA
:10039000E41AA2BF01EB0451294330BD6FEA040403
:1003A0001F3C1CDA0C340EDC04F11404C4F12002EE
:1003B00020FA04F001FA02F340EA030021FA04F300
:1003C00045EA030130BDC4F10C04C4F1200220FA57
:1003D00002F001FA04F340EA0300294630BD21FA95
:1003E00004F0294630BD94F0000F83F4801306BF5B
:1003F00081F480110134013D4EE77FEA645C18BF4F
:100400007FEA655C29D094EA050F08BF90EA020FE5
:1004100005D054EA000C04BF1946104630BD91EADD
:10042000030F1EBF0021002030BD5FEA545C05D1E0
:100430004000494128BF41F0004130BD14F580041F
:100440003CBF01F5801130BD01F0004545F0FE4193
:1004500041F470014FF0000030BD7FEA645C1ABFC8
:10046000194610467FEA655C1CBF0B46024650EAFF
:10047000013406BF52EA033591EA030F41F400212B
:1004800030BD00BF90F0000F04BF0021704730B5B1
:100490004FF4806404F132044FF000054FF0000186
:1004A00050E700BF90F0000F04BF0021704730B547
:1004B0004FF4806404F1320410F0004548BF40421C
:1004C0004FF000013EE700BF42004FEAE2014FEA71
:1004D00031014FEA02701FBF12F07F4393F07F4F4C
:1004E00081F06051704732F07F4208BF704793F04F
:1004F0007F4F04BF41F40021704730B54FF4607462
:1005000001F0004521F000411CE700BF50EA010264
:1005100008BF704730B54FF000050AE050EA01020D
:1005200008BF704730B511F0004502D5404261EB7D
:1005300041014FF4806404F132045FEA915C3FF4BE
:10054000D8AE4FF003025FEADC0C18BF03325FEA5B
:10055000DC0C18BF033202EBDC02C2F1200300FA0C
:1005600003FC20FA02F001FA03FE40EA0E0021FA31
:1005700002F11444BDE600BF70B54FF0FF0C4CF41F
:10058000E06C1CEA11541DBF1CEA135594EA0C0FD1
:1005900095EA0C0F00F0DEF82C4481EA030621EA0C
:1005A0004C5123EA4C5350EA013518BF52EA033547
:1005B00041F4801143F4801338D0A0FB02CE4FF0F9
:1005C0000005E1FB02E506F00042E0FB03E54FF029
:1005D0000006E1FB03569CF0000F18BF4EF0010E21
:1005E000A4F1FF04B6F5007F64F5407404D25FEA1D
:1005F0004E0E6D4146EB060642EAC62141EA5551D0
:100600004FEAC52040EA5E504FEACE2EB4F1FD0C11
:1006100088BFBCF5E06F1ED8BEF1004F08BF5FEA8F
:10062000500E50F1000041EB045170BD06F0004641
:1006300046EA010140EA020081EA0301B4EB5C04EE
:10064000C2BFD4EB0C0541EA045170BD41F48011E6
:100650004FF0000E013C00F3AB8014F1360FDEBF0B
:10066000002001F0004170BDC4F10004203C35DAE7
:100670000C341BDC04F11404C4F1200500FA05F36A
:1006800020FA04F001FA05F240EA020001F000420B
:1006900021F0004110EBD37021FA04F642EB060181
:1006A0005EEA430E08BF20EAD37070BDC4F10C04AB
:1006B000C4F1200500FA04F320FA05F001FA04F26F
:1006C00040EA020001F0004110EBD37041F100015B
:1006D0005EEA430E08BF20EAD37070BDC4F1200566
:1006E00000FA05F24EEA020E20FA04F301FA05F2CE
:1006F00043EA020321FA04F001F0004121FA04F276
:1007000020EA020000EBD3705EEA430E08BF20EA45
:10071000D37070BD94F0000F0FD101F0004640007F
:1007200041EB010111F4801F08BF013CF7D041EA01
:10073000060195F0000F18BF704703F00046520005
:1007400043EB030313F4801F08BF013DF7D043EAD6
:100750000603704794EA0C0F0CEA135518BF95EA8C
:100760000C0F0CD050EA410618BF52EA4306D1D113
:1007700081EA030101F000414FF0000070BD50EA32
:10078000410606BF1046194652EA430619D094EABC
:100790000C0F02D150EA013613D195EA0C0F05D1A6
:1007A00052EA03361CBF104619460AD181EA0301FA
:1007B00001F0004141F0FE4141F470014FF00000B2
:1007C00070BD41F0FE4141F4780170BD70B54FF04D
:1007D000FF0C4CF4E06C1CEA11541DBF1CEA1355CD
:1007E00094EA0C0F95EA0C0F00F0A7F8A4EB0504AF
:1007F00081EA030E52EA03354FEA013100F08880A6
:100800004FEA03334FF0805545EA131343EA12636E
:100810004FEA022245EA111545EA10654FEA002623
:100820000EF000419D4208BF964244F1FD0404F5DC
:10083000407402D25B084FEA3202B61A65EB030538
:100840005B084FEA32024FF480104FF4002CB6EBF5
:10085000020E75EB030E22BFB61A754640EA0C0075
:100860005B084FEA3202B6EB020E75EB030E22BFB5
:10087000B61A754640EA5C005B084FEA3202B6EBF6
:10088000020E75EB030E22BFB61A754640EA9C00B5
:100890005B084FEA3202B6EB020E75EB030E22BF85
:1008A000B61A754640EADC0055EA060E18D04FEA43
:1008B000051545EA16754FEA06164FEAC30343EAE3
:1008C00052734FEAC2025FEA1C1CC0D111F4801FB0
:1008D0000BD141EA00014FF000004FF0004CB6E7A9
:1008E00011F4801F04BF01430020B4F1FD0C88BF48
:1008F000BCF5E06F3FF6AFAEB5EB030C04BFB6EB53
:10090000020C5FEA500C50F1000041EB045170BD45
:100910000EF0004E4EEA113114EB5C04C2BFD4EB72
:100920000C0541EA045170BD41F480114FF0000EF6
:10093000013C90E645EA060E8DE60CEA135594EA72
:100940000C0F08BF95EA0C0F3FF43BAF94EA0C0F75
:100950000AD150EA01347FF434AF95EA0C0F7FF4EA
:1009600025AF104619462CE795EA0C0F06D152EA3E
:1009700003353FF4FDAE1046194622E750EA410622
:1009800018BF52EA43067FF4C5AE50EA41047FF433
:100990000DAF52EA43057FF4EBAE12E74FF0FF3C98
:1009A00006E000BF4FF0010C02E000BF4FF0010C69
:1009B0004DF804CD4FEA410C7FEA6C5C4FEA430CE2
:1009C00018BF7FEA6C5C1BD001B050EA410C0CBF31
:1009D00052EA430C91EA030F02BF90EA020F002093
:1009E000704710F1000F91EA030F58BF994208BFFA
:1009F00090422CBFD8176FEAE37040F001007047B7
:100A00004FEA410C7FEA6C5C02D150EA013C07D10D
:100A10004FEA430C7FEA6C5CD6D152EA033CD3D058
:100A20005DF8040B704700BF8446104662468C4652
:100A30001946634600E000BF01B5FFF7B7FF002885
:100A400048BF10F1000F01BD4DF808EDFFF7F4FFAE
:100A50000CBF012000205DF808FB00BF4DF808ED39
:100A6000FFF7EAFF34BF012000205DF808FB00BF5C
:100A70004DF808EDFFF7E0FF94BF012000205DF87E
:100A800008FB00BF4DF808EDFFF7CEFF94BF012033
:100A900000205DF808FB00BF4DF808EDFFF7C4FF2C
:100AA00034BF012000205DF808FB00BF4FEA41027F
:100AB00012F5001215D211D56FF47873B3EB6252B0
:100AC00012D94FEAC12343F0004343EA505311F0D7
:100AD000004F23FA02F018BF404270474FF0000069
:100AE000704750EA013005D111F0004008BF6FF0A7
:100AF000004070474FF00000704700BF53B94AB93B
:100B0000002908BF00281CBF4FF0FF314FF0FF3015
:100B100000F06EB9ADF1080C6DE904CE00F006F8F6
:100B2000DDF804E0DDE9022304B070472DE9F04769
:100B3000089D04468C46002B40F083808A4217466D
:100B400047D9B2FA82F242B1C2F1200024FA00F091
:100B50009140974040EA010C94404FEA1748230C1B
:100B6000BCFBF8F61FFA87FE08FB16C143EA0143F7
:100B700006FB0EF1994209D9FB1806F1FF3080F00F
:100B80001981994240F21681023E3B445B1AA4B29D
:100B9000B3FBF8F008FB103344EA034400FB0EFEFD
:100BA000A64509D93C1900F1FF3380F00581A6451F
:100BB00040F2028102383C4440EA0640A4EB0E04B5
:100BC00000261DB1D4400023C5E900433146BDE8ED
:100BD000F08702B9FFDEB2FA82F2002A50D1CB1BB5
:100BE0004FEA174E1FFA87F80126B3FBFEFC210CD3
:100BF0000EFB1C3341EA034108FB0CF38B4207D97F
:100C000079180CF1FF3002D28B4200F2E980844661
:100C1000C91AA3B2B1FBFEF00EFB101143EA014466
:100C200008FB00F8A04507D93C1900F1FF3302D2B8
:100C3000A04500F2D9801846A4EB080440EA0C4015
:100C4000BFE78B4209D9002D00F0B1800026C5E92D
:100C5000000130463146BDE8F087B3FA83F6002E36
:100C60004AD18B4202D3824200F2B880841A61EBEF
:100C7000030101208C46002DA8D0C5E9004CA5E752
:100C8000C2F1200320FA03F6974001FA02F04FEA7E
:100C9000174ED9403043030CB1FBFEF61FFA87F81C
:100CA0000EFB161143EA014306FB08F1994204FAD0
:100CB00002F409D9FB1806F1FF3C80F08D809942BF
:100CC00040F28A80023E3B445B1A81B2B3FBFEF0E5
:100CD0000EFB103341EA034100FB08F38B4207D9B6
:100CE000791800F1FF3C73D28B4271D90238394434
:100CF000CB1A40EA064678E7C6F1200C03FA06F460
:100D000022FA0CF31C4320FA0CF701FA06F34FEA1F
:100D1000144E21FA0CF11F433B0CB1FBFEF91FFAF4
:100D200084F80EFB191143EA014109FB08FA8A45D0
:100D300002FA06F200FA06F308D9611809F1FF3049
:100D400048D28A4546D9A9F102092144A1EB0A01FA
:100D5000BFB2B1FBFEF00EFB101147EA014700FBEA
:100D600008F8B84507D9E71900F1FF312ED2B84588
:100D70002CD90238274440EA0940A7EB0807A0FB1A
:100D800002894F45C64649461AD317D05DB1B3EB29
:100D90000E0267EB010707FA0CFCF2404CEA020274
:100DA000F740C5E9002700263146BDE8F0872E460A
:100DB00028460BE70646E9E61846FDE64345E5D238
:100DC000B8EB020E69EB04010138DFE70846D2E711
:100DD00060468DE78146B9E7664675E730464AE7E3
:100DE000ACF1020C394413E702383C4424E700BF5D
:100DF000704700BF844641EA000313F003036DD13E
:100E0000403A41D351F8043B40F8043B51F8043BCD
:100E100040F8043B51F8043B40F8043B51F8043BD4
:100E200040F8043B51F8043B40F8043B51F8043BC4
:100E300040F8043B51F8043B40F8043B51F8043BB4
:100E400040F8043B51F8043B40F8043B51F8043BA4
:100E500040F8043B51F8043B40F8043B51F8043B94
:100E600040F8043B51F8043B40F8043B51F8043B84
:100E700040F8043B51F8043B40F8043B51F8043B74
:100E800040F8043B403ABDD2303211D351F8043B14
:100E900040F8043B51F8043B40F8043B51F8043B54
:100EA00040F8043B51F8043B40F8043B103AEDD2C3
:100EB0000C3205D351F8043B40F8043B043AF9D214
:100EC000043208D0D2071CBF11F8013B00F8013BE7
:100ED00001D30B8803806046704700BF082A13D3F4
:100EE0008B078DD010F003038AD0C3F10403D21A0C
:100EF000DB071CBF11F8013B00F8013B80D331F840
:100F0000023B20F8023B7BE7043AD9D3013A11F8BF
:100F1000013B00F8013BF9D20B7803704B7843702A
:100F20008B7883706046704700000000000000006E
:100F300000000000000000000000000000000000B1
:100F400090F800F06DE9024520F007016FF0000C09
:100F500010F0070491F820F040F049804FF00004B1
:100F60006FF00700D1E9002391F840F000F108008C
:100F700082FA4CF2A4FA8CF283FA4CF3A2FA8CF3C4
:100F80004BBBD1E9022382FA4CF200F10800A4FA2B
:100F90008CF283FA4CF3A2FA8CF3E3B9D1E904237F
:100FA00082FA4CF200F10800A4FA8CF283FA4CF3B6
:100FB000A2FA8CF37BB9D1E9062301F1200182FA70
:100FC0004CF200F10800A4FA8CF283FA4CF3A2FA76
:100FD0008CF3002BC6D0002A04BF04301A4612BA84
:100FE000B2FA82F2FDE8024500EBD2007047D1E987
:100FF000002304F00305C4F100004FEAC50514F016
:10100000040F91F840F00CFA05F562EA05021CBFE6
:1010100063EA050362464FF00004A9E70000000000
:1010200001F0FF01102A2BDB10F0070F08D010F899
:10103000013B013A8B422DD010F0070F42B3F6D19D
:10104000F0B441EA012141EA014122F007047FF0B6
:1010500000070023F0E80256083C85EA010586EA0D
:10106000010685FA47F5A3FA87F586FA47F6A5FA49
:1010700087F68EB9EED1F0BC01F0FF0102F0070255
:1010800032B110F8013B013A83EA010313B1F8D100
:101090000020704701387047002D06BF35460338E1
:1010A000073815F0010F07D1013015F4807F02BF1A
:1010B000013015F4C03F0130F0BC0138704700BF6B
:1010C0004FEA410C7FEA6C5C02D150EA013C0AD144
:1010D0004FEA430C7FEA6C5C02D152EA033C02D136
:1010E0004FF0000070474FF00100704700B585B029
:1010F000002300930193029303931B481B4A026051
:101100004FF480324260836001220261027680F8EF
:101110002030C36216498162C3600223C36180F834
:101120003020426102F0D4F9A8B901230093019361
:101130000723029369460C4802F0A8FB70B9082304
:101140000093022301936946074802F09FFB40B9D0
:1011500005B05DF804FB00F0ABFEE6E700F0A8FE8A
:10116000EDE700F0A5FEF3E7E409002000200140D0
:101170000100000F70B588B000230393049305931A
:1011800006930793026803F1804303F590339A4274
:1011900001D008B070BD04460025009503F58C33DE
:1011A0005A6C42F480725A645A6C02F48072009253
:1011B000009A01951A6B42F001021A631A6B02F051
:1011C00001020192019A02951A6B42F002021A631F
:1011D0001B6B03F002030293029B0223039303267B
:1011E0000496059503A9184802F0D4FE0123039341
:1011F0000496059503A9154802F0CCFE1448154B3A
:10120000036045608560C5604FF4806303614FF4FF
:10121000006343614FF4005383614FF48073C361F3
:101220000562456202F0D0FC58B9094BA3639C6388
:1012300000220521122002F005FC122002F036FCEB
:10124000A7E700F035FEF0E700000240000402408E
:101250002C0A00201064024010B582B000240194D2
:101260000D4B1A6B42F480021A631B6B03F480036C
:101270000193019B22460521382002F0E3FB382030
:1012800002F014FC224605213A2002F0DBFB3A2052
:1012900002F00CFC02B010BD00380240000000005B
:1012A000F8B501F099F904F0A7FA00F1640504F02B
:1012B000A3FA00F10A0410222B492C4802F034F959
:1012C00000273E4610E004F097FA00F1640501F0B3
:1012D00091F9274B83ED000A0AE00026254B1E708A
:1012E0003746012004F00AFB04F086FAA842EAD24D
:1012F00004F082FAA042F4D31F4B1B78002BF0D0ED
:1013000004F07AFA00F10A041C4B1B881E440137D2
:101310000A2FE6DD96FBF7F0FFF7C4F80CA3D3E93C
:101320000023FFF729F90CA3D3E90023FFF74EFAB6
:101330000BA3D3E90023FFF791FB0028CDD00D4B81
:1013400001221A7000260C4B1E703746C9E700BFF9
:101350006666666666660A400000000000FEAF40F2
:10136000D7A3703D0AD707409C100020E409002055
:101370009C0E002098100020040000208A0E0020FF
:1013800008B589E00A2004F0B9FA02216B4802F09E
:10139000E7FE10B96A4B01221A700221674802F079
:1013A000DFFE002840F0A180012004F0A7FAF4E756
:1013B0000A2004F0A3FA0421604802F0D1FE10B91B
:1013C0005F4B02221A7004215C4802F0C9FE00281B
:1013D00040F08B80012004F091FAF4E70A2004F039
:1013E0008DFA0821554802F0BBFE10B9544B032278
:1013F0001A700821514802F0B3FE002875D101206F
:1014000004F07CFAF5E70A2004F078FA10214B4842
:1014100002F0A6FE10B94A4B04221A701021474868
:1014200002F09EFE002860D1012004F067FAF5E783
:101430000A2004F063FA2021404802F091FE0128BE
:1014400006D13F4B05221A7002E0012004F056FA43
:1014500020213A4802F084FE0128F6D045E00A2017
:1014600004F04CFA4021354802F07AFE012806D1FA
:10147000334B06221A7002E0012004F03FFA4021AB
:101480002E4802F06DFE0128F6D02EE02D4B0122F1
:101490001A70012004F032FA294B00221A7002213E
:1014A000264802F05DFE00283FF46CAF042123487B
:1014B00002F056FE00283FF47BAF08211F4802F0DF
:1014C0004FFE00288AD010211C4802F049FE002857
:1014D00099D02021194802F043FE0128A8D04021CC
:1014E000164802F03DFE0128B9D0154B1B78013B90
:1014F000052BCED801A252F823F000BF8D140408AA
:10150000151504081D150408251504082D150408D3
:10151000351504080B4B02221A70BAE7094B032257
:101520001A70B6E7074B04221A70B2E7054B052282
:101530001A70AEE7034B06221A70AAE700100240A9
:10154000990E0020980E002070B504F055F900F5B2
:101550009C56083617E0134D0021284603F016FC70
:10156000642004F0CBF90021284603F02FFC64200E
:1015700004F0C4F90134022CEDDD0B4806F0C6FA84
:10158000012004F0BBF9094B1B78002BF8D004F0C4
:1015900033F9B042F4D304F02FF900F59C56083625
:1015A0000024E8E70012002088DB0408900E0020E9
:1015B000F0B589B001F082F800221146BC4801F074
:1015C000A6FB01F091FB4FF4FA6004F097F901F0EB
:1015D000B4FAB84801F094F8B74801F0EDFA1422D3
:1015E0000021B64801F076FBB54801F0E5FAB548B0
:1015F00001F0E2FA01F078FB4FF4FA6004F07EF9B2
:1016000004F0FAF800F164060127002530E201F049
:1016100094FA00221146AC4801F05CFB10220F2125
:10162000AA4801F057FB1C220F21A94801F052FBE8
:1016300028220F21A74801F04DFB34220F21A64894
:1016400001F048FBA54B1B78022B19D0032B21D0AE
:10165000012B0BD07A1E02EB4202920010320021C5
:101660009F4801F037FB01F03FFB04E2012F05D951
:10167000013FFFB2994B00221A70EBE70427F9E70C
:10168000032F05D80137FFB2944B00221A70E1E70F
:101690000127F9E7914B00221A703D46DAE704F082
:1016A000ABF8B042C0F0EA8104F0A6F800F164069D
:1016B00001F043FA00221146844801F00BFB894BEC
:1016C0001868FEF701FF02460B468749684606F098
:1016D00045FB10220021684601F0FCFA834B188874
:1016E000FEF7E0FE6EA3D3E90023FEF745FF6EA3ED
:1016F000D3E90023FFF76AF802460B467C496846A7
:1017000006F02CFB1C220021684601F0E3FA794B1D
:101710001888FEF7C7FE62A3D3E90023FEF72CFF6B
:1017200061A3D3E90023FFF751F802460B46724943
:10173000684606F013FB28220021684601F0CAFA29
:101740006E4B1A686E49684606F008FB3422002189
:10175000684601F0BFFA614B1B78022B1ED0042BA8
:1017600024D0012B12D0654BD3ED007AF8EEE77A46
:101770005C4B93ED007AF4EEC77AF1EE10FA19D5CE
:10178000604B01221A7001F0AFFA77E15B4A1368EF
:1017900001331360514B00221A70E4E7574A136873
:1017A000013B13604D4B00221A70DCE700254B4BC8
:1017B0001D70D8E7534B00221A70E4E704F01CF8C0
:1017C000B042C0F05E8104F017F800F1640601F049
:1017D000B4F9002211464C4801F07CFA414C2068D3
:1017E000FEF772FE02460B464849684606F0B6FA16
:1017F00000225021684601F06DFA3F237E2210211D
:10180000002001F007FB94ED007AF2EE0E7A77EEFD
:10181000677A17EE900AFEF757FE00223C4BFEF760
:10182000ABFE02460B4600203A49FEF7EDFCFFF7FF
:101830003DF9394B1B687C2B07DC591C364A11607B
:10184000364A42F82300002018E000237B2B07DCF7
:101850005A1C324951F8224041F823401346F5E71B
:101860002E4BC3F8F001EEE7441C2C4951F824300C
:10187000224651F8201001F0BDFA2046264B1B6885
:10188000013B8342F0DC01F02FFA144B1B78042B50
:1018900040F0F7800025114B1D70F5E0AFF300809C
:1018A0006666666666660A400000000000FEAF409D
:1018B000A0F804082CEB0408B0DB0408C0DB040823
:1018C000D0DB0408E0DB0408F8DB040800DC0408D3
:1018D00014DC040824DC040834DC0408980E00201E
:1018E00048DC04089C0E00204CDC0408880E002014
:1018F0005CDC04088A0E002070DC04080000002074
:1019000088DC0408900E00209CDC0408A8DC040895
:101910000000F83F00004F4094100020A00E00206F
:1019200003F06AFFB042C0F0AF8003F065FF00F142
:10193000640601F002F900221146914801F0CAF94B
:10194000904C2088FEF7AEFD85A3D3E90023FEF777
:1019500013FE85A3D3E90023FEF738FF02460B46AA
:101960008949684606F0FAF900225321684601F0D9
:10197000B1F93F237E221021002001F04BFA20888C
:10198000FEF790FD76A3D3E90023FEF7F5FD76A3DD
:10199000D3E90023FEF71AFF75A3D3E90023FEF76E
:1019A000EBFD02460B4600207849FEF72DFCFFF7C1
:1019B0007DF8774B1B687C2B14DC591C744A116032
:1019C000744A42F82300002018E05A1C714951F86B
:1019D000224041F8234013467B2BF6DD6D4BC3F8C4
:1019E000F001F0E70023F7E7441C6A4951F824307E
:1019F000224651F8201001F0FDF92046644B1B6887
:101A0000013B8342F0DC01F06FF9634B1B78042B40
:101A10003AD10025604B1D7027E000237B2B07DCAB
:101A20005A1C5E4951F8224041F823401346F5E71D
:101A30005A4BC3F8F00180E0441C584951F8243057
:101A4000224651F8201001F0D5F92046544B1B686E
:101A5000013B8342F0DC534B1B78002B6FD101F02C
:101A600043F94D4B1B78042B73D0012003F046FF44
:101A7000002D3FF4CCAD012D3FF411AE022D3FF40B
:101A80009DAE032D3FF44CAF042DEED103F0B4FE18
:101A9000B042EAD303F0B0FE00F1640601F04DF865
:101AA00000221146404801F015F9404C2088FEF70D
:101AB000F9FC2BA3D3E90023FEF75EFD2AA3D3E9AB
:101AC0000023FEF783FE02460B463949684606F0BE
:101AD00045F900225321684601F0FCF83F237E229D
:101AE0001021002001F096F92088FEF7DBFC1CA3F2
:101AF000D3E90023FEF740FD1BA3D3E90023FEF743
:101B000065FE1DA3D3E90023FEF77EFB0022294BCF
:101B1000FEF732FD02460B4600201C49FEF774FB1F
:101B2000FEF7C4FF1E4B1B687C2B3FF776AF591C9A
:101B30001B4A1160194A42F82300002086E71C2343
:101B40007E221021722001F069F91B4B01221A70CC
:101B500085E70025104B1D7087E700BFAFF30080BD
:101B60006666666666660A400000000000FEAF40DA
:101B700048E17A14AE472B409A9999999999054072
:101B8000B4DC0408880E002068DC040800004F4024
:101B90008C0C0020980A0020980E0020900C002049
:101BA000840E002098100020C0DC04088A0E00205B
:101BB000D0DC0408008056400400002070B527489F
:101BC0000268D36843F01003D3604FF48072244955
:101BD00003F0FEFB34E003F10F012148415CA1F169
:101BE0003000C0B209281ED802EB8202303901EB66
:101BF0004202A4F11201A94210D00133A4F1110153
:101C00001D46994216D9002BE5D103F10F01144866
:101C1000415C2D29DFD14FF0FF36EEE702FB06F1E4
:101C200010480160E9E7104805F070FF02E00E4837
:101C300005F06CFF0D4B00221A60012003F05EFEE0
:101C40000A4B1C68002CF8D00949054806F002FA36
:101C50000028ECD000231A460126CFE7A01200206E
:101C6000FC10002000000020E8DC0408FC1100202B
:101C7000D8DC040808B5124A0021124803F0D2FD4E
:101C8000114B1860114A0021114803F0CBFD114B94
:101C90001860114A0021114803F0C4FD104B186070
:101CA000104A0021104803F0BDFD104B1860104A87
:101CB0000021104803F0B6FD0F4B186008BD00BFAF
:101CC00054DD0408A11204088C0A0020E4DD040895
:101CD00081130408940E0020C0DD0408491504088F
:101CE0008C0E002078DD0408B1150408900A00204D
:101CF0009CDD0408BD1B0408940A0020F0B58BB0DD
:101D000000240594069407940894099401942C4B9C
:101D10001A6B42F010021A631A6B02F01002019261
:101D2000019A02941A6B42F080021A631A6B02F055
:101D300080020292029A03941A6B42F001021A6323
:101D40001A6B02F001020392039A04941A6B42F098
:101D500002021A631B6B03F002030493049B194FE6
:101D60002246C021384602F002FA174D22460121D0
:101D7000284602F0FCF91E230593069401260796D7
:101D800005A9284602F006F960230593069402236C
:101D9000079305A9284602F0FDF8C023059306968F
:101DA0000794089405A9384602F0F4F805960696BB
:101DB0000794089405A9284602F0ECF80BB0F0BD92
:101DC00000380240000402400010024030B595B0D7
:101DD0003022002108A805F0FBFD002403940494A0
:101DE00005940694079401941B4B1A6C42F08052A0
:101DF0001A641B6C03F080530193019B0294174BF0
:101E00001A6842F480421A601B6803F4804302930C
:101E1000029B012308934FF48033099302250E950A
:101E20004FF480030F9304231093A822119212956C
:101E3000139308A802F0A2F90F23039304950594C5
:101E40004FF4A05306934FF480530793052103A842
:101E500002F0F0FB15B030BD0038024000700040C9
:101E600008B501F05BFAFFF7B1FFFFF747FFFFF797
:101E7000F3F900F0C3F900F07DF9FFF737F90548F1
:101E800000F036FA03F076FCFFF7F4FE03F090FC66
:101E9000FEE700BFA012002008B50268034B9A427B
:101EA00000D008BD01F054FAFBE700BF002000405D
:101EB0007047000000B583B0002200920D4B596CB2
:101EC00041F480415964596C01F4804100910099BA
:101ED0000192196C41F0805119641B6C03F080531E
:101EE0000193019B0F216FF0010001F0ABFD03B0E6
:101EF0005DF804FB0038024010B588B001460022AE
:101F00002D2001F09FFD2D2001F0D0FD0024019433
:101F1000144B1A6C42F480721A641B6C03F48073C5
:101F20000193019B02A903A802F05AFC02F038FCBD
:101F300043000D48A0FB03239B0C013B0B480C4ABC
:101F4000026040F2E732C26043600461846002F0E4
:101F500031FE10B1012008B010BD044802F0F3FCBE
:101F6000F9E700BF0038024083DE1B43BC100020AD
:101F7000002000407047FEE7FEE7FEE7FEE77047FF
:101F800008B5024801F096FB08BD00BFE409002037
:101F900008B5024802F0ECFC08BD00BFBC100020F0
:101FA00008B5024801F008FF08BD00BF2C0A002058
:101FB00008B5024801F000FF08BD00BF4012002034
:101FC00003681A6812F0100F2AD010B582B00446C8
:101FD000144A904201D002B010BD002201921A684A
:101FE00001925B680193019B03F046FA0E4B1B685C
:101FF0005B68C3F580730D4A1360FE2B0CD80C4A46
:102000000021D154002384F838304FF480720849FD
:10201000204603F0DDF9DEE7044B00221A60F1E709
:10202000704700BFA012002040120020FC110020C9
:10203000FC10002010B5044C204603F0FFFA2046A7
:10204000FFF7BEFF10BD00BFA0120020134B83425C
:102050001AD07047124A32F8134020445C1C32F800
:102060001420114402330F2BF4DD0346002810DB4B
:10207000DB100C4A13800B4600290CDBDB100A4AEC
:1020800013805DF8044B704710B4002319461846BE
:10209000E9E7C31DECE7CB1DF0E700BFE409002032
:1020A0009C100020880E00208A0E0020012070471E
:1020B00008B505F099F9162303604FF0FF3008BD0D
:1020C00008B54FF0FF31FFF7F3FFFEE7044BD3F8FD
:1020D000882042F47002C3F88820024A9A60704750
:1020E00000ED00E0000004080268094B9A4200D0AD
:1020F000704782B000230193064B1A6C42F0020233
:102100001A641B6C03F002030193019B02B0704739
:10211000000400400038024000B587B0002301935E
:10212000029303930493059302680F4B9A4202D0E3
:1021300007B05DF804FB002300930C4A116B41F0DB
:1021400002011163126B02F002020092009A102247
:1021500001920222029203930493059201A904487A
:1021600001F018FFE4E700BF00040040003802401F
:102170000004024000B58BB000230893099301933B
:1021800002930393049305930693079319481A4AFD
:10219000026053224260836040F22B12C2600361EE
:1021A0008023836102F020FDD0B9002308930993B6
:1021B00008A9104802F03EFEA8B960230193C82385
:1021C0000293022303930022059201A9094802F019
:1021D0005DFD58B90748FFF79FFF0BB05DF804FBA2
:1021E000FFF766FEE1E7FFF763FEE6E7FFF760FE55
:1021F000F0E700BF001200200004004008B50A48C4
:102200000A4B03604FF4E133436000238360C360F3
:1022100003610C2242618361C36102F0C3FF00B914
:1022200008BDFFF745FEFBE7A012002000100140AB
:1022300030B589B000230393049305930693079365
:10224000026803F1804303F588339A4201D009B054
:1022500030BD04460025019503F594335A6C42F0D5
:1022600010025A645A6C02F010020192019A02950F
:102270001A6B42F001021A631B6B03F00103029315
:10228000029B4FF4C0630393022304930595032339
:1022900006930723079303A9124801F07BFE124817
:1022A000124B03604FF0006343608560C5604FF4DC
:1022B0008063036145618561C5610562456201F026
:1022C00083FC58B9084B63639C63002205212520D9
:1022D00001F0B8FB252001F0E9FBB8E7FFF7E8FDC6
:1022E000F0E700BF000002404012002040640240BE
:1022F00008B5054B1860054B1868002302221946E3
:10230000806805F05BFC08BDE01200201C00002086
:10231000022801D80120704708B505F065F80923A7
:102320000360002008BD000010B5013801280AD85C
:1023300014464FF0FF3392B20748006802F061FF85
:1023400040B9204610BD05F04FF8092303604FF057
:10235000FF30F7E70520F5E7E0120020022801D85A
:102360000020704708B505F03FF8092303604FF0DF
:10237000FF3008BD08B505F037F8092303604FF0BA
:10238000FF3008BD08B548B94FF0FF3301220848B7
:10239000006802F0A7FF40B9012008BD05F024F84D
:1023A000092303604FF0FF30F7E70520F5E700BF92
:1023B000E012002008B5022804D84FF400534B6007
:1023C000002008BD05F010F809230360F8E7034674
:1023D00001386BB182B01A230193019B5A1E0192FE
:1023E000002BFAD103460138002BF4D102B070471C
:1023F0007047000010B51D4C01221146204601F027
:10240000B6FE3220FFF7E3FF00220121204601F053
:10241000AEFE4FF4FA70FFF7DAFF012211462046B4
:1024200001F0A5FE2820FFF7D2FF002401210F486C
:1024300001F096FE40B1B4F5FA7F05D20134A4B2A2
:102440000120FFF7C4FFF1E7B4F5FA7F0BD30124B5
:102450004FF4FA70FFF7BBFF01221146034801F069
:1024600086FE204610BD0024F2E700BF00100240A7
:1024700038B50546082412E000220121114801F078
:1024800076FE4120FFF7A3FF012211460D4801F01F
:102490006EFE0220FFF79BFF6D08013CE4B284B1A1
:1024A00000220121074801F062FE0520FFF78FFF9F
:1024B00015F0010FE0D001221146024801F057FE4D
:1024C000DFE738BD0010024070B50025012211463B
:1024D000184801F04CFE0520FFF779FF082409E0B9
:1024E0004120FFF774FF01221146124801F03FFE20
:1024F000013CE4B2DCB16D080E4E002201213046F1
:1025000001F035FE0520FFF762FF0122114630463B
:1025100001F02DFE0520FFF75AFF0121304601F0A2
:102520001FFE0028DCD065F07F05EDB2D8E7284615
:1025300070BD00BF0010024070B504460D4616463F
:10254000FFF758FFCC20FFF793FF4E20FFF790FFD7
:102550003046FFF78DFF2846FFF78AFF2046FFF73A
:1025600087FFFFF747FFCC20FFF782FF4820FFF7E8
:102570007FFF0121024801F0F3FD0028F9D070BD72
:102580000010024008B5FFF735FFCC20FFF770FFC1
:102590004420FFF76DFF08BD00B587B00023059309
:1025A00000930B4A116B41F010011163126B02F0A2
:1025B00010020092009A0122019202920393049366
:1025C00001A9044801F0E6FC07B05DF804FB00BF78
:1025D000003802400010024008B5FFF7DDFFFFF7AA
:1025E00009FF8A2264217F20FFF7A6FFFFF7CAFFB9
:1025F00008BD000010B5FFF7C5FFFFF7FBFECC20BC
:10260000FFF736FFBE20FFF733FFFFF75DFF0446FD
:10261000FFF75AFF83B21B029BB243EA040083B266
:1026200000EE103AB8EE400ADFED027A20EE270AFB
:1026300010BD00BF0000803D00E0806828B1038825
:102640008B42FAD843888B42F7D37047014BD8822C
:1026500000207047E4120020014B98820020704750
:10266000E412002041EA00207047034600201A7857
:10267000AAB1884212DA10B407E001309C1C013084
:10268000234622783AB1884205DA5C1C12F0800FAA
:10269000F3D10A2AF3D15DF8044B704770477047B5
:1026A00001207047802070474020704708B5FFF731
:1026B000F9FF08BD08B5FFF7F7FF08BD38B50D4BAA
:1026C0002E221A700C4C002525806580FFF7EAFF4A
:1026D0000138A080FFF7E8FF0138E080A582E5829D
:1026E000064B236101236372237700F009FC28461F
:1026F00038BD00BF04130020E41200202CDE0408C3
:102700000346034A10691A460BB1014B1A61704720
:10271000E41200202DE9F04105460E461746069CBE
:1027200092F8008003F00703013B062B5ED8DFE838
:1027300003F06B111D2935414D004B4B1A7F5FE0B3
:10274000494B1A7F013A18BF012200F05BFC013CA3
:1027500000F08780A81C80B2B1B218F0200F5CD0C6
:10276000414B1A7F00F04EFC013C7AD0E81C80B24D
:10277000B1B218F0100F56D03B4B1A7F00F042FC5C
:10278000013C6ED0281D80B2B1B218F0080F50D0B5
:10279000354B1A7F00F036FC013C62D0681D80B2D8
:1027A000B1B218F0040F4AD02F4B1A7F00F02AFC68
:1027B000013C56D0A81D80B2B1B218F0020F44D02F
:1027C000294B1A7F00F01EFC013C4AD0E81D80B264
:1027D000B1B218F0010F3ED0234B1A7F00F012FC6B
:1027E000013C3ED0083597F801800137A8B2B1B25C
:1027F00018F0800FA1D11C4B1A7F013A18BF01229B
:1028000000F000FC013C2CD0681C80B2B1B218F082
:10281000400F95D0144B1A7F97E7134B1A7F013A5C
:1028200018BF01229EE7104B1A7F013A18BF012200
:10283000A4E70D4B1A7F013A18BF0122AAE70A4B01
:102840001A7F013A18BF0122B0E7074B1A7F013AFD
:1028500018BF0122B6E7044B1A7F013A18BF0122C4
:10286000BCE7BDE8F08100BFE41200202DE9F04F85
:1028700083B08146884617461E46DDF830B00D9D70
:10288000DDF838A00024B4420ADA009753462A46FD
:1028900004EB08014846FFF73DFF5D440134F2E7D1
:1028A00003B0BDE8F08F0000F0B585B00B9ECC18EA
:1028B000013C851805F1FF3C1B4DB5F902707D1AEE
:1028C000002D06DD5B1B002B2CDD0A9901FB056644
:1028D0003946154DB5F90650641B002C02DD1B1B53
:1028E000002B1FDD104CB4F90440ACEB0404002CA9
:1028F00000DD121B0C4CB4F90040844209DD241A9F
:10290000121B06EBE40624F00705284404F0070434
:1029100000E00024002A05DD029401960A9C009440
:10292000FFF7A4FF05B0F0BDE41200202DE9F0414F
:1029300082B004461F4B1D690146A869FFF77CFE63
:1029400000B3D0F804800088241A08EBC406B178DC
:10295000184F18F834202B7D706801900091B7F95A
:102960001610B7F91400FFF79FFF3A69537D117DE8
:102970008B420AD870780F4B1A69927D998A00FBB6
:1029800002129A8202B0BDE8F081B7F9140080B259
:10299000FD8A18F834203C7F2B4402442944013C32
:1029A00018BF012400949BB292B289B200F0F3FBED
:1029B000E0E700BFE412002038B50446084B1D696B
:1029C0000146A869FFF738FE40B142680088241A22
:1029D00012F83430A87D00FB03F038BD0020FCE77E
:1029E000E412002001230B80704708B58069FFF7CF
:1029F00023FE003818BF012008BD0000014B1B69F1
:102A0000587D7047E412002008B5024B1B695B68D3
:102A1000984708BDE41200202DE9F04118B10C469A
:102A2000054600260BE000263046BDE8F081023561
:102A3000023C3978FFF716FEFFF7E6FF06442878D8
:102A40000028F1D0002CEFDB6F1C04F1FF3810F0F0
:102A5000800FECD1FFF7D8FF064444463D46EEE731
:102A600008B5FFF7CBFF024BDA8A1044D88208BDC5
:102A7000E412002008B50A2806D00D2803D0044B24
:102A80001B691B68984708BDFFF7EAFFFBE700BF1B
:102A9000E4120020F8B506460C4606E00236023C79
:102AA0002978FFF7DFFDFFF7E5FF671E0AD43546FB
:102AB00015F8010B10F0800FF0D1FFF7DBFF3C465B
:102AC0002E46F2E7F8BD08B5FFF7E4FF08BD0000A9
:102AD0000D4BB3F91A3003F00C03082B0FD00C2B5D
:102AE00008D0042B01D000207047074B1B69187DCC
:102AF00001387047044B1B69187D40087047024B32
:102B00001B69187D40087047E412002038B50D4657
:102B1000FFF7A2FD04462846FFF798FD2043C0B208
:102B200038BD10B582B0002400949BB292B289B235
:102B300080B200F030FB02B010BD10B50021084695
:102B4000FFF7E4FFFFF7B2FD0446FFF7B3FD0346CE
:102B5000224600210846FFF7E4FF10BD70B5044689
:102B600000254E1E31B12046FFF79AFD044405446E
:102B70003146F6E7284670BD08B5FFF776FD08BD7B
:102B800008B5FFF749FF08BD30B583B004460D46D0
:102B90006B461068516803C3BDF90020054B9A824B
:102BA000BDF90220DA826A4629462046FFF78BFFEC
:102BB00003B030BDE4120020002800F087802DE92A
:102BC000F04F85B00546FFF719FF0190404CB4F96E
:102BD00014B0FFF77DFF1FFA80FAE38AA3EB0A0324
:102BE000E38237E0024600E00022394FBB8A9B1A9D
:102BF0001AB2BA82ADF8082084B214FA83F39BB2F9
:102C0000013BADF80C30B7F91630ADF80A30BDF81D
:102C1000048018FA83F39BB2013BADF80E3002AA90
:102C200031462846FFF7B0FFBDF90A90A7F8169085
:102C300031462846FFF792FF2B182A5C0A2A22D039
:102C40000D2A20D0BDF808000444214A94821A7845
:102C500082B35D1C2B786BB347F6FF712846FFF7F4
:102C60008BFF064601462846FFF78AFF184BB3F94B
:102C70001A3003F00303012BB4D0022BB4D100EBC4
:102C8000D0735A10B1E7124AB2F91A2002F00302C7
:102C9000013A012A0AD90E4A002191821A780A2A99
:102CA000D5D1C8440A4AA2F81680D0E7084AA2F84B
:102CB00014B0F3E7064BD88A8244A3F816A05A8BC7
:102CC00022F003025A8305B0BDE8F08F704700BFC1
:102CD000E412002008B5034B9982DA82FFF76CFFFB
:102CE00008BD00BFE412002008B500F0DBF808BD05
:102CF00010B582B0044608461146A388A268019226
:102D0000009363882288FFF7CFFD02B010BD08B59D
:102D1000FFF7EEFF08BD0000134BB3F902308B4202
:102D200020DC114BB3F906308B421BDB10B582B0AF
:102D30000D4BB3F90040844200DC04460A4BB3F962
:102D40000400904200DB1046844201DD02B010BD59
:102D500089B2054B1B7F00930B4682B2A0B200F0F4
:102D60007BF9F3E7704700BFE4120020134BB3F97F
:102D70000030834220DC114BB3F9043083421BDB6B
:102D800010B582B00D4BB3F902408C4200DC0C460A
:102D90000A4BB3F90630934200DB13469C4201DD37
:102DA00002B010BD80B2054A127F00929BB202466B
:102DB000A1B200F051F9F3E7704700BFE412002020
:102DC000F8B507460D4616461C46FFF7A5FF3246E6
:102DD00021463846FFF7A0FF0135013C224629462F
:102DE0003846FFF7C3FF224629463046FFF7BEFFAD
:102DF000F8BD000010B582B0054C247F00949BB252
:102E000092B289B280B200F027F902B010BD00BFC3
:102E1000E412002008B5FFF7D3FF08BDF8B5074658
:102E20000C4616461D46AC4206DA32462146384666
:102E3000FFF772FF0134F6E7F8BD38B504460D46DA
:102E400000F0E6F9782000F037FA00F01DFA284685
:102E500000F032FA00F018FA204600F02DFA00F0E7
:102E600013FA00F0F3F938BD70B506460D46144666
:102E700000F0CEF9782000F01FFA00F005FA2046A5
:102E800000F01AFA00F000FA0024AC4207D2305DDC
:102E900000F012FA00F0F8F90134A4B2F5E700F0FE
:102EA000D5F970BD10B5002416E0A4F15000002142
:102EB000C0B2FFF7C2FF00210120FFF7BEFF0021D3
:102EC0001020FFF7BAFF40228021054800EBC41014
:102ED000FFF7CAFF0134E4B2072CE6D910BD00BFEA
:102EE0001013002008B530B900214FF48062034868
:102EF00004F06EFD08BDFF21F7E700BF10130020AE
:102F000008B5642000F036FA0021AE20FFF795FFE7
:102F100000212020FFF791FF00211020FFF78DFFF7
:102F20000021B020FFF789FF0021C820FFF785FFAF
:102F300000210846FFF781FF00211020FFF77DFFE9
:102F400000214020FFF779FF00218120FFF775FF66
:102F50000021FF20FFF771FF0021A120FFF76DFF87
:102F60000021A620FFF769FF0021A820FFF765FFD9
:102F700000213F20FFF761FF0021A420FFF75DFF44
:102F80000021D320FFF759FF00210846FFF755FF26
:102F90000021D520FFF751FF0021F020FFF74DFF62
:102FA0000021D920FFF749FF00212220FFF745FF2C
:102FB0000021DA20FFF741FF00211220FFF73DFF3B
:102FC0000021DB20FFF739FF00212020FFF735FF2C
:102FD00000218D20FFF731FF00211420FFF72DFF86
:102FE0000021AF20FFF729FF0020FFF77BFFFFF74D
:102FF00059FF034B00221A805A8001225A7108BDE2
:10300000081300207F2815D83F2913D8104B1B79AF
:1030100013B1B2FA82F25209012A0CD0CB0800EBAC
:10302000C31001F0070101238B400A4A115C21EA19
:10303000030111547047CB0800EBC31001F00701E6
:1030400001238B40034A115C19431154704700BFA0
:1030500008130020101300202DE9F04F83B0044620
:103060000E46174698469DF830B07F2800D97F2439
:103070007F2F00D97F273F2E00D93F26B8F13F0F81
:1030800001D94FF03F08BC4220D2A7EB04090FFA48
:1030900089F946451FD2A8EB060A0FFA8AFABC4204
:1030A0001ED201231A4646451ED201230093D14564
:1030B0001EDD09EBD9756D10B9F1000F1ED0BAF104
:1030C000000F33D0CDF80480904653E0A4EB0709FD
:1030D0000FFA89F9DDE7A6EB080A0FFA8AFADEE7AC
:1030E0004FF0FF331A46DEE74FF0FF330093DEE781
:1030F0000AEBDA756D106D422DB2DDE7464502D858
:103100004346B0461E46BC4200D827460FFA88F810
:10311000B04523DC1FFA88F85A4641463846FFF787
:1031200071FF08F101080FFA88F8F1E7464500D869
:10313000B046BC4202D83B4627461C463FB207E099
:10314000BFB25A4641463846FFF75CFF01373FB2EF
:10315000A742F5DD02E0019B9E4212D103B0BDE81B
:10316000F08F2B46554504DA4B441BB2009A1644A7
:10317000B6B21D465A4631462046FFF743FFBC42D1
:10318000E9D0C9F100039D42EBDDA5EB0A031BB2B8
:103190004444A4B2E6E72DE9F04782B09DF828A0A8
:1031A0007F2826D80646884691461F463F2920D8C4
:1031B00083187F2B03DDC0F180091FFA89F908EB22
:1031C00007033F2B02DDC8F14007BFB200250DE029
:1031D00004EB080189B209EB0602CDF800A00B460A
:1031E00092B23046FFF738FF0135EDB2ACB2BC42C7
:1031F000EED902B0BDE8F08782B00A230193019BAB
:103200001BB1019B013B0193F9E702B0704700003D
:1032100010B50D4C01228021204600F0A8FF0122AC
:103220004021204600F0A3FFFFF7E6FF00228021A7
:10323000204600F09CFFFFF7DFFF002240212046E0
:1032400000F095FF10BD00BF0004024010B50D4C0A
:1032500000224021204600F08AFF002280212046E3
:1032600000F085FFFFF7C8FF01224021204600F053
:103270007EFF01228021204600F079FFFFF7BCFF8E
:1032800010BD00BF0004024010B50A4C012280218D
:10329000204600F06CFFFFF7AFFF012240212046DF
:1032A00000F065FFFFF7A8FF00224021204600F054
:1032B0005EFF10BD0004024070B5044600224021AC
:1032C000154800F054FF002519E001228021124822
:1032D00000F04DFF6400E4B2FFF78EFF0E4E0122B6
:1032E0004021304600F043FFFFF786FF00224021D7
:1032F000304600F03CFFFFF77FFF0135EDB2072DB0
:1033000008D814F0800FE0D100228021024800F09C
:103310002EFFDFE770BD00BF0004024008B50B4B75
:103320001A6842F400721A601A6842F480621A60E5
:103330001A6842F480721A60032000F071FB0020CA
:10334000FEF7DAFDFEF7B6FD002008BD003C0240A6
:10335000034A1168034B1B780B441360704700BF8E
:10336000101700200C000020014B1868704700BFA8
:103370001017002038B50446FFF7F6FF0546B4F1F4
:10338000FF3F02D0044B1B781C44FFF7EDFF401BAE
:10339000A042FAD338BD00BF0C0000204A4B5A6847
:1033A00022F440325A605A6841680A435A600268FF
:1033B000536823F48073536002685368016943EAD9
:1033C000012353600268536823F04073536002681E
:1033D000536881680B4353600268936823F4006369
:1033E000936002689368C1680B439360826A374BAD
:1033F0009A4257D00268936823F070639360026822
:103400009368816A0B4393600268936823F040538A
:10341000936002689368C16A0B4393600268936883
:1034200023F00203936002689368017E43EA41033C
:10343000936090F82030002B3FD00268536843F42B
:10344000006353600268536823F46043536001686B
:103450004B68426A013A43EA42334B600268D36ADE
:1034600023F47003D3620168CB6AC269013A43EA6C
:103470000253CB620268936823F40073936002687E
:10348000936890F8301043EA412393600268936890
:1034900023F48063936002689368416943EA81235F
:1034A000936070470268936823F0706393600268CA
:1034B000936823F040539360B0E70268536823F4A5
:1034C00000635360CAE700BF002301400100000F02
:1034D00038B310B50446036C43B1236C13F0100FDE
:1034E0000BD00120002384F83C3010BDFDF742FED4
:1034F0000023636484F83C30EFE7236C23F48853A3
:1035000023F0020343F0020323642046FFF746FF43
:1035100000206064236C23F0030343F00103236461
:10352000E0E701207047000030B583B01346002269
:10353000019290F83C20012A00F09A800546012271
:1035400080F83C200268906810F0010F13D1906859
:1035500040F0010090604B4A10684B4AA2FB0020EB
:10356000800C00EB4000019002E0019C013C0194C2
:1035700001980028F9D12A68906810F0010F79D0DD
:10358000286C20F4E06020F0010040F48070286492
:10359000526812F4806F05D02A6C22F4405242F433
:1035A00080522A642A6C12F4805F36D06A6C22F052
:1035B00006026A64002285F83C20AA6B3348D06377
:1035C000AA6B33481064AA6B3248D0642A686FF043
:1035D000220010602868426842F0806242602868D9
:1035E000826842F48072826028680A4600F14C01C9
:1035F000A86B00F04FFB284B5B6813F01F0F27D11F
:103600002B68264A934211D002F58072934207D06C
:10361000234A934214D000202DE000226A64C9E7B7
:1036200002F50072526812F01F0FF1D19A6812F081
:10363000405F22D19A6842F080429A6000201AE0EE
:1036400002F58072526812F0100FEFD0002012E0E5
:103650002B68124A934201D000200CE09A6812F0C5
:10366000405F0CD19A6842F080429A60002002E0EC
:10367000022000E0002003B030BD0020FBE7002066
:10368000F9E700BF0800002083DE1B431938040857
:10369000A736040803380408002301400020014035
:1036A00000220140704708B5806BFFF7FBFF08BDA3
:1036B0007047704738B5044602681168536811F0C6
:1036C000020F2FD003F0200363B3036C13F0100F2D
:1036D00003D1036C43F400730364936813F0405FF9
:1036E00019D1237EBBB9D36A13F4700F03D093684A
:1036F00013F4806F0FD1536823F020035360236CC1
:1037000023F480732364236C13F4805F03D1236C50
:1037100043F0010323642046FEF798FC23686FF012
:1037200012021A60236819685A6802F0800211F0C8
:10373000040F36D0002A34D0226C12F0100F03D1BF
:10374000226C42F4005222649A6812F4401F21D184
:103750009A6B12F4401F03D09A6812F4806F19D14B
:103760005A6812F4806F15D19A6812F0405F11D137
:10377000227E7AB95A6822F080025A60236C23F4C0
:1037800080532364236C13F4807F03D1236C43F0B4
:1037900001032364204600F041F923686FF00C0216
:1037A0001A6022681168536803F0400311F0010F9A
:1037B00004D01BB1136813F0010F09D122681168FE
:1037C000536803F0806311F0200F00D063B938BD57
:1037D000236C43F4803323642046FFF769FF23689A
:1037E0006FF001021A60E9E7636C43F0020363645F
:1037F0006FF0200515602046FFF75BFF23681D6012
:10380000E5E708B5806B40230364436C43F0040391
:103810004364FFF74EFF08BD08B50346806B026C9A
:1038200012F0500F25D1036C43F400730364036856
:103830009A6812F0405F19D1027EBAB9DA6A12F4BE
:10384000700F03D09A6812F4806F0FD15A6822F07B
:1038500020025A60036C23F480730364036C13F436
:10386000805F03D1036C43F001030364FEF7EEFBBA
:1038700008BD026C12F0100F04D1826BD26C184696
:103880009047F5E7FFF715FFF2E7000030B482B08C
:103890000023019390F83C30012B00F0B780012306
:1038A00080F83C300B68092B3ED90568EA689BB26A
:1038B00003EB43031E3B072404FA03F322EA03034A
:1038C000EB600568EA688C680B8803EB43031E3BDA
:1038D00004FA03F31343EB604B68062B3AD80568F0
:1038E0006A6B03EB8303053B1F2404FA03F322EA0C
:1038F00003036B6305686A6B4B6803EB8303053B4B
:103900000C8804FA03F313436B630268404B9A423A
:1039100050D002683E4B9A4255D0002380F83C308C
:10392000184602B030BC704705682A699BB203EBA9
:103930004303072404FA03F322EA03032B61056817
:103940002A698C680B8803EB430304FA03F31343DF
:103950002B61C1E70C2B16D805682A6B03EB830398
:10396000233B1F2404FA03F322EA03032B630568B5
:103970002A6B4B6803EB8303233B0C8804FA03F3A5
:1039800013432B63C1E70568EA6A03EB8303413BFA
:103990001F2404FA03F322EA0303EB620568EA6AD0
:1039A0004B6803EB8303413B0C8804FA03F3134396
:1039B000EB62AAE70B68122BABD1164A536843F4AB
:1039C00080035360A5E70B68103B012BA5D8114A73
:1039D000536843F4000353600B68102B9DD10E4BCA
:1039E0001B6802F1467202F52E3202F28332A2FB0C
:1039F00003239B0C03EB83035B00019302E0019B19
:103A0000013B0193019B002BF9D186E7022088E757
:103A10000020014000230140080000207047000002
:103A2000074AD36823F4E0631B041B0C000200F474
:103A3000E060034343F0BF6343F40033D360704757
:103A400000ED00E030B4174BDB68C3F30223C3F191
:103A50000704042C28BF04241D1D062D18D9033B80
:103A60004FF0FF3505FA04F421EA0401994005FA04
:103A700003F322EA0303194300280BDB0901C9B24F
:103A800000F1604000F5614080F8001330BC7047E1
:103A90000023E5E700F00F000901C9B2024B1954F9
:103AA000F4E700BF00ED00E014ED00E0002807DBC4
:103AB00000F01F02400901239340024A42F82030DF
:103AC000704700BF00E100E030B405682C6824F4C2
:103AD00080242C60046863608368402B05D00368F1
:103AE00099600368DA6030BC704703689A600368C5
:103AF000D960F8E710B40368D9B210390C4AA2FBB8
:103B0000014212090B4CA25CC2655F2909D923F45A
:103B10007F7323F0030304338365806D5DF8044BEA
:103B2000704723F47F7323F003038365F5E700BF39
:103B3000ABAAAAAAB0F80408836A826992B9012BD9
:103B40000AD0022B02D00BB100207047C36A13F0D9
:103B5000807F28D100207047C36AB3F1C07F24D092
:103B600000207047B2F5005F09D0022B25D9032B46
:103B700025D1C36A13F0807F23D100207047032B27
:103B800003D8DFE803F01404140A00207047C36A66
:103B900013F0807F0DD100207047C36AB3F1C07F5E
:103BA00009D0002070470120704701207047012094
:103BB00070470120704701207047012070470020A6
:103BC000704701207047000070B50446FFF7CCFB3A
:103BD000002C5BD00546002384F83430022384F89F
:103BE00035302268136823F00103136023681A68D4
:103BF00012F0010F0AD0FFF7B7FB431B052BF5D9D5
:103C000020236365032084F8350070BD1A682048BE
:103C100010406168A2680A43E1680A4321690A43C7
:103C200061690A43A1690A43E1690A43216A0A43B7
:103C30000243616A04291ED01A602668756925F05E
:103C40000705636A1D43042B07D1A36A1D43E36A7A
:103C50001BB12046FFF770FF90B975612046FFF752
:103C600049FFE26D3F23934083600020606501239C
:103C700084F83530C9E7E16A206B01430A43DBE78A
:103C800040236365012084F83500BEE70120BCE7CE
:103C90003F8010F038B50446856D90F83400012857
:103CA0002BD0012084F8340094F83500C0B20128EC
:103CB00004D0002384F83430022038BD022084F878
:103CC0003500002060652046FFF7FEFEE26D3F23D1
:103CD0009340AB602268136843F016031360236CB3
:103CE00023B12268136843F0080313602268136845
:103CF00043F0010313600020DFE70220DDE770B529
:103D00000446866DFFF730FB94F83530DBB2022BAA
:103D100006D080236365002384F83430012070BD11
:103D200005462268136823F016031360226853695E
:103D300023F080035361236CE3B12268136823F0FE
:103D4000080313602268136823F0010313602368DB
:103D50001B6813F0010F11D0FFF706FB431B052B67
:103D6000F5D920236365002384F83430032084F8D8
:103D70003500D4E7A36C002BDFD1E3E7E26D3F23EE
:103D80009340B360002084F83400012384F8353078
:103D9000C5E790F83530DBB2022B03D080234365B2
:103DA00001207047052380F835300268136823F03E
:103DB0000103136000207047F0B583B00446002370
:103DC0000193724B1D68724BA3FB0535AD0A876DDD
:103DD0003E68C26D08239340334210D003681A68CE
:103DE00012F0040F0BD01A6822F004021A60C26DA0
:103DF00008239340BB60436D43F001034365E26DCC
:103E000001239340334209D02268526912F0800F97
:103E100004D0BB60636D43F002036365E26D04236D
:103E20009340334209D02268126812F0020F04D086
:103E3000BB60636D43F004036365E26D1023934040
:103E4000334224D02268126812F0080F1FD0BB60E2
:103E500023681A6812F4802F0DD01B6813F4002F0A
:103E600004D1236C9BB12046984710E0A36C73B13A
:103E7000204698470BE01A6812F4807F03D11A6835
:103E800022F008021A60236C0BB120469847E26DBD
:103E900020239340334255D02268126812F0100F4D
:103EA00050D0BB6094F83530DBB2052B0ED02368C0
:103EB0001A6812F4802F33D01B6813F4002F2AD114
:103EC000636C002B3ED0204698473BE02268136885
:103ED00023F0160313602268536923F080035361B3
:103EE000236CA3B12268136823F008031360E26D0A
:103EF0003F239340BB60002384F83430012384F8CF
:103F00003530236D002B3FD0204698473CE0A36C12
:103F1000002BE7D1EBE7E36BA3B12046984711E014
:103F20001A6812F4807F09D11A6822F010021A6010
:103F3000002384F83430012384F83530E36B0BB16F
:103F400020469847636DFBB1636D13F0010F17D0E6
:103F5000052384F835302268136823F001031360C9
:103F6000019B01330193AB4204D823681B6813F013
:103F7000010FF5D1002384F83430012384F8353063
:103F8000E36C0BB12046984703B0F0BD0800002059
:103F9000B5814E1B00230F2B00F2D980F0B583B002
:103FA00039E0072200E00022B2403A430234684E72
:103FB00046F82420674A1468EA4324EA05064F6855
:103FC00017F4803F01D045EA0406624C266064681D
:103FD00002EA04064F6817F4003F01D045EA0406E0
:103FE0005C4C6660A46802EA04064F6817F4801F00
:103FF00001D045EA0406574CA660E46822404E68AA
:1040000016F4001F01D045EA0402524CE26001336D
:104010000F2B00F29A8001229A400C6804EA0205F4
:1040200032EA0404F3D14C68661E012E03D9112C28
:1040300001D0122C12D186685F000324BC4026EA0E
:104040000406CC68BC4034438460466826EA020615
:104050004C68C4F300129A4032434260C7685E0065
:104060000324B440E24327EA04078C68B4403C438D
:10407000C4604C68022C01D0122C13D1DF08083721
:1040800050F827E003F007044FEA840C0F2404FAE9
:104090000CF42EEA040E0C6904FA0CF444EA0E0443
:1040A00040F82740046814404A6802F00302B24016
:1040B000224302604A6812F0805FA8D00022019279
:1040C000254A546C44F480445464526C02F4804297
:1040D0000192019A9C08A61C1D4A52F8267003F012
:1040E000030296000F22B24027EA02071B4A9042C1
:1040F0003FF459AF02F5806290421AD002F5806217
:10410000904218D002F58062904216D002F580628B
:10411000904214D002F58062904212D002F5806283
:10412000904210D002F5806290423FF43AAF0822EC
:104130003AE7012238E7022236E7032234E7042275
:1041400032E7052230E706222EE703B0F0BD7047C4
:1041500000380140003C01400038024000000240AD
:104160000369194201D001207047002070470AB14D
:10417000816170470904816170470000002800F0E8
:10418000D98170B582B00446036813F0010F3BD0AB
:10419000A64B9B6803F00C03042B2CD0A34B9B680D
:1041A00003F00C03082B21D06368B3F5803F4FD098
:1041B000B3F5A02F52D09D4B1A6822F480321A60BA
:1041C0001A6822F480221A606368002B50D0FFF72F
:1041D000CBF80546954B1B6813F4003F14D1FFF74D
:1041E000C3F8401B6428F5D90320AAE18F4B5B6814
:1041F00013F4800FD8D08D4B1B6813F4003F03D00D
:104200006368002B00F09881236813F0020F54D0EC
:10421000864B9B6813F00C0F3ED0844B9B6803F0D9
:104220000C03082B33D0E368002B67D0804B0122AE
:104230001A60FFF799F805467C4B1B6813F0020FD4
:1042400053D1FFF791F8401B0228F5D9032078E1FC
:10425000764A136843F480331360B5E7734B1A68EA
:1042600042F480221A601A6842F480321A60ABE786
:10427000FFF77AF805466D4B1B6813F4003FC3D077
:10428000FFF772F8401B6428F5D9032059E1674B0A
:104290005B6813F4800FC6D1644B1B6813F0020FE8
:1042A00003D0E368012B40F04981604A136823F092
:1042B000F803216943EAC1031360236813F0080F70
:1042C00040D0636963B35B4B01221A60FFF74CF87F
:1042D0000546564B5B6F13F0020F33D1FFF744F8DE
:1042E000401B0228F5D903202BE1504A136823F024
:1042F000F803216943EAC1031360DEE74C4B002257
:104300001A60FFF731F80546484B1B6813F0020F9F
:10431000D3D0FFF729F8401B0228F5D9032010E17C
:10432000444B00221A60FFF71FF805463F4B5B6FB6
:1043300013F0020F06D0FFF717F8401B0228F5D93B
:104340000320FEE0236813F0040F78D0374B1B6C7A
:1043500013F0805F0DD100230193344B1A6C42F0AF
:1043600080521A641B6C03F080530193019B01255A
:1043700000E00025304B1B6813F4807F21D0A36838
:10438000012B32D0052B36D0284B1A6F22F00102B8
:104390001A671A6F22F004021A67A368002B34D040
:1043A000FEF7E2FF0646214B1B6F13F0020F45D1CB
:1043B000FEF7DAFF801B41F288339842F3D90320DD
:1043C000BFE01D4A136843F480731360FEF7CCFF0F
:1043D0000646194B1B6813F4807FD0D1FEF7C4FF4B
:1043E000801B0228F5D90320ABE0104A136F43F07D
:1043F00001031367D1E70D4B1A6F42F004021A67ED
:104400001A6F42F001021A67C7E7FEF7ADFF0646D2
:10441000064B1B6F13F0020F10D0FEF7A5FF801B99
:1044200041F288339842F3D903208AE000380240F1
:1044300000004742800E474200700040E5B9A36982
:10444000002B7DD0464A926802F00C02082A51D017
:10445000022B17D0434B00221A60FEF785FF04465B
:104460003F4B1B6813F0007F42D0FEF77DFF001B1F
:104470000228F5D9032064E0394A136C23F08053F5
:104480001364DCE7374B00221A60FEF76DFF054628
:10449000334B1B6813F0007F06D0FEF765FF401B0F
:1044A0000228F5D903204CE0E369226A1343626ACB
:1044B00043EA8213A26A5208013A43EA0243E26ADB
:1044C00043EA0263264A5360264B01221A60FEF734
:1044D0004BFF0446224B1B6813F0007F06D1FEF70A
:1044E00043FF001B0228F5D903202AE0002028E022
:1044F000002026E0012B26D0194B5B6803F48001D5
:10450000E269914221D103F03F02216A8A421ED121
:10451000616A47F6C0721A408A421AD103F44032E7
:10452000A16A8A4217D103F07063E26A934214D100
:10453000002006E001207047012002E0012000E099
:10454000002002B070BD0120FBE70120F9E7012047
:10455000F7E70120F5E70120F3E70120F1E700BFCD
:104560000038024060004742F8B52F4B9B6803F0CB
:104570000C03042B53D0082B53D12B4B5A6802F059
:104580003F025B6813F4800F28D0274B5B68C3F3AE
:10459000881358010021C01A61F100018E0146EA1A
:1045A000906687013C1A66EB0105E90041EA547107
:1045B000E000C01841F100014B0243EAD05344022D
:1045C000204619460023FCF799FA174B5B68C3F3A2
:1045D000014301335B00B0FBF3F023E0124B5B6857
:1045E000C3F388135C010025E41A65F10005AE01F0
:1045F00046EA9466A701381B66EB0501CC0044EA45
:104600005074C500E81844F100018B0243EA90534E
:104610008402204619460023FCF770FAD5E70348C8
:1046200000E00348F8BD00BF0038024000127A00E5
:104630000024F400002800F09B8070B50D4604466D
:104640004F4B1B6803F00F038B4208D2CBB24C4A8E
:104650001370136803F00F038B4240F08B802368C4
:1046600013F0020F17D013F0040F04D0454A9368DB
:1046700043F4E0539360236813F0080F04D0414AD9
:10468000936843F4604393603E4A936823F0F003D9
:10469000A1680B439360236813F0010F32D0636865
:1046A000012B21D09A1E012A25D9364A126812F010
:1046B000020F61D033498A6822F0030213438B60F2
:1046C000FEF752FE06462F4B9B6803F00C03626810
:1046D000B3EB820F16D0FEF747FE801B41F2883302
:1046E0009842F0D9032042E0264A126812F4003FB3
:1046F000E0D101203BE0234A126812F0007FD9D1BB
:10470000012034E01E4B1B6803F00F03AB4207D9B6
:10471000EAB21B4B1A701B6803F00F03AB422DD19A
:10472000236813F0040F06D0164A936823F4E0536D
:10473000E1680B439360236813F0080F07D0114A18
:10474000936823F46043216943EAC1039360FFF750
:104750000BFF0C4B9B68C3F303130B4AD35CD8408D
:104760000A4B18600A4B1868FDF7C6FB002070BDA5
:10477000012070470120FAE70120F8E70120F6E761
:10478000003C02400038024008DE04080800002017
:1047900010000020014B1868704700BF080000207F
:1047A00008B5FFF7F7FF044B9B68C3F38223034A66
:1047B000D35CD84008BD00BF0038024018DE0408B2
:1047C00008B5FFF7E7FF044B9B68C3F34233034A86
:1047D000D35CD84008BD00BF0038024018DE040892
:1047E0000F2303600B4B9A6802F0030242609A6841
:1047F00002F0F00282609A6802F4E052C2609B68A4
:10480000DB0803F4E0530361034B1B6803F00F0361
:104810000B60704700380240003C024030B4036A2D
:1048200023F001030362056A4268846924F073047B
:104830000B681C4325F002058B682B43104DA842E2
:1048400003D005F58065A84205D123F00803CD68A3
:104850002B4323F004030A4DA84203D005F58065DD
:10486000A84205D122F440724D6915438A692A4352
:10487000426084614A684263036230BC704700BF93
:104880000000014030B4036A23F480730362036ABA
:104890004268C46924F073040D682C4323F4007348
:1048A0008D6843EA0523124DA84203D005F58065C3
:1048B000A84206D123F40063CD6843EA052323F41C
:1048C00080630B4DA84203D005F58065A84207D14F
:1048D00022F440524D6942EA05128D6942EA0512FE
:1048E0004260C4614A68C263036230BC704700BF63
:1048F0000000014030B4036A23F480530362036A6A
:104900004468C26922F4E6420D6842EA052223F4B3
:1049100000538D6843EA0533094DA84203D005F5DD
:104920008065A84204D124F480444D6944EA85148A
:104930004460C2614A680264036230BC704700BFD1
:104940000000014070470268D36843F00103D36060
:104950000268936803F00703062B03D0136843F043
:10496000010313600020704770477047704770471D
:1049700010B5044603681A6912F0020F11D0DA6804
:1049800012F0020F0DD06FF002021A6101230377BB
:1049900003689B6913F0030F70D0FFF7E6FF002355
:1049A000237723681A6912F0040F12D0DA6812F024
:1049B000040F0ED06FF004021A61022323772368DC
:1049C0009B6913F4407F5FD02046FFF7CEFF0023A2
:1049D000237723681A6912F0080F12D0DA6812F0F0
:1049E000080F0ED06FF008021A61042323772368A2
:1049F000DB6913F0030F4ED02046FFF7B6FF00230C
:104A0000237723681A6912F0100F12D0DA6812F0B7
:104A1000100F0ED06FF010021A610823237723685D
:104A2000DB6913F4407F3DD02046FFF79EFF002353
:104A3000237723681A6912F0010F03D0DA6812F0A5
:104A4000010F36D123681A6912F0800F03D0DA689B
:104A500012F0800F34D123681A6912F0400F03D08E
:104A6000DA6812F0400F32D123681A6912F0200F71
:104A700003D0DA6812F0200F30D110BDFFF774FFB9
:104A80002046FFF773FF8AE72046FFF76DFF2046B9
:104A9000FFF76CFF9BE72046FFF766FF2046FFF716
:104AA00065FFACE72046FFF75FFF2046FFF75EFF9C
:104AB000BDE76FF001021A612046FDF7EDF9C1E78D
:104AC0006FF080021A61204600F0F9F9C3E76FF039
:104AD00040021A612046FFF74AFFC5E76FF0200247
:104AE0001A61204600F0EAF9C7E700000368304A7F
:104AF000904212D0B0F1804F0FD0A2F57C4290428C
:104B00000BD002F58062904207D002F5806290429D
:104B100003D002F57842904203D123F070034A6833
:104B20001343234A90422AD0B0F1804F27D0A2F5F8
:104B30007C42904223D002F5806290421FD002F561
:104B4000806290421BD002F57842904217D002F565
:104B50007052904213D002F5806290420FD002F55D
:104B6000806290420BD0A2F59832904207D002F5B5
:104B70008062904203D002F58062904203D123F418
:104B80004073CA68134323F080034A6913430360E8
:104B90008B68C3620B688362054B984203D003F5B0
:104BA0008063984201D10B6903630123436170471D
:104BB00000000140B0B110B5044690F83D3063B13B
:104BC000022384F83D30214651F8040BFFF78EFF95
:104BD000012384F83D30002010BD80F83C30FFF701
:104BE000B1FEEDE701207047B0B110B5044690F872
:104BF0003D3063B1022384F83D30214651F8040B67
:104C0000FFF774FF012384F83D30002010BD80F8C9
:104C10003C30FDF769FAEDE70120704730B4036AD4
:104C200023F010030362036A4468826922F4E642B7
:104C30000D6842EA052223F020038D6843EA05133C
:104C4000114DA84203D005F58065A84206D123F096
:104C50008003CD6843EA051323F040030A4DA842C0
:104C600003D005F58065A84207D124F440644D695E
:104C700044EA85048D6944EA8504446082614A6897
:104C80008263036230BC70470000014038B590F881
:104C90003C30012B66D004460D46012380F83C30A1
:104CA000022380F83D300C2A1AD8DFE802F00719F9
:104CB0001919201919193419191947000068FFF733
:104CC000ADFD2268936943F00803936122689369FC
:104CD00023F0040393612268936929690B4393616C
:104CE000012384F83D30002084F83C0038BD006882
:104CF000FFF794FF2268936943F40063936122688D
:104D0000936923F48063936122689369296943EA74
:104D100001239361E4E70068FFF7B4FD2268D369DB
:104D200043F00803D3612268D36923F00403D361FD
:104D30002268D36929690B43D361D1E70068FFF783
:104D4000D9FD2268D36943F40063D3612268D36933
:104D500023F48063D3612268D369296943EA01237C
:104D6000D361BDE70220C1E710B401F01F010123A8
:104D700003FA01F4036A23EA04030362036A02FAF2
:104D800001F10B4303625DF8044B704710B5044614
:104D900001220068FFF7E8FF23680B4A934203D023
:104DA00002F58062934203D15A6C42F400425A6485
:104DB0002268936803F00703062B03D0136843F0BF
:104DC00001031360002010BD0000014010B504462F
:104DD00000220068FFF7C8FF2368154A934217D0E6
:104DE00002F58062934213D02368196A41F21112CE
:104DF000114208D1196A40F24442114203D11A68A3
:104E000022F001021A60012384F83D30002010BD19
:104E1000196A41F211121142E6D1196A40F2444274
:104E20001142E1D15A6C22F400425A64DCE700BF1F
:104E30000000014090F83C30012B3BD030B40123FE
:104E400080F83C30022380F83D3003685C689D6840
:104E500024F070040A6822435A600368164A934299
:104E60001AD0B3F1804F17D0A2F57C42934213D0F1
:104E700002F5806293420FD002F5806293420BD01C
:104E800002F57842934207D002F57052934203D064
:104E9000A2F59432934204D125F080054A68154367
:104EA0009D60012380F83D30002380F83C30184697
:104EB00030BC7047022070470000014070477047C7
:104EC0000268D36823F0C003D360202380F8393010
:104ED00070470268D36823F49073D3600268536903
:104EE00023F001035361202380F83A30704790F893
:104EF0003930DBB2212B01D0022070478368B3F533
:104F0000805F17D0036A5A1C02621A7803685A60DD
:104F1000C38C9BB2013B9BB2C3844BB90268D3687C
:104F200023F08003D3600268D36843F04003D3606A
:104F300000207047036A1B880268C3F308035360AC
:104F400003691BB9036A02330362E1E7036A0133B1
:104F50000362DDE770B504460268136923F4405329
:104F6000C1680B43136183680269134342691343A9
:104F7000C2691A430168CB6823F4164323F00C037B
:104F80001343CB600268536923F4407381690B4378
:104F90005361C369B3F5004F36D00368654A934245
:104FA00000F09A8002F58062934200F09580FFF74E
:104FB000F7FB0026051846EB06012D1846EB01010C
:104FC000CB0043EA5573EA001546194663689A0018
:104FD0009B0F281846EB0101FBF790FD564DA5FBF2
:104FE00000325109642303FB11031B013233A5FB7B
:104FF00003235B0903F0F00202EB011203F00F033D
:10500000216813448B6093E003684A4A934233D08B
:1050100002F5806293422FD0FFF7C2FB00260518ED
:1050200046EB06012D1846EB0101CB0043EA557310
:10503000EA001546194662683346921846EB0303A8
:10504000281846EB0101FBF759FD3B4DA5FB00324B
:105050005109642303FB1103DB003233A5FB032357
:105060005B095A0002F4F87202EB011203F0070325
:10507000216813448B605BE0FFF7A2FB0026051854
:1050800046EB06012D1846EB0101CB0043EA5573B0
:10509000EA001546194662683346921846EB030348
:1050A000281846EB0101FBF729FD234DA5FB003233
:1050B0005109642303FB1103DB003233A5FB0323F7
:1050C0005B095A0002F4F87202EB011203F00703C5
:1050D000216813448B602BE0FFF772FB0026051854
:1050E00046EB06012D1846EB0101CB0043EA557350
:1050F000EA001546194663689A009B0F281846EB8C
:105100000101FBF7FBFC0C4DA5FB003251096423A8
:1051100003FB11031B013233A5FB03235B0903F0DF
:10512000F00202EB011203F00F03216813448B60BD
:1051300070BD00BF001001401F85EB512DE9F84301
:1051400005460F4616469946DDF820802C682468EF
:1051500037EA04030CBF01240024B4421FD1B8F184
:10516000FF3FF3D0B8F1000F05D0FEF7FDF8A0EB3C
:1051700009004045EAD92A68D36823F4D073D36084
:105180002A68536923F001035361202385F83930DD
:1051900085F83A30002385F83830032000E00020FD
:1051A000BDE8F88358B310B5044690F839300BB316
:1051B000242384F839302268D36823F40053D36061
:1051C0002046FFF7C7FE2268136923F4904313615A
:1051D0002268536923F02A0353612268D36843F499
:1051E0000053D3600020E063202384F8393084F832
:1051F0003A3010BD80F83830FDF71AF8D8E70120B2
:1052000070472DE9F04383B01E4690F83930DBB289
:10521000202B59D104460D469046002958D0002A2B
:1052200058D090F83830012B56D0012380F8383010
:105230004FF00009C0F83C90212380F83930FEF788
:1052400093F80746A4F82480A4F8268084F83890C0
:1052500017E000963B46002280212046FFF76EFFB4
:1052600000283BD12B882268C3F3080353602369CD
:105270000BB9023505E0013503E015F8012B236871
:105280005A60E38C9BB29BB1E28C92B2013A92B22B
:10529000E284A368B3F5805FDBD000963B46002232
:1052A00080212046FFF74AFF0028E6D003200CE0CB
:1052B00000963B46002240212046FFF73FFF78B989
:1052C000202384F8393000E0022003B0BDE8F083E9
:1052D0000120FAE70120F8E70220F6E70320F4E7CF
:1052E0000320F2E72DE9F04383B01E4690F83A30F0
:1052F000DBB2202B5DD104460D46904600295CD0E0
:10530000002A5CD090F83830012B5AD0012380F865
:1053100038304FF00009C0F83C90222380F83A3032
:10532000FEF722F80746A4F82C80A4F82E8084F813
:1053300038901DE000963B46002220212046FFF7D2
:10534000FDFE00283FD1236933B923685B68C3F3AE
:10535000080325F8023B0BE023685B68DBB225F805
:10536000013B05E023685B6803F07F0305F8013B20
:10537000E38D9BB2C3B1E28D92B2013A92B2E28563
:10538000A368B3F5805FD5D000963B46002220216C
:105390002046FFF7D3FEC0B92369002BE2D1236872
:1053A0005B6805F8013BE3E7202384F83A300020EE
:1053B00000E0022003B0BDE8F0830120FAE70120FD
:1053C000F8E70220F6E70320F4E70320F2E7000005
:1053D00030B583B0044690F83A00C0B220283CD1E2
:1053E00000293DD0002A3DD094F83830012B3BD025
:1053F000012384F83830A162A2850025E5632223C9
:1054000084F83A30636B1948D863636B18481864A2
:10541000636B1848D864636B1D65206813460A46A1
:10542000011D606BFEF736FC019523681A68019236
:105430005A680192019A84F83850DA6842F480720E
:10544000DA602268536943F00103536122685369AB
:1054500043F040035361284600E0022003B030BD12
:105460000120FBE70120F9E70220F7E7FB540408DD
:10547000D9550408E555040810B5044601684A6981
:1054800090F83930DBB2212B0AD021684A6902F04A
:10549000400294F83A30DBB2222B11D0002010BD2C
:1054A00002F08002002AF0D04B6923F080034B61A8
:1054B000006B08B1FEF723FC2046FFF701FDE4E78F
:1054C000002AEBD04B6923F040034B61606B08B1BD
:1054D000FEF715FC2046FFF7FCFCDFE7704708B538
:1054E0000168CA6822F04002CA60202280F8392090
:1054F000FFF7F4FF002008BD704708B50346806B36
:105500001B681B6813F4807F13D10023C3850268D6
:10551000D36823F48073D3600268536923F00103D6
:1055200053610268536923F040035361202380F8DC
:105530003A30FFF7E1FF08BD08B590F83A30DBB22A
:10554000222B46D18368B3F5805F0FD003690BBB74
:1055500003685A68836A591C81621A70C38D9BB2B2
:10556000013B9BB2C385F3B1002008BD826A036989
:1055700043B903685B68C3F308031380836A02338B
:105580008362EBE703685B68DBB21380836A0133F5
:105590008362E3E703685B68826A511C816203F0FF
:1055A0007F031370DAE70268D36823F02003D36027
:1055B0000268D36823F48073D3600268536923F0D0
:1055C00001035361202380F83A30FFF795FF002054
:1055D000CBE70220C9E7704708B5806BFFF7FBFFF8
:1055E00008BD704710B5846B23685A6994F8393048
:1055F000DBB2212B10D023685A6902F0400294F8E4
:105600003A30DBB2222B11D0E36B43F01003E3639B
:105610002046FFF7E6FF10BD02F08002002AEAD024
:105620000023E3842046FFF74BFCE4E7002AEBD09D
:105630000023E3852046FFF74CFCE5E710B5044660
:1056400002681368D168526913F00F0005D113F096
:10565000200F02D011F0200F13D128B112F0010257
:1056600013D111F4907F10D113F0800F02D011F0FC
:10567000800F6CD113F0400F02D011F0400F6AD1AF
:1056800010BD2046FFF758FFFAE713F0010F06D0D0
:1056900011F4807F03D0E06B40F00100E06313F071
:1056A000040F04D01AB1E06B40F00200E06313F085
:1056B000020F04D01AB1E06B40F00400E06313F075
:1056C000080F07D011F0200F00D11AB1E26B42F0A1
:1056D0000802E263E26B002AD2D013F0200F02D05E
:1056E00011F0200F21D123685B6903F04003E26BC6
:1056F00012F0080F00D123B32046FFF7EAFB23681E
:105700005A6912F0400F18D05A6922F040025A61CB
:10571000636B73B1124A1A65606BFEF73AFB00289F
:10572000AED0606B036D9847AAE72046FFF704FFF1
:10573000D9E72046FFF755FFA2E72046FFF751FFC4
:105740009EE72046FFF74DFF0023E36398E72046DE
:10575000FFF7CDFB94E72046FFF7C1FE90E700BFBF
:105760006557040808B5806B0023C385C384FFF721
:1057700038FF08BDEFF305837BB9EFF3108313B94E
:10578000EFF311831BB1094B1B68022B08D0074BA9
:10579000186840B901221A6070476FF00500704721
:1057A0006FF0050070474FF0FF307047A01D0020DC
:1057B00008B5EFF30583A3B9EFF3108313B9EFF343
:1057C00011831BB10B4B1B68022B0DD0094B1B68BF
:1057D000012B0CD1074B02221A6001F0A1F8002026
:1057E00008BD6FF00500FBE76FF00500F8E74FF02C
:1057F000FF30F5E7A01D002008B5EFF3058363B97E
:10580000EFF3108313B9EFF311831BB1044B1B6843
:10581000022B02D001F0E0F801E001F0E3F808BD4E
:10582000A01D0020F0B587B000240594EFF3058497
:10583000002C39D1EFF3108313B9EFF311831BB1AF
:105840002D4B1B68022B2FD070B32AB315689369B8
:1058500003B918235C1E372C4AD8546814F0010F82
:1058600048D1566976B14FEA960C946834B1D7683E
:10587000B7F5916F02D3176907B1C6B92CB14FF0D4
:10588000FF340EE04FF0800CEFE7D4688CB9146958
:1058900094B14FF0FF3404E01546002418234FF074
:1058A000800C012C0AD0ACB1059807B0F0BD0124E2
:1058B000F7E74FF0FF34F4E70024F2E71469926849
:1058C0000292019400930B466246294600F0B6FF0F
:1058D0000590E9E705AA019200930B461FFA8CF2A6
:1058E000294600F0E7FF0128DED000230593DBE71F
:1058F0000020DAE70020D8E7A01D002008B5EFF36C
:10590000058383B9EFF3108313B9EFF311831BB150
:10591000084B1B68022B09D008B9002008BD01F014
:1059200071F90020FAE76FF00500F7E76FF0050066
:10593000F4E700BFA01D0020034B0360034B0B6086
:1059400080231360704700BF18190020141700202F
:10595000034B0360034B0B604FF48073136070477D
:10596000A8210020A41D002000F1080343604FF08F
:10597000FF328260C360036100230360704700232D
:105980000361704743684B609A688A605160996010
:105990000861036801330360704730B40D68B5F1E6
:1059A000FF3F11D000F108031C465B681A68AA4249
:1059B000FAD963684B6099608C6061600861036824
:1059C0000133036030BC70470469F2E70369416842
:1059D00082688A60416851605A68824206D000221B
:1059E00002611A68013A1A601868704782685A6042
:1059F000F5E7000082B0002301930D4B1B68B3F163
:105A0000FF3F08D04FF0500383F31188BFF36F8F2F
:105A1000BFF34F8FFEE74FF0500383F31188BFF3BE
:105A20006F8FBFF34F8F019B002BFCD002B07047EC
:105A30001400002008480068006880F308884FF0D0
:105A4000000080F3148862B661B6BFF34F8FBFF3D6
:105A50006F8F00DF00BF000008ED00E0DFF80C00F2
:105A6000016841F4700101607047000088ED00E0BA
:105A70004FF0807340F8043C21F0010140F8081C0D
:105A8000054B40F80C3C40F8202C6FF0020340F826
:105A9000243C4438704700BFF5590408000000005A
:105AA000074B19680868B0E8F04F80F30988BFF326
:105AB0006F8F4FF0000080F311887047AFF30080C4
:105AC000842600204FF0500383F31188BFF36F8FBB
:105AD000BFF34F8F0A4A136801331360012B00D0C4
:105AE0007047084B1B6813F0FF0FF9D04FF05003BD
:105AF00083F31188BFF36F8FBFF34F8FFEE700BFB3
:105B00001400002004ED00E0094B1B6843B94FF07E
