:020000040800F2
:1000000000080020E1010008AD2900084D15000896
:10001000A92900084D0700087F41000800000000E2
:10002000000000000000000000000000612F000838
:10003000F509000800000000A52D00087132000835
:10004000FB010008FB010008FB010008FB010008A0
:10005000FB010008FB010008FB010008FB01000890
:10006000FB010008FB010008FB010008FB01000880
:10007000FB010008FB010008FB010008FB01000870
:10008000FB010008FB010008FB010008FB01000860
:10009000FB010008FB010008FB010008FB01000850
:1000A000FB010008FB010008FB010008FB01000840
:1000B000FB010008FB010008FB010008FB01000830
:1000C000FB010008FB010008FB010008FB01000820
:1000D000FB0100085D3F0008FB010008FB01000870
:1000E000FB010008FB010008FB010008FB01000800
:1000F000FB010008FB010008FB010008FB010008F0
:10010000FB010008FB010008FB010008FB010008DF
:10011000FB010008FB010008FB010008FB010008CF
:10012000FB010008FB010008FB010008FB010008BF
:1001300000F002F800F045F80AA090E8000C8244B4
:100140008344AAF10107DA4501D100F03AF8AFF291
:10015000090EBAE80F0013F0010F18BFFB1A43F0A5
:10016000010318473870000058700000103A24BF8F
:1001700078C878C1FAD8520724BF30C830C144BF0C
:1001800004680C607047000000230024002500264E
:10019000103A28BF78C1FBD8520728BF30C148BFEA
:1001A0000B607047642900F0A780782900F0E08098
:1001B000732900F0E381002070471FB51FBD10B503
:1001C00010BD00F015FA1146FFF7F7FF04F058F8DC
:1001D00000F033FA03B4FFF7F2FF03BC03F0D1FFE2
:1001E0000948804709480047FEE7FEE7FEE7FEE7CB
:1001F000FEE7FEE7FEE7FEE7FEE7FEE70448054907
:10020000054A064B704700007532000831010008AE
:10021000000200200008002000040020000400204C
:10022000704700000FB4044910B503AA029800F00B
:10023000A9F910BC5DF814FB340000202DE9F04151
:100240000E460446002020622046E168884730B30D
:10025000252805D0D4E901219047206A401CF2E707
:10026000E168204600278847050018D0A5F1410025
:10027000192802D820354FF4006732462946204617
:100280002760FFF78FFF40B1012804D0F61D26F04C
:1002900007060836D8E7361DD6E72846DAE7206A8B
:1002A000BDE8F08170B50C460546012A05D02878D6
:1002B000800600D5EA69002302E0012305E05B1C0B
:1002C000934202D2E05C0028F9D1A869E618C01A6E
:1002D000A861286A184428622846AFF3008004E029
:1002E000D5E9012114F8010B9047B442F8D3284610
:1002F000AFF3008070BD00002DE9F04106460024F8
:1003000010687529314616A510D0AFF3008000287B
:1003100002DA404213A507E031688A0701D512A529
:1003200002E0490704D511A5012401E0AFF30080E4
:1003300000210A2206F1240709E0B0FBF2FCB0FB21
:10034000F2F302FB1C00303078541846491C002898
:10035000F3D123462A463046BDE8F04100F0A3B869
:10036000000000002D0000002B0000002000000015
:1003700070B504460D4621461068AFF30080218811
:10038000090502D50F4A7A4402E00E4A7A440E3239
:10039000002104F1240305E000F00F060009965D3A
:1003A0005E54491C0028F7D120780023000704D5AB
:1003B000702D02D009B1022311322046BDE87040F1
:1003C00000F071B8326D000010B5431C02E010F867
:1003D000011B71B18107FAD14FF0013202C88C1AAA
:1003E0008C4314EAC211F9D0C01A0A0603D0C01E09
:1003F00010BDC01A10BD0A0401D0801E10BD090234
:10040000FCD0401E10BD00004FF0013C50F8042B02
:1004100051F8043B9A4221D1A2EB0C03934313EA17
:10042000CC1317D150F8042B51F8043B9A4215D144
:10043000A2EB0C03934313EACC130BD150F8042B1B
:1004400051F8043B9A4209D1A2EB0C03934313EAFF
:10045000CC13DBD04FF00000704700BFD01A01BAB8
:10046000B1FA81F101F0180122FA01F0CB40C1F19B
:100470002001DBB2C0B2C01A2CFA01F3D11A9143A9
:1004800011EAC311E6D17047704770477047704753
:1004900010B500F089F8006810BD10B5044600F0F2
:1004A00083F8046010BD2DE9F0470D469946924649
:1004B000044600F124080168880604D5E06921F0AB
:1004C0001001216000E00120A84201DD471B00E08F
:1004D0000027A1697A1902EB0900081AA0612078A7
:1004E000C00602D42046AFF30080002608E0D4E91D
:1004F00001211AF806009047206A401C761C2062F1
:100500004E45F4DB2078C0060AD52046AFF30080C4
:1005100006E0D4E9012130209047206A401C206287
:10052000381EA7F10107F4DC07E0D4E9012118F82F
:1005300005009047206A401C2062281EA5F1010595
:10054000F3DC2046AFF300802078000602D50220BD
:10055000BDE8F0870120FBE710B5436913B1AFF3A5
:10056000008001E0FFF79EFE012010BD127800F12F
:1005700024010A7000224A700122EDE711684FF051
:10058000FF32E9E7074B70B50D467B4400F015F8E4
:100590000446284600F024F810B14FF0FF3070BD3B
:1005A000204670BDD73C000000487047A0010020E5
:1005B00001694A1C02610878704700B58FB0CDE927
:1005C00001310021059105497944CDE90310114617
:1005D0006846FFF733FE0FB000BD0000E5FFFFFFE8
:1005E000007B00F08000704700487047A0010020A9
:1005F0007546FFF7F9FFAE4605006946534620F001
:100600000700854618B020B5FFF7F8FDBDE820408B
:100610004FF000064FF000074FF000084FF0000BBE
:1006200021F00701AC46ACE8C009ACE8C009ACE871
:10063000C009ACE8C0098D4670470446AFF300809E
:100640002046FFF7C7FD10B500F0AAFF10BD2DE949
:10065000F04107460C460026002509E0360239190C
:10066000491B491E88B200F008F80644681CC5B250
:10067000A542F3DB3046BDE8F08170B504460026A4
:1006800001F042F82546E11704EB11610912A0229E
:1006900002EB4101C8B201F003F801F081F8E11763
:1006A00004EB11610912A4EB0121C8B200F0F8FFBC
:1006B00001F076F801F028F8A12000F0F1FF01F038
:1006C0006FF8002000F0B4FF064601F043F8304612
:1006D00070BD2DE9F04105460E461746002409E09D
:1006E000E20026FA02F2D1B22A1990B200F006F81E
:1006F000601CC4B2BC42F3DBBDE8F08170B50446B7
:100700000E4601F001F82546E11704EB11610912CC
:10071000A02202EB4101C8B200F0C2FF01F040F894
:10072000E11704EB11610912A4EB0121C8B200F03A
:10073000B7FF01F035F8304600F0B2FF01F030F8B5
:1007400001F008F80A2003F041FD70BD00BFFEE78C
:1007500010B50A2003F060FD10BD000010B50020A8
:100760000E4908600E48006820F470400C4908608B
:100770000846006840F44050086000200949C1F86C
:100780008C01FFF7E5FF012004490860FFF7E0FF57
:1007900000200449C1F8800110BD00008001224200
:1007A00000100140000022420F48806940F0100014
:1007B0000D4988610D4800684FF20F0188430B49CD
:1007C00008600846006843F20301084307490860CF
:1007D0000846C06840F00200C8600846C06840F0A3
:1007E0000800C8607047000000100240001001407F
:1007F00010B500200E4908600E48006820F47040D3
:100800000C4908600846006840F440500860012028
:100810000949C1F88C01FFF79BFF012004490860DA
:10082000FFF796FF00200449C1F8800110BD0000C9
:1008300080012242001001400000224270B50546AE
:1008400000241548006820F47040134908600846E9
:10085000006840F400400860002613E000200F49C3
:1008600008601E2003F0D8FC01200D49C1F880016A
:100870006006040E09487438006808B1601CC4B2F0
:10088000701CC6B2082EE9DB15B9FFF7B1FF01E015
:10089000FFF764FF204670BD001001408001224236
:1008A0000000224270B504461248006820F47040EF
:1008B000104908600846006840F440500860002075
:1008C0000D490860002512E0E0090B490C31086071
:1008D0006006040E01200949C1F88001FFF738FFC6
:1008E000002005490860FFF733FF681CC5B2082DDA
:1008F000EADB70BD0010014080012242000022426C
:1009000010B50E48006820F470400C490860084695
:10091000006840F440500860012009490860094916
:10092000C1F88001FFF714FF002005490860FFF7B8
:100930000FFF00200349C1F8800110BD00100140E5
:100940008C0122420000224210B50E48006820F4BB
:1009500070400C4908600846006840F44050086048
:100960000020094908600949C1F88C01FFF7F0FE31
:10097000012005490860FFF7EBFE01200349C1F89B
:100980008C0110BD00100140800122420000224273
:1009900010B500241448006820F470401249086023
:1009A0000846006840F40040086001200F490860D4
:1009B00003F032FC01200E49C1F8800103F02CFC49
:1009C00007E0601CC4B2FA2C03DDFFF7BDFF012075
:1009D00010BD0648803800680028F2D103490C3960
:1009E000086000BFF4E70000001001408C012242C3
:1009F00000002242704700001CB50121102002F0C7
:100A0000D3F94FF40050ADF8000010208DF803002A
:100A100003208DF8020069462D4800F088F94FF454
:100A200000512B4800F056FB0220ADF80000482092
:100A30008DF803006946264800F079F90221244820
:100A400000F048FBFFF7B0FE0020224908601420A8
:100A500003F0BCFB01202049C1F8B401322003F0AF
:100A6000B5FB00208DF80400012201A900F036F941
:100A7000012201A9A42000F031F916208DF804000C
:100A8000012201A9802000F029F90C208DF8040032
:100A9000012201A9882000F021F9022201A9A12048
:100AA00000F022F89DF8040030280ED19DF80500D2
:100AB00003280AD19DF805009DF8042000EB0221CF
:100AC00006A0FFF7AFFB00201CBD0120FCE70000E3
:100AD00000100140B4012242000022424354502041
:100AE00049443A25780D0A002DE9F04106460F46A3
:100AF0001546FFF705FF7020FFF7D4FEFFF748FF0C
:100B0000F0B2FFF7CFFEFFF743FFFFF7F9FE7120CA
:100B1000FFF7C8FEFFF73CFF00240BE0691EA1426F
:100B200001D0012100E000210846FFF787FE38557B
:100B3000601CC4B2AC42F1DBFFF706FFBDE8F081F8
:100B400071B581B00024002661480078401C6049DE
:100B50000870084600780A2190FBF1F201FB1200B0
:100B600018B15B4800780A2867DA012201A902203F
:100B7000FFF7BAFF9DF8040000F00F0000287ED0B8
:100B80009DF8040000F00F00062878DA9DF80400B4
:100B900000F00F01FF208840C5B2E843C0B240F02A
:100BA000C0004C4981F8200000245AE0494890F8E0
:100BB00020000121A1400840F0B3474931F814005A
:100BC00004226946FFF790FF424890F8300000F099
:100BD0000100C0B19DF801009DF8001001F00F0167
:100BE00000EB01203B49163121F814009DF8030069
:100BF0009DF8021001F00F0100EB012135480C3087
:100C000020F814101DE09DF801009DF8001001F07F
:100C10000F0100EB0120C0F5F07081B22D480C30BF
:100C200020F814109DF803009DF8021001F00F0148
:100C300000EB0121274801E011E020E0163020F808
:100C400014109DF8000000F0F000802807D000216B
:100C50002048163020F814100A3820F81410601CB0
:100C6000C4B2052CA2DB01261A48808920B9194894
:100C7000C08A08B9002001900020154908709DF82D
:100C8000040000F01F00D0B9124890F8200000F0D6
:100C9000800040B10F4890F8200020F080000D49FE
:100CA00081F820000BE04FF6FF700A498881C88266
:100CB000084690F8200000F0E00081F82000044889
:100CC0000078F02802DD0A200149087030467CBD1A
:100CD000890000208C000020DA6F00082DE9F04127
:100CE00005460E4617464FF00008FFF709FE702034
:100CF000FFF7D8FDFFF74CFEE8B2FFF7D3FDFFF793
:100D000047FE00240BE0305DFFF7CCFDFFF740FE0F
:100D10008046B8F1000F00D003E0601CC4B2BC42B2
:100D2000F1DB00BFFFF710FE4046BDE8F0812DE982
:100D3000F041024600250026002000230024002761
:100D400091F803C00CF00F0591F803C00CF0100CE3
:100D5000BCF1000F03D091F802C04CEA050591F8F0
:100D600000C0BCF1000F31D0146800202BE04FF020
:100D7000010C0CFA00F3B1F800C00CEA03069E4225
:100D800020D183004FF00F0C0CFA03F7BC4305FA97
:100D900003FC4CEA040491F803C0BCF1280F06D10F
:100DA0004FF0010C0CFA00FCC2F814C00AE091F8F4
:100DB00003C0BCF1480F05D14FF0010C0CFA00FC48
:100DC000C2F810C0401C0828D1D31460B1F800C08C
:100DD000BCF1FF0F34DD546800202EE000F1080C58
:100DE0004FF0010808FA0CF3B1F800C00CEA030652
:100DF0009E4221D183004FF00F0C0CFA03F7BC4345
:100E000005FA03FC4CEA040491F803C0BCF1280F76
:100E100005D100F1080C08FA0CF8C2F8148091F81A
:100E200003C0BCF1480F07D100F1080C4FF00108D6
:100E300008FA0CF8C2F81080401C0828CED3546081
:100E4000BDE8F081F0B50A4600230024002100250A
:100E500000F00046B6F1004F02D11D4EF16901E0ED
:100E60001B4E7168C0F3034583B200F44016B6F51B
:100E7000401F08D121F07061154E766826F070662B
:100E8000134F7E6012E000F48016B6F5801F06D185
:100E9000032606FA05F4A14341F0706106E0460D11
:100EA000360103FA06F6B14341F0706122B1460DF6
:100EB000360103FA06F6314300F00046B6F1004F62
:100EC00002D1034EF16101E0014E7160F0BD0000FE
:100ED000000001400246002093680B400BB1012046
:100EE00000E00020704741617047000008B5012113
:100EF000282001F059FF01211748FFF7A3FF282000
:100F0000ADF8000003208DF8020010208DF80300DA
:100F100069461248FFF70BFF1020ADF8000048208B
:100F20008DF8030069460D48FFF701FF4820ADF832
:100F3000000003208DF8020010208DF803006946A0
:100F40000748FFF7F4FE4021054800F0C3F80821E8
:100F5000034800F0BFF808BD00023000000C01405B
:100F60000014014008B50121082001F01DFF4FF4D5
:100F7000F040ADF8000003208DF8020010208DF83D
:100F8000030069461148FFF7D2FE4FF40040ADF868
:100F9000000048208DF8030069460C48FFF7C7FEA3
:100FA0004FF40061094800F095F84FF4804107487C
:100FB00000F090F84FF40051044800F08BF84FF423
:100FC0008051024800F086F808BD0000000C014086
:100FD00008B50121282001F0E7FE01211748FFF79D
:100FE00031FF2820ADF8000003208DF8020010200A
:100FF0008DF8030069461248FFF799FE1020ADF8FE
:10100000000048208DF8030069460D48FFF78FFE69
:101010004820ADF8000003208DF8020010208DF864
:10102000030069460748FFF782FE4021054800F0AB
:1010300051F80821034800F04DF808BD00023000C7
:10104000000C01400014014008B50121042001F00A
:10105000ABFE0D20ADF8000003208DF8020010203B
:101060008DF8030069460D48FFF761FE0220ADF8D8
:10107000000048208DF8030069460848FFF757FE36
:101080000121064800F026F80421044800F022F867
:101090000821024800F01EF808BD000000080140C9
:1010A00010B50446012C06D0022C07D0032C08D022
:1010B000042C0CD108E0FFF719FF09E0FFF752FFFD
:1010C00006E0FFF785FF03E0FFF7BEFF00E000BF8B
:1010D00000BF10BD016170470EB50121102001F065
:1010E00063FE42F20200ADF8000010208DF803000C
:1010F00003208DF8020069463448FFF718FE0221EC
:101100003248FFF7E7FF4FF400513048FFF7E2FFA6
:10111000FFF74AFB00202E4908600A2003F056F82A
:1011200001202C49C1F8B4010A2003F04FF8022035
:10113000ADF8000028208DF8030069462348FFF72A
:10114000F6FD02212148FFF7CEFE642003F03EF8B1
:10115000042201A948F2401000F052F800208DF856
:10116000080001A91CA0FFF75DF81EA101A8FFF768
:101170004BF940BB02208DF80400012201A948F27E
:10118000400000F06FF9012201A948F2470000F089
:1011900037F89DF80400602807DA9DF8041013A0C2
:1011A000FFF740F8012000F02FF90A2003F00EF8B5
:1011B00000208DF80400012201A948F2400000F04F
:1011C00051F900200EBD0120FCE700000010014095
:1011D000B4012242000022424354502049443A259F
:1011E000730D0A0039313437000000004465666130
:1011F000756C74205665723A25640D0A0000000073
:101200002DE9F04105460F461646FFF779FB2820E9
:10121000FFF748FBFFF7BCFB2812FFF743FBFFF784
:10122000B7FBE8B2FFF73EFBFFF7B2FBFFF768FB47
:101230002920FFF737FBFFF7ABFB00240BE0711E03
:10124000A14201D0012100E000210846FFF7F6FA93
:101250003855601CC4B2B442F1DBFFF775FBBDE842
:10126000F081000031B582B0002400256348007889
:10127000401C62490870084600780A2190FBF1F290
:1012800001FB120018B15D4800780A287DDA0122BE
:1012900002A948F24E10FFF7B3FF9DF8080000F0D6
:1012A0000F0000286BD09DF8080000F00F00062802
:1012B00065DA9DF8080000F00F01FF208840C0B2F9
:1012C00000909DF80000C043C0B240F0C0004C49FF
:1012D00081F82000002444E0494890F820000121D2
:1012E000A140084020B3474931F81400042201A965
:1012F000FFF786FF424890F8300000F00100C0B1CF
:101300009DF804009DF8051000EB012081B23C48D7
:10131000163020F814109DF806009DF8071000EB19
:101320000120C0F5487081B235480C3020F8141007
:1013300015E09DF804009DF8051000EB012081B236
:101340002F480C3020F814109DF806009DF8071067
:1013500000EB012081B22A48163020F81410601CDE
:10136000C4B2052CB8DB01252548808920B9244862
:10137000C08A08B9002002900020204908709DF81A
:10138000080000F0800000B100E00DE09DF80800CA
:1013900000F00F00062807DA0020009001226946BD
:1013A00048F24E1000F05EF89DF8080000F08F0043
:1013B00080281AD1124890F8200000F0800040B137
:1013C0000F4890F8200020F080000D4981F820009F
:1013D0000BE04FF6FF700A498881C882084690F8F2
:1013E000200000F0E00081F8200004480078F02898
:1013F00002DD0A200149087028463EBD8A0000200F
:101400008C0000209C70000838B5054600240020A0
:101410008DF800008DF8015000BF09E09DF8000034
:101420000F49095D0844C0B28DF80000601CC4B2C9
:10143000B82CF3D39DF80000C043401CC0B28DF817
:101440000000B822064948F2470000F00BF80222DB
:10145000694648F2FF0000F005F8002038BD0000A2
:10146000E46F00082DE9F04104460E4617464FF0A0
:101470000008FFF745FA2820FFF714FAFFF788FA6B
:101480002012FFF70FFAFFF783FAE0B2FFF70AFA2C
:10149000FFF77EFA00250BE0705DFFF703FAFFF718
:1014A00077FA8046B8F1000F00D003E0681CC5B29F
:1014B000BD42F1DB00BFFFF747FA4046BDE8F081CF
:1014C0002DE9F04304460D4611464FEAE27802EB5F
:1014D00058784FEAE80817464FEAE27902EB597963
:1014E0004FEAE909A2EBC909B9F1000F02D04FF0A8
:1014F000010901E04FF00009C84408FB02F808F0B8
:10150000FF0C2378611C0C460878812B05DB4028F2
:1015100003DBFF2801D0FF2B0AD1002604E00021C5
:1015200005F8011B711CCEB26645F8DBBDE8F083FF
:101530007F2803DAA0F14001C8B202E0A0F1410126
:10154000C8B2A3F18101CBB200BFEFE700BFFEE755
:1015500010B500200F4908600F48406820F4704023
:101560000D4948600846406840F4405048600020FB
:101570000A49C1F8AC01022002F04EFE01200549E3
:101580000860022002F048FE00200449C1F8B001C2
:1015900010BD0000B00122420010014000002242B4
:1015A00008B50121102001F0FFFB4FF4C050ADF849
:1015B000000010208DF8030003208DF8020069461A
:1015C0000448FFF7B4FB0120034908600349C1F850
:1015D000AC0108BD00100140B001224200002242CF
:1015E00010B500200F4908600F48406820F4704093
:1015F0000D4948600846406840F44050486001206A
:101600000A49C1F8AC01022002F006FE012005499A
:101610000860022002F000FE00200449C1F8B00179
:1016200010BD0000B0012242001001400000224223
:1016300070B5054600241748406820F470401549ED
:1016400048600846406840F400404860002616E0C4
:10165000002011490860022002F0DEFD01200F4940
:10166000C1F8B0016006040E0B488438006808B168
:10167000601CC4B2012002F0CFFD701CC6B2082E5F
:10168000E6DB15B9FFF7ACFF01E0FFF761FF20468D
:1016900070BD000000100140B00122420000224253
:1016A00070B504461548406820F4704013494860FE
:1016B0000846406840F440504860002010490860E7
:1016C000002517E0E0090E49091F08606006040EB6
:1016D000022002F0A1FD01200A49C1F8B001022058
:1016E00002F09AFD002006490860022002F094FDF5
:1016F000681CC5B2082DE5DB70BD0000001001407C
:10170000B00122420000224210B50F48406820F488
:1017100070400D4948600846406840F440504860B9
:1017200001200A4908600A49C1F8B001042002F00A
:1017300073FD002005490860042002F06DFD0020C3
:101740000349C1F8B00110BD00100140AC012242B4
:101750000000224210B50F48406820F470400D4947
:1017600048600846406840F44050486000200A49FC
:1017700008600A49C1F8AC01042002F04DFD0120C7
:10178000054908600549C1F8AC01042002F044FD98
:1017900010BD000000100140B001224200002242B2
:1017A00010B500241448406820F470401249486085
:1017B0000846406840F40040486001200F49086036
:1017C00002F02AFD01200E49C1F8B00102F024FD0B
:1017D00007E0601CC4B2FA2C03DDFFF7BBFF012059
:1017E00010BD0648803800680028F2D10349091D61
:1017F000086000BFF4E7000000100140AC01224285
:101800000000224270B5044600261D480588408825
:1018100045431B48808846F60401884216D1184883
:101820008079012812D10020154988712A20488129
:101830002B2088810021084600F0F6FE0120104987
:1018400088712B2048812A20888103E000210846E6
:1018500000F0EAFE01F088F800260DE04FF48070F9
:1018600008490861400048610748046080204861D9
:10187000086180000861761CAE42EFD370BD0000A5
:1018800090010020001001400C0C014010B50446EE
:10189000002C3BD13A498871F02008804FF4A070A9
:1018A00048800846808849F2413188420BD034484C
:1018B000808846F60401884205D03148808845F288
:1018C000103188421AD12C202D4908812A204881C4
:1018D0002B2088810846808846F60401884205D07E
:1018E0002748808845F21031884245D14FF4A070D6
:1018F000234908804FF4F07048803DE022202049C1
:101900000881202048812120888135E001201C4960
:1019100088714FF4A0700880F020488008468088C5
:1019200049F24131884205D01548808845F210318E
:10193000884207D12C20124908812A2048812B2077
:10194000888106E022200E4908812120488120203C
:1019500088810B48808846F60401884205D00848F3
:10196000808845F21031884206D14FF4F070044966
:1019700008804FF4A0704880002000F051FC10BD9A
:10198000900100202DE9FF4F84B081468A46002057
:10199000039002900698A0EB09050798A0EB0A06B1
:1019A000CDF80490CDF800A0002D01DD012705E061
:1019B0000DB9002702E04FF0FF376D42002E02DD27
:1019C0004FF0010806E016B94FF0000802E04FF0B2
:1019D000FF387642B54201DD2C4600E034464FF038
:1019E000000B21E0009A91B2019A90B200F022F827
:1019F0000398284403900298304402900398A04230
:101A000005DD0398001B039001983844019002986B
:101A1000A04205DD0298001B02900098404400900F
:101A20000BF101001FFA80FB601C8345DADD08B072
:101A3000BDE8F08F30B504460D462946204600F03B
:101A4000F3FD00F091FF4FF48070074908614000FA
:101A500048610648008806490860802002494861BC
:101A600008618000086130BD001001403A0000208C
:101A70000C0C0140F0B504460D4616461F462B4699
:101A8000324629462046FFF77DFF3B46224629463F
:101A90002046FFF777FF3B46324639462046FFF7A0
:101AA00071FF3B46324629463046FFF76BFFF0BDDB
:101AB0002DE9F04306460F46904600244546032094
:101AC000A0EB48093CE07A1B91B2321990B2FFF7C3
:101AD000B1FF3A1B91B2721990B2FFF7ABFF3A19FE
:101AE00091B2721990B2FFF7A5FF7A1991B232192B
:101AF00090B2FFF79FFF7A1991B2321B90B2FFF7B5
:101B000099FF3A1991B2721B90B2FFF793FF7A1BBB
:101B100091B2321B90B2FFF78DFF3A1B91B2721B4C
:101B200090B2FFF787FF641CB9F1000F03DAA00041
:101B3000801D814404E0601B80000A3081446D1EDA
:101B4000AC42C0DDBDE8F08370B504460D461646D4
:101B50003D48808849F24131884205D03A48808822
:101B600045F21031884240D13749488900F0EAFEF9
:101B70004FF48070354908614000486120123449B3
:101B80000860802031494861086180000861401088
:101B9000086140004861E0B22D49086080202B496F
:101BA00048610861800008612749888900F0CAFE01
:101BB0004FF480702549086140004861281224498B
:101BC0000860802021494861086180000861401058
:101BD000086140004861E8B21D49086080201B4947
:101BE000486108618000086112E017488079012887
:101BF00004D115480088401E001B84B21249488950
:101C0000214600F0B9FE10498889294600F0B4FE4B
:101C10004FF480700D494861400048610A480089CE
:101C20000B4908608020094948610861800008610B
:101C30004010086140004861054806608020486106
:101C400008618000086170BD900100200010014013
:101C50000C0C01402DE9FC4F05460E4617469846F0
:101C6000DDF82C90002001902C48808846F6040175
:101C7000884229D129488079012825D1AB463546AB
:101C800026480088C01B401E86B24746234800886D
:101C9000A0EB0B00401E1FFA80F800201F4988713E
:101CA0002A2048812B20888143463A4631462846DF
:101CB000CDF80090FFF7CEFF0120184988712B2046
:101CC00048812A20888127E0781B401C80B201903F
:101CD00034461FE02146284600F0A6FC00F044FEF2
:101CE0004FF0000A11E04FF480700D490861400088
:101CF00048610C48C0F8009080204861086180006D
:101D000008610AF101001FFA80FA01988245EADBB6
:101D1000601C84B24445DDDDBDE8FC8F90010020ED
:101D2000001001400C0C014008B50121192001F000
:101D30003BF80121FE48FFF785F84FF4F860ADF855
:101D4000000010208DF8030003208DF80200694682
:101D5000F848FEF7ECFF4FF4F861F648FFF7BAF9E0
:101D60004FF6FF70ADF800006946F348FEF7DFFF5D
:101D70004FF6FF71F048FFF7ADF9322002F026FA76
:101D80000121002000F0F8FD322002F01FFA0020AF
:101D900000F03EFAE949888008468088FF280ADB7F
:101DA000084680884FF6FF71884204D0E348808857
:101DB000B0F5134F7ED1D32000F0C4FD00F0FEF942
:101DC00000F0FCF900F0FAF9DC49888008468088C8
:101DD0004FF6FF7101EA0020D849888000F0EEF943
:101DE000D64989880843D54988800846808849F2C1
:101DF000413188425ED0BF2000F0A4FD00F0DEF942
:101E000000F0DCF900F0DAF900F0D8F9CB4988806D
:101E1000084680884FF6FF7101EA0020C749888094
:101E200000F0CCF9C54989880843C4498880084630
:101E3000808846F60401884274D0D42000F082FDE8
:101E400000F0BCF900F0BAF900F0B8F9BB4988809D
:101E5000084680884FF6FF7101EA0020B749888064
:101E600000F0ACF9B54989880843B4498880084630
:101E7000808845F21031884254D04FF45A4000F027
:101E800061FD00F09BF94FF45B4000F05BFD00F05A
:101E900095F9AA498880084680884FF6FF7101EAC3
:101EA0000020A64988804FF45C4000F04BFD00F014
:101EB00085F900E036E0A149898808439F49888078
:101EC00008468088B0F5004F02D145F21050888056
:101ED0009A48808845F21051884223D0A12000F012
:101EE00031FD00F06BF99549888000F067F993495E
:101EF0008880084680884FF6FF7101EA00208F49EC
:101F0000888000F05BF98D49898808438B49888077
:101F10000846808845F26171884203D141F663101A
:101F2000864988808548818885A0FEF77BF98348AB
:101F3000808849F2413188427ED1CF2000F002FDF5
:101F4000002000F0EDFCC12000F0EAFC302000F0A1
:101F5000E7FCED2000F0F6FC642000F0E1FC03203B
:101F600000F0DEFC122000F0DBFC812000F0D8FC49
:101F7000E82000F0E7FC852000F0D2FC102000F003
:101F8000CFFC7A2000F0CCFCCB2000F0DBFC392029
:101F900000F0C6FC2C2000F0C3FC002000F0C0FCC8
:101FA000342000F0BDFC022000F0BAFCF72000F065
:101FB000C9FC202000F0B4FCEA2000F0C3FC0020A3
:101FC00000F0AEFC002000F0ABFCC02000F0BAFC3A
:101FD0001B2000F0A5FCC12000F0B4FC012000F0A3
:101FE0009FFCC52000F0AEFC302000F099FC3020B2
:101FF00000F096FCC72000F0A5FCB72000F090FC94
:10200000362000F09FFC482000F08AFC3A2000F0C7
:1020100099FC552000F084FCB12000F093FC0020D6
:1020200000F07EFC1A2000F07BFCB62000F08AFC59
:102030000A2000F075FC00E0A7E0A22000F070FC90
:10204000F22000F07FFC002000F06AFC262000F067
:1020500079FC012000F064FCE02000F073FC0F200C
:1020600000F05EFC2A2000F05BFC282000F058FC09
:10207000082000F055FC0E2000F052FC082000F073
:102080004FFC542000F04CFCA92000F049FC4320F8
:1020900000F046FC0A2000F043FC0F2000F040FC5A
:1020A000002000F03DFC002000F03AFC002000F091
:1020B00037FC002000F034FCE12000F043FC00205D
:1020C00000F02EFC152000F02BFC172000F028FC5F
:1020D000072000F025FC112000F022FC062000F073
:1020E0001FFC2B2000F01CFC562000F019FC3C20AB
:1020F00000F016FC052000F013FC102000F010FC8E
:102100000F2000F00DFC3F2000F00AFC3F2000F003
:1021100007FC0F2000F004FC2B2000F013FC002033
:1021200000F0FEFB002000F0FBFB012010E00000AF
:102130000002300000100140000C0140900100201E
:10214000204C43442049443A25780D0A0000000001
:1021500000F0E6FB3F2000F0E3FB2A2000F0F2FB5A
:10216000002000F0DDFB002000F0DAFB002000F092
:10217000D7FBEF2000F0D4FB112000F0E3FB782028
:1021800002F024F8292000F0DDFB0020FFF77EFBA1
:102190000120034908604FF6FF70FFF733FB08BDCD
:1021A000A801224210B50246012000E050430B0076
:1021B000A1F10104E1B2F9D110BD00004FF0883166
:1021C000114A1160121D116000210F4A0C3211607A
:1021D00091150E4A116149005161402151610A492E
:1021E0000831096888B240211161C90011614FF0BE
:1021F0003331054A1160121D11604FF6FF71024A1A
:102200000C32116070470000000C014000100140CA
:1022100000B50346184600F095FBFFF7CFFF00BD61
:10222000F0B5054600240027FC48807901280BD131
:10223000FA48808846F60401884205D0F74880882D
:1022400041F66311884208D1F4488079F0B9F34827
:10225000808841F66311884218D1082D15D2DFE835
:1022600005F00406080A0C0E101206250DE00725DD
:102270000BE0042509E0052507E0012505E0002520
:1022800003E0032501E0022500BF00BFE34880888A
:1022900049F24131884217D0E048808846F604016F
:1022A000884211D0DD48808845F2103188420BD039
:1022B000DA48808845F21051884205D0D748808896
:1022C00041F6631188427DD1082D1CD2DFE805F06C
:1022D0000406090C0F12151800BF14E044F0800426
:1022E00011E044F040040EE044F0C0040BE044F080
:1022F000200408E044F0600405E044F0A00402E09B
:1023000044F0E00400BF00BFC448808845F210518B
:10231000884202D14FF4585700E03627BF488088E2
:1023200045F2103188420DD0BC48808845F21051EA
:10233000884207D0B948808841F66311884201D0AD
:1023400044F00804B548808846F60401884201D16B
:1023500044F002042146384600F00EFBAF48808866
:1023600041F6631188421DD004F0200068B1AB48EB
:102370000088AA494988884214DAA8480688408813
:10238000A6490880084646800CE0A4480088A34976
:102390004988884206DDA148068840889F49088010
:1023A000084646809D48808845F2105188427DD17C
:1023B0009A49488900F0C6FA4FF48070984908613C
:1023C000400000E029E14861002096490860802033
:1023D0009349486108618000086190494989491C16
:1023E00088B200F0AFFA4FF480708D490861400068
:1023F000486100208B490860802089494861086154
:102400008000086185494989891C88B200F09AFAE0
:102410004FF4807082490861400048617F4800881D
:10242000401E00127F49086080207D494861086194
:102430008000086179494989C91C88B200F082FA94
:102440004FF4807076490861400048617348007815
:10245000401EC0B27349086080207149486108611C
:10246000800008616D49888900F06CFA4FF4807033
:102470006B4908614000486100206A49086080207B
:102480006749486108618000086164498989491C7D
:1024900088B200F057FA4FF480706149086140003B
:1024A000486100205F490860802000E035E05C4919
:1024B000486108618000086158498989891C88B28F
:1024C00000F040FA4FF480705549086140004861BF
:1024D00052484088401E00125249086080205049EE
:1024E00048610861800008614C498989C91C88B22B
:1024F00000F028FA4FF480704949086140004861B3
:1025000046488078401EC0B2464908608020444951
:1025100048610861800008617FE04049488900F017
:1025200011FA4FF480703E49086140004861002074
:102530003C49086080203A49486108618000086190
:102540004010086140004861002036490860802042
:10255000334948610861800008614010086140000B
:1025600048612E480088401E00122E4908608020D5
:102570002B494861086180000861401008614000F3
:10258000486126480078401EC0B226490860802075
:10259000234948610861800008612049888900F06A
:1025A000D1F94FF480701E49086140004861002055
:1025B0001C49086080201A49486108618000086150
:1025C00040100861400048610020164908608020E2
:1025D00013494861086180000861401008614000AB
:1025E00048610E484088401E00120E490860802055
:1025F0000B49486108618000086140100861400093
:10260000486106488078401EC0B2064908608020B4
:1026100003494861086180000861F0BD9001002015
:10262000001001400C0C014030B504460D46304806
:10263000808849F24131884205D02D48808845F292
:102640001031884240D12A49488900F07BF94FF483
:1026500080702849086140004861201226490860BE
:1026600080202449486108618000086140100861A9
:1026700040004861E0B22049086080201D4948615F
:102680000861800008611A49888900F05BF94FF4FD
:102690008070184908614000486128121649086096
:1026A0008020144948610861800008614010086179
:1026B00040004861E8B21049086080200D49486137
:1026C00008618000086112E009488079012804D17E
:1026D00007480088401E001B84B2054948892146EE
:1026E00000F04AF902498889294600F045F930BDD1
:1026F00090010020001001400C0C01402DE9F84F22
:1027000080460E4617461C46B3462046E31704EBA8
:102710005373DB1021464FEAE47C04EB5C7C4FEA08
:10272000EC0CA4EBCC0CBCF1000F02D04FF0010C70
:1027300001E04FF0000C6344224604EBD27C4FEAE8
:102740006C0C03FB0CF3DBB20093A7F12000C7B2C3
:10275000002556E00C2C07D107EB47002B4901EB75
:10276000800010F8059013E0102C05D1284800EBEC
:10277000071010F805900BE0182C07D107EBC700E5
:10278000244901EB800010F8059001E0BDE8F88FC6
:102790004FF0000A2FE009F0800030B11E48028897
:1027A00031464046FFF7D0F907E00A9828B91B48A0
:1027B000028831464046FFF7C7F94FEA49604FEAC1
:1027C0001069701C86B216484088B04200DCDDE714
:1027D000A6EB0B00A0420AD15E4608F101001FFAE9
:1027E00080F80F480088404500DCCFE706E00AF19A
:1027F000010000F0FF0ABAF1080FCCDB00BF681C33
:10280000C5B200988542A5DB00BFBFE71A58000893
:102810008E5C00087E6200083A0000203C00002028
:10282000900100202DE9FF4F81B0074691461E46DA
:102830000E9D4FF0000A002439E0301B401EC1B24B
:102840000A20FFF7AFFCB9FBF0F00A21B0FBF1F270
:1028500001FB1208BAF1000F16D1701EA04213DD61
:10286000B8F1000F0ED10020AB4605EBDB7149102B
:1028700001FB0471009088B22B4620220299FFF7D9
:102880003DFF12E04FF0010A0020AB4605EBDB7183
:10289000491001FB0471009088B208F13001CAB2FE
:1028A0002B460299FFF72AFF00BF601CC4B2B44256
:1028B000C3DB05B0BDE8F08F2DE9F84704460D46AF
:1028C00090469946DDE9096704F0FF0A08EB040029
:1028D0001FFA80F809EB05001FFA80F916E044455D
:1028E00002DB5446A81985B24D4500DB14E00020F8
:1028F00000903A78334629462046FFF7FFFE3046DF
:1029000006EBD07104EB61018CB27F1C38787E2815
:1029100002DC38782028E2DA00BFBDE8F887000042
:102920004FF48071054A1161490051610449086002
:1029300080215161116189001161704700100140CF
:102940000C0C01404FF48071054A516149005161FE
:10295000044908608021516111618900116170474B
:10296000001001400C0C014000B502490889FFF736
:10297000E9FF00BD9001002010B504460B4620463B
:10298000FFF7E0FF4FF4807005490861400048619F
:10299000044803608020486108618000086110BD20
:1029A000001001400C0C014000BFFEE77047000022
:1029B00070B5002100230F22C47804B3154C24689D
:1029C00004F4E064C4F5E064210AC1F10403CA40E0
:1029D000447804FA03F184781440214309010E4C31
:1029E0000678A155047804F01F050124AC40057851
:1029F0006D11AD0005F1E025C5F8004109E004784E
:102A000004F01F050124AC40044D0678761145F80A
:102A1000264070BD0CED00E000E400E080E100E045
:102A200002490143024A1160704700000000FA05A4
:102A30000CED00E01CB5002001900121102000F0F9
:102A4000B3F90220ADF8000048208DF80300032000
:102A50008DF8020069461E48FEF769F902211C48FC
:102A6000FEF738FB4FF40050ADF8000010208DF851
:102A7000030069461648FEF75AF94FF4005114480E
:102A8000FEF728FBFDF790FE002012490860642045
:102A900001F09CFB01201049C1F8B401642001F051
:102AA00095FB012000F042F9012201A94FF450608A
:102AB00000F01AF89DF8041008A0FDF7B3FB9DF88C
:102AC000040000F0800008B100201CBD0120FCE7DC
:102AD00000100140B4012242000022424354502021
:102AE00049443A25780D0A002DE9F04105460F4684
:102AF0001646FDF705FFB220FDF7D4FEFDF748FFAF
:102B00002812FDF7CFFEFDF743FFE8B2FDF7CAFE3E
:102B1000FDF73EFFFDF7F4FEB320FDF7C3FEFDF722
:102B200037FF00240BE0711EA14201D0012100E01B
:102B300000210846FDF782FE3855601CC4B2B4423D
:102B4000F1DBFDF701FFBDE8F08100002DE9F14F59
:102B500082B04FF0000AD3466C480078401C6B49A5
:102B60000870084600780A2190FBF1F201FB120080
:102B700018B1664800780A287EDA012202A90020EE
:102B8000FFF7B2FF9DF8080000F01F00002873D087
:102B90009DF8080000F01F0040F0C0005C4981F87B
:102BA00020004FF0000A76E0594890F820000121FB
:102BB00001FA0AF10840002869D0564931F81A0094
:102BC000042201A9FFF790FF514890F8300000F06F
:102BD000010078B39DF807109DF8062001EB022054
:102BE00001F003FF06464C4A4C4B01F065FF0446DA
:102BF00001F0CEFE81B24648163020F81A109DF83A
:102C000005109DF8042001EB022001F0EEFE0646BF
:102C1000434A444B01F050FF80460022424B02F0F1
:102C20007FF8044601F0B4FE81B239480C3020F838
:102C30001A102CE0FFE79DF807109DF8062001EB25
:102C4000022001F0D2FE0646334A344B01F034FF35
:102C5000044601F09DFE81B22D480C3020F81A1078
:102C60009DF805109DF8042001EB022001F0BDFE47
:102C700006462B4A2B4B00E01DE001F01DFF0446E9
:102C800001F086FE81B22248163020F81A100AF1AF
:102C9000010000F0FF0ABAF1050F85DB4FF0010BD0
:102CA0001B48808920B91A48C08A08B900200290C0
:102CB0000020164908709DF8080000F01F00D0B9E8
:102CC000134890F8200000F0800040B1104890F8C0
:102CD000200020F080000E4981F820000BE04FF624
:102CE000FF700B498881C882084690F8200000F0E8
:102CF000E00081F8200005480078F02802DD0A2075
:102D0000024908705846BDE8FE8F00008B00002085
:102D10008C000020A67000087B14AE47E17AD43FF7
:102D2000D881734694F6D23F0000894038B50446F6
:102D3000002000900CB180200090012269464FF4E1
:102D4000506000F001F838BD2DE9F04104460E4610
:102D500017464FF00008FDF7D3FDB220FDF7A2FDA6
:102D6000FDF716FE2012FDF79DFDFDF711FEE0B206
:102D7000FDF798FDFDF70CFE00250BE0705DFDF7FB
:102D800091FDFDF705FE8046B8F1000F00D003E08D
:102D9000681CC5B2BD42F1DB00BFFDF7D5FD404662
:102DA000BDE8F0817047000029B1064A92690243EC
:102DB000044B9A6104E0034A92698243014B9A6191
:102DC000704700000010024030B5002100220024AE
:102DD00000232D4D6D6805F00C0121B1042905D0AB
:102DE000082923D105E0294D056022E0274D056023
:102DF0001FE0254D6D6805F47012234D6D6805F4D4
:102E00008034022505EB92421CB9214D55430560E3
:102E10000BE01D4D6D6805F400351DB11C4D55438B
:102E2000056002E0194D5543056002E0174D05604D
:102E300000BF00BF144D6D6805F0F0010909154D84
:102E40006B5C0568DD4045600F4D6D6805F4E06121
:102E5000090A104D6B5C4568DD4085600A4D6D6860
:102E600005F46051C90A0B4D6B5C4568DD40C560D7
:102E7000054D6D6805F44041890B074D6B5CC568D5
:102E8000B5FBF3F5056130BD0010024000127A0079
:102E900000093D001C0000202C00002070B500241B
:102EA00001211048FEF71FF8002512E008210D4807
:102EB000FEF710F908210B48FEF715F84FF6FF70E2
:102EC00000EA440402210748FEF704F80443681CA2
:102ED000C5B2102DEADB01210248FEF7FBF82046BF
:102EE00070BD00000008014070B50446012114487F
:102EF000FDF7F9FF00251BE008211148FDF7F3FF5E
:102F000004F40040B0F5004F04D104210C48FEF752
:102F1000E1F803E004210A48FDF7E5FF4FF6FF70F2
:102F200000EA440408210648FEF7D4F8681CC5B23C
:102F3000102DE1DB01210248FEF7CCF870BD000046
:102F40000008014010B504462046FFF7CDFFFFF70B
:102F5000A5FF10BD10B504462046FEF7A1F810BD30
:102F6000704710B500F002F810BD00000CB500204D
:102F7000019000903348006840F480303149086087
:102F800000BF3048006800F4003000900198401CF9
:102F90000190009818B90198B0F5A06FF1D12948B7
:102FA000006800F4003010B10120009001E0002022
:102FB00000900098012843D12348006840F0100099
:102FC000214908600846006820F0030008600846B0
:102FD000006840F0020008601A48406819494860DB
:102FE0000846406848600846406840F48060486091
:102FF0000846406820F47C1048600846406840F469
:10300000E81048600846006840F08070086000BF23
:103010000C48006800F000700028F9D009484068AA
:1030200020F00300074948600846406840F002006D
:10303000486000BF0348406800F00C000828F9D140
:103040000CBD000000100240002002402DE9FF4F9F
:1030500093B007460D461C46AA462046E21704EBED
:103060005272D2102146E31704EB5373DB10A4EB2A
:10307000C3030BB1012300E000231A44624302F0B2
:10308000FF0B0C2C06D0102C04D0182C02D017B03B
:10309000BDE8F08F224601A91598FEF711FA002627
:1030A0002FE001A810F806804FF0000923E008F097
:1030B000800030B11548028829463846FEF744FDA5
:1030C00007E0209828B91248028829463846FEF7BA
:1030D0003BFD4FEA48604FEA1068681C85B2A5EBDB
:1030E0000A00A04203D15546781C87B206E009F1D8
:1030F000010000F0FF09B9F1080FD8DB00BF701C18
:10310000C6B25E45CDDB00BFC1E700003A0000203B
:103110003C0000202DE9FE4F07460E4691469A4698
:10312000DDE90D4B0C9DB8460296002001904CE065
:10313000019870BB2878802802DD0120019044E0CE
:1031400004EBD47108EB0902A2EB6101B94202DA87
:10315000301986B2474602985044001BB04200DA4C
:1031600036E028780D2804D1301986B247466D1C08
:1031700007E0CDF800B02A78234631463846FFF7FD
:10318000BDFA6D1C204604EBD07107EB61018FB2D4
:103190001BE0FFE70020019008EB0900001BB8428C
:1031A00002DA301986B2474602985044001BB042FA
:1031B00000DA0DE023462A4631463846CDF800B005
:1031C000FFF744FFAD1C381987B228780028AFD12B
:1031D00000BFBDE8FE8F00002DE9FE43074689468B
:1031E00015461C46DDF8288000262846FDF7ECF839
:1031F00086B2204604EBD071491071438EB2464529
:103200000BDD0120CDE9005402900E48438802886E
:1032100049463846FFF77EFF11E0A8EB060000EBB9
:10322000D071C1F34F0601200649CDE90054029048
:103230004B880A88F11988B24946FFF76BFFBDE851
:10324000FE83000090010020042808D14FF0E02107
:10325000096941F004014FF0E022116107E04FF0ED
:10326000E021096921F004014FF0E022116170476B
:103270007047000010B51348006840F00100114984
:10328000086008464068104908400E4948600846F2
:1032900000680E4908400B4908600846006820F4A1
:1032A000802008600846406820F4FE0048604FF423
:1032B0001F008860FFF755FE4FF00060044908606A
:1032C00010BD0000001002400000FFF8FFFFF6FEF6
:1032D00008ED00E02DE9FC5F04460D4617461E464A
:1032E000DDE90EABDDE90C894FF4784057490880E1
:1032F00057A01021CDE90010564843880288A0212C
:103300002820FFF7D9FA54A01021CDE90010514828
:1033100043880288A0217820FFF7CEFA4FA0102121
:10332000CDE900104B4843880288B4212820FFF7DC
:10333000C3FA4BA01021CDE900104648438802880B
:10334000B4217820FFF7B8FA46A01021CDE900108B
:10335000404843880288C8212820FFF7ADFA42A0E0
:103360001021CDE900103B4843880288C82178200D
:10337000FFF7A2FA3DA01021CDE90010354843889F
:103380000288DC212820FFF797FA39A01021CDE927
:103390000010304843880288DC217820FFF78CFA3F
:1033A00034A01021CDE900102A4843880288F0217A
:1033B0002820FFF781FA102004232246A021009044
:1033C0004020FFF72FFA102004232A46A021009066
:1033D0009020FFF727FA102004233A46B4210090EA
:1033E0004020FFF71FFA102004233246B42100903A
:1033F0009020FFF717FA102004234246C8210090BE
:103400004020FFF70FFA102004234A46C8210090FD
:103410009020FFF707FA102004235246DC21009089
:103420004020FFF7FFF9102004235A46DC210090CA
:103430009020FFF7F7F91020009006480188032339
:103440006020109AFFF7EEF9BDE8FC9F3A000020DB
:1034500078313A009001002079313A0078323A0010
:1034600079323A0078333A0079333A0078343A00C6
:1034700079343A006661632069733A002DE9F04FB0
:103480008BB00024002006904FF6FF70FEF7BAF9CB
:103490001F20FC490880FC48006810216423A022FA
:1034A000CDE9001028210846FFF706FA4FF47842CC
:1034B0001421084600F062FA0020F44981F8200047
:1034C000486240E200BFF148416801208847EF4868
:1034D00090F8200000F0C00040287DD10020069028
:1034E000EA4890F8200020F04000E84981F82000E8
:1034F0000846808907A921F82400E448C08A01EB26
:1035000084014880601CC4B2012C06D0022C14D067
:10351000032C25D0042C0FD138E04FF6FF72142174
:10352000084600F02BFADA490988143988B24FF4BA
:103530007842142100F022FAF5E1D54909881439BE
:1035400088B24FF6FF72142100F018FAD048408874
:10355000143881B24FF47842142000F00FFAE2E1FF
:10356000CB484088143881B24FF6FF72142000F027
:1035700005FAC74A5288143A91B2C54A1288143AD9
:1035800090B24FF4784200F0F9F9CCE10024D0E099
:10359000C04911F8241007AA32F82110BD4A02EBE5
:1035A0008402527807AB33F82220881A002801DB06
:1035B000014600E041420D46B64911F8241007AA21
:1035C00002EB81014988B34A02EB8402527807ABCF
:1035D00003EB8202528800E0A6E1881A002801DB92
:1035E000014600E041420E466D437643A81901F0C2
:1035F00013FACDE9020101F0A1F8CDE9040101F0CF
:10360000C7F91FFA80F8A34901EB8401897807AA5A
:1036100032F821109F4A02EB8402D27807AB33F8CC
:103620002220881A002801DB014600E041420D46B5
:10363000984901EB8401897807AA02EB8101498846
:10364000944A02EB8402D27807AB03EB82025288E1
:10365000881A002801DB014600E041420E466D4316
:103660007643A81901F0D8F9CDE9020101F066F816
:10367000CDE9040101F08CF91FFA80F9484601F008
:10368000CFFE0746404601F0CBFE8346394601F0A7
:10369000B1FD8246504601F01FFD4FF066327E4B71
:1036A000CDE9040101F0CCF90FD3504601F014FD2F
:1036B0007A4A7B4BCDE9040101F0FCFA05D3B8F15D
:1036C000000F02D0B9F1000F31D10024704A5288A6
:1036D000143A91B26E4A1288143A90B24FF6FF72C1
:1036E00000F04CF94FF478421421084600F046F9F6
:1036F0006C49504601F0A8FE834601F059FE87B29E
:10370000BDF82A10BDF82800BDF8262002AB83C3FF
:103710000192BDF824000090BDF82230BDF82020B1
:10372000BDF81E10BDF81C00FFF7D4FDCBE6601CF1
:10373000C4B2032CFFF62CAFBDF82010BDF81C203E
:10374000881A01F055FE074651490988A1F1280061
:1037500001F04EFE8346394601F04CFD4B4948626C
:10376000BDF82010BDF81C20881801F041FE039020
:103770004648416A039801F067FE4549059008886C
:1037800001F04EFE0490059901F02AFF83464FF0A8
:10379000804101F02FFD074601F0EEFD00B23B49EC
:1037A0008885BDF82610BDF81E20881A01F020FE7D
:1037B000074637494988A1F1280001F019FE8346E0
:1037C000394601F017FD31498862BDF82610BDF871
:1037D0001E20881801F00CFE03902C48816A039883
:1037E00001F032FE83462A49488801F019FE594605
:1037F000049001F0F5FE4FF08041059001F0FAFCD5
:10380000074601F0B9FD00B22049C885486A01F0B9
:10381000B3FDB0F1000B01DB584601E0CBF1000035
:1038200002280ADC1949886A01F0A6FD071E01DB9F
:10383000384600E07842022856DD0024144A5288B7
:10384000143A91B2124A1288143A90B24FF6FF72AB
:1038500000F094F84FF478421421084600F08EF8F6
:1038600011A01021CDE900100948438802881A21CF
:103870002820FFF721F8054890F83000F0B9012022
:103880001DE000003A000020C40000208C00002051
:1038900090010020B07000086666EE3FCDCCCCCC25
:1038A000CCCCF03F0000C8425450204E65656420E7
:1038B000726561646A7573742100000000202449F8
:1038C00081F83000084690F8300030B1902021494E
:1038D0000870D0202049087005E0D0201D490870EC
:1038E00090201D4908702EE01F201C4908804FF6CB
:1038F000FF70FDF787FF1AA01021CDE900101E48C8
:10390000438802886E212320FEF7D6FF4FF47A7099
:1039100000F05CFC00F03EFA4FF6FF70FDF772FF1E
:103920000BB0BDE8F08F00BF0A2000F04FFC0698F6
:10393000401C80B206900698B0F57A7F02DD00F058
:1039400055F801E000BFBDE500BF00BFE8E700009B
:103950008C000020C0000020C10000203A000020A0
:10396000546F7563682053637265656E2041646AA5
:10397000757374204F4B21009001002070B50446F0
:103980000D4616461848068004F10D018AB2193911
:1039900088B22B462946FDF7F5FF05F10D0083B2ED
:1039A000193881B222462046FDF7ECFF6A1C91B21D
:1039B000621C90B2FEF73EF86A1C91B2621E90B291
:1039C000FEF738F86A1E91B2621C90B2FEF732F828
:1039D0006A1E91B2621E90B2FEF72CF806222946AA
:1039E0002046FEF765F870BD3A00002070B535201E
:1039F000FCF743FE04460A2C42D104212820FCF7A0
:103A000026FE0546284601F0F3FC06461D4901F056
:103A1000F1FB1D49486204212C20FCF718FE0546E5
:103A2000284601F0E5FC0646164901F0E3FB16497D
:103A3000886202213020FCF70AFE00B21249888514
:103A400002213220FCF703FE00B20F49C885342062
:103A5000FCF713FE0C4981F83000084690F830005E
:103A600030B1902009490870D0200949087005E05C
:103A7000D02006490870902005490870012070BDCB
:103A80000020FCE720BCBE4C8C000020C0000020C1
:103A9000C100002008B53D48808845F21051884299
:103AA00020D1FDF719FB18B939483A49486004E0BC
:103AB000FEF7C0FF384837494860364890F8300074
:103AC00040F08000334981F83000084690F830001B
:103AD0002E49897901F0010108432E4981F830000F
:103AE000002008BD2948808841F66311884218D11A
:103AF000FCF782FF294827494860084690F83000C3
:103B000040F0800081F83000084690F830001F49EE
:103B1000897901F0010108431E4981F83000002035
:103B2000DFE701211120FFF73FF942F20900ADF86C
:103B3000000010208DF8030003208DF80200694674
:103B40001748FDF7F4F80620ADF8000048208DF87E
:103B5000030069461248FDF7EAF80E491631A1F153
:103B60000A0000F09FF8FCF76EFDFFF73FFF08B179
:103B70000020B6E74FF6FF70FDF744FEFFF77EFC2E
:103B800000F008F9FFF732FF0120AAE790010020BA
:103B9000651200088C0000204D2B0008410B000826
:103BA0000010014070B506460025002400201D4984
:103BB00008601D49C1F88C011A493431086030464B
:103BC00000F0ACF9062000F027FB00201649C1F8F0
:103BD0008001012000F020FB012012490860002034
:103BE0001149C1F8800100BF12E04FF6FF7000EAF2
:103BF000440400200B49086001200B49C1F88001F2
:103C000008487838006808B1601C84B2681CC5B2E6
:103C1000102DEADB241101200249343108602046CE
:103C200070BD000080012242000022422DE9FE43C7
:103C300080460027002406E04046FFF7B3FF2DF83A
:103C40001400601C84B2052CF6DB002416E0601C16
:103C500085B20FE03DF814003DF81510884207DDED
:103C60003DF814603DF815002DF814002DF815608E
:103C7000681C85B2052DEDDB601C84B2042CE6DBEC
:103C80000027012405E03DF81400384487B2601C89
:103C900084B2042CF7DB032097FBF0F086B23046A9
:103CA000BDE8FE832DE9F04104460D460748007843
:103CB000FFF7BCFF064606480078FFF7B7FF074648
:103CC00026802F800120BDE8F0810000C000002088
:103CD000C10000207FB504460D4602A903A8FFF7E6
:103CE000E1FF064616B9002004B070BD694601A880
:103CF000FFF7D8FF06460EB90020F5E7BDF804002F
:103D0000BDF80C10884206DCBDF80C10BDF80400AC
:103D1000323081420CDBBDF80C00BDF80410884243
:103D200036DCBDF80410BDF80C00323081422FDAC9
:103D3000BDF80000BDF80810884206DCBDF8081088
:103D4000BDF80000323081420CDBBDF80800BDF840
:103D5000001088421CDCBDF80010BDF808003230AD
:103D6000814215DABDF80C10BDF80420881800EB6C
:103D7000D071C1F34F012180BDF80810BDF80020BB
:103D8000881800EBD071C1F34F0129800120ABE707
:103D90000020A9E770B51B49486A1B4901F054FB94
:103DA000054601F0E9FA0446042221462820FCF7E2
:103DB00090FC1449886A144901F046FB054601F05D
:103DC000DBFA0446042221462C20FCF782FC0D4835
:103DD000B0F92C1002223020FCF77BFC0948B0F926
:103DE0002E1002223220FCF774FC064890F83010A6
:103DF0003420FCF783FC0A2421463520FCF77EFCA6
:103E000070BD00008C00002020BCBE4C2DE9F041AC
:103E1000044640480068002856D12CB13E49A1F123
:103E20000A00FFF757FF3DE03B49A1F10A00FFF709
:103E300051FFB8B338491639B1F92C0001F0D8FA5E
:103E4000074635491639888901F0EAFA8046324832
:103E50001638416A404601F0F7FA0646394601F045
:103E600067F9054601F0A4FA2B4916398881B1F9A2
:103E70002E0001F0BDFA074627491639C88A01F01D
:103E8000CFFA804624481638816A404601F0DCFAB1
:103E90000646394601F04CF9054601F089FA1E49FB
:103EA0001639C8821C48163890F8200000F08000AF
:103EB00038BBC0201849163981F82000084681898E
:103EC0008182C18AC1831CE01348163890F8200013
:103ED00000F0800050B11048163890F8200020F013
:103EE00080000D49163981F820000AE000210A48B7
:103EF00016388182C1834FF6FF70074916398881D1
:103F0000C8820548163890F8200000F08000BDE80F
:103F1000F081000004012242A2000020002100BF25
:103F200015E000F080021AB101220A4B1A6002E08B
:103F30000022084B1A604206100E0022054B0C3B73
:103F40001A600122044BC3F880214A1CD1B208290F
:103F5000E7DB70478C0122420000224210B540F29C
:103F600025511D4800F04AF810B31B4800F002F933
:103F7000C4B21A48008800F40040C8B91748008845
:103F800000F4804060B10A2C03D00020134908805F
:103F900020E01248008840F400401049088019E0F1
:103FA0000D2C06D10D48008840F480400B49088054
:103FB00010E00A480088C0F30D0009490C54074876
:103FC0000088401C0549088008460088C72801DD94
:103FD0000020088010BD000000380140380000209B
:103FE000C800002021B1828942F40052828104E09D
:103FF00082894DF6FF731A408281704770B5024680
:10400000002400230025002040F66A16B14200D1AA
:1040100000BFC1F3421501F01F03012606FA03F3A6
:10402000012D02D19689334006E0022D02D1168A75
:10403000334001E0968A33400C12012606FA04F45C
:104040001688344013B10CB1012000E0002070BD8F
:10405000F0B50346002400260025002040F66A172C
:10406000B94200D100BF1846C1F3421401F01F0647
:10407000012707FA06F5012C01D10C3004E0022CCF
:1040800001D1103000E014301AB107682F430760E7
:1040900002E00768AF430760F0BD00002DE9F0477C
:1040A00086B005460E460024A24600BFA146002762
:1040B000B08900B100BF2F462C8A4CF6FF70044037
:1040C000F08804432C82AC894EF6F3100440B0888B
:1040D00031890843718908430443AC81AC8A4FF6A7
:1040E000FF400440B0890443AC8201A8FEF76CFE97
:1040F0001F48874202D1DDF810A001E0DDF80CA0D6
:10410000A88900F4004040B10AEBCA0000EB0A1095
:1041100031684900B0FBF1F807E00AEBCA0000EB98
:104120000A1031688900B0FBF1F86420B8FBF0F0A8
:1041300004012009642101FB1089A88900F40040D2
:1041400040B1322000EBC900B0FBF1F000F00700F5
:10415000044308E0322000EB09106421B0FBF1F0C9
:1041600000F00F0004432C8106B0BDE8F08700008A
:104170000038014001468888C0F30800704700BF3E
:10418000FEE7014600BF704710B56FF00400FFF76F
:104190005BF80A4800680A49B0FBF1F00949087069
:1041A0000846007800EB4001C1EBC0104FF6FF71EC
:1041B00001EAC0000449088010BD0000080000208A
:1041C00000127A0030000020320000200146114A1F
:1041D00012884A434FF0E0235A6100229A611A463E
:1041E000126942F001021A6100BF4FF0E02210692B
:1041F00000F001021AB100F48032002AF5D04FF02D
:10420000E022126922F001024FF0E0231A6100223D
:104210009A617047320000200146114A12784A43E1
:104220004FF0E0235A6100229A611A46126942F067
:1042300001021A6100BF4FF0E022106900F0010294
:104240001AB100F48032002AF5D04FF0E022126952
:1042500022F001024FF0E0231A6100229A617047B8
:104260003000002000BF054A128802F04002002AF8
:10427000F9D0C2B2014B1B1D1A80704700380140B3
:104280001CB500250024FFF77FFF4FF4E13000F05C
:104290007BFA4FF4A060FEF7C3FBFDF745FD4FF43A
:1042A0007840284908800420FEF754FE2649086813
:1042B000804746E0002404E0632024490855601C40
:1042C000C4B2042CF8DB00F069F92148007848B347
:1042D00000240FE01D48005D632809D005EB850030
:1042E0004FF6FF7101EA40051848005D284485B289
:1042F000601CC4B2042CEDDB2846FEF7F5FD4FF43C
:104300007A70FFF763FF13A0102118239C22CDE9D8
:10431000001032215420FEF7CFFA4FF47A70FFF7E5
:1043200055FF06E00EA0FBF77DFF4FF47A70FFF714
:104330004DFF29460CA0FBF775FF002004490870CB
:104340000025B7E73A0000208C0000200100002083
:10435000000000205355434345535346554C21001C
:104360006572726F720D0A0025640D0A000000006C
:104370002DE9F0410746884600263748416800206D
:104380008847354890F8200000F08000002850D081
:1043900000244BE0002529E02F48818905EB8500AA
:1043A00007EB0010503081421EDA2B48808905EB64
:1043B000850107EB0111884216DD2748C18AC4EB4D
:1043C000C40008EB80001C3081420DDA2248C08A0C
:1043D000C4EBC40108EB8101884205DD04EB440015
:1043E0002844401CC6B203E0681C85B2032DD3DB11
:1043F00000BFCEB119480078B04201D1002612E0CA
:1044000016480078401EC2B200234146384600F0EC
:1044100027F8124806700078401EC2B201234146B8
:10442000384600F01DF803E0601C84B2052CB1DBB7
:104430000EE00A48007858B108480078401EC2B221
:1044400000234146384600F00BF80020034908706D
:104450003046BDE8F08100008C000020880000207C
:104460000F2A00DD704700BFFCE700002DE9F8438C
:1044700005460C4617464FF47840454908804548A4
:1044800007604FF6FF70009004F18C0083B205F1D5
:10449000F00082B221462846FDF7DCFB04F18C00D7
:1044A00083B205F1F00082B221462846FDF7E2FA18
:1044B00004F18C018BB205F1A0018AB2503988B2A7
:1044C0002146FDF7D7FA04F1380083B205F1F00078
:1044D00082B204F11C0081B22846FDF7CBFA04F148
:1044E000700083B205F1F00082B204F1540081B291
:1044F0002846FDF7BFFA1F2025490880002643E023
:104500000E2E1FDA032096FBF0F1A01D1C2202FBE9
:1045100001001FFA80F8032096FBF0F100FB116008
:1045200000EB800005EB00101FFA80F9502000908E
:104530001848006850F82620102341464846FEF7E8
:104540004BFE1FE0032096FBF0F1A01D1C2202FB96
:1045500001001FFA80F8032096FBF0F100FB1160C8
:1045600000EB800005EB00101FFA80F9502000904E
:10457000A6F10D00084951F8202010234146484675
:10458000FEF72AFE701C86B2102EB9DBBDE8F88358
:104590003A0000207C000020800000202DE9F0413E
:1045A00088B0002400260025A0464FF6FF77384645
:1045B000FDF728F94FF47840514908801F20088002
:1045C000504AB4210020FFF751FF4FA010210B46A5
:1045D000C822CDE9001082210A20FEF76DF98DE096
:1045E000B4210020FFF7C4FE05464FF6FF70FEF72A
:1045F000A9FC0746394649A0FBF714FE1020042306
:104600003A46822100909620FEF70CF9002D63D0E7
:10461000B8F1000F01D04FF000080A2D01DB0B2D7F
:1046200015D10F2C10DA681E3E49096851F8200098
:10463000007803A908550B2D02D100203A490855EE
:104640000A2D01DA38480555601CC4B22CE00D2D46
:104650000FD10CB1601EC4B24FF6FF7032234FF47D
:104660008072142100905420FDF7F4FA63202E4943
:1046700008550E2D03D114B101202C4908702B4888
:10468000007888B1042C0FDD29A0102118239C226A
:10469000CDE9001032215420FEF70EF90020234905
:1046A000087008B0BDE8F081002003A908554FF656
:1046B000FF7018239C22142100905420FDF7CAFAA1
:1046C0000020182103AA0B46CDE9002102909C226C
:1046D00014215420FEF71EFD142096FBF0F100FB80
:1046E000116008B9701CC6B20A20FFF76FFD0F48B1
:1046F0000078012800D1D4E74FF6FF7770E700007B
:104700003A00002044000020526563656976652008
:1047100066726F6D20465047413A000025640D0ACD
:10472000000000007C0000200100002000000020AC
:1047300044415441204552524F5221002DE9F0414D
:1047400006460F4600F0F8FA04000D4618BF012097
:10475000284320F00040C0F17F6000F1E040C00F2E
:104760000ED0301C18BF0120384320F00040C0F1AB
:104770007F6000F1E040C00F04BF0120FBF78DFE19
:1047800020462946BDE8F08110B586B004460121D7
:1047900044F20400FEF708FB4FF40070ADF814007B
:1047A00003208DF8160018208DF8170005A91C4865
:1047B000FCF7BDFA4FF48060ADF8140004208DF8CA
:1047C000170005A91648FCF7B2FA25208DF800005D
:1047D00003208DF801008DF8020001208DF8030000
:1047E0006846FEF7E5F801940020ADF80800ADF842
:1047F0000A00ADF80C00ADF810000C20ADF80E006A
:1048000001A90848FFF74AFC012240F2255105485A
:10481000FFF71EFC01210348FFF7E4FB06B010BDC3
:10482000000801400038014010B591EA030F48BF6D
:1048300083F0004300F16E83841A71EB030C05D200
:10484000121943EB0C03001B61EB0C01DFF824E1B0
:104850004FEA1154A4EB135C1EEA430F18BF9EEA03
:10486000445F73D023EA0E03DCF1200E21EA0451E9
:1048700043F4801332D322FA0CFE10EB0E0023FA1D
:104880000CFE41EB0E01CCF1200E03FA0EFE10EBF4
:104890000E0051F10001B1F5801FCCF1200E32D293
:1048A00001EB045112FA0EF2BDE8104058BF7047F8
:1048B000401C38BF5FEA420218BF7047002814BF8F
:1048C00020F0010041F100014FEA410313F5001F00
:1048D00038BF7047A1F1C04100F0E6B9012A43EBAF
:1048E0000302ACF1200CDCF11F0E32BF4FF0000EC2
:1048F00023FA0CF310EB030041EB0451B4EB115F0E
:10490000D0D0A1EB045101F5801149085FEA3000D5
:1049100001EB04510ED350F1000038BF12FA0EFE25
:1049200008D1BDE81040C9E7401C38BF5FEA420229
:10493000CAD1C3E7BDE810404FEA410313F5001F99
:1049400038BF7047A1F1C04100F0AEB99EEA445FA4
:1049500008D011EA5E0FBDE8104004BF01F000412D
:1049600000207047BDE8104070B500F04FF900BF5F
:1049700064FBBE3E0000E0FF491058BFC1F140415A
:104980005B1058BFC3F140438B42EFF30080704788
:104990004FEA1153A3F58063D3F11E03A8BFD3F1EF
:1049A000200C08DB4FF0004242EAC12252EA50528A
:1049B00032FA03F0704709420BD4102BC4BF002019
:1049C000704703F5787CBCF1FF3F05D04FF0FF3016
:1049D00070474FF00000704770B500F017F900BF46
:1049E0004992248000207047F0E710F0004248BF51
:1049F0004042B0FA80F310FA03F10AD0C3F11D036C
:104A000003F580634FEA415002EB035202EBD121E0
:104A100070474FF000007047B0FA80F310FA03F1CE
:104A20000AD0C3F11D0303F580634FEA41504FEAFA
:104A3000035202EBD12170474FF000007047000095
:104A400051EA030C17D41CF5801F58BFBCF5801F1A
:104A500000F10680994218BF704708BF9042704726
:104A600007D711F5801F58BF13F5801F19D499423D
:104A70007047894270471CF5801F08D5BCF5801F20
:104A8000F7D58B4218BF704708BF824270474FF47A
:104A9000001C1CEB410F38BF1CEB430F01D28B42B3
:104AA000704770B500F0B2F8922449004FF0005101
:104AB0004FF08053FFF760BFDFF848C170B51CEAC4
:104AC000111E1EBF1CEA13159EEA0C0F95EA0C0F6F
:104AD00000F06F8081EA030423EA4C134EEAD47E8F
:104AE00021EA4C1141F4801143F48013AE44A1FB40
:104AF000024CA0FB0365AEF17F7E361955EB0C0529
:104B0000A1FB034C4CF10003A0FB021C16EB0C06AE
:104B1000654153F10003094218BF46F0010613F442
:104B2000007F0BD14FEA03314FEA0530340341EAED
:104B3000155140EA16506FF003020AE04FEAC32114
:104B40004FEAC520F40241EA555140EA56506FF051
:104B5000020202EB2E4201EB025585EACE710AD029
:104B60005FEA440C18BF24F0004450F1000041F10A
:104B7000000120EAD47040F2FE7C624500D270BD94
:104B8000A84214BF4FF080444FF04044002E08BFAD
:104B90000024BEF1806FA8BFA1F1C041BDE8704004
:104BA00080F282804FF0000001F1C04101F000412D
:104BB00070479EEA0C0F0CEA131518BF95EA0C0F0C
:104BC00006D04FF0000081EA030E0EF0004170BDE8
:104BD00000F01CF88900013E00F007B800F009B8A9
:104BE0004FEA430C5FEA5C5C08D081EA030100F005
:104BF0005BB84FEA410C5FEA5C5CF6D14FF0000015
:104C0000014970470000FF070000F87F0EF1020E17
:104C10002EF0030E5EF8046B364205D4012A43EBF6
:104C2000030515F5001F12D8012841EB010C1CF5F6
:104C3000001F0CD80ED14FEAD17C15F5001F0CEBEC
:104C40004C0C0CF1020C08BF4CEBD37C04E04FF091
:104C5000080C01E04FEAD37C0CEB4C0526FA05F674
:104C600006F00706B6F1040C06D20EEB860CBDE882
:104C700070404CF0010C6047DFE80CF0090B0202B9
:104C80004FF000414FF00000A1F5002170BD194622
:104C90001046012851EB010418BFD4F5001484BF5D
:104CA000002001F0004170BD0808A0F500114FEA96
:104CB0003101704753EA010C17D41CF5801F58BF0F
:104CC000BCF5801F00F106808B4218BF704708BFFB
:104CD0008242704707D713F5801F58BF11F5801F18
:104CE00019D48B4270479B4270471CF5801F08D532
:104CF000BCF5801FF7D5994218BF704708BF904296
:104D000070474FF4001C1CEB430F38BF1CEB410FE6
:104D100001D2994270470FB40CBC03BCFFF7C1BE6F
:104D200091EA030F10B581F000413FF585AD83F0A6
:104D3000004300F0EFB800002DE9F04101F5801CC0
:104D4000BCF5001FC0F2C3804FEA115C21EA0C5190
:104D50000CF1FD0C41F480115FEA5C0C0CF5C07C99
:104D600001D3400049413DA4890241EA90518702A4
:104D70008E0E0A0CA45D04FB04F602FB06F6C6F1D7
:104D80004046A4FB0662F60D46EA422606FB06F400
:104D9000A4FB01235242C3F1404338BF5B1EA6FB74
:104DA00002420024E6FB0324D20B42EA4446A6FB5F
:104DB0000623A1FB02E2A3FB07E4A4184FF00002C4
:104DC00052F10002E3FB01426442C2F1404E38BF9F
:104DD000AEF1010EA6FB04234FF00002E6FB0E32FB
:104DE000A2FB03464FF00004B61954F10004E2FBA5
:104DF0000264A1FB06E6A4FB07E816EB08064FF0E9
:104E0000000858F10008E4FB01687642C8F14058F8
:104E100038BFA8F10108A2FB06E4A3FB08E52D19A1
:104E20004FF0000454F10004E2FB0854A1FB05E636
:104E3000A7FB04E818EB06084FF0000656F1000641
:104E4000E1FB048618F1200556F10006A809A8F137
:104E50001B08B10908F03F08B8F10A0F40EA866064
:104E60001CD901EB0C51BDE8F08100BFFCF5EEE868
:104E7000E2DDD8D3CFCBC7C3C0BDB9B6B4B1AEACF9
:104E8000A9A7A5A3A19F9D9B9A9896959392908F71
:104E90008D8C8B898887868584838281A0FB0068BE
:104EA00000FB01F208EB4208B8EB872807D534185D
:104EB00058EB0104D5D5401C51F10001D1E7341A5B
:104EC00078EB0104CDD4401E71F10001C9E75FEA1F
:104ED0004C0C5FEA9C5C0DD105D34FF0000001F053
:104EE0000041BDE8F081BDE8F04170B5FFF78EFEEE
:104EF0006DDBFFBEBDE8F0414FF000000049704798
:104F00000000F87F10B591EA030F48BF83F000431B
:104F10003FF592AC841A71EB030C07D212198CF096
:104F2000004C43EB0C03001B61EB0C01DFF8A4E128
:104F30004FEA1154A4EB135C1EEA430F18BF9EEA1C
:104F4000445F00F0B08023EA6E03524221EA04512C
:104F5000C3EB6E0338BF5B1EDCF1200E25D322FAB3
:104F60000CFE10EB0E0043FA0CFE41EB0E01CCF1EF
:104F7000200E03FA0EFE10EB0E0051F10001CCF1F1
:104F8000200E29D412FA0EF201EB0451BDE81040B4
:104F900058BF7047401C1CBFB2F1004F704700283B
:104FA0000CBF491C20F00100704712EB020E43EBCE
:104FB000030218BF4FF0010E4EEA4202ACF1200C82
:104FC000DCF11E0E54D943FA0CFE10EB0E0051F129
:104FD000FF31CCF11E0ED5D50EF1010E12FA0EFEE8
:104FE000404141EB010101EB445C5FEA5C5C10D99C
:104FF00010EBDE7001EB045138BFBEF1004FBDE88D
:10500000104018BF704700280CBF491C20F0010059
:10501000704730D24FEAD42C11F5001124F400640B
:105020001BD0B1FA81F20B3AA41AA41ED2F12003CC
:10503000914030FA03F31943904001EBCC71002CFE
:1050400001EB0451BDE81040A8BF704701F1C04119
:105050004FF0000001F000417047B0FA80F310FA01
:1050600003F100D110BDE41A173C4805C90AE4E772
:1050700001EB045110BD491001EB0451BDE8104093
:105080004FEA300002E04FF0000170474A0008BFCD
:105090000042F8D0B2F5001F28BF704701F0004170
:1050A0004FF0000070479EEA445F07D011EA5E0FA0
:1050B000BDE8104004BF002100207047BDE810404B
:1050C00070B5FFF7A3FD00BF40DFF63E83F000415F
:1050D000104670470000E0FF43004FEAD30C4FEA50
:1050E0003C0C43401FBF40070CF1605113F0FE4FD2
:1050F00070471CF0006F03D100200CF00041704796
:105100000CF0004343EA507010B540EACC0000F0C8
:105110001CFA00BF000000924FEA0001FFF7C4BD77
:105120004FF000414FF00000A1F500217047000052
:1051300090EA010F48BF81F0004100F15882421A05
:105140003CBF801A89184FEAD0524FF07F4C1CEABE
:10515000410FA2EBD15318BF9CEA026F00F03B80D5
:105160004FF0004C4CEA00204CEA012121FA03FCEC
:1051700010EB0C0C1ED202F1FF325FEA1C2040EB58
:10518000C25038BF70471CF07F0F4FEA400C18BF69
:10519000BCF17F4F38BF7047C3F12003994008BF6F
:1051A00020F00100BCF17F4F38BF7047A0F1C04034
:1051B00000F011BA4FEA3C00000A40EBC25028BF91
:1051C0001CF0FF0F4FEA400CE6D018BFBCF17F4F38
:1051D00038BF7047EAE79CEA026F05D010EA5C0F1F
:1051E00008BF00F00040704710B500F0AEF900BFF6
:1051F00064FBBE3E4FF47F0C1CEAD0121EBF1CEABB
:10520000D11392EA0C0F93EA0C0F00F0858090EA1C
:10521000010F48BF42F4807240F4000C41F40000DA
:105220002CF07F4120F07F4000B58142A2EB0302C9
:105230000FF2081CACEB504EC0F100009EF800E0ED
:105240004FEA4E0E00FB0EFC38BF49004FEA2C1C03
:1052500002F5FA020CFB0EF34FEACE1E4FEA112CB8
:105260004FEAC1210EEB635E42EB22420EFB0CFCC7
:105270004FEA1C5300FB03114FEA112C4FEA013196
:105280000EFB0CFC4FEADC4C00FB0C11C14228BFAA
:1052900009184CEB03335DF804EB10EB410143EBD1
:1052A000C250B2F57C0F38BF704729D512F0F00F0D
:1052B0001CBF00F1C04000F00040704700818283B5
:1052C0008485868788898B8C8D8E8F919293959615
:1052D00097999A9C9D9FA0A2A3A5A7A8AAACAEB09F
:1052E000B2B3B5B7B9BCBEC0C2C5C7C9CCCED1D4A4
:1052F000D7D9DCDFE2E6E9ECF0F3F7FAFE000000D4
:105300004FEA400C0CF1807CBCF17E4F28BF704707
:10531000B0F1C04000F05FB990EA010F0CEAD11380
:1053200048BF42F48072624538BF634507D213F428
:105330007F0F16D080EA010000F00040704710B5E2
:1053400000F003F9097EFC3E00F005B880EA010098
:1053500000F00040704780EA010000F0004000F0DB
:105360003AB912F47F0F04BF0248704780EA010087
:1053700000F031B90000C07F41000B0ED3F19E0256
:1053800008D950F400034FEA032323FA02F048BF80
:105390004042704710B500F0D8F800BF4992248011
:1053A000002070476FF0004282EA20007047000042
:1053B000C10DD1F19E0206DB4FEA002343F000430A
:1053C00023FA02F07047004207D54FEA4001B1F1DD
:1053D000FE4F02D24FF00000704710B500F0B5F854
:1053E00049922480002070476FEA20007047000037
:1053F00010F0004148BF4042B0FA80F310FA03F2C7
:10540000C3F19D030BD051EAC35101EB12205306A7
:1054100038BF704700F1010008BF20F0010070475D
:10542000B0FA80F310FA03F2C3F19D030AD0D90554
:1054300001EB1220530638BF704700F1010008BF8E
:1054400020F00100704700004FF47F0C1CEAD012DE
:105450001EBF1CEAD11392EA0C0F93EA0C0F00F066
:10546000478090EA010F48BF42F480724FF0004C31
:105470004CEA00204CEA012102EB0302A0FB0113DD
:10548000A2F50002002918BF43F001035B0028BF0A
:105490004FEA330342EB22425FEA132C4CEBC2503B
:1054A0002EBFBCEB436FB2F57C0F70474FEA036C25
:1054B000BCF1004F08BF20F00100B2F57C0F38BFEF
:1054C00070470BD582F0FF0212F5803FC8BF7047CE
:1054D00000F1C040D8BF00F00040704700F5000C5C
:1054E0005FEA4C0C48BF7047B0F1C04000F073B8A1
:1054F00090EA010F0CEAD11348BF42F48072624572
:1055000038BF634504D280EA010000F000407047D4
:1055100010B500F01AF800BF8900013E00F007B88E
:1055200000F009B85FEA410C5FEA1C6C08D080EA21
:10553000010000F050B85FEA400C5FEA1C6CF6D145
:105540004FF00040A0F5800070470EF1020E2EF0E3
:10555000030E5EF8044B244204D44FEA4102B2F138
:105560007F4F11D84FEA4003B3F17F4F0CD80ED1D3
:105570004FEAD07CB2F17F4F0CEB4C0C0CF1020CDB
:1055800008BF4CEBD17C04E04FF0080C01E04FEA7F
:10559000D17C0CEB4C0324FA03F404F00704B4F1BF
:1055A000040C06D20EEB840CBDE810404CF0010C4C
:1055B0006047DFE80CF0070802024FF00040A0F55A
:1055C000800010BD0846420018BFD2F1807288BF2B
:1055D00000F0004010BDFF2141EAD050C0057047E7
:1055E00090EA010F48BF81F000413FF5A8AD421A93
:1055F00004D882F00042A0EB020011444FEAD052DE
:105600004FF07F4C1CEA410FA2EBD15318BF9CEA2C
:10561000026F4AD04FF0004C4CEA00204CEA0121C6
:1056200021FA03FCB0EB0C0C0FD412F0FE0F36D0B5
:105630005FEA4C001DD5001240EBC25038BF7047E6
:105640001CF03F0F18BF70470BE0A2F101025FEAA8
:105650001C2040EBC25038BF70471CF07F0F18BFB2
:105660007047C3F12003994014BF401E20F0010091
:10567000704780084FEA122308BF7047B0FA80FCD9
:10568000A2EB0C02CCF1280C60FA0CF093EA122F7A
:1056900004BF00EBC25070474FEAC3707047130A53
:1056A0005FEADC1008BF7047F6E79CEA026F04D09F
:1056B00010EA5C0F08BF0020704710B5FFF745FFE8
:1056C00040DFF63E81F00040704708404840489077
:1056D000FFF089000820FF4008C009204A10287008
:1056E00000004C106A205A504B906ED05AA08AA0ED
:1056F0008AA09AD0AA108C100000041044204440C4
:10570000448047007C0047E044104410441004707B
:10571000000019202B20CD40114000101210122043
:10572000FFC024A0A510647000003FC02480248026
:105730002480FFE02490249024903F90001000707B
:105740000000000000000340038000000000000093
:10575000000000000000000000000120F120954042
:1057600095F09F50D550B350955099F0F10001003D
:10577000000008003FF0C0007FF04A807A800010EF
:105780004BA04A404A607B900000105020507F6040
:10579000D540554055F0FF4055405560555041505B
:1057A000000008008FE0405000A0FFC00000000093
:1057B0007FE000000000FFF00000040008003FF060
:1057C000C0002F102AA02A40FFA02A202A102E1045
:1057D0000000084048404890FFF089000820FF4042
:1057E00008C009204A10287000001E000000FFF0C9
:1057F0001210222022C0FF0022C022203E100210E0
:10580000000000207C404580441044105FF084007C
:10581000840085000480006000000000000000009B
:10582000000000000000000000003F4000000000F9
:10583000000000003000400030004000000009007F
:105840000BC03D000BC03D00090018C024407FE0A4
:10585000224031800000180024C01B000D8032401F
:10586000018003801C4027401C800740004010003E
:1058700060000000000000000000000000000000C8
:105880001F80204040200000402020401F8000005A
:105890000000090006001F80060009000000040047
:1058A00004003F80040004000000001000600000BD
:1058B00000000000000004000400040004000400D4
:1058C0000000000000400000000000000000002078
:1058D00001C006003800400000001F80204020402A
:1058E00020401F800000000010403FC0004000002A
:1058F000000018C0214022402440184000001080C1
:105900002040244024401B80000002000D001100B4
:105910003FC0014000003C802440244024402380BC
:1059200000001F80244024403440038000003000E9
:10593000200027C03800200000001B8024402440A5
:1059400024401B8000001C0022C0224022401F80F7
:1059500000000000000008400000000000000000FF
:1059600000000460000000000000000004000A00C5
:1059700011002080404009000900090009000900C9
:10598000000000004040208011000A0004001800C0
:10599000200023402400180000001F8020402740E2
:1059A00029401F400000004007C039000F0001C01F
:1059B000004020403FC0244024401B8000001F8046
:1059C0002040204020403080000020403FC0204048
:1059D00020401F80000020403FC024402E4030C0A7
:1059E000000020403FC024402E00300000000F0087
:1059F0001080204022403380020020403FC004003D
:105A000004003FC02040204020403FC020402040B4
:105A100000000060202020203FC020002000204007
:105A20003FC024400B0030C0204020403FC02040F9
:105A30000040004000C03FC03C0003C03C003FC0ED
:105A4000000020403FC00C4023003FC020001F80CA
:105A50002040204020401F80000020403FC02440C4
:105A60002400180000001F802140214020E01FA0DA
:105A7000000020403FC02440260019C0004018C04C
:105A800024402440224031800000300020403FC0AC
:105A900020403000000020003F80004000403F8058
:105AA000200020003E0001C0070038002000380020
:105AB00007C03C0007C038000000204039C0060085
:105AC00039C0204000002000384007C03840200086
:105AD0000000304021C02640384020C000000000B7
