:020000040800F2
:1000000000000220F5A6000845A3000847A3000849
:1000100049A300084BA300084DA3000800000000FE
:100020000000000000000000000000004FA30008D6
:1000300051A300080000000053A3000855A30008C6
:1000400045A7000845A7000845A7000845A70008E0
:1000500045A7000845A7000845A7000845A70008D0
:1000600045A7000845A7000845A7000845A70008C0
:1000700045A7000845A7000845A7000845A70008B0
:1000800045A7000845A7000845A7000845A70008A0
:1000900045A7000845A7000845A7000845A7000890
:1000A00045A7000845A7000845A7000845A7000880
:1000B00045A700085DA300086DA3000845A7000838
:1000C00045A7000845A7000845A7000845A7000860
:1000D00045A7000845A7000845A7000845A7000850
:1000E00045A7000845A7000845A7000845A7000840
:1000F00045A7000845A7000845A7000845A7000830
:1001000045A7000845A700087DA3000845A70008EB
:1001100045A7000845A7000845A7000845A700080F
:1001200045A7000845A7000845A7000845A70008FF
:1001300045A7000845A7000845A7000845A70008EF
:1001400045A7000845A7000845A7000845A70008DF
:1001500045A7000845A7000845A7000845A70008CF
:1001600045A7000845A7000845A7000845A70008BF
:1001700045A7000845A7000845A7000800000000A3
:0801800045A7000845A700088F
:1001C00010B5054C237833B9044B13B10448AFF391
:1001D00000800123237010BDF40B002000000000FC
:1001E0005CD9010808B5034B1BB103490348AFF3C1
:1001F000008008BD00000000F80B00205CD9010859
:1002000081F0004102E000BF83F0004330B54FEAC7
:1002100041044FEA430594EA050F08BF90EA020F34
:100220001FBF54EA000C55EA020C7FEA645C7FEAC7
:10023000655C00F0E2804FEA5454D4EB5555B8BFEA
:100240006D420CDD2C4480EA020281EA030382EA5B
:10025000000083EA010180EA020281EA0303362DED
:1002600088BF30BD11F0004F4FEA01314FF4801CC0
:100270004CEA113102D0404261EB410113F0004FD2
:100280004FEA03334CEA133302D0524263EB430389
:1002900094EA050F00F0A780A4F10104D5F1200E27
:1002A0000DDB02FA0EFC22FA05F2801841F1000182
:1002B00003FA0EF2801843FA05F359410EE0A5F156
:1002C00020050EF1200E012A03FA0EFC28BF4CF087
:1002D000020C43FA05F3C01851EBE37101F000453D
:1002E00007D54FF0000EDCF1000C7EEB00006EEB4A
:1002F0000101B1F5801F1BD3B1F5001F0CD34908D4
:100300005FEA30004FEA3C0C04F101044FEA44522A
:1003100012F5800F80F09A80BCF1004F08BF5FEAB1
:10032000500C50F1000041EB045141EA050130BD91
:100330005FEA4C0C404141EB0101013C28BFB1F5A3
:10034000801FE9D291F0000F04BF01460020B1FAEE
:1003500081F308BF2033A3F10B03B3F120020CDAC1
:100360000C3208DD02F1140CC2F10C0201FA0CF09F
:1003700021FA02F10CE002F11402D8BFC2F1200C04
:1003800001FA02F120FA0CFCDCBF41EA0C019040BA
:10039000E41AA2BF01EB0451294330BD6FEA040403
:1003A0001F3C1CDA0C340EDC04F11404C4F12002EE
:1003B00020FA04F001FA02F340EA030021FA04F300
:1003C00045EA030130BDC4F10C04C4F1200220FA57
:1003D00002F001FA04F340EA0300294630BD21FA95
:1003E00004F0294630BD94F0000F83F4801306BF5B
:1003F00081F480110134013D4EE77FEA645C18BF4F
:100400007FEA655C29D094EA050F08BF90EA020FE5
:1004100005D054EA000C04BF1946104630BD91EADD
:10042000030F1EBF0021002030BD5FEA545C05D1E0
:100430004000494128BF41F0004130BD14F580041F
:100440003CBF01F5801130BD01F0004545F0FE4193
:1004500041F470014FF0000030BD7FEA645C1ABFC8
:10046000194610467FEA655C1CBF0B46024650EAFF
:10047000013406BF52EA033591EA030F41F400212B
:1004800030BD00BF90F0000F04BF0021704730B5B1
:100490004FF4806404F132044FF000054FF0000186
:1004A00050E700BF90F0000F04BF0021704730B547
:1004B0004FF4806404F1320410F0004548BF40421C
:1004C0004FF000013EE700BF42004FEAE2014FEA71
:1004D00031014FEA02701FBF12F07F4393F07F4F4C
:1004E00081F06051704732F07F4208BF704793F04F
:1004F0007F4F04BF41F40021704730B54FF4607462
:1005000001F0004521F000411CE700BF50EA010264
:1005100008BF704730B54FF000050AE050EA01020D
:1005200008BF704730B511F0004502D5404261EB7D
:1005300041014FF4806404F132045FEA915C3FF4BE
:10054000D8AE4FF003025FEADC0C18BF03325FEA5B
:10055000DC0C18BF033202EBDC02C2F1200300FA0C
:1005600003FC20FA02F001FA03FE40EA0E0021FA31
:1005700002F11444BDE600BF70B54FF0FF0C4CF41F
:10058000E06C1CEA11541DBF1CEA135594EA0C0FD1
:1005900095EA0C0F00F0DEF82C4481EA030621EA0C
:1005A0004C5123EA4C5350EA013518BF52EA033547
:1005B00041F4801143F4801338D0A0FB02CE4FF0F9
:1005C0000005E1FB02E506F00042E0FB03E54FF029
:1005D0000006E1FB03569CF0000F18BF4EF0010E21
:1005E000A4F1FF04B6F5007F64F5407404D25FEA1D
:1005F0004E0E6D4146EB060642EAC62141EA5551D0
:100600004FEAC52040EA5E504FEACE2EB4F1FD0C11
:1006100088BFBCF5E06F1ED8BEF1004F08BF5FEA8F
:10062000500E50F1000041EB045170BD06F0004641
:1006300046EA010140EA020081EA0301B4EB5C04EE
:10064000C2BFD4EB0C0541EA045170BD41F48011E6
:100650004FF0000E013C00F3AB8014F1360FDEBF0B
:10066000002001F0004170BDC4F10004203C35DAE7
:100670000C341BDC04F11404C4F1200500FA05F36A
:1006800020FA04F001FA05F240EA020001F000420B
:1006900021F0004110EBD37021FA04F642EB060181
:1006A0005EEA430E08BF20EAD37070BDC4F10C04AB
:1006B000C4F1200500FA04F320FA05F001FA04F26F
:1006C00040EA020001F0004110EBD37041F100015B
:1006D0005EEA430E08BF20EAD37070BDC4F1200566
:1006E00000FA05F24EEA020E20FA04F301FA05F2CE
:1006F00043EA020321FA04F001F0004121FA04F276
:1007000020EA020000EBD3705EEA430E08BF20EA45
:10071000D37070BD94F0000F0FD101F0004640007F
:1007200041EB010111F4801F08BF013CF7D041EA01
:10073000060195F0000F18BF704703F00046520005
:1007400043EB030313F4801F08BF013DF7D043EAD6
:100750000603704794EA0C0F0CEA135518BF95EA8C
:100760000C0F0CD050EA410618BF52EA4306D1D113
:1007700081EA030101F000414FF0000070BD50EA32
:10078000410606BF1046194652EA430619D094EABC
:100790000C0F02D150EA013613D195EA0C0F05D1A6
:1007A00052EA03361CBF104619460AD181EA0301FA
:1007B00001F0004141F0FE4141F470014FF00000B2
:1007C00070BD41F0FE4141F4780170BD70B54FF04D
:1007D000FF0C4CF4E06C1CEA11541DBF1CEA1355CD
:1007E00094EA0C0F95EA0C0F00F0A7F8A4EB0504AF
:1007F00081EA030E52EA03354FEA013100F08880A6
:100800004FEA03334FF0805545EA131343EA12636E
:100810004FEA022245EA111545EA10654FEA002623
:100820000EF000419D4208BF964244F1FD0404F5DC
:10083000407402D25B084FEA3202B61A65EB030538
:100840005B084FEA32024FF480104FF4002CB6EBF5
:10085000020E75EB030E22BFB61A754640EA0C0075
:100860005B084FEA3202B6EB020E75EB030E22BFB5
:10087000B61A754640EA5C005B084FEA3202B6EBF6
:10088000020E75EB030E22BFB61A754640EA9C00B5
:100890005B084FEA3202B6EB020E75EB030E22BF85
:1008A000B61A754640EADC0055EA060E18D04FEA43
:1008B000051545EA16754FEA06164FEAC30343EAE3
:1008C00052734FEAC2025FEA1C1CC0D111F4801FB0
:1008D0000BD141EA00014FF000004FF0004CB6E7A9
:1008E00011F4801F04BF01430020B4F1FD0C88BF48
:1008F000BCF5E06F3FF6AFAEB5EB030C04BFB6EB53
:10090000020C5FEA500C50F1000041EB045170BD45
:100910000EF0004E4EEA113114EB5C04C2BFD4EB72
:100920000C0541EA045170BD41F480114FF0000EF6
:10093000013C90E645EA060E8DE60CEA135594EA72
:100940000C0F08BF95EA0C0F3FF43BAF94EA0C0F75
:100950000AD150EA01347FF434AF95EA0C0F7FF4EA
:1009600025AF104619462CE795EA0C0F06D152EA3E
:1009700003353FF4FDAE1046194622E750EA410622
:1009800018BF52EA43067FF4C5AE50EA41047FF433
:100990000DAF52EA43057FF4EBAE12E74FF0FF3C98
:1009A00006E000BF4FF0010C02E000BF4FF0010C69
:1009B0004DF804CD4FEA410C7FEA6C5C4FEA430CE2
:1009C00018BF7FEA6C5C1BD001B050EA410C0CBF31
:1009D00052EA430C91EA030F02BF90EA020F002093
:1009E000704710F1000F91EA030F58BF994208BFFA
:1009F00090422CBFD8176FEAE37040F001007047B7
:100A00004FEA410C7FEA6C5C02D150EA013C07D10D
:100A10004FEA430C7FEA6C5CD6D152EA033CD3D058
:100A20005DF8040B704700BF8446104662468C4652
:100A30001946634600E000BF01B5FFF7B7FF002885
:100A400048BF10F1000F01BD4DF808EDFFF7F4FFAE
:100A50000CBF012000205DF808FB00BF4DF808ED39
:100A6000FFF7EAFF34BF012000205DF808FB00BF5C
:100A70004DF808EDFFF7E0FF94BF012000205DF87E
:100A800008FB00BF4DF808EDFFF7CEFF94BF012033
:100A900000205DF808FB00BF4DF808EDFFF7C4FF2C
:100AA00034BF012000205DF808FB00BF4FEA41027F
:100AB00012F5001215D211D56FF47873B3EB6252B0
:100AC00012D94FEAC12343F0004343EA505311F0D7
:100AD000004F23FA02F018BF404270474FF0000069
:100AE000704750EA013005D111F0004008BF6FF0A7
:100AF000004070474FF00000704700BF4A0011D21D
:100B000012F5001211D20DD56FF47873B3EB625267
:100B10000ED44FEAC12343F0004343EA505323FA73
:100B200002F070474FF00000704750EA013002D1E8
:100B30004FF0FF3070474FF00000704753B94AB98B
:100B4000002908BF00281CBF4FF0FF314FF0FF30D5
:100B500000F06EB9ADF1080C6DE904CE00F006F8B6
:100B6000DDF804E0DDE9022304B070472DE9F04729
:100B7000089D04468C46002B40F083808A4217462D
:100B800047D9B2FA82F242B1C2F1200024FA00F051
:100B90009140974040EA010C94404FEA1748230CDB
:100BA000BCFBF8F61FFA87FE08FB16C143EA0143B7
:100BB00006FB0EF1994209D9FB1806F1FF3080F0CF
:100BC0001981994240F21681023E3B445B1AA4B25D
:100BD000B3FBF8F008FB103344EA034400FB0EFEBD
:100BE000A64509D93C1900F1FF3380F00581A645DF
:100BF00040F2028102383C4440EA0640A4EB0E0475
:100C000000261DB1D4400023C5E900433146BDE8AC
:100C1000F08702B9FFDEB2FA82F2002A50D1CB1B74
:100C20004FEA174E1FFA87F80126B3FBFEFC210C92
:100C30000EFB1C3341EA034108FB0CF38B4207D93E
:100C400079180CF1FF3002D28B4200F2E980844621
:100C5000C91AA3B2B1FBFEF00EFB101143EA014426
:100C600008FB00F8A04507D93C1900F1FF3302D278
:100C7000A04500F2D9801846A4EB080440EA0C40D5
:100C8000BFE78B4209D9002D00F0B1800026C5E9ED
:100C9000000130463146BDE8F087B3FA83F6002EF6
:100CA0004AD18B4202D3824200F2B880841A61EBAF
:100CB000030101208C46002DA8D0C5E9004CA5E712
:100CC000C2F1200320FA03F6974001FA02F04FEA3E
:100CD000174ED9403043030CB1FBFEF61FFA87F8DC
:100CE0000EFB161143EA014306FB08F1994204FA90
:100CF00002F409D9FB1806F1FF3C80F08D8099427F
:100D000040F28A80023E3B445B1A81B2B3FBFEF0A4
:100D10000EFB103341EA034100FB08F38B4207D975
:100D2000791800F1FF3C73D28B4271D902383944F3
:100D3000CB1A40EA064678E7C6F1200C03FA06F41F
:100D400022FA0CF31C4320FA0CF701FA06F34FEADF
:100D5000144E21FA0CF11F433B0CB1FBFEF91FFAB4
:100D600084F80EFB191143EA014109FB08FA8A4590
:100D700002FA06F200FA06F308D9611809F1FF3009
:100D800048D28A4546D9A9F102092144A1EB0A01BA
:100D9000BFB2B1FBFEF00EFB101147EA014700FBAA
:100DA00008F8B84507D9E71900F1FF312ED2B84548
:100DB0002CD90238274440EA0940A7EB0807A0FBDA
:100DC00002894F45C64649461AD317D05DB1B3EBE9
:100DD0000E0267EB010707FA0CFCF2404CEA020234
:100DE000F740C5E9002700263146BDE8F0872E46CA
:100DF00028460BE70646E9E61846FDE64345E5D2F8
:100E0000B8EB020E69EB04010138DFE70846D2E7D0
:100E100060468DE78146B9E7664675E730464AE7A2
:100E2000ACF1020C394413E702383C4424E700BF1C
:100E3000704700BF844641EA000313F003036DD1FD
:100E4000403A41D351F8043B40F8043B51F8043B8D
:100E500040F8043B51F8043B40F8043B51F8043B94
:100E600040F8043B51F8043B40F8043B51F8043B84
:100E700040F8043B51F8043B40F8043B51F8043B74
:100E800040F8043B51F8043B40F8043B51F8043B64
:100E900040F8043B51F8043B40F8043B51F8043B54
:100EA00040F8043B51F8043B40F8043B51F8043B44
:100EB00040F8043B51F8043B40F8043B51F8043B34
:100EC00040F8043B403ABDD2303211D351F8043BD4
:100ED00040F8043B51F8043B40F8043B51F8043B14
:100EE00040F8043B51F8043B40F8043B103AEDD283
:100EF0000C3205D351F8043B40F8043B043AF9D2D4
:100F0000043208D0D2071CBF11F8013B00F8013BA6
:100F100001D30B8803806046704700BF082A13D3B3
:100F20008B078DD010F003038AD0C3F10403D21ACB
:100F3000DB071CBF11F8013B00F8013B80D331F8FF
:100F4000023B20F8023B7BE7043AD9D3013A11F87F
:100F5000013B00F8013BF9D20B7803704B784370EA
:100F60008B7883706046704700000000000000002E
:100F70000000000000000000000000000000000071
:100F8000A2EB0300704700BF02780B78012A28BF4C
:100F90009A42F5D16DE9044540EA0104CDE90267C2
:100FA0006FF0000C4FEA447212B380EA010414F0AF
:100FB000070F6AD100F0070420F0070004F00305D2
:100FC00021F007014FEAC505F0E8042314F0040FEF
:100FD000F1E804670CFA05F462EA040266EA040622
:100FE0000AD063EA0403624667EA0407664603E040
:100FF000F0E80423F1E8046782FA4CF582EA06047B
:10100000A4FA8CF46CBB83FA4CF583EA0705A5FAC5
:101010008CF595B950E9022351E9026782FA4CF543
:1010200082EA0604A4FA8CF483FA4CF583EA0705F5
:10103000A5FA8CF52543DBD09CB92DBAB5FA85F419
:1010400024F0070427FA04F1DDE9026723FA04F328
:1010500003F0FF0001F0FF01FDE80445A0EB0100F3
:10106000704724BAB4FA84F424F0070426FA04F191
:10107000DDE9026722FA04F202F0FF0001F0FF014D
:10108000FDE80445A0EB0100704714F0030F3CD1CC
:1010900010F0030428D150F8082B51F8083B82FACD
:1010A0004CF582EA0305A5FA8CF55DB950F8042CDD
:1010B00051F8043C82FA4CF582EA0305A5FA8CF556
:1010C000002DE8D02DBAB5FA85F424F0070423FAF0
:1010D00004F122FA04F202F0FF0001F0FF01FDE842
:1010E0000445A0EB010070474FEAC40420F0030060
:1010F00050F8082B21F0030151F8083B0CFA04F4D6
:1011000062EA040263EA0403C9E710F003041AD098
:10111000A1EB040120F00300E40750F8042B06D0F3
:101120000FD28B785FFAA2F4E41A06D12BB1CB78F8
:101130005FFAB2F4E41A00D11BB920465DF8104BF7
:10114000704701F1040150F8042BCC0721F0030192
:1011500051F8043B48D824D222F07F4482FA4CF55F
:1011600094EA1325A5FA8CF50AD165B951F8043B28
:1011700084EA0204B4EB036F0ED150F8042BEBE7C2
:101180004FEA132355E035F07F454DD10878FDE84F
:101190000445C0F1000070474FEA126203F0FF03FC
:1011A00047E002EA1C4482FA4CF594EA1345A5FA9A
:1011B0008CF50AD165B951F8043B84EA0204B4EB1A
:1011C000034F0CD150F8042BEBE74FEA134330E008
:1011D00015EA1C4528D10B884FEA124229E04FEA54
:1011E000124203EA1C4324E002F0FF0482FA4CF5A9
:1011F00094EA1365A5FA8CF50AD165B951F8043B58
:1012000084EA0204B4EB032F09D150F8042BEBE776
:101210004FEA13630DE015F0FF0F05D10B684FEA9D
:10122000122223F07F4304E04FF00000FDE8044564
:10123000704712BA1BBA82FA4CF482EA0304A4FA89
:101240008CF5B5FA85F402FA04F203FA04F34FEAD6
:101250001260FDE80445A0EB136070470000000039
:10126000000000000000000000000000000000007E
:10127000000000000000000000000000000000006E
:1012800090F800F06DE9024520F007016FF0000CC6
:1012900010F0070491F820F040F049804FF000046E
:1012A0006FF00700D1E9002391F840F000F1080049
:1012B00082FA4CF2A4FA8CF283FA4CF3A2FA8CF381
:1012C0004BBBD1E9022382FA4CF200F10800A4FAE8
:1012D0008CF283FA4CF3A2FA8CF3E3B9D1E904233C
:1012E00082FA4CF200F10800A4FA8CF283FA4CF373
:1012F000A2FA8CF37BB9D1E9062301F1200182FA2D
:101300004CF200F10800A4FA8CF283FA4CF3A2FA32
:101310008CF3002BC6D0002A04BF04301A4612BA40
:10132000B2FA82F2FDE8024500EBD2007047D1E943
:10133000002304F00305C4F100004FEAC50514F0D2
:10134000040F91F840F00CFA05F562EA05021CBFA3
:1013500063EA050362464FF00004A9E700000000BD
:1013600001F0FF01102A2BDB10F0070F08D010F856
:10137000013B013A8B422DD010F0070F42B3F6D15A
:10138000F0B441EA012141EA014122F007047FF073
:1013900000070023F0E80256083C85EA010586EACA
:1013A000010685FA47F5A3FA87F586FA47F6A5FA06
:1013B00087F68EB9EED1F0BC01F0FF0102F0070212
:1013C00032B110F8013B013A83EA010313B1F8D1BD
:1013D0000020704701387047002D06BF354603389E
:1013E000073815F0010F07D1013015F4807F02BFD7
:1013F000013015F4C03F0130F0BC0138704700BF28
:101400004FEA410C7FEA6C5C02D150EA013C0AD100
:101410004FEA430C7FEA6C5C02D152EA033C02D1F2
:101420004FF0000070474FF00100704710B50446C0
:101430000E4B18784FF47A73B3FBF0F30C4A106834
:10144000B0FBF3F000F0ACF868B90F2C01D9012023
:101450000AE0002221464FF0FF3000F05FF8054B14
:101460001C60002000E0012010BD00BFE80100204A
:101470003C020020EC01002008B50B4B1A6842F436
:1014800000721A601A6842F480621A601A6842F4A4
:1014900080721A60032000F02FF80020FFF7C6FFCB
:1014A00008F034FF002008BD003C0240034A1168E8
:1014B000034B1B780B441360704700BF400F0020A4
:1014C000E8010020014B1868704700BF400F002062
:1014D00038B50446FFF7F6FF0546B4F1FF3F02D0EA
:1014E000044B1B781C44FFF7EDFF401BA042FAD3CE
:1014F00038BD00BFE8010020074AD36823F4E06349
:101500001B041B0C000200F4E060034343F0BF63C4
:1015100043F40033D360704700ED00E030B4174B64
:10152000DB68C3F30223C3F10704042C28BF04249F
:101530001D1D062D18D9033B4FF0FF3505FA04F4A5
:1015400021EA0401994005FA03F322EA030319434F
:1015500000280BDB0901C9B200F1604000F56140D1
:1015600080F8001330BC70470023E5E700F00F005F
:101570000901C9B2024B1954F4E700BF00ED00E0C5
:1015800014ED00E0002807DB00F01F0240090123F2
:101590009340024A42F82030704700BF00E100E06B
:1015A0000138B0F1807F0AD2064B5860064AF0211C
:1015B00082F823100020986007221A6070470120EB
:1015C000704700BF10E000E000ED00E058B110B53A
:1015D000044643791BB101236371002010BD0371E0
:1015E00008F016FCF7E701207047000000230F2BDE
:1015F00000F2D980F0B583B039E0072200E0002284
:10160000B2403A430234684E46F82420674A1468D0
:10161000EA4324EA05064F6817F4803F01D045EA03
:101620000406624C2660646802EA04064F6817F4F8
:10163000003F01D045EA04065C4C6660A46802EAFB
:1016400004064F6817F4801F01D045EA0406574C82
:10165000A660E46822404E6816F4001F01D045EAF7
:101660000402524CE26001330F2B00F29A800122F7
:101670009A400C6804EA020532EA0404F3D14C688B
:10168000661E012E03D9112C01D0122C12D18668AE
:101690005F000324BC4026EA0406CC68BC40344307
:1016A0008460466826EA02064C68C4F300129A4039
:1016B00032434260C7685E000324B440E24327EA35
:1016C00004078C68B4403C43C4604C68022C01D0D1
:1016D000122C13D1DF08083750F827E003F0070475
:1016E0004FEA840C0F2404FA0CF42EEA040E0C6961
:1016F00004FA0CF444EA0E0440F82740046814404D
:101700004A6802F00302B240224302604A6812F0C3
:10171000805FA8D000220192254A546C44F4804492
:101720005464526C02F480420192019A9C08A61CF7
:101730001D4A52F8267003F0030296000F22B240B1
:1017400027EA02071B4A90423FF459AF02F5806234
:1017500090421AD002F58062904218D002F5806261
:10176000904216D002F58062904214D002F5806259
:10177000904212D002F58062904210D002F5806251
:1017800090423FF43AAF08223AE7012238E70222BA
:1017900036E7032234E7042232E7052230E7062247
:1017A0002EE703B0F0BD704700380140003C014017
:1017B00000380240000002400369194201D00120B4
:1017C0007047002070470AB1816170470904816148
:1017D0007047436931EA030301D08161704709040E
:1017E00081617047002800F0D98170B582B004464D
:1017F000036813F0010F3BD0A64B9B6803F00C036A
:10180000042B2CD0A34B9B6803F00C03082B21D096
:101810006368B3F5803F4FD0B3F5A02F52D09D4BF6
:101820001A6822F480321A601A6822F480221A6040
:101830006368002B50D0FFF745FE0546954B1B68AB
:1018400013F4003F14D1FFF73DFE401B6428F5D987
:101850000320AAE18F4B5B6813F4800FD8D08D4B27
:101860001B6813F4003F03D06368002B00F09881DD
:10187000236813F0020F54D0864B9B6813F00C0FB3
:101880003ED0844B9B6803F00C03082B33D0E368F5
:10189000002B67D0804B01221A60FFF713FE05462C
:1018A0007C4B1B6813F0020F53D1FFF70BFE401B5C
:1018B0000228F5D9032078E1764A136843F480338F
:1018C0001360B5E7734B1A6842F480221A601A68F5
:1018D00042F480321A60ABE7FFF7F4FD05466D4B2A
:1018E0001B6813F4003FC3D0FFF7ECFD401B6428D6
:1018F000F5D9032059E1674B5B6813F4800FC6D11B
:10190000644B1B6813F0020F03D0E368012B40F017
:101910004981604A136823F0F803216943EAC1034F
:101920001360236813F0080F40D0636963B35B4B07
:1019300001221A60FFF7C6FD0546564B5B6F13F098
:10194000020F33D1FFF7BEFD401B0228F5D903205B
:101950002BE1504A136823F0F803216943EAC103DD
:101960001360DEE74C4B00221A60FFF7ABFD054623
:10197000484B1B6813F0020FD3D0FFF7A3FD401BA9
:101980000228F5D9032010E1444B00221A60FFF72A
:1019900099FD05463F4B5B6F13F0020F06D0FFF732
:1019A00091FD401B0228F5D90320FEE0236813F0C7
:1019B000040F78D0374B1B6C13F0805F0DD10023E0
:1019C0000193344B1A6C42F080521A641B6C03F082
:1019D00080530193019B012500E00025304B1B68DB
:1019E00013F4807F21D0A368012B32D0052B36D091
:1019F000284B1A6F22F001021A671A6F22F00402B4
:101A00001A67A368002B34D0FFF75CFD0646214B14
:101A10001B6F13F0020F45D1FFF754FD801B41F2FD
:101A200088339842F3D90320BFE01D4A136843F47A
:101A300080731360FFF746FD0646194B1B6813F4CD
:101A4000807FD0D1FFF73EFD801B0228F5D903200F
:101A5000ABE0104A136F43F001031367D1E70D4B5E
:101A60001A6F42F004021A671A6F42F001021A67F5
:101A7000C7E7FFF727FD0646064B1B6F13F0020F63
:101A800010D0FFF71FFD801B41F288339842F3D935
:101A900003208AE00038024000004742800E47429F
:101AA00000700040E5B9A369002B7DD0464A9268DA
:101AB00002F00C02082A51D0022B17D0434B00220F
:101AC0001A60FFF7FFFC04463F4B1B6813F0007FD2
:101AD00042D0FFF7F7FC001B0228F5D9032064E091
:101AE000394A136C23F080531364DCE7374B002230
:101AF0001A60FFF7E7FC0546334B1B6813F0007FC5
:101B000006D0FFF7DFFC401B0228F5D903204CE08C
:101B1000E369226A1343626A43EA8213A26A5208A3
:101B2000013A43EA0243E26A43EA0263264A536007
:101B3000264B01221A60FFF7C5FC0446224B1B68A6
:101B400013F0007F06D1FFF7BDFC001B0228F5D97A
:101B500003202AE0002028E0002026E0012B26D0E8
:101B6000194B5B6803F48001E269914221D103F0D3
:101B70003F02216A8A421ED1616A47F6C0721A404A
:101B80008A421AD103F44032A16A8A4217D103F083
:101B90007063E26A934214D1002006E0012070478E
:101BA000012002E0012000E0002002B070BD012011
:101BB000FBE70120F9E70120F7E70120F5E7012025
:101BC000F3E70120F1E700BF003802406000474220
:101BD000F8B52F4B9B6803F00C03042B53D0082B54
:101BE00053D12B4B5A6802F03F025B6813F4800F0D
:101BF00028D0274B5B68C3F3881358010021C01A13
:101C000061F100018E0146EA906687013C1A66EB9D
:101C10000105E90041EA5471E000C01841F10001FA
:101C20004B0243EAD0534402204619460023FEF7F4
:101C300085FF174B5B68C3F3014301335B00B0FBC7
:101C4000F3F023E0124B5B68C3F388135C010025BB
:101C5000E41A65F10005AE0146EA9466A701381B57
:101C600066EB0501CC0044EA5074C500E81844F165
:101C700000018B0243EA9053840220461946002358
:101C8000FEF75CFFD5E7034800E00348F8BD00BF5E
:101C90000038024000127A000024F400002800F00E
:101CA0009B8070B50D4604464F4B1B6803F00F0335
:101CB0008B4208D2CBB24C4A1370136803F00F0367
:101CC0008B4240F08B80236813F0020F17D013F083
:101CD000040F04D0454A936843F4E05393602368AB
:101CE00013F0080F04D0414A936843F460439360B3
:101CF0003E4A936823F0F003A1680B439360236886
:101D000013F0010F32D06368012B21D09A1E012AF3
:101D100025D9364A126812F0020F61D033498A6819
:101D200022F0030213438B60FFF7CCFB06462F4BD8
:101D30009B6803F00C036268B3EB820F16D0FFF7C9
:101D4000C1FB801B41F288339842F0D9032042E066
:101D5000264A126812F4003FE0D101203BE0234AFA
:101D6000126812F0007FD9D1012034E01E4B1B68AD
:101D700003F00F03AB4207D9EAB21B4B1A701B6882
:101D800003F00F03AB422DD1236813F0040F06D0EC
:101D9000164A936823F4E053E1680B439360236889
:101DA00013F0080F07D0114A936823F460432169A8
:101DB00043EAC1039360FFF70BFF0C4B9B68C3F32F
:101DC00003130B4AD35CD8400A4B18600A4B1868BF
:101DD000FFF72CFB002070BD012070470120FAE7BF
:101DE0000120F8E70120F6E7003C024000380240FD
:101DF0007C2802083C020020EC010020014B1868FE
:101E0000704700BF3C02002008B5FFF7F7FF044B06
:101E10009B68C3F38223034AD35CD84008BD00BF4C
:101E2000003802408C28020808B5FFF7E7FF044B92
:101E30009B68C3F34233034AD35CD84008BD00BF5C
:101E4000003802408C2802082DE9F04106468846F9
:101E500017461D463468A46838EA04030CBF012401
:101E60000024BC4237D0B5F1FF3FF3D0FFF72AFB87
:101E7000069BC01AA84201D2002DEBD132685368EC
:101E800023F0E00353607368B3F5827F0BD0B36A2D
:101E9000B3F5005F14D0012386F85130002386F893
:101EA0005030032018E0B368B3F5004F02D0B3F50B
:101EB000806FECD13268136823F040031360E6E7CB
:101EC0003268136823F4005313603268136843F4D4
:101ED00000531360DFE70020BDE8F08130B585B026
:101EE0000446164B1868164BA3FB0030400D4FF408
:101EF0007A7505FB00F003906368B3F5827F0BD021
:101F0000039BBBB1039B013B039323689B6813F0C6
:101F1000800FF5D100200EE000920B4600228021B8
:101F20002046FFF791FF30B1636D43F020036365F6
:101F3000032000E0002005B030BD00BF3C020020BF
:101F4000819F5E1600283BD010B5044600238362B3
:101F500090F85130002B2ED0022384F851302268A3
:101F6000136823F0400313606368A2681343E268B8
:101F700013432269134362691343A26902F4007296
:101F80001343E2691343226A1343A16A22680B4395
:101F90001360638B03F00403616A22680B43536090
:101FA0002268D36923F40063D361002060650123B4
:101FB00084F8513010BD80F8503008F057F9CBE765
:101FC000012070472DE9F04383B01D4690F8503052
:101FD000012B00F0C780044688469146012380F813
:101FE0005030FFF76FFA074694F85160F6B2012EB1
:101FF00040F0A580B8F1000F00F0A280B9F1000F09
:1020000000F09E80032384F8513000236365C4F8F8
:102010003080A4F83490A4F83690A363A387E387B4
:1020200063642364A368B3F5004F1ED023681A6865
:1020300012F0400F03D11A6842F040021A60E368C0
:10204000B3F5006F17D0636813B1B9F1010F4DD12B
:10205000226B236812781A73236B01332363E38E98
:102060009BB2013B9BB2E38640E02268136843F4D5
:1020700080431360DAE7636813B1B9F1010F16D139
:10208000226B23681288DA60236B02332363E38EAA
:102090009BB2013B9BB2E38609E0FFF713FAC01B3A
:1020A000A84202D3B5F1FF3F54D1002D54D0E38EA6
:1020B0009BB2002B2ED023689A6812F0020FECD04E
:1020C000226B1288DA60236B02332363E38E9BB2A8
:1020D000013B9BB2E386EAE7FFF7F4F9C01BA84295
:1020E00002D3B5F1FF3F39D1002D39D0E38E9BB239
:1020F00083B123689A6812F0020FEDD0226B127838
:102100001A73236B01332363E28E92B2013A92B2C7
:10211000E286EBE73A4629462046FFF7DFFE08B1A4
:1021200020236365A36833B901932368DA680192B9
:102130009B680193019B636D13B9002600E00226A2
:10214000012384F85130002384F85030304603B026
:10215000BDE8F0830326F3E70326F1E70326EFE764
:102160000326EDE70226F1E728B370B50E461546C3
:10217000044690F84930CBB1214651F8080B00F0E5
:1021800097FCA2683146206800F0C0FC236BA2686F
:102190002946606800F0DAFC2268A16852F8213014
:1021A00043F0010342F82130002070BD80F8483030
:1021B00007F0D8FEE0E70120704730B4036A056AF3
:1021C00025F001050562846924F0F00444EA021454
:1021D00023F00A030B438461036230BC704730B4C0
:1021E000056A25F0100505628469036A24F47044C9
:1021F00044EA023423F0A00343EA0113846103623A
:1022000030BC7047836823F070030B4343F007032F
:10221000836070470268D36843F00103D3600268AB
:10222000936803F00703062B03D0136843F0010300
:10223000136000207047704770477047704710B5B3
:10224000044603681A6912F0020F11D0DA6812F01E
:10225000020F0DD06FF002021A61012303770368A9
:102260009B6913F0030F70D0FFF7E6FF002323777D
:1022700023681A6912F0040F12D0DA6812F0040F02
:102280000ED06FF004021A610223237723689B6942
:1022900013F4407F5FD02046FFF7CEFF0023237763
:1022A00023681A6912F0080F12D0DA6812F0080FCA
:1022B0000ED06FF008021A61042323772368DB69CC
:1022C00013F0030F4ED02046FFF7B6FF002323770D
:1022D00023681A6912F0100F12D0DA6812F0100F8A
:1022E0000ED06FF010021A61082323772368DB6990
:1022F00013F4407F3DD02046FFF79EFF0023237755
:1023000023681A6912F0010F03D0DA6812F0010F86
:1023100036D123681A6912F0800F03D0DA6812F000
:10232000800F34D123681A6912F0400F03D0DA68A5
:1023300012F0400F32D123681A6912F0200F03D037
:10234000DA6812F0200F30D110BDFFF774FF20467D
:10235000FFF773FF8AE72046FFF76DFF2046FFF780
:102360006CFF9BE72046FFF766FF2046FFF765FFFF
:10237000ACE72046FFF75FFF2046FFF75EFFBDE7B3
:102380006FF001021A61204608F03CF9C1E76FF0D6
:1023900080021A61204600F04CF9C3E76FF040025A
:1023A0001A612046FFF74AFFC5E76FF020021A6165
:1023B000204600F03DF9C7E70368304A904212D04A
:1023C000B0F1804F0FD0A2F57C4290420BD002F5C5
:1023D0008062904207D002F58062904203D002F5FD
:1023E0007842904203D123F070034A681343234A92
:1023F00090422AD0B0F1804F27D0A2F57C42904283
:1024000023D002F5806290421FD002F58062904294
:102410001BD002F57842904217D002F570529042DC
:1024200013D002F5806290420FD002F58062904294
:102430000BD0A2F59832904207D002F5806290420C
:1024400003D002F58062904203D123F44073CA683E
:10245000134323F080034A69134303608B68C3620C
:102460000B688362054B984203D003F58063984262
:1024700001D10B69036301234361704700000140F0
:10248000B0B110B5044690F83D3063B1022384F832
:102490003D30214651F8040BFFF78EFF012384F8ED
:1024A0003D30002010BD80F83C3008F057F8EDE7D3
:1024B0000120704710B4846824F47F4442EA032268
:1024C0000A43224382605DF8044B704790F83C3029
:1024D000012B66D010B50446012380F83C3002235E
:1024E00080F83D300268936823F47F4323F077033C
:1024F00093600B68602B40D022D8402B47D00BD97B
:10250000502B0ED1CA6849680068FFF756FE50216B
:102510002068FFF777FE04E0202B0CD008D9302B81
:1025200009D0012384F83D30002084F83C0010BD20
:102530000BB1102BF5D119462068FFF763FEF0E7C9
:10254000702B0ED0B3F5005FEBD1CB684A68896879
:102550000068FFF7AFFF2268936843F480439360FD
:10256000DFE7CB684A6889680068FFF7A3FF226845
:10257000936843F077039360D3E7CA6849680068BB
:10258000FFF72DFE60212068FFF73CFEC9E7CA680F
:1025900049680068FFF711FE40212068FFF732FE0E
:1025A000BFE702207047000090F83C30012B3BD081
:1025B00030B4012380F83C30022380F83D300368BA
:1025C0005C689D6824F070040A6822435A600368BE
:1025D000164A93421AD0B3F1804F17D0A2F57C422D
:1025E000934213D002F5806293420FD002F58062CD
:1025F00093420BD002F57842934207D002F5705215
:10260000934203D0A2F59432934204D125F0800581
:102610004A6815439D60012380F83D30002380F80F
:102620003C30184630BC7047022070470000014023
:102630007047704770B504460268136923F440532D
:10264000C1680B43136183680269134342691343F2
:10265000C2691A430168CB6823F4164323F00C03C4
:102660001343CB600268536923F4407381690B43C1
:102670005361C369B3F5004F36D00368654A93428E
:1026800000F09A8002F58062934200F09580FFF797
:10269000BBFB0026051846EB06012D1846EB010191
:1026A000CB0043EA5573EA001546194663689A0061
:1026B0009B0F281846EB0101FEF740FA564DA5FB8B
:1026C00000325109642303FB11031B013233A5FBC4
:1026D00003235B0903F0F00202EB011203F00F0386
:1026E000216813448B6093E003684A4A934233D0D5
:1026F00002F5806293422FD0FFF786FB0026051873
:1027000046EB06012D1846EB0101CB0043EA557359
:10271000EA001546194662683346921846EB0303F1
:10272000281846EB0101FEF709FA3B4DA5FB0032E4
:102730005109642303FB1103DB003233A5FB0323A0
:102740005B095A0002F4F87202EB011203F007036E
:10275000216813448B605BE0FFF766FB00260518D9
:1027600046EB06012D1846EB0101CB0043EA5573F9
:10277000EA001546194662683346921846EB030391
:10278000281846EB0101FEF7D9F9234DA5FB0032CD
:102790005109642303FB1103DB003233A5FB032340
:1027A0005B095A0002F4F87202EB011203F007030E
:1027B000216813448B602BE0FFF736FB00260518D9
:1027C00046EB06012D1846EB0101CB0043EA557399
:1027D000EA001546194663689A009B0F281846EBD5
:1027E0000101FEF7ABF90C4DA5FB00325109642342
:1027F00003FB11031B013233A5FB03235B0903F029
:10280000F00202EB011203F00F03216813448B6006
:1028100070BD00BF001001401F85EB512DE9F8434A
:1028200005460F4616469946DDF820802C68246838
:1028300037EA04030CBF01240024B4421FD1B8F1CD
:10284000FF3FF3D0B8F1000F05D0FEF73BFEA0EB41
:1028500009004045EAD92A68D36823F4D073D360CD
:102860002A68536923F001035361202385F8393026
:1028700085F83A30002385F83830032000E0002046
:10288000BDE8F88358B310B5044690F839300BB35F
:10289000242384F839302268D36823F40053D360AA
:1028A0002046FFF7C7FE2268136923F490431361A3
:1028B0002268536923F02A0353612268D36843F4E2
:1028C0000053D3600020E063202384F8393084F87B
:1028D0003A3010BD80F8383007F0D2FED8E701203A
:1028E00070472DE9F04383B01E4690F83930DBB2D3
:1028F000202B59D104460D469046002958D0002A75
:1029000058D090F83830012B56D0012380F8383059
:102910004FF00009C0F83C90212380F83930FEF7D1
:10292000D1FD0746A4F82480A4F8268084F83890C6
:1029300017E000963B46002280212046FFF76EFFFD
:1029400000283BD12B882268C3F308035360236916
:102950000BB9023505E0013503E015F8012B2368BA
:102960005A60E38C9BB29BB1E28C92B2013A92B274
:10297000E284A368B3F5805FDBD000963B4600227B
:1029800080212046FFF74AFF0028E6D003200CE014
:1029900000963B46002240212046FFF73FFF78B9D2
:1029A000202384F8393000E0022003B0BDE8F08332
:1029B0000120FAE70120F8E70220F6E70320F4E718
:1029C0000320F2E72DE9F04383B01E4690F83A3039
:1029D000DBB2202B5DD104460D46904600295CD029
:1029E000002A5CD090F83830012B5AD0012380F8AF
:1029F00038304FF00009C0F83C90222380F83A307C
:102A0000FEF760FD0746A4F82C80A4F82E8084F819
:102A100038901DE000963B46002220212046FFF71B
:102A2000FDFE00283FD1236933B923685B68C3F3F7
:102A3000080325F8023B0BE023685B68DBB225F84E
:102A4000013B05E023685B6803F07F0305F8013B69
:102A5000E38D9BB2C3B1E28D92B2013A92B2E285AC
:102A6000A368B3F5805FD5D000963B4600222021B5
:102A70002046FFF7D3FEC0B92369002BE2D12368BB
:102A80005B6805F8013BE3E7202384F83A30002037
:102A900000E0022003B0BDE8F0830120FAE7012046
:102AA000F8E70220F6E70320F4E70320F2E700004E
:102AB00070B40C6850F82430134E1E404A688D687C
:102AC00042EA0503CA6813430A6913434A69134378
:102AD0008A691343CA6913430A6A13434A6A134350
:102AE0008A6A1343CA6A1343CA6B13430A6B1343BC
:102AF0003343082D04D040F82430002070BC7047C8
:102B000043F04003F7E700BF8000F0FF30B401322C
:102B100050F8224004F040440B684D6843EA051326
:102B20008D6843EA0523CD6843EA05430D69013DFD
:102B300043EA05534D69023D43EA056389690B4346
:102B4000234340F82230002030BC7047B3F5804F5B
:102B500005D06FF0704340F822300020704730B449
:102B600050F82230094C1C400B684D6843EA0513AD
:102B70008D6843EA0523CD6843EA054389690B4321
:102B8000234340F82230002030BC70470000F0CFD3
:102B900008B54FF4C831054807F06EFF802007F0F4
:102BA00073FF034808F0B6F908BD00BF440F0020CA
:102BB00010F00108836801390D2914D8DFE801F00D
:102BC000090B0D0F13131311071616070707002023
:102BD00070475868704798687047D8687047186998
:102BE0007047986970474FF0FF3070470120704779
:102BF000012901D1014870470020704728F70108DA
:102C0000826800230B804B80D368013B8B80136963
:102C1000013BCB80704700000939072911D8DFE854
:102C200001F004120608100A0C0E08487047084804
:102C30007047084870470848704708487047084878
:102C40007047002070470748704700BF512D0008AB
:102C5000032D0008EB2C00089B2C00088D2C00088D
:102C6000692C0008392D000800B583B00023ADF8A9
:102C700005308DF807308DF8041000926A46042163
:102C8000806900F097FC03B05DF804FB08B50022F2
:102C90000621806900F08EFC08BD08B500220521E0
:102CA000806900F087FC08BD00B583B000910192F7
:102CB0006A460321806900F07DFC03B05DF804FBE7
:102CC00038B50446836823B1A068B0FA80F04009A3
:102CD00038BD1C2007F088FF0546A06023699B686B
:102CE000984709F0A1F9A861EEE738B50546FFF766
:102CF000E7FF044600220121A86900F05BFC2043A5
:102D000038BD70B582B005460C46164600230093C8
:102D10000193FFF7D5FFAB6863B15A6902B9224648
:102D20005A615C609E60009401966A460721A8691A
:102D300000F040FC02B070BD70B505460C4616466A
:102D4000FFF7BEFFAB6813B1DC601E615C6170BD54
:102D500030B583B004460D4600230193FFF7B0FF62
:102D6000A36833B11D60019501AA0221A06900F09A
:102D700021FC03B030BD08B5084611469AB289B2AD
:102D800080B201F015F908BD2DE9F84F8146924651
:102D90001F460A9C0B9DDDF830B093F80080661842
:102DA000404B1B681B7C13F0030303D0022B3BD06A
:102DB000BDE8F88FBBF1000F02D11DE0013DF7D057
:102DC000C4F103035A00C2F10601C0230B4103EA18
:102DD0000803D34031465BF823305246013648465B
:102DE000FFF7C9FF0134042CE8D197F801800137BF
:102DF0000024E3E7013DDBD0C4F103025200C2F13D
:102E00000601C0230B4103EA08033146D340524672
:102E100001364846FFF7AFFF0134042CEAD197F89A
:102E2000018001370024E5E7BBF1000F0AD125E05E
:102E30005BF82330524631464846FFF79CFF0CE0D2
:102E4000013DB5D0C4F103035A00C2F10601C0230D
:102E50000B4103EA0803D340EAD101360134042CC4
:102E6000EED197F8018001370024E9E75246314658
:102E70004846FFF780FF0CE0013D99D0C4F1030301
:102E80005A00C2F10601C0230B4103EA0803D340F4
:102E9000ECD101360134042CEED197F801800137D2
:102EA0000024E9E70C0000202DE9F84F8146924606
:102EB0001F460A9C0B9DDDF830B093F80080661821
:102EC000404B1B681B7C13F0030303D0022B3BD049
:102ED000BDE8F88FBBF1000F02D11DE0013DF7D036
:102EE000C4F101039A00C2F10401F0230B4103EA8B
:102EF0000803D34031465BF823305246013648463A
:102F0000FFF739FF0134022CE8D197F8018001372F
:102F10000024E3E7013DDBD0C4F101029200C2F1DD
:102F20000401F0230B4103EA08033146D340524623
:102F300001364846FFF71FFF0134022CEAD197F80B
:102F4000018001370024E5E7BBF1000F0AD125E03D
:102F50005BF82330524631464846FFF70CFF0CE041
:102F6000013DB5D0C4F101039A00C2F10401F02380
:102F70000B4103EA0803D340EAD101360134022CA5
:102F8000EED197F8018001370024E9E75246314637
:102F90004846FFF7F0FE0CE0013D99D0C4F1010373
:102FA0009A00C2F10401F0230B4103EA0803D34065
:102FB000ECD101360134022CEED197F801800137B3
:102FC0000024E9E70C0000202DE9F84307460D46F0
:102FD00090461E46089CDDF82490254B1B681B7C00
:102FE00013F0030303D0022B1FD0BDE8F883B9F11F
:102FF000000F0BD116E016F8013B59F8233042467A
:1030000029463846FFF7B7FE013C0135002CF2DCBB
:10301000EBE716F8013B424629463846FFF7ABFE80
:10302000013C0135002CF4DCDFE7B9F1000F0AD1D7
:1030300017E059F82330424629463846FFF79BFEF1
:10304000013C01350136002CCFDD3378002BF7D061
:10305000EFE7424629463846FFF78DFE013C013531
:103060000136002CC1DD3378002BF7D0F1E700BF2B
:103070000C0000202DE9F04180460C4617461E4604
:10308000069D002D09DD56F8043B3A462146404690
:10309000FFF771FE013D0134F3E7BDE8F08108B5AB
:1030A000084691B280B200F099FD08BDF8B504461B
:1030B0000D461646FFF7F3FF074623699B689847BE
:1030C00087EA0003324629462046FFF754FEF8BD42
:1030D0002DE9F84F804691461F460A9C0B9D0C9B9C
:1030E000D3F800B0D3F804A00E192C4B1B681B7C3E
:1030F00003F00303032B4ED8DFE803F00C2D212D42
:1031000053464A464046FFF736FE0134082C0AD0A3
:10311000013D40D0314601363A78802323411A429E
:10312000EED15B46EDE701370024F1E753464A460E
:1031300031464046FFF71FFE06E0013D2BD03A78AE
:10314000802323411A42F1D101360134082CF4D1F5
:1031500001370024F1E703699B68984782460EE037
:103160004A4631464046FFF79AFF8AEA00034A463C
:1031700031464046FFF7FFFD06E0013D0BD03A78AF
:10318000802323411A42EBD101360134082CF4D1BB
:1031900001370024F1E7BDE8F88F00BF0C000020E4
:1031A00000B583B0084611461A46074B1B68DB6B17
:1031B0001B880093BDF8103092B289B280B204F03F
:1031C000E9FB03B05DF804FB0C00002000B583B000
:1031D00000930B46FFF7E4FF03B05DF804FB00B576
:1031E00083B00092FFF7DCFF03B05DF804FB000042
:1031F00038B508461D46049C91B280B200F026FC0A
:10320000074B1B68074A12891A80002C06DD35F827
:10321000022B054B1B681A80013CF6E738BD00BF46
:10322000F00100204C9F0120F40100202DE9F04F17
:1032300087B005460E4617469846DDF84090DDF803
:1032400048A0139C119B013B1F2B21D8DFE803F002
:10325000233C20552020206C20202020202020836B
:1032600020202020202020202020202020202095E9
:10327000159B02930195009623460BEB07020599D7
:103280004046FFF725FF54440BF1010BCB45EFDB24
:1032900007B0BDE8F08F4FF0000B05914346804624
:1032A000149E1D46F2E7159B029301950096234656
:1032B0000BEB070205994046FFF766FD54440BF1FE
:1032C000010BCB45EFDBE3E74FF0000B05914346E5
:1032D0008046149E1D46F4E7159B029301950096C7
:1032E00023460BEB070205994046FFF7DDFD5444EA
:1032F0000BF1010BCB45EFDBCAE74FF0000B05915B
:1033000043468046149E1D46F4E7019600952346E9
:103310000BEB070205994046FFF756FE54440BF1AC
:10332000010BCB45F1DBB3E74FF0000B05914346B2
:103330008046159E1D46F4E7CDF8008023460BEB32
:10334000070231462846FFF753FF54440BF1010BA7
:10335000CB45F1DB9CE74FF0000BF9E7CDF800809F
:1033600023460BEB070231462846FFF783FE544401
:103370000BF1010BCB45F1DB8AE74FF0000BF9E7CE
:103380007047704710B50A4B9B8845F21052934224
:1033900003D041F66312934205D1064C63680020C6
:1033A0009847A08910BDD02005F014F9FAE700BFB6
:1033B0004C9F0120FC01002010B50A4B9B8845F270
:1033C0001052934203D041F66312934205D1064C4A
:1033D000636800209847E08A10BD902005F0FAF855
:1033E000FAE700BF4C9F0120FC01002010B582B01D
:1033F00000231A466C496D4807F040FF6C4C628808
:103400002188002008F0BDFE62882188002008F095
:10341000D0FEA38845F21052934224D041F66312A5
:1034200093424DD045F21032934276D046F60402D4
:10343000934272D05E4B9B79002B40F09E805C4C97
:1034400040F63F7300939B2322880021084607F033
:103450002FFF40F65F730093BC2362880021012098
:1034600007F026FF15E0A379ABB940F2DF13009314
:1034700000234FF4F0721946184607F019FF40F286
:103480001F33009300234FF448721946012007F0C0
:103490000FFF02B010BD40F2DF13009300234FF482
:1034A000F0721946184607F003FF40F21F330093ED
:1034B00000234FF448721946012007F0F9FEE8E7AF
:1034C0003B4B9B79A3B940F21F33009300234FF489
:1034D00048721946184607F0EBFE40F2DF130093DE
:1034E00000234FF4F0721946012007F0E1FED0E707
:1034F00040F21F33009300234FF4487219461846D8
:1035000007F0D6FE40F2DF13009300234FF4F07271
:103510001946012007F0CCFEBBE7254B9B79A3B9E8
:10352000E223009340F65B734FF4A072002108463B
:1035300007F0BEFEC423009340F6E4634FF4F0723C
:103540000021012007F0B4FEA3E7062007F0AAFE41
:10355000E223009340F65B734FF4A072002108460B
:1035600007F0A6FEC423009340F6E4634FF4F07224
:103570000021012007F09CFE8BE7062007F092FE59
:1035800040F63F7300939B23F0220021084607F08A
:103590008FFE40F65F730093BC234FF4A0720021AE
:1035A000012007F085FE74E778D90108140A0208A3
:1035B0004C9F0120012901D1002070474FF0FF30BE
:1035C00070470000014B1868704700BF449F0120FE
:1035D000044B1B681844034B1B68C31A002BFADC0E
:1035E000704700BF449F0120704710B5044600F0AB
:1035F00065F8230A5B00DBB2603B03F0FE0000F0DD
:1036000045F900F0B3F8E0B200F040F900F0AEF890
:1036100000F054F8A12000F039F900F0A7F80020DC
:1036200000F076F9044600F075F8204610BD38B574
:1036300004460D4600F042F8230A5B00DBB2603B13
:1036400003F0FE0000F022F900F090F8E0B200F084
:103650001DF900F08BF8284600F018F900F086F804
:1036600000F058F80A20FDF733FF38BDF8B50746DB
:103670000E4615460024AC420AD2E10026FA01F1BA
:103680003819C9B280B2FFF7D2FF0134E4B2F2E7D1
:10369000F8BDF8B507460E4600200446B4420CD2E9
:1036A0000502B81980B2001B80B2013880B2FFF762
:1036B0009CFF28440134E4B2F0E7F8BD10B5144C87
:1036C000236823F440232360236843F4802323608A
:1036D00001224FF400712046FEF775F801224FF4E5
:1036E00080712046FEF76FF8042005F01DFD0022D2
:1036F0004FF400712046FEF766F8042005F014FD33
:1037000000224FF480712046FEF75DF810BD00BF27
:103710000004024010B5144C236823F440232360B6
:10372000236843F48023236000224FF480712046F5
:10373000FEF749F800224FF400712046FEF743F8E7
:10374000042005F0F1FC01224FF480712046FEF7C1
:103750003AF801224FF400712046FEF734F80420B5
:1037600005F0E2FC10BD00BF0004024038B51A4C61
:10377000236823F4402323602368236001224FF44D
:1037800000712046FEF71FF8012005F0CDFC012254
:103790004FF480712046FEF716F8012005F0C4FCB6
:1037A00000244FF400710C48FEF706F8054638B1C6
:1037B0000134E4B2FA2CF4D9FFF7ACFF012508E09C
:1037C00000224FF4807100F1804000F50130FDF7D8
:1037D000FAFF284638BD00BF0004024010B5144C63
:1037E00000224FF480712046FDF7EDFF236823F49B
:1037F00040232360236843F48023236000224FF496
:1038000000712046FDF7DFFF022005F08DFC01224C
:103810004FF480712046FDF7D6FF022005F084FCAE
:1038200000224FF480712046FDF7CDFF10BD00BF90
:103830000004024010B5144C00224FF48071204661
:10384000FDF7C1FF236823F440232360236843F47A
:103850008023236001224FF400712046FDF7B3FF5F
:10386000022005F061FC01224FF480712046FDF733
:10387000AAFF022005F058FC00224FF48071204678
:10388000FDF7A1FF10BD00BF0004024070B5044663
:103890001E48036823F440230360036843F4802335
:1038A000036000224FF48071FDF78DFF00251FE0BB
:1038B00001224FF400711548FDF785FF6400E4B262
:1038C000022005F031FC114E01224FF48071304688
:1038D000FDF779FF022005F027FC00224FF48071EC
:1038E0003046FDF770FF022005F01EFC0135EDB2F9
:1038F000072D09D814F0800FDAD100224FF400719F
:103900000248FDF760FFD9E770BD00BF0004024028
:10391000F8B507461A4B1A6822F440221A601A6852
:103920001A600024254604E0012005F0FDFB013566
:10393000EDB2072D1BD8124E00224FF48071304695
:10394000FDF741FF022005F0EFFB01224FF48071EB
:103950003046FDF738FF6400E4B24FF400713046A2
:10396000FDF72AFF0028DFD00134E4B2DCE71FB9FD
:10397000FFF760FF2046F8BDFFF730FFFAE700BF12
:103980000004024082B0ADF80600BDF806309BB2DC
:10399000ADF80630BDF80620014B1A8002B0704722
:1039A0007E00006C82B0ADF80600BDF806309BB218
:1039B000ADF80630BDF80620014B5A8002B07047C2
:1039C0007E00006C82B0044B5B88ADF80630BDF819
:1039D000060080B202B070477E00006C82B0ADF885
:1039E0000600ADF80410BDF80620034B1A80BDF8A0
:1039F00004205A8002B070477E00006C00B583B08E
:103A0000ADF80600BDF8060080B2FFF7BBFF01204D
:103A1000FDF75EFDFFF7D6FF03B05DF804FB000085
:103A2000024B1A89024B1A80704700BF4C9F01203D
:103A30007E00006C43095B0103F4FC6303EBC023CD
:103A40009BB203EBD02080B27047000070B50446F3
:103A50000D46614B9B8849F2413293421FD045F29B
:103A6000103293421BD046F6040293422BD041F60B
:103A70006312934246D045F21052934200F0868082
:103A8000554B9B79012B00F09F80534E2146708946
:103A9000FFF7A4FF2946B089FFF7A0FF12E04E4EC2
:103AA0007089FFF76FFF200AFFF77CFFE0B2FFF796
:103AB00079FFB089FFF766FF280AFFF773FFE8B2C6
:103AC000FFF770FF70BD444B9B79012B13D0424E22
:103AD0007089FFF757FF200AFFF764FFE0B2FFF796
:103AE00061FFB089FFF74EFF280AFFF75BFFE8B2DE
:103AF000FFF758FFE6E7384B1B881C1AA4B2013CBD
:103B0000A4B2E4E7344B9B7953BB334A13881C1AA5
:103B1000A4B2013CA4B25089FFF734FF0020FFF7A4
:103B200041FF0020FFF73EFF200AFFF73BFFE0B216
:103B3000FFF738FF284CA089FFF724FF280AFFF77A
:103B400031FFE8B2FFF72EFF60880138C0F30F2085
:103B5000FFF728FF60880138C0B2FFF723FFB1E705
:103B60001D4E7089FFF70EFF200AFFF71BFFE0B222
:103B7000FFF718FF30880138C0F30F20FFF712FF5E
:103B800030880138C0B2FFF70DFFD3E7124E7089BD
:103B9000FFF7F8FE200AFFF705FF7089013080B2B9
:103BA000FFF7F0FEE0B2FFF7FDFEB089FFF7EAFE97
:103BB000280AFFF7F7FEB089013080B2FFF7E2FE76
:103BC000E8B2FFF7EFFE7DE7034B1B881C1AA4B297
:103BD000013CA4B259E700BF4C9F012000B583B05F
:103BE0000023ADF80630ADF80430ADF80230504B8C
:103BF0001B88834240F298804D4B5B888B4201D8F2
:103C0000002092E0FFF722FF494B9B8849F24132A6
:103C1000934213D046F6040293420FD045F210327D
:103C200093420BD041F66312934207D045F21052F3
:103C300093425AD02220FFF7A5FE02E02E20FFF784
:103C4000A1FEFFF7BFFEADF80600394B9A8841F69A
:103C500063139A424ED0FFF7B5FEADF80600344B21
:103C60009B8849F24132934207D045F21032934289
:103C700003D045F2105293420FD1FFF7A3FEADF8E7
:103C80000200BDF80630DBB2ADF80430BDF80430F8
:103C90009BB21B029BB2ADF80430254B9B8849F2C6
:103CA000253293422AD044F23552934226D044F230
:103CB0003152934222D04BF2055293421ED04CF225
:103CC000055293421AD049F2413293421AD045F23A
:103CD0001032934216D045F21052934212D0BDF8E2
:103CE000060080B2FFF7A6FE1FE04FF43850FFF742
:103CF00049FEA6E7BDF8060080B216E0BDF8060052
:103D000080B212E0BDF8060000F47840BDF804303F
:103D1000C3F3852340EA431000B2BDF80230C3F379
:103D2000C423184380B200E0002003B05DF804FB18
:103D30004C9F012010B5964B9B79012B29D02BB9B4
:103D4000934B9A8841F663139A422CD0904B9B88F0
:103D500049F2413293423ED046F6040293423AD0B1
:103D600045F21032934236D045F21052934232D08F
:103D700041F6631293422ED0072800F2F480DFE868
:103D800010F00501F400FB00F200FD00FF0001014E
:103D900003017F4A928846F604018A42CFD041F659
:103DA00063118A42CBD00728D0D8DFE800F0120494
:103DB00006080A0C0E100720C8E70420C6E70520F5
:103DC000C4E70120C2E70020C0E70320BEE70220CD
:103DD000BCE70620BAE70138062805D8DFE800F07E
:103DE0006A06606264666800002400E0402445F2D0
:103DF0001052934260D0362045F21032934209D0DF
:103E000045F21052934205D041F66312934201D01D
:103E100044F0080446F60402934250D02146FFF7CE
:103E2000DDFD5B4B9B8841F6631293420AD014F090
:103E3000200F47D0564A11885288914202D25448E6
:103E40000280418045F21052934244D0504C608928
:103E5000FFF798FD0020FFF7A5FD0020FFF7A2FD6A
:103E600020880138C0F30F20FFF79CFD208801381F
:103E7000C0B2FFF797FDA089FFF784FD0020FFF790
:103E800091FD0020FFF78EFD60880138C0F30F2000
:103E9000FFF788FD60880138C0B2FFF783FD10BDD1
:103EA000C024A4E72024A2E76024A0E7A0249EE782
:103EB000E0249CE780249AE74FF458509CE744F0B4
:103EC0000204ABE7324A118852889142BAD930488D
:103ED00002804180B6E72E4C6089FFF753FD002039
:103EE000FFF760FD6089013080B2FFF74BFD0020D5
:103EF000FFF758FD6089023080B2FFF743FD20884C
:103F00000138C0F30F20FFF74DFD6089033080B208
:103F1000FFF738FD20880138C0B2FFF743FDA089C4
:103F2000FFF730FD0020FFF73DFDA089013080B292
:103F3000FFF728FD0020FFF735FDA089023080B291
:103F4000FFF720FD60880138C0F30F20FFF72AFD3E
:103F5000A089033080B2FFF715FD60880138C0B238
:103F6000FFF720FD9BE7002100E0102141F4805184
:103F70000320FFF733FD92E72021F7E73821F5E72B
:103F80002821F3E71821F1E70821EFE73021EDE7D9
:103F90004C9F012008B5FFF759FDFFF741FD024B8B
:103FA0001A88024B5A8008BD489F01207E00006C91
:103FB0002DE9F04104460D461646584B9B8849F2C0
:103FC000413293421ED045F2103293421AD045F24C
:103FD0001052934230D041F6631293424AD046F6D3
:103FE0000402934274D04D4B9B79012B00F08F80DB
:103FF0004A4F21467889FFF7F1FC2946B889FFF737
:10400000EDFC12E0454F7889FFF7BCFC200AFFF772
:10401000C9FCE0B2FFF7C6FCB889FFF7B3FC280A79
:10402000FFF7C0FCE8B2FFF7BDFC3C4B1A893C4BE4
:104030001A805E80BDE8F081384F7889FFF7A2FCD6
:10404000200AFFF7AFFC7889013080B2FFF79AFCB5
:10405000E0B2FFF7A7FCB889FFF794FC280AFFF746
:10406000A1FCB889013080B2FFF78CFCE8B2FFF701
:1040700099FCDAE7294B9B792BB9284B1888041B4C
:10408000A4B2013CA4B2254F7889FFF77BFC4FEA2C
:1040900014284046FFF786FCE4B22046FFF782FC76
:1040A0004046FFF77FFC2046FFF77CFCB889FFF70E
:1040B00069FC2C0A2046FFF775FCEDB22846FFF795
:1040C00071FC2046FFF76EFC2846FFF76BFCACE75F
:1040D000124B9B79012B13D0104F7889FFF752FCBC
:1040E000200AFFF75FFCE0B2FFF75CFCB889FFF73E
:1040F00049FC280AFFF756FCE8B2FFF753FC94E7A7
:10410000064B1B881C1AA4B2013CA4B2E4E7034B83
:104110001B881C1AA4B2013CA4B269E74C9F012081
:104120007E00006C0000000010B50446BE20FFF7C2
:1041300029FC0520FFF736FC2046FCF7B3F90CA359
:10414000D3E90023FCF718FAFCF7D8FC80B2FFF79C
:1041500029FC0120FFF726FCFF20FFF723FC0020AD
:10416000FFF720FC0020FFF71DFC10BDAFF300801F
:10417000666666666666044008B500285AD1604BDC
:1041800000229A71F0221A804FF4A0725A809B8804
:1041900049F24132934217D046F60402934213D0BB
:1041A00045F2103293420FD045F21052934222D082
:1041B00041F6631293422FD0514B22221A812022C2
:1041C0005A8121229A8170E04D4A2C2111812A21A5
:1041D00051812B21918146F60402934203D045F28E
:1041E0001032934261D1464B4FF4A0721A804FF4C3
:1041F000F0725A8059E0424B4FF430521A814FF41A
:1042000028525A814FF42C529A814FF4F0721A803E
:104210004FF448725A8048E0394B2C221A812B22E5
:104220005A812A229A814FF4F0721A804FF4487210
:104230005A803AE0324B01229A714FF4A0721A80F0
:10424000F0225A809B8849F24132934217D045F2BE
:104250001032934213D046F60402934229D045F21D
:10426000105293422DD041F6631293423AD0244A21
:1042700022211181212151812021918106E0204AB2
:104280002C2111812A2151812B21918146F6040292
:10429000934203D045F21032934206D1184B4FF4AB
:1042A000F0721A804FF4A0725A800020FFF742FD8E
:1042B00008BD134A2C2111812B2151812A21918182
:1042C000E4E70F4A4FF4305111814FF428515181E6
:1042D0004FF42C5191814FF4487111804FF4F071DB
:1042E0005180D3E7064A2C2111812A2151812B21AB
:1042F00091814FF4487111804FF4F0715180C5E7FE
:104300004C9F01202DE9F0410546174B1C885A8827
:1043100004FB02F49A8846F604039A4203D1124B36
:104320009B79012B07D000210846FFF78FFBFFF791
:1043300077FB002314E00C4E0020B0712A27778110
:104340004FF02B08A6F80C800146FFF77FFB0123F6
:10435000B371A6F80A80B781E9E7044A55800133B2
:10436000A342FAD3BDE8F0814C9F01207E00006C8F
:1043700010B582B00024019401212046FFF72EFBE6
:104380003220FDF7A5F82046FFF738FB624B9880F6
:10439000A0F1FF039BB2B3F57F4F33D2B0F5134FBB
:1043A00030D05D4B998849F24133994200F0B88092
:1043B00045F21033994200F0B38045F21053994210
:1043C00000F0AE8041F66313994200F0A98046F6F2
:1043D0000403994204D04CF20553994240F0B18055
:1043E0004E4B9A6922F00F029A619A6922F4706228
:1043F0009A619A6942F00A029A619A6942F44062AB
:104400009A619EE0D320FFF7BDFAFFF7DBFA424C3A
:10441000A080FFF7D7FAA080FFF7D4FA0002A080AF
:10442000FFF7D0FAA388184380B2A08049F2413345
:104430009842B6D0BF20FFF7A5FAFFF7C3FAA080D5
:10444000FFF7C0FAA080FFF7BDFAA080FFF7BAFA25
:104450000002A080FFF7B6FAA388184380B2A080BC
:1044600046F6040398429CD0D420FFF78BFAFFF75E
:10447000A9FAA080FFF7A6FAA080FFF7A3FA00022E
:10448000A080FFF79FFAA388184380B2A08045F26E
:104490001033984285D04FF45A40FFF773FAFFF774
:1044A00091FAA0804FF45B40FFF76CFAFFF78AFAAD
:1044B0000002A0804FF45C40FFF764FAFFF782FA35
:1044C000A388184380B2A080B0F5004F20D0124BD3
:1044D0009A8845F210539A423FF463AFA120FFF748
:1044E00051FAFFF76FFA0C4CA080FFF76BFA00024D
:1044F000A080FFF767FAA38803439BB2A38045F22D
:10450000617293427FF44DAF41F66312A28048E797
:1045100045F21052A280DAE74C9F0120040100A06E
:104520008C4B9A6922F00F029A619A6922F47062A8
:104530009A619A6942F003029A619A6942F40072A0
:104540009A61854811F0CCFA844B9B8849F241323C
:10455000934200F0058146F60402934200F0268261
:1045600045F21032934200F0CD8245F21052934250
:1045700001F0418249F22532934202F0BA8149F2B8
:104580002832934202F08C8249F22032934202F0A8
:104590007B8349F23132934202F0238445F2084290
:1045A000934202F0018541F20552934202F09F8549
:1045B0004BF20552934202F0AE864CF20552934202
:1045C00002F0AC8744F23152934203F0778044F218
:1045D0003552934203F02D8141F66312934240F02D
:1045E000D681E220FFF7CEF91D20FFF7DBF902208C
:1045F000FFF7D8F90420FFF7D5F90120FCF768FF91
:10460000E020FFF7BFF90120FFF7CCF90A20FCF703
:104610005FFFE020FFF7B6F90320FFF7C3F90C2096
:10462000FCF756FF0120FFF7ADF90A20FCF750FF19
:10463000E620FFF7A7F92F20FFF7B4F9FF20FFF7D7
:10464000B1F9FF20FFF7AEF9B020FFF79BF920206A
:10465000FFF7A8F90020FFF7A5F90320FFF7A2F95B
:1046600040F21F30FFF79EF90120FFF79BF940F25F
:10467000DF10FFF797F90020FFF794F9B420FFF758
:1046800081F90420FFF78EF940F21F40FFF78AF905
:104690000020FFF787F92E20FFF784F91D20FFF790
:1046A00081F90020FFF77EF90020FFF77BF9002059
:1046B000FFF778F9B620FFF765F90220FFF772F9E6
:1046C0004FF40370FFF76EF90020FFF76BF9172026
:1046D000FFF768F91520FFF765F90020FFF762F989
:1046E0000020FFF75FF9F020FFF74CF90320FFF7F8
:1046F00059F92920FFF746F9D020FFF743F90020A8
:10470000FFF750F9BE20FFF73DF90520FFF74AF902
:10471000FE20FFF747F90120FFF744F90020FFF7DB
:1047200041F90020FFF73EF90020FFF73BF9B820E0
:10473000FFF728F90320FFF735F90120FFF732F9D9
:10474000BA20FFF71FF90120FFF72CF96420FFF7CB
:10475000EBFC1CE1040100A0480A02084C9F012068
:10476000CF20FFF70FF90020FFF71CF9019B013361
:104770000193C120FFF716F93020FFF713F9ED2060
:10478000FFF700F96420FFF70DF90320FFF70AF99E
:104790001220FFF707F98120FFF704F9E820FFF75F
:1047A000F1F88520FFF7FEF81020FFF7FBF87A20DC
:1047B000FFF7F8F8CB20FFF7E5F83920FFF7F2F81C
:1047C0002C20FFF7EFF80020FFF7ECF83420FFF77C
:1047D000E9F80220FFF7E6F8F720FFF7D3F82020EA
:1047E000FFF7E0F8EA20FFF7CDF80020FFF7DAF84E
:1047F0000020FFF7D7F8C020FFF7C4F81B20FFF711
:10480000D1F8C120FFF7BEF80120FFF7CBF8C52093
:10481000FFF7B8F83020FFF7C5F83020FFF7C2F8EF
:10482000C720FFF7AFF8B720FFF7BCF83620FFF737
:10483000A9F84820FFF7B6F83A20FFF7A3F855206B
:10484000FFF7B0F8B120FFF79DF80020FFF7AAF8B6
:104850001A20FFF7A7F8B620FFF794F80A20FFF711
:10486000A1F8A220FFF79EF8F220FFF78BF80020B6
:10487000FFF798F82620FFF785F80120FFF792F858
:10488000E020FFF77FF80F20FFF78CF82A20FFF7D2
:1048900089F82820FFF786F80820FFF783F80E2014
:1048A000FFF780F80820FFF77DF85420FFF77AF82B
:1048B000A920FFF777F84320FFF774F80A20FFF7E5
:1048C00071F80F20FFF76EF80020FFF76BF800205B
:1048D000FFF768F80020FFF765F80020FFF762F89F
:1048E000E120FFF74FF80020FFF75CF81520FFF7F5
:1048F00059F81720FFF756F80720FFF753F8112053
:10490000FFF750F80620FFF74DF82B20FFF74AF885
:104910005620FFF747F83C20FFF744F80520FFF743
:1049200041F81020FFF73EF80F20FFF73BF83F203B
:10493000FFF738F83F20FFF735F80F20FFF732F880
:104940002B20FFF71FF80020FFF72CF80020FFF7BF
:1049500029F80120FFF726F83F20FFF723F82A2047
:10496000FFF710F80020FFF71DF80020FFF71AF8F6
:104970000020FFF717F8EF20FFF714F81120FFF7DA
:1049800001F87820FCF7A4FD2920FEF7FBFF0020AA
:10499000FFF7F2FB01224FF400415948FCF713FFE7
:1049A0004FF6FF70FFF7AEFC02B010BD1120FEF70E
:1049B000E9FF1420FCF78CFDD020FEF7E3FF072071
:1049C000FEF7F0FF4220FEF7EDFF1D20FEF7EAFFA5
:1049D000D120FEF7D7FF0020FEF7E4FF1A20FEF7F4
:1049E000E1FF0920FEF7DEFFD220FEF7CBFF01201A
:1049F000FEF7D8FF2220FEF7D5FFC020FEF7C2FF4A
:104A00001020FEF7CFFF3B20FEF7CCFF0020FEF783
:104A1000C9FF0220FEF7C6FF1120FEF7C3FFC52025
:104A2000FEF7B0FF0320FEF7BDFFC820FEF7AAFF88
:104A30000020FEF7B7FF2520FEF7B4FF2120FEF788
:104A4000B1FF0520FEF7AEFF0020FEF7ABFF0A2006
:104A5000FEF7A8FF6520FEF7A5FF2520FEF7A2FFC1
:104A60007720FEF79FFF5020FEF79CFF0F20FEF7F8
:104A700099FF0020FEF796FFF820FEF783FF012044
:104A8000FEF790FFFE20FEF77DFF0020FEF78AFF75
:104A90000220FEF787FF2020FEF774FF3620FEF786
:104AA00071FF0820FEF77EFF3A20FEF76BFF5520CE
:104AB000FEF778FF2B20FEF765FF0020FEF772FF60
:104AC0000020FEF76FFF0120FEF76CFF3F20FEF78E
:104AD00069FF2A20FEF756FF0020FEF763FF002043
:104AE000FEF760FF0120FEF75DFFDF20FEF75AFFB3
:104AF0007820FCF7EDFC2920FEF744FF47E700BFD4
:104B000000040240ED20FEF73DFF0120FEF74AFFC2
:104B1000FE20FEF747FFEE20FEF734FFDE20FEF713
:104B200041FF2120FEF73EFFF120FEF72BFF012081
:104B3000FEF738FFDF20FEF725FF1020FEF732FFDB
:104B4000C420FEF71FFF8F20FEF72CFFC620FEF7C4
:104B500019FF0020FEF726FFE220FEF723FFE220E8
:104B6000FEF720FFE220FEF71DFFBF20FEF70AFF41
:104B7000AA20FEF717FFB020FEF704FF0D20FEF776
:104B800011FF0020FEF70EFF0D20FEF70BFF0020A7
:104B9000FEF708FF1120FEF705FF0020FEF702FFD9
:104BA0001920FEF7FFFE0020FEF7FCFE2120FEF795
:104BB000F9FE0020FEF7F6FE2D20FEF7F3FE0020A2
:104BC000FEF7F0FE3D20FEF7EDFE0020FEF7EAFEC8
:104BD0005D20FEF7E7FE0020FEF7E4FE5D20FEF715
:104BE000E1FE0020FEF7DEFEB120FEF7CBFE8020C6
:104BF000FEF7D8FE0020FEF7D5FE8B20FEF7D2FE92
:104C00000020FEF7CFFE9620FEF7CCFE0020FEF738
:104C1000C9FEB220FEF7B6FE0020FEF7C3FE00205C
:104C2000FEF7C0FE0220FEF7BDFE0020FEF7BAFE32
:104C30000320FEF7B7FE0020FEF7B4FEB320FEF718
:104C4000A1FE0020FEF7AEFE0020FEF7ABFE002026
:104C5000FEF7A8FE0020FEF7A5FE0020FEF7A2FE4C
:104C60000020FEF79FFE0020FEF79CFE0020FEF7CE
:104C700099FE0020FEF796FE0020FEF793FE00202E
:104C8000FEF790FE0020FEF78DFE0020FEF78AFE64
:104C90000020FEF787FE0020FEF784FE0020FEF7CE
:104CA00081FE0020FEF77EFE0020FEF77BFE002046
:104CB000FEF778FE0020FEF775FE0020FEF772FE7C
:104CC0000020FEF76FFE0020FEF76CFE0020FEF7CE
:104CD00069FEB420FEF756FE8B20FEF763FE00202F
:104CE000FEF760FE9620FEF75DFE0020FEF75AFEFE
:104CF000A120FEF757FE0020FEF754FEB520FEF778
:104D000041FE0220FEF74EFE0020FEF74BFE032080
:104D1000FEF748FE0020FEF745FE0420FEF742FEA7
:104D20000020FEF73FFEB620FEF72CFE0020FEF727
:104D300039FE0020FEF736FEB720FEF723FE0020E6
:104D4000FEF730FE0020FEF72DFE3F20FEF72AFE84
:104D50000020FEF727FE5E20FEF724FE0020FEF76F
:104D600021FE6420FEF71EFE0020FEF71BFE8C20B5
:104D7000FEF718FE0020FEF715FEAC20FEF712FE2F
:104D80000020FEF70FFEDC20FEF70CFE0020FEF7F1
:104D900009FE7020FEF706FE0020FEF703FE9020BD
:104DA000FEF700FE0020FEF7FDFDEB20FEF7FAFD0A
:104DB0000020FEF7F7FDDC20FEF7F4FD0020FEF7F3
:104DC000F1FDB820FEF7DEFD0020FEF7EBFD002030
:104DD000FEF7E8FD0020FEF7E5FD0020FEF7E2FD0E
:104DE0000020FEF7DFFD0020FEF7DCFD0020FEF7CF
:104DF000D9FD0020FEF7D6FDBA20FEF7C3FD242022
:104E0000FEF7D0FD0020FEF7CDFD0020FEF7CAFD25
:104E10000020FEF7C7FDC120FEF7B4FD2020FEF7FD
:104E2000C1FD0020FEF7BEFD5420FEF7BBFD0020B3
:104E3000FEF7B8FDFF20FEF7B5FD0020FEF7B2FD3E
:104E4000C220FEF79FFD0A20FEF7ACFD0020FEF712
:104E5000A9FD0420FEF7A6FD0020FEF7A3FDC32058
:104E6000FEF790FD3C20FEF79DFD0020FEF79AFD29
:104E70003A20FEF797FD0020FEF794FD3920FEF75B
:104E800091FD0020FEF78EFD3720FEF78BFD002000
:104E9000FEF788FD3C20FEF785FD0020FEF782FD31
:104EA0003620FEF77FFD0020FEF77CFD3220FEF766
:104EB00079FD0020FEF776FD2F20FEF773FD002020
:104EC000FEF770FD2C20FEF76DFD0020FEF76AFD59
:104ED0002920FEF767FD0020FEF764FD2620FEF77F
:104EE00061FD0020FEF75EFD2420FEF75BFD002043
:104EF000FEF758FD2420FEF755FD0020FEF752FD79
:104F00002320FEF74FFD0020FEF74CFD3C20FEF76E
:104F100049FD0020FEF746FD3620FEF743FD002048
:104F2000FEF740FD3220FEF73DFD0020FEF73AFD82
:104F30002F20FEF737FD0020FEF734FD2C20FEF772
:104F400031FD0020FEF72EFD2920FEF72BFD00206D
:104F5000FEF728FD2620FEF725FD0020FEF722FDA6
:104F60002420FEF71FFD0020FEF71CFD2420FEF785
:104F700019FD0020FEF716FD2320FEF713FD00208B
:104F8000FEF710FDC420FEF7FDFC6220FEF70AFDCF
:104F90000020FEF707FD0520FEF704FD0020FEF7C8
:104FA00001FD8420FEF7FEFC0020FEF7FBFCF02054
:104FB000FEF7F8FC0020FEF7F5FC1820FEF7F2FCE7
:104FC0000020FEF7EFFCA420FEF7ECFC0020FEF72B
:104FD000E9FC1820FEF7E6FC0020FEF7E3FC502079
:104FE000FEF7E0FC0020FEF7DDFC0C20FEF7DAFC0B
:104FF0000020FEF7D7FC1720FEF7D4FC0020FEF7B8
:10500000D1FC9520FEF7CEFC0020FEF7CBFCF32070
:10501000FEF7C8FC0020FEF7C5FCE620FEF7C2FC48
:105020000020FEF7BFFCC520FEF7ACFC3220FEF7E7
:10503000B9FC0020FEF7B6FC4420FEF7B3FC0020CC
:10504000FEF7B0FC6520FEF7ADFC0020FEF7AAFCE1
:105050007620FEF7A7FC0020FEF7A4FC8820FEF7D0
:10506000A1FC0020FEF79EFCC620FEF78BFC202052
:10507000FEF798FC0020FEF795FC1720FEF792FC47
:105080000020FEF78FFC0120FEF78CFC0020FEF7CD
:1050900089FCC720FEF776FC0020FEF783FC002089
:1050A000FEF780FC0020FEF77DFC0020FEF77AFC76
:1050B000C820FEF767FC0020FEF774FC0020FEF716
:1050C00071FC0020FEF76EFC0020FEF76BFCC9208F
:1050D000FEF758FC0020FEF765FC0020FEF762FC9E
:1050E0000020FEF75FFC0020FEF75CFC0020FEF7CE
:1050F00059FC0020FEF756FC0020FEF753FC002070
:10510000FEF750FC0020FEF74DFC0020FEF74AFCA5
:105110000020FEF747FC0020FEF744FC0020FEF7CD
:1051200041FC0020FEF73EFC0020FEF73BFC002087
:10513000FEF738FCE020FEF725FC1620FEF732FCD7
:105140000020FEF72FFC1C20FEF72CFC0020FEF7B1
:1051500029FC2120FEF726FC0020FEF723FC362048
:10516000FEF720FC0020FEF71DFC4620FEF71AFC8F
:105170000020FEF717FC5220FEF714FC0020FEF77B
:1051800011FC6420FEF70EFC0020FEF70BFC7A20D9
:10519000FEF708FC0020FEF705FC8B20FEF702FC62
:1051A0000020FEF7FFFB9920FEF7FCFB0020FEF736
:1051B000F9FBA820FEF7F6FB0020FEF7F3FBB92071
:1051C000FEF7F0FB0020FEF7EDFBC420FEF7EAFB44
:1051D0000020FEF7E7FBCA20FEF7E4FB0020FEF705
:1051E000E1FBD220FEF7DEFB0020FEF7DBFBD9203F
:1051F000FEF7D8FB0020FEF7D5FBE020FEF7D2FB40
:105200000020FEF7CFFBF320FEF7CCFB0020FEF7DB
:10521000C9FBE120FEF7B6FB1620FEF7C3FB00201A
:10522000FEF7C0FB1C20FEF7BDFB0020FEF7BAFB1B
:105230002220FEF7B7FB0020FEF7B4FB3620FEF776
:10524000B1FB0020FEF7AEFB4520FEF7ABFB0020D4
:10525000FEF7A8FB5220FEF7A5FB0020FEF7A2FBFD
:105260006420FEF79FFB0020FEF79CFB7A20FEF7F0
:1052700099FB0020FEF796FB8B20FEF793FB0020A6
:10528000FEF790FB9920FEF78DFB0020FEF78AFBCE
:10529000A820FEF787FB0020FEF784FBB920FEF76D
:1052A00081FB0020FEF77EFBC420FEF77BFB002085
:1052B000FEF778FBCA20FEF775FB0020FEF772FBB5
:1052C000D220FEF76FFB0020FEF76CFBD820FEF724
:1052D00069FB0020FEF766FBE020FEF763FB002081
:1052E000FEF760FBF320FEF75DFB0020FEF75AFBA4
:1052F000E220FEF747FB0520FEF754FB0020FEF7F7
:1053000051FB0B20FEF74EFB0020FEF74BFB1B2052
:10531000FEF748FB0020FEF745FB3420FEF742FB7A
:105320000020FEF73FFB4420FEF73CFB0020FEF789
:1053300039FB4F20FEF736FB0020FEF733FB6120E0
:10534000FEF730FB0020FEF72DFB7920FEF72AFB4D
:105350000020FEF727FB8820FEF724FB0020FEF745
:1053600021FB9720FEF71EFB0020FEF71BFBA6206B
:10537000FEF718FB0020FEF715FBB720FEF712FB27
:105380000020FEF70FFBC220FEF70CFB0020FEF70B
:1053900009FBC720FEF706FB0020FEF703FBD12028
:1053A000FEF700FB0020FEF7FDFAD620FEF7FAFA22
:1053B0000020FEF7F7FADD20FEF7F4FA0020FEF7F2
:1053C000F1FAF320FEF7EEFA0020FEF7EBFAE32005
:1053D000FEF7D8FA0520FEF7E5FA0020FEF7E2FA1C
:1053E0000A20FEF7DFFA0020FEF7DCFA1C20FEF7A9
:1053F000D9FA0020FEF7D6FA3320FEF7D3FA0020C0
:10540000FEF7D0FA4420FEF7CDFA0020FEF7CAFAE4
:105410005020FEF7C7FA0020FEF7C4FA6220FEF71C
:10542000C1FA0020FEF7BEFA7820FEF7BBFA002092
:10543000FEF7B8FA8820FEF7B5FA0020FEF7B2FAB8
:105440009720FEF7AFFA0020FEF7ACFAA620FEF791
:10545000A9FA0020FEF7A6FAB720FEF7A3FA00206B
:10546000FEF7A0FAC220FEF79DFA0020FEF79AFA96
:10547000C720FEF797FA0020FEF794FAD120FEF736
:1054800091FA0020FEF78EFAD520FEF78BFA002065
:10549000FEF788FADD20FEF785FA0020FEF782FA93
:1054A000F320FEF77FFA0020FEF77CFAE420FEF7F7
:1054B00069FA0120FEF776FA0020FEF773FA012060
:1054C000FEF770FA0020FEF76DFA0220FEF76AFA86
:1054D0000020FEF767FA2A20FEF764FA0020FEF7A4
:1054E00061FA3C20FEF75EFA0020FEF75BFA4B20E3
:1054F000FEF758FA0020FEF755FA5D20FEF752FA43
:105500000020FEF74FFA7420FEF74CFA0020FEF759
:1055100049FA8420FEF746FA0020FEF743FA93206A
:10552000FEF740FA0020FEF73DFAA220FEF73AFA15
:105530000020FEF737FAB320FEF734FA0020FEF71A
:1055400031FABE20FEF72EFA0020FEF72BFAC42017
:10555000FEF728FA0020FEF725FACD20FEF722FA02
:105560000020FEF71FFAD320FEF71CFA0020FEF7FA
:1055700019FADD20FEF716FA0020FEF713FAF320E1
:10558000FEF710FA0020FEF70DFAE520FEF7FAF913
:105590000020FEF707FA0020FEF704FA0020FEF7CD
:1055A00001FA0020FEF7FEF90220FEF7FBF90020C9
:1055B000FEF7F8F92920FEF7F5F90020FEF7F2F9D9
:1055C0003C20FEF7EFF90020FEF7ECF94B20FEF748
:1055D000E9F90020FEF7E6F95D20FEF7E3F9002087
:1055E000FEF7E0F97420FEF7DDF90020FEF7DAF9A6
:1055F0008420FEF7D7F90020FEF7D4F99320FEF7B8
:10560000D1F90020FEF7CEF9A220FEF7CBF9002059
:10561000FEF7C8F9B320FEF7C5F90020FEF7C2F97E
:10562000BE20FEF7BFF90020FEF7BCF9C420FEF74C
:10563000B9F90020FEF7B6F9CD20FEF7B3F9002046
:10564000FEF7B0F9D320FEF7ADF90020FEF7AAF976
:10565000DC20FEF7A7F90020FEF7A4F9F320FEF7FF
:10566000A1F90020FEF79EF9E620FEF78BF9112044
:10567000FEF798F90020FEF795F93420FEF792F92D
:105680000020FEF78FF95620FEF78CF90020FEF778
:1056900089F97620FEF786F90020FEF783F9772056
:1056A000FEF780F90020FEF77DF96620FEF77AF913
:1056B0000020FEF777F98820FEF774F90020FEF746
:1056C00071F99920FEF76EF90020FEF76BF9BB2007
:1056D000FEF768F90020FEF765F99920FEF762F9F8
:1056E0000020FEF75FF96620FEF75CF90020FEF768
:1056F00059F95520FEF756F90020FEF753F95520C9
:10570000FEF750F90020FEF74DF94520FEF74AF963
:105710000020FEF747F94320FEF744F90020FEF78A
:1057200041F94420FEF73EF90020FEF73BF9E7205F
:10573000FEF728F93220FEF735F90020FEF732F99E
:105740005520FEF72FF90020FEF72CF97620FEF702
:1057500029F90020FEF726F96620FEF723F900203C
:10576000FEF720F96720FEF71DF90020FEF71AF971
:105770006720FEF717F90020FEF714F98720FEF7DF
:1057800011F90020FEF70EF99920FEF70BF9002021
:10579000FEF708F9BB20FEF705F90020FEF702F935
:1057A0009920FEF7FFF80020FEF7FCF87720FEF7BF
:1057B000F9F80020FEF7F6F84420FEF7F3F8002091
:1057C000FEF7F0F85620FEF7EDF80020FEF7EAF8B5
:1057D0002320FEF7E7F80020FEF7E4F83320FEF779
:1057E000E1F80020FEF7DEF84520FEF7DBF80020A8
:1057F000FEF7D8F8E820FEF7C5F80020FEF7D2F84B
:105800000020FEF7CFF89920FEF7CCF80020FEF735
:10581000C9F88720FEF7C6F80020FEF7C3F88820F5
:10582000FEF7C0F80020FEF7BDF87720FEF7BAF8C3
:105830000020FEF7B7F86620FEF7B4F80020FEF768
:10584000B1F88820FEF7AEF80020FEF7ABF8AA20EA
:10585000FEF7A8F80020FEF7A5F8BB20FEF7A2F897
:105860000020FEF79FF89920FEF79CF80020FEF735
:1058700099F86620FEF796F80020FEF793F8552079
:10588000FEF790F80020FEF78DF85520FEF78AF815
:105890000020FEF787F84420FEF784F80020FEF78A
:1058A00081F84420FEF77EF80020FEF77BF85520B3
:1058B000FEF778F80020FEF775F8E920FEF762F8A9
:1058C000AA20FEF76FF80020FEF76CF80020FEF724
:1058D00069F80020FEF766F80020FEF753F8AA20CA
:1058E000FEF760F8CF20FEF74DF80020FEF75AF8DB
:1058F0000020FEF757F80020FEF754F80020FEF7CE
:1059000051F80020FEF74EF80020FEF74BF800207B
:10591000FEF748F80020FEF745F80020FEF742F8B1
:105920000020FEF73FF80020FEF73CF80020FEF7CD
:1059300039F80020FEF736F80020FEF733F8002093
:10594000FEF730F80020FEF72DF80020FEF72AF8C9
:10595000F020FEF717F80020FEF724F85020FEF79D
:1059600021F80020FEF71EF80020FEF71BF80020AB
:10597000FEF718F8F320FEF705F80020FEF712F8FE
:10598000F920FDF7FFFF0620FEF70CF81020FEF7C8
:1059900009F82920FEF706F80020FEF703F83A2060
:1059A000FDF7F0FF5520FDF7FDFF1120FDF7EAFFA1
:1059B0006420FBF78DFD2920FDF7E4FF3520FDF77E
:1059C000E1FF0020FDF7EEFF5120FDF7DBFFFF2098
:1059D000FDF7E8FF5320FDF7D5FF2C20FDF7E2FF90
:1059E0005520FDF7CFFF8220FDF7DCFF2C20FDF7CF
:1059F000C9FFFEF7CCBF55214FF47040FDF7EEFF15
:105A0000AA214FF20100FDF7E9FF52214FF20200F7
:105A1000FDF7E4FF08214FF20300FDF7DFFF01214E
:105A20004FF20400FDF7DAFF0D214FF43040FDF78F
:105A3000D5FF0D214BF20100FDF7D0FF0D214BF2F8
:105A40000200FDF7CBFF34214FF43640FDF7C6FFCF
:105A500034214BF20160FDF7C1FF34214BF20260AB
:105A6000FDF7BCFF0D214FF43140FDF7B7FF0D21CD
:105A70004BF20110FDF7B2FF0D214BF20210FDF7C2
:105A8000ADFF34214FF43740FDF7A8FF34214BF22E
:105A90000170FDF7A3FF34214BF20270FDF79EFF6A
:105AA00000214FF43240FDF799FF00214BF2012015
:105AB000FDF794FF00214BF20220FDF78FFF242118
:105AC0004FF43840FDF78AFF24214BF60100FDF723
:105AD00085FF24214BF60200FDF780FF01214FF4E2
:105AE0003F40FDF77BFF0F214FF43340FDF776FF7A
:105AF0000F214BF20130FDF771FF0F214BF2023005
:105B0000FDF76CFF34214FF43940FDF767FF342176
