:020000040800F2
:1000000000000220094A0008BD140008BF140008BF
:10001000C1140008C3140008C51400080000000043
:100020000000000000000000000000005130000847
:10003000C714000800000000F13000085531000826
:10004000594A0008594A0008594A0008594A000804
:10005000594A0008594A0008594A0008594A0008F4
:10006000594A0008594A0008594A0008594A0008E4
:10007000594A0008594A0008594A0008594A0008D4
:10008000C9140008594A0008594A0008594A00088A
:10009000594A0008594A0008594A0008594A0008B4
:1000A000594A0008594A0008594A0008594A0008A4
:1000B000594A0008594A0008594A0008594A000894
:1000C000594A0008594A0008594A0008594A000884
:1000D000594A0008594A0008594A0008594A000874
:1000E000594A0008594A0008594A0008594A000864
:1000F000594A0008D9140008594A0008594A00080A
:10010000594A0008594A0008594A0008594A000843
:10011000594A0008594A0008594A0008594A000833
:10012000594A0008594A0008594A0008594A000823
:10013000594A0008594A0008594A0008594A000813
:10014000594A0008594A0008594A0008594A000803
:10015000594A0008594A0008594A0008594A0008F3
:10016000594A0008594A0008594A0008594A0008E3
:10017000594A0008594A0008594A0008000000007E
:08018000594A0008594A000821
:1001900010B5054C237833B9044B13B10448AFF3C1
:1001A00000800123237010BD3C04002000000000EB
:1001B000D45F000808B5034B1BB103490348AFF3F4
:1001C000008008BD0000000040040020D45F00084B
:1001D00081F0004102E000BF83F0004330B54FEAF8
:1001E00041044FEA430594EA050F08BF90EA020F65
:1001F0001FBF54EA000C55EA020C7FEA645C7FEAF8
:10020000655C00F0E2804FEA5454D4EB5555B8BF1A
:100210006D420CDD2C4480EA020281EA030382EA8B
:10022000000083EA010180EA020281EA0303362D1D
:1002300088BF30BD11F0004F4FEA01314FF4801CF0
:100240004CEA113102D0404261EB410113F0004F02
:100250004FEA03334CEA133302D0524263EB4303B9
:1002600094EA050F00F0A780A4F10104D5F1200E57
:100270000DDB02FA0EFC22FA05F2801841F10001B2
:1002800003FA0EF2801843FA05F359410EE0A5F186
:1002900020050EF1200E012A03FA0EFC28BF4CF0B7
:1002A000020C43FA05F3C01851EBE37101F000456D
:1002B00007D54FF0000EDCF1000C7EEB00006EEB7A
:1002C0000101B1F5801F1BD3B1F5001F0CD3490804
:1002D0005FEA30004FEA3C0C04F101044FEA44525B
:1002E00012F5800F80F09A80BCF1004F08BF5FEAE2
:1002F000500C50F1000041EB045141EA050130BDC2
:100300005FEA4C0C404141EB0101013C28BFB1F5D3
:10031000801FE9D291F0000F04BF01460020B1FA1E
:1003200081F308BF2033A3F10B03B3F120020CDAF1
:100330000C3208DD02F1140CC2F10C0201FA0CF0CF
:1003400021FA02F10CE002F11402D8BFC2F1200C34
:1003500001FA02F120FA0CFCDCBF41EA0C019040EA
:10036000E41AA2BF01EB0451294330BD6FEA040433
:100370001F3C1CDA0C340EDC04F11404C4F120021E
:1003800020FA04F001FA02F340EA030021FA04F330
:1003900045EA030130BDC4F10C04C4F1200220FA87
:1003A00002F001FA04F340EA0300294630BD21FAC5
:1003B00004F0294630BD94F0000F83F4801306BF8B
:1003C00081F480110134013D4EE77FEA645C18BF7F
:1003D0007FEA655C29D094EA050F08BF90EA020F16
:1003E00005D054EA000C04BF1946104630BD91EA0E
:1003F000030F1EBF0021002030BD5FEA545C05D111
:100400004000494128BF41F0004130BD14F580044F
:100410003CBF01F5801130BD01F0004545F0FE41C3
:1004200041F470014FF0000030BD7FEA645C1ABFF8
:10043000194610467FEA655C1CBF0B46024650EA2F
:10044000013406BF52EA033591EA030F41F400215B
:1004500030BD00BF90F0000F04BF0021704730B5E1
:100460004FF4806404F132044FF000054FF00001B6
:1004700050E700BF90F0000F04BF0021704730B577
:100480004FF4806404F1320410F0004548BF40424C
:100490004FF000013EE700BF42004FEAE2014FEAA1
:1004A00031014FEA02701FBF12F07F4393F07F4F7C
:1004B00081F06051704732F07F4208BF704793F07F
:1004C0007F4F04BF41F40021704730B54FF4607492
:1004D00001F0004521F000411CE700BF50EA010295
:1004E00008BF704730B54FF000050AE050EA01023E
:1004F00008BF704730B511F0004502D5404261EBAE
:1005000041014FF4806404F132045FEA915C3FF4EE
:10051000D8AE4FF003025FEADC0C18BF03325FEA8B
:10052000DC0C18BF033202EBDC02C2F1200300FA3C
:1005300003FC20FA02F001FA03FE40EA0E0021FA61
:1005400002F11444BDE600BF70B54FF0FF0C4CF44F
:10055000E06C1CEA11541DBF1CEA135594EA0C0F01
:1005600095EA0C0F00F0DEF82C4481EA030621EA3C
:100570004C5123EA4C5350EA013518BF52EA033577
:1005800041F4801143F4801338D0A0FB02CE4FF029
:100590000005E1FB02E506F00042E0FB03E54FF059
:1005A0000006E1FB03569CF0000F18BF4EF0010E51
:1005B000A4F1FF04B6F5007F64F5407404D25FEA4D
:1005C0004E0E6D4146EB060642EAC62141EA555100
:1005D0004FEAC52040EA5E504FEACE2EB4F1FD0C42
:1005E00088BFBCF5E06F1ED8BEF1004F08BF5FEAC0
:1005F000500E50F1000041EB045170BD06F0004672
:1006000046EA010140EA020081EA0301B4EB5C041E
:10061000C2BFD4EB0C0541EA045170BD41F4801116
:100620004FF0000E013C00F3AB8014F1360FDEBF3B
:10063000002001F0004170BDC4F10004203C35DA17
:100640000C341BDC04F11404C4F1200500FA05F39A
:1006500020FA04F001FA05F240EA020001F000423B
:1006600021F0004110EBD37021FA04F642EB0601B1
:100670005EEA430E08BF20EAD37070BDC4F10C04DB
:10068000C4F1200500FA04F320FA05F001FA04F29F
:1006900040EA020001F0004110EBD37041F100018B
:1006A0005EEA430E08BF20EAD37070BDC4F1200596
:1006B00000FA05F24EEA020E20FA04F301FA05F2FE
:1006C00043EA020321FA04F001F0004121FA04F2A6
:1006D00020EA020000EBD3705EEA430E08BF20EA76
:1006E000D37070BD94F0000F0FD101F000464000B0
:1006F00041EB010111F4801F08BF013CF7D041EA32
:10070000060195F0000F18BF704703F00046520035
:1007100043EB030313F4801F08BF013DF7D043EA06
:100720000603704794EA0C0F0CEA135518BF95EABC
:100730000C0F0CD050EA410618BF52EA4306D1D143
:1007400081EA030101F000414FF0000070BD50EA62
:10075000410606BF1046194652EA430619D094EAEC
:100760000C0F02D150EA013613D195EA0C0F05D1D6
:1007700052EA03361CBF104619460AD181EA03012A
:1007800001F0004141F0FE4141F470014FF00000E2
:1007900070BD41F0FE4141F4780170BD70B54FF07D
:1007A000FF0C4CF4E06C1CEA11541DBF1CEA1355FD
:1007B00094EA0C0F95EA0C0F00F0A7F8A4EB0504DF
:1007C00081EA030E52EA03354FEA013100F08880D6
:1007D0004FEA03334FF0805545EA131343EA12639F
:1007E0004FEA022245EA111545EA10654FEA002654
:1007F0000EF000419D4208BF964244F1FD0404F50D
:10080000407402D25B084FEA3202B61A65EB030568
:100810005B084FEA32024FF480104FF4002CB6EB25
:10082000020E75EB030E22BFB61A754640EA0C00A5
:100830005B084FEA3202B6EB020E75EB030E22BFE5
:10084000B61A754640EA5C005B084FEA3202B6EB26
:10085000020E75EB030E22BFB61A754640EA9C00E5
:100860005B084FEA3202B6EB020E75EB030E22BFB5
:10087000B61A754640EADC0055EA060E18D04FEA73
:10088000051545EA16754FEA06164FEAC30343EA13
:1008900052734FEAC2025FEA1C1CC0D111F4801FE0
:1008A0000BD141EA00014FF000004FF0004CB6E7D9
:1008B00011F4801F04BF01430020B4F1FD0C88BF78
:1008C000BCF5E06F3FF6AFAEB5EB030C04BFB6EB83
:1008D000020C5FEA500C50F1000041EB045170BD76
:1008E0000EF0004E4EEA113114EB5C04C2BFD4EBA3
:1008F0000C0541EA045170BD41F480114FF0000E27
:10090000013C90E645EA060E8DE60CEA135594EAA2
:100910000C0F08BF95EA0C0F3FF43BAF94EA0C0FA5
:100920000AD150EA01347FF434AF95EA0C0F7FF41A
:1009300025AF104619462CE795EA0C0F06D152EA6E
:1009400003353FF4FDAE1046194622E750EA410652
:1009500018BF52EA43067FF4C5AE50EA41047FF463
:100960000DAF52EA43057FF4EBAE12E74A0011D215
:1009700012F5001211D20DD56FF47873B3EB6252F9
:100980000ED44FEAC12343F0004343EA505323FA05
:1009900002F070474FF00000704750EA013002D17A
:1009A0004FF0FF3070474FF00000704753B94AB91D
:1009B000002908BF00281CBF4FF0FF314FF0FF3067
:1009C00000F06EB9ADF1080C6DE904CE00F006F848
:1009D000DDF804E0DDE9022304B070472DE9F047BB
:1009E000089D04468C46002B40F083808A421746BF
:1009F00047D9B2FA82F242B1C2F1200024FA00F0E3
:100A00009140974040EA010C94404FEA1748230C6C
:100A1000BCFBF8F61FFA87FE08FB16C143EA014348
:100A200006FB0EF1994209D9FB1806F1FF3080F060
:100A30001981994240F21681023E3B445B1AA4B2EE
:100A4000B3FBF8F008FB103344EA034400FB0EFE4E
:100A5000A64509D93C1900F1FF3380F00581A64570
:100A600040F2028102383C4440EA0640A4EB0E0406
:100A700000261DB1D4400023C5E900433146BDE83E
:100A8000F08702B9FFDEB2FA82F2002A50D1CB1B06
:100A90004FEA174E1FFA87F80126B3FBFEFC210C24
:100AA0000EFB1C3341EA034108FB0CF38B4207D9D0
:100AB00079180CF1FF3002D28B4200F2E9808446B3
:100AC000C91AA3B2B1FBFEF00EFB101143EA0144B8
:100AD00008FB00F8A04507D93C1900F1FF3302D20A
:100AE000A04500F2D9801846A4EB080440EA0C4067
:100AF000BFE78B4209D9002D00F0B1800026C5E97F
:100B0000000130463146BDE8F087B3FA83F6002E87
:100B10004AD18B4202D3824200F2B880841A61EB40
:100B2000030101208C46002DA8D0C5E9004CA5E7A3
:100B3000C2F1200320FA03F6974001FA02F04FEACF
:100B4000174ED9403043030CB1FBFEF61FFA87F86D
:100B50000EFB161143EA014306FB08F1994204FA21
:100B600002F409D9FB1806F1FF3C80F08D80994210
:100B700040F28A80023E3B445B1A81B2B3FBFEF036
:100B80000EFB103341EA034100FB08F38B4207D907
:100B9000791800F1FF3C73D28B4271D90238394485
:100BA000CB1A40EA064678E7C6F1200C03FA06F4B1
:100BB00022FA0CF31C4320FA0CF701FA06F34FEA71
:100BC000144E21FA0CF11F433B0CB1FBFEF91FFA46
:100BD00084F80EFB191143EA014109FB08FA8A4522
:100BE00002FA06F200FA06F308D9611809F1FF309B
:100BF00048D28A4546D9A9F102092144A1EB0A014C
:100C0000BFB2B1FBFEF00EFB101147EA014700FB3B
:100C100008F8B84507D9E71900F1FF312ED2B845D9
:100C20002CD90238274440EA0940A7EB0807A0FB6B
:100C300002894F45C64649461AD317D05DB1B3EB7A
:100C40000E0267EB010707FA0CFCF2404CEA0202C5
:100C5000F740C5E9002700263146BDE8F0872E465B
:100C600028460BE70646E9E61846FDE64345E5D289
:100C7000B8EB020E69EB04010138DFE70846D2E762
:100C800060468DE78146B9E7664675E730464AE734
:100C9000ACF1020C394413E702383C4424E700BFAE
:100CA000704700BF844641EA000313F003036DD18F
:100CB000403A41D351F8043B40F8043B51F8043B1F
:100CC00040F8043B51F8043B40F8043B51F8043B26
:100CD00040F8043B51F8043B40F8043B51F8043B16
:100CE00040F8043B51F8043B40F8043B51F8043B06
:100CF00040F8043B51F8043B40F8043B51F8043BF6
:100D000040F8043B51F8043B40F8043B51F8043BE5
:100D100040F8043B51F8043B40F8043B51F8043BD5
:100D200040F8043B51F8043B40F8043B51F8043BC5
:100D300040F8043B403ABDD2303211D351F8043B65
:100D400040F8043B51F8043B40F8043B51F8043BA5
:100D500040F8043B51F8043B40F8043B103AEDD214
:100D60000C3205D351F8043B40F8043B043AF9D265
:100D7000043208D0D2071CBF11F8013B00F8013B38
:100D800001D30B8803806046704700BF082A13D345
:100D90008B078DD010F003038AD0C3F10403D21A5D
:100DA000DB071CBF11F8013B00F8013B80D331F891
:100DB000023B20F8023B7BE7043AD9D3013A11F811
:100DC000013B00F8013BF9D20B7803704B7843707C
:100DD0008B788370604670474FF0FF3C06E000BFA1
:100DE0004FF0010C02E000BF4FF0010C4DF804CDB4
:100DF0004FEA410C7FEA6C5C4FEA430C18BF7FEA74
:100E00006C5C1BD001B050EA410C0CBF52EA430CA1
:100E100091EA030F02BF90EA020F0020704710F121
:100E2000000F91EA030F58BF994208BF90422CBFB0
:100E3000D8176FEAE37040F0010070474FEA410CA9
:100E40007FEA6C5C02D150EA013C07D14FEA430CC7
:100E50007FEA6C5CD6D152EA033CD3D05DF8040B38
:100E6000704700BF8446104662468C46194663466A
:100E700000E000BF01B5FFF7B7FF002848BF10F141
:100E8000000F01BD4DF808EDFFF7F4FF0CBF012086
:100E900000205DF808FB00BF4DF808EDFFF7EAFF02
:100EA00034BF012000205DF808FB00BF4DF808EDBD
:100EB000FFF7E0FF94BF012000205DF808FB00BFB2
:100EC0004DF808EDFFF7CEFF94BF012000205DF83C
:100ED00008FB00BF4DF808EDFFF7C4FF34BF012049
:100EE00000205DF808FB00BF4FEA410212F5001236
:100EF00015D211D56FF47873B3EB625212D94FEA61
:100F0000C12343F0004343EA505311F0004F23FA4A
:100F100002F018BF404270474FF00000704750EA9F
:100F2000013005D111F0004008BF6FF0004070475C
:100F30004FF00000704700BF00B583B0002300935E
:100F400001930C480C4B036000F0FCFB58B92423C0
:100F50000093002201926946064800F0B5FC28B9CA
:100F600003B05DF804FB00F0DDF9F0E700F0DAF91A
:100F7000F6E700BF580400200074004030B589B087
:100F80000023039304930593069307930268234B6E
:100F90009A4201D009B030BD04460025019503F501
:100FA000E2331A6C42F000521A641A6C02F00052DA
:100FB0000192019A02951A6B42F001021A631B6BAF
:100FC00003F001030293029B102303930323049372
:100FD000059503A9124800F00DFF1248124B03605B
:100FE0004FF06063436040238360C5604FF48063CB
:100FF00003614FF4006343614FF4005383614FF486
:101000008073C3610562456200F020FD18B9054B8D
:10101000A3609C63BEE700F085F9F8E70074004028
:10102000000002406C0400208860024000B583B0DC
:1010300000220192094B196B41F4001119631B6BDB
:1010400003F400130193019B0521102000F038FBED
:10105000102000F069FB03B05DF804FB003802408B
:1010600008B5044A0021044801F0B0FE034B1860A3
:1010700008BD00BFFC5F000879120008CC04002006
:1010800070B52DED028B0646B0EE408A0D46002469
:1010900003E0002326F814300134A54214DDB4EB3C
:1010A000550FF6DADFED0C7A68EE277A17EE900A24
:1010B000FFF7F2F906A3D3E90023FFF76FFBFFF771
:1010C00055FC26F81400E7E7BDEC028B70BD00BFAD
:1010D0006666666666660A4000F07F4500000000AE
:1010E00070B52DED028B0646B0EE408A0D46002409
:1010F00023E0472C43DC78EE087AA4F1170307EECF
:10110000103AB8EEC77A27EE087AB3EE086AC7EE4F
:10111000066A77EEE67A9FED2C7A67EE877A17EE0D
:10112000900AFFF7B9F926A3D3E90023FFF736FBAE
:10113000FFF71CFC26F814000134A5423DDD162CF7
:10114000D7DC07EE904AB8EEE77A27EE087AF3EE9E
:10115000086AC7EE267A77EE887A9FED1B7A67EEEB
:10116000877A17EE900AFFF797F915A3D3E90023C2
:10117000FFF714FBFFF7FAFB26F81400DCE7A4F1F5
:10118000470307EE903AF8EEE77A67EE887AF3EED7
:10119000086A87EEA67ADFED0C7A67EE277A17EEFB
:1011A000900AFFF779F906A3D3E90023FFF7F6FACF
:1011B000FFF7DCFB26F81400BEE7BDEC028B70BD28
:1011C0006666666666660A4000F07F4500000000BD
:1011D0002DE9F84F834610EE10AA0D460024A542D3
:1011E0003BDD5046FFF758F906460F462046FFF70D
:1011F00041F980468946681EFFF73CF902460B46D6
:1012000040464946FFF7CAFA02460B46FEF7E6FF9C
:1012100013A3D3E90023FFF797F941EC100B03F078
:1012200003FD53EC102B30463946FFF78DF902468B
:101230000B4630463946FEF7D1FF0BA3D3E9002316
:10124000FFF782F90AA3D3E90023FFF7A7FAFFF714
:101250008DFB2BF814000134C1E7BDE8F88F00BF07
:101260004AD8124DFB2109400000000000FEAF40AB
:101270006666666666660A4000B5ADF57F7DA821A4
:10128000B0EE080AAAA8FFF7FBFEA821B7EE080AED
:1012900056A8FFF725FFA821B7EE080A02A8FFF716
:1012A00097FF0A4801F009FA094D00240094A82389
:1012B000AAAA2146284600F057FA2146284600F0FF
:1012C000C7FA012001F0EEFDFBE700BF100500208A
:1012D0005804002082B0002100910B4B1A6B42F0A1
:1012E00080021A631A6B02F080020092009A019148
:1012F0001A6B42F001021A631B6B03F001030193A6
:10130000019B02B0704700BF0038024008B5026878
:10131000034B9A4200D008BD00F0AEF9FBE700BFD6
:101320000020004072B6FEE700B595B030220021E3
:1013300008A803F0B7FB00230393049305930693D7
:1013400007930193204A116C41F080511164126C93
:1013500002F080520192019A02931C4B1A6842F4E7
:1013600080421A601B6803F480430293029B0123AE
:1013700008934FF48033099302220E924FF48003B6
:101380000F9304231093A82111911292139308A88C
:1013900000F016FE98B90F23039302230493002351
:1013A00005934FF4A05306934FF480530793052100
:1013B00003A801F061F820B915B05DF804FBFFF750
:1013C000B1FFFFF7AFFF00BF0038024000700040E0
:1013D00008B500F037F9FFF7A7FFFFF77BFFFFF72E
:1013E00025FE00F0DBF8FFF7A7FD00F08BF801F019
:1013F000ABFCFFF735FE01F0C5FCFEE700B583B09E
:10140000002200920D4B596C41F480415964596C93
:1014100001F48041009100990192196C41F08051D2
:1014200019641B6C03F080530193019B0F216FF033
:10143000010000F045F903B05DF804FB00380240FC
:1014400010B588B0014600222D2000F039F92D207A
:1014500000F06AF900240194144B1A6C42F4807273
:101460001A641B6C03F480730193019B02A903A807
:1014700001F0D8F801F0B6F843000D48A0FB0323B3
:101480009B0C013B0B480C4A026040F2E732C26001
:1014900043600461846001F059FA10B1012008B082
:1014A00010BD044801F01BF9F9E700BF0038024005
:1014B00083DE1B43D004002000200040FEE7FEE74F
:1014C000FEE7FEE7FEE7704708B5024800F0A4FB20
:1014D00008BD00BF6C04002008B5024801F014F9F3
:1014E00008BD00BFD0040020054BD3F8882042F48B
:1014F0007002C3F888204FF000629A60704700BF06
:1015000000ED00E000B587B000230293039304933D
:1015100005930093019315484FF080420260092221
:1015200042608360C3600361836101F00FFA98B980
:101530004FF48053029302A90C4801F02DFA70B9C0
:1015400020230093002301936946084801F092FA92
:1015500040B907B05DF804FBFFF7E4FEE8E7FFF7EA
:10156000E1FEEDE7FFF7DEFEF3E700BF1005002028
:101570000368B3F1804F00D0704782B0002301931D
:10158000054B1A6C42F001021A641B6C03F0010354
:101590000193019B02B070470038024008B50A4829
:1015A0000A4B03604FF4E133436000238360C36060
:1015B00003610C2242618361C36101F095FB00B9B4
:1015C00008BDFFF7AFFEFBE750050020001001400B
:1015D00000B589B000230393049305930693079302
:1015E000026803F1804303F588339A4202D009B0C0
:1015F0005DF804FB0022019203F59433596C41F02D
:1016000010015964596C01F0100101910199029285
:10161000196B41F0010119631B6B03F00103029385
:10162000029B4FF4C06303930223049305920323A8
:1016300006930723079303A9014800F0DBFBD6E7D5
:101640000000024008B50B4B1A6842F400721A60A1
:101650001A6842F480621A601A6842F480721A6052
:10166000032000F01BF80020FFF7EAFEFFF7C6FE9C
:10167000002008BD003C0240034A1168034B1B7860
:101680000B441360704700BF900500200400002049
:10169000014B1868704700BF90050020074AD368C7
:1016A00023F4E0631B041B0C000200F4E06003431E
:1016B00043F0BF6343F40033D360704700ED00E0B4
:1016C00030B4174BDB68C3F30223C3F10704042CC7
:1016D00028BF04241D1D062D18D9033B4FF0FF35EC
:1016E00005FA04F421EA0401994005FA03F322EA19
:1016F0000303194300280BDB0901C9B200F1604064
:1017000000F5614080F8001330BC70470023E5E726
:1017100000F00F000901C9B2024B1954F4E700BFF1
:1017200000ED00E014ED00E0002807DB00F01F02F0
:10173000400901239340024A42F82030704700BF1D
:1017400000E100E070B110B50446037933B1022323
:101750002371002020610123237110BD4371FFF725
:101760000DFCF4E70120704770B504460D461146A4
:10177000049A407901285DD0012060710220207117
:10178000002D30D1A0682C4EC663A0682B4E066495
:10179000A0682B4EC6642668306840F480503060E4
:1017A000042A1AD0082A1BD0A2B12A46002D38D10B
:1017B0002668306840F400503060A06800F0ACF952
:1017C00022681368012101FA05F51D431560002008
:1017D000607170BD22680832E8E722680C32E5E7E4
:1017E00022681032E2E7E068164EC663E068164EE3
:1017F0000664E068154EC6642668306840F0805084
:101800003060042A07D0082A08D00AB10022CDE7A8
:1018100022681432CAE722681832C7E722681C32ED
:10182000C4E72668306840F000503060E06800F09F
:1018300073F9C5E70220CCE793180008A518000843
:10184000B1180008191900082919000833190008EF
:1018500010B50446006803684FF480528A4023EABA
:10186000020303602068036801228A4023EA02031E
:10187000036031B9A06800F084F930B1042323710A
:1018800010BDE06800F07DF9F7E701232371F7E769
:10189000704710B5846B2046FFF7FAFF01232371D0
:1018A00010BD704708B5806BFFF7FBFF08BD7047A0
:1018B00010B5846B236943F0040323612046FFF7CE
:1018C000F6FF0123237110BD4379012B1FD070B4A3
:1018D00001254571022303710668336840F6FE74E2
:1018E000944023EA04040B6849680B439340234364
:1018F000336004682368C02101FA02F223EA02027D
:101900002260057100234371184670BC70470220A5
:10191000704770477047704710B5846B2046FFF7DB
:10192000F8FF0123237110BD08B5806BFFF7F2FFAC
:1019300008BD10B5846B236943F00403236120467E
:10194000FFF7E9FF0123237110BD30B405682C684F
:1019500024F480242C60046863608368402B05D0E5
:10196000036899600368DA6030BC704703689A6066
:101970000368D960F8E7000010B40368D9B21039E1
:101980000C4AA2FB014212090B4CA25CC2655F2902
:1019900009D923F47F7323F0030304338365806D37
:1019A0005DF8044B704723F47F7323F003038365D2
:1019B000F5E700BFABAAAAAA38600008836A82696B
:1019C00092B9012B0AD0022B02D00BB10020704734
:1019D000C36A13F0807F28D100207047C36AB3F137
:1019E000C07F24D000207047B2F5005F09D0022BE1
:1019F00025D9032B25D1C36A13F0807F23D1002082
:101A00007047032B03D8DFE803F01404140A002006
:101A10007047C36A13F0807F0DD100207047C36AFE
:101A2000B3F1C07F09D0002070470120704701202A
:101A30007047012070470120704701207047012046
:101A400070470020704701207047000070B50446C1
:101A5000FFF71EFE002C5BD00546002384F83430CF
:101A6000022384F835302268136823F001031360E1
:101A700023681A6812F0010F0AD0FFF709FE431B12
:101A8000052BF5D920236365032084F8350070BD4C
:101A90001A68204810406168A2680A43E1680A4356
:101AA00021690A4361690A43A1690A43E1690A435A
:101AB000216A0A430243616A04291ED01A6026681B
:101AC000756925F00705636A1D43042B07D1A36AD6
:101AD0001D43E36A1BB12046FFF770FF90B97561A3
:101AE0002046FFF749FFE26D3F23934083600020CB
:101AF0006065012384F83530C9E7E16A206B014352
:101B00000A43DBE740236365012084F83500BEE724
:101B10000120BCE73F8010F038B50446856D90F891
:101B2000340001282BD0012084F8340094F83500CB
:101B3000C0B2012804D0002384F83430022038BD1C
:101B4000022084F83500002060652046FFF7FDFE86
:101B5000E26D3F239340AB602268136843F01603A5
:101B60001360236C23B12268136843F008031360E9
:101B70002268136843F0010313600020DFE70220AE
:101B8000DDE770B50446866DFFF782FD94F83530C9
:101B9000DBB2022B06D080236365002384F8343047
:101BA000012070BD05462268136823F016031360F8
:101BB0002268536923F080035361236CE3B12268E8
:101BC000136823F0080313602268136823F00103ED
:101BD000136023681B6813F0010F11D0FFF758FD45
:101BE000431B052BF5D920236365002384F834308B
:101BF000032084F83500D4E7A36C002BDFD1E3E7A2
:101C0000E26D3F239340B360002084F83400012349
:101C100084F83530C5E70000F0B583B004460023F2
:101C20000193724B1D68724BA3FB0535AD0A876D9E
:101C30003E68C26D08239340334210D003681A688F
:101C400012F0040F0BD01A6822F004021A60C26D61
:101C500008239340BB60436D43F001034365E26D8D
:101C600001239340334209D02268526912F0800F59
:101C700004D0BB60636D43F002036365E26D04232F
:101C80009340334209D02268126812F0020F04D048
:101C9000BB60636D43F004036365E26D1023934002
:101CA000334224D02268126812F0080F1FD0BB60A4
:101CB00023681A6812F4802F0DD01B6813F4002FCC
:101CC00004D1236C9BB12046984710E0A36C73B1FC
:101CD000204698470BE01A6812F4807F03D11A68F7
:101CE00022F008021A60236C0BB120469847E26D7F
:101CF00020239340334255D02268126812F0100F0F
:101D000050D0BB6094F83530DBB2052B0ED0236881
:101D10001A6812F4802F33D01B6813F4002F2AD1D5
:101D2000636C002B3ED0204698473BE02268136846
:101D300023F0160313602268536923F08003536174
:101D4000236CA3B12268136823F008031360E26DCB
:101D50003F239340BB60002384F83430012384F890
:101D60003530236D002B3FD0204698473CE0A36CD4
:101D7000002BE7D1EBE7E36BA3B12046984711E0D6
:101D80001A6812F4807F09D11A6822F010021A60D2
:101D9000002384F83430012384F83530E36B0BB131
:101DA00020469847636DFBB1636D13F0010F17D0A8
:101DB000052384F835302268136823F0010313608B
:101DC000019B01330193AB4204D823681B6813F0D5
:101DD000010FF5D1002384F83430012384F8353025
:101DE000E36C0BB12046984703B0F0BD0000002023
:101DF000B5814E1B00230F2B00F2D980F0B583B0C4
:101E000039E0072200E00022B2403A430234684E33
:101E100046F82420674A1468EA4324EA05064F6816
:101E200017F4803F01D045EA0406624C26606468DE
:101E300002EA04064F6817F4003F01D045EA0406A1
:101E40005C4C6660A46802EA04064F6817F4801FC1
:101E500001D045EA0406574CA660E46822404E686B
:101E600016F4001F01D045EA0402524CE26001332F
:101E70000F2B00F29A8001229A400C6804EA0205B6
:101E800032EA0404F3D14C68661E012E03D9112CEA
:101E900001D0122C12D186685F000324BC4026EAD0
:101EA0000406CC68BC4034438460466826EA0206D7
:101EB0004C68C4F300129A4032434260C7685E0027
:101EC0000324B440E24327EA04078C68B4403C434F
:101ED000C4604C68022C01D0122C13D1DF080837E3
:101EE00050F827E003F007044FEA840C0F2404FAAB
:101EF0000CF42EEA040E0C6904FA0CF444EA0E0405
:101F000040F82740046814404A6802F00302B240D7
:101F1000224302604A6812F0805FA8D0002201923A
:101F2000254A546C44F480445464526C02F4804258
:101F30000192019A9C08A61C1D4A52F8267003F0D3
:101F4000030296000F22B24027EA02071B4A904282
:101F50003FF459AF02F5806290421AD002F58062D8
:101F6000904218D002F58062904216D002F580624D
:101F7000904214D002F58062904212D002F5806245
:101F8000904210D002F5806290423FF43AAF0822AE
:101F90003AE7012238E7022236E7032234E7042237
:101FA00032E7052230E706222EE703B0F0BD704786
:101FB00000380140003C014000380240000002406F
:101FC000002800F0D98170B582B00446036813F090
:101FD000010F3BD0A64B9B6803F00C03042B2CD0C5
:101FE000A34B9B6803F00C03082B21D06368B3F567
:101FF000803F4FD0B3F5A02F52D09D4B1A6822F4EA
:1020000080321A601A6822F480221A606368002BFA
:1020100050D0FFF73DFB0546954B1B6813F4003F7E
:1020200014D1FFF735FB401B6428F5D90320AAE142
:102030008F4B5B6813F4800FD8D08D4B1B6813F463
:10204000003F03D06368002B00F09881236813F0F1
:10205000020F54D0864B9B6813F00C0F3ED0844B7C
:102060009B6803F00C03082B33D0E368002B67D088
:10207000804B01221A60FFF70BFB05467C4B1B6867
:1020800013F0020F53D1FFF703FB401B0228F5D9D1
:10209000032078E1764A136843F480331360B5E790
:1020A000734B1A6842F480221A601A6842F4803234
:1020B0001A60ABE7FFF7ECFA05466D4B1B6813F4AB
:1020C000003FC3D0FFF7E4FA401B6428F5D9032092
:1020D00059E1674B5B6813F4800FC6D1644B1B68F2
:1020E00013F0020F03D0E368012B40F04981604AEE
:1020F000136823F0F803216943EAC10313602368DE
:1021000013F0080F40D0636963B35B4B01221A6080
:10211000FFF7BEFA0546564B5B6F13F0020F33D143
:10212000FFF7B6FA401B0228F5D903202BE1504AED
:10213000136823F0F803216943EAC1031360DEE763
:102140004C4B00221A60FFF7A3FA0546484B1B6868
:1021500013F0020FD3D0FFF79BFA401B0228F5D9EA
:10216000032010E1444B00221A60FFF791FA054664
:102170003F4B5B6F13F0020F06D0FFF789FA401B4D
:102180000228F5D90320FEE0236813F0040F78D06D
:10219000374B1B6C13F0805F0DD100230193344B40
:1021A0001A6C42F080521A641B6C03F08053019346
:1021B000019B012500E00025304B1B6813F4807F54
:1021C00021D0A368012B32D0052B36D0284B1A6FB3
:1021D00022F001021A671A6F22F004021A67A3683C
:1021E000002B34D0FFF754FA0646214B1B6F13F037
:1021F000020F45D1FFF74CFA801B41F28833984219
:10220000F3D90320BFE01D4A136843F480731360C1
:10221000FFF73EFA0646194B1B6813F4807FD0D1B6
:10222000FFF736FA801B0228F5D90320ABE0104AED
:10223000136F43F001031367D1E70D4B1A6F42F0A0
:1022400004021A671A6F42F001021A67C7E7FFF724
:102250001FFA0646064B1B6F13F0020F10D0FFF754
:1022600017FA801B41F288339842F3D903208AE0A1
:102270000038024000004742800E47420070004094
:10228000E5B9A369002B7DD0464A926802F00C02A2
:10229000082A51D0022B17D0434B00221A60FFF7B7
:1022A000F7F904463F4B1B6813F0007F42D0FFF75D
:1022B000EFF9001B0228F5D9032064E0394A136CBA
:1022C00023F080531364DCE7374B00221A60FFF7DA
:1022D000DFF90546334B1B6813F0007F06D0FFF78C
:1022E000D7F9401B0228F5D903204CE0E369226AA4
:1022F0001343626A43EA8213A26A5208013A43EA2C
:102300000243E26A43EA0263264A5360264B0122F3
:102310001A60FFF7BDF90446224B1B6813F0007FDB
:1023200006D1FFF7B5F9001B0228F5D903202AE0F2
:10233000002028E0002026E0012B26D0194B5B6806
:1023400003F48001E269914221D103F03F02216A46
:102350008A421ED1616A47F6C0721A408A421AD177
:1023600003F44032A16A8A4217D103F07063E26A33
:10237000934214D1002006E001207047012002E0C2
:10238000012000E0002002B070BD0120FBE7012029
:10239000F9E70120F7E70120F5E70120F3E7012045
:1023A000F1E700BF0038024060004742F8B52F4B0C
:1023B0009B6803F00C03042B53D0082B53D12B4BF9
:1023C0005A6802F03F025B6813F4800F28D0274B55
:1023D0005B68C3F3881358010021C01A61F1000142
:1023E0008E0146EA906687013C1A66EB0105E9001A
:1023F00041EA5471E000C01841F100014B0243EA88
:10240000D0534402204619460023FEF7CFFA174B5B
:102410005B68C3F3014301335B00B0FBF3F023E0DF
:10242000124B5B68C3F388135C010025E41A65F165
:102430000005AE0146EA9466A701381B66EB05016C
:10244000CC0044EA5074C500E81844F100018B0246
:1024500043EA90538402204619460023FEF7A6FA69
:10246000D5E7034800E00348F8BD00BF003802404C
:1024700000127A000024F400002800F09B8070B560
:102480000D4604464F4B1B6803F00F038B4208D2E6
:10249000CBB24C4A1370136803F00F038B4240F029
:1024A0008B80236813F0020F17D013F0040F04D0B1
:1024B000454A936843F4E0539360236813F0080F90
:1024C00004D0414A936843F4604393603E4A936862
:1024D00023F0F003A1680B439360236813F0010F0E
:1024E00032D06368012B21D09A1E012A25D9364AA1
:1024F000126812F0020F61D033498A6822F0030299
:1025000013438B60FFF7C4F806462F4B9B6803F01C
:102510000C036268B3EB820F16D0FFF7B9F8801B8B
:1025200041F288339842F0D9032042E0264A1268EB
:1025300012F4003FE0D101203BE0234A126812F080
:10254000007FD9D1012034E01E4B1B6803F00F033C
:10255000AB4207D9EAB21B4B1A701B6803F00F039A
:10256000AB422DD1236813F0040F06D0164A9368AE
:1025700023F4E053E1680B439360236813F0080FE2
:1025800007D0114A936823F46043216943EAC103E9
:102590009360FFF70BFF0C4B9B68C3F303130B4ACD
:1025A000D35CD8400A4B18600A4B1868FEF748FF06
:1025B000002070BD012070470120FAE70120F8E7F4
:1025C0000120F6E7003C024000380240206000088D
:1025D0000000002008000020014B1868704700BF71
:1025E0000000002008B5FFF7F7FF044B9B68C3F31A
:1025F0008223034AD35CD84008BD00BF00380240A4
:102600003060000808B5FFF7E7FF044B9B68C3F391
:102610004233034AD35CD84008BD00BF00380240B3
:10262000306000080F2303600B4B9A6802F003022E
:1026300042609A6802F0F00282609A6802F4E05206
:10264000C2609B68DB0803F4E0530361034B1B6823
:1026500003F00F030B60704700380240003C02405B
:1026600030B4036A056A25F001050562846924F027
:10267000F00444EA021423F00A030B43846103626A
:1026800030BC704730B4056A25F0100505628469D6
:10269000036A24F4704444EA023423F0A00343EABA
:1026A00001138461036230BC7047836823F07003B8
:1026B0000B4343F0070383607047022380F83D30EB
:1026C0000268936803F00703062B03D0136843F0F6
:1026D00001031360012380F83D3000207047026839
:1026E000D36843F00103D3600268936803F00703E3
:1026F000062B03D0136843F00103136000207047DA
:10270000704770477047704710B5044603681A69F0
:1027100012F0020F11D0DA6812F0020F0DD06FF034
:1027200002021A610123037703689B6913F0030F08
:1027300070D0FFF7E6FF0023237723681A6912F0B1
:10274000040F12D0DA6812F0040F0ED06FF00402FA
:102750001A610223237723689B6913F4407F5FD0BB
:102760002046FFF7CEFF0023237723681A6912F073
:10277000080F12D0DA6812F0080F0ED06FF00802BE
:102780001A61042323772368DB6913F0030F4ED00B
:102790002046FFF7B6FF0023237723681A6912F05B
:1027A000100F12D0DA6812F0100F0ED06FF0100276
:1027B0001A61082323772368DB6913F4407F3DD037
:1027C0002046FFF79EFF0023237723681A6912F043
:1027D000010F03D0DA6812F0010F36D123681A69AD
:1027E00012F0800F03D0DA6812F0800F34D1236822
:1027F0001A6912F0400F03D0DA6812F0400F32D19C
:1028000023681A6912F0200F03D0DA6812F0200F43
:1028100030D110BDFFF774FF2046FFF773FF8AE742
:102820002046FFF76DFF2046FFF76CFF9BE7204631
:10283000FFF766FF2046FFF765FFACE72046FFF78E
:102840005FFF2046FFF75EFFBDE76FF001021A61F0
:102850002046FEF75BFDC1E76FF080021A6120465B
:1028600000F04DF9C3E76FF040021A612046FFF710
:102870004AFFC5E76FF020021A61204600F03EF9DA
:10288000C7E700000368304A904212D0B0F1804F91
:102890000FD0A2F57C4290420BD002F580629042AC
:1028A00007D002F58062904203D002F57842904250
:1028B00003D123F070034A681343234A90422AD07D
:1028C000B0F1804F27D0A2F57C42904223D002F590
:1028D000806290421FD002F5806290421BD002F5C8
:1028E0007842904217D002F57052904213D002F510
:1028F000806290420FD002F5806290420BD0A2F528
:102900009832904207D002F58062904203D002F5DF
:102910008062904203D123F44073CA68134323F0CA
:1029200080034A69134303608B68C3620B68836248
:10293000054B984203D003F58063984201D10B699F
:10294000036301234361704700000140B0B110B53B
:10295000044690F83D3063B1022384F83D302146AF
:1029600051F8040BFFF78EFF012384F83D3000205F
:1029700010BD80F83C30FEF7FBFDEDE7012070470D
:1029800010B4846824F47F4442EA03220A432243B9
:1029900082605DF8044B704790F83C30012B66D0A4
:1029A00010B50446012380F83C30022380F83D3006
:1029B0000268936823F47F4323F0770393600B68E6
:1029C000602B40D022D8402B47D00BD9502B0ED1B2
:1029D000CA6849680068FFF743FE50212068FFF786
:1029E00064FE04E0202B0CD008D9302B09D0012341
:1029F00084F83D30002084F83C0010BD0BB1102B52
:102A0000F5D119462068FFF750FEF0E7702B0ED085
:102A1000B3F5005FEBD1CB684A6889680068FFF7BF
:102A2000AFFF2268936843F480439360DFE7CB688D
:102A30004A6889680068FFF7A3FF2268936843F03B
:102A400077039360D3E7CA6849680068FFF71AFE06
:102A500060212068FFF729FEC9E7CA684968006855
:102A6000FFF7FEFD40212068FFF71FFEBFE70220B1
:102A70007047000090F83C30012B3BD030B401236C
:102A800080F83C30022380F83D3003685C689D6824
:102A900024F070040A6822435A600368164A93427D
:102AA0001AD0B3F1804F17D0A2F57C42934213D0D5
:102AB00002F5806293420FD002F5806293420BD000
:102AC00002F57842934207D002F57052934203D048
:102AD000A2F59432934204D125F080054A6815434B
:102AE0009D60012380F83D30002380F83C3018467B
:102AF00030BC7047022070470000014070477047AB
:102B000070B504460268136923F44053C1680B434F
:102B1000136183680269134342691343C2691A430C
:102B20000168CB6823F4164323F00C031343CB60F6
:102B30000268536923F4407381690B435361C3698D
:102B4000B3F5004F36D00368654A934200F09A808F
:102B500002F58062934200F09580FFF743FD002666
:102B6000051846EB06012D1846EB0101CB0043EAA0
:102B70005573EA001546194663689A009B0F28189A
:102B800046EB0101FDF712FF564DA5FB003251093E
:102B9000642303FB11031B013233A5FB03235B09F1
:102BA00003F0F00202EB011203F00F03216813445B
:102BB0008B6093E003684A4A934233D002F5806207
:102BC00093422FD0FFF70EFD0026051846EB0601B5
:102BD0002D1846EB0101CB0043EA5573EA00154678
:102BE000194662683346921846EB0303281846EBF1
:102BF0000101FDF7DBFE3B4DA5FB003251096423CB
:102C000003FB1103DB003233A5FB03235B095A00EE
:102C100002F4F87202EB011203F007032168134477
:102C20008B605BE0FFF7EEFC0026051846EB060123
:102C30002D1846EB0101CB0043EA5573EA00154617
:102C4000194662683346921846EB0303281846EB90
:102C50000101FDF7ABFE234DA5FB003251096423B2
:102C600003FB1103DB003233A5FB03235B095A008E
:102C700002F4F87202EB011203F007032168134417
:102C80008B602BE0FFF7BEFC0026051846EB060123
:102C90002D1846EB0101CB0043EA5573EA001546B7
:102CA000194663689A009B0F281846EB0101FDF74F
:102CB0007DFE0C4DA5FB00325109642303FB11037B
:102CC0001B013233A5FB03235B0903F0F00202EB87
:102CD000011203F00F03216813448B6070BD00BF25
:102CE000001001401F85EB5158B310B5044690F811
:102CF00039300BB3242384F839302268D36823F4A5
:102D00000053D3602046FFF7FBFE2268136923F4CB
:102D1000904313612268536923F02A0353612268A8
:102D2000D36843F40053D3600020E063202384F889
:102D3000393084F83A3010BD80F83830FEF748FC5E
:102D4000D8E7012070470000EFF305837BB9EFF36C
:102D5000108313B9EFF311831BB1094B1B68022BCE
:102D600008D0074B186840B901221A6070476FF00D
:102D7000050070476FF0050070474FF0FF30704757
:102D8000F007002008B5EFF30583A3B9EFF3108334
:102D900013B9EFF311831BB10B4B1B68022B0DD042
:102DA000094B1B68012B0CD1074B02221A6001F062
:102DB00009F9002008BD6FF00500FBE76FF0050082
:102DC000F8E74FF0FF30F5E7F0070020F0B587B0E7
:102DD00000240594EFF30584002C38D1EFF3108321
:102DE00013B9EFF311831BB12D4B1B68022B2ED0AF
:102DF00068B322B31568936903B918235C1E372C96
:102E000049D8546814F0010F47D156696EB14FEAA2
:102E1000960C94682CB1D7685B2F02D9176907B15B
:102E2000C6B92CB14FF0FF340EE04FF0800CF0E744
:102E3000D4688CB9146994B14FF0FF3404E015469E
:102E4000002418234FF0800C012C0AD0ACB1059857
:102E500007B0F0BD0124F7E74FF0FF34F4E700249A
:102E6000F2E7146992680292019400930B4662465D
:102E7000294601F039F80590E9E705AA0192009387
:102E80000B461FFA8CF2294601F068F80128DED0C3
:102E900000230593DBE70020DAE70020D8E700BF36
:102EA000F007002008B5EFF3058383B9EFF3108333
:102EB00013B9EFF311831BB1084B1B68022B09D028
:102EC00008B9002008BD01F0DDF90020FAE76FF035
:102ED0000500F7E76FF00500F4E700BFF0070020FA
:102EE000034B0360034B0B6080231360704700BFEC
:102EF0009407002094050020034B0360034B0B60F4
:102F00004FF4807313607047F40B0020F407002027
:102F100000F1080343604FF0FF328260C360036139
:102F200000230360704700230361704743684B60D0
:102F30009A688A6051609960086103680133036090
:102F4000704730B40D68B5F1FF3F11D000F10803B0
:102F50001C465B681A68AA42FAD963684B6099609C
:102F60008C606160086103680133036030BC7047A6
:102F70000469F2E70369416882688A6041685160C8
:102F80005A68824206D0002202611A68013A1A6029
:102F90001868704782685A60F5E7000082B0002325
:102FA00001930D4B1B68B3F1FF3F08D04FF0500366
:102FB00083F31188BFF36F8FBFF34F8FFEE74FF09E
:102FC000500383F31188BFF36F8FBFF34F8F019BC3
:102FD000002BFCD002B070470C00002008480068AD
:102FE000006880F308884FF0000080F3148862B610
:102FF00061B6BFF34F8FBFF36F8F00DF00BF0000DC
:1030000008ED00E0DFF80C00016841F47001016098
:103010007047000088ED00E04FF0807340F8043CFA
:1030200021F0010140F8081C054B40F80C3C40F829
:10303000202C6FF0020340F8243C4438704700BF56
:103040009D2F0008000000000000000000000000AC
:10305000074B19680868B0E8F04F80F30988BFF3A0
:103060006F8F4FF0000080F311887047AFF300803E
:10307000B04800204FF0500383F31188BFF36F8FE7
:10308000BFF34F8F0A4A136801331360012B00D03E
:103090007047084B1B6813F0FF0FF9D04FF0500337
:1030A00083F31188BFF36F8FBFF34F8FFEE700BF2D
:1030B0000C00002004ED00E0094B1B6843B94FF001
:1030C000500383F31188BFF36F8FBFF34F8FFEE779
:1030D000013B034A13600BB983F31188704700BFAB
:1030E0000C000020000000000000000000000000B4
:1030F000EFF30980BFF36F8F154B1A681EF0100FA6
:1031000008BF20ED108A20E9F04F10602DE909007A
:103110004FF0500080F31188BFF34F8FBFF36F8FD4
:1031200001F0D6F84FF0000080F3118809BC19684F
:103130000868B0E8F04F1EF0100F08BFB0EC108A1E
:1031400080F30988BFF36F8F704700BFAFF3008033
:10315000B048002008B54FF0500383F31188BFF347
:103160006F8FBFF34F8F00F085FF18B1034B4FF007
:1031700080521A60002383F3118808BD04ED00E03B
:10318000084A0023136008490B60084B1B68084974
:10319000A1FB03139B09013B06490B600723136046
:1031A000704700BF10E000E018E000E000000020E1
:1031B000D34D621014E000E03A4B1A683A4B9A4241
:1031C00029D0384B1A68394B9A422DD010B582B0AD
:1031D000374B1A78D2B20192FF221A701B78DBB2F9
:1031E0008DF803309DF8033003F05003314A13701B
:1031F000314B07221A609DF8033013F0800F1CD06A
:103200002D4A1368013B13609DF803305B00DBB26D
:103210008DF80330EFE74FF0500383F31188BFF3CD
:103220006F8FBFF34F8FFEE74FF0500383F311888A
:10323000BFF36F8FBFF34F8FFEE71F4B1B68032B4E
:1032400008D04FF0500383F31188BFF36F8FBFF3A3
:103250004F8FFEE71B0203F4E063174A1360019BE4
:10326000DBB2134A1370154B1A6842F470021A60ED
:103270001A6842F070421A60FFF782FF0024104B78
:103280001C60FFF7BFFE0F4A136843F04043136012
:10329000FFF7A4FE01F01CF8FFF780FE204602B005
:1032A00010BD00BF00ED00E071C20F4170C20F41C0
:1032B00000E400E0500C0020540C002020ED00E061
:1032C0000C00002034EF00E0EFF305830F2B0FD943
:1032D000104A9B5CDBB2104A12789A4208D94FF030
:1032E000500383F31188BFF36F8FBFF34F8FFEE757
:1032F0000A4B1B6803F4E063094A1268934208D939
:103300004FF0500383F31188BFF36F8FBFF34F8FDC
:10331000FEE77047F0E300E0500C00200CED00E009
:10332000540C0020124A12F0070F1ED0D11D21F0BC
:103330000701C1F5705313440A460E48026000218C
:1033400041601344083B23F007030B4803605960B6
:103350001960991A51601360084B1960084B196085
:10336000084B4FF000421A6070474FF47053E4E787
:103370005C0C002068480020580C002064480020A5
:10338000604800205C48002010B4134B1A461B68AC
:103390008342FBD35168541884420AD041684418D0
:1033A000A3420BD00360904200D010605DF8044B44
:1033B00070474068014451601046EFE7074C2468AD
:1033C000A34206D05B681944416013681B68036020
:1033D000E9E70460E7E700BF68480020580C0020D8
:1033E00070B5044600F038FE344B1B68A3B1344B73
:1033F0001B681C424AD134B1083414F0070F02D0C4
:1034000024F007040834002C42D02E4B1B68A34242
:103410004DD32D4B1D6804E0FFF784FFE7E72B46F3
:1034200015466A68A24202D22A68002AF7D1234AC6
:103430001268AA423DD01E6808362A681A606B6876
:103440001B1B102B10D9281910F0070F08D04FF0B4
:10345000500383F31188BFF36F8FBFF34F8FFEE7E5
:1034600043606C60FFF790FF6A6816490B689B1A0F
:103470000B60164909688B4201D214490B60104B4E
:103480001B6813436B6000232B6002E0002600E002
:10349000002600F07BFE16F0070F0CD04FF0500313
:1034A00083F31188BFF36F8FBFF34F8FFEE70026C2
:1034B000EFE70026EDE7304670BD00BF580C002056
:1034C0005C480020604800206848002064480020D4
:1034D00080B338B50446A0F1080550F8043C164AFC
:1034E0001268134208D14FF0500383F31188BFF3E1
:1034F0006F8FBFF34F8FFEE750F8081C41B14FF0BC
:10350000500383F31188BFF36F8FBFF34F8FFEE734
:1035100023EA020340F8043C00F09EFD54F8041C2A
:10352000064A13680B4413602846FFF72DFF00F08E
:103530002DFE38BD704700BF5C4800206048002069
:1035400010B50446FFF796FDA26BE36B9A4204D0D8
:103550000024FFF7B1FD204610BD0124F9E710B5A6
:103560000446FFF787FDA36B23B90124FFF7A4FDF1
:10357000204610BD0024F9E770B504461546866B59
:10358000026C5AB903681BB100200136A66370BDF6
:10359000806800F0C7FF0023A360F6E76DB94068BC
:1035A000FDF780FB226C636813446360A26893425A
:1035B00019D3236863602846E7E7C068FDF772FB0C
:1035C000226C5142E3689B1AE3602268934202D264
:1035D000A3680B44E360022D01D00020D5E726B19B
:1035E000013E0020D1E72846CFE70020CDE7034683
:1035F000026C6AB110B50846D9681144D9609C685C
:10360000A14201D31968D960D968FDF74BFB10BD01
:10361000704738B50546FFF72DFD95F8454064B273
:1036200003E000F069FF013C64B2002C08DD6B6A26
:1036300033B105F1240000F0CBFE0028F3D0F0E711
:10364000FF2385F84530FFF737FDFFF713FD95F8A9
:10365000444064B203E000F04FFF013C64B2002C30
:1036600008DD2B6933B105F1100000F0B1FE002830
:10367000F3D0F0E7FF2385F84430FFF71DFD38BD98
:1036800038B5E0B10D460446FFF7F4FC2168E26B63
:10369000236C03FB0210A0600020A0636160013A6C
:1036A00002FB0313E360FF2384F8443084F84530C1
:1036B000EDB9236963B9FFF7FFFC012038BD4FF076
:1036C000500383F31188BFF36F8FBFF34F8FFEE773
:1036D00004F1100000F07CFE0028ECD0084B4FF005
:1036E00080521A60BFF34F8FBFF36F8FE3E704F18F
:1036F0001000FFF70DFC04F12400FFF709FCDAE7E6
:1037000004ED00E038B51D46049C0B4649B9246021
:10371000E063236401212046FFF7B2FF84F84C5098
:1037200038BD2260F4E740B94FF0500383F31188AD
:10373000BFF36F8FBFF34F8FFEE730B585B01C46E8
:10374000054653B192B189B94FF0500383F3118804
:10375000BFF36F8FBFF34F8FFEE74FF0500383F33C
:103760001188BFF36F8FBFF34F8FFEE76AB150230D
:103770000393039B502B13D04FF0500383F3118816
:10378000BFF36F8FBFF34F8FFEE70029EFD04FF0ED
:10379000500383F31188BFF36F8FBFF34F8FFEE7A2
:1037A000039B012384F8463000949DF8203028467E
:1037B000FFF7A8FF204605B030BD0000F0B585B08A
:1037C000019288B10E461D460446B1B1022D20D1AA
:1037D000E36B012B1DD04FF0500383F31188BFF32F
:1037E0006F8FBFF34F8FFEE74FF0500383F31188C5
:1037F000BFF36F8FBFF34F8FFEE7036C002BE5D055
:103800004FF0500383F31188BFF36F8FBFF34F8FD7
:10381000FEE700F077FE074658B9019B002B44D025
:103820004FF0500383F31188BFF36F8FBFF34F8FB7
:10383000FEE7002739E02A4631462046FFF79CFE86
:10384000626A6AB938B13C4B4FF080521A60BFF3DC
:103850004F8FBFF36F8FFFF72FFC012005B0F0BD36
:1038600004F1240000F0B4FD0028F4D0324B4FF0F6
:1038700080521A60BFF34F8FBFF36F8FEBE7FFF7F4
:103880001BFC0020EAE702A800F0E8FD012719E090
:10389000002384F8443021E0002384F8453023E0FD
:1038A0002046FFF7B6FE00F071FCFFF7E3FBA26BCA
:1038B000E36B9A42BFD3022DBDD0019B002BDED01B
:1038C000002FE0D0FFF7F8FB00F0C6FBFFF7D2FBBC
:1038D00094F844305BB2B3F1FF3FD9D094F845304F
:1038E0005BB2B3F1FF3FD7D0FFF7E6FB01A902A817
:1038F00000F0C0FDC8B92046FFF722FE0028CFD057
:10390000019904F1100000F02FFD2046FFF781FE21
:1039100000F03CFC0028C8D1074B4FF080521A60E1
:10392000BFF34F8FBFF36F8FBFE72046FFF771FEE6
:1039300000F02CFC002091E704ED00E02DE9F843B5
:1039400090B1894690461F460446B1B1022F20D15E
:10395000E36B012B1DD04FF0500383F31188BFF3AD
:103960006F8FBFF34F8FFEE74FF0500383F3118843
:10397000BFF36F8FBFF34F8FFEE7036C002BE5D0D3
:103980004FF0500383F31188BFF36F8FBFF34F8F56
:10399000FEE7FFF799FCEFF311864FF0500383F336
:1039A0001188BFF36F8FBFF34F8FA26BE36B9A4207
:1039B00006D3022F04D0002086F31188BDE8F883D7
:1039C00094F845506DB23A4649462046FFF7D4FD7B
:1039D000B5F1FF3F05D06B1C5BB284F84530012088
:1039E000EAE7636A0BB90120E6E704F1240000F07E
:1039F000EFFC30B1B8F1000F05D00120C8F800008D
:103A0000DAE70120D8E70120D6E70000F0B585B05D
:103A1000019290B10E460446C1B100F073FD074615
:103A200000BB019B002B5CD04FF0500383F3118847
:103A3000BFF36F8FBFF34F8FFEE74FF0500383F359
:103A40001188BFF36F8FBFF34F8FFEE7036C002B1E
:103A5000E3D04FF0500383F31188BFF36F8FBFF3B0
:103A60004F8FFEE700273CE031462046FFF7BFFDC1
:103A7000013DA563236923B9FFF71EFB012005B0B3
:103A8000F0BD04F1100000F0A3FC0028F4D0354B89
:103A90004FF080521A60BFF34F8FBFF36F8FEBE789
:103AA000FFF70AFB0020EAE702A800F0D7FC012795
:103AB00021E0002384F8443029E0002384F84530D5
:103AC0002BE02046FFF7A5FD00F060FB09E0204653
:103AD000FFF79FFD00F05AFB2046FFF740FD00284E
:103AE0003DD1FFF7C7FAA56B002DBDD1019B002B7F
:103AF000D6D0002FD8D0FFF7DFFA00F0ADFAFFF7ED
:103B0000B9FA94F844305BB2B3F1FF3FD1D094F8E6
:103B100045305BB2B3F1FF3FCFD0FFF7CDFA01A93B
:103B200002A800F0A7FC0028D1D12046FFF717FD1E
:103B30000028C6D0019904F1240000F015FC2046AD
:103B4000FFF767FD00F022FB0028CAD1054B4FF0BC
:103B500080521A60BFF34F8FBFF36F8FC1E7002011
:103B60008DE700BF04ED00E0002300E00133072BE8
:103B70000BD8064A52F83320002AF7D1034A42F8FC
:103B8000331002EBC3035860704770477048002041
:103B900070B504460D461646FFF76CFA94F84430AB
:103BA0005BB2B3F1FF3F0DD094F845305BB2B3F197
:103BB000FF3F0BD0FFF780FAA36B5BB12046FFF706
:103BC00028FD70BD002384F84430EDE7002384F81D
:103BD0004530EFE73246294604F1240000F0DCFBD3
:103BE000ECE70000084B1B681B6823B9074B4FF03C
:103BF000FF321A607047044B1B68DB68DB685A6849
:103C0000024B1A60704700BFB44800205C4D002092
:103C10002DE9F04780460D4617469946089EDDF887
:103C200024A00A9C9200A521206B00F03BFF236B8F
:103C300007F18042013A03EB820727F0070785B3BB
:103C400000220F2A07D8A95CA31883F83410AB5CB4
:103C50000BB10132F5E7002384F84330372E00D949
:103C60003726E662E66400252565201DFFF75BF92F
:103C700004F11800FFF757F92461C6F13806A66170
:103C80006462656584F858504A4641463846FFF7F5
:103C9000C3F92060BAF1000F01D0CAF80040BDE8B6
:103CA000F087002384F83430D8E7000038B50024CA
:103CB000372C08D804EB840293000E481844FFF711
:103CC00027F90134F4E70C4D2846FFF721F90B4C96
:103CD0002046FFF71DF90A48FFF71AF90948FFF7D0
:103CE00017F90948FFF714F9084B1D60084B1C60D1
:103CF00038BD00BFBC480020344D0020484D002096
:103D0000644D0020904D00207C4D0020B4480020E0
:103D1000B848002010B50446FFF7ACF9214A1368F3
:103D200001331360204B1B685BB1204B1B686BB9E0
:103D30001D4B1B68DA6AE36A9A4207D81A4B1C606B
:103D400004E0194B1C601368012B27D0184A136834
:103D5000013313606364E06A164B1B68984201D913
:103D6000144B186000EB8000211D134B03EB800007
:103D7000FFF7DCF8FFF7A0F90C4B1B686BB10A4B9F
:103D80001B68DA6AE36A9A4207D20C4B4FF0805202
:103D90001A60BFF34F8FBFF36F8F10BDFFF786FF21
:103DA000D4E700BF1C4D0020B0480020784D002013
:103DB0002C4D0020304D0020BC48002004ED00E0D8
:103DC00010B5044690F8593063B1012B11D0022B85
:103DD0000ED04FF0500383F31188BFF36F8FBFF302
:103DE0004F8FFEE7006BFFF773FB2046FFF770FB7A
:103DF00010BDFFF76DFBFBE70F4B1B68D3B110B590
:103E0000FFF738F90D4BDB68DC68201DFFF7B2F8CF
:103E10000B4A1368013B1360074A1368013B1360A8
:103E2000FFF74AF92046FFF7CBFF034B1B68002B37
:103E3000E6D110BD704700BF204D0020904D0020FE
:103E40001C4D002008B5FFF7D7FF064B1B68012B60
:103E5000F9D9054B4FF080521A60BFF34F8FBFF373
:103E60006F8FF0E7BC48002004ED00E070B5044619
:103E70000D46174B1E68174B18680430FFF77AF889
:103E8000B4F1FF3F0DD03444124B1B685C60A64276
:103E900010D9114B18680F4B19680431FFF751F80E
:103EA00070BD002DEFD00B4B196804310B48FFF7A4
:103EB0003DF8F5E70A4B1868064B19680431FFF71F
:103EC00040F8084B1B68A342EAD9064B1C60E7E7A1
:103ED000A44D0020B0480020B84800207C4D0020B0
:103EE000B44800205C4D002070B586B00B9D0C9C42
:103EF00075B1B4B15C260496049E5C2E1AD04FF0C6
:103F0000500383F31188BFF36F8FBFF34F8FFEE72A
:103F10004FF0500383F31188BFF36F8FBFF34F8FC0
:103F2000FEE74FF0500383F31188BFF36F8FBFF3A9
:103F30004F8FFEE7049E2563022584F85950002523
:103F40000395029405AD01950A9D0095FFF760FE6B
:103F50002046FFF7DFFE059806B070BD2DE9F0435F
:103F600085B00746884614461E469000FFF738FA8B
:103F700000B381465C20FFF733FA0546B0B1C0F8C4
:103F80003090E5B1002385F85930039302950D9BDD
:103F900001930C9B00933346224641463846FFF777
:103FA00037FE2846FFF7B6FE012005E04846FFF73A
:103FB0008FFAE6E74FF0FF3005B0BDE8F0834FF031
:103FC000FF30F9E710B588B000240594069407AADD
:103FD00006A905A8FEF784FF059B0293069B0193A3
:103FE00000942346079A17491748FFF77DFF48B109
:103FF00000F04CFB0346012B06D0B3F1FF3F18D075
:1040000008B010BD0023F6E74FF0500383F311888A
:10401000BFF36F8FBFF34F8F0C4B4FF0FF321A601F
:104020000B4B01221A600B4B00221A60FFF7C4F8F9
:10403000E6E74FF0500383F31188BFF36F8FBFF3B0
:104040004F8FFEE740600008453E00085C4D0020B1
:10405000784D0020A44D0020024A136801331360FC
:10406000704700BF284D0020014B1868704700BF03
:10407000A44D0020F8B53A4B1B68002B65D1394B95
:104080001D6801351D60C5B9374B1B681B6843B1FE
:104090004FF0500383F31188BFF36F8FBFF34F8F3F
:1040A000FEE7314A1168314B186810601960304AD8
:1040B000136801331360FFF795FD2E4B1B68AB426D
:1040C0000CD900242C4B1B68DB6A03EB83039A009A
:1040D0002A4B9B58012B3DD901243BE0002416E0DC
:1040E000244B4FF0FF321A60ECE7224A1360E9E7F5
:1040F00003EB83039A00394620481044FEF716FF6D
:10410000F26A1D4B1B68DB6A9A4200D30124164BEE
:104110001B681B68002BE3D0134B1B68DB68DE6851
:1041200073689D42E1D3371D3846FEF723FFB36A1B
:104130001BB106F11800FEF71DFFF36A104A126862
:104140009342D5D90E4A1360D2E70E4A1368013361
:10415000136000240C4B1B6803B101242046F8BDFA
:10416000284D0020A44D0020B4480020B84800206D
:10417000604D00205C4D0020B0480020BC4800206D
:10418000304D0020244D0020A84D002038B5344B80
:104190001B6843B94FF0500383F31188BFF36F8F4F
:1041A000BFF34F8FFEE7FEF765FF2D4B1A68013A0C
:1041B0001A601B68002B4DD12A4B1B680BB90024D9
:1041C00049E00024284B1B681BB3274BDB68DC68E5
:1041D00004F11800FEF7CEFE251D2846FEF7CAFEA4
:1041E000E06A224B1B68984201D9204B186000EB13
:1041F000800029461E4B03EB8000FEF797FEE26A23
:104200001C4B1B68DB6A9A42DCD31B4B01221A60F1
:10421000D8E70CB1FFF7E6FC184B1C6874B9164BD5
:104220001C68C4B1164B4FF080521A60BFF34F8F19
:10423000BFF36F8F01240EE0013C07D0FFF71AFF98
:104240000028F9D00C4B01221A60F5E70B4B002235
:104250001A60E4E70024FEF72FFF204638BD00BFB8
:10426000284D00201C4D0020644D0020304D0020C2
:10427000BC480020B0480020A84D0020244D00205C
:1042800004ED00E010B5A8B104460F4B1B6843B124
:104290004FF0500383F31188BFF36F8FBFF34F8F3D
:1042A000FEE7FFF7D9FE00212046FFF7DFFDFFF70D
:1042B0006DFF38B9054B4FF080521A60BFF34F8F36
:1042C000BFF36F8F10BD00BF284D002004ED00E04C
:1042D000204B1B681BB1204B01221A6070471E4BFC
:1042E00000221A601D4B1B6803EB83018A001C49E6
:1042F0008A585AB90BB1013BF6E74FF0500383F3EC
:104300001188BFF36F8FBFF34F8FFEE710B403EB3D
:10431000830082000A4450684068506003EB8304C5
:10432000A20014460832114488420DD003EB8302E8
:1043300091000B4A0A445268D1680A4A1160074A40
:1043400013605DF8044B70474068054A2244506092
:10435000ECE700BF284D0020A84D0020304D002084
:10436000BC480020B048002058B110B50C46094B9D
:1043700019681831FEF7E5FD01212046FFF776FDAB
:1043800010BD4FF0500383F31188BFF36F8FBFF35D
:104390004F8FFEE7B048002038B570B10C46154687
:1043A0000A4B19681831FEF7C1FD0DB14FF0FF340B
:1043B00029462046FFF75AFD38BD4FF0500383F3DE
:1043C0001188BFF36F8FBFF34F8FFEE7B048002017
:1043D00038B5C368DC6824B304F118052846FEF735
:1043E000C9FD184B1B682BBB251D2846FEF7C2FDD7
:1043F000E06A154B1B68984201D9134B186000EB1B
:1044000080002946114B03EB8000FEF78FFDE26A26
:104410000F4B1B68DB6A9A4211D901200D4B1860C3
:104420000EE04FF0500383F31188BFF36F8FBFF39B
:104430004F8FFEE729460848FEF778FDE7E70020A2
:1044400038BD00BF284D0020304D0020BC48002062
:10445000B0480020A84D0020644D0020034B1B688D
:104460000360034B1B684360704700BF604D002032
:10447000A44D0020F8B5C8B10C460546F9B1FEF7C9
:10448000F9FD1B4B19686B68C81A2268B2F1FF3F2F
:1044900026D02F68174E3668B74201D08B4224D9F8
:1044A000824215D80023236001241AE04FF0500304
:1044B00083F31188BFF36F8FBFF34F8FFEE74FF089
:1044C000500383F31188BFF36F8FBFF34F8FFEE765
:1044D0005B1A134423602846FFF7C0FF002400E066
:1044E0000024FEF7E9FD2046F8BD0124F9E700BFEE
:1044F000A44D0020604D0020014B01221A6070473E
:10450000A84D0020054B1B6833B1054B1B680BB150
:10451000002070470220704701207047784D00202E
:10452000284D002000283BD038B504461E4B1B68A0
:10453000834208D04FF0500383F31188BFF36F8F8D
:10454000BFF34F8FFEE7036D43B94FF0500383F382
:104550001188BFF36F8FBFF34F8FFEE7013B0365F9
:10456000C16AC26C91421DD00BB1002038BD051D3F
:104570002846FEF7FFFCE06CE062C0F13803A3615F
:104580000A4B1B68984201D9084B186000EB800069
:104590002946074B03EB8000FEF7C8FC0120E5E746
:1045A000002070470020E1E7B0480020304D002097
:1045B000BC480020064B1A6813682BB9012303601E
:1045C00023B9D368186870470023F8E700207047C4
:1045D000AC4D002008B54160006191420CD8D21A60
:1045E00083699A4201D3012008BD011D094B186857
:1045F000FEF7A7FC0020F7E79A4201D2994206D2C3
:10460000011D054B1868FEF79CFC0020ECE701201B
:10461000EAE700BFB04D0020AC4D002030B583B0BC
:10462000FEF728FD114B1B681BB1FEF745FD03B0DB
:1046300030BD0F4D2846FEF76BFC0E4C2046FEF7B2
:1046400067FC0D4B1D600D4B1C60002300930C4B51
:104650000C4A10210A20FFF766F8044B1860002866
:10466000E3D00949FFF780FADFE700BFD04E002012
:10467000544E0020684E0020AC4D0020B04D00206C
:10468000804E0020B44D00204860000810B588B06E
:10469000FFF7C4FF124B1B68CBB1002405940694AE
:1046A00007AA06A905A8FEF727FC059B0293069B0F
:1046B0000193022300932346079A0A490A48FFF709
:1046C00013FC0A4A106010B1012008B010BD4FF071
:1046D000500383F31188BFF36F8FBFF34F8FFEE753
:1046E000D04E002050600008F1490008D44E002050
:1046F000C0B110B584B014461A4603461648006887
:1047000038B300910194029305291CDCFFF7FAFEEF
:10471000022810D000231A4669460F480068FFF7A8
:104720004DF814E04FF0500383F31188BFF36F8FFF
:10473000BFF34F8FFEE70023069A694606480068DC
:10474000FFF73CF803E000236946FFF7F7F804B0F1
:1047500010BD0020FBE700BFD04E002070B582B036
:104760001B4B1B681A6862B3DB681E68DC68251D7A
:104770002846FEF7FFFB236A2046984794F8283026
:1047800013F0040FECD0A36933449E4207D2636058
:10479000246129460E4B1868FEF7D3FBE0E70021A1
:1047A00000910B4632462046FFF7A2FF0028D7D1E2
:1047B0004FF0500383F31188BFF36F8FBFF34F8F18
:1047C000FEE7044A106802490860136002B070BD39
:1047D000AC4D0020B04D002038B50546FFF744FC35
:1047E0000446074B1B68834205D800232B60044B0B
:1047F0001C60204638BDFFF7B1FF01232B60F6E7B0
:104800007C4E002070B582B005460E46174B1B68E3
:10481000DB68DC68201DFEF7ADFB94F8283013F050
:10482000040F08D123F0010384F82830236A2046BE
:10483000984702B070BDA1692B46324629442046F4
:10484000FFF7C8FE0028F1D0002100910B462A4650
:104850002046FFF74DFF0028E8D14FF0500383F3C7
:104860001188BFF36F8FBFF34F8FFEE7AC4D002071
:1048700070B582B006460C46FFF7EEFB01A8FFF7C5
:10488000ABFF019B23BB05460CB9B04217D224B144
:10489000114A12681268CAB901242246711B0F4BD3
:1048A0001868FFF775F9FFF771FC98B90C4B4FF0DA
:1048B00080521A60BFF34F8FBFF36F8F0AE0FFF78C
:1048C00065FC29463046FFF79DFF03E01C46E4E700
:1048D000FFF75CFC02B070BDB04D0020D04E002050
:1048E00004ED00E010B588B006E007990698059B36
:1048F0009847049B002B0BDA002204A93B4B186855
:10490000FFF784F800286FD0049B002BF1DAECE766
:10491000069C636913B1201DFEF72CFB03A8FFF76B
:104920005BFF049B092BE7D8DFE803F005050530A2
:1049300037500505303794F8283043F0010384F8E8
:104940002830059BA169024619442046FFF742FE24
:104950000028D1D0236A2046984794F8283013F0D5
:10496000040FC9D0A269002100910B4605980244AA
:104970002046FFF7BDFE0028BED14FF0500383F361
:104980001188BFF36F8FBFF34F8FFEE794F8283085
:1049900023F0010384F82830AEE794F8283043F080
:1049A000010384F828300599A16131B1034602461C
:1049B00001442046FFF70EFE9EE74FF0500383F3BD
:1049C0001188BFF36F8FBFF34F8FFEE794F8283045
:1049D00013F0020F04D023F0010384F828308BE792
:1049E0002046FEF775FD87E708B010BDD04E0020C9
:1049F00000B583B001A8FFF7DDFD0199FFF738FF8F
:104A0000FFF770FFF6E70000DFF834D0002103E085
:104A10000C4B5B58435004310B480C4B42189A42E4
:104A2000F6D30B4A02E0002342F8043B094B9A42BA
:104A3000F9D3FCF759FD00F011F8FCF7C9FC7047F9
:104A4000000002204C620008000000203C0400200E
:104A50003C040020FC4E0020FEE7000070B50D4E27
:104A60000D4D761BB61006D0002455F8043B0134DA
:104A70009847A642F9D1094E094D761B01F0AAFAD2
:104A8000B61006D0002455F8043B01349847A642DE
:104A9000F9D170BD40620008406200084862000819
:104AA00040620008F0B4860746D0541E002A3CD06D
:104AB000CAB2034601E0013C37D303F8012B9D073E
:104AC000F9D1032C2AD9CDB245EA05250F2C45EAA8
:104AD000054534D9A4F1100222F00F0C03F1200790
:104AE0001609674403F1100242E9045542E90255F0
:104AF0001032BA42F8D1721C14F00C0F03EB021200
:104B000004F00F0613D0331F23F0030304331344C0
:104B100042F8045B9342FBD106F003042CB1CAB205
:104B20001C4403F8012B9C42FBD1F0BC7047344677
:104B30001346002CF3D1F8E714460346C1E71A46A2
:104B40002646E0E7024B13B1024800F005B8704773
:104B500000000000654B0008002301461A46184675
:104B600000F01AB838B5084B084D5B1B9C1007D0F5
:104B7000043B1D44013C55F804399847002CF9D1F9
:104B8000BDE8384001F02CBA4C62000848620008C9
:104B9000704700BF704700BF2DE9F047DFF880A0E5
:104BA0000646DAF8000098460F469146FFF7F0FFF8
:104BB0001A4B1B68D3F8484124B365681F2D26DCC7
:104BC0005EB9AB1C0135DAF80000656044F823706B
:104BD000FFF7E0FF0020BDE8F08704EB850301212B
:104BE000C3F88890D4F88821A9400A43022EC4F85B
:104BF0008821C3F80881E4D1D4F88C311943C4F872
:104C00008C11DEE703F5A674C3F84841D5E7DAF85E
:104C10000000FFF7BFFF4FF0FF30DCE758600008EF
:104C2000380400200000000000B551EC100B284AA9
:104C300021F00043934285B025DD264A934209DDE9
:104C400010EE102A0B46FBF7C7FA41EC100B05B02B
:104C50005DF804FB684600F03FF800F0030001280F
:104C600019D0022826D0E8B19DED021B9DED000B66
:104C700000F06AFA53EC102B03F1004300EE903A77
:104C800005B05DF804FB9FED101B002000F0C4FF91
:104C900005B05DF804FB9DED021B9DED000B00F0DF
:104CA00053FAD4E79DED021B9DED000B012000F0AF
:104CB000B3FFCCE79DED021B9DED000B012000F042
:104CC000ABFFD7E7AFF3008000000000000000005A
:104CD000FB21E93FFFFFEF7F2DE9F04F53EC102B55
:104CE0002DED048B924923F000458D4289B0044696
:104CF00040F38F808F498D429B462DDCBBF1000F26
:104D0000194610EE100A80A3D3E9002340F3C781AF
:104D1000FBF762FA884B9D4206460F4600F09180F1
:104D20007BA3D3E90023FBF757FA02460B46C4E9FD
:104D3000002330463946FBF74FFA75A3D3E9002329
:104D4000FBF74AFAC4E902014FF0010A504609B0E4
:104D5000BDEC048BBDE8F08F78498D4240F3948020
:104D600077498D4210EE100A61DC4FEA255AAAF20B
:104D7000164AA5EB0A5116460F46FCF7B5F8FBF7A5
:104D800079FB804689463046394642464B46CDE956
:104D90000289FBF721FA6B4B0022FBF7D5FB0F468C
:104DA0000646FCF7A1F80546FBF764FB02460B46F6
:104DB00030463946CDE90423FBF70EFA614B002259
:104DC000FBF7C2FB02460B46CDE906230022002377
:104DD000FCF758F8002800F06081002D0CBF01237B
:104DE0000223594A019202215246009102A821460B
:104DF00000F0EAFABBF1000F8246A7DA6268E368C6
:104E000002F1004203F10043C0F1000A6260E36076
:104E10009CE7002000214FF0000AC4E9020150463F
:104E200084ED000B09B0BDEC048BBDE8F08F194692
:104E3000FBF7D2F94FF0000AC4E90201C4E900010E
:104E400084E735A3D3E90023FBF7C6F934A3D3E9FC
:104E5000002306460F46FBF7BFF902460B46C4E99E
:104E6000002330463946FBF7B7F92DA3D3E90023D9
:104E7000FBF7B2F94FF0010AC4E90201504609B04C
:104E8000BDEC048BBDE8F08F00F084FF57EC106B95
:104E900010EE100A24A3D3E900233946FBF754FB94
:104EA0002A4B0022FBF79AF9FCF71EF88246FBF723
:104EB000E1FA15A3D3E9002380468946FBF744FBBA
:104EC00002460B4630463946FBF786F910A3D3E974
:104ED000002306460F4640464946FBF735FBBAF12C
:104EE0001F0F49EC198B47EC186B8046894631DC63
:104EF000174B0AF1FF3253F82230AB422AD0024658
:104F00000B4630463946A4E000004054FB21F93FEF
:104F10003163621A61B4D03D0000601A61B4D03DC3
:104F20007370032E8A19A33B83C8C96D305FE43FB9
:104F3000FB21E93F7BD90240FB21F93FFB213941AD
:104F4000FFFFEF7F00007041DC6000080000E03FE1
:104F50005C60000842464B4651EC180BFBF73CF9ED
:104F60000A46C2F30A53C3EB1553102B01460646FB
:104F700017464FEA255573DD69A3D3E9002351ECA9
:104F8000190BFBF7E1FA59EC188B06460F4632462F
:104F90003B4618EE100A4946FBF71EF941EC180B88
:104FA000404653EC182B4946FBF716F932463B4670
:104FB000FBF712F95CA3D3E9002306460F4651EC38
:104FC000190BFBF7C1FA32463B46FBF705F9804661
:104FD000894642464B4651EC180BFBF7FDF80A4652
:104FE000C2F30A53ED1A312D01460646174637DD46
:104FF00050A3D3E9002351EC190BFBF7A5FA56ECAB
:10500000185B8046894642464B4618EE100A3146E8
:10501000FBF7E2F841EC180B314653EC182B28460D
:10502000FBF7DAF842464B46FBF7D6F843A3D3E941
:10503000002306460F4651EC190BFBF785FA324662
:105040003B46FBF7C9F88046894651EC180B4246AF
:105050004B46FBF7C1F8C4E9000106460F4601E0E4
:10506000C4E9001232463B4651EC180BFBF7B4F88A
:1050700042464B46FBF7B0F8BBF1000FC4E9020112
:10508000BFF664AE07F1004501F10043C4E90065D5
:10509000C4E90203CAF1000A58E60323A1E6FBF7BC
:1050A0009DF8234B9D4206460F4616D01AA3D3E91E
:1050B0000023FBF793F802460B46C4E90023304671
:1050C0003946FBF789F814A3D3E90023FBF786F8E8
:1050D0004FF0FF3AC4E9020138E611A3D3E90023F7
:1050E000FBF77CF810A3D3E9002306460F46FBF735
:1050F00075F802460B46C4E9002330463946FBF7F3
:105100006BF809A3D3E90023FBF768F84FF0FF3AE7
:10511000C4E902011AE600BF3163621A61B4D03DEE
:105120000000601A61B4D03D7370032E8A19A33B4E
:10513000FB21F93F0000002E8A19A33BC14920251D
:105140009A837B39000000002DE9F84F57EC106B73
:1051500027F00049B9F1795F2DED048B5BEC11ABC1
:1051600071DA10EE100A3946FBF7BEFE002800F097
:10517000F68032463B4630463946FBF7E5F97CA3DC
:10518000D3E9002304460D46FBF7DEF97AA3D3E901
:105190000023FBF723F822462B46FBF7D5F978A32B
:1051A000D3E90023FBF718F822462B46FBF7CCF98E
:1051B00075A3D3E90023FBF711F822462B46FBF732
:1051C000C3F973A3D3E90023FBF706F822462B4665
:1051D000FBF7BAF970A3D3E90023FAF7FFFF2246E1
:1051E0002B46FBF7B1F941EC180B714B002220461E
:1051F0002946FBF7A9F953EC182B8046894620462F
:105200002946FBF7A1F952465B4604460D46304657
:105210003946FBF799F902460B4620462946FAF72C
:10522000DBFF02460B4640464946FAF7D5FF0246E9
:105230000B4600205F49FAF7CFFFBDEC048B41EC31
:10524000100BBDE8F88F10EE102A10EE100A3B4646
:105250003946FBF779F946A3D3E9002304460D4606
:10526000FBF772F944A3D3E90023FAF7B7FF22460C
:105270002B46FBF769F942A3D3E90023FAF7ACFF09
:1052800022462B46FBF760F93FA3D3E90023FAF748
:10529000A5FF22462B46FBF757F93DA3D3E9002390
:1052A000FAF79AFF22462B46FBF74EF93AA3D3E9C9
:1052B0000023FAF793FF2B462246FBF745F93E4BB6
:1052C000994541EC180B90DD3C4B99453CDC0022A4
:1052D000A9F500133749002090469946FAF77CFF5C
:1052E00041EC190B324B002220462946FBF72CF9E2
:1052F00042464B46FAF770FF53EC182B804689461E
:1053000020462946FBF720F952465B4604460D46E7
:1053100030463946FBF718F902460B462046294627
:10532000FAF75AFF02460B4640464946FAF754FF41
:1053300002460B4651EC190BFAF74EFFBDEC048BFD
:1053400041EC100BBDE8F88F9FED157BDFF87090F6
:10535000B0EE479AF0EE679A4FF00008C2E7BDEC56
:10536000048B9FED110BBDE8F88F00BFAFF30080F9
:10537000D43888BEE9FAA8BDC4B1B4BD9EEE213EC2
:10538000AD529C804F7E923E9015CB19A001FA3E03
:105390007751C1166CC1563F4C5555555555A53FD3
:1053A000000000000000E73F000000000000F03FA8
:1053B0000000E03F0000F03F3233D33F0000E93F00
:1053C0000000D23F000000002DE9F04FADF5197D3F
:1053D000BB4CA29D089354F825400594013B12F163
:1053E000140F04900B910393C0F22683B549D31E8A
:1053F00081FB0301DB17C3EBA10307930133A3EB8D
:105400008303DB00D3180693079A039BD41A059AEB
:10541000D6181AD40136A39F4FF000084FF00009A8
:10542000264420AD08E057F82400FBF723F80134A8
:10543000B442E5E8020108D0002CF4DA0134404619
:105440004946B442E5E80201F6D1059B002BC0F2C3
:10545000C883089BDDF80C90DA000292059A1A4482
:105460000192049A20A901EBC30A0DF5E07B02EB3F
:10547000C308039B002B4FF000044FF0000511DB25
:10548000049E574677E90223F6E80201FBF75CF831
:1054900002460B4620462946FAF7A0FE464504463A
:1054A0000D46EFD1019B09F101099945EBE8024551
:1054B0000AF1080ADDD1059A04980CA901EB8203D0
:1054C00002990144083B8B460BA90993134601EB53
:1054D00082020A920193019A98A901EBC203002A61
:1054E00053E928452ADD0DF5E07909EBC2080DF1F5
:1054F000300A754B002220462946FBF725F8FBF7BA
:10550000F3FCFAF7B7FF714B002206460F46FBF794
:105510001BF802460B4620462946FAF75DFEFBF7CC
:10552000E3FC044678E902234AF8044B3046394646
:10553000FAF754FEC84504460D46DAD1DDF8189056
:1055400045EC104B484600F0B3FC55EC104B0022E4
:105550004FF07F5310EE100A2946FAF7F5FF41ECA1
:10556000100B00F021FC5A4B51EC100B0022FAF703
:10557000EBFF02460B4620462946FAF72DFE0D4664
:105580000446FBF7B1FC8046FAF774FF0B4602466F
:1055900029462046FAF720FE4B46002B06460F46CA
:1055A00040F39880019A0CA9013AC9F1180351F807
:1055B000225045FA03F101FA03F3EB1AC9F117057A
:1055C0000CA843FA05F5002D40F82230884400F37A
:1055D0008B800022002330463946FBF753FC00281D
:1055E00000F05682019B059A03F1FF3A524510DC08
:1055F00003F180430CAA013B0A9802EB83030022CB
:1056000053F80419834242EA0102F9D1002A40F01A
:10561000DC80059B0CAA013B52F82330002B40F0A4
:10562000CF80099A012352F8041901330029FAD0D6
:1056300001994A1CCB1802939146079B089902EBEB
:10564000030A019B0B44984620AB0AF1804A03EB06
:10565000C808A39B0AF1FF3A03EB8A0A70AB03EB7D
:10566000C20301935AF8040FFAF704FF0B4603999B
:1056700002460029C8E9002347464FF0000408F11C
:1056800008084FF0000511DB049E01E077E90223D2
:10569000F6E80201FAF758FF02460B462046294673
:1056A000FAF79CFD5E4504460D46EFD1019BE3E809
:1056B00002450193029B09F101099945D2DD09E7F1
:1056C00028620008ABAAAA2A0000703E00007041C0
:1056D000000020406BD1019B0CAA013B52F82350E3
:1056E000ED15002D7FF775AF019B002B08F1010828
:1056F00040F3CC810C9C002C51D1019B012B20D07C
:105700000CAB012253F8044F002C4BD0531C0CA9B6
:10571000C4F1807441F822400199994210DD0CAA2D
:105720000CA852F8232000EB830300EB81006FF0FC
:105730007F4100E01A688A1A43F8042B8342F9D1AA
:105740000124069B002B0EDD012B00F06A81022B49
:1057500009D1019B5A1E0CAB0CA953F82230C3F39C
:10576000150341F82230022D7FF433AF32463B4619
:10577000B9490020FAF730FD06460F46002C3FF4E9
:1057800028AF06989FEDB00B00F092FB30463946EB
:1057900053EC102BFAF720FD06460F4619E70123BC
:1057A0000022B4E7019901328A42ABD1C9E7AB4B81
:1057B0000022FBF785FB002840F05681054608E7EC
:1057C000019B5A1C9146029237E70CAB069A53F89C
:1057D0002A30CDF81C80183A0395069273B9019BC4
:1057E00003F18043023B0CA901EB830353F8041936
:1057F0000AF1FF3A183A0029F8D006929FED920B71
:10580000069800F055FBBAF1000F55EC104BC0F2B2
:10581000DE8170AB03EBCA0B0CAA0AF101030693FD
:1058200002EB83084FEACA030BF10809049358F806
:10583000040DFAF71FFE22462B46FAF785FE0646B0
:105840000F46874B2046294669E902670022FAF78E
:105850007BFE0CAB984504460D46E8D148ABCDE93C
:10586000013ADDF814A0BAF1000F4FF000092CDB6B
:1058700077A3D3E90023DFF8EC815F4600240025FD
:10588000002603E0B14510DBF8E80223F7E8020147
:10589000FAF75AFE02460B4620462946FAF79EFCC6
:1058A0000136B24504460D46ECDA019B029A03EB41
:1058B000C9034A45C3E90045ABF1080B09F10103EF
:1058C00006D0BAF1000F9946D2DA00240025ECE7A1
:1058D000A29BDDF808A0022B1EDC002B00F30F8139
:1058E00013D1049C019D0834002000212C4474E94C
:1058F0000223FAF773FCA542F9D1039B13B101F11E
:10590000004319460B9BC3E90001079B03F0070006
:105910000DF5197DBDE8F08FA29B032BF5D1BAF1EF
:10592000000F00F07081019A049BD318D3E9004561
:1059300002EBCA0B7BE902672046294632463B460A
:10594000FAF74CFCA046A94604460D4622462B46D3
:1059500030463946FAF740FC4B464246FAF73EFCE1
:10596000019B5B45CBE90045CBE90201E2D1BAF1ED
:10597000010F40F34881019A049B0AF1005A0AF191
:10598000FF3A13444FEACA01D3E9004501F1080A7E
:10599000029192440DF5947B7AE9026720462946EC
:1059A00032463B46FAF71AFCA046A94604460D4685
:1059B00022462B4630463946FAF70EFC42464B4605
:1059C000FAF70CFCD345CAE90045CAE90201E3D164
:1059D000029C019B0026002710341C4403F1100593
:1059E0003046394674E90223FAF7F8FBA542F9D1AB
:1059F00006460F46039B002B40F0BF80019A0B998F
:105A0000D2E90045D2E90223C1E90223079B03F052
:105A10000700C1E90467C1E900450DF5197DBDE83E
:105A2000F08F019B5A1E0CAB0CA953F82230C3F324
:105A3000160341F8223096E600216FF01703079114
:105A4000E0E400BFAFF30080000000000000F03F82
:105A500000000040FB21F93F0000F03F0000E03F64
:105A60000000703EF0610008019B002B08F1010866
:105A7000C8BF02253FF73EAE32463B466349002091
:105A8000FAF7AAFB022506460F46A2E5002458E6CF
:105A9000069B0395584247EC106BCDF81C8000F034
:105AA00007FA55EC104B5A4B10EE100A002229460B
:105AB000FBF706FA002856D0564B0022204629460E
:105AC000FAF742FDFBF710FA0646FAF7D3FC504B03
:105AD0000022FAF739FD0B46024629462046FAF71E
