:020000040804EE
:1000000000000220610D0408C50B0408C70B04089A
:10001000C90B0408CB0B0408CD0B0408000000003A
:100020000000000000000000000000003123040870
:10003000CF0B040800000000D12304083524040875
:10004000B10D0408B10D0408B10D0408B10D040888
:10005000B10D0408B10D0408B10D0408B10D040878
:10006000B10D0408B10D0408B10D0408B10D040868
:10007000B10D0408B10D0408B10D0408B10D040858
:10008000B10D0408B10D0408B10D0408B10D040848
:10009000B10D0408B10D0408B10D0408B10D040838
:1000A000B10D0408B10D0408B10D0408B10D040828
:1000B000B10D0408B10D0408B10D0408B10D040818
:1000C000B10D0408B10D0408B10D0408B10D040808
:1000D000B10D0408B10D0408B10D0408B10D0408F8
:1000E000B10D0408B10D0408B10D0408B10D0408E8
:1000F000B10D0408D10B0408B10D0408B10D0408BA
:10010000B10D0408B10D0408B10D0408B10D0408C7
:10011000B10D0408B10D0408B10D0408B10D0408B7
:10012000B10D0408B10D0408B10D0408B10D0408A7
:10013000B10D0408B10D0408B10D0408B10D040897
:10014000B10D0408B10D0408B10D0408B10D040887
:10015000B10D0408B10D0408B10D0408B10D040877
:10016000B10D0408B10D0408B10D0408B10D040867
:10017000B10D0408B10D0408B10D04080000000021
:08018000B10D0408B10D0408E3
:1001C00010B5054C237833B9044B13B10448AFF391
:1001D00000800123237010BD54080020000000009F
:1001E0004454040808B5034B1BB103490348AFF35B
:1001F000008008BD00000000580800204454040896
:1002000053B94AB9002908BF00281CBF4FF0FF317D
:100210004FF0FF3000F06EB9ADF1080C6DE904CE7F
:1002200000F006F8DDF804E0DDE9022304B07047D1
:100230002DE9F047089D04468C46002B40F0838052
:100240008A42174647D9B2FA82F242B1C2F120007F
:1002500024FA00F09140974040EA010C94404FEAA4
:100260001748230CBCFBF8F61FFA87FE08FB16C1E3
:1002700043EA014306FB0EF1994209D9FB1806F146
:10028000FF3080F01981994240F21681023E3B44D2
:100290005B1AA4B2B3FBF8F008FB103344EA034442
:1002A00000FB0EFEA64509D93C1900F1FF3380F092
:1002B0000581A64540F2028102383C4440EA0640EE
:1002C000A4EB0E0400261DB1D4400023C5E9004371
:1002D0003146BDE8F08702B9FFDEB2FA82F2002AA9
:1002E00050D1CB1B4FEA174E1FFA87F80126B3FBFC
:1002F000FEFC210C0EFB1C3341EA034108FB0CF30E
:100300008B4207D979180CF1FF3002D28B4200F2F0
:10031000E9808446C91AA3B2B1FBFEF00EFB1011AE
:1003200043EA014408FB00F8A04507D93C1900F155
:10033000FF3302D2A04500F2D9801846A4EB08048E
:1003400040EA0C40BFE78B4209D9002D00F0B18094
:100350000026C5E9000130463146BDE8F087B3FA12
:1003600083F6002E4AD18B4202D3824200F2B8803B
:10037000841A61EB030101208C46002DA8D0C5E949
:10038000004CA5E7C2F1200320FA03F6974001FADA
:1003900002F04FEA174ED9403043030CB1FBFEF692
:1003A0001FFA87F80EFB161143EA014306FB08F11A
:1003B000994204FA02F409D9FB1806F1FF3C80F0D7
:1003C0008D80994240F28A80023E3B445B1A81B2A2
:1003D000B3FBFEF00EFB103341EA034100FB08F3D0
:1003E0008B4207D9791800F1FF3C73D28B4271D947
:1003F00002383944CB1A40EA064678E7C6F1200CA9
:1004000003FA06F422FA0CF31C4320FA0CF701FA63
:1004100006F34FEA144E21FA0CF11F433B0CB1FBDB
:10042000FEF91FFA84F80EFB191143EA014109FB9A
:1004300008FA8A4502FA06F200FA06F308D96118AA
:1004400009F1FF3048D28A4546D9A9F10209214471
:10045000A1EB0A01BFB2B1FBFEF00EFB101147EA9F
:10046000014700FB08F8B84507D9E71900F1FF314B
:100470002ED2B8452CD90238274440EA0940A7EBD0
:100480000807A0FB02894F45C64649461AD317D034
:100490005DB1B3EB0E0267EB010707FA0CFCF2400B
:1004A0004CEA0202F740C5E9002700263146BDE8C4
:1004B000F0872E4628460BE70646E9E61846FDE695
:1004C0004345E5D2B8EB020E69EB04010138DFE7E2
:1004D0000846D2E760468DE78146B9E7664675E78C
:1004E00030464AE7ACF1020C394413E702383C4489
:1004F00024E700BF704700BF844641EA000313F0C1
:1005000003036DD1403A41D351F8043B40F8043B1A
:1005100051F8043B40F8043B51F8043B40F8043BDD
:1005200051F8043B40F8043B51F8043B40F8043BCD
:1005300051F8043B40F8043B51F8043B40F8043BBD
:1005400051F8043B40F8043B51F8043B40F8043BAD
:1005500051F8043B40F8043B51F8043B40F8043B9D
:1005600051F8043B40F8043B51F8043B40F8043B8D
:1005700051F8043B40F8043B51F8043B40F8043B7D
:1005800051F8043B40F8043B403ABDD2303211D31D
:1005900051F8043B40F8043B51F8043B40F8043B5D
:1005A00051F8043B40F8043B51F8043B40F8043B4D
:1005B000103AEDD20C3205D351F8043B40F8043B1D
:1005C000043AF9D2043208D0D2071CBF11F8013B1B
:1005D00000F8013B01D30B8803806046704700BFE1
:1005E000082A13D38B078DD010F003038AD0C3F1F0
:1005F0000403D21ADB071CBF11F8013B00F8013BD2
:1006000080D331F8023B20F8023B7BE7043AD9D390
:10061000013A11F8013B00F8013BF9D20B78037065
:100620004B7843708B788370604670470000000001
:1006300000000000000000000000000000000000BA
:1006400090F800F06DE9024520F007016FF0000C12
:1006500010F0070491F820F040F049804FF00004BA
:100660006FF00700D1E9002391F840F000F1080095
:1006700082FA4CF2A4FA8CF283FA4CF3A2FA8CF3CD
:100680004BBBD1E9022382FA4CF200F10800A4FA34
:100690008CF283FA4CF3A2FA8CF3E3B9D1E9042388
:1006A00082FA4CF200F10800A4FA8CF283FA4CF3BF
:1006B000A2FA8CF37BB9D1E9062301F1200182FA79
:1006C0004CF200F10800A4FA8CF283FA4CF3A2FA7F
:1006D0008CF3002BC6D0002A04BF04301A4612BA8D
:1006E000B2FA82F2FDE8024500EBD2007047D1E990
:1006F000002304F00305C4F100004FEAC50514F01F
:10070000040F91F840F00CFA05F562EA05021CBFEF
:1007100063EA050362464FF00004A9E70000000009
:1007200001F0FF01102A2BDB10F0070F08D010F8A2
:10073000013B013A8B422DD010F0070F42B3F6D1A6
:10074000F0B441EA012141EA014122F007047FF0BF
:1007500000070023F0E80256083C85EA010586EA16
:10076000010685FA47F5A3FA87F586FA47F6A5FA52
:1007700087F68EB9EED1F0BC01F0FF0102F007025E
:1007800032B110F8013B013A83EA010313B1F8D109
:100790000020704701387047002D06BF35460338EA
:1007A000073815F0010F07D1013015F4807F02BF23
:1007B000013015F4C03F0130F0BC0138704700BF74
:1007C00010B5012403E00124C82001F0DBFC00F097
:1007D00033FB204600F066FB082CF4D00134E4B271
:1007E000F2E7000010B567E004460A2001F0CAFCF9
:1007F0000221544800F000FD48B10221514800F0A8
:10080000FBFC002853D1012001F0BCFCF5E70124DA
:10081000F3E70A2001F0B6FC04214A4800F0ECFCA2
:1008200048B10421474800F0E7FC00283FD10120EF
:1008300001F0A8FCF5E70224F3E70A2001F0A2FC8E
:100840000821404800F0D8FC40B108213D4800F0A4
:10085000D3FC60BB012001F095FCF6E70324F4E72C
:100860000A2001F08FFC1021364800F0C5FC40B191
:100870001021344800F0C0FCC8B9012001F082FC0E
:10088000F6E70424F4E70A2001F07CFC20212D483F
:1008900000F0B2FC012841D0002402E0012001F068
:1008A00071FC2021274800F0A7FC0128F6D0022C7B
:1008B00042D0012001F066FC0221224800F09CFC9D
:1008C000002891D004211F4800F096FC044600281F
:1008D0009FD008211B4800F08FFC04460028ACD0B4
:1008E0001021184800F088FC04460028B8D02021C8
:1008F000144800F081FC0128C5D04021114800F0C7
:100900007BFC0128D5D10A2001F03CFC40210D4898
:1009100000F072FC01280DD0002404E00524C0E79B
:10092000012001F02FFC4021064800F065FC012861
:10093000F6D0BCE70624F6E74FF0006000F03AFA84
:10094000B7E700BF0010024008B5074A002107487A
:1009500001F0ACFB064B1860064A0021064801F086
:10096000A5FB064B186008BD90540408C107040895
:10097000740800206C540408E5070408700800207F
:1009800070B588B0002403940494059406940794E9
:100990000094214B1A6B42F010021A631A6B02F09A
:1009A00010020092009A01941A6B42F080021A63BE
:1009B0001A6B02F080020192019A02941A6B42F0C3
:1009C00001021A631B6B03F001030293029B134D98
:1009D00001224FF47F41284600F015FC1E230393AB
:1009E00004940126059603A9284600F01FFB602306
:1009F000039304940223059303A9284600F016FBF1
:100A00004FF47F43039304960594069403A9284664
:100A100000F00CFB08B070BD00380240001002402E
:100A200008B50268034B9A4200D008BD00F098FA5E
:100A3000FBE700BF0020004072B6FEE700B595B0AE
:100A40003022002108A803F04DFB002303930493F8
:100A50000593069307930193204A116C41F080514E
:100A60001164126C02F080520192019A02931C4BA5
:100A70001A6842F480421A601B6803F480430293B0
:100A8000029B012308934FF48033099302220E92B4
:100A90004FF480030F9304231093A8211191129215
:100AA000139308A800F0B6FB98B90F230393022311
:100AB0000493002305934FF4A05306934FF48053FF
:100AC0000793052103A800F001FE20B915B05DF8D9
:100AD00004FBFFF7B1FFFFF7AFFF00BF0038024094
:100AE0000070004008B500F021FAFFF7A7FFFFF7FC
:100AF00047FF00F0D1F801F097FAFFF725FF01F06A
:100B0000B1FAFEE700B583B0002200920D4B596C9C
:100B100041F480415964596C01F48041009100997D
:100B20000192196C41F0805119641B6C03F08053E1
:100B30000193019B0F216FF0010000F035FA03B023
:100B40005DF804FB0038024010B588B00146002271
:100B50002D2000F029FA2D2000F05AFA00240194EB
:100B6000144B1A6C42F480721A641B6C03F4807389
:100B70000193019B02A903A800F07EFE00F05CFE39
:100B800043000D48A0FB03239B0C013B0B480C4A80
:100B9000026040F2E732C26043600461846001F0A9
:100BA0005FF810B1012008B010BD044800F021FF2B
:100BB000F9E700BF0038024083DE1B4378080020BD
:100BC00000200040FEE7FEE7FEE7FEE7FEE7704795
:100BD00008B5024800F022FF08BD00BF78080020D9
:100BE00070B50C4616460025B54207DAAFF3008013
:100BF000214601F8010B01350C46F5E7304670BD82
:100C000070B50C4616460025B54205DA14F8010BFE
:100C100000F096F80135F7E7304670BD4FF0FF3031
:100C200070474FF400534B6000207047012070471D
:100C30000020704710B503460C4A0D490D48006866
:100C400040B10C4800680344521A934206D8094A3E
:100C5000136010BD0748084C0460F2E702F04EFF35
:100C60000C2303604FF0FF30F3E700BF00000220C9
:100C700000040000B808002088160020044BD3F8B8
:100C8000882042F47002C3F88820024A9A607047B4
:100C900000ED00E00000040808B50A480A4B0360B4
:100CA0004FF4E133436000238360C36003610C228F
:100CB00042618361C36101F017F900B908BDFFF714
:100CC000BBFEFBE7BC0800200010014000B589B066
:100CD000002303930493059306930793026803F19B
:100CE000804303F588339A4202D009B05DF804FBD3
:100CF0000022019203F59433596C41F010015964BC
:100D0000596C01F01001019101990292196B41F0A7
:100D1000010119631B6B03F001030293029B4FF463
:100D2000C0630393022304930592032306930723CE
:100D3000079303A9014800F079F9D6E700000240C3
:100D400000B583B001904FF6FF73012201A903485B
:100D500001F0F9F8019803B05DF804FBBC0800202D
:100D6000DFF834D0002103E00C4B5B5843500431D2
:100D70000B480C4B42189A42F6D30B4A02E0002370
:100D800042F8043B094B9A42F9D3FFF777FF02F090
:100D9000BBFEFFF7A7FE7047000002201C550408A9
:100DA000000000205408002054080020881600206D
:100DB000FEE7000038B5436803F07F43B3F1006FEE
:100DC0002BD104460268174B1340174A934203D0B5
:100DD000164803F031FA23E0154803F02DFA00F02D
:100DE00069FD656800230BE0124A03F120004FF013
:100DF000FF3142F8201003F1600042F82010013367
:100E0000072BF1DD236883F30888236883F30988BF
:100E1000002383F31488A84702E0044803F00CFA87
:100E200038BD00BF0000FE2F00000220DC54040883
:100E3000CC54040800E100E010B5194C01224FF435
:100E40008071204600F0DFF901224FF40071204646
:100E500000F0D9F901224FF48061204600F0D3F967
:100E600001224FF40061204600F0CDF901224FF439
:100E70008051204600F0C7F901224FF4005120466E
:100E800000F0C1F901224FF48041204600F0BBF987
:100E900001224FF40041204600F0B5F910BD00BF1B
:100EA0000010024008B5013807280BD8DFE800F031
:100EB000040B121920272E3500224FF480711A4896
:100EC00000F0A1F908BD00224FF40071164800F0AF
:100ED0009AF9F7E700224FF48061134800F093F984
:100EE000F0E700224FF400610F4800F08CF9E9E7C9
:100EF00000224FF480510C4800F085F9E2E700220F
:100F00004FF40051084800F07EF9DBE700224FF46F
:100F10008041054800F077F9D4E700224FF4004102
:100F2000014800F070F9CDE70010024008B50B4B06
:100F30001A6842F400721A601A6842F480621A60F9
:100F40001A6842F480721A60032000F01BF8002037
:100F5000FFF7FAFDFFF7D6FD002008BD003C024078
:100F6000034A1168034B1B780B441360704700BFA2
:100F7000FC08002004000020014B1868704700BFE7
:100F8000FC080020074AD36823F4E0631B041B0C11
:100F9000000200F4E060034343F0BF6343F4003316
:100FA000D360704700ED00E030B4174BDB68C3F34B
:100FB0000223C3F10704042C28BF04241D1D062DA1
:100FC00018D9033B4FF0FF3505FA04F421EA040178
:100FD000994005FA03F322EA0303194300280BDBC7
:100FE0000901C9B200F1604000F5614080F80013CA
:100FF00030BC70470023E5E700F00F000901C9B2DB
:10100000024B1954F4E700BF00ED00E014ED00E0DE
:10101000002807DB00F01F02400901239340024A29
:1010200042F82030704700BF00E100E000230F2BA2
:1010300000F2D980F0B583B039E0072200E0002249
:10104000B2403A430234684E46F82420674A146896
:10105000EA4324EA05064F6817F4803F01D045EAC9
:101060000406624C2660646802EA04064F6817F4BE
:10107000003F01D045EA04065C4C6660A46802EAC1
:1010800004064F6817F4801F01D045EA0406574C48
:10109000A660E46822404E6816F4001F01D045EABD
:1010A0000402524CE26001330F2B00F29A800122BD
:1010B0009A400C6804EA020532EA0404F3D14C6851
:1010C000661E012E03D9112C01D0122C12D1866874
:1010D0005F000324BC4026EA0406CC68BC403443CD
:1010E0008460466826EA02064C68C4F300129A40FF
:1010F00032434260C7685E000324B440E24327EAFB
:1011000004078C68B4403C43C4604C68022C01D096
:10111000122C13D1DF08083750F827E003F007043A
:101120004FEA840C0F2404FA0CF42EEA040E0C6926
:1011300004FA0CF444EA0E0440F827400468144012
:101140004A6802F00302B240224302604A6812F089
:10115000805FA8D000220192254A546C44F4804458
:101160005464526C02F480420192019A9C08A61CBD
:101170001D4A52F8267003F0030296000F22B24077
:1011800027EA02071B4A90423FF459AF02F58062FA
:1011900090421AD002F58062904218D002F5806227
:1011A000904216D002F58062904214D002F580621F
:1011B000904212D002F58062904210D002F5806217
:1011C00090423FF43AAF08223AE7012238E7022280
:1011D00036E7032234E7042232E7052230E706220D
:1011E0002EE703B0F0BD704700380140003C0140DD
:1011F00000380240000002400369194201D001207A
:101200007047002070470AB181617047090481610D
:1012100070470000002800F0D98170B582B0044604
:10122000036813F0010F3BD0A64B9B6803F00C033F
:10123000042B2CD0A34B9B6803F00C03082B21D06C
:101240006368B3F5803F4FD0B3F5A02F52D09D4BCC
:101250001A6822F480321A601A6822F480221A6016
:101260006368002B50D0FFF787FE0546954B1B683F
:1012700013F4003F14D1FFF77FFE401B6428F5D91B
:101280000320AAE18F4B5B6813F4800FD8D08D4BFD
:101290001B6813F4003F03D06368002B00F09881B3
:1012A000236813F0020F54D0864B9B6813F00C0F89
:1012B0003ED0844B9B6803F00C03082B33D0E368CB
:1012C000002B67D0804B01221A60FFF755FE0546C0
:1012D0007C4B1B6813F0020F53D1FFF74DFE401BF0
:1012E0000228F5D9032078E1764A136843F4803365
:1012F0001360B5E7734B1A6842F480221A601A68CB
:1013000042F480321A60ABE7FFF736FE05466D4BBC
:101310001B6813F4003FC3D0FFF72EFE401B642868
:10132000F5D9032059E1674B5B6813F4800FC6D1F0
:10133000644B1B6813F0020F03D0E368012B40F0ED
:101340004981604A136823F0F803216943EAC10325
:101350001360236813F0080F40D0636963B35B4BDD
:1013600001221A60FFF708FE0546564B5B6F13F02B
:10137000020F33D1FFF700FE401B0228F5D90320EE
:101380002BE1504A136823F0F803216943EAC103B3
:101390001360DEE74C4B00221A60FFF7EDFD0546B7
:1013A000484B1B6813F0020FD3D0FFF7E5FD401B3D
:1013B0000228F5D9032010E1444B00221A60FFF700
:1013C000DBFD05463F4B5B6F13F0020F06D0FFF7C6
:1013D000D3FD401B0228F5D90320FEE0236813F05B
:1013E000040F78D0374B1B6C13F0805F0DD10023B6
:1013F0000193344B1A6C42F080521A641B6C03F058
:1014000080530193019B012500E00025304B1B68B0
:1014100013F4807F21D0A368012B32D0052B36D066
:10142000284B1A6F22F001021A671A6F22F0040289
:101430001A67A368002B34D0FFF79EFD0646214BA8
:101440001B6F13F0020F45D1FFF796FD801B41F291
:1014500088339842F3D90320BFE01D4A136843F450
:1014600080731360FFF788FD0646194B1B6813F461
:10147000807FD0D1FFF780FD801B0228F5D90320A3
:10148000ABE0104A136F43F001031367D1E70D4B34
:101490001A6F42F004021A671A6F42F001021A67CB
:1014A000C7E7FFF769FD0646064B1B6F13F0020FF7
:1014B00010D0FFF761FD801B41F288339842F3D9C9
:1014C00003208AE00038024000004742800E474275
:1014D00000700040E5B9A369002B7DD0464A9268B0
:1014E00002F00C02082A51D0022B17D0434B0022E5
:1014F0001A60FFF741FD04463F4B1B6813F0007F65
:1015000042D0FFF739FD001B0228F5D9032064E023
:10151000394A136C23F080531364DCE7374B002205
:101520001A60FFF729FD0546334B1B6813F0007F57
:1015300006D0FFF721FD401B0228F5D903204CE01F
:10154000E369226A1343626A43EA8213A26A520879
:10155000013A43EA0243E26A43EA0263264A5360DD
:10156000264B01221A60FFF707FD0446224B1B6839
:1015700013F0007F06D1FFF7FFFC001B0228F5D90E
:1015800003202AE0002028E0002026E0012B26D0BE
:10159000194B5B6803F48001E269914221D103F0A9
:1015A0003F02216A8A421ED1616A47F6C0721A4020
:1015B0008A421AD103F44032A16A8A4217D103F059
:1015C0007063E26A934214D1002006E00120704764
:1015D000012002E0012000E0002002B070BD0120E7
:1015E000FBE70120F9E70120F7E70120F5E70120FB
:1015F000F3E70120F1E700BF0038024060004742F6
:10160000F8B52F4B9B6803F00C03042B53D0082B29
:1016100053D12B4B5A6802F03F025B6813F4800FE2
:1016200028D0274B5B68C3F3881358010021C01AE8
:1016300061F100018E0146EA906687013C1A66EB73
:101640000105E90041EA5471E000C01841F10001D0
:101650004B0243EAD0534402204619460023FEF7CA
:10166000CFFD174B5B68C3F3014301335B00B0FB55
:10167000F3F023E0124B5B68C3F388135C01002591
:10168000E41A65F10005AE0146EA9466A701381B2D
:1016900066EB0501CC0044EA5074C500E81844F13B
:1016A00000018B0243EA905384022046194600232E
:1016B000FEF7A6FDD5E7034800E00348F8BD00BFEC
:1016C0000038024000127A000024F400002800F0E4
:1016D0009B8070B50D4604464F4B1B6803F00F030B
:1016E0008B4208D2CBB24C4A1370136803F00F033D
:1016F0008B4240F08B80236813F0020F17D013F059
:10170000040F04D0454A936843F4E0539360236880
:1017100013F0080F04D0414A936843F46043936088
:101720003E4A936823F0F003A1680B43936023685B
:1017300013F0010F32D06368012B21D09A1E012AC9
:1017400025D9364A126812F0020F61D033498A68EF
:1017500022F0030213438B60FFF70EFC06462F4B6B
:101760009B6803F00C036268B3EB820F16D0FFF79F
:1017700003FC801B41F288339842F0D9032042E0F9
:10178000264A126812F4003FE0D101203BE0234AD0
:10179000126812F0007FD9D1012034E01E4B1B6883
:1017A00003F00F03AB4207D9EAB21B4B1A701B6858
:1017B00003F00F03AB422DD1236813F0040F06D0C2
:1017C000164A936823F4E053E1680B43936023685F
:1017D00013F0080F07D0114A936823F4604321697E
:1017E00043EAC1039360FFF70BFF0C4B9B68C3F305
:1017F00003130B4AD35CD8400A4B18600A4B186895
:10180000FFF7A2F9002070BD012070470120FAE720
:101810000120F8E70120F6E7003C024000380240D2
:10182000B45404080000002008000020014B186890
:10183000704700BF0000002008B5FFF7F7FF044B1A
:101840009B68C3F38223034AD35CD84008BD00BF22
:1018500000380240C454040808B5FFF7E7FF044B02
:101860009B68C3F34233034AD35CD84008BD00BF32
:1018700000380240C45404080F2303600B4B9A68DD
:1018800002F0030242609A6802F0F00282609A68F5
:1018900002F4E052C2609B68DB0803F4E05303618A
:1018A000034B1B6803F00F030B60704700380240C6
:1018B000003C024038B5FFF75FFB0446464A136818
:1018C00043F001031360444B1B6813F0020F06D171
:1018D000FFF752FB001B0228F5D9032038BD3E4D0F
:1018E0002B6843F080032B60FFF746FB0446002380
:1018F000AB60394B9B6813F00C0F08D0FFF73CFB33
:10190000001B41F288339842F3D90320E6E7FFF742
:1019100033FB0446304A136823F4502313602E4BE4
:101920001B6813F4003F06D0FFF726FB001B64285A
:10193000F5D90320D2E7FFF71FFB0446264A1368B8
:1019400023F080731360244B1B6813F0007F06D0D4
:10195000FFF712FB001B0228F5D90320BEE7FFF7B3
:101960000BFB04461C4A136823F0806313601A4B78
:101970001B6813F0006F06D0FFF7FEFA001B022869
:10198000F5D90320AAE7144B144A5A60144AC3F845
:101990008420DA6822F4F852DA60DA6822F400521D
:1019A000DA60DA6842F41F02DA60DA6842F40012A0
:1019B000DA605A6F22F001025A675A6F42F0807261
:1019C0005A67084B084A1A60084B1868FFF7BCF8BA
:1019D000002883D0012081E7003802401030000445
:1019E00000300020000000200024F4000800002047
:1019F00070470268D36843F00103D36002689368BC
:101A000003F00703062B03D0136843F001031360B0
:101A100000207047704770477047704710B5044604
:101A200003681A6912F0020F11D0DA6812F0020F7F
:101A30000DD06FF002021A610123037703689B69DE
:101A400013F0030F70D0FFF7E6FF0023237723681E
:101A50001A6912F0040F12D0DA6812F0040F0ED0D7
:101A60006FF004021A610223237723689B6913F441
:101A7000407F5FD02046FFF7CEFF00232377236807
:101A80001A6912F0080F12D0DA6812F0080F0ED09F
:101A90006FF008021A61042323772368DB6913F0CF
:101AA000030F4ED02046FFF7B6FF002323772368AD
:101AB0001A6912F0100F12D0DA6812F0100F0ED05F
:101AC0006FF010021A61082323772368DB6913F48F
:101AD000407F3DD02046FFF79EFF002323772368F9
:101AE0001A6912F0010F03D0DA6812F0010F36D133
:101AF00023681A6912F0800F03D0DA6812F0800FA1
:101B000034D123681A6912F0400F03D0DA6812F05A
:101B1000400F32D123681A6912F0200F03D0DA681F
:101B200012F0200F30D110BDFFF774FF2046FFF7F1
:101B300073FF8AE72046FFF76DFF2046FFF76CFF33
:101B40009BE72046FFF766FF2046FFF765FFACE7FF
:101B50002046FFF75FFF2046FFF75EFFBDE76FF00F
:101B600001021A612046FEF75BFFC1E76FF08002B9
:101B70001A61204600F08FF8C3E76FF040021A6147
:101B80002046FFF74AFFC5E76FF020021A612046A2
:101B900000F080F8C7E700000368304A904212D096
:101BA000B0F1804F0FD0A2F57C4290420BD002F5ED
:101BB0008062904207D002F58062904203D002F525
:101BC0007842904203D123F070034A681343234ABA
:101BD00090422AD0B0F1804F27D0A2F57C429042AB
:101BE00023D002F5806290421FD002F580629042BD
:101BF0001BD002F57842904217D002F57052904205
:101C000013D002F5806290420FD002F580629042BC
:101C10000BD0A2F59832904207D002F58062904234
:101C200003D002F58062904203D123F44073CA6866
:101C3000134323F080034A69134303608B68C36234
:101C40000B688362054B984203D003F5806398428A
:101C500001D10B6903630123436170470000014018
:101C6000B0B110B5044690F83D3063B1022384F85A
:101C70003D30214651F8040BFFF78EFF012384F815
:101C80003D30002010BD80F83C30FFF7B1FEEDE79D
:101C9000012070477047704770B5044602681369A9
:101CA00023F44053C1680B431361836802691343F3
:101CB00042691343C2691A430168CB6823F416438F
:101CC00023F00C031343CB600268536923F4407381
:101CD00081690B435361C369B3F5004F36D0036884
:101CE000654A934200F09A8002F58062934200F0C8
:101CF0009580FFF7A1FD0026051846EB06012D187B
:101D000046EB0101CB0043EA5573EA00154619463C
:101D100063689A009B0F281846EB0101FEF770FAE2
:101D2000564DA5FB00325109642303FB11031B012F
:101D30003233A5FB03235B0903F0F00202EB01122F
:101D400003F00F03216813448B6093E003684A4A51
:101D5000934233D002F5806293422FD0FFF76CFD9F
:101D60000026051846EB06012D1846EB0101CB00B5
:101D700043EA5573EA0015461946626833469218DD
:101D800046EB0303281846EB0101FEF739FA3B4DF9
:101D9000A5FB00325109642303FB1103DB0032333E
:101DA000A5FB03235B095A0002F4F87202EB01124F
:101DB00003F00703216813448B605BE0FFF74CFDE1
:101DC0000026051846EB06012D1846EB0101CB0055
:101DD00043EA5573EA00154619466268334692187D
:101DE00046EB0303281846EB0101FEF709FA234DE1
:101DF000A5FB00325109642303FB1103DB003233DE
:101E0000A5FB03235B095A0002F4F87202EB0112EE
:101E100003F00703216813448B602BE0FFF71CFDE0
:101E20000026051846EB06012D1846EB0101CB00F4
:101E300043EA5573EA001546194663689A009B0FFA
:101E4000281846EB0101FEF7DBF90C4DA5FB00322B
:101E50005109642303FB11031B013233A5FB032348
:101E60005B0903F0F00202EB011203F00F0321689B
:101E700013448B6070BD00BF001001401F85EB5103
:101E80002DE9F84305460F4616469946DDF82080B1
:101E90002C68246837EA04030CBF01240024B442F0
:101EA0001FD1B8F1FF3FF3D0B8F1000F05D0FFF715
:101EB00063F8A0EB09004045EAD92A68D36823F407
:101EC000D073D3602A68536923F001035361202340
:101ED00085F8393085F83A30002385F8383003200A
:101EE00000E00020BDE8F88358B310B5044690F830
:101EF00039300BB3242384F839302268D36823F4B3
:101F00000053D3602046FFF7C7FE2268136923F40D
:101F1000904313612268536923F02A0353612268B6
:101F2000D36843F40053D3600020E063202384F897
:101F3000393084F83A3010BD80F83830FEF7C6FEEC
:101F4000D8E7012070472DE9F04383B01E4690F892
:101F50003930DBB2202B59D104460D46904600297A
:101F600058D0002A58D090F83830012B56D0012391
:101F700080F838304FF00009C0F83C90212380F8F9
:101F80003930FEF7F9FF0746A4F82480A4F826802C
:101F900084F8389017E000963B46002280212046C6
:101FA000FFF76EFF00283BD12B882268C3F308039C
:101FB000536023690BB9023505E0013503E015F8DC
:101FC000012B23685A60E38C9BB29BB1E28C92B2E6
:101FD000013A92B2E284A368B3F5805FDBD0009649
:101FE0003B46002280212046FFF74AFF0028E6D02A
:101FF00003200CE000963B46002240212046FFF7DC
:102000003FFF78B9202384F8393000E0022003B084
:10201000BDE8F0830120FAE70120F8E70220F6E7A7
:102020000320F4E70320F2E7EFF305837BB9EFF336
:10203000108313B9EFF311831BB1094B1B68022BFB
:1020400008D0074B186840B901221A6070476FF03A
:10205000050070476FF0050070474FF0FF30704784
:102060005C0B002008B5EFF30583A3B9EFF31083F1
:1020700013B9EFF311831BB10B4B1B68022B0DD06F
:10208000094B1B68012B0CD1074B02221A6001F08F
:1020900013F8002008BD6FF00500FBE76FF00500A6
:1020A000F8E74FF0FF30F5E75C0B0020F0B587B0A4
:1020B00000240594EFF30584002C38D1EFF310834E
:1020C00013B9EFF311831BB12D4B1B68022B2ED0DC
:1020D00068B322B31568936903B918235C1E372CC3
:1020E00049D8546814F0010F47D156696EB14FEAD0
:1020F000960C94682CB1D7685B2F02D9176907B189
:10210000C6B92CB14FF0FF340EE04FF0800CF0E771
:10211000D4688CB9146994B14FF0FF3404E01546CB
:10212000002418234FF0800C012C0AD0ACB1059884
:1021300007B0F0BD0124F7E74FF0FF34F4E70024C7
:10214000F2E7146992680292019400930B4662468A
:10215000294600F043FF0590E9E705AA01920093A4
:102160000B461FFA8CF2294600F072FF0128DED0E0
:1021700000230593DBE70020DAE70020D8E700BF63
:102180005C0B002008B5EFF3058383B9EFF31083F0
:1021900013B9EFF311831BB1084B1B68022B09D055
:1021A00008B9002008BD01F0E7F80020FAE76FF059
:1021B0000500F7E76FF00500F4E700BF5C0B0020B7
:1021C000034B0360034B0B6080231360704700BF19
:1021D000000B002000090020034B0360034B0B6041
:1021E0004FF4807313607047600F0020600B002075
:1021F00000F1080343604FF0FF328260C360036167
:1022000000230360704700230361704743684B60FD
:102210009A688A60516099600861036801330360BD
:10222000704730B40D68B5F1FF3F11D000F10803DD
:102230001C465B681A68AA42FAD963684B609960C9
:102240008C606160086103680133036030BC7047D3
:102250000469F2E70369416882688A6041685160F5
:102260005A68824206D0002202611A68013A1A6056
:102270001868704782685A60F5E7000082B0002352
:1022800001930D4B1B68B3F1FF3F08D04FF0500393
:1022900083F31188BFF36F8FBFF34F8FFEE74FF0CB
:1022A000500383F31188BFF36F8FBFF34F8F019BF0
:1022B000002BFCD002B070470C00002008480068DA
:1022C000006880F308884FF0000080F3148862B63D
:1022D00061B6BFF34F8FBFF36F8F00DF00BF000009
:1022E00008ED00E0DFF80C00016841F470010160C6
:1022F0007047000088ED00E04FF0807340F8043C28
:1023000021F0010140F8081C054B40F80C3C40F856
:10231000202C6FF0020340F8243C4438704700BF83
:102320007D22040800000000000000000000000002
:10233000074B19680868B0E8F04F80F30988BFF3CD
:102340006F8F4FF0000080F311887047AFF300806B
:10235000041000204FF0500383F31188BFF36F8FF8
:10236000BFF34F8F0A4A136801331360012B00D06B
:102370007047084B1B6813F0FF0FF9D04FF0500364
:1023800083F31188BFF36F8FBFF34F8FFEE700BF5A
:102390000C00002004ED00E0094B1B6843B94FF02E
:1023A000500383F31188BFF36F8FBFF34F8FFEE7A6
:1023B000013B034A13600BB983F31188704700BFD8
:1023C0000C000020000000000000000000000000E1
:1023D000EFF30980BFF36F8F154B1A681EF0100FD3
:1023E00008BF20ED108A20E9F04F10602DE90900A8
:1023F0004FF0500080F31188BFF34F8FBFF36F8F02
:1024000000F0E0FF4FF0000080F3118809BC19686C
:102410000868B0E8F04F1EF0100F08BFB0EC108A4B
:1024200080F30988BFF36F8F704700BFAFF3008060
:102430000410002008B54FF0500383F31188BFF358
:102440006F8FBFF34F8F00F08FFE18B1034B4FF02B
:1024500080521A60002383F3118808BD04ED00E068
:10246000084A0023136008490B60084B1B680849A1
:10247000A1FB03139B09013B06490B600723136073
:10248000704700BF10E000E018E000E0000000200E
:10249000D34D621014E000E03A4B1A683A4B9A426E
:1024A00029D0384B1A68394B9A422DD010B582B0DA
:1024B000374B1A78D2B20192FF221A701B78DBB226
:1024C0008DF803309DF8033003F05003314A137048
:1024D000314B07221A609DF8033013F0800F1CD097
:1024E0002D4A1368013B13609DF803305B00DBB29B
:1024F0008DF80330EFE74FF0500383F31188BFF3FB
:102500006F8FBFF34F8FFEE74FF0500383F31188B7
:10251000BFF36F8FBFF34F8FFEE71F4B1B68032B7B
:1025200008D04FF0500383F31188BFF36F8FBFF3D0
:102530004F8FFEE71B0203F4E063174A1360019B11
:10254000DBB2134A1370154B1A6842F470021A601A
:102550001A6842F070421A60FFF782FF0024104BA5
:102560001C60FFF7BFFE0F4A136843F0404313603F
:10257000FFF7A4FE00F026FFFFF780FE204602B022
:1025800010BD00BF00ED00E071C20F4170C20F41ED
:1025900000E400E0BC0F0020C00F002020ED00E0B0
:1025A0000C00002034EF00E0EFF305830F2B0FD970
:1025B000104A9B5CDBB2104A12789A4208D94FF05D
:1025C000500383F31188BFF36F8FBFF34F8FFEE784
:1025D0000A4B1B6803F4E063094A1268934208D966
:1025E0004FF0500383F31188BFF36F8FBFF34F8F0A
:1025F000FEE77047F0E300E0BC0F00200CED00E0C8
:10260000C00F002010B5044600F0A0FD204601F0E8
:102610009FFA044600F034FE204610BD48B110B5C4
:10262000044600F093FD204601F09AFA00F028FEDF
:1026300010BD704710B50446FFF78CFEA26BE36B2C
:102640009A4204D00024FFF7A7FE204610BD0124C3
:10265000F9E710B50446FFF77DFEA36B23B901240B
:10266000FFF79AFE204610BD0024F9E770B5044636
:102670001546866B026C5AB903681BB100200136FF
:10268000A66370BD806800F0C7FF0023A360F6E773
:102690006DB94068FDF730FF226C636813446360D6
:1026A000A268934219D3236863602846E7E7C068AD
:1026B000FDF722FF226C5142E3689B1AE360226817
:1026C000934202D2A3680B44E360022D01D00020A4
:1026D000D5E726B1013E0020D1E72846CFE700200C
:1026E000CDE70346026C6AB110B50846D9681144BB
:1026F000D9609C68A14201D31968D960D968FDF7F7
:10270000FBFE10BD704738B50546FFF723FE95F870
:10271000454064B203E000F069FF013C64B2002C64
:1027200008DD6B6A33B105F1240000F0CBFE002810
:10273000F3D0F0E7FF2385F84530FFF72DFEFFF7D4
:1027400009FE95F8444064B203E000F04FFF013CFD
:1027500064B2002C08DD2B6933B105F1100000F0E4
:10276000B1FE0028F3D0F0E7FF2385F84430FFF7EF
:1027700013FE38BD38B5E0B10D460446FFF7EAFD5B
:102780002168E26B236C03FB0210A0600020A063B1
:102790006160013A02FB0313E360FF2384F84430D5
:1027A00084F84530EDB9236963B9FFF7F5FD0120E1
:1027B00038BD4FF0500383F31188BFF36F8FBFF321
:1027C0004F8FFEE704F1100000F07CFE0028ECD0F3
:1027D000084B4FF080521A60BFF34F8FBFF36F8FDB
:1027E000E3E704F11000FFF703FD04F12400FFF715
:1027F000FFFCDAE704ED00E038B51D46049C0B460B
:1028000049B92460E063236401212046FFF7B2FF49
:1028100084F84C5038BD2260F4E740B94FF05003C3
:1028200083F31188BFF36F8FBFF34F8FFEE730B58F
:1028300085B01C46054653B192B189B94FF050039B
:1028400083F31188BFF36F8FBFF34F8FFEE74FF015
:10285000500383F31188BFF36F8FBFF34F8FFEE7F1
:102860006AB150230393039B502B13D04FF05003B6
:1028700083F31188BFF36F8FBFF34F8FFEE70029FB
:10288000EFD04FF0500383F31188BFF36F8FBFF386
:102890004F8FFEE7039B012384F8463000949DF898
:1028A00020302846FFF7A8FF204605B030BD0000C5
:1028B000F0B585B0019288B10E461D460446B1B10F
:1028C000022D20D1E36B012B1DD04FF0500383F379
:1028D0001188BFF36F8FBFF34F8FFEE74FF05003A8
:1028E00083F31188BFF36F8FBFF34F8FFEE7036C45
:1028F000002BE5D04FF0500383F31188BFF36F8FA7
:10290000BFF34F8FFEE700F077FE074658B9019BF3
:10291000002B44D04FF0500383F31188BFF36F8F27
:10292000BFF34F8FFEE7002739E02A4631462046A5
:10293000FFF79CFE626A6AB938B13C4B4FF0805297
:102940001A60BFF34F8FBFF36F8FFFF725FD012094
:1029500005B0F0BD04F1240000F0B4FD0028F4D06F
:10296000324B4FF080521A60BFF34F8FBFF36F8F1F
:10297000EBE7FFF711FD0020EAE702A800F0E8FD11
:10298000012719E0002384F8443021E0002384F873
:10299000453023E02046FFF7B6FE00F071FCFFF75C
:1029A000D9FCA26BE36B9A42BFD3022DBDD0019B31
:1029B000002BDED0002FE0D0FFF7EEFC00F0C6FBCE
:1029C000FFF7C8FC94F844305BB2B3F1FF3FD9D0B5
:1029D00094F845305BB2B3F1FF3FD7D0FFF7DCFC92
:1029E00001A902A800F0C0FDC8B92046FFF722FEE9
:1029F0000028CFD0019904F1100000F02FFD2046EF
:102A0000FFF781FE00F03CFC0028C8D1074B4FF0D7
:102A100080521A60BFF34F8FBFF36F8FBFE720461E
:102A2000FFF771FE00F02CFC002091E704ED00E0C0
:102A30002DE9F84390B1894690461F460446B1B14E
:102A4000022F20D1E36B012B1DD04FF0500383F3F5
:102A50001188BFF36F8FBFF34F8FFEE74FF0500326
:102A600083F31188BFF36F8FBFF34F8FFEE7036CC3
:102A7000002BE5D04FF0500383F31188BFF36F8F25
:102A8000BFF34F8FFEE7FFF78FFDEFF311864FF097
:102A9000500383F31188BFF36F8FBFF34F8FA26B87
:102AA000E36B9A4206D3022F04D0002086F31188EC
:102AB000BDE8F88394F845506DB23A464946204641
:102AC000FFF7D4FDB5F1FF3F05D06B1C5BB284F876
:102AD00045300120EAE7636A0BB90120E6E704F11B
:102AE000240000F0EFFC30B1B8F1000F05D0012058
:102AF000C8F80000DAE70120D8E70120D6E7000097
:102B0000F0B585B0019290B10E460446C1B100F017
:102B100073FD074600BB019B002B5CD04FF05003B8
:102B200083F31188BFF36F8FBFF34F8FFEE74FF032
:102B3000500383F31188BFF36F8FBFF34F8FFEE70E
:102B4000036C002BE3D04FF0500383F31188BFF3E5
:102B50006F8FBFF34F8FFEE700273CE031462046E2
:102B6000FFF7BFFD013DA563236923B9FFF714FCFF
:102B7000012005B0F0BD04F1100000F0A3FC002816
:102B8000F4D0354B4FF080521A60BFF34F8FBFF334
:102B90006F8FEBE7FFF700FC0020EAE702A800F0E8
:102BA000D7FC012721E0002384F8443029E00023EA
:102BB00084F845302BE02046FFF7A5FD00F060FBD0
:102BC00009E02046FFF79FFD00F05AFB2046FFF783
:102BD00040FD00283DD1FFF7BDFBA56B002DBDD109
:102BE000019B002BD6D0002FD8D0FFF7D5FB00F0EB
:102BF000ADFAFFF7AFFB94F844305BB2B3F1FF3F9F
:102C0000D1D094F845305BB2B3F1FF3FCFD0FFF79E
:102C1000C3FB01A902A800F0A7FC0028D1D12046DF
:102C2000FFF717FD0028C6D0019904F1240000F039
:102C300015FC2046FFF767FD00F022FB0028CAD1F3
:102C4000054B4FF080521A60BFF34F8FBFF36F8F69
:102C5000C1E700208DE700BF04ED00E0002300E0A5
:102C60000133072B0BD8064A52F83320002AF7D13C
:102C7000034A42F8331002EBC303586070477047B1
:102C8000C40F002070B504460D461646FFF762FBE0
:102C900094F844305BB2B3F1FF3F0DD094F8453067
:102CA0005BB2B3F1FF3F0BD0FFF776FBA36B5BB1D9
:102CB0002046FFF728FD70BD002384F84430EDE77F
:102CC000002384F84530EFE73246294604F124001A
:102CD00000F0DCFBECE70000084B1B681B6823B925
:102CE000074B4FF0FF321A607047044B1B68DB68DC
:102CF000DB685A68024B1A60704700BF081000205A
:102D0000B01400202DE9F04780460D46174699463D
:102D1000089EDDF824A00A9C9200A521206B01F0FA
:102D2000E1F9236B07F18042013A03EB820727F0B8
:102D3000070785B300220F2A07D8A95CA31883F8D8
:102D40003410AB5C0BB10132F5E7002384F843305B
:102D5000372E00D93726E662E66400252565201D5A
:102D6000FFF751FA04F11800FFF74DFA2461C6F19C
:102D70003806A6616462656584F858504A46414643
:102D80003846FFF7B9FA2060BAF1000F01D0CAF84F
:102D90000040BDE8F087002384F83430D8E7000015
:102DA00038B50024372C08D804EB840293000E4871
:102DB0001844FFF71DFA0134F4E70C4D2846FFF7DD
:102DC00017FA0B4C2046FFF713FA0A48FFF710FAE0
:102DD0000948FFF70DFA0948FFF70AFA084B1D608A
:102DE000084B1C6038BD00BF101000208814002064
:102DF0009C140020B8140020E4140020D0140020FB
:102E0000081000200C10002010B50446FFF7A2FAAD
:102E1000214A136801331360204B1B685BB1204BC0
:102E20001B686BB91D4B1B68DA6AE36A9A4207D8C4
:102E30001A4B1C6004E0194B1C601368012B27D04F
:102E4000184A1368013313606364E06A164B1B6809
:102E5000984201D9144B186000EB8000211D134BE0
:102E600003EB8000FFF7D2F9FFF796FA0C4B1B68D3
:102E70006BB10A4B1B68DA6AE36A9A4207D20C4BC1
:102E80004FF080521A60BFF34F8FBFF36F8F10BDAA
:102E9000FFF786FFD4E700BF701400200410002065
:102EA000CC14002080140020841400201010002076
:102EB00004ED00E010B5044690F8593063B1012BE1
:102EC00011D0022B0ED04FF0500383F31188BFF3C3
:102ED0006F8FBFF34F8FFEE7006BFFF79FFB20461E
:102EE000FFF79CFB10BDFFF799FBFBE70F4B1B683F
:102EF000D3B110B5FFF72EFA0D4BDB68DC68201D4F
:102F0000FFF7A8F90B4A1368013B1360074A1368DF
:102F1000013B1360FFF740FA2046FFF7CBFF034B5E
:102F20001B68002BE6D110BD704700BF7414002051
:102F3000E41400207014002008B5FFF7D7FF064BFB
:102F40001B68012BF9D9054B4FF080521A60BFF373
:102F50004F8FBFF36F8FF0E71010002004ED00E0FB
:102F600070B504460D46174B1E68174B18680430A1
:102F7000FFF770F9B4F1FF3F0DD03444124B1B68DA
:102F80005C60A64210D9114B18680F4B19680431C8
:102F9000FFF747F970BD002DEFD00B4B19680431D6
:102FA0000B48FFF733F9F5E70A4B1868064B196829
:102FB0000431FFF736F9084B1B68A342EAD9064BE8
:102FC0001C60E7E7F8140020041000200C1000201B
:102FD000D014002008100020B014002070B586B076
:102FE0000B9D0C9C75B1B4B15C260496049E5C2EBE
:102FF0001AD04FF0500383F31188BFF36F8FBFF3E4
:103000004F8FFEE74FF0500383F31188BFF36F8FAC
:10301000BFF34F8FFEE74FF0500383F31188BFF3E8
:103020006F8FBFF34F8FFEE7049E2563022584F860
:10303000595000250395029405AD01950A9D009510
:10304000FFF760FE2046FFF7DFFE059806B070BD73
:103050002DE9F04385B00746884614461E46900089
:10306000FFF7D0FA00B381465C20FFF7CBFA0546A4
:10307000B0B1C0F83090E5B1002385F85930039322
:1030800002950D9B01930C9B0093334622464146CB
:103090003846FFF737FE2846FFF7B6FE012005E069
:1030A0004846FFF7BBFAE6E74FF0FF3005B0BDE852
:1030B000F0834FF0FF30F9E710B588B00024059495
:1030C000069407AA06A905A8FFF77AF8059B0293BC
:1030D000069B019300942346079A17491748FFF768
:1030E0007DFF48B100F04CFB0346012B06D0B3F145
:1030F000FF3F18D008B010BD0023F6E74FF0500393
:1031000083F31188BFF36F8FBFF34F8F0C4B4FF0DA
:10311000FF321A600B4B01221A600B4B00221A601F
:10312000FFF7BAF9E6E74FF0500383F31188BFF3D6
:103130006F8FBFF34F8FFEE7E8540408392F040860
:10314000B0140020CC140020F8140020024A1368A8
:1031500001331360704700BF7C140020014B1868D6
:10316000704700BFF8140020F8B53A4B1B68002BDD
:1031700065D1394B1D6801351D60C5B9374B1B68DA
:103180001B6843B14FF0500383F31188BFF36F8F77
:10319000BFF34F8FFEE7314A1168314B186810605A
:1031A0001960304A136801331360FFF795FD2E4B09
:1031B0001B68AB420CD900242C4B1B68DB6A03EB69
:1031C00083039A002A4B9B58012B3DD901243BE0F5
:1031D000002416E0244B4FF0FF321A60ECE7224A3D
:1031E0001360E9E703EB83039A0039462048104453
:1031F000FFF70CF8F26A1D4B1B68DB6A9A4200D39A
:103200000124164B1B681B68002BE3D0134B1B6873
:10321000DB68DE6873689D42E1D3371D3846FFF7EF
:1032200019F8B36A1BB106F11800FFF713F8F36A37
:10323000104A12689342D5D90E4A1360D2E70E4A5B
:1032400013680133136000240C4B1B6803B1012485
:103250002046F8BD7C140020F8140020081000203F
:103260000C100020B4140020B01400200410002022
:10327000101000208414002078140020FC1400207A
:1032800038B5344B1B6843B94FF0500383F31188B2
:10329000BFF36F8FBFF34F8FFEE7FFF75BF82D4B48
:1032A0001A68013A1A601B68002B4DD12A4B1B6823
:1032B0000BB9002449E00024284B1B681BB3274BA3
:1032C000DB68DC6804F11800FEF7C4FF251D284602
:1032D000FEF7C0FFE06A224B1B68984201D9204BE1
:1032E000186000EB800029461E4B03EB8000FEF7C0
:1032F0008DFFE26A1C4B1B68DB6A9A42DCD31B4BD6
:1033000001221A60D8E70CB1FFF7E6FC184B1C68E5
:1033100074B9164B1C68C4B1164B4FF080521A603A
:10332000BFF34F8FBFF36F8F01240EE0013C07D036
:10333000FFF71AFF0028F9D00C4B01221A60F5E7BD
:103340000B4B00221A60E4E70024FFF725F8204623
:1033500038BD00BF7C14002070140020B814002079
:10336000841400201010002004100020FC14002001
:103370007814002004ED00E010B5A8B104460F4B0E
:103380001B6843B14FF0500383F31188BFF36F8F75
:10339000BFF34F8FFEE7FFF7D9FE00212046FFF76E
:1033A000DFFDFFF76DFF38B9054B4FF080521A6013
:1033B000BFF34F8FBFF36F8F10BD00BF7C14002091
:1033C00004ED00E0204B1B681BB1204B01221A606A
:1033D00070471E4B00221A601D4B1B6803EB8301D4
:1033E0008A001C498A585AB90BB1013BF6E74FF0E5
:1033F000500383F31188BFF36F8FBFF34F8FFEE746
:1034000010B403EB830082000A44506840685060A7
:1034100003EB8304A20014460832114488420DD005
:1034200003EB830291000B4A0A445268D1680A4AAE
:103430001160074A13605DF8044B70474068054A05
:1034400022445060ECE700BF7C140020FC140020F4
:1034500084140020101000200410002058B110B572
:103460000C46094B19681831FEF7DBFE0121204696
:10347000FFF776FD10BD4FF0500383F31188BFF3C3
:103480006F8FBFF34F8FFEE70410002038B570B187
:103490000C4615460A4B19681831FEF7B7FE0DB1F8
:1034A0004FF0FF3429462046FFF75AFD38BD4FF054
:1034B000500383F31188BFF36F8FBFF34F8FFEE785
:1034C0000410002038B5C368DC6824B304F1180583
:1034D0002846FEF7BFFE184B1B682BBB251D284650
:1034E000FEF7B8FEE06A154B1B68984201D9134BF2
:1034F000186000EB80002946114B03EB8000FEF7BB
:1035000085FEE26A0F4B1B68DB6A9A4211D90120E3
:103510000D4B18600EE04FF0500383F31188BFF39A
:103520006F8FBFF34F8FFEE729460848FEF76EFE08
:10353000E7E7002038BD00BF7C1400208414002081
:103540001010002004100020FC140020B8140020EB
:10355000034B1B680360034B1B684360704700BF4D
:10356000B4140020F8140020F8B5C8B10C46054684
:10357000F9B1FEF7EFFE1B4B19686B68C81A226899
:10358000B2F1FF3F26D02F68174E3668B74201D000
:103590008B4224D9824215D80023236001241AE0EB
:1035A0004FF0500383F31188BFF36F8FBFF34F8F3A
:1035B000FEE74FF0500383F31188BFF36F8FBFF323
:1035C0004F8FFEE75B1A134423602846FFF7C0FFC6
:1035D000002400E00024FEF7DFFE2046F8BD0124B1
:1035E000F9E700BFF8140020B4140020014B0122B9
:1035F0001A607047FC140020054B1B6833B1054B63
:103600001B680BB1002070470220704701207047F3
:10361000CC1400207C14002000283BD038B5044690
:103620001E4B1B68834208D04FF0500383F3118870
:10363000BFF36F8FBFF34F8FFEE7036D43B94FF0BA
:10364000500383F31188BFF36F8FBFF34F8FFEE7F3
:10365000013B0365C16AC26C91421DD00BB10020D1
:1036600038BD051D2846FEF7F5FDE06CE062C0F1AF
:103670003803A3610A4B1B68984201D9084B1860B4
:1036800000EB80002946074B03EB8000FEF7BEFDF0
:103690000120E5E7002070470020E1E7041000204A
:1036A0008414002010100020064B1A6813682BB9F0
:1036B0000123036023B9D368186870470023F8E733
:1036C000002070470015002008B54160006191425C
:1036D0000CD8D21A83699A4201D3012008BD011D7A
:1036E000094B1868FEF79DFD0020F7E79A4201D2CA
:1036F000994206D2011D054B1868FEF792FD002085
:10370000ECE70120EAE700BF0415002000150020C7
:1037100030B583B0FEF71EFE114B1B681BB1FEF7E0
:103720003BFE03B030BD0F4D2846FEF761FD0E4C49
:103730002046FEF75DFD0D4B1D600D4B1C60002308
:1037400000930C4B0C4A10210A20FFF766F8044B3B
:1037500018600028E3D00949FFF780FADFE700BFCF
:1037600024160020A8150020BC15002000150020FC
:1037700004150020D415002008150020F05404087A
:1037800010B588B0FFF7C4FF124B1B68CBB1002403
:103790000594069407AA06A905A8FEF71DFD059B3A
:1037A0000293069B0193022300932346079A0A493A
:1037B0000A48FFF713FC0A4A106010B1012008B054
:1037C00010BD4FF0500383F31188BFF36F8FBFF329
:1037D0004F8FFEE724160020F8540408E53A040849
:1037E00028160020C0B110B584B014461A4603460E
:1037F0001648006838B300910194029305291CDC37
:10380000FFF7FAFE022810D000231A4669460F4837
:103810000068FFF74DF814E04FF0500383F3118870
:10382000BFF36F8FBFF34F8FFEE70023069A694601
:1038300006480068FFF73CF803E000236946FFF7FD
:10384000F7F804B010BD0020FBE700BF24160020ED
:1038500070B582B01B4B1B681A6862B3DB681E68C8
:10386000DC68251D2846FEF7F5FC236A20469847AC
:1038700094F8283013F0040FECD0A36933449E422F
:1038800007D26360246129460E4B1868FEF7C9FC15
:10389000E0E7002100910B4632462046FFF7A2FFE9
:1038A0000028D7D14FF0500383F31188BFF36F8FF7
:1038B000BFF34F8FFEE7044A1068024908601360A7
:1038C00002B070BD001500200415002038B5054673
:1038D000FFF744FC0446074B1B68834205D80023CE
:1038E0002B60044B1C60204638BDFFF7B1FF01235D
:1038F0002B60F6E7D015002070B582B005460E4665
:10390000174B1B68DB68DC68201DFEF7A3FC94F8EE
:10391000283013F0040F08D123F0010384F8283075
:10392000236A2046984702B070BDA1692B463246F3
:1039300029442046FFF7C8FE0028F1D0002100915D
:103940000B462A462046FFF74DFF0028E8D14FF0EE
:10395000500383F31188BFF36F8FBFF34F8FFEE7E0
:103960000015002070B582B006460C46FFF7EEFB4E
:1039700001A8FFF7ABFF019B23BB05460CB9B04282
:1039800017D224B1114A12681268CAB9012422461A
:10399000711B0F4B1868FFF775F9FFF771FC98B9A9
:1039A0000C4B4FF080521A60BFF34F8FBFF36F8FF5
:1039B0000AE0FFF765FC29463046FFF79DFF03E06C
:1039C0001C46E4E7FFF75CFC02B070BD0415002064
:1039D0002416002004ED00E010B588B006E0079939
:1039E0000698059B9847049B002B0BDA002204A93C
:1039F0003B4B1868FFF784F800286FD0049B002B1E
:103A0000F1DAECE7069C636913B1201DFEF722FC96
:103A100003A8FFF75BFF049B092BE7D8DFE803F05F
:103A20000505053037500505303794F8283043F048
:103A3000010384F82830059BA169024619442046F9
:103A4000FFF742FE0028D1D0236A2046984794F819
:103A5000283013F0040FC9D0A269002100910B4651
:103A6000059802442046FFF7BDFE0028BED14FF066
:103A7000500383F31188BFF36F8FBFF34F8FFEE7BF
:103A800094F8283023F0010384F82830AEE794F846
:103A9000283043F0010384F828300599A16131B141
:103AA0000346024601442046FFF70EFE9EE74FF014
:103AB000500383F31188BFF36F8FBFF34F8FFEE77F
:103AC00094F8283013F0020F04D023F0010384F897
:103AD00028308BE72046FEF7A1FD87E708B010BD30
:103AE0002416002000B583B001A8FFF7DDFD019981
:103AF000FFF738FFFFF770FFF6E70000014B18688B
:103B0000704700BF1000002070B50D4E0D4D761BA4
:103B1000B61006D0002455F8043B01349847A6425D
:103B2000F9D1094E094D761B01F08CFCB61006D078
:103B3000002455F8043B01349847A642F9D170BDE2
:103B400010550408105504081855040810550408A9
:103B5000024B0146186800F00BB800BF10000020AF
:103B6000024B0146186800F05BBC00BF100000204B
:103B70002DE9F04F01F10B05162D83B0064624D830
:103B8000102900F2B78000F0FDFA10250221182359
:103B9000DFF8F0844344A3F108025C68944200F02B
:103BA000B580636823F003032344D4E902515A68C3
:103BB000E96042F0010230468D605A6000F0E8FA98
:103BC0000834204603B0BDE8F08F35F0070500F15A
:103BD0009180A94200F28E8000F0D4FAB5F5FC7F06
:103BE000C0F090816B0A00F08C80042B00F266819B
:103BF000AB0903F1390103F13807CB00DFF8848406
:103C00004344A3F108005C68A04206D10CE0002AFE
:103C100080F22281E468A04206D0636823F00303A7
:103C20005A1B0F2AF3DD3946D8F81040DFF858C484
:103C3000644577D0626822F00302531B0F2B00F318
:103C40006F81002BC8E904CC80F26081B2F5007F5F
:103C500080F01081D3080133500901228240D8F846
:103C6000040058F83370A76008EBC30E0243AEF1AE
:103C70000800E060C8F8042048F83340FC608B106E
:103C800001209840904254D8104206D121F00301FF
:103C90004000104201F10401FAD008EBC1094C4682
:103CA0008E46E768BC4207D114E1002B80F21B81ED
:103CB000FF68BC4200F00E817A6822F00302531BB9
:103CC0000F2BF2DDD7E902E4791945F001057D609B
:103CD00043F00105CEF80C403046C4F808E0C8E9CE
:103CE0000411C1E902CC4D60BB5000F051FA07F15C
:103CF000080402E00C2333600024204603B0BDE832
:103D0000F08F4FF4007340213F2777E7DC68A34230
:103D100008BF02317FF445AFD8F81040DFF868C320
:103D2000644587D1D8F804208B1001209840904238
:103D3000AAD9D8F80840676827F00307BD4202D81F
:103D40007B1B0F2B77DCDFF84493CA4BD9F800209C
:103D50001B6801322B4404EB070A00F02E8103F5A7
:103D600080530F3323F47F6B2BF00F0B59463046F3
:103D700000F06AFA411C024600F0EB80824500F236
:103D8000E680BD4B196859441960084600F04B8124
:103D9000D9F80010019301311BBFA2EB0A0A50446D
:103DA000C9F80020186012F0070A00F01481CAF167
:103DB00008010A44CAF5805193440831A1EB0B0174
:103DC000C1F30B0949463046009200F03DFA421C0F
:103DD000DDE9002300F05C81801A00EB090B196813
:103DE000C8F808204BF00100494444455060196070
:103DF00000F026810F2F40F2258160680C3F27F0EC
:103E0000070700F0010004EB070C38434FF0050EE4
:103E10000F2F6060CCE901EE00F242815068144639
:103E2000964B1A688A4238BF1960954B1A688A42C5
:103E300038BF196090E0621943F0010345F00105B5
:103E400065603046C8F80820536000F0A1F90834D6
:103E5000204603B0BDE8F08F2344E1685A68A568A6
:103E600042F00102E96030468D605A6000F090F93E
:103E7000083442E7B2F5206F4FEA522361D3142B86
:103E800000F2BA8003F15C00C0005B3308EB00076E
:103E900058F80000083F874200F09280436823F002
:103EA0000303934202D980688742F7D1C768D8F8E4
:103EB0000420C4E90207BC60C460E0E6142B59D9B1
:103EC000542B00F2A1802B0B03F16F0103F16E075D
:103ED000CB0093E60EF1010E1EF0030F04F108046F
:103EE0007FF4DFAE51E03A443C465368F96854F839
:103EF000085F43F0010353603046E9608D6000F0D5
:103F000047F9FAE6E90805F1080341E6224430469C
:103F1000536843F001035360083400F039F9ECE6CC
:103F2000611943F0010745F0010565603046C8E9B5
:103F30000411C1E902CC4F60A35000F029F9083404
:103F4000DBE6930903F13900C00038339EE74445AE
:103F500064D0D8F80840606820F0030B5D45ABEBF7
:103F6000050302D80F2B3FF766AF304600F010F97B
:103F70000024C2E603F15C0103F15B07CB003DE6E0
:103F800059F808394B4540F0AA8011F0030F01F1B0
:103F9000FF31F5D1D8F8043023EA0003C8F8043023
:103FA000400098423FF6C5AE18B9C2E640000EF197
:103FB000040E1842FAD071466FE603F1100BD5E6F5
:103FC0009A104FF0010ED8F804300EFA02F21A439C
:103FD000C8F804206DE702EB0B014942C1F30B095D
:103FE00049463046009200F02FF9431CDDE90023DA
:103FF0007FF4F2AED146F2E6542B26D8130B03F130
:104000006F00C0006E3341E7B3F5AA7F26D8EB0BF3
:1040100003F1780103F17707CB00EFE5164B186841
:1040200058441860B4E6CAF30B0CBCF1000F7FF4DF
:10403000AFAED8F80840BB444BF001006060EFE63B
:104040001446EDE6012353608FE7B3F5AA7F33D81A
:10405000D30B03F17800C000773317E740F25452D6
:10406000934233D8AB0C03F17D0103F17C07CB0005
:10407000C4E500BF5C1600202C160020541600205A
:104080005816002040040020480400204808002062
:10409000AAF1080AD344ABEB020B4FF000099EE6ED
:1040A00004F108013046009300F0BAF9D8F808404E
:1040B000009B60681968B3E640F2545083420AD806
:1040C000930C03F17D00C0007C33DFE64FF47E7378
:1040D0007F217E2792E54FF47E707E23D6E6D8F8C6
:1040E00004305DE7F0B4860746D0541E002A3CD069
:1040F000CAB2034601E0013C37D303F8012B9D0708
:10410000F9D1032C2AD9CDB245EA05250F2C45EA71
:10411000054534D9A4F1100222F00F0C03F1200759
:104120001609674403F1100242E9045542E90255B9
:104130001032BA42F8D1721C14F00C0F03EB0212C9
:1041400004F00F0613D0331F23F00303043313448A
:1041500042F8045B9342FBD106F003042CB1CAB2CF
:104160001C4403F8012B9C42FBD1F0BC7047344641
:104170001346002CF3D1F8E714460346C1E71A466C
:104180002646E0E7014800F0E7BB00BF70160020BC
:10419000014800F0E3BB00BF7016002070B5054673
:1041A00088B008460C46FCF74BFA224AAB6B0494E5
:1041B0000126441C04A9069202220394CDE90112AF
:1041C000AC680590079623B3636E13F0010FB4F942
:1041D0000C309AB201D1980525D5910406D4626EAF
:1041E00043F4005322F40052A3816266284601AAD8
:1041F000214600F019FA636E002814BF4FF0FF3516
:104200000A25DA0702D4A3899B0506D5284608B0FB
:1042100070BD284600F068F8D6E7A06D00F09EFB60
:10422000284608B070BDA06D00F096FBB4F90C30C4
:104230009AB2D2E704550408024B01461868FFF70A
:10424000ADBF00BF1000002038B5074D0022044666
:1042500008462A60FCF7EEFC431C00D038BD2B68F2
:10426000002BFBD0236038BD84160020024B13B115
:10427000024800F005B870470000000055430408EC
:10428000002301461A46184600F08ABE10B50023E6
:104290000446C0E90033C0E904338181C2818360F0
:1042A00043668361194608225C30FFF71BFF07480D
:1042B0000749084A084BE362C4E90740C4E9091208
:1042C00004F15800BDE8104000F042BB194E04084C
:1042D0003D4E04087D4E04089D4E0408014900F03F
:1042E00013BB00BF5150040810B50446114800F03C
:1042F00033FBA26BC2B904F53B730F48C4F8E0224C
:104300000321C4E9B913E06304216068FFF7BEFF2D
:10431000A06801220921FFF7B9FFE06802221221FB
:10432000FFF7B4FF0123A363BDE81040014800F08C
:1043300015BB00BF6C160020DD420408014800F0E8
:104340000BBB00BF80160020014800F007BB00BF78
:104350008016002038B5084B084D5B1B9C1007D019
:10436000043B1D44013C55F804399847002CF9D111
:10437000BDE8384001F06CB81C5504081855040815
:10438000F8B5244F0C460646FFF7FCFEBB685D6897
:10439000C4F57E610F3125F003054B1923F47F63CB
:1043A00023F00F03A3F58054B4F5805F07DB0021F1
:1043B0003046FFF749FFBB682B44984204D0304693
:1043C000FFF7E6FE0020F8BD61423046FFF73CFFF4
:1043D00001300DD0104AB96813682D1B45F0010556
:1043E00030461B1B4D601360FFF7D2FE0120F8BD65
:1043F00000213046FFF728FFBA68831A0F2BDEDD55
:10440000064C0549246843F00103001B5360086013
:10441000D5E700BF400400202C16002048080020EB
:1044200000295ED0F8B50C460646FFF7ABFE54F8FF
:10443000043CDFF8F0C123F00101A4F108004218A8
:10444000DCF808705568974225F0030500F0888075
:10445000DF07556033D454F8087CC01B0CF1080406
:104460008368A342394469D05719D0F80CE07F68BB
:10447000C3F80CE0CEF80830FB0740F1968041F01D
:10448000010343601160B1F5007F33D2CB08DCF843
:10449000044001334A090121914021430CEBC3023E
:1044A0005CF83340CCF80410083AC0E902424CF8FA
:1044B0003300E0603046BDE8F840FFF769BE5319AD
:1044C0005B68DF070ED429440CF108049368A3420B
:1044D00073D0D468DC6041F00102A36042604150B7
:1044E000D1E7704741F00103B1F5007F44F8043C87
:1044F0001160CBD3B1F5206F4FEA51234AD28B091B
:1045000003F13905ED0003F138025CF805300CEBDE
:104510000504083C9C4259D05A6822F003028A42A2
:1045200002D99B689C42F7D1DC68C0E90234A060E4
:10453000D8603046BDE8F840FFF72ABE53195B68E3
:10454000DB0766D4D2E90223294441F00104D36099
:104550009A60446041503046BDE8F840FFF718BE0D
:10456000DB07294407D454F8083CC01A1944D0E9A1
:104570000223D3609A60294B1B6841F001028B42F1
:104580004260CCF8080095D8254B30461968FFF7F3
:10459000F7FE8FE7142B0AD9542B21D80B0B03F10C
:1045A0006F05ED0003F16E02AFE729448EE703F1DA
:1045B0005C05ED0003F15B02A7E741F00103CCE9E4
:1045C0000400C0E902444360415073E7DCF8041082
:1045D0009210012505FA02F20A43CCF80420A4E760
:1045E000B3F5AA7F06D8CB0B03F17805ED0003F1F4
:1045F00077028AE740F25452934206D88B0C03F1BB
:104600007D05ED0003F17C027FE74FF47E757E228D
:104610007BE741F00103436011604BE74C08002049
:104620005C160020400400209368002B00F08A8074
:104630002DE9F04F9046B1F90C200C46110783B0DC
:10464000814693B225D522691AB313F00207D8F830
:1046500000502DD00026DFF8ACB23746AA465F45A1
:104660003B46324628BF5B464846002F4FD0E169A3
:10467000656AA84700285BDDD8F808301B1A064495
:104680003F1AC8F80830002BE9D1002003B0BDE87C
:10469000F08F2146484600F01BFC002840F02F8197
:1046A000B4F90C20D8F8005093B213F00207D1D11E
:1046B00013F0010A48D156462EB39A05A76840F177
:1046C0008C80B742BB4600F2B78013F4906F40F085
:1046D000CB80206851465A4600F042F9A168236811
:1046E000C91B5B443746A16023600026D8F8083018
:1046F000DB1BBA44C8F80830002BC6D0B4F90C3024
:104700009BB2002ED9D1D5E900A60835D4E7DAE965
:1047100000670AF1080AA2E729465A4600F020F984
:1047200023685B4423602146484600F08FFD58B360
:10473000B4F90C3043F040034FF0FF30A38103B0D5
:10474000BDE8F08F002070473E46AA4638463D46F9
:1047500000976EB3002833D0009A2068D4E9041380
:10476000B24228BF3246884204D9A16803EB010B4C
:104770005A45D1DC93426ADCE169676A2A464846B9
:10478000B847B0F1000BD3DD009BB3EB0B030093F4
:1047900056D00120D8F80830A3EB0B035D44A6EBFC
:1047A0000B06C8F80830002B3FF46FAF002ED1D1B4
:1047B0000AF1080353E902569A460833002EF9D04D
:1047C00032460A212846FBF7ABFF002800F08E8016
:1047D0000130431B00931A46BFE7206823699842C3
:1047E00014D86169B14211D86FF00043B34228BFB9
:1047F0003346676A93FBF1F3524601FB03F34846E5
:10480000E169B847071E93DDF61B6FE7B74228BF83
:1048100037463A46514600F0A3F8A3682268DB1BEE
:104820003A44A3602260002BEED12146484600F0B6
:104830000DFD0028E8D07BE720683746B34649E7FE
:104840002146484600F002FD0028A3D070E7294623
:10485000019200F085F8019AA1682368891A13442F
:10486000A160236093468FE7D4E90417226807EB21
:104870004707A2EB010B07EBD7770BF101007F1085
:104880003044B8423A4684BF07463A465B051BD5DA
:1048900011464846FFF76CF958B35A462169009013
:1048A000FBF72AFEA289009B22F4906242F080026C
:1048B000A281A7EB0B0203EB0B0067612361206071
:1048C000A2603746B34605E7484600F0B5F8034610
:1048D0000028EED121694846FFF7A2FDB4F90C305B
:1048E0000C2223F08003C9F8002023E7721C0092F9
:1048F00033E70C23C9F80030B4F90C301AE74FF055
:10490000FF30C3E600FCFF7F2DE9F84307468846E9
:1049100000F538764FF00009D6E90154013D11D475
:10492000A389012B05F1FF3508D9B4F90E30013305
:1049300004D021463846C04749EA00096B1C04F1FF
:104940006804EDD13668002EE6D14846BDE8F8830C
:10495000704700BF704700BF704700BF704700BF7F
:104960008842F0B40DD98B1883420AD9841832B129
:10497000224613F8014D02F8014D9942F9D1F0BCDD
:1049800070470F2A0ED80346541E002AF7D0013470
:104990000C44013B11F8012B03F8012FA142F9D17E
:1049A000F0BC704740EA01039B073FD1A2F110031E
:1049B00023F00F0401F1200727441B0901F1100423
:1049C00000F1100554F8106C45F8106C54F80C6C9C
:1049D00045F80C6C54F8086C45F8086C54F8046CF5
:1049E00045F8046C1034BC4205F11005EAD10133DE
:1049F00012F00C0F01EB031102F00F0400EB031394
:104A000017D0043C24F0030CA5089C441C1F0E4640
:104A100056F8047B44F8047F6445F9D16C1C03EB21
:104A2000840301EB840102F00302ADE7541E034648
:104A3000ADE72246A8E700BF2DE9F84F1746002949
:104A400000F0BC8007F10B050C468046FFF79AFB8F
:104A5000162D5FD810252A46AF4260D854F8041CA2
:104A600021F003069642A4F1080980F28680C94B22
:104A7000D3F808C009EB0600844500F0BA80D0F8EE
:104A800004C02CF0010303445B68DB0700F18B805A
:104A90002CF0030C06EB0C03934280F21681CB073B
:104AA0000FD454F8083CA9EB030ADAF8043023F0D9
:104AB00003018C44B444944538DA7318934280F26D
:104AC000108139464046FFF753F80746E0B154F8E5
:104AD000043C23F001034B44A0F10802934200F090
:104AE000FA80321F242A00F21D81132A00F2CE80A0
:104AF00003462246116819605168596092689A60AD
:104B000021464046FFF78CFC4046FFF741FB384604
:104B1000BDE8F88F25F00705002D2A469CDA0C2306
:104B2000C8F8003000273846BDE8F88FD0E90223E6
:104B30005746D3609A6057F8081FDAF80C30CB60FC
:104B4000321F242A996000F20881132A40F203815F
:104B50002368CAF808306368CAF80C301B2A00F2D0
:104B60001B8108340AF1100322681A6062685A60D7
:104B7000A2689A606646D1463C46731B0F2B22D82A
:104B8000D9F8043003F0010333434E44C9F804302C
:104B9000736843F00103736040462746FFF7F8FA55
:104BA0003846BDE8F88FC9078BD454F8083CA9EB08
:104BB000030ADAF8041021F003017EE7BDE8F84F9C
:104BC0001146FEF7D5BFD9F8042009EB050102F024
:104BD00001024E4443F001031543C9F804504B60F1
:104BE000736843F00103083173604046FFF718FC17
:104BF000D2E7DCF8040020F0030B06EB0B0C05F108
:104C0000100084454DDAC9073FF55BAF54F8081C26
:104C1000A9EB010ADAF8041021F003018B44B34434
:104C200058453FF74AAF5746DAF80C1057F8080FC7
:104C3000321F242AC160886000F2BC80132A40F22F
:104C4000B7802168CAF808106168CAF80C101B2ADE
:104C500000F2C08008340AF1100221681160616816
:104C60005160A16891600AEB0501ABEB050242F0CF
:104C7000010299604A60DAF8043003F001031D4331
:104C80004046CAF80450FFF783FA4CE723680360F4
:104C9000636843601B2A49D804F1080200F1080345
:104CA00028E709EB0501ACEB050242F0010299602F
:104CB0004A6054F8043C03F001031D43404644F8A5
:104CC000045CFFF765FA27462DE7D0E902121E467D
:104CD000CA60916051E750F8043C23F003031E447E
:104CE0004BE75746DAF80C1057F8080F321F242A02
:104CF000C160886027D8132A23D92168CAF8081010
:104D00006168CAF80C101B2A2FD808340AF1100267
:104D10002168116061685160A16891601E46D146AA
:104D20003C462AE72146FFF71BFEE9E6A3688360BD
:104D3000E368C360242A24D004F1100200F11003B8
:104D4000D8E63A46E4E7214638461E46D146FFF704
:104D500007FE3C4611E73B4606E7214638466646D5
:104D6000D146FFF7FDFD3C4607E7A168CAF81010E1
:104D7000E168CAF81410242A22D010340AF118026B
:104D8000C6E7236903616369436104F1180200F116
:104D90001803AFE640040020A368CAF81030E368A7
:104DA000CAF81430242A21D010340AF11803DBE6A3
:104DB0003A4652E721463846FFF7D2FD154B52E7F7
:104DC0002269CAF818206269CAF81C2018340AF14E
:104DD00020029DE7A168CAF81010E168CAF8141013
:104DE000242A0DD010340AF1180236E72369CAF8D4
:104DF00018306369CAF81C3018340AF12003B3E68E
:104E00002269CAF818206269CAF81C2018340AF10D
:104E1000200222E74004002010B50C46B1F90E1024
:104E200000F0D2FA002803DB236D0344236510BD94
:104E3000A38923F48053A38110BD00BF2DE9F04165
:104E4000B1F90C509846EB050C46174606460BD4B4
:104E500025F48055B4F90E10A58143463A463046F4
:104E6000BDE8F04100F01EB8B1F90E100223002297
:104E700000F01AFAB4F90C50EAE700BF10B50C467E
:104E8000B1F90E1000F010FAA389421C0EBF23F4F2
:104E9000805343F480532065A38110BDB1F90E10F7
:104EA00000F0C4B870B50C46084D114600261A46ED
:104EB000034620462E601C46FBF7A2FE431C00D092
:104EC00070BD2B68002BFBD0236070BD84160020C2
:104ED00038B5324B1B6805460C4613B19A6B002A55
:104EE0003CD0B4F90C3018079AB20CD52169A9B19D
:104EF00012F0010022D0606900254042A061A56047
:104F000011B3002038BDD10640D552072AD42169FB
:104F100043F00803A3819AB20029E9D102F420707A
:104F2000B0F5007FE4D02846214600F001FAB4F93C
:104F30000C3021699AB212F00100DCD1950758BFFC
:104F40006069A0600029DCD1120658BF0846D9D597
:104F500043F04003A3814FF0FF3038BD1846FFF700
:104F6000C3F9BEE7216B51B104F14002914204D074
:104F70002846FFF755FAB4F90C3000222263216964
:104F800021600022626023F02403C1E743F0400364
:104F900009222A604FF0FF30A38138BD10000020A5
:104FA0002DE9F047DFF880A00646DAF800009846C1
:104FB0000F469146FFF7D0FC1A4B1B68D3F84841C7
:104FC00024B365681F2D26DC5EB9AB1C0135DAF809
:104FD0000000656044F82370FFF7C0FC0020BDE8C6
:104FE000F08704EB85030121C3F88890D4F8882169
:104FF000A9400A43022EC4F88821C3F80881E4D1ED
:10500000D4F88C311943C4F88C11DEE703F5A6748B
:10501000C3F84841D5E7DAF80000FFF79FFC4FF0EE
:10502000FF30DCE7005504085008002038B5074D74
:105030000022044608462A60FBF7F0FD431C00D01E
:1050400038BD2B68002BFBD0236038BD84160020B0
:1050500070B500294BD00C46054610B1836B002B70
:1050600048D0636ED80734D5B4F90C30002B3ED04D
:105070002146284600F052F8E36A064633B1E1695A
:10508000284698470028B8BF4FF0FF36A3891A0674
:105090003BD4216B41B104F14003994202D0284630
:1050A000FFF7BEF900232363616C21B12846FFF7A7
:1050B000B7F900236364FFF741F9636E0022DB0751
:1050C000A28127D5A06DFFF745FCFFF73DF93046DB
:1050D00070BDA3899905CBD4A06DFFF73DFCB4F951
:1050E0000C30002BC4D1666E16F0010608D00026E5
:1050F000304670BDFFF7F8F8636ED807B4D4E8E720
:10510000A06DFFF72BFC304670BD21692846FFF7E4
:1051100087F9BEE7A06DFFF721FCD3E7B1F90C20BA
:105120002DE9F0410D461107804647D46B6842F4E3
:105130000062002BAA815DDDAC6A002C57D00023F1
:10514000D8F80060C8F8003093B212F4805255D1FC
:105150000123E9694046A047431C66D0AB89AC6A8D
:105160005F0705D56A682B6B801A0BB1EB6BC01A11
:10517000E969024600234046A047411C40D1D8F8C7
:105180000030002B3CD01D2B01D0162B55D1AB8904
:105190002A692A6023F400630022AB816A60296BCC
:1051A000C8F8006019B305F14003994202D04046A7
:1051B000FFF736F900202863BDE8F0812F69B7B109
:1051C00093B22E682F609A070CBF6B690023F61B01
:1051D000AB600AE06C6AE96933463A464046A0474C
:1051E000041EA6EB0406274417DD002EF2DC002087
:1051F000BDE8F081EB6B002B9EDCF8E7286DAFE794
:10520000B5F90C302A692A6023F400630022AB81CF
:10521000DB046A60C3D52865C1E7AB8943F040036E
:10522000AB814FF0FF30BDE8F081D8F80030002BA3
:1052300094D01D2B06D0162B04D0AB8943F040032D
:10524000AB81D5E7C8F80060D1E700BF38B50C46A0
:10525000054608B1836BA3B1B4F90C00B8B1636E15
:10526000DB0701D4810515D528462146FFF756FFF7
:10527000636EDA07054602D4A3899B050ED528463E
:1052800038BDFFF731F8B4F90C000028E7D1054626
:10529000284638BDA06DFFF75FFBE5E7A06DFFF77F
:1052A0005DFB284638BD00BF70B50C46084D114661
:1052B00000261A46034620462E601C46FBF7B8FC23
:1052C000431C00D070BD2B68002BFBD0236070BD49
:1052D0008416002070B50C46B1F90E10002996B066
:1052E00015461E4614DB6A4600F084F800280FDBE2
:1052F000019A02F47042A2F50052B2FA82F2520907
:105300004FF480634FF4006032602B6016B070BDC4
:10531000A189002311F08000336004D04022184698
:105320002A6016B070BD4FF480632B6016B070BD5C
:1053300070B58B899D0782B00C4607D501F14303F8
:105340000122C1E904320B6002B070BD01AB6A46B4
:105350000646FFF7BFFF009905463046FEF708FCFA
:1053600080B1B4F90C20174BF3630199206042F02F
:105370008003009AA381C4E9040299B92B43A38155
:1053800002B070BDB4F90C309A05DDD423F00303EC
:1053900004F1430243F002030121C4E90421A38183
:1053A0002260D1E7B4F90E10304600F039F810B998
:1053B000B4F90C30E2E7A28922F0030242F00102C4
:1053C00013B2DBE7DD42040870B50C46084D114608
:1053D00000261A46034620462E601C46FBF700FCBA
:1053E000431C00D070BD2B68002BFBD0236070BD28
:1053F0008416002038B50C46084D03461146204659
:1054000000221C462A60FBF70CFC431C00D038BD70
:105410002B68002BFBD0236038BD00BF8416002012
:1054200038B5074D0022044608462A60FBF7FEFB0C
:10543000431C00D038BD2B68002BFBD0236038BD47
:1054400084160020F8B500BFF8BC08BC9E46704723
:0C545000F8B500BFF8BC08BC9E467047D1
:10545C004B65795461736B004C65645461736B00DC
:10546C005C54040800000000000000000000000074
:10547C000000000000040000180000000000000004
:10548C00000000006454040800000000000000004C
:10549C0000000000000000000004000018000000E4
:1054AC0000000000000000000000000000000000F0
:1054BC0001020304060708090000000001020304AE
:1054CC004A756D7020746F20617070412E2E2E0005
:1054DC004E6F204170702E2E2E00000049444C451A
:1054EC0000000000546D725100000000546D7220D9
:0C54FC0053766300180000200A00000036
:0855080028ADFF7F0100000047
:085510006D420408E5010408E6
:04551800C1010408C1
:10551C000024F4000100000010000000AAAAAAAAAE
:10552C001800002000000000000000000403002010
:10553C006C030020D40300200000000000000000D9
:10554C00000000000000000000000000000000004F
:10555C00000000000000000000000000000000003F
:10556C00000000000000000000000000000000002F
:10557C00000000000000000000000000000000001F
:10558C00000000000000000000000000000000000F
:10559C0000000000000000000000000000000000FF
:1055AC0000000000000000000000000000000000EF
:1055BC0000000000000000000000000000000000DF
:1055CC0000000000000000000000000000000000CF
:1055DC0001000000000000000E33CDAB34126DE66C
:1055EC00ECDE05000B0000000000000000000000D5
:1055FC00000000000000000000000000000000009F
:10560C00000000000000000000000000000000008E
:10561C00000000000000000000000000000000007E
:10562C00000000000000000000000000000000006E
:10595C000000000000000000400400204004002073
:10596C00480400204804002050040020500400206B
:10597C00580400205804002060040020600400201B
:10598C0068040020680400207004002070040020CB
:10599C00780400207804002080040020800400207B
:1059AC00880400208804002090040020900400202B
:1059BC009804002098040020A0040020A0040020DB
:1059CC00A8040020A8040020B0040020B00400208B
:1059DC00B8040020B8040020C0040020C00400203B
:1059EC00C8040020C8040020D0040020D0040020EB
:1059FC00D8040020D8040020E0040020E00400209B
:105A0C00E8040020E8040020F0040020F00400204A
:105A1C00F8040020F80400200005002000050020F8
:105A2C0008050020080500201005002010050020A6
:105A3C001805002018050020200500202005002056
:105A4C002805002028050020300500203005002006
:105A5C0038050020380500204005002040050020B6
:105A6C004805002048050020500500205005002066
:105A7C005805002058050020600500206005002016
:105A8C0068050020680500207005002070050020C6
:105A9C007805002078050020800500208005002076
:105AAC008805002088050020900500209005002026
:105ABC009805002098050020A0050020A0050020D6
:105ACC00A8050020A8050020B0050020B005002086
:105ADC00B8050020B8050020C0050020C005002036
:105AEC00C8050020C8050020D0050020D0050020E6
:105AFC00D8050020D8050020E0050020E005002096
:105B0C00E8050020E8050020F0050020F005002045
:105B1C00F8050020F80500200006002000060020F3
:105B2C0008060020080600201006002010060020A1
:105B3C001806002018060020200600202006002051
:105B4C002806002028060020300600203006002001
:105B5C0038060020380600204006002040060020B1
:105B6C004806002048060020500600205006002061
:105B7C005806002058060020600600206006002011
:105B8C0068060020680600207006002070060020C1
:105B9C007806002078060020800600208006002071
:105BAC008806002088060020900600209006002021
:105BBC009806002098060020A0060020A0060020D1
:105BCC00A8060020A8060020B0060020B006002081
:105BDC00B8060020B8060020C0060020C006002031
:105BEC00C8060020C8060020D0060020D0060020E1
:105BFC00D8060020D8060020E0060020E006002091
:105C0C00E8060020E8060020F0060020F006002040
:105C1C00F8060020F80600200007002000070020EE
:105C2C00080700200807002010070020100700209C
:105C3C00180700201807002020070020200700204C
:105C4C0028070020280700203007002030070020FC
:105C5C0038070020380700204007002040070020AC
:105C6C00480700204807002050070020500700205C
:105C7C00580700205807002060070020600700200C
:105C8C0068070020680700207007002070070020BC
:105C9C00780700207807002080070020800700206C
:105CAC00880700208807002090070020900700201C
:105CBC009807002098070020A0070020A0070020CC
:105CCC00A8070020A8070020B0070020B00700207C
:105CDC00B8070020B8070020C0070020C00700202C
:105CEC00C8070020C8070020D0070020D0070020DC
:105CFC00D8070020D8070020E0070020E00700208C
:105D0C00E8070020E8070020F0070020F00700203B
:105D1C00F8070020F80700200008002000080020E9
:105D2C000808002008080020100800201008002097
:105D3C001808002018080020200800202008002047
:105D4C0028080020280800203008002030080020F7
:105D5C003808002038080020FFFFFFFF0000020079
:045D6C00601600209D
:0400000508040D617D
:00000001FF
