:020000040800F2
:10000000005000204D680008251C0008271C00082F
:10001000291C00082B1C00082D1C000800000000F3
:100020000000000000000000000000002151000856
:100030002F1C000800000000C151000805520008F4
:10004000956800089568000895680008956800089C
:10005000956800089568000895680008956800088C
:10006000956800089568000895680008956800087C
:10007000956800089568000895680008956800086C
:10008000956800089568000895680008956800085C
:10009000956800089568000895680008956800084C
:1000A000956800089568000895680008956800083C
:1000B0009568000895680008311C000895680008DC
:1000C000956800089568000895680008956800081C
:1000D000956800089568000895680008411C0008AC
:1000E0009568000895680008956800080000000001
:1000F0000000000000000000000000000000000000
:0C01000000000000000000005FF808F1A3
:1001100010B5054C237833B9044B13B10448AFF341
:1001200000800123237010BDC009002000000000E2
:10013000A4D7000808B5034B1BB103490348AFF32C
:10014000008008BD00000000C4090020A4D70008FA
:1001500081F0004102E000BF83F0004330B54FEA78
:1001600041044FEA430594EA050F08BF90EA020FE5
:100170001FBF54EA000C55EA020C7FEA645C7FEA78
:10018000655C00F0E2804FEA5454D4EB5555B8BF9B
:100190006D420CDD2C4480EA020281EA030382EA0C
:1001A000000083EA010180EA020281EA0303362D9E
:1001B00088BF30BD11F0004F4FEA01314FF4801C71
:1001C0004CEA113102D0404261EB410113F0004F83
:1001D0004FEA03334CEA133302D0524263EB43033A
:1001E00094EA050F00F0A780A4F10104D5F1200ED8
:1001F0000DDB02FA0EFC22FA05F2801841F1000133
:1002000003FA0EF2801843FA05F359410EE0A5F106
:1002100020050EF1200E012A03FA0EFC28BF4CF037
:10022000020C43FA05F3C01851EBE37101F00045ED
:1002300007D54FF0000EDCF1000C7EEB00006EEBFA
:100240000101B1F5801F1BD3B1F5001F0CD3490884
:100250005FEA30004FEA3C0C04F101044FEA4452DB
:1002600012F5800F80F09A80BCF1004F08BF5FEA62
:10027000500C50F1000041EB045141EA050130BD42
:100280005FEA4C0C404141EB0101013C28BFB1F554
:10029000801FE9D291F0000F04BF01460020B1FA9F
:1002A00081F308BF2033A3F10B03B3F120020CDA72
:1002B0000C3208DD02F1140CC2F10C0201FA0CF050
:1002C00021FA02F10CE002F11402D8BFC2F1200CB5
:1002D00001FA02F120FA0CFCDCBF41EA0C0190406B
:1002E000E41AA2BF01EB0451294330BD6FEA0404B4
:1002F0001F3C1CDA0C340EDC04F11404C4F120029F
:1003000020FA04F001FA02F340EA030021FA04F3B0
:1003100045EA030130BDC4F10C04C4F1200220FA07
:1003200002F001FA04F340EA0300294630BD21FA45
:1003300004F0294630BD94F0000F83F4801306BF0B
:1003400081F480110134013D4EE77FEA645C18BFFF
:100350007FEA655C29D094EA050F08BF90EA020F96
:1003600005D054EA000C04BF1946104630BD91EA8E
:10037000030F1EBF0021002030BD5FEA545C05D191
:100380004000494128BF41F0004130BD14F58004D0
:100390003CBF01F5801130BD01F0004545F0FE4144
:1003A00041F470014FF0000030BD7FEA645C1ABF79
:1003B000194610467FEA655C1CBF0B46024650EAB0
:1003C000013406BF52EA033591EA030F41F40021DC
:1003D00030BD00BF90F0000F04BF0021704730B562
:1003E0004FF4806404F132044FF000054FF0000137
:1003F00050E700BF90F0000F04BF0021704730B5F8
:100400004FF4806404F1320410F0004548BF4042CC
:100410004FF000013EE700BF42004FEAE2014FEA21
:1004200031014FEA02701FBF12F07F4393F07F4FFC
:1004300081F06051704732F07F4208BF704793F0FF
:100440007F4F04BF41F40021704730B54FF4607412
:1004500001F0004521F000411CE700BF50EA010215
:1004600008BF704730B54FF000050AE050EA0102BE
:1004700008BF704730B511F0004502D5404261EB2E
:1004800041014FF4806404F132045FEA915C3FF46F
:10049000D8AE4FF003025FEADC0C18BF03325FEA0C
:1004A000DC0C18BF033202EBDC02C2F1200300FABD
:1004B00003FC20FA02F001FA03FE40EA0E0021FAE2
:1004C00002F11444BDE600BF70B54FF0FF0C4CF4D0
:1004D000E06C1CEA11541DBF1CEA135594EA0C0F82
:1004E00095EA0C0F00F0DEF82C4481EA030621EABD
:1004F0004C5123EA4C5350EA013518BF52EA0335F8
:1005000041F4801143F4801338D0A0FB02CE4FF0A9
:100510000005E1FB02E506F00042E0FB03E54FF0D9
:100520000006E1FB03569CF0000F18BF4EF0010ED1
:10053000A4F1FF04B6F5007F64F5407404D25FEACD
:100540004E0E6D4146EB060642EAC62141EA555180
:100550004FEAC52040EA5E504FEACE2EB4F1FD0CC2
:1005600088BFBCF5E06F1ED8BEF1004F08BF5FEA40
:10057000500E50F1000041EB045170BD06F00046F2
:1005800046EA010140EA020081EA0301B4EB5C049F
:10059000C2BFD4EB0C0541EA045170BD41F4801197
:1005A0004FF0000E013C00F3AB8014F1360FDEBFBC
:1005B000002001F0004170BDC4F10004203C35DA98
:1005C0000C341BDC04F11404C4F1200500FA05F31B
:1005D00020FA04F001FA05F240EA020001F00042BC
:1005E00021F0004110EBD37021FA04F642EB060132
:1005F0005EEA430E08BF20EAD37070BDC4F10C045C
:10060000C4F1200500FA04F320FA05F001FA04F21F
:1006100040EA020001F0004110EBD37041F100010B
:100620005EEA430E08BF20EAD37070BDC4F1200516
:1006300000FA05F24EEA020E20FA04F301FA05F27E
:1006400043EA020321FA04F001F0004121FA04F226
:1006500020EA020000EBD3705EEA430E08BF20EAF6
:10066000D37070BD94F0000F0FD101F00046400030
:1006700041EB010111F4801F08BF013CF7D041EAB2
:10068000060195F0000F18BF704703F000465200B6
:1006900043EB030313F4801F08BF013DF7D043EA87
:1006A0000603704794EA0C0F0CEA135518BF95EA3D
:1006B0000C0F0CD050EA410618BF52EA4306D1D1C4
:1006C00081EA030101F000414FF0000070BD50EAE3
:1006D000410606BF1046194652EA430619D094EA6D
:1006E0000C0F02D150EA013613D195EA0C0F05D157
:1006F00052EA03361CBF104619460AD181EA0301AB
:1007000001F0004141F0FE4141F470014FF0000062
:1007100070BD41F0FE4141F4780170BD70B54FF0FD
:10072000FF0C4CF4E06C1CEA11541DBF1CEA13557D
:1007300094EA0C0F95EA0C0F00F0A7F8A4EB05045F
:1007400081EA030E52EA03354FEA013100F0888056
:100750004FEA03334FF0805545EA131343EA12631F
:100760004FEA022245EA111545EA10654FEA0026D4
:100770000EF000419D4208BF964244F1FD0404F58D
:10078000407402D25B084FEA3202B61A65EB0305E9
:100790005B084FEA32024FF480104FF4002CB6EBA6
:1007A000020E75EB030E22BFB61A754640EA0C0026
:1007B0005B084FEA3202B6EB020E75EB030E22BF66
:1007C000B61A754640EA5C005B084FEA3202B6EBA7
:1007D000020E75EB030E22BFB61A754640EA9C0066
:1007E0005B084FEA3202B6EB020E75EB030E22BF36
:1007F000B61A754640EADC0055EA060E18D04FEAF4
:10080000051545EA16754FEA06164FEAC30343EA93
:1008100052734FEAC2025FEA1C1CC0D111F4801F60
:100820000BD141EA00014FF000004FF0004CB6E759
:1008300011F4801F04BF01430020B4F1FD0C88BFF8
:10084000BCF5E06F3FF6AFAEB5EB030C04BFB6EB03
:10085000020C5FEA500C50F1000041EB045170BDF6
:100860000EF0004E4EEA113114EB5C04C2BFD4EB23
:100870000C0541EA045170BD41F480114FF0000EA7
:10088000013C90E645EA060E8DE60CEA135594EA23
:100890000C0F08BF95EA0C0F3FF43BAF94EA0C0F26
:1008A0000AD150EA01347FF434AF95EA0C0F7FF49B
:1008B00025AF104619462CE795EA0C0F06D152EAEF
:1008C00003353FF4FDAE1046194622E750EA4106D3
:1008D00018BF52EA43067FF4C5AE50EA41047FF4E4
:1008E0000DAF52EA43057FF4EBAE12E74FEA410247
:1008F000B2F1E04324BFB3F5001CDCF1FE5C0DD97E
:1009000001F0004C4FEAC0024CEA5070B2F1004FC7
:1009100040EB830008BF20F00100704711F0804FCA
:1009200021D113F13872BCBF01F00040704741F48F
:1009300080114FEA5252C2F11802C2F1200C10FA93
:100940000CF320FA02F018BF40F001004FEAC12377
:100950004FEAD32303FA0CFC40EA0C0023FA02F31B
:100960004FEA4303CCE77FEA625307D150EA0133F1
:100970001EBF4FF0FE4040F44000704701F00040C1
:1009800040F0FE4040F40000704700BF80F000409F
:1009900002E000BF81F0004142001FBF5FEA410357
:1009A00092EA030F7FEA226C7FEA236C6AD04FEA57
:1009B0001262D2EB1363C1BFD2184140484041409C
:1009C000B8BF5B42192B88BF704710F0004F40F44E
:1009D000000020F07F4018BF404211F0004F41F46A
:1009E000000121F07F4118BF494292EA030F3FD036
:1009F000A2F1010241FA03FC10EB0C00C3F1200349
:100A000001FA03F100F0004302D5494260EB4000D7
:100A1000B0F5000F13D3B0F1807F06D340084FEA42
:100A2000310102F10102FE2A51D2B1F1004F40EB37
:100A3000C25008BF20F0010040EA0300704749009F
:100A400040EB0000013A28BFB0F5000FEDD2B0FA3C
:100A500080FCACF1080CB2EB0C0200FA0CF0AABF5F
:100A600000EBC25052421843BCBFD04018437047FD
:100A700092F0000F81F4000106BF80F40000013203
:100A8000013BB5E74FEA41037FEA226C18BF7FEADA
:100A9000236C21D092EA030F04D092F0000F08BF1C
:100AA0000846704790EA010F1CBF0020704712F003
:100AB0007F4F04D1400028BF40F00040704712F142
:100AC00000723CBF00F50000704700F0004343F0A7
:100AD000FE4040F4000070477FEA226216BF0846DD
:100AE0007FEA23630146420206BF5FEA412390EAA0
:100AF000010F40F4800070474FF0000304E000BF96
:100B000010F0004348BF40425FEA000C08BF704746
:100B100043F0964301464FF000001CE050EA01020A
:100B200008BF70474FF000030AE000BF50EA01021F
:100B300008BF704711F0004302D5404261EB41010C
:100B40005FEA010C02BF84460146002043F0B64331
:100B500008BFA3F18053A3F50003BCFA8CF2083A56
:100B6000A3EBC25310DB01FA02FC634400FA02FC5F
:100B7000C2F12002BCF1004F20FA02F243EB020066
:100B800008BF20F00100704702F1200201FA02FCC8
:100B9000C2F1200250EA4C0021FA02F243EB0200BB
:100BA00008BF20EADC7070474FF0FF0C1CEAD052FF
:100BB0001EBF1CEAD15392EA0C0F93EA0C0F6FD0C0
:100BC0001A4480EA010C400218BF5FEA41211ED09E
:100BD0004FF0006343EA501043EA5111A0FB01318A
:100BE0000CF00040B1F5000F3EBF490041EAD3715F
:100BF0005B0040EA010062F17F02FD2A1DD8B3F1DB
:100C0000004F40EBC25008BF20F00100704790F049
:100C1000000F0CF0004C08BF49024CEA502040EA9B
:100C200051207F3AC2BFD2F1FF0340EAC250704761
:100C300040F400004FF00003013A5DDC12F1190F9F
:100C4000DCBF00F000407047C2F10002410021FA11
:100C500002F1C2F1200200FA02FC5FEA310040F129
:100C6000000053EA4C0308BF20EADC70704792F0A2
:100C7000000F00F0004C02BF400010F4000F013ADA
:100C8000F9D040EA0C0093F0000F01F0004C02BFD5
:100C9000490011F4000F013BF9D041EA0C018FE744
:100CA0000CEAD15392EA0C0F18BF93EA0C0F0AD04A
:100CB00030F0004C18BF31F0004CD8D180EA010070
:100CC00000F00040704790F0000F17BF90F0004F09
:100CD000084691F0000F91F0004F14D092EA0C0FEB
:100CE00001D142020FD193EA0C0F03D14B0218BF7E
:100CF000084608D180EA010000F0004040F0FE40C4
:100D000040F40000704740F0FE4040F4400070475F
:100D10004FF0FF0C1CEAD0521EBF1CEAD15392EADE
:100D20000C0F93EA0C0F69D0A2EB030280EA010CCE
:100D300049024FEA402037D04FF0805343EA111167
:100D400043EA10130CF000408B4238BF5B0042F1C5
:100D50007D024FF4000C8B4224BF5B1A40EA0C006A
:100D6000B3EB510F24BFA3EB510340EA5C00B3EB9C
:100D7000910F24BFA3EB910340EA9C00B3EBD10F8A
:100D800024BFA3EBD10340EADC001B0118BF5FEADC
:100D90001C1CE0D1FD2A3FF650AF8B4240EBC25005
:100DA00008BF20F0010070470CF0004C4CEA5020C6
:100DB0007F32C2BFD2F1FF0340EAC250704740F415
:100DC00000004FF00003013A37E792F0000F00F007
:100DD000004C02BF400010F4000F013AF9D040EA85
:100DE0000C0093F0000F01F0004C02BF490011F419
:100DF000000F013BF9D041EA0C0195E70CEAD15311
:100E000092EA0C0F08D142027FF47DAF93EA0C0FF7
:100E10007FF470AF084676E793EA0C0F04D14B02DB
:100E20003FF44CAF08466EE730F0004C18BF31F08D
:100E3000004CCAD130F000427FF45CAF31F0004387
:100E40007FF43CAF5FE700BF4FF0FF3C06E000BF20
:100E50004FF0010C02E000BF4FF0010C4DF804CD43
:100E60004FEA40024FEA41037FEA226C18BF7FEA53
:100E7000236C11D001B052EA530C18BF90EA010F55
:100E800058BFB2EB030088BFC81738BF6FEAE170E4
:100E900018BF40F0010070477FEA226C02D15FEA80
:100EA000402C05D17FEA236CE4D15FEA412CE1D0EC
:100EB0005DF8040B704700BF844608466146FFE7B3
:100EC0000FB5FFF7C9FF002848BF10F1000F0FBD95
:100ED0004DF808EDFFF7F4FF0CBF012000205DF88E
:100EE00008FB00BF4DF808EDFFF7EAFF34BF012013
:100EF00000205DF808FB00BF4DF808EDFFF7E0FFAC
:100F000094BF012000205DF808FB00BF4DF808EDFC
:100F1000FFF7D2FF94BF012000205DF808FB00BF5F
:100F20004DF808EDFFF7C8FF34BF012000205DF841
:100F300008FB00BF4FEA4002B2F1FE4F0FD34FF063
:100F40009E03B3EB12620DD94FEA002343F0004336
:100F500010F0004F23FA02F018BF404270474FF0E4
:100F60000000704712F1610F01D1420205D110F06B
:100F7000004008BF6FF0004070474FF0000070471E
:100F8000844641EA000313F0030349D1403A23D3D6
:100F90000B6803604B6843608B688360CB68C360F9
:100FA0000B6903614B6943618B698361CB69C361E1
:100FB0000B6A03624B6A43628B6A8362CB6AC362C9
:100FC0000B6B03634B6B43638B6B8363CB6BC363B1
:100FD00040304031403ADBD230320BD30B680360F3
:100FE0004B6843608B688360CB68C36010301031FE
:100FF000103AF3D20C3205D351F8043B40F8043BCD
:10100000043AF9D2043208D0D2071CBF11F8013BD0
:1010100000F8013B01D30B8803806046704700BF96
:10102000082A13D38B07B1D010F00303AED0C3F15D
:101030000403D21ADB071CBF11F8013B00F8013B87
:10104000A4D331F8023B20F8023B9FE7043AD9D3FE
:10105000013A11F8013B00F8013BF9D20B7803701B
:101060004B7843708B788370604670474FF0FF3C3D
:1010700006E000BF4FF0010C02E000BF4FF0010C92
:101080004DF804CD4FEA410C7FEA6C5C4FEA430C0B
:1010900018BF7FEA6C5C1BD001B050EA410C0CBF5A
:1010A00052EA430C91EA030F02BF90EA020F0020BC
:1010B000704710F1000F91EA030F58BF994208BF23
:1010C00090422CBFD8176FEAE37040F001007047E0
:1010D0004FEA410C7FEA6C5C02D150EA013C07D137
:1010E0004FEA430C7FEA6C5CD6D152EA033CD3D082
:1010F0005DF8040B704700BF8446104662468C467C
:101100001946634600E000BF01B5FFF7B7FF0028AE
:1011100048BF10F1000F01BD4DF808EDFFF7F4FFD7
:101120000CBF012000205DF808FB00BF4DF808ED62
:10113000FFF7EAFF34BF012000205DF808FB00BF85
:101140004DF808EDFFF7E0FF94BF012000205DF8A7
:1011500008FB00BF4DF808EDFFF7CEFF94BF01205C
:1011600000205DF808FB00BF4DF808EDFFF7C4FF55
:1011700034BF012000205DF808FB00BF4FEA410C9E
:101180007FEA6C5C02D150EA013C0AD14FEA430C81
:101190007FEA6C5C02D152EA033C02D14FF00000BE
:1011A00070474FF0010070474FEA410212F50012FC
:1011B00015D211D56FF47873B3EB625212D94FEA9E
:1011C000C12343F0004343EA505311F0004F23FA88
:1011D00002F018BF404270474FF00000704750EADD
:1011E000013005D111F0004008BF6FF0004070479A
:1011F0004FF00000704700BF53B94AB9002908BF3B
:1012000000281CBF4FF0FF314FF0FF3000F06EB9E7
:10121000ADF1080C6DE904CE00F006F8DDF804E04D
:10122000DDE9022304B070472DE9F047089E0D4622
:1012300004468E46002B40F083808A42174647D9E9
:10124000B2FA82F34BB1C3F1200105FA03FE20FA92
:1012500001F19F4041EA0E0E9C404FEA1748BEFB49
:10126000F8FC1FFA87F908FB1CE20CFB09F0210CC3
:1012700041EA024290420AD9BA180CF1FF3180F0DB
:101280001881904240F21581ACF1020C3A44121AD6
:10129000B2FBF8F008FB102200FB09F1A4B244EA0B
:1012A0000244A14209D93C1900F1FF3280F00381C8
:1012B000A14240F2008102383C44641A002140EA15
:1012C0000C401EB10022DC40C6E90042BDE8F087B8
:1012D00002B9FFDEB2FA82F3002B4FD18D1A012141
:1012E0004FEA124E1FFA82F8B5FBFEFC0EFB1C55AE
:1012F00008FB0CF0220C42EA0545A84207D97D19EB
:101300000CF1FF3202D2A84200F2E98094462D1A75
:10131000B5FBFEF00EFB105508FB00F8A4B244EA42
:101320000544A04507D93C1900F1FF3202D2A0457F
:1013300000F2D9801046A4EB080440EA0C40C0E754
:101340008B4208D9002E00F0B1800021C6E90005CB
:101350000846BDE8F087B3FA83F100294BD1AB42D0
:1013600002D3824200F2B980841A65EB03030120A4
:101370009E46002EAAD0C6E9004EA7E79F40C3F1C3
:101380002002D1404FEA174EB1FBFEF01FFA87F85A
:101390000EFB101124FA02F29D4000FB08FC2A43C8
:1013A000150C45EA0145AC4504FA03F409D97D1949
:1013B00000F1FF3180F08F80AC4540F28C80023824
:1013C0003D44A5EB0C05B5FBFEF10EFB115C01FBEA
:1013D00008F995B245EA0C45A94507D97D1901F1EF
:1013E000FF3274D2A94572D902393D44A5EB0905F3
:1013F00041EA004178E7C1F120078B4022FA07FC5F
:101400004CEA030C25FA07F44FEA1C4EB4FBFEF934
:101410001FFA8CF80EFB194420FA07F309FB08FAAF
:101420008D401D432B0C43EA0444A24502FA01F20D
:1014300000FA01F309D91CEB040409F1FF3048D28A
:10144000A24546D9A9F102096444A4EB0A04B4FBFD
:10145000FEF00EFB104400FB08FAADB245EA04446E
:10146000A24508D91CEB040400F1FF352DD2A2459A
:101470002BD90238644440EA0940A0FB0289A4EB5E
:101480000A044C45C6464D4619D316D05EB1B3EB9F
:101490000E0264EB050404FA07F722FA01F31F4376
:1014A000CC40C6E900740021BDE8F08731463046E3
:1014B0000CE78C46EBE61046FFE64345E6D2B8EB78
:1014C000020E69EB0C050138E0E72846D3E7114628
:1014D0008CE78146B9E7084673E7084649E7ACF16F
:1014E000020C3D4413E702383C4424E7704700BF38
:1014F00000B585B000230193029303931148124A6B
:1015000002608360037303754FF46022C26143601D
:101510000123036101F022FC68B902230193012336
:1015200002930723039301A9064801F0A3FA28B9FF
:1015300005B05DF804FB00F051FAEEE700F04EFA5A
:10154000F6E700BFDC0900200024014000B587B0A9
:10155000002302930393049305930268114B9A426C
:1015600002D007B05DF804FB03F56C439A6942F4BE
:1015700000729A619A6902F400720092009A9A6964
:1015800042F004029A619B6903F004030193019BFA
:10159000042302930323039302A9034801F002FDED
:1015A000DFE700BF00240140000801400000000008
:1015B00070B500F02BFF00263AE0204601F056FA05
:1015C0004000FEF707FF36A3D3E90023FEF77CFFB8
:1015D00035A3D3E90023FFF7A1F802460B463448B0
:1015E00005F09EFC334B1868FFF7A4FC0146324817
:1015F00005F096FC314B1868FFF79CFC014630481B
:1016000005F08EFC2F4B1868FFF794FC01462E481E
:1016100005F086FC2D4B1868FFF78CFC01462C4822
:1016200005F07EFC03F02EFC06460A2003F0B6FC13
:1016300000F0FAFFFFF75AF9264C206001F008F895
:10164000FFF754F9606001F017F8FFF74FF9A06059
:1016500000F0AEFFFFF74AF91F4D286000F0BCFF15
:10166000FFF744F9686000F0CBFFFFF73FF9A8608F
:101670001A4A2946204600F015FD03F003FC06F542
:101680007A739842D1D9164C204601F0CDFA0A213E
:10169000204601F035F90028A4D18EE7AFF3008091
:1016A0006666666666660A400000000000FEAF409F
:1016B000C0D70008D80B0020D0D70008DC0B0020D2
:1016C000DCD70008E00B0020E8D70008E40B00207E
:1016D000F4D70008580D0020640D0020500D0020A4
:1016E000DC09002000B583B000238DF8073001220B
:1016F0000DF107010D4803F05AFA05E001220DF142
:1017000007010A4803F053FA094B1B78002BFBD062
:10171000074B00221A709DF8070000F0B3FE002866
:10172000ECD00A2003F03AFCE8E700BF980B002059
:10173000B80D002000B589B00023009301930293F7
:101740000393049305930693079302E0274805F05B
:1017500049FC01F02DF80028F8D1254805F042FC9D
:1017600001F068F8234BC8229A8040F2DC521A80BC
:101770005A8016E0204C0021204603F021F8042175
:10178000204603F01DF80821204603F019F80C212B
:10179000204603F015F8194805F024FC322003F028
:1017A000FDFB684601F02CF80028F7D14FF400410A
:1017B000134801F00DFD9DF80030022BDAD0012B0B
:1017C000ECD10D4C0021204602F08CFF0421204674
:1017D00002F088FF0821204602F084FF0C212046F9
:1017E00002F080FF074805F0FDFBD7E700D80008AE
:1017F00018D80008500D0020100B002030D8000829
:10180000000C014038D8000808B50B4A00210B48ED
:1018100003F04EFB0A4B18600A4A00210A4803F005
:1018200047FB0A4B18600A4A00210A4803F040FBB4
:10183000094B186008BD00BFA8D80008B115000802
:10184000140A002084D80008E5160008100A0020B9
:1018500060D80008351700080C0A0020F0B589B0E0
:1018600000240494059406940794264B9A6942F048
:1018700020029A619A6902F020020192019A9A6903
:1018800042F004029A619A6902F004020292029AFA
:101890009A6942F008029A619B6903F00803039376
:1018A000039B194F22460821384601F08BFC012288
:1018B0001021384601F086FC144E22464FF40041B8
:1018C000304601F07FFC1823049301250595069509
:1018D0000323079304A9384601F064FB049505949B
:1018E000069504A9304601F05DFB4FF400430493D4
:1018F000059506940223079304A9304601F052FB94
:1019000009B0F0BD0010024000080140000C014089
:1019100008B50B480B4B03600B4B436000238360FF
:10192000C3604FF48042026143618361C36103621B
:1019300001F058FC00B908BD00F050F8FBE700BF0B
:10194000180A002000540040A086010010B586B09F
:10195000002302930393049305930268154B9A4264
:1019600001D006B010BD144CA36943F00803A36175
:10197000A36903F008030093009B4FF440730293A4
:10198000122303930323059302A90C4801F00AFBD9
:101990000B4A536843F0E06343F002035360E3698A
:1019A00043F40013E361E36903F400130193019B23
:1019B000D7E700BF0054004000100240000C014077
:1019C0000000014008B50268034B9A4200D008BDF0
:1019D00000F070FFFBE700BF0008004072B6FEE7B2
:1019E00000B595B000230D930F93109305930693C4
:1019F000079308930993019302930393049301219E
:101A00000A914FF480320B920C930E9102231193A2
:101A100012924FF4E01313930AA801F0D7FCC8B94F
:101A20000F23059302210691002307934FF4806250
:101A30000892099305A801F007FF68B902230193F2
:101A40004FF40043039301A801F0F8FF30B915B03B
:101A50005DF804FBFFF7C2FFFFF7C0FFFFF7BEFF13
:101A600008B500F015FFFFF7BBFFFFF7F7FEFFF724
:101A70004FFF00F021FA00F011F800F037FAFFF7FD
:101A800037FD00F089F941F2883000F025FF03F0BE
:101A9000B1F9FFF7B9FE03F0CFF9FEE708B50E483C
:101AA0000E4B03604FF48273436000238360C36076
:101AB000036143614FF4007282611022C2610362CC
:101AC000436283620A23C36202F036F900B908BD9B
:101AD000FFF784FFFBE700BF6C0A002000300140E5
:101AE00010B586B000230293039304930593026814
:101AF000164B9A4201D006B010BD03F560439A69B7
:101B000042F480529A619A6902F480520092009ADB
:101B10009A6942F004029A619B6903F004030193FD
:101B2000019BA02302930223039303230593084CF4
:101B300002A9204601F036FA4023029300230393C2
:101B4000049302A9204601F02DFAD4E700300140A9
:101B50000008014000B583B0114B9A6942F00102C0
:101B60009A619A6902F001020092009ADA6942F0E1
:101B70008052DA61DB6903F080530193019B0022FC
:101B80000F216FF0010001F07FF9064A536823F03E
:101B9000E06343F00073536003B05DF804FB00BFE3
:101BA000001002400000014000B589B0014600224B
:101BB0001E2001F069F91E2001F09AF9154BDA692F
:101BC00042F00402DA61DB6903F004030193019B34
:101BD00002A903A801F014FF01F0F2FE43000E4831
:101BE000A0FB03239B0C013B0C480D4A026040F212
:101BF000E732C260436000230361836002F0F6FBBA
:101C000018B1012009B05DF804FB044802F0BEFAE7
:101C1000F8E700BF0010024083DE1B43C40A002027
:101C200000080040FEE7FEE7FEE7FEE7FEE770473C
:101C300008B5024802F0E3FA08BD00BFC40A00205C
:101C400008B5024803F03AF808BD00BF980B002021
:101C5000034B834200D07047024B01221A70FAE70F
:101C6000980B0020B80D00200120704708B504F043
:101C700013FE162303604FF0FF3008BD08B54FF088
:101C8000FF31FFF7F3FFFEE770B50C46164600255F
:101C9000B54207DAAFF30080214601F8010B0135A8
:101CA0000C46F5E7304670BD70B50C46164600256B
:101CB000B54205DA14F8010B00F0AEF90135F7E78B
:101CC000304670BD08B503460B4A126842B10A4A55
:101CD000106803446A46934206D8074A136008BD59
:101CE000054A06491160F2E704F0D6FD0C230360B3
:101CF0004FF0FF30F3E700BF0C0B0020581B002013
:101D00004FF0FF3070474FF400534B600020704796
:101D10000120704700207047704700000268094B9F
:101D20009A4200D0704782B003F564439A6942F446
:101D300000629A619B6903F400630193019B02B006
:101D4000704700BF002C014000B587B0002302930C
:101D500003930493059302680D4B9A4202D007B097
:101D60005DF804FB03F564439A6942F004029A614A
:101D70009B6903F004030193019B4FF4706302938A
:101D800002230393059302A9024801F00BF9E6E749
:101D9000002C01400008014010B596B000241294B8
:101DA0001394149415941094119409940A940B9418
:101DB0000C940D940E940F942022214601A805F056
:101DC00053F83B483B4B036063234360846040F21D
:101DD000CF23C36004614461846102F007FB0028E3
:101DE0004BD14FF48053129312A9314802F0FBFB00
:101DF000002845D12E4802F025FB002843D10023BE
:101E00001093119310A92A4802F01CFD00283DD11F
:101E10006023099300220A920B920C920D920E926B
:101E20000F9209A9224802F06BFB002831D104224D
:101E300009A91F4802F064FB70BB082209A91C48CD
:101E400002F05EFB58BB0C2209A9194802F058FBAE
:101E500040BB0023019302930393049305934FF433
:101E600000520692089301A9114802F01FFDE0B943
:101E70000F48FFF769FF16B010BDFFF7AFFDB0E7E1
:101E8000FFF7ACFDB6E7FFF7A9FDB8E7FFF7A6FD42
:101E9000BEE7FFF7A3FDCAE7FFF7A0FDCDE7FFF719
:101EA0009DFDD0E7FFF79AFDD3E7FFF797FDDFE74A
:101EB000100B0020002C014008B50A480A4B0360B3
:101EC0004FF4E133436000238360C36003610C225D
:101ED00042618361C36102F0CFFD00B908BDFFF725
:101EE0007DFDFBE7580B00200038014008B50A488B
:101EF0000A4B03604FF4E133436000238360C36007
:101F000003610C2242618361C36102F0B5FD00B937
:101F100008BDFFF763FDFBE7980B00200048004079
:101F200030B589B0002304930593069307930368A3
:101F3000344A934204D0344A934230D009B030BD81
:101F4000324B9A6942F480429A619A6902F4804263
:101F50000092009A9A6942F008029A619B6903F024
:101F600008030193019B4023049302230593032359
:101F70000793274C04A9204601F014F8802304930A
:101F800000230593069304A9204601F00BF8214A8B
:101F9000536843F0E06343F004035360CEE71B4B08
:101FA000DA6942F48022DA61DA6902F4802202926C
:101FB000029A9A6942F008029A619B6903F0080349
:101FC0000393039B4FF4806304930223059303233D
:101FD00007930F4D04A9284600F0E4FF4FF4006377
:101FE000049300240594069404A9284600F0DAFF1F
:101FF00022460521272000F047FF272000F078FF28
:102000009CE700BF0038014000480040001002403B
:10201000000C01400000014000B583B001904FF674
:10202000FF73012201A9034802F055FD019803B096
:102030005DF804FB580B00202DE9F843044688683E
:1020400020F000401649FEF7AFFD05460AF072FC8D
:10205000064628460AF0AAFC0546D4F80080D4F8C3
:10206000049041463046FEF79FFD07464946284604
:10207000FEF79AFD01463846FEF78EFC2060494681
:102080003046FEF791FD064641462846FEF78CFD98
:1020900001463046FEF77EFC6060BDE8F88300BF75
:1020A00039FA8E3C2DE9F04186B00D46144603689E
:1020B00003934368049383680593B2F90000A0F288
:1020C000DC50FEF71DFD6B49FEF722FE0090B4F9CF
:1020D0000200A0F2DC50FEF713FD6649FEF718FE81
:1020E000019003A96846FFF7A7FF634E039A009982
:1020F000304600F01DF9DFF8B081049A019940469E
:1021000000F016F95D496868FEF74EFD02465C4F27
:10211000716B384600F00CF958492868FEF744FD09
:1021200000F10042574ED8F83410304600F000F964
:10213000554BD3F800805149A868FEF735FD054698
:1021400041460298FEF730FD01462A464F4800F00E
:10215000EFF8B4F90400FEF7D3FC0546D6F8348056
:102160004146FEF719FC06467C6B2146FEF712FC41
:102170000746474B186021463046FEF70DFC0646E1
:10218000444B186041462846FEF704FC8046214631
:10219000FEF700FC0546404B186041462046FEF71E
:1021A000FBFB04463D4B18603D493846FEF7B8FE40
:1021B000002836D0364B3A4A1A6039493046FEF785
:1021C000AFFE002837D0334B354A1A6034492846D1
:1021D000FEF7A6FE002838D02F4B314A1A6030494E
:1021E0002046FEF79DFE002839D02C4B2C4A1A6061
:1021F0002C4B1C68264B1868FEF79CFE6063254B31
:102200001868FEF797FEA063234B1868FEF792FE4E
:10221000E063224B1868FEF78DFE206406B0BDE82F
:10222000F08100213846FEF767FE0028C5D0184B24
:1022300000221A60C1E700213046FEF75DFE00284B
:10224000C4D0144B00221A60C0E700212846FEF7D4
:1022500053FE0028C3D0104B00221A60BFE70021B4
:102260002046FEF749FE0028C2D00C4B00221A601F
:10227000BEE700BF00004041600C0020A34C654257
:102280009C0C0020240C0020D80C0020140D0020F1
:10229000D80B0020DC0B0020E00B0020E40B00201A
:1022A00000009042100B0020E80B002030B4134BCC
:1022B0001348186013495960134A9A60134B186009
:1022C00059609A60124B13491960002159604FF010
:1022D0007E519960104B114D1D60114C5C6011488E
:1022E0009860114B1D605C609860104B4FF080400F
:1022F00018605A60996030BC704700BF600C0020C5
:102300006666E63F6F12033CCDCC4C3DE80B0020E7
:10231000D80C0020000060409C0C00207B146E3F15
:102320000AD7A33BF6285C3F240C0020140D0020A4
:102330002DE9F0470446084691461146FEF72AFB70
:102340000546E060A169FEF725FB0646606121684D
:102350002846FEF729FC0746A062D4F8048094F8CA
:102360003800FEF7CDFB4146FEF71EFCD4F810A066
:102370005146FEF719FC8046E062A1683046FEF740
:1023800013FC0646206341463846FEF705FB01462E
:102390003046FEF701FB60631A4B1B78012B04D01B
:1023A00000232361A561BDE8F087174BB3F9043022
:1023B000B32BF5DD266A49463046FEF793FD28B972
:1023C00006F100404946FEF7ABFD18B1002384F842
:1023D0003830E7E7012384F8383051462846FEF7C5
:1023E000DBFA2061666A3146FEF79AFD00B126618C
:1023F00006F1004631462069FEF774FD0028D1D071
:102400002661CFE704000020500D002038B5134AA4
:10241000002382F83830124D1562124C5462124A71
:1024200082F838301148106211495162114A82F81D
:10243000383015625462104A82F8383010625162A6
:102440000E4A82F83830156254620D4A82F83830EC
:1024500010625162FFF72AFF38BD00BF9C0C0020BC
:102460000000164300009644600C002000000C425F
:1024700000004843240C0020E80B0020140D00202D
:10248000D80C002041490B78414AD0540133DBB2CB
:102490000B701278552A02D00020087070470A2B62
:1024A0006DD90022394B1A701346092B06D83849CA
:1024B000C95C0A44D2B20133DBB2F6E7344B9B7AF3
:1024C00093425ED1324B5B78503B082B5BD8DFE800
:1024D00003F0050D151D252D353F49002D4B2C4AC8
:1024E00052F8020F516803C3012070472A4B284A53
:1024F00052F8020F516803C301207047274B244A4A
:1025000052F8020F516803C301207047244B204A40
:1025100052F8020F516803C301207047214B1C4A37
:1025200052F8020F516803C3012070471E4B184A2E
:1025300052F8020F516803C301207047154B144A2B
:10254000D2F802101963D2F806205A6301207047AE
:10255000104B0F4AD2F802109963D2F80620DA63C2
:10256000012070470B4B0A4A5188A3F8401091880C
:10257000A3F84210D2F806205A64012070470020C8
:102580007047002070470120704700BFC80D002031
:10259000BC0D0020700D0020780D0020800D002063
:1025A000880D0020900D0020980D002000000000F4
:1025B00008B5074BB3F91000FDF71CFF02A3D3E9E0
:1025C0000023FEF7ABF808BDFCA9F1D24D62304004
:1025D000700D00200000000008B5074BB3F9120091
:1025E000FDF708FF02A3D3E90023FEF797F808BD23
:1025F000FCA9F1D24D623040700D002000000000B7
:1026000008B5074BB3F91400FDF7F4FE02A3D3E9B4
:102610000023FEF783F808BDFCA9F1D24D623040DB
:10262000700D00200000000008B5074BB3F918003A
:10263000FDF7E0FE02A3D3E90023FEF76FF808BD23
:10264000176CC1166CC16640700D002000000000C0
:1026500008B5074BB3F91A00FDF7CCFE02A3D3E986
:102660000023FEF75BF808BD176CC1166CC166400D
:10267000700D00200000000008B5074BB3F91C00E6
:10268000FDF7B8FE02A3D3E90023FEF747F808BD23
:10269000176CC1166CC16640700D002000B587B084
:1026A0008DF80F0000238DF817300A2300930123C3
:1026B0000DF117020DF10F01034801F098FB9DF891
:1026C000170007B05DF804FB6C0A002070B50446E3
:1026D0000D460A4E00221021304600F073FD2046C0
:1026E000FFF7DCFF04462846FFF7D8FF0122102140
:1026F000304600F067FD204670BD00BF0008014075
:1027000038B50446094D00221021284600F05AFD34
:102710002046FFF7C3FFFF20FFF7C0FF044601225A
:102720001021284600F04EFD204638BD000801402B
:10273000F8B504460E461546002210210B4800F05D
:1027400041FD2046FFF7AAFF07460024AC4206D20F
:10275000FF20FFF7A3FF30550134E4B2F6E7012272
:102760001021024800F02EFD3846F8BD0008014057
:10277000F8B505460C461646002210210B4800F01D
:1027800021FD2846FFF78AFF07460025B54206D2FD
:1027900014F8010BFFF782FF0135EDB2F6E70122D5
:1027A0001021024800F00EFD3846F8BD0008014037
:1027B00000B583B0114B93E8030000908DF804102E
:1027C000052269463020FFF7D3FF05226946102015
:1027D000FFF7AEFF0023042B08D802AA1A4412F810
:1027E000082CA52A02D10133DBB2F4E7052B03D173
:1027F000002003B05DF804FB0120FAE7E4D80008EC
:1028000038B505460720FFF77BFF04460146272021
:10281000FFF75CFF14F0400F01D1012038BD2022EA
:1028200029466120FFF784FFFF21E220FFF74EFFDA
:102830000020F3E710B5144C00220821204600F0D8
:10284000C1FC052211492A20FFF792FF0121212016
:10285000FFF73CFF01212220FFF738FF2821252028
:10286000FFF734FF20213120FFF730FF0F21262012
:10287000FFF72CFF0F212020FFF728FF012208215E
:10288000204600F09FFC10BD00080140ECD8000875
:1028900008B5074A136843F010031360032000F0E3
:1028A000E1FA0020FFF780F9FFF754F9002008BD96
:1028B00000200240034A1168034B1B780B4413604D
:1028C000704700BFCC0D002005000020014B1868A8
:1028D000704700BFCC0D002038B50446FFF7F6FF67
:1028E0000546B4F1FF3F02D0044B1B781C44FFF7B0
:1028F000EDFF401BA042FAD338BD00BF0500002009
:10290000F0B583B005460C4600230193FFF7DEFFC8
:102910002B689A6812F4807F23D107465A6812F414
:10292000807F03D1DB6A13F4700F24D04A4B1E68FA
:10293000022001F00DF9B6FBF0F02B681969474A47
:1029400011422FD1D96802F15C4211422AD1196992
:10295000434A114239D1DA68424B1A4237D029260C
:102960003AE0AB6A43F02003AB62002385F82430E1
:10297000012003B0F0BD2B681B6813F0020F48D193
:10298000B4F1FF3FF7D024B1FFF7A0FFC01BA04276
:10299000F1D9AB6A43F00403AB62002385F824301D
:1029A0000320E6E719692E4A114204D1D96802F1E1
:1029B0006E4211420DD019692B4A0A405AB9DA68A1
:1029C000294B13405BB1FC2606E0292604E01426BF
:1029D00002E0542600E0FC2606FB00F604E0542644
:1029E000FAE7019B01330193019BB34211D2B4F189
:1029F000FF3FF6D024B1FFF769FFC31BA342F0D914
:102A0000AB6A43F00403AB62002385F82430032053
:102A1000AFE72B686FF012021A60AB6A43F40073E1
:102A2000AB622B689B6803F46023B3F5602F01D081
:102A300000209EE7287B60B9AB6A23F48073AB6209
:102A4000AB6A13F4805F94D1AB6A43F00103AB62CD
:102A50008FE700208DE700BF00000020244992246A
:102A60009224491292244900499224000368D86CA8
:102A70007047000030B482B00022019290F8242008
:102A8000012A00F08B800346012280F824204A6846
:102A9000062A29D80568686B02EB8202053A1F24D2
:102AA000944020EA04000C6804FA02F202436A63CC
:102AB0000A68092A38D91D68E86802EB42021E3A02
:102AC0000724944020EA04008C6804FA02F20243CE
:102AD000EA600A68103A012A34D90020002283F8FB
:102AE000242002B030BC70470C2A0ED80568286B31
:102AF00002EB8202233A1F24944020EA04000C686F
:102B000004FA02F202432A63D2E70568E86A02EB9C
:102B10008202413A1F24944020EA04000C6804FA1F
:102B200002F20243EA62C3E71D68286902EB42022F
:102B30000724944020EA04008C6804FA02F202435D
:102B40002A61C6E71A681648824205D09A6A42F09E
:102B500020029A620120C1E7906810F4000F1BD197
:102B6000906840F4000090600A68102A01D00020AC
:102B7000B4E70C4A12680C49A1FB0212920C02EB5A
:102B800082025200019202E0019A013A0192019AF6
:102B9000002AF9D10020A1E700209FE70220A0E74A
:102BA000002401400000002083DE1B4330B583B0C9
:102BB0000023019303689A6812F0010F2DD1044697
:102BC0009A6842F001029A60154B1B68154AA2FBF5
:102BD00003239B0C0193019B1BB1019B013B0193C0
:102BE000F9E7FFF773FE054623689B6813F0010FB2
:102BF00011D1FFF76BFE431B022BF5D9A36A43F0FB
:102C00001003A362E36A43F00103E362002384F844
:102C10002430012002E0002000E0002003B030BD9D
:102C20000000002083DE1B4390F82430012B68D085
:102C300010B50446012380F82430FFF7B7FF0028C1
:102C40005BD1A36A23F4407323F0010343F4807340
:102C5000A36223682C4A934227D0A26A22F48012EE
:102C6000A2625A6812F4806F05D0A26A22F4405220
:102C700042F48052A262A26A12F4805F2BD0E26A10
:102C800022F00602E262002284F824206FF00202A1
:102C90001A6023689A6802F46022B2F5602F1DD092
:102CA0009A6842F480129A602AE0A2F58062526823
:102CB00012F4702FD1D0A26A42F48012A262134A99
:102CC000526812F4806FD6D0A26A22F4405242F4C5
:102CD0008052A262CFE70022E262D4E70A4A93421E
:102CE00004D09A6842F4A0029A6009E0A2F58062DA
:102CF000526812F4702FD3D1F3E7002384F8243004
:102D000010BD0220704700BF002801400024014090
:102D100038B503689A6812F0010F01D1002038BD60
:102D200004469A6822F001029A60FFF7CFFD05463B
:102D300023689B6813F0010F0ED0FFF7C7FD431BFC
:102D4000022BF5D9A36A43F01003A362E36A43F0B0
:102D50000103E3620120E2E70020E0E700287BD0E6
:102D600070B50446836A002B4DD02046FFF7D0FF94
:102D7000A36A13F0100369D1002867D1A26A22F474
:102D8000885222F0020242F00202A2626268E16905
:102D90000A43217B42EA4102A568B5F5807F02D053
:102DA000012D36D01D46267D012E35D0266871684E
:102DB00021F46941294371602568AE682749314093
:102DC0001143A960A168B1F5807F01D0012902D12A
:102DD0002369013B1B052568E96A21F470010B4357
:102DE000EB62236899681E4B0B409A4225D0A36A78
:102DF00023F0120343F01003A362E36A43F00103DC
:102E0000E362012027E0C36280F82430FEF79EFBD6
:102E1000ABE74FF48075C6E731B9A169013945EADE
:102E2000413141F40065C1E7A16A41F02001A1628E
:102E3000E16A41F00101E162B8E70023E362A36ABD
:102E400023F0030343F00103A36204E0A36A43F009
:102E50001003A362012070BD01207047FDF7E1FF60
:102E6000FE0E1FFF074AD36823F4E0631B041B0C0C
:102E7000000200F4E060034343F0BF6343F4003317
:102E8000D360704700ED00E030B4174BDB68C3F34C
:102E90000223C3F10704042C28BF04241D1D062DA2
:102EA00018D9033B4FF0FF3505FA04F421EA040179
:102EB000994005FA03F322EA0303194300280BDBC8
:102EC0000901C9B200F1604000F5614080F80013CB
:102ED00030BC70470023E5E700F00F000901C9B2DC
:102EE000024B1954F4E700BF00ED00E014ED00E0E0
:102EF000002807DB00F01F02400901239340024A2B
:102F000042F82030704700BF00E100E008B590F8BB
:102F10002130022B03D004238363012008BD026803
:102F2000136823F00E0313600268136823F0010393
:102F300013600368194A934214D0143293421FD08D
:102F4000143293421ED0143293421ED01432934254
:102F50001ED01432934202D04FF0807203E04FF43F
:102F6000801200E001220E4B5A60012380F82130CC
:102F7000002380F82030436B6BB198470020CDE7E9
:102F80001022F0E74FF48072EDE74FF48052EAE749
:102F90004FF48032E7E70020C0E700BF080002409E
:102FA00000000240F0B482B000252C46A3E07F4F21
:102FB000BB4210D007D97E4FBB420CD007F58037FB
:102FC000BB4208D013E0A7F58017BB4203D007F53A
:102FD0007027BB4207D18B68002B58D0012B51D0F2
:102FE0004261082503E0A7F58017BB42F3D0FF2E0E
:102FF0004FD88446FF2E4FD8A200DCF800300F27B0
:10300000974023EA070305FA02F21343CCF8003095
:103010004B6813F0805F6DD0664B9A6942F00102F5
:103020009A619B6903F001030193019BA208971C1D
:10303000614B53F8273004F00307BF004FF00F0C2B
:103040000CFA07FC23EA0C0C5C4B98422AD003F5DF
:103050008063984200F08A8003F58063984200F014
:10306000878003F5806398421AD004231BE0CD6863
:10307000BDE7CD680435BAE7CD680835B7E7CD6858
:103080000C35B4E702610825B1E70025AFE7042558
:10309000ADE700F1040CADE7A4F108029200ACE743
:1030A000032300E00023BB4043EA0C030232424FFB
:1030B00047F822304B6813F4803F5BD0404A1368D6
:1030C000334313604B6813F4003F59D03C4A5368B4
:1030D000334353604B6813F4801F57D0384A9368CA
:1030E000334393604B6813F4001F55D0344AD368C0
:1030F0001E43D66001340B6833FA04F252D0012229
:10310000A24003EA020632EA0303F3D14B68122B12
:103110003FF64DAF122B3FF66AAF01A757F823F0E9
:10312000D72F00086F300008793000088B30000876
:10313000EF2F0008EF2F0008EF2F0008EF2F0008F7
:10314000EF2F0008EF2F0008EF2F0008EF2F0008E7
:10315000EF2F0008EF2F0008EF2F0008EF2F0008D7
:10316000EF2F0008733000087F30000801239AE732
:10317000022398E7124A136823EA06031360A1E7C3
:103180000F4A536823EA06035360A3E70C4A936887
:1031900023EA06039360A5E7094AD36823EA0606F3
:1031A000D660A7E702B0F0BC704700BF0000221055
:1031B00000003110001002400000014000080140F2
:1031C000000401400AB101617047090401617047C0
:1031D000C36801EA030221EA030141EA02410161F5
:1031E00070470000002800F0CC80F8B5044690F845
:1031F0003D30002B77D0242384F83D3022681368BB
:1032000023F0010313602268136843F40043136042
:103210002268136823F40043136000F0D1FB626856
:103220005A4B9A4264D85A4B98428CBF00230123D0
:10323000002B40F0A880574DA5FB0035AF0C266849
:10324000716821F03F0141EA9541716021680B6A84
:1032500023F03F0365684D4A95424FD87A1C1343CB
:103260000B622568E96921F44F4121F0FF01636891
:10327000464A93424CD801385B00B0FBF3F0013072
:1032800040F6FC73184278D0C0F30B030B43EB619C
:1032900021680B6823F0C003E269206A02431343EC
:1032A0000B6021688B6823F4034323F0FF0322693A
:1032B000E068024313438B602168CB6823F0FF036F
:1032C0006269A06902431343CB602268136843F02C
:1032D0000103136000202064202384F83D30206324
:1032E00084F83E00F8BD80F83C30FEF72FFB82E703
:1032F000294B98428CBF0023012399E74FF4967223
:1033000002FB07F2254DA5FB025292090132A6E706
:10331000A268BAB9461E03EB4307B6FBF7F60136BF
:10332000C6F30B06B6FA86F6760946BBC2B9421E4C
:1033300003EB4303B2FBF3F20132C2F30B0242F49C
:103340000043A3E7461E03EB830707EB8707B6FBA3
:10335000F7F60136C6F30B06B6FA86F67609E4E709
:10336000421E03EB830303EB8303B2FBF3F2013250
:10337000C2F30B0242F4404388E7042386E70123AB
:1033800084E7012070470120ACE700BFA086010060
:103390007F841E0083DE1B43FF083D00D34D621077
:1033A00082B0084B1B68084AA2FB03235B0A00FBA0
:1033B00003F3019300BF019B5A1E0192002BF9D128
:1033C00002B0704700000020D34D6210002800F0CA
:1033D000F18170B582B00446036813F0010F2CD060
:1033E000AA4B5B6803F00C03042B1DD0A74B5B6852
:1033F00003F00C03082B12D06368B3F5803F41D073
:10340000002B55D103F1804303F504331A6822F4ED
:1034100080321A601A6822F480221A6037E09B4BCF
:103420005B6813F4803FE7D0984B1B6813F4003FB0
:1034300003D06368002B00F0BF81236813F0020FF4
:1034400075D0924B5B6813F00C0F5FD08F4B5B68AD
:1034500003F00C03082B54D02369002B00F0898063
:103460008B4B01221A60FFF731FA0546874B1B6828
:1034700013F0020F74D1FFF729FA401B0228F5D987
:1034800003209EE1814A136843F48033136063682C
:1034900043B3FFF71BFA05467C4B1B6813F4003F50
:1034A000CBD1FFF713FA401B6428F5D9032088E13C
:1034B000B3F5A02F09D0754B1A6822F480321A6038
:1034C0001A6822F480221A60E1E703F18043A3F531
:1034D0003C331A6842F480221A601A6842F480323F
:1034E0001A60D4E7FFF7F2F90546684B1B6813F43E
:1034F000003FA2D0FFF7EAF9401B6428F5D903206A
:103500005FE1624B5B6813F4803FA5D15F4B1B68A2
:1035100013F0020F03D02369012B40F04F815B4A67
:10352000136823F0F803616943EAC1031360236859
:1035300013F0080F32D0A369002B45D0554B012260
:103540001A60FFF7C3F90546504B5B6A13F0020F90
:1035500021D1FFF7BBF9401B0228F5D9032030E148
:103560004A4A136823F0F803616943EAC103136010
:10357000DDE7474B00221A60FFF7A8F90546434BE9
:103580001B6813F0020FD2D0FFF7A0F9401B0228EE
:10359000F5D9032015E10120FFF702FF236813F09E
:1035A000040F00F09780394BDB6913F0805F1DD169
:1035B000364BDA6942F08052DA61DB6903F08053FE
:1035C0000193019B012512E0324B00221A60FFF7A4
:1035D0007DF905462D4B5B6A13F0020FDED0FFF735
:1035E00075F9401B0228F5D90320EAE000252A4B93
:1035F0001B6813F4807F11D0E368012B22D0002BCD
:1036000038D103F1804303F504331A6A22F0010232
:103610001A621A6A22F004021A6218E01E4A13683B
:1036200043F480731360FFF751F906461A4B1B6889
:1036300013F4807FE0D1FFF749F9801B6428F5D9A6
:103640000320BEE0114A136A43F001031362E368EA
:1036500073B3FFF73BF906460C4B1B6A13F0020FDE
:1036600037D1FFF733F9801B41F288339842F3D901
:103670000320A6E0052B11D0044B1A6A22F00102A8
:103680001A621A6A22F004021A62E0E7001002408D
:103690000000424280044242007000404D4B1A6AD2
:1036A00042F004021A621A6A42F001021A62CEE77C
:1036B000FFF70CF90646474B1B6A13F0020F08D0C0
:1036C000FFF704F9801B41F288339842F3D90320B5
:1036D00077E0E5B9E369002B72D03E4A526802F008
:1036E0000C02082A56D0022B17D03B4B00221A603E
:1036F000FFF7ECF80446374B1B6813F0007F47D008
:10370000FFF7E4F8001B0228F5D9032059E0314AFD
:10371000D36923F08053D361DCE72F4B00221A607A
:10372000FFF7D4F805462B4B1B6813F0007F06D03B
:10373000FFF7CCF8401B0228F5D9032041E0236AAB
:10374000B3F5803F1AD023494B6823F47413226ADF
:10375000606A024313434B601F4B01221A60FFF75C
:10376000B5F804461B4B1B6813F0007F0ED1FFF722
:10377000ADF8001B0228F5D9032022E0154A536852
:1037800023F40033A1680B435360DCE7002018E00A
:10379000002016E0012B16D00E4B5B6803F480313D
:1037A000226A914211D103F47013626A93420ED1DE
:1037B000002006E001207047012002E0012000E027
:1037C000002002B070BD0120FBE70120F9E70120D5
:1037D000F7E700BF001002406000424286B0164B7F
:1037E0000FCB0DF1180C0CE90F0040F20123ADF8DE
:1037F0000430124B5B6803F00C02082A02D0104818
:1038000006B07047C3F38342624412F8102C13F4DD
:10381000803F0CD0094B5B68C3F34043634413F80B
:10382000143C074800FB02F0B0FBF3F0E8E7054862
:1038300000FB02F0E4E700BFF4D8000800100240EB
:1038400000127A0000093D00002800F0A08070B549
:103850000D460446524B1B6803F007038B420BD204
:103860004F4A136823F007030B431360136803F0F8
:1038700007038B4240F08D80236813F0020F17D0AE
:1038800013F0040F04D0474A536843F4E0635360D5
:10389000236813F0080F04D0424A536843F460537E
:1038A0005360404A536823F0F003A1680B43536010
:1038B000236813F0010F31D06368012B20D0022B55
:1038C00025D0384A126812F0020F64D035494A6890
:1038D00022F0030213434B60FEF7F8FF0646314B1C
:1038E0005B6803F00C036268B3EB820F16D0FEF73F
:1038F000EDFF801B41F288339842F0D9032045E068
:10390000284A126812F4003FE0D101203EE0254A27
:10391000126812F0007FD9D1012037E0204B1B68DC
:1039200003F00703AB420AD91D4A136823F00703CB
:103930002B431360136803F00703AB422DD12368B8
:1039400013F0040F06D0174A536823F4E063E168CC
:103950000B435360236813F0080F07D0114A5368D4
:1039600023F46053216943EAC1035360FFF736FF34
:103970000C4B5B68C3F303130B4AD35CD8400B4B6F
:1039800018600B4B1868FEF70FF9002070BD01207E
:1039900070470120FAE70120F8E70120F6E700BFB1
:1039A0000020024000100240CCD800080000002097
:1039B00008000020014B1868704700BF000000207D
:1039C00008B5FFF7F7FF044B5B68C3F30223034A14
:1039D000D35CD84008BD00BF00100240DCD800080E
:1039E00008B5FFF7E7FF044B5B68C3F3C223034A44
:1039F000D35CD84008BD00BF00100240DCD80008EE
:103A00000F2303600B4B5A6802F0030242605A68AE
:103A100002F0F00282605A6802F4E062C2605B6801
:103A2000DB0803F4E0630361034B1B6803F0070347
:103A30000B607047001002400020024070B582B059
:103A40000446036813F0010F34D03E4BDB6913F0DA
:103A5000805F47D13B4BDA6942F08052DA61DB6923
:103A600003F080530193019B0125374B1B6813F42E
:103A7000807F39D0334B1B6A13F4407311D06268D6
:103A800002F440729A420CD02E4A136A23F440701A
:103A90002E4901260E6000260E60106213F0010F01
:103AA00036D1284A136A23F4407361680B431362CA
:103AB000002D3ED1236813F0020F06D0214A53682F
:103AC00023F44043A1680B435360236813F0100FA5
:103AD00034D01C4A536823F48003E1680B435360DD
:103AE00000202CE00025C0E7174A136843F48073D8
:103AF0001360FEF7EBFE0646134B1B6813F4807F42
:103B0000B8D1FEF7E3FE801B6428F5D9032016E048
:103B1000FEF7DCFE06460B4B1B6A13F0020FC0D10A
:103B2000FEF7D4FE801B41F288339842F3D903207C
:103B300005E0D36923F08053D361BBE7002002B0D6
:103B400070BD00BF001002400070004040044242BF
:103B500010B586B00446364B0FCB0DF1180C0CE9AE
:103B60000F0040F20123ADF80430022C52D0102C8B
:103B700004D0012C2CD0002006B010BD2D4B5A686B
:103B8000186810F08070F7D0C2F3834306A90B4485
:103B900013F8100C12F4803F16D0264B5B68C3F369
:103BA00040430B4413F8142C234BB3FBF2F300FBFC
:103BB00003F0204B5B6813F4800FDDD140001F4BF6
:103BC000A3FB00304008D7E71D4B03FB00F0F0E7F4
:103BD000184B1B6A40F202321A40B2F5817F24D0A2
:103BE00003F44073B3F5007F04D0B3F5407F09D0F0
:103BF0000020C1E70F4A526A12F0020FF5D049F6D1
:103C00004040B9E70B4B186810F40030B4D04FF2C5
:103C10002440B1E7FFF7E4FE064B5B68C3F3813352
:103C200001335B00B0FBF3F0A6E74FF40040A3E7DD
:103C3000F4D800080010024000127A00ABAAAAAA29
:103C400000093D002DE9F04782B005468846174639
:103C50001E46FEF73BFE0A9B1B1A03EB0609FEF706
:103C600035FE82462A4B1B68C3F3CB3309FB03F3B3
:103C700001932B689C6838EA04030CBF01240024DC
:103C8000BC4240D0B6F1FF3FF3D0FEF71FFEA0EBE1
:103C90000A0048450AD2B9F1000F07D0019A02B1D3
:103CA0004A46019B013B01939146E2E72A6853682B
:103CB00023F0E00353606B68B3F5827F0BD0AB6AEF
:103CC000B3F5005F14D0012385F85130002385F847
:103CD0005030032018E0AB68B3F5004F02D0B3F5C5
:103CE000806FECD12A68136823F040031360E6E785
:103CF0002A68136823F4005313602A68136843F496
:103D000000531360DFE7002002B0BDE8F08700BF7A
:103D10000000002010B582B004460B46009200223D
:103D20008021FFF78FFF08B902B010BD636D43F02B
:103D3000200363650320F7E7002856D010B504463A
:103D4000436A33B94368B3F5827F05D00023C3616A
:103D500002E00023036143610023A36294F8513021
:103D6000002B3CD0022384F851302268136823F0E2
:103D700040031360636803F48273A26802F4044290
:103D80001343E26802F400621343226902F0020264
:103D90001343626902F001021343A26902F4007244
:103DA0001343E26902F038021343226A02F08002F0
:103DB0001343A26A02F40052216813430B60638B21
:103DC000226803F0040353602268D36923F400637C
:103DD000D36100206065012384F8513010BD84F860
:103DE00050302046FDF77CFEBCE7012070472DE9EE
:103DF000F04383B01F460A9D90F85030012B00F02D
:103E00001081044688469146012380F85030FEF721
:103E10005DFD064694F85130DBB26268012B0AD092
:103E2000B2F5827F40F0E380A268002A40F0E9808A
:103E3000042B40F0E880B8F1000F00F0E680B9F103
:103E4000000F00F0E480002F00F0E38094F8513080
:103E5000DBB2042B02D0052384F8513000236365C4
:103E6000C4F83890E787A787C4F83080E786A7862C
:103E70002364636423681A6812F0400F03D11A6840
:103E800042F040021A60E368B3F5006F11D0636836
:103E90000BB1012F0BD1226B236812781A73236B9D
:103EA00001332363E38E9BB2013B9BB2E386012780
:103EB0006BE063680BB1012F0BD1226B2368128872
:103EC000DA60236B02332363E38E9BB2013B9BB228
:103ED000E38601271CE023689A6812F0010F0ED0D8
:103EE000E28F92B25AB1DA68A36B1A80A36B0233E5
:103EF000A363E38F9BB2013B9BB2E3870127FEF7ED
:103F0000E5FC801BA84203D3B5F1FF3F40F083805E
:103F1000E38E9BB21BB9E38F9BB2002B53D0236877
:103F20009A6812F0020FD6D0E28E92B2002AD2D056
:103F3000002FD0D0226B1288DA60236B0233236308
:103F4000E38E9BB2013B9BB2E3860027C3E7236865
:103F50009A6812F0010F0ED0E28F92B25AB1DA686D
:103F6000A36B1A70A36B0133A363E38F9BB2013B76
:103F70009BB2E3870127FEF7A9FC831BAB4202D368
:103F8000B5F1FF3F49D1002D49D0E38E9BB213B963
:103F9000E38F9BB2BBB123689A6812F0020FD6D0B0
:103FA000E28E92B2002AD2D0002FD0D0226B1278AB
:103FB0001A73236B01332363E38E9BB2013B9BB2E5
:103FC000E3860027C3E7324629462046FFF7A2FED4
:103FD00048B9A36863B901932368DA6801929B68C2
:103FE0000193019B04E020236365012000E002208F
:103FF000012384F85130002384F8503003B0BDE829
:10400000F0830220F4E70220F2E70120F0E701202C
:10401000EEE70120ECE70320EAE70320E8E70320CE
:10402000E6E70220EAE7000070B4036A23F0010328
:104030000362036A4668826922F073020C6844EAEC
:10404000020523F002028B6813430D4CA04209D0F5
:104050000B4CA0420DD0466085614A684263036202
:1040600070BC704723F00803CA68134323F00403AD
:10407000EEE726F440764A6932438E691643EAE752
:10408000002C014030B4036A23F480730362036A96
:104090004568C26922F073020C68224323F400735E
:1040A0008C6843EA04230F4CA04209D00D4CA04277
:1040B0000ED04560C2614A68C263036230BC70477B
:1040C00023F40063CC6843EA042323F48063EDE720
:1040D00025F440554C6945EA04158C6945EA0415F8
:1040E000E7E700BF002C014030B4036A23F480539B
:1040F0000362036A4468C26922F4E6420D6842EA38
:10410000052223F400538D6843EA0533074DA84286
:1041100006D04460C2614A680264036230BC7047E2
:1041200024F480444D6944EA8514F2E7002C0140F0
:1041300030B4036A056A25F001050562846924F03C
:10414000F00444EA021423F00A030B43846103627F
:1041500030BC704730B4056A25F0100505628469EB
:10416000036A24F4704444EA023423F0A00343EACF
:1041700001138461036230BC7047836823F07003CD
:104180000B4343F0070383607047000090F83D3015
:10419000DBB2012B27D1022380F83D300268D368BF
:1041A00043F00103D3600368114A934210D0B3F186
:1041B000804F0DD0A2F59432934209D002F580626F
:1041C000934205D01A6842F001021A60002070473D
:1041D0009A6802F00702062A07D01A6842F0010224
:1041E0001A6000207047012070470020704700BF10
:1041F000002C01407047704770477047704710B5FA
:10420000044603681A6912F0020F11D0DA6812F03E
:10421000020F0DD06FF002021A61012303770368C9
:104220009B6913F0030F70D0FFF7E6FF002323779D
:1042300023681A6912F0040F12D0DA6812F0040F22
:104240000ED06FF004021A610223237723689B6962
:1042500013F4407F5FD02046FFF7CEFF0023237783
:1042600023681A6912F0080F12D0DA6812F0080FEA
:104270000ED06FF008021A61042323772368DB69EC
:1042800013F0030F4ED02046FFF7B6FF002323772D
:1042900023681A6912F0100F12D0DA6812F0100FAA
:1042A0000ED06FF010021A61082323772368DB69B0
:1042B00013F4407F3DD02046FFF79EFF0023237775
:1042C00023681A6912F0010F03D0DA6812F0010FA7
:1042D00036D123681A6912F0800F03D0DA6812F021
:1042E000800F34D123681A6912F0400F03D0DA68C6
:1042F00012F0400F32D123681A6912F0200F03D058
:10430000DA6812F0200F30D110BDFFF774FF20469D
:10431000FFF773FF8AE72046FFF76DFF2046FFF7A0
:104320006CFF9BE72046FFF766FF2046FFF765FF1F
:10433000ACE72046FFF75FFF2046FFF75EFFBDE7D3
:104340006FF001021A612046FDF73CFBC1E76FF0F8
:1043500080021A61204600F0D3FAC3E76FF04002F2
:104360001A612046FFF74AFFC5E76FF020021A6185
:10437000204600F0C4FAC7E703681B4A90420AD0FF
:10438000B0F1804F07D0A2F59432904203D002F5ED
:104390008062904203D123F070034A681343124AAB
:1043A00090420AD0B0F1804F07D0A2F594329042EB
:1043B00003D002F58062904203D123F44073CA68AF
:1043C000134323F080034A69134303608B68C3627D
:1043D0000B688362044B984202D00123436170470B
:1043E0000B690363F9E700BF002C014040B310B52F
:1043F000044690F83D30F3B1022384F83D30214665
:1044000051F8040BFFF7B8FF012384F8463084F815
:104410003E3084F83F3084F8403084F8413084F8EE
:10442000423084F8433084F8443084F8453084F8CE
:104430003D30002010BD80F83C30FDF76FFCDBE71D
:104440000120704740B310B5044690F83D30F3B1F9
:10445000022384F83D30214651F8040BFFF78CFF0E
:10446000012384F8463084F83E3084F83F3084F8E5
:10447000403084F8413084F8423084F8433084F886
:10448000443084F8453084F83D30002010BD80F879
:104490003C30FFF7AFFEDBE70120704730B4036A22
:1044A00023F010030362036A4468826922F4E6423F
:1044B0000D6842EA052223F020038D6843EA0513C4
:1044C0000E4DA84209D00D4DA8420ED04460826125
:1044D0004A688263036230BC704723F08003CD6872
:1044E00043EA051323F04003EDE724F440644D69EB
:1044F00044EA85048D6944EA8504E7E7002C01401D
:1045000038B590F83C30012B60D004460D460123AD
:1045100080F83C300C2A1AD8DFE802F00719191984
:104520001D1919193119191944000068FFF77CFD8C
:104530002268936943F0080393612268936923F02A
:10454000040393612268936929690B4393610020F6
:1045500084F83C0038BD0068FFF7A0FF226893692B
:1045600043F4006393612268936923F48063936149
:1045700022689369296943EA01239361E7E70068A8
:10458000FFF780FD2268D36943F00803D3612268F6
:10459000D36923F00403D3612268D36929690B43EB
:1045A000D361D4E70068FFF79FFD2268D36943F425
:1045B0000063D3612268D36923F48063D3612268E6
:1045C000D369296943EA0123D361C0E70220C1E727
:1045D00010B4846824F47F4442EA03220A4322434D
:1045E000826010BC704790F83C30012B66D010B54B
:1045F0000446012380F83C30022380F83D300268F5
:10460000936823F47F4323F0770393600B68602B58
:1046100040D022D8402B47D00BD9502B0ED1CA689E
:1046200049680068FFF784FD50212068FFF7A5FD69
:1046300004E0202B0CD008D9302B09D0012384F8BA
:104640003D30002084F83C0010BD0BB1102BF5D19B
:1046500019462068FFF791FDF0E7702B0ED0B3F5F7
:10466000005FEBD1CB684A6889680068FFF7B0FF4C
:104670002268936843F480439360DFE7CB684A681D
:1046800089680068FFF7A4FF2268936843F0770306
:104690009360D3E7CA6849680068FFF75BFD602153
:1046A0002068FFF76AFDC9E7CA6849680068FFF734
:1046B0003FFD40212068FFF760FDBFE70220704703
:1046C00010B401F01F01012303FA01F4036A23EA85
:1046D00004030362036A02FA01F10B43036210BC94
:1046E0007047000010B50446084651BB94F83E30B0
:1046F000DBB2013B18BF0123002B5BD1002839D16D
:10470000022384F83E30012201462068FFF7D8FFDB
:1047100023682A4A93423DD02368284A93423ED0D8
:10472000B3F1804F3BD0A2F59432934237D002F5DB
:104730008062934233D01A6842F001021A6000206E
:1047400039E0042908D008290DD094F84130DBB2B3
:10475000013B18BF0123CFE794F83F30DBB2013BA8
:1047600018BF0123C8E794F84030DBB2013B18BF03
:104770000123C1E7042805D0082807D0022384F8C4
:104780004130C0E7022384F83F30BCE7022384F8BD
:104790004030B8E75A6C42F400425A64BCE79A6869
:1047A00002F00702062A07D01A6842F001021A60D6
:1047B000002000E0012010BD0020FCE7002C01409B
:1047C00038B504460D4600220068FFF779FF2368DC
:1047D0001B4A934214D02368196A41F21112114204
:1047E00008D1196A40F24442114203D11A6822F0FA
:1047F00001021A609DB9012384F83E30002038BDC3
:10480000196A41F211121142E5D1196A40F244428B
:104810001142E0D15A6C22F400425A64DBE7042DC5
:1048200005D0082D07D0012384F84130E6E70123A5
:1048300084F83F30E2E7012384F84030DEE700BF30
:10484000002C014090F83C30012B2BD030B40123D8
:1048500080F83C30022380F83D3003685C689D6836
:1048600024F070040A6822435A6003680E4A934297
:104870000AD0B3F1804F07D0A2F59432934203D00F
:1048800002F58062934204D125F080054A68154301
:104890009D60012380F83D30002380F83C301846AD
:1048A00030BC704702207047002C014090F83C302B
:1048B000012B22D0012380F83C30CB6823F44073D5
:1048C0008A68134323F480634A68134323F4006324
:1048D0000A68134323F480530A69134323F40053F3
:1048E0004A69134323F48043CA691343026853643B
:1048F000002380F83C30184670470220704770470C
:1049000070470268D36823F49073D36002685369D8
:1049100023F001035361202380F83A30704790F868
:104920003930DBB2212B01D0022070478368B3F508
:10493000805F17D0036A5A1C02621A7803685A60B3
:10494000C38C9BB2013B9BB2C3844BB90268D36852
:1049500023F08003D3600268D36843F04003D36040
:10496000002070470369002BE4D1036A1B880268AA
:10497000C3F308035360036A02330362E0E70000F5
:1049800010B504460268136923F44053C1680B4311
:10499000136183680269134342691A430168CB6853
:1049A00023F4B05323F00C031343CB600268536924
:1049B00023F4407381690B4353610268124B9A429E
:1049C0001FD0FEF7FDFF00EB800303EB830362685B
:1049D0009200B3FBF2F20D48A0FB023149096423B7
:1049E00003FB11231B013233A0FB03235B0903F0FC
:1049F000F00202EB011203F00F03216813448B60F5
:104A000010BDFEF7EDFFDEE7003801401F85EB51DA
:104A10002DE9F84305460F4616469946DDF82080F5
:104A20002C68246837EA04030CBF01240024B44234
:104A30001FD1B8F1FF3FF3D0B8F1000F05D0FDF75B
:104A400045FFA0EB09004045EAD92A68D36823F462
:104A5000D073D3602A68536923F001035361202384
:104A600085F8393085F83A30002385F8383003204E
:104A700000E00020BDE8F88358B310B5044690F874
:104A800039300BB3242384F839302268D36823F4F7
:104A90000053D3602046FFF773FF2268136923F4A5
:104AA000904313612268536923F02A0353612268FB
:104AB000D36843F40053D3600020E063202384F8DC
:104AC000393084F83A3010BD80F83830FDF728FAD4
:104AD000D8E7012070472DE9F04182B01E4690F8DA
:104AE0003930DBB2202B54D104460D4690460029C4
:104AF00053D0002A53D090F83830012B51D00123E5
:104B000080F838300023C363212380F83930FDF763
:104B1000DDFE0746A4F82480A4F82680A368B3F538
:104B2000805F05D04FF00008002384F8383012E091
:104B3000236913B14FF00008F6E7A8460025F3E714
:104B400038F8023B2268C3F308035360E28C92B248
:104B5000013A92B2E284E38C9BB273B100963B4679
:104B6000002280212046FFF753FFE0B9002DE7D057
:104B700015F8012B23685A60E8E700963B460022AF
:104B800040212046FFF744FF78B9202384F83930CC
:104B900000E0022002B0BDE8F0810120FAE7012028
:104BA000F8E70220F6E70320F4E70320F2E790F8A5
:104BB0003A30DBB2202B20D109B312B390F8383051
:104BC000012B20D081628285C2850023C36322220B
:104BD00080F83A2080F838300168CA6842F4807260
:104BE000CA6001684A6942F001024A610168CA6804
:104BF00042F02002CA601846704702207047012028
:104C000070470120704702207047704708B501685F
:104C1000CA6822F04002CA60202280F83920FFF7DB
:104C2000F4FF002008BD08B590F83A30DBB2222B23
:104C300041D18368B3F5805F14D0826AB3F5805F99
:104C400002D0E3B90369D3B903685B681370836A60
:104C500001338362C38D9BB2013B9BB2C385A3B179
:104C6000002008BD0269002AE7D1826A03685B68F8
:104C7000C3F308031380836A02338362EAE703689D
:104C80005B6803F07F031370E1E70268D36823F0E9
:104C90002003D3600268D36823F48073D360026872
:104CA000536923F001035361202380F83A30FCF765
:104CB000CFFF0020D5E70220D3E7704710B50446A8
:104CC00002681368D168526913F00F0005D113F020
:104CD000200F02D011F0200F13D128B112F00102E1
:104CE00013D111F4907F10D113F0800F02D011F086
:104CF000800F6CD113F0400F02D011F0400F6AD139
:104D000010BD2046FFF78FFFFAE713F0010F06D022
:104D100011F4807F03D0E06B40F00100E06313F0FA
:104D2000040F04D01AB1E06B40F00200E06313F00E
:104D3000020F04D01AB1E06B40F00400E06313F0FE
:104D4000080F07D011F0200F00D11AB1E26B42F02A
:104D50000802E263E26B002AD2D013F0200F02D0E7
:104D600011F0200F21D123685B6903F04003E26B4F
:104D700012F0080F00D123B32046FFF7C2FD2368CD
:104D80005A6912F0400F18D05A6922F040025A6155
:104D9000636B73B1124A5A63606BFEF7B7F8002871
:104DA000AED0606B436B9847AAE72046FFF73BFF06
:104DB000D9E72046FFF781FFA2E72046FFF77DFFF6
:104DC0009EE72046FFF779FF0023E36398E720463C
:104DD000FFF7A5FD94E72046FFF718FF90E700BF17
:104DE000E54D000808B5406A0023C385C384FFF77A
:104DF00064FF08BDEFF3058393B9EFF3108393B914
:104E00000C4B1868022804D080B90A4B01221A60A2
:104E10007047EFF31183002BF6D06FF00500704759
:104E20006FF0050070476FF0050070474FF0FF30DE
:104E3000704700BF2C10002008B5EFF30583B3B90D
:104E4000EFF31083B3B90E4B1B68022B08D0012B74
:104E500013D10B4B02221A6000F0E2FF002008BDC4
:104E6000EFF31182002AF2D06FF00500F7E76FF040
:104E70000500F4E76FF00500F1E74FF0FF30EEE7D3
:104E80002C10002008B5EFF305834BB9EFF3108326
:104E900033B9064B1B68022B05D1EFF3118313B115
:104EA00001F016F808BD01F00DF8FBE72C1000200A
:104EB000F0B587B000240494EFF30584002C43D1AF
:104EC000EFF31083002B3FD1334B1B68022B21D013
:104ED000002839D000238DF8173062B31568EDB182
:104EE000936903B918235C1E372C51D8546814F009
:104EF000010F4FD15669A6B14FEA960C94682CB1B8
:104F0000D7685B2F02D9176907B106BB64B14FF0B0
:104F1000FF3416E0EFF31183B3B9D9E70DF11705AC
:104F2000DEE74FF0800CE9E7D46894B914699CB1CE
:104F30004FF0FF3405E0002418234FF0800C0DF1F2
:104F40001705012C0AD0ACB1049807B0F0BD0124BC
:104F5000F7E74FF0FF34F4E70024F2E714699268B2
:104F60000292019400930B466246294600F0EAFE45
:104F70000490E9E704AA019200930B461FFA8CF211
:104F8000294600F018FF0128DED000230493DBE758
:104F90000020DAE70020D8E72C10002008B5EFF356
:104FA0000583A3B9EFF31083A3B90C4B1B68022B45
:104FB00002D040B9002008BDEFF31183002BF8D0D8
:104FC0006FF00500F7E701F093F80020F3E76FF0CA
:104FD0000500F0E76FF00500EDE700BF2C100020A2
:104FE000034B0360034B0B6080231360704700BFCB
:104FF000D00F0020D00D0020034B0360034B0B604B
:105000004FF480731360704730140020301000207C
:1050100000F1080343604FF0FF328260C360036118
:1050200000230360704700230361704743684B60AF
:105030009A688A605160996008610368013303606F
:10504000704730B40D68B5F1FF3F11D000F108038F
:105050001C465B681A68AA42FAD963684B6099607B
:105060008C606160086103680133036030BC704785
:105070000469F2E70369416882688A6041685160A7
:105080005A68824206D0002202611A68013A1A6008
:105090001868704782685A60F5E7000082B0002304
:1050A00001930D4B1B68B3F1FF3F08D04FF0500345
:1050B00083F31188BFF36F8FBFF34F8FFEE74FF07D
:1050C000500383F31188BFF36F8FBFF34F8F019BA2
:1050D000002BFCD002B070470C000020064800688E
:1050E000006880F3088862B661B6BFF34F8FBFF3E4
:1050F0006F8F00DF00BF000008ED00E04FF080730D
:1051000040F8043C21F0010140F8081C034B40F832
:105110000C3C40F8202C4038704700BF9D500008E0
:10512000074B19680868B0E8F00F80F30988BFF3EF
:105130006F8F4FF0000080F311884EF00D0E704716
:10514000D41400204FF0500383F31188BFF36F8F06
:10515000BFF34F8F0A4A136801331360012B00D04D
:105160007047084B1B6813F0FF0FF9D04FF0500346
:1051700083F31188BFF36F8FBFF34F8FFEE700BF3C
:105180000C00002004ED00E0094B1B6843B94FF010
:10519000500383F31188BFF36F8FBFF34F8FFEE788
:1051A000013B034A13600BB983F31188704700BFBA
:1051B0000C000020000000000000000000000000C3
:1051C000EFF30980BFF36F8F0D4B1A6820E9F00FE2
:1051D00010602DE908404FF0500080F3118800F076
:1051E000ADFF4FF0000080F31188BDE8084019685A
:1051F0000868B0E8F00F80F30988BFF36F8F70473D
:10520000D414002008B54FF0500383F31188BFF386
:105210006F8FBFF34F8F00F063FE18B1034B4FF059
:1052200080521A60002383F3118808BD04ED00E06A
:10523000084A0023136008490B60084B1B680849A3
:10524000A1FB03139B09013B06490B600723136075
:10525000704700BF10E000E018E000E00000002010
:10526000D34D621014E000E010B582B0274B1A78DD
:10527000D2B20192FF221A701B78DBB28DF8033094
:105280009DF8033003F05003214A1370214B07228D
:105290001A609DF8033013F0800F0AD01D4A13687E
:1052A000013B13609DF803305B00DBB28DF80330E7
:1052B000EFE7184B1B68032B08D04FF0500383F324
:1052C0001188BFF36F8FBFF34F8FFEE71B0203F40C
:1052D000E063104A1360019BDBB20C4A13700E4B63
:1052E0001A6842F470021A601A6842F070421A603A
:1052F000FFF79EFF0024094B1C60FFF7EFFE00F054
:105300001DFFFFF7CBFE204602B010BD00E400E019
:105310008C1400209014002020ED00E00C000020F0
:10532000EFF305830F2B0FD9104A9B5CDBB2104AB9
:1053300012789A4208D94FF0500383F31188BFF3D3
:105340006F8FBFF34F8FFEE70A4B1B6803F4E063D8
:10535000094A1268934208D94FF0500383F3118829
:10536000BFF36F8FBFF34F8FFEE77047F0E300E0AE
:105370008C1400200CED00E09014002010B50446C1
:1053800000F098FD204601F0B1FA044600F034FE2A
:10539000204610BD48B110B5044600F08BFD2046F4
:1053A00001F0ACFA00F028FE10BD704710B50446BD
:1053B000FFF7C8FEA26BE36B9A4204D00024FFF70C
:1053C000E3FE204610BD0124F9E710B50446FFF7BF
:1053D000B9FEA36B23B90124FFF7D6FE204610BD0A
:1053E0000024F9E770B504461546866B026C5AB97D
:1053F00003681BB100200136A66370BD406800F051
:10540000C5FF00236360F6E76DB98068FBF7B8FD60
:10541000226CA3681344A3606268934219D3236883
:10542000A3602846E7E7C068FBF7AAFD226C51425B
:10543000E3689B1AE3602268934202D263680B44DC
:10544000E360022D01D00020D5E726B1013E002007
:10545000D1E72846CFE70020CDE70346026C6AB1CA
:1054600010B50846D9681144D9605C68A14201D3DF
:105470001968D960D968FBF783FD10BD704738B54E
:105480000546FFF75FFE95F8454064B203E000F083
:1054900067FF013C64B2002C08DD6B6A33B105F193
:1054A000240000F0C9FE0028F3D0F0E7FF2385F8C0
:1054B0004530FFF769FEFFF745FE95F8444064B2BA
:1054C00003E000F04DFF013C64B2002C08DD2B69C5
:1054D00033B105F1100000F0AFFE0028F3D0F0E783
:1054E000FF2385F84430FFF74FFE38BD38B5E0B1F3
:1054F0000D460446FFF726FE2168E26B236C03FB92
:10550000021060600020A063A160013A02FB031357
:10551000E360FF2384F8443084F84530EDB9236913
:1055200063B9FFF731FE012038BD4FF0500383F31C
:105530001188BFF36F8FBFF34F8FFEE704F11000A8
:1055400000F07AFE0028ECD0084B4FF080521A6031
:10555000BFF34F8FBFF36F8FE3E704F11000FFF746
:1055600057FD04F12400FFF753FDDAE704ED00E0F6
:1055700038B51D46049C0B4649B92460E06323649A
:1055800001212046FFF7B2FF84F84C5038BD22605D
:10559000F4E740B94FF0500383F31188BFF36F8FE6
:1055A000BFF34F8FFEE730B585B01C46054653B1BB
:1055B00092B189B94FF0500383F31188BFF36F8F15
:1055C000BFF34F8FFEE74FF0500383F31188BFF313
:1055D0006F8FBFF34F8FFEE76AB150230393039B96
:1055E000502B13D04FF0500383F31188BFF36F8F0C
:1055F000BFF34F8FFEE70029EFD04FF0500383F346
:105600001188BFF36F8FBFF34F8FFEE7012384F83C
:10561000463000949DF820302846FFF7A9FF204629
:1056200005B030BDF0B585B0019288B10E461D467B
:105630000446B1B1022D20D1E36B012B1DD04FF0F8
:10564000500383F31188BFF36F8FBFF34F8FFEE7D3
:105650004FF0500383F31188BFF36F8FBFF34F8F69
:10566000FEE7036C002BE5D04FF0500383F3118865
:10567000BFF36F8FBFF34F8FFEE700F077FE074653
:1056800058B9019B002B44D04FF0500383F311888D
:10569000BFF36F8FBFF34F8FFEE7002739E02A4635
:1056A00031462046FFF79EFE626A6AB938B13C4B2C
:1056B0004FF080521A60BFF34F8FBFF36F8FFFF729
:1056C00063FD012005B0F0BD04F1240000F0B4FD3D
:1056D0000028F4D0324B4FF080521A60BFF34F8F46
:1056E000BFF36F8FEBE7FFF74FFD0020EAE702A85B
:1056F00000F0E8FD012719E0002384F8443021E0A0
:10570000002384F8453023E02046FFF7B8FE00F080
:1057100073FCFFF717FDA26BE36B9A42BFD3022D18
:10572000BDD0019B002BDED0002FE0D0FFF72CFD79
:1057300000F0C0FBFFF706FD94F844305BB2B3F114
:10574000FF3FD9D094F845305BB2B3F1FF3FD7D0DB
:10575000FFF71AFD01A902A800F0C0FDC8B9204654
:10576000FFF724FE0028CFD0019904F1100000F0CB
:105770002FFD2046FFF783FE00F03EFC0028C8D135
:10578000074B4FF080521A60BFF34F8FBFF36F8FFC
:10579000BFE72046FFF773FE00F02EFC002091E7E4
:1057A00004ED00E02DE9F84390B1894690461F468C
:1057B0000446B1B1022F20D1E36B012B1DD04FF075
:1057C000500383F31188BFF36F8FBFF34F8FFEE752
:1057D0004FF0500383F31188BFF36F8FBFF34F8FE8
:1057E000FEE7036C002BE5D04FF0500383F31188E4
:1057F000BFF36F8FBFF34F8FFEE7FFF791FDEFF31E
:1058000011864FF0500383F31188BFF36F8FBFF3FE
:105810004F8FA26BE36B9A4206D3022F04D0002075
:1058200086F31188BDE8F88394F845506DB23A4686
:1058300049462046FFF7D6FDB5F1FF3F05D06B1C6A
:105840005BB284F845300120EAE7636A0BB90120B6
:10585000E6E704F1240000F0EFFC30B1B8F1000FEE
:1058600005D00120C8F80000DAE70120D8E70120C0
:10587000D6E70000F0B585B0019290B10E4604461F
:10588000C1B100F073FD074600BB019B002B5CD04B
:105890004FF0500383F31188BFF36F8FBFF34F8F27
:1058A000FEE74FF0500383F31188BFF36F8FBFF310
:1058B0004F8FFEE7036C002BE3D04FF0500383F3D0
:1058C0001188BFF36F8FBFF34F8FFEE700273CE0D7
:1058D00031462046FFF7C1FD013DA563236923B989
:1058E000FFF752FC012005B0F0BD04F1100000F0FC
:1058F000A3FC0028F4D0354B4FF080521A60BFF360
:105900004F8FBFF36F8FEBE7FFF73EFC0020EAE716
:1059100002A800F0D7FC012721E0002384F84430DE
:1059200029E0002384F845302BE02046FFF7A7FD4F
:1059300000F062FB09E02046FFF7A1FD00F05CFBF0
:105940002046FFF742FD00283DD1FFF7FBFBA56B8A
:10595000002DBDD1019B002BD6D0002FD8D0FFF752
:1059600013FC00F0A7FAFFF7EDFB94F844305BB2AC
:10597000B3F1FF3FD1D094F845305BB2B3F1FF3FB4
:10598000CFD0FFF701FC01A902A800F0A7FC002876
:10599000D1D12046FFF719FD0028C6D0019904F1A6
:1059A000240000F015FC2046FFF769FD00F024FB01
:1059B0000028CAD1054B4FF080521A60BFF34F8FB9
:1059C000BFF36F8FC1E700208DE700BF04ED00E05B
:1059D000002300E00133072B0BD8064A52F833208E
:1059E000002AF7D1034A42F8331002EBC303586090
:1059F000704770479414002070B504460D46164653
:105A0000FFF7A0FB94F844305BB2B3F1FF3F0DD039
:105A100094F845305BB2B3F1FF3F0BD0FFF7B4FB16
:105A2000A36B5BB12046FFF72AFD70BD002384F80D
:105A30004430EDE7002384F84530EFE7324629464D
:105A400004F1240000F0DCFBECE70000084B1B68CD
:105A50001B6823B9074B4FF0FF321A607047044BA5
:105A60001B68DB68DB685A68024B1A60704700BF2E
:105A7000D8140020801900202DE9F04780460D46FB
:105A800017469946089EDDF824A00A9C9200A5219D
:105A9000206B01F0E9F9236B07F18042013A03EB37
:105AA000820727F0070700220F2A07D8A95CA3184E
:105AB00083F83410AB5C0BB10132F5E7002384F8B6
:105AC0004330372E00D93726E662E6640025256587
:105AD000201DFFF7A8FA04F11800FFF7A4FA2461CB
