:020000040800F2
:1000000000000220258F0008758B0008778B000800
:10001000798B00087B8B00087D8B000800000000B6
:100020000000000000000000000000007F8B0008BE
:10003000818B000800000000838B0008858B00087E
:10004000758F0008758F0008758F0008758F000880
:10005000758F0008758F0008758F0008758F000870
:10006000758F0008758F0008758F0008758F000860
:10007000758F0008758F0008758F0008758F000850
:10008000758F0008758F0008758F0008758F000840
:10009000758F0008758F0008758F0008758F000830
:1000A000758F0008758F0008758F0008758F000820
:1000B000758F00088D8B00089D8B0008758F0008D8
:1000C000758F0008758F0008758F0008758F000800
:1000D000758F0008758F0008758F0008758F0008F0
:1000E000758F0008758F0008758F0008758F0008E0
:1000F000758F0008758F0008758F0008758F0008D0
:10010000758F0008758F0008AD8B0008758F00088B
:10011000758F0008758F0008758F0008758F0008AF
:10012000758F0008758F0008758F0008758F00089F
:10013000758F0008758F0008758F0008758F00088F
:10014000758F0008758F0008758F0008758F00087F
:10015000758F0008758F0008758F0008758F00086F
:10016000758F0008758F0008758F0008758F00085F
:10017000758F0008758F0008758F0008000000005B
:08018000758F0008758F00085F
:1001C00010B5054C237833B9044B13B10448AFF391
:1001D00000800123237010BD340A002000000000BD
:1001E0007C18010808B5034B1BB103490348AFF362
:1001F000008008BD00000000380A00207C180108BB
:1002000081F0004102E000BF83F0004330B54FEAC7
:1002100041044FEA430594EA050F08BF90EA020F34
:100220001FBF54EA000C55EA020C7FEA645C7FEAC7
:10023000655C00F0E2804FEA5454D4EB5555B8BFEA
:100240006D420CDD2C4480EA020281EA030382EA5B
:10025000000083EA010180EA020281EA0303362DED
:1002600088BF30BD11F0004F4FEA01314FF4801CC0
:100270004CEA113102D0404261EB410113F0004FD2
:100280004FEA03334CEA133302D0524263EB430389
:1002900094EA050F00F0A780A4F10104D5F1200E27
:1002A0000DDB02FA0EFC22FA05F2801841F1000182
:1002B00003FA0EF2801843FA05F359410EE0A5F156
:1002C00020050EF1200E012A03FA0EFC28BF4CF087
:1002D000020C43FA05F3C01851EBE37101F000453D
:1002E00007D54FF0000EDCF1000C7EEB00006EEB4A
:1002F0000101B1F5801F1BD3B1F5001F0CD34908D4
:100300005FEA30004FEA3C0C04F101044FEA44522A
:1003100012F5800F80F09A80BCF1004F08BF5FEAB1
:10032000500C50F1000041EB045141EA050130BD91
:100330005FEA4C0C404141EB0101013C28BFB1F5A3
:10034000801FE9D291F0000F04BF01460020B1FAEE
:1003500081F308BF2033A3F10B03B3F120020CDAC1
:100360000C3208DD02F1140CC2F10C0201FA0CF09F
:1003700021FA02F10CE002F11402D8BFC2F1200C04
:1003800001FA02F120FA0CFCDCBF41EA0C019040BA
:10039000E41AA2BF01EB0451294330BD6FEA040403
:1003A0001F3C1CDA0C340EDC04F11404C4F12002EE
:1003B00020FA04F001FA02F340EA030021FA04F300
:1003C00045EA030130BDC4F10C04C4F1200220FA57
:1003D00002F001FA04F340EA0300294630BD21FA95
:1003E00004F0294630BD94F0000F83F4801306BF5B
:1003F00081F480110134013D4EE77FEA645C18BF4F
:100400007FEA655C29D094EA050F08BF90EA020FE5
:1004100005D054EA000C04BF1946104630BD91EADD
:10042000030F1EBF0021002030BD5FEA545C05D1E0
:100430004000494128BF41F0004130BD14F580041F
:100440003CBF01F5801130BD01F0004545F0FE4193
:1004500041F470014FF0000030BD7FEA645C1ABFC8
:10046000194610467FEA655C1CBF0B46024650EAFF
:10047000013406BF52EA033591EA030F41F400212B
:1004800030BD00BF90F0000F04BF0021704730B5B1
:100490004FF4806404F132044FF000054FF0000186
:1004A00050E700BF90F0000F04BF0021704730B547
:1004B0004FF4806404F1320410F0004548BF40421C
:1004C0004FF000013EE700BF42004FEAE2014FEA71
:1004D00031014FEA02701FBF12F07F4393F07F4F4C
:1004E00081F06051704732F07F4208BF704793F04F
:1004F0007F4F04BF41F40021704730B54FF4607462
:1005000001F0004521F000411CE700BF50EA010264
:1005100008BF704730B54FF000050AE050EA01020D
:1005200008BF704730B511F0004502D5404261EB7D
:1005300041014FF4806404F132045FEA915C3FF4BE
:10054000D8AE4FF003025FEADC0C18BF03325FEA5B
:10055000DC0C18BF033202EBDC02C2F1200300FA0C
:1005600003FC20FA02F001FA03FE40EA0E0021FA31
:1005700002F11444BDE600BF70B54FF0FF0C4CF41F
:10058000E06C1CEA11541DBF1CEA135594EA0C0FD1
:1005900095EA0C0F00F0DEF82C4481EA030621EA0C
:1005A0004C5123EA4C5350EA013518BF52EA033547
:1005B00041F4801143F4801338D0A0FB02CE4FF0F9
:1005C0000005E1FB02E506F00042E0FB03E54FF029
:1005D0000006E1FB03569CF0000F18BF4EF0010E21
:1005E000A4F1FF04B6F5007F64F5407404D25FEA1D
:1005F0004E0E6D4146EB060642EAC62141EA5551D0
:100600004FEAC52040EA5E504FEACE2EB4F1FD0C11
:1006100088BFBCF5E06F1ED8BEF1004F08BF5FEA8F
:10062000500E50F1000041EB045170BD06F0004641
:1006300046EA010140EA020081EA0301B4EB5C04EE
:10064000C2BFD4EB0C0541EA045170BD41F48011E6
:100650004FF0000E013C00F3AB8014F1360FDEBF0B
:10066000002001F0004170BDC4F10004203C35DAE7
:100670000C341BDC04F11404C4F1200500FA05F36A
:1006800020FA04F001FA05F240EA020001F000420B
:1006900021F0004110EBD37021FA04F642EB060181
:1006A0005EEA430E08BF20EAD37070BDC4F10C04AB
:1006B000C4F1200500FA04F320FA05F001FA04F26F
:1006C00040EA020001F0004110EBD37041F100015B
:1006D0005EEA430E08BF20EAD37070BDC4F1200566
:1006E00000FA05F24EEA020E20FA04F301FA05F2CE
:1006F00043EA020321FA04F001F0004121FA04F276
:1007000020EA020000EBD3705EEA430E08BF20EA45
:10071000D37070BD94F0000F0FD101F0004640007F
:1007200041EB010111F4801F08BF013CF7D041EA01
:10073000060195F0000F18BF704703F00046520005
:1007400043EB030313F4801F08BF013DF7D043EAD6
:100750000603704794EA0C0F0CEA135518BF95EA8C
:100760000C0F0CD050EA410618BF52EA4306D1D113
:1007700081EA030101F000414FF0000070BD50EA32
:10078000410606BF1046194652EA430619D094EABC
:100790000C0F02D150EA013613D195EA0C0F05D1A6
:1007A00052EA03361CBF104619460AD181EA0301FA
:1007B00001F0004141F0FE4141F470014FF00000B2
:1007C00070BD41F0FE4141F4780170BD70B54FF04D
:1007D000FF0C4CF4E06C1CEA11541DBF1CEA1355CD
:1007E00094EA0C0F95EA0C0F00F0A7F8A4EB0504AF
:1007F00081EA030E52EA03354FEA013100F08880A6
:100800004FEA03334FF0805545EA131343EA12636E
:100810004FEA022245EA111545EA10654FEA002623
:100820000EF000419D4208BF964244F1FD0404F5DC
:10083000407402D25B084FEA3202B61A65EB030538
:100840005B084FEA32024FF480104FF4002CB6EBF5
:10085000020E75EB030E22BFB61A754640EA0C0075
:100860005B084FEA3202B6EB020E75EB030E22BFB5
:10087000B61A754640EA5C005B084FEA3202B6EBF6
:10088000020E75EB030E22BFB61A754640EA9C00B5
:100890005B084FEA3202B6EB020E75EB030E22BF85
:1008A000B61A754640EADC0055EA060E18D04FEA43
:1008B000051545EA16754FEA06164FEAC30343EAE3
:1008C00052734FEAC2025FEA1C1CC0D111F4801FB0
:1008D0000BD141EA00014FF000004FF0004CB6E7A9
:1008E00011F4801F04BF01430020B4F1FD0C88BF48
:1008F000BCF5E06F3FF6AFAEB5EB030C04BFB6EB53
:10090000020C5FEA500C50F1000041EB045170BD45
:100910000EF0004E4EEA113114EB5C04C2BFD4EB72
:100920000C0541EA045170BD41F480114FF0000EF6
:10093000013C90E645EA060E8DE60CEA135594EA72
:100940000C0F08BF95EA0C0F3FF43BAF94EA0C0F75
:100950000AD150EA01347FF434AF95EA0C0F7FF4EA
:1009600025AF104619462CE795EA0C0F06D152EA3E
:1009700003353FF4FDAE1046194622E750EA410622
:1009800018BF52EA43067FF4C5AE50EA41047FF433
:100990000DAF52EA43057FF4EBAE12E74FF0FF3C98
:1009A00006E000BF4FF0010C02E000BF4FF0010C69
:1009B0004DF804CD4FEA410C7FEA6C5C4FEA430CE2
:1009C00018BF7FEA6C5C1BD001B050EA410C0CBF31
:1009D00052EA430C91EA030F02BF90EA020F002093
:1009E000704710F1000F91EA030F58BF994208BFFA
:1009F00090422CBFD8176FEAE37040F001007047B7
:100A00004FEA410C7FEA6C5C02D150EA013C07D10D
:100A10004FEA430C7FEA6C5CD6D152EA033CD3D058
:100A20005DF8040B704700BF8446104662468C4652
:100A30001946634600E000BF01B5FFF7B7FF002885
:100A400048BF10F1000F01BD4DF808EDFFF7F4FFAE
:100A50000CBF012000205DF808FB00BF4DF808ED39
:100A6000FFF7EAFF34BF012000205DF808FB00BF5C
:100A70004DF808EDFFF7E0FF94BF012000205DF87E
:100A800008FB00BF4DF808EDFFF7CEFF94BF012033
:100A900000205DF808FB00BF4DF808EDFFF7C4FF2C
:100AA00034BF012000205DF808FB00BF4FEA41027F
:100AB00012F5001215D211D56FF47873B3EB6252B0
:100AC00012D94FEAC12343F0004343EA505311F0D7
:100AD000004F23FA02F018BF404270474FF0000069
:100AE000704750EA013005D111F0004008BF6FF0A7
:100AF000004070474FF00000704700BF4A0011D21D
:100B000012F5001211D20DD56FF47873B3EB625267
:100B10000ED44FEAC12343F0004343EA505323FA73
:100B200002F070474FF00000704750EA013002D1E8
:100B30004FF0FF3070474FF00000704753B94AB98B
:100B4000002908BF00281CBF4FF0FF314FF0FF30D5
:100B500000F06EB9ADF1080C6DE904CE00F006F8B6
:100B6000DDF804E0DDE9022304B070472DE9F04729
:100B7000089D04468C46002B40F083808A4217462D
:100B800047D9B2FA82F242B1C2F1200024FA00F051
:100B90009140974040EA010C94404FEA1748230CDB
:100BA000BCFBF8F61FFA87FE08FB16C143EA0143B7
:100BB00006FB0EF1994209D9FB1806F1FF3080F0CF
:100BC0001981994240F21681023E3B445B1AA4B25D
:100BD000B3FBF8F008FB103344EA034400FB0EFEBD
:100BE000A64509D93C1900F1FF3380F00581A645DF
:100BF00040F2028102383C4440EA0640A4EB0E0475
:100C000000261DB1D4400023C5E900433146BDE8AC
:100C1000F08702B9FFDEB2FA82F2002A50D1CB1B74
:100C20004FEA174E1FFA87F80126B3FBFEFC210C92
:100C30000EFB1C3341EA034108FB0CF38B4207D93E
:100C400079180CF1FF3002D28B4200F2E980844621
:100C5000C91AA3B2B1FBFEF00EFB101143EA014426
:100C600008FB00F8A04507D93C1900F1FF3302D278
:100C7000A04500F2D9801846A4EB080440EA0C40D5
:100C8000BFE78B4209D9002D00F0B1800026C5E9ED
:100C9000000130463146BDE8F087B3FA83F6002EF6
:100CA0004AD18B4202D3824200F2B880841A61EBAF
:100CB000030101208C46002DA8D0C5E9004CA5E712
:100CC000C2F1200320FA03F6974001FA02F04FEA3E
:100CD000174ED9403043030CB1FBFEF61FFA87F8DC
:100CE0000EFB161143EA014306FB08F1994204FA90
:100CF00002F409D9FB1806F1FF3C80F08D8099427F
:100D000040F28A80023E3B445B1A81B2B3FBFEF0A4
:100D10000EFB103341EA034100FB08F38B4207D975
:100D2000791800F1FF3C73D28B4271D902383944F3
:100D3000CB1A40EA064678E7C6F1200C03FA06F41F
:100D400022FA0CF31C4320FA0CF701FA06F34FEADF
:100D5000144E21FA0CF11F433B0CB1FBFEF91FFAB4
:100D600084F80EFB191143EA014109FB08FA8A4590
:100D700002FA06F200FA06F308D9611809F1FF3009
:100D800048D28A4546D9A9F102092144A1EB0A01BA
:100D9000BFB2B1FBFEF00EFB101147EA014700FBAA
:100DA00008F8B84507D9E71900F1FF312ED2B84548
:100DB0002CD90238274440EA0940A7EB0807A0FBDA
:100DC00002894F45C64649461AD317D05DB1B3EBE9
:100DD0000E0267EB010707FA0CFCF2404CEA020234
:100DE000F740C5E9002700263146BDE8F0872E46CA
:100DF00028460BE70646E9E61846FDE64345E5D2F8
:100E0000B8EB020E69EB04010138DFE70846D2E7D0
:100E100060468DE78146B9E7664675E730464AE7A2
:100E2000ACF1020C394413E702383C4424E700BF1C
:100E3000704700BF844641EA000313F003036DD1FD
:100E4000403A41D351F8043B40F8043B51F8043B8D
:100E500040F8043B51F8043B40F8043B51F8043B94
:100E600040F8043B51F8043B40F8043B51F8043B84
:100E700040F8043B51F8043B40F8043B51F8043B74
:100E800040F8043B51F8043B40F8043B51F8043B64
:100E900040F8043B51F8043B40F8043B51F8043B54
:100EA00040F8043B51F8043B40F8043B51F8043B44
:100EB00040F8043B51F8043B40F8043B51F8043B34
:100EC00040F8043B403ABDD2303211D351F8043BD4
:100ED00040F8043B51F8043B40F8043B51F8043B14
:100EE00040F8043B51F8043B40F8043B103AEDD283
:100EF0000C3205D351F8043B40F8043B043AF9D2D4
:100F0000043208D0D2071CBF11F8013B00F8013BA6
:100F100001D30B8803806046704700BF082A13D3B3
:100F20008B078DD010F003038AD0C3F10403D21ACB
:100F3000DB071CBF11F8013B00F8013B80D331F8FF
:100F4000023B20F8023B7BE7043AD9D3013A11F87F
:100F5000013B00F8013BF9D20B7803704B784370EA
:100F60008B7883706046704700000000000000002E
:100F70000000000000000000000000000000000071
:100F8000A2EB0300704700BF02780B78012A28BF4C
:100F90009A42F5D16DE9044540EA0104CDE90267C2
:100FA0006FF0000C4FEA447212B380EA010414F0AF
:100FB000070F6AD100F0070420F0070004F00305D2
:100FC00021F007014FEAC505F0E8042314F0040FEF
:100FD000F1E804670CFA05F462EA040266EA040622
:100FE0000AD063EA0403624667EA0407664603E040
:100FF000F0E80423F1E8046782FA4CF582EA06047B
:10100000A4FA8CF46CBB83FA4CF583EA0705A5FAC5
:101010008CF595B950E9022351E9026782FA4CF543
:1010200082EA0604A4FA8CF483FA4CF583EA0705F5
:10103000A5FA8CF52543DBD09CB92DBAB5FA85F419
:1010400024F0070427FA04F1DDE9026723FA04F328
:1010500003F0FF0001F0FF01FDE80445A0EB0100F3
:10106000704724BAB4FA84F424F0070426FA04F191
:10107000DDE9026722FA04F202F0FF0001F0FF014D
:10108000FDE80445A0EB0100704714F0030F3CD1CC
:1010900010F0030428D150F8082B51F8083B82FACD
:1010A0004CF582EA0305A5FA8CF55DB950F8042CDD
:1010B00051F8043C82FA4CF582EA0305A5FA8CF556
:1010C000002DE8D02DBAB5FA85F424F0070423FAF0
:1010D00004F122FA04F202F0FF0001F0FF01FDE842
:1010E0000445A0EB010070474FEAC40420F0030060
:1010F00050F8082B21F0030151F8083B0CFA04F4D6
:1011000062EA040263EA0403C9E710F003041AD098
:10111000A1EB040120F00300E40750F8042B06D0F3
:101120000FD28B785FFAA2F4E41A06D12BB1CB78F8
:101130005FFAB2F4E41A00D11BB920465DF8104BF7
:10114000704701F1040150F8042BCC0721F0030192
:1011500051F8043B48D824D222F07F4482FA4CF55F
:1011600094EA1325A5FA8CF50AD165B951F8043B28
:1011700084EA0204B4EB036F0ED150F8042BEBE7C2
:101180004FEA132355E035F07F454DD10878FDE84F
:101190000445C0F1000070474FEA126203F0FF03FC
:1011A00047E002EA1C4482FA4CF594EA1345A5FA9A
:1011B0008CF50AD165B951F8043B84EA0204B4EB1A
:1011C000034F0CD150F8042BEBE74FEA134330E008
:1011D00015EA1C4528D10B884FEA124229E04FEA54
:1011E000124203EA1C4324E002F0FF0482FA4CF5A9
:1011F00094EA1365A5FA8CF50AD165B951F8043B58
:1012000084EA0204B4EB032F09D150F8042BEBE776
:101210004FEA13630DE015F0FF0F05D10B684FEA9D
:10122000122223F07F4304E04FF00000FDE8044564
:10123000704712BA1BBA82FA4CF482EA0304A4FA89
:101240008CF5B5FA85F402FA04F203FA04F34FEAD6
:101250001260FDE80445A0EB136070470000000039
:10126000000000000000000000000000000000007E
:10127000000000000000000000000000000000006E
:1012800090F800F06DE9024520F007016FF0000CC6
:1012900010F0070491F820F040F049804FF000046E
:1012A0006FF00700D1E9002391F840F000F1080049
:1012B00082FA4CF2A4FA8CF283FA4CF3A2FA8CF381
:1012C0004BBBD1E9022382FA4CF200F10800A4FAE8
:1012D0008CF283FA4CF3A2FA8CF3E3B9D1E904233C
:1012E00082FA4CF200F10800A4FA8CF283FA4CF373
:1012F000A2FA8CF37BB9D1E9062301F1200182FA2D
:101300004CF200F10800A4FA8CF283FA4CF3A2FA32
:101310008CF3002BC6D0002A04BF04301A4612BA40
:10132000B2FA82F2FDE8024500EBD2007047D1E943
:10133000002304F00305C4F100004FEAC50514F0D2
:10134000040F91F840F00CFA05F562EA05021CBFA3
:1013500063EA050362464FF00004A9E700000000BD
:1013600001F0FF01102A2BDB10F0070F08D010F856
:10137000013B013A8B422DD010F0070F42B3F6D15A
:10138000F0B441EA012141EA014122F007047FF073
:1013900000070023F0E80256083C85EA010586EACA
:1013A000010685FA47F5A3FA87F586FA47F6A5FA06
:1013B00087F68EB9EED1F0BC01F0FF0102F0070212
:1013C00032B110F8013B013A83EA010313B1F8D1BD
:1013D0000020704701387047002D06BF354603389E
:1013E000073815F0010F07D1013015F4807F02BFD7
:1013F000013015F4C03F0130F0BC0138704700BF28
:101400004FEA410C7FEA6C5C02D150EA013C0AD100
:101410004FEA430C7FEA6C5C02D152EA033C02D1F2
:101420004FF0000070474FF00100704710B50446C0
:101430000E4B18784FF47A73B3FBF0F30C4A106834
:10144000B0FBF3F000F0ACF868B90F2C01D9012023
:101450000AE0002221464FF0FF3000F05FF8054B14
:101460001C60002000E0012010BD00BF3C000020F7
:101470007C0000204000002008B50B4B1A6842F4A5
:1014800000721A601A6842F480621A601A6842F4A4
:1014900080721A60032000F02FF80020FFF7C6FFCB
:1014A00007F04CFB002008BD003C0240034A1168D5
:1014B000034B1B780B441360704700BF780C00206F
:1014C0003C000020014B1868704700BF780C0020DA
:1014D00038B50446FFF7F6FF0546B4F1FF3F02D0EA
:1014E000044B1B781C44FFF7EDFF401BA042FAD3CE
:1014F00038BD00BF3C000020074AD36823F4E063F6
:101500001B041B0C000200F4E060034343F0BF63C4
:1015100043F40033D360704700ED00E030B4174B64
:10152000DB68C3F30223C3F10704042C28BF04249F
:101530001D1D062D18D9033B4FF0FF3505FA04F4A5
:1015400021EA0401994005FA03F322EA030319434F
:1015500000280BDB0901C9B200F1604000F56140D1
:1015600080F8001330BC70470023E5E700F00F005F
:101570000901C9B2024B1954F4E700BF00ED00E0C5
:1015800014ED00E0002807DB00F01F0240090123F2
:101590009340024A42F82030704700BF00E100E06B
:1015A0000138B0F1807F0AD2064B5860064AF0211C
:1015B00082F823100020986007221A6070470120EB
:1015C000704700BF10E000E000ED00E058B110B53A
:1015D000044643791BB101236371002010BD0371E0
:1015E00007F030F8F7E701207047000000230F2BC9
:1015F00000F2D980F0B583B039E0072200E0002284
:10160000B2403A430234684E46F82420674A1468D0
:10161000EA4324EA05064F6817F4803F01D045EA03
:101620000406624C2660646802EA04064F6817F4F8
:10163000003F01D045EA04065C4C6660A46802EAFB
:1016400004064F6817F4801F01D045EA0406574C82
:10165000A660E46822404E6816F4001F01D045EAF7
:101660000402524CE26001330F2B00F29A800122F7
:101670009A400C6804EA020532EA0404F3D14C688B
:10168000661E012E03D9112C01D0122C12D18668AE
:101690005F000324BC4026EA0406CC68BC40344307
:1016A0008460466826EA02064C68C4F300129A4039
:1016B00032434260C7685E000324B440E24327EA35
:1016C00004078C68B4403C43C4604C68022C01D0D1
:1016D000122C13D1DF08083750F827E003F0070475
:1016E0004FEA840C0F2404FA0CF42EEA040E0C6961
:1016F00004FA0CF444EA0E0440F82740046814404D
:101700004A6802F00302B240224302604A6812F0C3
:10171000805FA8D000220192254A546C44F4804492
:101720005464526C02F480420192019A9C08A61CF7
:101730001D4A52F8267003F0030296000F22B240B1
:1017400027EA02071B4A90423FF459AF02F5806234
:1017500090421AD002F58062904218D002F5806261
:10176000904216D002F58062904214D002F5806259
:10177000904212D002F58062904210D002F5806251
:1017800090423FF43AAF08223AE7012238E70222BA
:1017900036E7032234E7042232E7052230E7062247
:1017A0002EE703B0F0BD704700380140003C014017
:1017B00000380240000002400369194201D00120B4
:1017C0007047002070470AB1816170470904816148
:1017D0007047436931EA030301D08161704709040E
:1017E00081617047002800F0D98170B582B004464D
:1017F000036813F0010F3BD0A64B9B6803F00C036A
:10180000042B2CD0A34B9B6803F00C03082B21D096
:101810006368B3F5803F4FD0B3F5A02F52D09D4BF6
:101820001A6822F480321A601A6822F480221A6040
:101830006368002B50D0FFF745FE0546954B1B68AB
:1018400013F4003F14D1FFF73DFE401B6428F5D987
:101850000320AAE18F4B5B6813F4800FD8D08D4B27
:101860001B6813F4003F03D06368002B00F09881DD
:10187000236813F0020F54D0864B9B6813F00C0FB3
:101880003ED0844B9B6803F00C03082B33D0E368F5
:10189000002B67D0804B01221A60FFF713FE05462C
:1018A0007C4B1B6813F0020F53D1FFF70BFE401B5C
:1018B0000228F5D9032078E1764A136843F480338F
:1018C0001360B5E7734B1A6842F480221A601A68F5
:1018D00042F480321A60ABE7FFF7F4FD05466D4B2A
:1018E0001B6813F4003FC3D0FFF7ECFD401B6428D6
:1018F000F5D9032059E1674B5B6813F4800FC6D11B
:10190000644B1B6813F0020F03D0E368012B40F017
:101910004981604A136823F0F803216943EAC1034F
:101920001360236813F0080F40D0636963B35B4B07
:1019300001221A60FFF7C6FD0546564B5B6F13F098
:10194000020F33D1FFF7BEFD401B0228F5D903205B
:101950002BE1504A136823F0F803216943EAC103DD
:101960001360DEE74C4B00221A60FFF7ABFD054623
:10197000484B1B6813F0020FD3D0FFF7A3FD401BA9
:101980000228F5D9032010E1444B00221A60FFF72A
:1019900099FD05463F4B5B6F13F0020F06D0FFF732
:1019A00091FD401B0228F5D90320FEE0236813F0C7
:1019B000040F78D0374B1B6C13F0805F0DD10023E0
:1019C0000193344B1A6C42F080521A641B6C03F082
:1019D00080530193019B012500E00025304B1B68DB
:1019E00013F4807F21D0A368012B32D0052B36D091
:1019F000284B1A6F22F001021A671A6F22F00402B4
:101A00001A67A368002B34D0FFF75CFD0646214B14
:101A10001B6F13F0020F45D1FFF754FD801B41F2FD
:101A200088339842F3D90320BFE01D4A136843F47A
:101A300080731360FFF746FD0646194B1B6813F4CD
:101A4000807FD0D1FFF73EFD801B0228F5D903200F
:101A5000ABE0104A136F43F001031367D1E70D4B5E
:101A60001A6F42F004021A671A6F42F001021A67F5
:101A7000C7E7FFF727FD0646064B1B6F13F0020F63
:101A800010D0FFF71FFD801B41F288339842F3D935
:101A900003208AE00038024000004742800E47429F
:101AA00000700040E5B9A369002B7DD0464A9268DA
:101AB00002F00C02082A51D0022B17D0434B00220F
:101AC0001A60FFF7FFFC04463F4B1B6813F0007FD2
:101AD00042D0FFF7F7FC001B0228F5D9032064E091
:101AE000394A136C23F080531364DCE7374B002230
:101AF0001A60FFF7E7FC0546334B1B6813F0007FC5
:101B000006D0FFF7DFFC401B0228F5D903204CE08C
:101B1000E369226A1343626A43EA8213A26A5208A3
:101B2000013A43EA0243E26A43EA0263264A536007
:101B3000264B01221A60FFF7C5FC0446224B1B68A6
:101B400013F0007F06D1FFF7BDFC001B0228F5D97A
:101B500003202AE0002028E0002026E0012B26D0E8
:101B6000194B5B6803F48001E269914221D103F0D3
:101B70003F02216A8A421ED1616A47F6C0721A404A
:101B80008A421AD103F44032A16A8A4217D103F083
:101B90007063E26A934214D1002006E0012070478E
:101BA000012002E0012000E0002002B070BD012011
:101BB000FBE70120F9E70120F7E70120F5E7012025
:101BC000F3E70120F1E700BF003802406000474220
:101BD000F8B52F4B9B6803F00C03042B53D0082B54
:101BE00053D12B4B5A6802F03F025B6813F4800F0D
:101BF00028D0274B5B68C3F3881358010021C01A13
:101C000061F100018E0146EA906687013C1A66EB9D
:101C10000105E90041EA5471E000C01841F10001FA
:101C20004B0243EAD0534402204619460023FEF7F4
:101C300085FF174B5B68C3F3014301335B00B0FBC7
:101C4000F3F023E0124B5B68C3F388135C010025BB
:101C5000E41A65F10005AE0146EA9466A701381B57
:101C600066EB0501CC0044EA5074C500E81844F165
:101C700000018B0243EA9053840220461946002358
:101C8000FEF75CFFD5E7034800E00348F8BD00BF5E
:101C90000038024000127A000024F400002800F00E
:101CA0009B8070B50D4604464F4B1B6803F00F0335
:101CB0008B4208D2CBB24C4A1370136803F00F0367
:101CC0008B4240F08B80236813F0020F17D013F083
:101CD000040F04D0454A936843F4E05393602368AB
:101CE00013F0080F04D0414A936843F460439360B3
:101CF0003E4A936823F0F003A1680B439360236886
:101D000013F0010F32D06368012B21D09A1E012AF3
:101D100025D9364A126812F0020F61D033498A6819
:101D200022F0030213438B60FFF7CCFB06462F4BD8
:101D30009B6803F00C036268B3EB820F16D0FFF7C9
:101D4000C1FB801B41F288339842F0D9032042E066
:101D5000264A126812F4003FE0D101203BE0234AFA
:101D6000126812F0007FD9D1012034E01E4B1B68AD
:101D700003F00F03AB4207D9EAB21B4B1A701B6882
:101D800003F00F03AB422DD1236813F0040F06D0EC
:101D9000164A936823F4E053E1680B439360236889
:101DA00013F0080F07D0114A936823F460432169A8
:101DB00043EAC1039360FFF70BFF0C4B9B68C3F32F
:101DC00003130B4AD35CD8400A4B18600A4B1868BF
:101DD000FFF72CFB002070BD012070470120FAE7BF
:101DE0000120F8E70120F6E7003C024000380240FD
:101DF000683901087C00002040000020014B186871
:101E0000704700BF7C00002008B5FFF7F7FF044BC8
:101E10009B68C3F38223034AD35CD84008BD00BF4C
:101E2000003802407839010808B5FFF7E7FF044B96
:101E30009B68C3F34233034AD35CD84008BD00BF5C
:101E400000380240783901082DE9F04106468846FD
:101E500017461D463468A46838EA04030CBF012401
:101E60000024BC4237D0B5F1FF3FF3D0FFF72AFB87
:101E7000069BC01AA84201D2002DEBD132685368EC
:101E800023F0E00353607368B3F5827F0BD0B36A2D
:101E9000B3F5005F14D0012386F85130002386F893
:101EA0005030032018E0B368B3F5004F02D0B3F50B
:101EB000806FECD13268136823F040031360E6E7CB
:101EC0003268136823F4005313603268136843F4D4
:101ED00000531360DFE70020BDE8F08130B585B026
:101EE0000446164B1868164BA3FB0030400D4FF408
:101EF0007A7505FB00F003906368B3F5827F0BD021
:101F0000039BBBB1039B013B039323689B6813F0C6
:101F1000800FF5D100200EE000920B4600228021B8
:101F20002046FFF791FF30B1636D43F020036365F6
:101F3000032000E0002005B030BD00BF7C00002081
:101F4000819F5E1600283BD010B5044600238362B3
:101F500090F85130002B2ED0022384F851302268A3
:101F6000136823F0400313606368A2681343E268B8
:101F700013432269134362691343A26902F4007296
:101F80001343E2691343226A1343A16A22680B4395
:101F90001360638B03F00403616A22680B43536090
:101FA0002268D36923F40063D361002060650123B4
:101FB00084F8513010BD80F8503006F06FFDCBE74B
:101FC000012070472DE9F04383B01D4690F8503052
:101FD000012B00F0C780044688469146012380F813
:101FE0005030FFF76FFA074694F85160F6B2012EB1
:101FF00040F0A580B8F1000F00F0A280B9F1000F09
:1020000000F09E80032384F8513000236365C4F8F8
:102010003080A4F83490A4F83690A363A387E387B4
:1020200063642364A368B3F5004F1ED023681A6865
:1020300012F0400F03D11A6842F040021A60E368C0
:10204000B3F5006F17D0636813B1B9F1010F4DD12B
:10205000226B236812781A73236B01332363E38E98
:102060009BB2013B9BB2E38640E02268136843F4D5
:1020700080431360DAE7636813B1B9F1010F16D139
:10208000226B23681288DA60236B02332363E38EAA
:102090009BB2013B9BB2E38609E0FFF713FAC01B3A
:1020A000A84202D3B5F1FF3F54D1002D54D0E38EA6
:1020B0009BB2002B2ED023689A6812F0020FECD04E
:1020C000226B1288DA60236B02332363E38E9BB2A8
:1020D000013B9BB2E386EAE7FFF7F4F9C01BA84295
:1020E00002D3B5F1FF3F39D1002D39D0E38E9BB239
:1020F00083B123689A6812F0020FEDD0226B127838
:102100001A73236B01332363E28E92B2013A92B2C7
:10211000E286EBE73A4629462046FFF7DFFE08B1A4
:1021200020236365A36833B901932368DA680192B9
:102130009B680193019B636D13B9002600E00226A2
:10214000012384F85130002384F85030304603B026
:10215000BDE8F0830326F3E70326F1E70326EFE764
:102160000326EDE70226F1E728B370B50E461546C3
:10217000044690F84930CBB1214651F8080B00F0E5
:1021800097FCA2683146206800F0C0FC236BA2686F
:102190002946606800F0DAFC2268A16852F8213014
:1021A00043F0010342F82130002070BD80F8483030
:1021B00006F0F2FAE0E70120704730B4036A056ADE
:1021C00025F001050562846924F0F00444EA021454
:1021D00023F00A030B438461036230BC704730B4C0
:1021E000056A25F0100505628469036A24F47044C9
:1021F00044EA023423F0A00343EA0113846103623A
:1022000030BC7047836823F070030B4343F007032F
:10221000836070470268D36843F00103D3600268AB
:10222000936803F00703062B03D0136843F0010300
:10223000136000207047704770477047704710B5B3
:10224000044603681A6912F0020F11D0DA6812F01E
:10225000020F0DD06FF002021A61012303770368A9
:102260009B6913F0030F70D0FFF7E6FF002323777D
:1022700023681A6912F0040F12D0DA6812F0040F02
:102280000ED06FF004021A610223237723689B6942
:1022900013F4407F5FD02046FFF7CEFF0023237763
:1022A00023681A6912F0080F12D0DA6812F0080FCA
:1022B0000ED06FF008021A61042323772368DB69CC
:1022C00013F0030F4ED02046FFF7B6FF002323770D
:1022D00023681A6912F0100F12D0DA6812F0100F8A
:1022E0000ED06FF010021A61082323772368DB6990
:1022F00013F4407F3DD02046FFF79EFF0023237755
:1023000023681A6912F0010F03D0DA6812F0010F86
:1023100036D123681A6912F0800F03D0DA6812F000
:10232000800F34D123681A6912F0400F03D0DA68A5
:1023300012F0400F32D123681A6912F0200F03D037
:10234000DA6812F0200F30D110BDFFF774FF20467D
:10235000FFF773FF8AE72046FFF76DFF2046FFF780
:102360006CFF9BE72046FFF766FF2046FFF765FFFF
:10237000ACE72046FFF75FFF2046FFF75EFFBDE7B3
:102380006FF001021A61204606F054FDC1E76FF0BC
:1023900080021A61204600F04CF9C3E76FF040025A
:1023A0001A612046FFF74AFFC5E76FF020021A6165
:1023B000204600F03DF9C7E70368304A904212D04A
:1023C000B0F1804F0FD0A2F57C4290420BD002F5C5
:1023D0008062904207D002F58062904203D002F5FD
:1023E0007842904203D123F070034A681343234A92
:1023F00090422AD0B0F1804F27D0A2F57C42904283
:1024000023D002F5806290421FD002F58062904294
:102410001BD002F57842904217D002F570529042DC
:1024200013D002F5806290420FD002F58062904294
:102430000BD0A2F59832904207D002F5806290420C
:1024400003D002F58062904203D123F44073CA683E
:10245000134323F080034A69134303608B68C3620C
:102460000B688362054B984203D003F58063984262
:1024700001D10B69036301234361704700000140F0
:10248000B0B110B5044690F83D3063B1022384F832
:102490003D30214651F8040BFFF78EFF012384F8ED
:1024A0003D30002010BD80F83C3006F06FFCEDE7B9
:1024B0000120704710B4846824F47F4442EA032268
:1024C0000A43224382605DF8044B704790F83C3029
:1024D000012B66D010B50446012380F83C3002235E
:1024E00080F83D300268936823F47F4323F077033C
:1024F00093600B68602B40D022D8402B47D00BD97B
:10250000502B0ED1CA6849680068FFF756FE50216B
:102510002068FFF777FE04E0202B0CD008D9302B81
:1025200009D0012384F83D30002084F83C0010BD20
:102530000BB1102BF5D119462068FFF763FEF0E7C9
:10254000702B0ED0B3F5005FEBD1CB684A68896879
:102550000068FFF7AFFF2268936843F480439360FD
:10256000DFE7CB684A6889680068FFF7A3FF226845
:10257000936843F077039360D3E7CA6849680068BB
:10258000FFF72DFE60212068FFF73CFEC9E7CA680F
:1025900049680068FFF711FE40212068FFF732FE0E
:1025A000BFE702207047000090F83C30012B3BD081
:1025B00030B4012380F83C30022380F83D300368BA
:1025C0005C689D6824F070040A6822435A600368BE
:1025D000164A93421AD0B3F1804F17D0A2F57C422D
:1025E000934213D002F5806293420FD002F58062CD
:1025F00093420BD002F57842934207D002F5705215
:10260000934203D0A2F59432934204D125F0800581
:102610004A6815439D60012380F83D30002380F80F
:102620003C30184630BC7047022070470000014023
:102630007047704770B504460268136923F440532D
:10264000C1680B43136183680269134342691343F2
:10265000C2691A430168CB6823F4164323F00C03C4
:102660001343CB600268536923F4407381690B43C1
:102670005361C369B3F5004F36D00368654A93428E
:1026800000F09A8002F58062934200F09580FFF797
:10269000BBFB0026051846EB06012D1846EB010191
:1026A000CB0043EA5573EA001546194663689A0061
:1026B0009B0F281846EB0101FEF740FA564DA5FB8B
:1026C00000325109642303FB11031B013233A5FBC4
:1026D00003235B0903F0F00202EB011203F00F0386
:1026E000216813448B6093E003684A4A934233D0D5
:1026F00002F5806293422FD0FFF786FB0026051873
:1027000046EB06012D1846EB0101CB0043EA557359
:10271000EA001546194662683346921846EB0303F1
:10272000281846EB0101FEF709FA3B4DA5FB0032E4
:102730005109642303FB1103DB003233A5FB0323A0
:102740005B095A0002F4F87202EB011203F007036E
:10275000216813448B605BE0FFF766FB00260518D9
:1027600046EB06012D1846EB0101CB0043EA5573F9
:10277000EA001546194662683346921846EB030391
:10278000281846EB0101FEF7D9F9234DA5FB0032CD
:102790005109642303FB1103DB003233A5FB032340
:1027A0005B095A0002F4F87202EB011203F007030E
:1027B000216813448B602BE0FFF736FB00260518D9
:1027C00046EB06012D1846EB0101CB0043EA557399
:1027D000EA001546194663689A009B0F281846EBD5
:1027E0000101FEF7ABF90C4DA5FB00325109642342
:1027F00003FB11031B013233A5FB03235B0903F029
:10280000F00202EB011203F00F03216813448B6006
:1028100070BD00BF001001401F85EB512DE9F8434A
:1028200005460F4616469946DDF820802C68246838
:1028300037EA04030CBF01240024B4421FD1B8F1CD
:10284000FF3FF3D0B8F1000F05D0FEF73BFEA0EB41
:1028500009004045EAD92A68D36823F4D073D360CD
:102860002A68536923F001035361202385F8393026
:1028700085F83A30002385F83830032000E0002046
:10288000BDE8F88358B310B5044690F839300BB35F
:10289000242384F839302268D36823F40053D360AA
:1028A0002046FFF7C7FE2268136923F490431361A3
:1028B0002268536923F02A0353612268D36843F4E2
:1028C0000053D3600020E063202384F8393084F87B
:1028D0003A3010BD80F8383006F0EAFAD8E7012027
:1028E00070472DE9F04383B01E4690F83930DBB2D3
:1028F000202B59D104460D469046002958D0002A75
:1029000058D090F83830012B56D0012380F8383059
:102910004FF00009C0F83C90212380F83930FEF7D1
:10292000D1FD0746A4F82480A4F8268084F83890C6
:1029300017E000963B46002280212046FFF76EFFFD
:1029400000283BD12B882268C3F308035360236916
:102950000BB9023505E0013503E015F8012B2368BA
:102960005A60E38C9BB29BB1E28C92B2013A92B274
:10297000E284A368B3F5805FDBD000963B4600227B
:1029800080212046FFF74AFF0028E6D003200CE014
:1029900000963B46002240212046FFF73FFF78B9D2
:1029A000202384F8393000E0022003B0BDE8F08332
:1029B0000120FAE70120F8E70220F6E70320F4E718
:1029C0000320F2E72DE9F04383B01E4690F83A3039
:1029D000DBB2202B5DD104460D46904600295CD029
:1029E000002A5CD090F83830012B5AD0012380F8AF
:1029F00038304FF00009C0F83C90222380F83A307C
:102A0000FEF760FD0746A4F82C80A4F82E8084F819
:102A100038901DE000963B46002220212046FFF71B
:102A2000FDFE00283FD1236933B923685B68C3F3F7
:102A3000080325F8023B0BE023685B68DBB225F84E
:102A4000013B05E023685B6803F07F0305F8013B69
:102A5000E38D9BB2C3B1E28D92B2013A92B2E285AC
:102A6000A368B3F5805FD5D000963B4600222021B5
:102A70002046FFF7D3FEC0B92369002BE2D12368BB
:102A80005B6805F8013BE3E7202384F83A30002037
:102A900000E0022003B0BDE8F0830120FAE7012046
:102AA000F8E70220F6E70320F4E70320F2E700004E
:102AB00070B40C6850F82430134E1E404A688D687C
:102AC00042EA0503CA6813430A6913434A69134378
:102AD0008A691343CA6913430A6A13434A6A134350
:102AE0008A6A1343CA6A1343CA6B13430A6B1343BC
:102AF0003343082D04D040F82430002070BC7047C8
:102B000043F04003F7E700BF8000F0FF30B401322C
:102B100050F8224004F040440B684D6843EA051326
:102B20008D6843EA0523CD6843EA05430D69013DFD
:102B300043EA05534D69023D43EA056389690B4346
:102B4000234340F82230002030BC7047B3F5804F5B
:102B500005D06FF0704340F822300020704730B449
:102B600050F82230094C1C400B684D6843EA0513AD
:102B70008D6843EA0523CD6843EA054389690B4321
:102B8000234340F82230002030BC70470000F0CFD3
:102B90007047704710B50A4B9B8845F2105293421C
:102BA00003D041F66312934205D1064C63680020BE
:102BB0009847A08910BDD02004F0FCFEFAE700BFC2
:102BC000840C00204800002010B50A4B9B8845F279
:102BD0001052934203D041F66312934205D1064C42
:102BE000636800209847E08A10BD902004F0E2FE60
:102BF000FAE700BF840C00204800002010B504460E
:102C000000F066F8230A5B00DBB2603B03F0FE00D5
:102C100000F046F900F0B4F8E0B200F041F900F03D
:102C2000AFF800F055F8A12000F03AF900F0A8F84C
:102C3000002000F077F9044600F076F8204610BD39
:102C400038B504460D4600F043F8230A5B00DBB2BA
:102C5000603B03F0FE0000F023F900F091F8E0B2D1
:102C600000F01EF900F08CF8284600F019F900F089
:102C700087F800F059F80A20FEF72AFC38BDF8B5AD
:102C800007460E4615460024AC420AD2E10026FA59
:102C900001F13819C9B280B2FFF7D2FF0134E4B2B2
:102CA000F2E7F8BDF8B507460E4600200446B442E8
:102CB0000CD20502B81980B2001B80B2013880B274
:102CC000FFF79CFF28440134E4B2F0E7F8BD0000B0
:102CD00010B5144C236823F440232360236843F485
:102CE0008023236001224FF400712046FEF76BFD24
:102CF00001224FF480712046FEF765FD042005F0A7
:102D000003FC00224FF400712046FEF75CFD042016
:102D100005F0FAFB00224FF480712046FEF753FDC8
:102D200010BD00BF0004024010B5144C236823F40A
:102D300040232360236843F48023236000224FF460
:102D400080712046FEF73FFD00224FF400712046BF
:102D5000FEF739FD042005F0D7FB01224FF4807106
:102D60002046FEF730FD01224FF400712046FEF7A9
:102D70002AFD042005F0C8FB10BD00BF000402407E
:102D800038B51A4C236823F440232360236823605A
:102D900001224FF400712046FEF715FD012005F0D9
:102DA000B3FB01224FF480712046FEF70CFD012099
:102DB00005F0AAFB00244FF400710C48FEF7FCFC60
:102DC000054638B10134E4B2FA2CF4D9FFF7ACFF70
:102DD000012508E000224FF4807100F1804000F5E9
:102DE0000130FEF7F0FC284638BD00BF0004024069
:102DF00010B5144C00224FF480712046FEF7E3FC1E
:102E0000236823F440232360236843F48023236052
:102E100000224FF400712046FEF7D5FC022005F099
:102E200073FB01224FF480712046FEF7CCFC022098
:102E300005F06AFB00224FF480712046FEF7C3FCC8
:102E400010BD00BF0004024010B5144C00224FF426
:102E500080712046FEF7B7FC236823F440232360EB
:102E6000236843F48023236001224FF4007120463D
:102E7000FEF7A9FC022005F047FB01224FF4807108
:102E80002046FEF7A0FC022005F03EFB00224FF496
:102E900080712046FEF797FC10BD00BF0004024081
:102EA00070B504461E48036823F44023036003689A
:102EB00043F48023036000224FF48071FEF783FC0B
:102EC00000251FE001224FF400711548FEF77BFC3E
:102ED0006400E4B2022005F017FB114E01224FF40A
:102EE00080713046FEF76FFC022005F00DFB0022DA
:102EF0004FF480713046FEF766FC022005F004FBBB
:102F00000135EDB2072D09D814F0800FDAD1002277
:102F10004FF400710248FEF756FCD9E770BD00BFC0
:102F200000040240F8B507461A4B1A6822F4402202
:102F30001A601A681A600024254604E0012005F092
:102F4000E3FA0135EDB2072D1BD8124E00224FF4E3
:102F500080713046FEF737FC022005F0D5FA0122D9
:102F60004FF480713046FEF72EFC6400E4B24FF45B
:102F700000713046FEF720FC0028DFD00134E4B2B7
:102F8000DCE71FB9FFF760FF2046F8BDFFF730FF11
:102F9000FAE700BF0004024010B582B0C1F30B0194
:102FA00041EA0030C0F307238DF804308DF80500A6
:102FB000094C002202212046FEF705FC0A230222CA
:102FC00001A90648FEF7FEFF012202212046FEF776
:102FD000FAFB02B010BD00BF00080240F80C002050
:102FE00082B0ADF80600BDF806309BB2ADF80630F1
:102FF000BDF80620014B1A8002B070477E00006CBD
:1030000082B0ADF80600BDF806309BB2ADF80630D0
:10301000BDF80620014B5A8002B070477E00006C5C
:1030200082B0044B5B88ADF80630BDF8060080B274
:1030300002B070477E00006C82B0ADF80600ADF8BB
:103040000410BDF80620034B1A80BDF804205A80F6
:1030500002B070477E00006C00B583B0ADF806008A
:10306000BDF8060080B2FFF7BBFF0120FEF730FA83
:10307000FFF7D6FF03B05DF804FB0000024B1A898E
:10308000024B1A80704700BF840C00207E00006C49
:1030900070B504460D46614B9B8849F2413293421C
:1030A0001FD045F2103293421BD046F604029342E1
:1030B0002BD041F66312934246D045F21052934210
:1030C00000F08680554B9B79012B00F09F80534E7A
:1030D00021467089FFF7B0FF2946B089FFF7ACFFA2
:1030E00012E04E4E7089FFF77BFF200AFFF788FF42
:1030F000E0B2FFF785FFB089FFF772FF280AFFF7FC
:103100007FFFE8B2FFF77CFF70BD444B9B79012B3A
:1031100013D0424E7089FFF763FF200AFFF770FF5C
:10312000E0B2FFF76DFFB089FFF75AFF280AFFF7FB
:1031300067FFE8B2FFF764FFE6E7384B1B881C1A0D
:10314000A4B2013CA4B2E4E7344B9B7953BB334AAD
:1031500013881C1AA4B2013CA4B25089FFF740FFA7
:103160000020FFF74DFF0020FFF74AFF200AFFF77E
:1031700047FFE0B2FFF744FF284CA089FFF730FF7C
:10318000280AFFF73DFFE8B2FFF73AFF60880138F1
:10319000C0F30F20FFF734FF60880138C0B2FFF79B
:1031A0002FFFB1E71D4E7089FFF71AFF200AFFF7C6
:1031B00027FFE0B2FFF724FF30880138C0F30F206B
:1031C000FFF71EFF30880138C0B2FFF719FFD3E7C1
:1031D000124E7089FFF704FF200AFFF711FF708974
:1031E000013080B2FFF7FCFEE0B2FFF709FFB089C3
:1031F000FFF7F6FE280AFFF703FFB089013080B21F
:10320000FFF7EEFEE8B2FFF7FBFE7DE7034B1B88FE
:103210001C1AA4B2013CA4B259E700BF840C0020E0
:1032200010B5964B9B79012B29D02BB9934B9A88DB
:1032300041F663139A422CD0904B9B8849F241325D
:1032400093423ED046F6040293423AD045F2103201
:10325000934236D045F21052934232D041F6631277
:1032600093422ED0072800F2F480DFE810F0050129
:10327000F400FB00F200FD00FF00010103017F4AA2
:10328000928846F604018A42CFD041F663118A4201
:10329000CBD00728D0D8DFE800F0120406080A0CCB
:1032A0000E100720C8E70420C6E70520C4E7012068
:1032B000C2E70020C0E70320BEE70220BCE70620EB
:1032C000BAE70138062805D8DFE800F06A06606230
:1032D00064666800002400E0402445F210529342E6
:1032E00060D0362045F21032934209D045F2105298
:1032F000934205D041F66312934201D044F0080492
:1033000046F60402934250D02146FFF795FE5B4BF0
:103310009B8841F6631293420AD014F0200F47D0E5
:10332000564A11885288914202D254480280418004
:1033300045F21052934244D0504C6089FFF750FE42
:103340000020FFF75DFE0020FFF75AFE20880138BD
:10335000C0F30F20FFF754FE20880138C0B2FFF7FA
:103360004FFEA089FFF73CFE0020FFF749FE00203A
:10337000FFF746FE60880138C0F30F20FFF740FEDC
:1033800060880138C0B2FFF73BFE10BDC024A4E73F
:103390002024A2E76024A0E7A0249EE7E0249CE785
:1033A00080249AE74FF458509CE744F00204ABE7BE
:1033B000324A118852889142BAD9304802804180FD
:1033C000B6E72E4C6089FFF70BFE0020FFF718FED2
:1033D0006089013080B2FFF703FE0020FFF710FE86
:1033E0006089023080B2FFF7FBFD20880138C0F30E
:1033F0000F20FFF705FE6089033080B2FFF7F0FD74
:1034000020880138C0B2FFF7FBFDA089FFF7E8FD77
:103410000020FFF7F5FDA089013080B2FFF7E0FD45
:103420000020FFF7EDFDA089023080B2FFF7D8FD44
:1034300060880138C0F30F20FFF7E2FDA089033058
:1034400080B2FFF7CDFD60880138C0B2FFF7D8FD2C
:103450009BE7002100E0102141F480510320FFF799
:10346000EBFD92E72021F7E73821F5E72821F3E784
:103470001821F1E70821EFE73021EDE7840C002067
:1034800008B5FFF705FEFFF7F9FD024B1A88024B5E
:103490005A8008BD800C00207E00006C2DE9F041B0
:1034A00004460D461646584B9B8849F241329342DA
:1034B0001ED045F2103293421AD045F21052934278
:1034C00030D041F6631293424AD046F6040293424A
:1034D00074D04D4B9B79012B00F08F804A4F2146D1
:1034E0007889FFF7A9FD2946B889FFF7A5FD12E005
:1034F000454F7889FFF774FD200AFFF781FDE0B2A0
:10350000FFF77EFDB889FFF76BFD280AFFF778FD0E
:10351000E8B2FFF775FD3C4B1A893C4B1A805E8080
:10352000BDE8F081384F7889FFF75AFD200AFFF790
:1035300067FD7889013080B2FFF752FDE0B2FFF7F6
:103540005FFDB889FFF74CFD280AFFF759FDB889E0
:10355000013080B2FFF744FDE8B2FFF751FDDAE732
:10356000294B9B792BB9284B1888041BA4B2013C2A
:10357000A4B2254F7889FFF733FD4FEA142840465F
:10358000FFF73EFDE4B22046FFF73AFD4046FFF765
:1035900037FD2046FFF734FDB889FFF721FD2C0ADF
:1035A0002046FFF72DFDEDB22846FFF729FD204606
:1035B000FFF726FD2846FFF723FDACE7124B9B796A
:1035C000012B13D0104F7889FFF70AFD200AFFF76F
:1035D00017FDE0B2FFF714FDB889FFF701FD280AD7
:1035E000FFF70EFDE8B2FFF70BFD94E7064B1B88D3
:1035F0001C1AA4B2013CA4B2E4E7034B1B881C1ABA
:10360000A4B2013CA4B269E7840C00207E00006CE7
:1036100010B50446BE20FFF7E3FC0520FFF7F0FCE1
:103620002046FCF73FFF0CA3D3E90023FCF7A4FFDF
:10363000FDF764FA80B2FFF7E3FC0120FFF7E0FC3E
:10364000FF20FFF7DDFC0020FFF7DAFC0020FFF78A
:10365000D7FC10BDAFF30080666666666666044000
:1036600008B500285AD1604B00229A71F0221A80C6
:103670004FF4A0725A809B8849F24132934217D08E
:1036800046F60402934213D045F2103293420FD013
:1036900045F21052934222D041F6631293422FD04A
:1036A000514B22221A8120225A8121229A8170E0D4
:1036B0004D4A2C2111812A2151812B21918146F6DD
:1036C0000402934203D045F21032934261D1464B3B
:1036D0004FF4A0721A804FF4F0725A8059E0424BB6
:1036E0004FF430521A814FF428525A814FF42C5221
:1036F0009A814FF4F0721A804FF448725A8048E071
:10370000394B2C221A812B225A812A229A814FF47A
:10371000F0721A804FF448725A803AE0324B01221C
:103720009A714FF4A0721A80F0225A809B8849F255
:103730004132934217D045F21032934213D046F6ED
:103740000402934229D045F2105293422DD041F603
:10375000631293423AD0244A2221118121215181BE
:103760002021918106E0204A2C2111812A215181BA
:103770002B21918146F60402934203D045F2103288
:10378000934206D1184B4FF4F0721A804FF4A07296
:103790005A800020FFF744FD08BD134A2C211181F7
:1037A0002B2151812A219181E4E70F4A4FF43051B6
:1037B00011814FF4285151814FF42C5191814FF4D4
:1037C000487111804FF4F0715180D3E7064A2C21E3
:1037D00011812A2151812B2191814FF4487111804F
:1037E0004FF4F0715180C5E7840C00202DE9F041C1
:1037F0000546174B1C885A8804FB02F49A8846F643
:1038000004039A4203D1124B9B79012B07D000216C
:103810000846FFF73DFCFFF731FC002314E00C4E97
:103820000020B0712A2777814FF02B08A6F80C8072
:103830000146FFF72DFC0123B371A6F80A80B7817A
:10384000E9E7044A55800133A342FAD3BDE8F08189
:10385000840C00207E00006C10B582B0002401941E
:1038600001212046FFF7E8FB3220FDF731FE20461C
:10387000FFF7F2FB624B9880A0F1FF039BB2B3F518
:103880007F4F33D2B0F5134F30D05D4B998849F25A
:103890004133994200F0B88045F21033994200F06C
:1038A000B38045F21053994200F0AE8041F66313A5
:1038B000994200F0A98046F60403994204D04CF2E4
:1038C0000553994240F0B1804E4B9A6922F00F02A5
:1038D0009A619A6922F470629A619A6942F00A02C6
:1038E0009A619A6942F440629A619EE0D320FFF7A0
:1038F00077FBFFF795FB424CA080FFF791FBA08080
:10390000FFF78EFB0002A080FFF78AFBA388184315
:1039100080B2A08049F241339842B6D0BF20FFF771
:103920005FFBFFF77DFBA080FFF77AFBA080FFF72E
:1039300077FBA080FFF774FB0002A080FFF770FB0D
:10394000A388184380B2A08046F6040398429CD016
:10395000D420FFF745FBFFF763FBA080FFF760FB78
:10396000A080FFF75DFB0002A080FFF759FBA38852
:10397000184380B2A08045F21033984285D04FF4AE
:103980005A40FFF72DFBFFF74BFBA0804FF45B4045
:10399000FFF726FBFFF744FB0002A0804FF45C40DA
:1039A000FFF71EFBFFF73CFBA388184380B2A08003
:1039B000B0F5004F20D0124B9A8845F210539A422E
:1039C0003FF463AFA120FFF70BFBFFF729FB0C4C83
:1039D000A080FFF725FB0002A080FFF721FBA38852
:1039E00003439BB2A38045F2617293427FF44DAFD3
:1039F00041F66312A28048E745F21052A280DAE74E
:103A0000840C0020040100A08C4B9A6922F00F0264
:103A10009A619A6922F470629A619A6942F003028B
:103A20009A619A6942F400729A61854807F07EFEB5
:103A3000844B9B8849F24132934200F0058146F65F
:103A40000402934200F0268245F21032934200F0C5
:103A5000CD8245F21052934201F0418249F2253263
:103A6000934202F0BA8149F22832934202F08C82EA
:103A700049F22032934202F07B8349F23132934281
:103A800002F0238445F20842934202F0018541F29C
:103A90000552934202F09F854BF20552934202F089
:103AA000AE864CF20552934202F0AC8744F231529A
:103AB000934203F0778044F23552934203F02D8114
:103AC00041F66312934240F0D681E220FFF788FA74
:103AD0001D20FFF795FA0220FFF792FA0420FFF766
:103AE0008FFA0120FDF7F4FCE020FFF779FA0120BE
:103AF000FFF786FA0A20FDF7EBFCE020FFF770FAEB
:103B00000320FFF77DFA0C20FDF7E2FC0120FFF710
:103B100067FA0A20FDF7DCFCE620FFF761FA2F20A8
:103B2000FFF76EFAFF20FFF76BFAFF20FFF768FA46
:103B3000B020FFF755FA2020FFF762FA0020FFF7C8
:103B40005FFA0320FFF75CFA40F21F30FFF758FAE4
:103B50000120FFF755FA40F2DF10FFF751FA00207D
:103B6000FFF74EFAB420FFF73BFA0420FFF748FABC
:103B700040F21F40FFF744FA0020FFF741FA2E20E1
:103B8000FFF73EFA1D20FFF73BFA0020FFF738FA57
:103B90000020FFF735FA0020FFF732FAB620FFF7D2
:103BA0001FFA0220FFF72CFA4FF40370FFF728FAF0
:103BB0000020FFF725FA1720FFF722FA1520FFF75C
:103BC0001FFA0020FFF71CFA0020FFF719FAF02077
:103BD000FFF706FA0320FFF713FA2920FFF700FA90
:103BE000D020FFF7FDF90020FFF70AFABE20FFF70B
:103BF000F7F90520FFF704FAFE20FFF701FA01208C
:103C0000FFF7FEF90020FFF7FBF90020FFF7F8F9B6
:103C10000020FFF7F5F9B820FFF7E2F90320FFF7DE
:103C2000EFF90120FFF7ECF9BA20FFF7D9F90120ED
:103C3000FFF7E6F96420FFF7EBFC1CE1040100A0AC
:103C4000E01F0108840C0020CF20FFF7C9F90020F5
:103C5000FFF7D6F9019B01330193C120FFF7D0F99B
:103C60003020FFF7CDF9ED20FFF7BAF96420FFF718
:103C7000C7F90320FFF7C4F91220FFF7C1F981202B
:103C8000FFF7BEF9E820FFF7ABF98520FFF7B8F999
:103C90001020FFF7B5F97A20FFF7B2F9CB20FFF734
:103CA0009FF93920FFF7ACF92C20FFF7A9F9002084
:103CB000FFF7A6F93420FFF7A3F90220FFF7A0F9D8
:103CC000F720FFF78DF92020FFF79AF9EA20FFF798
:103CD00087F90020FFF794F90020FFF791F9C02041
:103CE000FFF77EF91B20FFF78BF9C120FFF778F96A
:103CF0000120FFF785F9C520FFF772F93020FFF7A3
:103D00007FF93020FFF77CF9C720FFF769F9B7206A
:103D1000FFF776F93620FFF763F94820FFF770F9CF
:103D20003A20FFF75DF95520FFF76AF9B120FFF758
:103D300057F90020FFF764F91A20FFF761F9B62060
:103D4000FFF74EF90A20FFF75BF9A220FFF758F9B9
:103D5000F220FFF745F90020FFF752F92620FFF780
:103D60003FF90120FFF74CF9E020FFF739F90F2068
:103D7000FFF746F92A20FFF743F92820FFF740F91B
:103D80000820FFF73DF90E20FFF73AF90820FFF76A
:103D900037F95420FFF734F9A920FFF731F9432010
:103DA000FFF72EF90A20FFF72BF90F20FFF728F96C
:103DB0000020FFF725F90020FFF722F90020FFF788
:103DC0001FF90020FFF71CF9E120FFF709F9002097
:103DD000FFF716F91520FFF713F91720FFF710F971
:103DE0000720FFF70DF91120FFF70AF90620FFF76A
:103DF00007F92B20FFF704F95620FFF701F93C20C3
:103E0000FFF7FEF80520FFF7FBF81020FFF7F8F8A2
:103E10000F20FFF7F5F83F20FFF7F2F83F20FFF7FC
:103E2000EFF80F20FFF7ECF82B20FFF7D9F8002070
:103E3000FFF7E6F80020FFF7E3F80120FFF7E0F8CE
:103E40003F20FFF7DDF82A20FFF7CAF80020FFF730
:103E5000D7F80020FFF7D4F80020FFF7D1F8EF20C3
:103E6000FFF7CEF81120FFF7BBF87820FDF730FB05
:103E70002920FFF7B5F80020FFF7F2FB01224FF4ED
:103E800000415948FDF79FFC4FF6FF70FFF7AEFC6D
:103E900002B010BD1120FFF7A3F81420FDF718FBA6
:103EA000D020FFF79DF80720FFF7AAF84220FFF780
:103EB000A7F81D20FFF7A4F8D120FFF791F8002004
:103EC000FFF79EF81A20FFF79BF80920FFF798F8F4
:103ED000D220FFF785F80120FFF792F82220FFF7A4
:103EE0008FF8C020FFF77CF81020FFF789F83B20FF
:103EF000FFF786F80020FFF783F80220FFF780F82D
:103F00001120FFF77DF8C520FFF76AF80320FFF7BF
:103F100077F8C820FFF764F80020FFF771F8252034
:103F2000FFF76EF82120FFF76BF80520FFF768F820
:103F30000020FFF765F80A20FFF762F86520FFF719
:103F40005FF82520FFF75CF87720FFF759F850203D
:103F5000FFF756F80F20FFF753F80020FFF750F84F
:103F6000F820FFF73DF80120FFF74AF8FE20FFF7A1
:103F700037F80020FFF744F80220FFF741F820202F
:103F8000FFF72EF83620FFF72BF80820FFF738F858
:103F90003A20FFF725F85520FFF732F82B20FFF7DE
:103FA0001FF80020FFF72CF80020FFF729F8012068
:103FB000FFF726F83F20FFF723F82A20FFF710F835
:103FC0000020FFF71DF80020FFF71AF80120FFF787
:103FD00017F8DF20FFF714F87820FDF779FA292089
:103FE000FEF7FEFF47E700BF00040240ED20FEF7AA
:103FF000F7FF0120FFF704F8FE20FFF701F8EE209D
:10400000FEF7EEFFDE20FEF7FBFF2120FEF7F8FFB4
:10401000F120FEF7E5FF0120FEF7F2FFDF20FEF7BB
:10402000DFFF1020FEF7ECFFC420FEF7D9FF8F2042
:10403000FEF7E6FFC620FEF7D3FF0020FEF7E0FF05
:10404000E220FEF7DDFFE220FEF7DAFFE220FEF7D6
:10405000D7FFBF20FEF7C4FFAA20FEF7D1FFB02094
:10406000FEF7BEFF0D20FEF7CBFF0020FEF7C8FFD6
:104070000D20FEF7C5FF0020FEF7C2FF1120FEF75E
:10408000BFFF0020FEF7BCFF1920FEF7B9FF00209C
:10409000FEF7B6FF2120FEF7B3FF0020FEF7B0FFCA
:1040A0002D20FEF7ADFF0020FEF7AAFF3D20FEF712
:1040B000A7FF0020FEF7A4FF5D20FEF7A1FF002070
:1040C000FEF79EFF5D20FEF79BFF0020FEF798FFA6
:1040D000B120FEF785FF8020FEF792FF0020FEF75B
:1040E0008FFF8B20FEF78CFF0020FEF789FF9620C4
:1040F000FEF786FF0020FEF783FFB220FEF770FF79
:104100000020FEF77DFF0020FEF77AFF0220FEF779
:1041100077FF0020FEF774FF0320FEF771FF0020F9
:10412000FEF76EFFB320FEF75BFF0020FEF768FF8F
:104130000020FEF765FF0020FEF762FF0020FEF77B
:104140005FFF0020FEF75CFF0020FEF759FF002014
:10415000FEF756FF0020FEF753FF0020FEF750FF4A
:104160000020FEF74DFF0020FEF74AFF0020FEF77B
:1041700047FF0020FEF744FF0020FEF741FF00202C
:10418000FEF73EFF0020FEF73BFF0020FEF738FF62
:104190000020FEF735FF0020FEF732FF0020FEF77B
:1041A0002FFF0020FEF72CFF0020FEF729FF002044
:1041B000FEF726FF0020FEF723FFB420FEF710FFD6
:1041C0008B20FEF71DFF0020FEF71AFF9620FEF75A
:1041D00017FF0020FEF714FFA120FEF711FF0020BB
:1041E000FEF70EFFB520FEF7FBFE0220FEF708FFEC
:1041F0000020FEF705FF0320FEF702FF0020FEF778
:10420000FFFE0420FEF7FCFE0020FEF7F9FEB620BC
:10421000FEF7E6FE0020FEF7F3FE0020FEF7F0FEBC
:10422000B720FEF7DDFE0020FEF7EAFE0020FEF7D5
:10423000E7FE3F20FEF7E4FE0020FEF7E1FE5E20F1
:10424000FEF7DEFE0020FEF7DBFE6420FEF7D8FE60
:104250000020FEF7D5FE8C20FEF7D2FE0020FEF7F0
:10426000CFFEAC20FEF7CCFE0020FEF7C9FEDC201E
:10427000FEF7C6FE0020FEF7C3FE7020FEF7C0FE6C
:104280000020FEF7BDFE9020FEF7BAFE0020FEF7EC
:10429000B7FEEB20FEF7B4FE0020FEF7B1FEDC20F7
:1042A000FEF7AEFE0020FEF7ABFEB820FEF798FE4C
:1042B0000020FEF7A5FE0020FEF7A2FE0020FEF77C
:1042C0009FFE0020FEF79CFE0020FEF799FE0020D6
:1042D000FEF796FE0020FEF793FE0020FEF790FE0C
:1042E000BA20FEF77DFE2420FEF78AFE0020FEF7AE
:1042F00087FE0020FEF784FE0020FEF781FEC1202D
:10430000FEF76EFE2020FEF77BFE0020FEF778FE13
:104310005420FEF775FE0020FEF772FEFF20FEF728
:104320006FFE0020FEF76CFEC220FEF759FE0A2049
:10433000FEF766FE0020FEF763FE0420FEF760FE37
:104340000020FEF75DFEC320FEF74AFE3C20FEF78C
:1043500057FE0020FEF754FE3A20FEF751FE0020E3
:10436000FEF74EFE3920FEF74BFE0020FEF748FE1A
:104370003720FEF745FE0020FEF742FE3C20FEF708
:104380003FFE0020FEF73CFE3620FEF739FE0020FF
:10439000FEF736FE3220FEF733FE0020FEF730FE39
:1043A0002F20FEF72DFE0020FEF72AFE2C20FEF720
:1043B00027FE0020FEF724FE2920FEF721FE002024
:1043C000FEF71EFE2620FEF71BFE0020FEF718FE5D
:1043D0002420FEF715FE0020FEF712FE2420FEF733
:1043E0000FFE0020FEF70CFE2320FEF709FE002042
:1043F000FEF706FE3C20FEF703FE0020FEF700FE5F
:104400003620FEF7FDFD0020FEF7FAFD3220FEF714
:10441000F7FD0020FEF7F4FD2F20FEF7F1FD002050
:10442000FEF7EEFD2C20FEF7EBFD0020FEF7E8FD89
:104430002920FEF7E5FD0020FEF7E2FD2620FEF72D
:10444000DFFD0020FEF7DCFD2420FEF7D9FD002073
:10445000FEF7D6FD2420FEF7D3FD0020FEF7D0FDA9
:104460002320FEF7CDFD0020FEF7CAFDC420FEF795
:10447000B7FD6220FEF7C4FD0020FEF7C1FD052058
:10448000FEF7BEFD0020FEF7BBFD8420FEF7B8FD61
:104490000020FEF7B5FDF020FEF7B2FD0020FEF78C
:1044A000AFFD1820FEF7ACFD0020FEF7A9FDA4200B
:1044B000FEF7A6FD0020FEF7A3FD1820FEF7A0FDE5
:1044C0000020FEF79DFD5020FEF79AFD0020FEF72C
:1044D00097FD0C20FEF794FD0020FEF791FD1720BC
:1044E000FEF78EFD0020FEF78BFD9520FEF788FD80
:1044F0000020FEF785FDF320FEF782FD0020FEF789
:104500007FFDE620FEF77CFD0020FEF779FDC5204B
:10451000FEF766FD3220FEF773FD0020FEF770FD0A
:104520004420FEF76DFD0020FEF76AFD6520FEF7D2
:1045300067FD0020FEF764FD7620FEF761FD002098
:10454000FEF75EFD8820FEF75BFD0020FEF758FDBC
:10455000C620FEF745FD2020FEF752FD0020FEF7A5
:104560004FFD1720FEF74CFD0020FEF749FD01200E
:10457000FEF746FD0020FEF743FDC720FEF730FDA5
:104580000020FEF73DFD0020FEF73AFD0020FEF77B
:1045900037FD0020FEF734FDC820FEF721FD002086
:1045A000FEF72EFD0020FEF72BFD0020FEF728FD74
:1045B0000020FEF725FDC920FEF712FD0020FEF7C2
:1045C0001FFD0020FEF71CFD0020FEF719FD002056
:1045D000FEF716FD0020FEF713FD0020FEF710FD8C
:1045E0000020FEF70DFD0020FEF70AFD0020FEF77B
:1045F00007FD0020FEF704FD0020FEF701FD00206E
:10460000FEF7FEFC0020FEF7FBFC0020FEF7F8FCA6
:104610000020FEF7F5FC0020FEF7F2FCE020FEF79C
:10462000DFFC1620FEF7ECFC0020FEF7E9FC1C2066
:10463000FEF7E6FC0020FEF7E3FC2120FEF7E0FC9D
:104640000020FEF7DDFC3620FEF7DAFC0020FEF746
:10465000D7FC4620FEF7D4FC0020FEF7D1FC522008
:10466000FEF7CEFC0020FEF7CBFC6420FEF7C8FC72
:104670000020FEF7C5FC7A20FEF7C2FC0020FEF702
:10468000BFFC8B20FEF7BCFC0020FEF7B9FC992094
:10469000FEF7B6FC0020FEF7B3FCA820FEF7B0FC46
:1046A0000020FEF7ADFCB920FEF7AAFC0020FEF7C3
:1046B000A7FCC420FEF7A4FC0020FEF7A1FCCA2042
:1046C000FEF79EFC0020FEF79BFCD220FEF798FC34
:1046D0000020FEF795FCD920FEF792FC0020FEF7A3
:1046E0008FFCE020FEF78CFC0020FEF789FCF32015
:1046F000FEF786FC0020FEF783FCE120FEF770FC4D
:104700001620FEF77DFC0020FEF77AFC1C20FEF749
:1047100077FC0020FEF774FC2220FEF771FC0020DD
:10472000FEF76EFC3620FEF76BFC0020FEF768FCFF
:104730004520FEF765FC0020FEF762FC5220FEF7E4
:104740005FFC0020FEF75CFC6420FEF759FC0020B3
:10475000FEF756FC7A20FEF753FC0020FEF750FCD3
:104760008B20FEF74DFC0020FEF74AFC9920FEF757
:1047700047FC0020FEF744FCA820FEF741FC002087
:10478000FEF73EFCB920FEF73BFC0020FEF738FCAC
:10479000C420FEF735FC0020FEF732FCCA20FEF7ED
:1047A0002FFC0020FEF72CFCD220FEF729FC002075
:1047B000FEF726FCD820FEF723FC0020FEF720FCA5
:1047C000E020FEF71DFC0020FEF71AFCF320FEF7A8
:1047D00017FC0020FEF714FCE220FEF701FC052088
:1047E000FEF70EFC0020FEF70BFC0B20FEF708FC8A
:1047F0000020FEF705FC1B20FEF702FC0020FEF760
:10480000FFFB3420FEF7FCFB0020FEF7F9FB442001
:10481000FEF7F6FB0020FEF7F3FB4F20FEF7F0FB60
:104820000020FEF7EDFB6120FEF7EAFB0020FEF71B
:10483000E7FB7920FEF7E4FB0020FEF7E1FB882090
:10484000FEF7DEFB0020FEF7DBFB9720FEF7D8FB30
:104850000020FEF7D5FBA620FEF7D2FB0020FEF7D6
:10486000CFFBB720FEF7CCFB0020FEF7C9FBC22030
:10487000FEF7C6FB0020FEF7C3FBC720FEF7C0FB18
:104880000020FEF7BDFBD120FEF7BAFB0020FEF7AB
:10489000B7FBD620FEF7B4FB0020FEF7B1FBDD200E
:1048A000FEF7AEFB0020FEF7ABFBF320FEF7A8FB04
:1048B0000020FEF7A5FBE320FEF792FB0520FEF7A4
:1048C0009FFB0020FEF79CFB0A20FEF799FB0020CF
:1048D000FEF796FB1C20FEF793FB0020FEF790FBF3
:1048E0003320FEF78DFB0020FEF78AFB4420FEF705
:1048F00087FB0020FEF784FB5020FEF781FB0020A1
:10490000FEF77EFB6220FEF77BFB0020FEF778FBC4
:104910007820FEF775FB0020FEF772FB8820FEF77B
:104920006FFB0020FEF76CFB9720FEF769FB002071
:10493000FEF766FBA620FEF763FB0020FEF760FB98
:10494000B720FEF75DFB0020FEF75AFBC220FEF702
:1049500057FB0020FEF754FBC720FEF751FB002059
:10496000FEF74EFBD120FEF74BFB0020FEF748FB85
:10497000D520FEF745FB0020FEF742FBDD20FEF7C9
:104980003FFB0020FEF73CFBF320FEF739FB002045
:10499000FEF736FBE420FEF723FB0120FEF730FB99
:1049A0000020FEF72DFB0120FEF72AFB0020FEF77A
:1049B00027FB0220FEF724FB0020FEF721FB2A2024
:1049C000FEF71EFB0020FEF71BFB3C20FEF718FB4A
:1049D0000020FEF715FB4B20FEF712FB0020FEF730
:1049E0000FFB5D20FEF70CFB0020FEF709FB742097
:1049F000FEF706FB0020FEF703FB8420FEF700FB1A
:104A00000020FEF7FDFA9320FEF7FAFA0020FEF7E9
:104A1000F7FAA220FEF7F4FA0020FEF7F1FAB3202D
:104A2000FEF7EEFA0020FEF7EBFABE20FEF7E8FAFA
:104A30000020FEF7E5FAC420FEF7E2FA0020FEF7B8
:104A4000DFFACD20FEF7DCFA0020FEF7D9FAD320FA
:104A5000FEF7D6FA0020FEF7D3FADD20FEF7D0FAF3
:104A60000020FEF7CDFAF320FEF7CAFA0020FEF789
:104A7000C7FAE520FEF7B4FA0020FEF7C1FA0020DD
:104A8000FEF7BEFA0020FEF7BBFA0020FEF7B8FAE8
:104A90000220FEF7B5FA0020FEF7B2FA2920FEF751
:104AA000AFFA0020FEF7ACFA3C20FEF7A9FA00208E
:104AB000FEF7A6FA4B20FEF7A3FA0020FEF7A0FAB5
:104AC0005D20FEF79DFA0020FEF79AFA7420FEF7AB
:104AD00097FA0020FEF794FA8420FEF791FA00205E
:104AE000FEF78EFA9320FEF78BFA0020FEF788FA85
:104AF000A220FEF785FA0020FEF782FAB320FEF727
:104B00007FFA0020FEF77CFABE20FEF779FA00203B
:104B1000FEF776FAC420FEF773FA0020FEF770FA6B
:104B2000CD20FEF76DFA0020FEF76AFAD320FEF7DB
:104B300067FA0020FEF764FADC20FEF761FA002035
:104B4000FEF75EFAF320FEF75BFA0020FEF758FA54
:104B5000E620FEF745FA1120FEF752FA0020FEF794
:104B60004FFA3420FEF74CFA0020FEF749FA56209F
:104B7000FEF746FA0020FEF743FA7620FEF740FAE9
:104B80000020FEF73DFA7720FEF73AFA0020FEF704
:104B900037FA6620FEF734FA0020FEF731FA882053
:104BA000FEF72EFA0020FEF72BFA9920FEF728FADE
:104BB0000020FEF725FABB20FEF722FA0020FEF7C0
:104BC0001FFA9920FEF71CFA0020FEF719FA66205A
:104BD000FEF716FA0020FEF713FA5520FEF710FA3A
:104BE0000020FEF70DFA5520FEF70AFA0020FEF726
:104BF00007FA4520FEF704FA0020FEF701FA4320E9
:104C0000FEF7FEF90020FEF7FBF94420FEF7F8F965
:104C10000020FEF7F5F9E720FEF7E2F93220FEF773
:104C2000EFF90020FEF7ECF95520FEF7E9F9002036
:104C3000FEF7E6F97620FEF7E3F90020FEF7E0F94B
:104C40006620FEF7DDF90020FEF7DAF96720FEF7AF
:104C5000D7F90020FEF7D4F96720FEF7D1F900203C
:104C6000FEF7CEF98720FEF7CBF90020FEF7C8F952
:104C70009920FEF7C5F90020FEF7C2F9BB20FEF728
:104C8000BFF90020FEF7BCF99920FEF7B9F9002022
:104C9000FEF7B6F97720FEF7B3F90020FEF7B0F97A
:104CA0004420FEF7ADF90020FEF7AAF95620FEF7E2
:104CB000A7F90020FEF7A4F92320FEF7A1F90020B0
:104CC000FEF79EF93320FEF79BF90020FEF798F9D6
:104CD0004520FEF795F90020FEF792F9E820FEF74F
:104CE0007FF90020FEF78CF90020FEF789F9992062
:104CF000FEF786F90020FEF783F98720FEF780F99A
:104D00000020FEF77DF98820FEF77AF90020FEF7F3
:104D100077F97720FEF774F90020FEF771F9662025
:104D2000FEF76EF90020FEF76BF98820FEF768F9B0
:104D30000020FEF765F9AA20FEF762F90020FEF7D1
:104D40005FF9BB20FEF75CF90020FEF759F99920C6
:104D5000FEF756F90020FEF753F96620FEF750F9EA
:104D60000020FEF74DF95520FEF74AF90020FEF726
:104D700047F95520FEF744F90020FEF741F9442099
:104D8000FEF73EF90020FEF73BF94420FEF738F924
:104D90000020FEF735F95520FEF732F90020FEF726
:104DA0002FF9E920FEF71CF9AA20FEF729F90020C7
:104DB000FEF726F90020FEF723F90020FEF720F980
:104DC0000020FEF70DF9AA20FEF71AF9CF20FEF712
:104DD00007F90020FEF714F90020FEF711F9002072
:104DE000FEF70EF90020FEF70BF90020FEF708F998
:104DF0000020FEF705F90020FEF702F90020FEF77B
:104E0000FFF80020FEF7FCF80020FEF7F9F800207C
:104E1000FEF7F6F80020FEF7F3F80020FEF7F0F8B2
:104E20000020FEF7EDF80020FEF7EAF80020FEF77C
:104E3000E7F80020FEF7E4F8F020FEF7D1F80020B4
:104E4000FEF7DEF85020FEF7DBF80020FEF7D8F87A
:104E50000020FEF7D5F80020FEF7D2F8F320FEF789
:104E6000BFF80020FEF7CCF8F920FEF7B9F80620CD
:104E7000FEF7C6F81020FEF7C3F82920FEF7C0F8A9
:104E80000020FEF7BDF83A20FEF7AAF85520FEF7FD
:104E9000B7F81120FEF7A4F86420FCF719FB2920CD
:104EA000FEF79EF83520FEF79BF80020FEF7A8F8E5
:104EB0005120FEF795F8FF20FEF7A2F85320FEF7E9
:104EC0008FF82C20FEF79CF85520FEF789F88220F9
:104ED000FEF796F82C20FEF783F8FEF7CCBF55219D
:104EE0004FF47040FEF7A8F8AA214FF20100FEF738
:104EF000A3F852214FF20200FEF79EF808214FF26C
:104F00000300FEF799F801214FF20400FEF794F830
:104F10000D214FF43040FEF78FF80D214BF20100C8
:104F2000FEF78AF80D214BF20200FEF785F83421D6
:104F30004FF43640FEF780F834214BF20160FEF763
:104F40007BF834214BF20260FEF776F80D214FF426
:104F50003140FEF771F80D214BF20110FEF76CF8AD
:104F60000D214BF20210FEF767F834214FF4374061
:104F7000FEF762F834214BF20170FEF75DF8342140
:104F80004BF20270FEF758F800214FF43240FEF762
:104F900053F800214BF20120FEF74EF800214BF2AE
:104FA0000220FEF749F824214FF43840FEF744F878
:104FB00024214BF60100FEF73FF824214BF60200B6
:104FC000FEF73AF801214FF43F40FEF735F80F2184
:104FD0004FF43340FEF730F80F214BF20130FEF76B
:104FE0002BF80F214BF20230FEF726F834214FF454
:104FF0003940FEF721F834214BF60110FEF71CF87A
:1050000034214BF60210FEF717F808214FF4354013
:10501000FEF712F808214BF20150FEF70DF80821B7
:105020004BF20250FEF708F803214FF44240FEF71E
:1050300003F824214FF43A40FDF7FEFF24214BF6FC
:105040000120FDF7F9FF24214BF60220FDF7F4FFC4
:1050500000214FF43C40FDF7EFFF78214BF6014073
:10506000FDF7EAFF00214BF60240FDF7E5FF0021C6
:105070004FF43D40FDF7E0FF78214BF60150FDF77E
:10508000DBFF00214BF60250FDF7D6FF00214FF465
:105090003E40FDF7D1FF64214BF60160FDF7CCFFE8
:1050A00000214FF45140FDF7C7FF33214DF20110AD
:1050B000FDF7C2FF00214DF20210FDF7BDFF3421C4
:1050C0004DF20310FDF7B8FF00214DF20410FDF77B
:1050D000B3FF3A214DF20510FDF7AEFF00214DF26E
:1050E0000610FDF7A9FF4A214DF20710FDF7A4FFB6
:1050F00000214DF20810FDF79FFF5C214DF20910D1
:10510000FDF79AFF00214DF20A10FDF795FF81216E
:105110004DF20B10FDF790FF00214DF20C10FDF742
:105120008BFFA6214DF20D10FDF786FF00214DF2F9
:105130000E10FDF781FFE5214DF20F10FDF77CFF0A
:1051400001214DF21010FDF777FF13214DF21110E0
:10515000FDF772FF01214DF21210FDF76DFF542192
:105160004DF21310FDF768FF01214DF21410FDF709
:1051700063FF82214DF21510FDF75EFF01214DF214
:105180001610FDF759FFCA214DF21710FDF754FF15
:1051900002214DF21810FDF74FFF00214DF21910BA
:1051A000FDF74AFF02214DF21A10FDF745FF0121DC
:1051B0004DF21B10FDF740FF02214DF21C10FDF7D0
:1051C0003BFF34214DF21D10FDF736FF02214DF259
:1051D0001E10FDF731FF67214DF21F10FDF72CFF68
:1051E00002214DF22010FDF727FF84214DF22110FE
:1051F000FDF722FF02214DF22210FDF71DFFA42131
:105200004DF22310FDF718FF02214DF22410FDF797
:1052100013FFB7214DF22510FDF70EFF02214DF2CD
:105220002610FDF709FFCF214DF22710FDF704FFEF
:1052300002214DF22810FDF7FFFEDE214DF229106C
:10524000FDF7FAFE02214DF22A10FDF7F5FEF221DC
:105250004DF22B10FDF7F0FE02214DF22C10FDF760
:10526000EBFEFE214DF22D10FDF7E6FE03214DF27F
:105270002E10FDF7E1FE10214DF22F10FDF7DCFEA0
:1052800003214DF23010FDF7D7FE33214DF23110DE
:10529000FDF7D2FE03214DF23210FDF7CDFE6D2158
:1052A0004DF23310FDF7C8FE00214FF45240FDF7D8
:1052B000C3FE33214DF20120FDF7BEFE00214DF269
:1052C0000220FDF7B9FE34214DF20320FDF7B4FEB4
:1052D00000214DF20420FDF7AFFE3A214DF20520EA
:1052E000FDF7AAFE00214DF20620FDF7A5FE4A219A
:1052F0004DF20720FDF7A0FE00214DF20820FDF73A
:105300009BFE5C214DF20920FDF796FE00214DF237
:105310000A20FDF791FE81214DF20B20FDF78CFE56
:1053200000214DF20C20FDF787FEA6214DF20D2045
:10533000FDF782FE00214DF20E20FDF77DFEE521F6
:105340004DF20F20FDF778FE01214DF21020FDF700
:1053500073FE13214DF21120FDF76EFE01214DF277
:105360001220FDF769FE54214DF21320FDF764FE73
:1053700001214DF21420FDF75FFE82214DF2152030
:10538000FDF75AFE01214DF21620FDF755FECA2108
:105390004DF21720FDF750FE02214DF21820FDF7C7
:1053A0004BFE00214DF21920FDF746FE02214DF281
:1053B0001A20FDF741FE01214DF21B20FDF73CFEB6
:1053C00002214DF21C20FDF737FE34214DF21D2045
:1053D000FDF732FE02214DF21E20FDF72DFE672162
:1053E0004DF21F20FDF728FE02214DF22020FDF78F
:1053F00023FE84214DF22120FDF71EFE02214DF2F5
:105400002220FDF719FEA4214DF22320FDF714FE02
:1054100002214DF22420FDF70FFEB7214DF2252089
:10542000FDF70AFE02214DF22620FDF705FECF21F1
:105430004DF22720FDF700FE02214DF22820FDF756
:10544000FBFDDE214DF22920FDF7F6FD02214DF294
:105450002A20FDF7F1FDF2214DF22B20FDF7ECFDA6
:1054600002214DF22C20FDF7E7FDFE214DF22D200B
:10547000FDF7E2FD03214DF22E20FDF7DDFD1021A9
:105480004DF22F20FDF7D8FD03214DF23020FDF71E
:10549000D3FD33214DF23120FDF7CEFD03214DF236
:1054A0003220FDF7C9FD6D214DF23320FDF7C4FD1B
:1054B00000214FF45340FDF7BFFD33214DF2013081
:1054C000FDF7BAFD00214DF20230FDF7B5FD3421A4
:1054D0004DF20330FDF7B0FD00214DF20430FDF731
:1054E000ABFD3A214DF20530FDF7A6FD00214DF24E
:1054F0000630FDF7A1FD4A214DF20730FDF79CFD76
:1055000000214DF20830FDF797FD5C214DF2093086
:10551000FDF792FD00214DF20A30FDF78DFD81214E
:105520004DF20B30FDF788FD00214DF20C30FDF7F8
:1055300083FDA6214DF20D30FDF77EFD00214DF2D9
:105540000E30FDF779FDE5214DF20F30FDF774FDCA
:1055500001214DF21030FDF76FFD13214DF2113096
:10556000FDF76AFD01214DF21230FDF765FD542172
:105570004DF21330FDF760FD01214DF21430FDF7BF
:105580005BFD82214DF21530FDF756FD01214DF2F4
:105590001630FDF751FDCA214DF21730FDF74CFDD5
:1055A00002214DF21830FDF747FD00214DF2193070
:1055B000FDF742FD02214DF21A30FDF73DFD0121BC
:1055C0004DF21B30FDF738FD02214DF21C30FDF786
:1055D00033FD34214DF21D30FDF72EFD02214DF239
:1055E0001E30FDF729FD67214DF21F30FDF724FD28
:1055F00002214DF22030FDF71FFD84214DF22130B4
:10560000FDF71AFD02214DF22230FDF715FDA42110
:105610004DF22330FDF710FD02214DF22430FDF74D
:105620000BFDB7214DF22530FDF706FD02214DF2AD
:105630002630FDF701FDCF214DF22730FDF7FCFCB0
:1056400002214DF22830FDF7F7FCDE214DF2293022
:10565000FDF7F2FC02214DF22A30FDF7EDFCF221BC
:105660004DF22B30FDF7E8FC02214DF22C30FDF716
:10567000E3FCFE214DF22D30FDF7DEFC03214DF25F
:105680002E30FDF7D9FC10214DF22F30FDF7D4FC60
:1056900003214DF23030FDF7CFFC33214DF2313094
:1056A000FDF7CAFC03214DF23230FDF7C5FC6D2138
:1056B0004DF23330FDF7C0FC00214FF45440FDF7AC
:1056C000BBFC33214DF20140FDF7B6FC00214DF249
:1056D0000240FDF7B1FC34214DF20340FDF7ACFC74
:1056E00000214DF20440FDF7A7FC3A214DF20540A0
:1056F000FDF7A2FC00214DF20640FDF79DFC4A217A
:105700004DF20740FDF798FC00214DF20840FDF7EF
:1057100093FC5C214DF20940FDF78EFC00214DF217
:105720000A40FDF789FC81214DF20B40FDF784FC16
:1057300000214DF20C40FDF77FFCA6214DF20D40FB
:10574000FDF77AFC00214DF20E40FDF775FCE521D6
:105750004DF20F40FDF770FC01214DF21040FDF7B6
:105760006BFC13214DF21140FDF766FC01214DF257
:105770001240FDF761FC54214DF21340FDF75CFC33
:1057800001214DF21440FDF757FC82214DF21540E6
:10579000FDF752FC01214DF21640FDF74DFCCA21E8
:1057A0004DF21740FDF748FC02214DF21840FDF77D
:1057B00043FC00214DF21940FDF73EFC02214DF261
:1057C0001A40FDF739FC01214DF21B40FDF734FC76
:1057D00002214DF21C40FDF72FFC34214DF21D40FB
:1057E000FDF72AFC02214DF21E40FDF725FC672142
:1057F0004DF21F40FDF720FC02214DF22040FDF745
:105800001BFC84214DF22140FDF716FC02214DF2D4
:105810002240FDF711FCA4214DF22340FDF70CFCC2
:1058200002214DF22440FDF707FCB7214DF225403F
:10583000FDF702FC02214DF22640FDF7FDFBCF21D2
:105840004DF22740FDF7F8FB02214DF22840FDF70D
:10585000F3FBDE214DF22940FDF7EEFB02214DF274
:105860002A40FDF7E9FBF2214DF22B40FDF7E4FB66
:1058700002214DF22C40FDF7DFFBFE214DF22D40C1
:10588000FDF7DAFB03214DF22E40FDF7D5FB102189
:105890004DF22F40FDF7D0FB03214DF23040FDF7D4
:1058A000CBFB33214DF23140FDF7C6FB03214DF216
:1058B0003240FDF7C1FB6D214DF23340FDF7BCFBDB
:1058C00000214FF45540FDF7B7FB33214DF2015055
:1058D000FDF7B2FB00214DF20250FDF7ADFB342184
:1058E0004DF20350FDF7A8FB00214DF20450FDF7E7
:1058F000A3FB3A214DF20550FDF79EFB00214DF22E
:105900000650FDF799FB4A214DF20750FDF794FB35
:1059100000214DF20850FDF78FFB5C214DF209503C
:10592000FDF78AFB00214DF20A50FDF785FB81212E
:105930004DF20B50FDF780FB00214DF20C50FDF7AE
:105940007BFBA6214DF20D50FDF776FB00214DF2B9
:105950000E50FDF771FBE5214DF20F50FDF76CFB8A
:1059600001214DF21050FDF767FB13214DF211504C
:10597000FDF762FB01214DF21250FDF75DFB542152
:105980004DF21350FDF758FB01214DF21450FDF775
:1059900053FB82214DF21550FDF74EFB01214DF2D4
:1059A0001650FDF749FBCA214DF21750FDF744FB95
:1059B00002214DF21850FDF73FFB00214DF2195026
:1059C000FDF73AFB02214DF21A50FDF735FB01219C
:1059D0004DF21B50FDF730FB02214DF21C50FDF73C
:1059E0002BFB34214DF21D50FDF726FB02214DF219
:1059F0001E50FDF721FB67214DF21F50FDF71CFBE8
:105A000002214DF22050FDF717FB84214DF2215069
:105A1000FDF712FB02214DF22250FDF70DFBA421F0
:105A20004DF22350FDF708FB02214DF22450FDF703
:105A300003FBB7214DF22550FDF7FEFA02214DF28E
:105A40002650FDF7F9FACF214DF22750FDF7F4FA71
:105A500002214DF22850FDF7EFFADE214DF22950D8
:105A6000FDF7EAFA02214DF22A50FDF7E5FAF2219C
:105A70004DF22B50FDF7E0FA02214DF22C50FDF7CC
:105A8000DBFAFE214DF22D50FDF7D6FA03214DF23F
:105A90002E50FDF7D1FA10214DF22F50FDF7CCFA20
:105AA00003214DF23050FDF7C7FA33214DF231504A
:105AB000FDF7C2FA03214DF23250FDF7BDFA6D2118
:105AC0004DF23350FDF7B8FA00214FF45640FDF780
:105AD000B3FA33214DF20160FDF7AEFA00214DF229
:105AE0000260FDF7A9FA34214DF20360FDF7A4FA34
:105AF00000214DF20460FDF79FFA3A214DF2056056
:105B0000FDF79AFA00214DF20660FDF795FA4A2159
