:020000040800F2
:1000000070070020D501000831180008F308000827
:100010002D180008E10600086F1D00080000000010
:10002000000000000000000000000000D5190008DA
:10003000E506000800000000A5180008E91A0008FD
:10004000EF010008EF010008EF010008EF010008D0
:10005000EF010008EF010008EF010008EF010008C0
:10006000EF010008EF010008EF010008EF010008B0
:10007000EF010008EF010008EF010008EF010008A0
:10008000EF010008EF010008EF010008EF01000890
:10009000EF010008EF010008EF010008EF01000880
:1000A000EF010008EF010008EF010008EF01000870
:1000B000EF010008EF010008EF010008EF01000860
:1000C000EF010008EF010008EF010008EF01000850
:1000D000EF0100084D1B0008EF010008EF010008C8
:1000E000EF010008EF010008EF010008EF01000830
:1000F000EF010008EF010008EF010008EF01000820
:10010000EF010008EF010008EF010008EF0100080F
:10011000EF010008EF010008EF010008EF010008FF
:10012000EF010008EF010008EF010008EF010008EF
:1001300000F002F800F03FF80AA090E8000C8244BA
:100140008344AAF10107DA4501D100F034F8AFF297
:10015000090EBAE80F0013F0010F18BFFB1A43F0A5
:1001600001031847EC3D00000C3E0000103A24BF8C
:1001700078C878C1FAD8520724BF30C830C144BF0C
:1001800004680C607047000000230024002500264E
:10019000103A28BF78C1FBD8520728BF30C148BFEA
:1001A0000B607047782900F07780002070471FB5FA
:1001B0001FBD10B510BD00F027F91146FFF7F7FF7E
:1001C00001F030FE00F045F903B4FFF7F2FF03BC85
:1001D00001F0CFFD0948804709480047FEE7FEE7E8
:1001E000FEE7FEE7FEE7FEE7FEE7FEE7FEE7FEE7E7
:1001F00004480549054A064B70470000ED1A0008FF
:1002000031010008700100207007002070030020F9
:1002100070030020704700000FB4044910B503AA12
:10022000029800F0C3F810BC5DF814FB2C0000200D
:100230002DE9F0410E460446002020622046E16888
:10024000884730B3252805D0D4E901219047206A9A
:10025000401CF2E7E168204600278847050018D0D7
:10026000A5F14100192802D820354FF40067324625
:10027000294620462760FFF795FF40B1012804D0AA
:10028000F61D26F007060836D8E7361DD6E72846BD
:10029000DAE7206ABDE8F08170B504460D462146D4
:1002A0001068AFF300802188090502D50F4A7A440F
:1002B00002E00E4A7A440E32002104F1240305E0E4
:1002C00000F00F060009965D5E54491C0028F7D126
:1002D00020780023000704D5702D02D009B1022335
:1002E00011322046BDE8704000F006B8743C0000B2
:1002F00070477047704770472DE9F0470D469946A3
:100300009246044600F124080168880604D5E06995
:1003100021F01001216000E00120A84201DD471B0F
:1003200000E00027A1697A1902EB0900081AA06110
:100330002078C00602D42046AFF30080002608E0F3
:10034000D4E901211AF806009047206A401C761C67
:1003500020624E45F4DB2078C0060AD52046AFF374
:10036000008006E0D4E9012130209047206A401C3B
:100370002062381EA7F10107F4DC07E0D4E901216F
:1003800018F805009047206A401C2062281EA5F13D
:100390000105F3DC2046AFF300802078000602D58B
:1003A0000220BDE8F0870120FBE70000074B70B595
:1003B0000D467B4400F011F80446284600F020F872
:1003C00010B14FF0FF3070BD204670BD531A0000D1
:1003D00001694A1C02610878704700B58FB0CDE909
:1003E00001310021059105497944CDE903101146F9
:1003F0006846FFF71DFF0FB000BD0000E5FFFFFFDF
:10040000007B00F080007047754600F029F8AE468A
:1004100005006946534620F00700854618B020B510
:10042000FFF7E6FEBDE820404FF000064FF0000762
:100430004FF000084FF0000B21F00701AC46ACE88C
:10044000C009ACE8C009ACE8C009ACE8C0098D46F9
:1004500070470446AFF300802046FFF7B5FE00006A
:10046000004870471001002021B1826842F001026B
:10047000826003E0826822F001028260704700001F
:1004800010B504461248844208D10121401501F0FC
:1004900027FA0021601501F023FA17E00D48844285
:1004A00008D10121001501F01BFA0021201501F0EF
:1004B00017FA0BE00848844208D10121C80301F073
:1004C0000FFA00214FF4004001F00AFA10BD0000BD
:1004D0000024014000280140003C0140014600206A
:1004E0008A6802F004020AB1012000E0002070478F
:1004F0000146C86C80B270470246002013680B406A
:100500000BB1012000E000207047014600208A68FE
:1005100002F008020AB1012000E00020704700004C
:1005200030B502460020002350680F4C20400D7962
:100530000C6844EA05242043506090680B4C20402E
:10054000D1E902542C434D7944EA4504204390609C
:10055000D06A20F470000C7C641EE4B2234340EAAD
:100560000350D06230BD0000FFFEF0FFFDF7F1FF49
:10057000F0B504460D4600200021092D11DDE0688C
:10058000A5F10A0606EB4607072606FA07F1884397
:10059000A5F10A0606EB460603FA06F10843E060F9
:1005A0000CE0206905EB4507072606FA07F18843AA
:1005B00005EB450603FA06F108432061072A0FDA26
:1005C000606B561E06EB86071F2606FA07F1884366
:1005D000561E06EB860605FA06F10843606322E024
:1005E0000D2A0FDA206BD61F06EB86071F2606FAA8
:1005F00007F18843D61F06EB860605FA06F1084385
:10060000206310E0E06AA2F10D0606EB86071F26C4
:1006100006FA07F18843A2F10D0606EB860605FAF5
:1006200006F10843E062F0BD816841F00801816095
:10063000704721B1826842F4A002826003E08268C0
:1006400022F4A00282607047816841F00401816059
:100650007047000000B587B001214FF4017001F030
:100660002FF94FF4004001F01FF90220ADF804000B
:1006700000208DF8070001A9174800F034F817484A
:10068000FFF7FEFE002002908DF80C008DF80D00A3
:100690004FF4602004900020059001208DF8180090
:1006A00002A90E48FFF73CFF01210C48FFF7DCFED2
:1006B0000A48FFF7B9FF00BF0848FFF726FF0028E8
:1006C000FAD10648FFF7C0FF00BF0448FFF706FF56
:1006D0000028FAD107B000BD000801400024014005
:1006E00000BFFEE770472DE9F041024600250026D5
:1006F000002000230024002791F803C00CF00F0510
:1007000091F803C00CF0100CBCF1000F03D091F86D
:1007100002C04CEA050591F800C0BCF1000F31D0D1
:10072000146800202BE04FF0010C0CFA00F3B1F834
:1007300000C00CEA03069E4220D183004FF00F0C4C
:100740000CFA03F7BC4305FA03FC4CEA040491F8E5
:1007500003C0BCF1280F06D14FF0010C0CFA00FCCD
:10076000C2F814C00AE091F803C0BCF1480F05D1EB
:100770004FF0010C0CFA00FCC2F810C0401C082815
:10078000D1D31460B1F800C0BCF1FF0F34DD546860
:1007900000202EE000F1080C4FF0010808FA0CF3DD
:1007A000B1F800C00CEA03069E4221D183004FF04D
:1007B0000F0C0CFA03F7BC4305FA03FC4CEA0404E3
:1007C00091F803C0BCF1280F05D100F1080C08FA1C
:1007D0000CF8C2F8148091F803C0BCF1480F07D19F
:1007E00000F1080C4FF0010808FA0CF8C2F810806C
:1007F000401C0828CED35460BDE8F081F0B50A460D
:10080000002300240021002500F00046B6F1004F2F
:1008100002D11D4EF16901E01B4E7168C0F3034522
:1008200083B200F44016B6F5401F08D121F0706184
:10083000154E766826F07066134F7E6012E000F465
:100840008016B6F5801F06D1032606FA05F4A143EB
:1008500041F0706106E0460D360103FA06F6B14339
:1008600041F0706122B1460D360103FA06F63143BC
:1008700000F00046B6F1004F02D1034EF16101E0F5
:10088000014E7160F0BD0000000001400161704741
:1008900010B504460723012221460948FFF768FEE8
:1008A00001210748FFF7C5FE00BF02210448FFF7FA
:1008B00023FE0028F9D00248FFF71AFE10BD000001
:1008C000002401402DE9F04107460C460025002692
:1008D00008E03846FFF7DCFF0544052001F06EFA1A
:1008E000701CC6B2A642F4DBB5FBF4F080B2BDE8E2
:1008F000F08100BFFEE7000070B5044600261D48E9
:100900000588408845431B48808846F60401884294
:1009100016D118488079012812D100201549887114
:100920002A2048812B2088810021084600F0AAFD5A
:100930000120104988712B2048812A20888103E0FA
:100940000021084600F09EFD00F050FF00260DE05B
:100950004FF480700849086140004861074804600E
:1009600080204861086180000861761CAE42EFD3A8
:1009700070BD000000010020001001400C0C01407F
:1009800010B50446002C3BD13A498871F02008800C
:100990004FF4A07048800846808849F2413188426F
:1009A0000BD03448808846F60401884205D031488F
:1009B000808845F2103188421AD12C202D490881B7
:1009C0002A2048812B2088810846808846F6040129
:1009D000884205D02748808845F21031884245D1A9
:1009E0004FF4A070234908804FF4F07048803DE038
:1009F000222020490881202048812120888135E05B
:100A000001201C4988714FF4A0700880F0204880B4
:100A10000846808849F24131884205D015488088CF
:100A200045F21031884207D12C20124908812A2032
:100A300048812B20888106E022200E490881212050
:100A40004881202088810B48808846F6040188422E
:100A500005D00848808845F21031884206D14FF40D
:100A6000F070044908804FF4A0704880002000F026
:100A700005FB10BD0001002070B504460D4616466A
:100A80003D48808849F24131884205D03A48808803
:100A900045F21031884240D13749488900F094FE30
:100AA0004FF4807035490861400048612012344994
:100AB0000860802031494861086180000861401069
:100AC000086140004861E0B22D49086080202B4950
:100AD00048610861800008612749888900F074FE38
:100AE0004FF480702549086140004861281224496C
:100AF0000860802021494861086180000861401039
:100B0000086140004861E8B21D49086080201B4927
:100B1000486108618000086112E017488079012867
:100B200004D115480088401E001B84B21249488930
:100B3000214600F063FE10498889294600F05EFED8
:100B40004FF480700D494861400048610A480089AF
:100B50000B490860802009494861086180000861EC
:100B600040100861400048610548066080204861E7
:100B700008618000086170BD000100200010014084
:100B80000C0C014008B50121192000F099FE01214B
:100B9000FE48FFF733FE4FF4F860ADF80000102078
:100BA0008DF8030003208DF802006946F848FFF72E
:100BB0009AFD4FF4F861F648FFF768FE4FF6FF70B4
:100BC000ADF800006946F348FFF78DFD4FF6FF7161
:100BD000F048FFF75BFE322001F0F0F80121002021
:100BE00000F00CFE322001F0E9F8002000F03EFA9F
:100BF000E949888008468088FF280ADB0846808803
:100C00004FF6FF71884204D0E3488088B0F5134F57
:100C10007ED1D32000F0D8FD00F0FEF900F0FCF901
:100C200000F0FAF9DC498880084680884FF6FF71A9
:100C300001EA0020D849888000F0EEF9D649898879
:100C40000843D54988800846808849F24131884266
:100C50005ED0BF2000F0B8FD00F0DEF900F0DCF956
:100C600000F0DAF900F0D8F9CB498880084680888E
:100C70004FF6FF7101EA0020C749888000F0CCF9E7
:100C8000C54989880843C44988800846808846F653
:100C90000401884274D0D42000F096FD00F0BCF925
:100CA00000F0BAF900F0B8F9BB498880084680889E
:100CB0004FF6FF7101EA0020B749888000F0ACF9D7
:100CC000B54989880843B44988800846808845F238
:100CD0001031884254D04FF45A4000F075FD00F0B6
:100CE0009BF94FF45B4000F06FFD00F095F9AA49C5
:100CF0008880084680884FF6FF7101EA0020A649E7
:100D000088804FF45C4000F05FFD00F085F900E062
:100D100036E0A149898808439F4988800846808831
:100D2000B0F5004F02D145F2105088809A48808873
:100D300045F21051884223D0A12000F045FD00F07B
:100D40006BF99549888000F067F9934988800846D7
:100D500080884FF6FF7101EA00208F49888000F0FB
:100D60005BF98D49898808438B49888008468088CB
:100D700045F26171884203D141F66310864988804B
:100D80008548818885A0FFF747FA8348808849F223
:100D9000413188427ED1CF2000F016FD002000F0C6
:100DA00001FDC12000F0FEFC302000F0FBFCED2036
:100DB00000F00AFD642000F0F5FC032000F0F2FCD6
:100DC000122000F0EFFC812000F0ECFCE82000F0A5
:100DD000FBFC852000F0E6FC102000F0E3FC7A200C
:100DE00000F0E0FCCB2000F0EFFC392000F0DAFC52
:100DF0002C2000F0D7FC002000F0D4FC342000F0C0
:100E0000D1FC022000F0CEFCF72000F0DDFC202019
:100E100000F0C8FCEA2000F0D7FC002000F0C2FC83
:100E2000002000F0BFFCC02000F0CEFC1B2000F032
:100E3000B9FCC12000F0C8FC012000F0B3FCC520C3
:100E400000F0C2FC302000F0ADFC302000F0AAFC25
:100E5000C72000F0B9FCB72000F0A4FC362000F059
:100E6000B3FC482000F09EFC3A2000F0ADFC552079
:100E700000F098FCB12000F0A7FC002000F092FCEC
:100E80001A2000F08FFCB62000F09EFC0A2000F033
:100E900089FC00E0A7E0A22000F084FCF22000F032
:100EA00093FC002000F07EFC262000F08DFC012049
:100EB00000F078FCE02000F087FC0F2000F072FCCE
:100EC0002A2000F06FFC282000F06CFC082000F0C5
:100ED00069FC0E2000F066FC082000F063FC542042
:100EE00000F060FCA92000F05DFC432000F05AFCFB
:100EF0000A2000F057FC0F2000F054FC002000F006
:100F000051FC002000F04EFC002000F04BFC0020C3
:100F100000F048FCE12000F057FC002000F042FC0B
:100F2000152000F03FFC172000F03CFC072000F0EB
:100F300039FC112000F036FC062000F033FC2B2099
:100F400000F030FC562000F02DFC3C2000F02AFC84
:100F5000052000F027FC102000F024FC0F2000F0FA
:100F600021FC3F2000F01EFC3F2000F01BFC0F2066
:100F700000F018FC2B2000F027FC002000F012FCF1
:100F8000002000F00FFC012010E000000002300003
:100F900000100140000C014000010020204C43449F
:100FA0002049443A25780D0A0000000000F0FAFBC1
:100FB0003F2000F0F7FB2A2000F006FC002000F0A4
:100FC000F1FB002000F0EEFB002000F0EBFBEF2037
:100FD00000F0E8FB112000F0F7FB782000F0EEFEB7
:100FE000292000F0F1FB0020FFF7CAFC0120034993
:100FF00008604FF6FF70FFF77FFC08BDA801224292
:1010000010B50246012000E050430B00A1F101049D
:10101000E1B2F9D110BD00004FF08831114A1160E2
:10102000121D116000210F4A0C32116091150E4AF9
:10103000116149005161402151610A490831096833
:1010400088B240211161C90011614FF03331054A66
:101050001160121D11604FF6FF71024A0C321160CF
:1010600070470000000C01400010014000B503462D
:10107000184600F0A9FBFFF7CFFF00BDF0B505460D
:1010800000240027FC48807901280BD1FA48808889
:1010900046F60401884205D0F748808841F663117E
:1010A000884208D1F4488079F0B9F348808841F645
:1010B0006311884218D1082D15D2DFE805F0040627
:1010C000080A0C0E101206250DE007250BE004257A
:1010D00009E0052507E0012505E0002503E00325DB
:1010E00001E0022500BF00BFE348808849F241319A
:1010F000884217D0E048808846F60401884211D023
:10110000DD48808845F2103188420BD0DA4880886B
:1011100045F21051884205D0D748808841F66311C6
:1011200088427DD1082D1CD2DFE805F00406090CA9
:101130000F12151800BF14E044F0800411E044F0D1
:1011400040040EE044F0C0040BE044F0200408E04A
:1011500044F0600405E044F0A00402E044F0E00440
:1011600000BF00BFC448808845F21051884202D1B8
:101170004FF4585700E03627BF48808845F21031B9
:1011800088420DD0BC48808845F21051884207D073
:10119000B948808841F66311884201D044F00804C0
:1011A000B548808846F60401884201D144F0020423
:1011B0002146384600F022FBAF48808841F6631193
:1011C00088421DD004F0200068B1AB480088AA49CD
:1011D0004988884214DAA84806884088A6490880C9
:1011E000084646800CE0A4480088A3494988884204
:1011F00006DDA148068840889F4908800846468049
:101200009D48808845F2105188427DD19A4948898D
:1012100000F0DAFA4FF4807098490861400000E06D
:1012200029E148610020964908608020934948617F
:1012300008618000086190494989491C88B200F022
:10124000C3FA4FF480708D49086140004861002066
:101250008B490860802089494861086180000861E5
:1012600085494989891C88B200F0AEFA4FF4807034
:1012700082490861400048617F480088401E001292
:101280007F49086080207D494861086180000861CD
:1012900079494989C91C88B200F096FA4FF48070E8
:1012A000764908614000486173480078401EC0B22A
:1012B00073490860802071494861086180000861B5
:1012C0006D49888900F080FA4FF480706B4908619D
:1012D0004000486100206A490860802067494861F1
:1012E00008618000086164498989491C88B200F05E
:1012F0006BFA4FF48070614908614000486100203A
:101300005F490860802000E035E05C494861086181
:101310008000086158498989891C88B200F054FA14
:101320004FF4807055490861400048615248408838
:10133000401E0012524908608020504948610861EF
:10134000800008614C498989C91C88B200F03CFAC8
:101350004FF48070494908614000486146488078F0
:10136000401EC0B246490860802044494861086177
:10137000800008617FE04049488900F025FA4FF479
:1013800080703E4908614000486100203C49086087
:1013900080203A4948610861800008614010086176
:1013A0004000486100203649086080203349486188
:1013B00008618000086140100861400048612E48C3
:1013C0000088401E00122E49086080202B49486189
:1013D00008618000086140100861400048612648AB
:1013E0000078401EC0B22649086080202349486129
:1013F0000861800008612049888900F0E5F94FF410
:1014000080701E4908614000486100201C49086046
:1014100080201A4948610861800008614010086115
:101420004000486100201649086080201349486147
:1014300008618000086140100861400048610E4862
:101440004088401E00120E49086080200B49486108
:10145000086180000861401008614000486106484A
:101460008078401EC0B20649086080200349486168
:10147000086180000861F0BD0001002000100140FB
:101480000C0C014030B504460D463048808849F2C6
:101490004131884205D02D48808845F2103188427C
:1014A00040D12A49488900F08FF94FF480702849CB
:1014B00008614000486120122649086080202449C4
:1014C000486108618000086140100861400048617F
:1014D000E0B22049086080201D4948610861800011
:1014E00008611A49888900F06FF94FF48070184933
:1014F000086140004861281216490860802014499C
:10150000486108618000086140100861400048613E
:10151000E8B21049086080200D49486108618000E8
:10152000086112E009488079012804D10748008841
:10153000401E001B84B205494889214600F05EF92F
:1015400002498889294600F059F930BD0001002080
:10155000001001400C0C01402DE9F84F80460E466A
:1015600017461C46B3462046E31704EB5373DB10C3
:1015700021464FEAE47C04EB5C7C4FEAEC0CA4EBE4
:10158000CC0CBCF1000F02D04FF0010C01E04FF089
:10159000000C6344224604EBD27C4FEA6C0C03FB44
:1015A0000CF3DBB20093A7F12000C7B2002556E090
:1015B0000C2C07D107EB47002B4901EB800010F8FA
:1015C000059013E0102C05D1284800EB071010F807
:1015D00005900BE0182C07D107EBC700244901EB5D
:1015E000800010F8059001E0BDE8F88F4FF0000A88
:1015F0002FE009F0800030B11E4802883146404695
:10160000FFF73AFA07E00A9828B91B4802883146E2
:101610004046FFF731FA4FEA49604FEA1069701C03
:1016200086B216484088B04200DCDDE7A6EB0B002E
:10163000A0420AD15E4608F101001FFA80F80F4867
:101640000088404500DCCFE706E00AF1010000F029
:10165000FF0ABAF1080FCCDB00BF681CC5B20098C6
:101660008542A5DB00BFBFE766270008DA2B00082C
:10167000CA310008320000203400002000010020A0
:101680002DE9F84704460D4690469946DDE909677D
:1016900004F0FF0A08EB04001FFA80F809EB0500CC
:1016A0001FFA80F916E0444502DB5446A81985B2BA
:1016B0004D4500DB14E0002000903A78334629467F
:1016C0002046FFF749FF304606EBD07104EB61017D
:1016D0008CB27F1C38787E2802DC38782028E2DA49
:1016E00000BFBDE8F8872DE9FF4F82B0064692465D
:1016F0001F46DDE90F480020019000254DE0781BD2
:10170000401EC1B20A20FFF77BFCBAFBF0F00A21B1
:10171000B0FBF1F201FB1209019850BB781EA84200
:1017200027DDB9F1000F22D108F0800078B108F070
:101730000100A34604EBDB71491001FB0561009039
:1017400088B2234630220399FFF706FF0EE008F027
:101750000100A34604EBDB71491001FB0561009019
:1017600088B2234620220399FFF7F6FE13E00120FA
:10177000019008F00100A34604EBDB71491001FB66
:101780000561009088B209F13001CAB2234603997D
:10179000FFF7E2FE00BF681CC5B2BD42AFDB06B07A
:1017A000BDE8F08F4FF48071054A11614900516125
:1017B00004490860802151611161890011617047FD
:1017C000001001400C0C01404FF48071054A51613A
:1017D000490051610449086080215161116189000B
:1017E00011617047001001400C0C014000B5024926
:1017F0000889FFF7E9FF00BD0001002010B504468D
:101800000B462046FFF7E0FF4FF480700549086162
:1018100040004861044803608020486108618000FE
:10182000086110BD001001400C0C014000BFFEE734
:101830007047000070B5002100230F22C47804B364
:10184000154C246804F4E064C4F5E064210AC1F195
:101850000403CA40447804FA03F184781440214315
:1018600009010E4C0678A155047804F01F050124E7
:10187000AC4005786D11AD0005F1E025C5F80041DB
:1018800009E0047804F01F050124AC40044D0678FB
:10189000761145F8264070BD0CED00E000E400E054
:1018A00080E100E07047000001460020034A5068D4
:1018B00020F4404008435060704700000010024090
:1018C00029B1064A92690243044B9A6104E0034A33
:1018D00092698243014B9A617047000000100240F8
:1018E00029B1064AD2680243044BDA6004E0034A95
:1018F000D2688243014BDA6070470000001002405A
:1019000030B500210022002400232D4D6D6805F024
:101910000C0121B1042905D0082923D105E0294D66
:10192000056022E0274D05601FE0254D6D6805F438
:101930007012234D6D6805F48034022505EB924248
:101940001CB9214D554305600BE01D4D6D6805F434
:1019500000351DB11C4D5543056002E0194D55433E
:10196000056002E0174D056000BF00BF144D6D68B3
:1019700005F0F0010909154D6B5C0568DD40456017
:101980000F4D6D6805F4E061090A104D6B5C456808
:10199000DD4085600A4D6D6805F46051C90A0B4D44
:1019A0006B5C4568DD40C560054D6D6805F44041E0
:1019B000890B074D6B5CC568B5FBF3F5056130BD60
:1019C0000010024000127A0000093D0014000020BF
:1019D00024000020704710B500F002F810BD000090
:1019E0000CB50020019000903348006840F480302E
:1019F0003149086000BF3048006800F400300090B2
:101A00000198401C0190009818B90198B0F5A06F9A
:101A1000F1D12948006800F4003010B10120009095
:101A200001E0002000900098012843D1234800687D
:101A300040F01000214908600846006820F00300CB
:101A400008600846006840F0020008601A484068D4
:101A5000194948600846406848600846406840F4B4
:101A6000806048600846406820F47C104860084662
:101A7000406840F4E81048600846006840F0807014
:101A8000086000BF0C48006800F000700028F9D022
:101A90000948406820F0030007494860084640684C
:101AA00040F00200486000BF0348406800F00C00AE
:101AB0000828F9D10CBD00000010024000200240AF
:101AC000042808D14FF0E021096941F004014FF0EA
:101AD000E022116107E04FF0E021096921F00401E3
:101AE0004FF0E022116170477047000010B51348B5
:101AF000006840F00100114908600846406810493C
:101B000008400E494860084600680E4908400B49E5
:101B100008600846006820F4802008600846406895
:101B200020F4FE0048604FF41F008860FFF753FF69
:101B30004FF000600449086010BD00000010024032
:101B40000000FFF8FFFFF6FE08ED00E010B540F2E0
:101B500025511D4800F04AF810B31B4800F002F967
:101B6000C4B21A48008800F40040C8B91748008879
:101B700000F4804060B10A2C03D000201349088093
:101B800020E01248008840F400401049088019E025
:101B90000D2C06D10D48008840F480400B49088088
:101BA00010E00A480088C0F30D0009490C540748AA
:101BB0000088401C0549088008460088C72801DDC8
:101BC0000020088010BD00000038014030000020D7
:101BD0003800002021B1828942F40052828104E061
:101BE00082894DF6FF731A408281704770B50246B4
:101BF000002400230025002040F66A16B14200D1DF
:101C000000BFC1F3421501F01F03012606FA03F3DA
:101C1000012D02D19689334006E0022D02D1168AA9
:101C2000334001E0968A33400C12012606FA04F490
:101C30001688344013B10CB1012000E0002070BDC3
:101C4000F0B50346002400260025002040F66A1760
:101C5000B94200D100BF1846C1F3421401F01F067B
:101C6000012707FA06F5012C01D10C3004E0022C03
:101C700001D1103000E014301AB107682F4307601B
:101C800002E00768AF430760F0BD00002DE9F047B0
:101C900086B005460E460024A24600BFA146002796
:101CA000B08900B100BF2F462C8A4CF6FF7004406B
:101CB000F08804432C82AC894EF6F3100440B088BF
:101CC00031890843718908430443AC81AC8A4FF6DB
:101CD000FF400440B0890443AC8201A8FFF710FE26
:101CE0001F48874202D1DDF810A001E0DDF80CA00A
:101CF000A88900F4004040B10AEBCA0000EB0A10CA
:101D000031684900B0FBF1F807E00AEBCA0000EBCC
:101D10000A1031688900B0FBF1F86420B8FBF0F0DC
:101D200004012009642101FB1089A88900F4004006
:101D300040B1322000EBC900B0FBF1F000F0070029
:101D4000044308E0322000EB09106421B0FBF1F0FD
:101D500000F00F0004432C8106B0BDE8F0870000BE
:101D60000038014001468888C0F30800704700BF72
:101D7000FEE7014600BF704710B56FF00400FFF7A3
:101D80009FFE0A4800680A49B0FBF1F00949087053
:101D90000846007800EB4001C1EBC0104FF6FF7120
:101DA00001EAC0000449088010BD000000000020C6
:101DB00000127A00280000202A0000200146114A63
:101DC00012884A434FF0E0235A6100229A611A4672
:101DD000126942F001021A6100BF4FF0E02210695F
:101DE00000F001021AB100F48032002AF5D04FF061
:101DF000E022126922F001024FF0E0231A61002272
:101E00009A6170472A00002000BF054A128802F03C
:101E10004002002AF9D0C2B2014B1B1D1A80704744
:101E2000003801401CB5FFF7A7FF4FF4165000F033
:101E300065F8FEF7A7FE4FF6FF70FEF75DFD1F2069
:101E40002749088027A010210B46C822CDE90010A1
:101E50003C210846FFF714FCFEF7FCFB3FE00A219B
:101E60000120FEF72FFD8146484600F075FA8246B4
:101E700000F0C4F907464FF066321E4B00F0C0F880
:101E8000054600F08BF80446204600F045FA1FFA9C
:101E900080F90020102101234A46CDE900103C21A1
:101EA0007C20FFF720FC484600F056FA8046214689
:101EB00000F032FB0746104900F062FA064600F0D7
:101EC0002BFA05468020102103232A46CDE9001075
:101ED0003C218C20FFF707FCFA20FFF76FFFBEE7DD
:101EE00032000020566F6C746167653A302E3030D6
:101EF0003056000066664A3F00007A4410B586B04E
:101F00000446012144F20400FFF7DAFC4FF40070AC
:101F1000ADF8140003208DF8160018208DF8170076
:101F200005A91C48FEF7DFFB4FF48060ADF81400F4
:101F300004208DF8170005A91648FEF7D4FB2520CC
:101F40008DF8000003208DF801008DF802000120BB
:101F50008DF803006846FFF76DFC01940020ADF892
:101F60000800ADF80A00ADF80C00ADF810000C2028
:101F7000ADF80E0001A90848FFF788FE012240F2E3
:101F800025510548FFF75CFE01210348FFF722FEBB
:101F900006B010BD000801400038014021F00042A9
:101FA000A2F16052B2F5801F01F0004328BFD2F1C8
:101FB0007F6C0BD95FEA001C43EAC20242EB50700F
:101FC00018BF704728BF20F001007047B2F5801F8E
:101FD000BCBF184670474FEA410C1CF5001F02D2E7
:101FE000084600F094BA70B500F0B4F8000000891B
:101FF000FFF7F6BF4FF00040A0F5800070470000EB
:10200000DFF848C170B51CEA111E1EBF1CEA13158B
:102010009EEA0C0F95EA0C0F00F06F8081EA030432
:1020200023EA4C134EEAD47E21EA4C1141F480118C
:1020300043F48013AE44A1FB024CA0FB0365AEF158
:102040007F7E361955EB0C05A1FB034C4CF10003C8
:10205000A0FB021C16EB0C06654153F1000309427C
:1020600018BF46F0010613F4007F0BD14FEA03318D
:102070004FEA0530340341EA155140EA16506FF03B
:1020800003020AE04FEAC3214FEAC520F40241EA05
:10209000555140EA56506FF0020202EB2E4201EB1E
:1020A000025585EACE710AD05FEA440C18BF24F0CD
:1020B000004450F1000041F1000120EAD47040F2E8
:1020C000FE7C624500D270BDA84214BF4FF0804430
:1020D0004FF04044002E08BF0024BEF1806FA8BF1F
:1020E000A1F1C041BDE8704080F282804FF0000055
:1020F00001F1C04101F0004170479EEA0C0F0CEA6B
:10210000131518BF95EA0C0F06D04FF0000081EAB6
:10211000030E0EF0004170BD00F01CF88900013E76
:1021200000F007B800F009B84FEA430C5FEA5C5CC6
:1021300008D081EA030100F05BB84FEA410C5FEA86
:102140005C5CF6D14FF00000014970470000FF07CA
:102150000000F87F0EF1020E2EF0030E5EF8046B05
:10216000364205D4012A43EB030515F5001F12D8AA
:10217000012841EB010C1CF5001F0CD80ED14FEAD1
:10218000D17C15F5001F0CEB4C0C0CF1020C08BFB8
:102190004CEBD37C04E04FF0080C01E04FEAD37C19
:1021A0000CEB4C0526FA05F606F00706B6F1040C12
:1021B00006D20EEB860CBDE870404CF0010C604777
:1021C000DFE80CF0090B02024FF000414FF0000075
:1021D000A1F5002170BD19461046012851EB0104FC
:1021E00018BFD4F5001484BF002001F0004170BD79
:1021F0000808A0F500114FEA3101704743004FEA8B
:10220000D30C4FEA3C0C43401FBF40070CF1605118
:1022100013F0FE4F70471CF0006F03D100200CF04C
:10222000004170470CF0004343EA507010B540EA9B
:10223000CC0000F026F900BF000000924FEA000138
:10224000FFF7D6BF4FF000414FF00000A1F500218D
:102250007047000090EA010F48BF81F0004100F193
:102260006C81421A3CBF801A89184FEAD0524FF055
:102270007F4C1CEA410FA2EBD15318BF9CEA026FBE
:1022800000F03B804FF0004C4CEA00204CEA01216A
:1022900021FA03FC10EB0C0C1ED202F1FF325FEAB4
:1022A0001C2040EBC25038BF70471CF07F0F4FEA34
:1022B000400C18BFBCF17F4F38BF7047C3F12003FB
:1022C000994008BF20F00100BCF17F4F38BF704734
:1022D000A0F1C04000F01BB94FEA3C00000A40EBFF
:1022E000C25028BF1CF0FF0F4FEA400CE6D018BFC9
:1022F000BCF17F4F38BF7047EAE79CEA026F05D018
:1023000010EA5C0F08BF00F00040704710B500F005
:10231000B8F800BF64FBBE3EC10DD1F19E0206DBE2
:102320004FEA002343F0004323FA02F070470042D3
:1023300007D54FEA4001B1F1FE4F02D24FF0000045
:10234000704710B500F09DF8499224800020704736
:102350006FEA200070470000B0FA80F310FA03F231
:10236000C3F19D030AD0D90501EB1220530638BFF3
:10237000704700F1010008BF20F001007047000025
:102380004FF47F0C1CEAD0121EBF1CEAD11392EA54
:102390000C0F93EA0C0F00F0478090EA010F48BF42
:1023A00042F480724FF0004C4CEA00204CEA0121CC
:1023B00002EB0302A0FB0113A2F50002002918BFE3
:1023C00043F001035B0028BF4FEA330342EB224294
:1023D0005FEA132C4CEBC2502EBFBCEB436FB2F53F
:1023E0007C0F70474FEA036CBCF1004F08BF20F030
:1023F0000100B2F57C0F38BF70470BD582F0FF02A9
:1024000012F5803FC8BF704700F1C040D8BF00F050
:102410000040704700F5000C5FEA4C0C48BF704765
:10242000B0F1C04000F073B890EA010F0CEAD1138C
:1024300048BF42F48072624538BF634504D280EAE7
:10244000010000F00040704710B500F01AF800BF1E
:102450008900013E00F007B800F009B85FEA410CBE
:102460005FEA1C6C08D080EA010000F050B85FEA17
:10247000400C5FEA1C6CF6D14FF00040A0F58000E4
:1024800070470EF1020E2EF0030E5EF8044B24424C
:1024900004D44FEA4102B2F17F4F11D84FEA400312
:1024A000B3F17F4F0CD80ED14FEAD07CB2F17F4F01
:1024B0000CEB4C0C0CF1020C08BF4CEBD17C04E093
:1024C0004FF0080C01E04FEAD17C0CEB4C0324FAEE
:1024D00003F404F00704B4F1040C06D20EEB840CF0
:1024E000BDE810404CF0010C6047DFE80CF0070835
:1024F00002024FF00040A0F5800010BD08464200E7
:1025000018BFD2F1807288BF00F0004010BDFF21DB
:1025100041EAD050C005704780F0004090EA010FBA
:102520007FF59FAE81F0004100F007B890EA010FFF
:1025300048BF81F000413FF594AE421A04D882F0C2
:102540000042A0EB020011444FEAD0524FF07F4C02
:102550001CEA410FA2EBD15318BF9CEA026F4AD08C
:102560004FF0004C4CEA00204CEA012121FA03FC18
:10257000B0EB0C0C0FD412F0FE0F36D05FEA4C001B
:102580001DD5001240EBC25038BF70471CF03F0F02
:1025900018BF70470BE0A2F101025FEA1C2040EB7C
:1025A000C25038BF70471CF07F0F18BF7047C3F18F
:1025B0002003994014BF401E20F00100704780089E
:1025C0004FEA122308BF7047B0FA80FCA2EB0C025E
:1025D000CCF1280C60FA0CF093EA122F04BF00EB48
:1025E000C25070474FEAC3707047130A5FEADC10AD
:1025F00008BF7047F6E79CEA026F04D010EA5C0F50
:1026000008BF0020704710B5FFF73BFF40DFF63EE4
:1026100081F000407047084048404890FFF0890032
:102620000820FF4008C009204A10287000004C1004
:102630006A205A504B906ED05AA08AA08AA09AD095
:10264000AA108C100000041044204440448047002D
:102650007C0047E04410441044100470000019202E
:102660002B20CD401140001012101220FFC024A0DA
:10267000A510647000003FC0248024802480FFE007
:102680002490249024903F900010007000000000DF
:102690000000034003800000000000000000000074
:1026A0000000000000000120F120954095F09F50AF
:1026B000D550B350955099F0F1000100000008008A
:1026C0003FF0C0007FF04A807A8000104BA04A4063
:1026D0004A607B900000105020507F60D5405540EC
:1026E00055F0FF40554055605550415000000800DE
:1026F0008FE0405000A0FFC0000000007FE000001D
:102700000000FFF00000040008003FF0C0002F10A0
:102710002AA02A40FFA02A202A102E1000000840DC
:1027200048404890FFF089000820FF4008C0092079
:102730004A10287000001E000000FFF01210222036
:1027400022C0FF0022C022203E1002100000002004
:102750007C404580441044105FF084008400850074
:102760000480006000000000000000000000000085
:102770000000000000003F400000000000000000DA
:102780003000400030004000000009000BC03D0058
:102790000BC03D00090018C024407FE0224031807A
:1027A0000000180024C01B000D803240018003800F
:1027B0001C4027401C8007400040100060000000C3
:1027C0000000000000000000000000001F8020400A
:1027D00040200000402020401F8000000000090031
:1027E00006001F80060009000000040004003F806E
:1027F0000400040000000010006000000000000061
:1028000000000400040004000400040000000000B4
:1028100000400000000000000000002001C0060091
:102820003800400000001F802040204020401F80D2
:102830000000000010403FC000400000000018C031
:1028400021402240244018400000108020402440B5
:1028500024401B80000002000D0011003FC0014019
:1028600000003C80244024402440238000001F803E
:10287000244024403440038000003000200027C062
:102880003800200000001B802440244024401B808E
:1028900000001C0022C0224022401F8000000000D7
:1028A000000008400000000000000000000004607C
:1028B000000000000000000004000A001100208059
:1028C000404009000900090009000900000000005B
:1028D0004040208011000A0004001800200023401E
:1028E0002400180000001F802040274029401F407E
:1028F0000000004007C039000F0001C00040204028
:102900003FC0244024401B8000001F802040204006
:1029100020403080000020403FC0204020401F80E9
:10292000000020403FC024402E4030C00000204026
:102930003FC024402E00300000000F0010802040D7
:1029400022403380020020403FC0040004003FC00A
:102950002040204020403FC0204020400000006038
:10296000202020203FC02000200020403FC02440E5
:102970000B0030C0204020403FC0204000400040BD
:1029800000C03FC03C0003C03C003FC000002040EE
:102990003FC00C4023003FC020001F80204020404B
:1029A00020401F80000020403FC024402400180029
:1029B00000001F802140214020E01FA00000204097
:1029C0003FC02440260019C0004018C024402440C5
:1029D000224031800000300020403FC020403000C5
:1029E000000020003F80004000403F802000200089
:1029F0003E0001C0070038002000380007C03C003E
:102A000007C038000000204039C0060039C020400F
:102A100000002000384007C038402000000030404F
:102A200021C02640384020C00000000000007FE0A8
:102A3000402040200000000070000C000380004097
:102A400000000000402040207FE000000000000067
:102A500020004000200000000000001000100010C6
:102A600000100010001000000000400000000000F6
:102A70000000000002800540054003C00040200027
:102A80003FC0044004400380000000000380044075
:102A900004400640000000000380044024403FC082
:102AA0000040000003800540054003400000000096
:102AB00004401FC0244024402000000002E00550D4
:102AC00005500650042020403FC00440040003C0CD
:102AD00000400000044027C000400000000000103B
:102AE0000010041027E00000000020403FC001401B
:102AF000070004C00440204020403FC00040004088
:102B0000000007C0040007C0040003C00000044028
:102B100007C00440040003C00040000003800440DC
:102B2000044003800000041007F0045004400380B8
:102B30000000000003800440045007F0001004402F
:102B400007C00240040004000000000006400540E9
:102B5000054004C00000000004001F800440004045
:102B60000000040007800040044007C0004004004B
:102B7000070004C0018006000400060001C0070031
:102B800001C006000000044006C0010006C0044069
:102B900000000410071004E001800600040000009B
:102BA000044005C00640044000000000000004008E
:102BB0007BE040200000000000000000FFF000006B
:102BC0000000000040207BE0040000000000400006
:102BD00080004000200020004000000000000000B5
:102BE00000000000000000000000000000000000E5
:102BF0001FCC000C000000000000000008003000A6
:102C000060000800300060000000022003FC1E206D
:102C1000022003FC1E200220000000000E181104F8
:102C20003FFF10840C78000000000F0010840F3864
:102C300000C0077818840078000000780F8410C462
:102C400011240E9800E40084000808006800700059
:102C50000000000000000000000000000000000074
:102C600007E0181820044002000000004002200481
:102C7000181807E000000000000002400240018038
:102C80000FF00180024002400000008000800080C0
:102C90000FF800800080008000000001000D000E91
:102CA0000000000000000000000000000080008024
:102CB000008000800080008000800000000C000C7C
:102CC00000000000000000000000000000060018E6
:102CD00000600180060018002000000007F00808CE
:102CE00010041004080807F000000000080408049D
:102CF0001FFC000400040000000000000E0C101473
:102D00001024104411840E0C000000000C18100454
:102D10001104110412880C700000000000E0032070
:102D2000042408241FFC0024000000001F981084C5
:102D300011041104108810700000000007F00888CA
:102D40001104110418880070000000001C0010001D
:102D500010FC13001C001000000000000E3811448D
:102D60001084108411440E38000000000700088C05
:102D700010441044088807F0000000000000000024
:102D8000030C030C00000000000000000000000124
:102D9000010600000000000000000000008001406B
:102DA0000220041008081004000002200220022063
:102DB0000220022002200220000000001004080867
:102DC0000410022001400080000000000E001200EC
:102DD000100C106C10800F00000003E00C1813E4BE
:102DE000142417C4082807D000000004003C03C4C2
:102DF0001C40074000E4001C000410041FFC1104E8
:102E0000110411040E880070000003E00C18100477
:102E10001004100410081C10000010041FFC100403
:102E200010041004080807F0000010041FFC11042F
:102E3000110417C410040818000010041FFC11042A
:102E4000110017C010000800000003E00C18100467
:102E5000100410441C780040000010041FFC108473
:102E60000080008010841FFC100400001004100477
:102E70001FFC1004100400000000000300011001FA
:102E800010011FFE10001000000010041FFC1104B0
:102E900003801464181C1004000010041FFC1004AC
:102EA000000400040004000C000010041FFC1F00BC
:102EB00000FC1F001FFC1004000010041FFC0C0489
:102EC000030000E010181FFC100007F008081004B1
:102ED00010041004080807F0000010041FFC108400
:102EE0001080108010800F00000007F008181024D8
:102EF0001024101C080A07F2000010041FFC110423
:102F0000110011C011300E0C000400000E1C110441
:102F10001084108410441C380000180010001004A5
:102F20001FFC100410001800000010001FF810040F
:102F30000004000410041FF8100010001E0011E02F
:102F4000001C007013801C0010001FC0103C00E02B
:102F50001F0000E0103C1FC000001004180C1634C5
:102F600001C001C01634180C100410001C0013041A
:102F700000FC13041C00100000000804101C106466
:102F8000108413041C04101800000000000000004E
:102F90007FFE4002400240020000000030000C00B2
:102FA00003800060001C000300000000400240029B
:102FB00040027FFE00000000000000000000200032
:102FC000400040004000200000000001000100011E
:102FD000000100010001000100010000400040006C
:102FE0002000000000000000000000000098012404
:102FF00001440144014400FC000410001FFC00884F
:1030000001040104008800700000000000700088C6
:103010000104010401040088000000000070008821
:103020000104010411081FFC0004000000F8014421
:1030300001440144014400C80000000001040104EF
:103040000FFC1104110411001800000000D6012922
:103050000129012901C90106000010041FFC008498
:1030600001000100010400FC000400000104190437
:1030700019FC00040004000000000000000300012F
:103080000101190119FE0000000010041FFC0024BA
:10309000004001B4010C0104000000001004100401
:1030A0001FFC0004000400000000010401FC0104F6
:1030B000010001FC0104010000FC010401FC00848A
:1030C00001000100010400FC0004000000F80104FC
:1030D00001040104010400F80000010101FF008562
:1030E00001040104008800700000000000700088E6
:1030F00001040104010501FF00010104010401FCB8
:1031000000840104010001800000000000CC0124C3
:1031100001240124012401980000000001000100A5
:1031200007F80104010400000000010001F8000498
:1031300000040004010801FC00040100018001708A
:10314000000C001001600180010001F0010C003052
:1031500001C00030010C01F0010000000104018CED
:1031600000740170018C01040000010101810171F2
:10317000000E001801600180010000000184010CB4
:10318000013401440184010C000000000000000033
:10319000000001003EFC4002400200000000000070
:1031A0000000FFFF0000000000000000400240029D
:1031B0003EFC0100000000000000000060008000F4
:1031C00080004000400020002000000000000000BF
:1031D00000000000000000000000000000000000EF
:1031E00000000000000000000000000000000000DF
:1031F000000000000000000000000000000F803808
:103200000FFE380F803800000000000000000000B2
:1032100000000000000000000100000600000C009B
:10322000003800003100000600000C0000380000EB
:103230003000000000000000000061800067F80717
:10324000F98000618000618000618000618000671A
:10325000F807F98000618000000000000000000015
:1032600001C0E003E0F00630080418081FFFFE0468
:103270000E080787F00381E000000000000001F065
:1032800000060C00040408060C7001F9C0000E00D2
:10329000003BE000EC18070808040C180003E000ED
:1032A00000000001E00007F003F818041C080417F0
:1032B0000807E1D003C0E00023B0003C080020086C
:1032C000000010000000000000010000310000328A
:1032D00000001C00000000000000000000000000D2
:1032E00000000000000000000000000000000000DE
:1032F000000000000000000000007F0001FFC00788
:1033000080F00C00181000042000020000000000F3
:10331000002000021000040C00180780F001FFC01C
:10332000007F00000000000000000000000000001E
:103330000000000000004200006600006600003C43
:103340000000180003FFC0001800003C00006600E9
:1033500000660000420000000000080000080000B5
:10336000080000080000080001FFC0000800000875
:103370000000080000080000080000000000000134
:1033800000003100003200001C00000000000000BE
:10339000000000000000000000000000000000002D
:1033A00000000800000800000800000800000800F5
:1033B00000080000080000080000080000080000E5
:1033C000000000000000000000003800003800008D
:1033D00038000000000000000000000000000000B5
:1033E00000000000000000000000000600001C00BB
:1033F0000070000180000E0000380000C0000700CF
:10340000001C0000300000000000000000007F8071
:1034100001FFE0038070060018040008040008069D
:10342000001803807001FFE0007F800000000000B2
:103430000000000001000801000801000803FFF877
:1034400007FFF80000080000080000080000000066
:10345000000000000001C03802C0580400980401B8
:1034600018040218040418061C1803F81801E0F8E0
:1034700000000000000000000001C0E003C0F004F4
:10348000000804080804080806180803F41801E7EF
:10349000F00001E000000000000000000000030058
:1034A000000D000011000061000081080301080701
:1034B000FFF80FFFF80001080001080000000000FD
:1034C000000000E007FCD0060808061008061008F7
:1034D000061008061838060FF00607C000000000A6
:1034E0000000000000003F8001FFE003843002087C
:1034F00018041008041008041008071810030FF02F
:103500000007C000000000000000000003C000072A
:1035100000000600000600F80607F806180006E09E
:103520000007000006000000000000000001E1E0CC
:1035300003F7F0063410041808041808040C0804F3
:103540000C0806161803F3F001C1E00000000000AB
:103550000000F80003FC30030638040208040208E7
:103560000402080404100308F001FFC0007F0000FB
:10357000000000000000000000000000000000004B
:103580000000703800703800703800000000000043
:10359000000000000000000000000000000000002B
:1035A000000000000000301A00301C000000000085
:1035B000000000000000000000000000000000000B
:1035C000000800001400002200004100008080017B
:1035D0000040020020040010080008000000000065
:1035E0000000210000210000210000210000210036
:1035F0000021000021000021000021000021000026
:103600000000000000000000080008040010020094
:1036100020010040008080004100002200001400D2
:1036200000080000000000000003C00004C0000407
:103630000000080038080F380808380810000C305F
:103640000007E00003C000000000000000003F8011
:1036500000FFE0038070020F1006708804C0880429
:103660008308047F8802C09003012000FE40000010
:10367000080000180001F8003E0801C2000702001F
:1036800007E20000FE00001FC80001F8000038003B
:10369000000804000807FFF807FFF80408080408FA
:1036A0000804080804080806180803F41801E7F0DD
:1036B0000001E0000000000000003F8001FFE00387
:1036C00080700200180400080400080400080400C8
:1036D000100600200780C000000004000807FFF863
:1036E00007FFF8040008040008040008040018029A
:1036F000001003807001FFE0007F800000000400E4
:103700000807FFF807FFF804080804080804080879
:10371000040808043E0804000806001801006000C0
:10372000000004000807FFF807FFF8040808040871
:1037300000040800040800043E0006000006000023
:10374000018000000000000000003F8001FFE00356
:10375000807006001804000804020804020802032E
:10376000F00783F000020000020004000807FFF8E1
:1037700007FFF8040808000800000800000800001F
:10378000080004080807FFF807FFF8040008000015
:103790000000000004000804000804000807FFF807
:1037A00007FFF804000804000804000800000000F7
:1037B00000000000000000060000070000010400F7
:1037C0000104000104000307FFFE07FFFC040000E2
:1037D00004000004000004000807FFF807FFF804D5
:1037E0000C08001800003E0004C7800503C806004E
:1037F000F804003804001800000804000807FFF867
:1038000007FFF80400080000080000080000080096
:10381000000800000800001800006000000004001C
:103820000807FFF807800807FC00007FC00003F8C6
:103830000007C000780007800807FFF807FFF804BA
:10384000000804000807FFF807000803C00000E0B4
:1038500000003800001E000007000001C00400F056
:1038600007FFF8040000000000007F8001FFE00374
:103870008070060018040008040008060018030001
:103880003001FFE0007F8000000004000807FFF81F
:1038900007FFF804040804040004040004040004FE
:1038A0000400060C0003F80001F000000000000016
:1038B00000007F8001FFE00380700600880400881C
:1038C0000400C806003C03003E01FFE6007F8400C0
:1038D000000004000807FFF807FFF80408080408C0
:1038E00000040C00040F00040BC00610F003F038B5
:1038F00001E00800000800000001E0F803F03006D5
:103900003010041808041808040C08040C080206F7
:10391000180207F00781E0000000018000060000A7
:1039200004000004000004000807FFF807FFF80483
:1039300000080400000400000600000180000400EC
:103940000007FFE007FFF00400180000080000086F
:1039500000000800000800000804001007FFE00451
:10396000000004000006000007E00007FE00041F3E
:10397000E00001F80000380001E0043E0007C0004C
:1039800006000004000004000007E00007FFC00478
:103990001FF80007C007F80007FF80043FF8000782
:1039A000C004F80007000004000000000004000844
:1039B00006001807C07805F1C8003E00001F80040B
:1039C00063E80780F80600180400080000000400FF
:1039D0000006000007800007E008047C08001FF8CC
:1039E0000007F800180804E00807000006000004BB
:1039F00000000000000100080600380400F804037D
:103A0000E8040F08047C0805F00807C00807001840
:103A10000400600000000000000000000000000042
:103A200000000000003FFFFE2000022000022000F6
:103A30000220000220000200000000000000000040
:103A400008000007000000C0000038000006000069
:103A500001C000003000000E000001000000000066
:103A600000000000200002200002200002200002CE
:103A70002000023FFFFE00000000000000000000E8
:103A8000000000000000000000000008000010001E
:103A9000003000002000003000001000000800008E
:103AA0000000000000000000010000010000010013
:103AB0000001000001000001000001000001000001
:103AC00001000001000001000001000000000000F2
:103AD0000000002000002000001000001000000086
:103AE00000000000000000000000000000000000D6
:103AF000000000F00019F8001B180022080026083A
:103B0000002408002410003FF8001FF800000800FF
:103B1000001800000004000007FFF80FFFF0001875
:103B200018001008002008002008003018001FF0BE
:103B3000000FC00000000000000007C0001FF000E0
:103B40001830002008002008002008003C08001C55
:103B5000100000600000000000000000000007C02E
:103B6000001FF0003818002008002008002008047A
:103B7000101007FFF80FFFF0000010000000000019
:103B8000000000000007C0001FF0001230002218E3
:103B9000002208002208003208001E10000E20003B
:103BA000000000000000200000200800200801FFA5
:103BB000F803FFF806200804200804200807200066
:103BC00003000000000000000000000E000E6E0068
:103BD0001FF30031B10020B10020B1003191001F6E
:103BE00013002E1E00200E0030000000000400080C
:103BF00007FFF80FFFF80010080020000020000069
:103C00002008003FF8001FF8000008000000000036
:103C100000000000002008002008002008063FF8EF
:103C2000063FF8000008000008000008000000003F
:103C3000000000000000000000000300000300205E
:103C400001002001002003063FFE063FFC000000AB
:103C500000000000000000000004000807FFF80F4B
:103C6000FFF8000188000300002FC00038F8002092
:103C700038002008000008000000000000000000DC
:103C800004000804000804000807FFF80FFFF8000C
:103C900000080000080000080000000000000020EC
:103CA00008003FF8003FF8001008002000003FF82F
:103CB000003FF8001008002000003FF8003FF80027
:103CC0000008000000002008003FF8003FF8001046
:103CD00008001000002000002008003FF8001FF836
:103CE0000000080000000000000007C0000FF00006
:103CF00018300030080020080020080030080018A4
:103D000030000FF00007C00000000000000020019C
:103D1000003FFF003FFF00101100200900200800B5
:103D20002008003038001FF0000FC0000000000025
:103D3000000007C0001FF00038180020080020080D
:103D4000002009001011001FFF003FFF00000100CC
:103D50000000002008002008002008003FF8003F75
:103D6000F8000808001008002008002000003000BB
:103D7000003000000000000000000000000C78008F
:103D80001E180033080023080021080021880021A4
:103D9000980030F0003860000000000000002000B3
:103DA00000200000200000FFF003FFF800200800C2
:103DB0002008002008000030000000000000000083
:103DC00000002000003FF0007FF80000180000080D
:103DD000000008002010003FF8007FF000001000F5
:103DE0000000000000002000003000003C00003F08
:103DF000800023F0000078000070002380003C0069
:103E0000003000002000002000003C00003FE000E7
:103E100023F80000E0002700003E00003FE0002102
:103E2000F80001E0003E0000200000000000200833
:103E3000002008003838003E680027800003C800D2
:103E40002CF800383800201800200800000000007E
:103E500000002000003003003C01003F830023EC01
:103E6000000070002380003C0000200000200000C3
:103E7000000000000000000000380800203800208A
:103E8000F80023E8002F88003E08003808002018BA
:103E900000007000000000000000000000000000B2
:103EA00000000000000008000014001FF7FC3000B4
:103EB00006200002000000000000000000000000DA
:103EC000000000000000000000000000FFFFFF00F5
:103ED00000000000000000000000000000000000E2
:103EE000000000002000023000061FF7FC00140054
:103EF00000080000000000000000000000000000BA
:103F000000000000001800006000004000004000B9
:103F10000020000010000008000004000004000061
:103F20000C00001000003031323334353637383968
:103F300041424344454640305800303132333435F5
:103F40003637383961626364656640307800000056
:103F5000703F000800000020380000006C010008DD
:103F6000A83F00083800002038070000880100083A
:103F700000A24A0400000000000000000102030447
:103F800006070809000000000102030401020304FF
:103F900006070809020406080000000000000000EF
:083FA00000000000FFFF00001B
:0400000508000131BD
:00000001FF
