:020000040800F2
:1000000060070020CD0100081D08000865070008F2
:100010001908000815030008EF1000080000000090
:10002000000000000000000000000000BD09000802
:100030001903000800000000A5080008D10A000804
:10004000E7010008E7010008E7010008E7010008F0
:10005000E7010008E70100081D030008E7010008A8
:10006000E7010008E7010008E7010008E7010008D0
:10007000E7010008E7010008E7010008E7010008C0
:10008000E7010008E7010008E7010008E7010008B0
:10009000E7010008E7010008E7010008A5030008E0
:1000A000E7010008E7010008E7010008E701000890
:1000B000E7010008CD0B0008E7010008E701000890
:1000C000E7010008E7010008E7010008E701000870
:1000D000E7010008CD0E0008E7010008E70100086D
:1000E0007D030008E7010008E7010008E7010008B8
:1000F000E7010008E7010008E7010008E701000840
:10010000E7010008E7010008E7010008E70100082F
:10011000E7010008E7010008E7010008E70100081F
:10012000E7010008E7010008E7010008E70100080F
:1001300000F002F800F03AF80AA090E8000C8244BF
:100140008344AAF10107DA4501D100F02FF8AFF29C
:10015000090EBAE80F0013F0010F18BFFB1A43F0A5
:10016000010318476411000084110000103A24BFF5
:1001700078C878C1FAD8520724BF30C830C144BF0C
:1001800004680C607047000000230024002500264E
:10019000103A28BF78C1FBD8520728BF30C148BFEA
:1001A0000B6070471FB51FBD10B510BD00F06EF895
:1001B0001146FFF7F7FF00F0F5FF00F0A0F803B4D9
:1001C000FFF7F2FF03BC00F094FF000009488047EE
:1001D00009480047FEE7FEE7FEE7FEE7FEE7FEE729
:1001E000FEE7FEE7FEE7FEE704480549054A064B41
:1001F00070470000D50A00083101000860010020A6
:1002000060070020600300206003002070470000AA
:100210000FB4044910B503AA029800F009F810BC05
:100220005DF814FB3000002070477047704770473E
:10023000074B70B50D467B4400F011F80446284684
:1002400000F020F810B14FF0FF3070BD204670BDB7
:100250004F0F000001694A1C02610878704700B521
:100260008FB0CDE901310021059105497944CDE9EF
:1002700003101146684600F02EF80FB000BD0000D4
:10028000E5FFFFFF007B00F080007047754600F03F
:100290003DF8AE4605006946534620F00700854606
:1002A00018B020B5FFF7A0FFBDE820404FF00006D2
:1002B0004FF000074FF000084FF0000B21F007014E
:1002C000AC46ACE8C009ACE8C009ACE8C009ACE891
:1002D000C0098D4670472DE9F04106460024D6E955
:1002E0000170F5688046304603E04146B847641C1B
:1002F0003046A8470028F8D12046BDE8F0810446E2
:10030000AFF300802046FFF75AFF00000048704717
:100310000001002000BFFEE7704700000EB50A2074
:1003200000F00CFF0F480068012817D10E48008824
:1003300032380D49088008460088ADF804000846A8
:100340000088401C094991FBF0F009490880694682
:10035000084800F069FD012007490870012000F0FD
:10036000BBF80EBD0001214202000020401901002F
:1003700000000020002C01403600002010B50A20AB
:1003800000F0DCFE0548006810B90220044908703E
:100390004FF4004000F0A0F810BD00003C012142E5
:1003A000360000200EB50A2000F0C8FE0F48006895
:1003B000B8B90F48008832300D49088008460088D7
:1003C000ADF8040008460088401C0A4991FBF0F093
:1003D000094908806946094800F026FD03200849BC
:1003E0000870202000F078F80EBD000014012242B1
:1003F000020000204019010000000020002C0140F4
:10040000360000200EB50121084600F05DFA00F02C
:10041000ABF90521022000F0AFF820200190002068
:100420008DF808000C208DF8090001208DF80A00D5
:1004300001A800F057F80F21002000F09DF84FF4BC
:100440000040019000208DF808000C208DF8090074
:1004500001208DF80A0001A800F044F800210846A8
:1004600000F08AF80120019000208DF80800082093
:100470008DF8090001208DF80A0001A800F032F87B
:1004800006208DF8000002208DF801008DF8020092
:1004900001208DF80300684600F0C2F917208DF89E
:1004A000000002208DF8010001208DF802008DF877
:1004B0000300684600F0B4F928208DF800000220FF
:1004C0008DF8010000208DF8020001208DF8030056
:1004D000684600F0A5F90EBD0149086070470000AC
:1004E00014040140002123498279002A3AD00A46A7
:1004F000126803689A430B461A600A1D1268036863
:100500009A430B1D1A60027911440A6803681A4362
:100510000A60184A0832126803689A43154B083378
:100520001A601A1D126803689A43124B0C331A6042
:100530004279102A0ED11A1F126803681A430D4B14
:1005400008331A601A1D126803681A43094B0C33EA
:100550001A600DE00749427911440A6803681A439A
:100560000A6005E0027911440A6803689A430A6048
:10057000704700000004014030B500228B071C0FBB
:100580000F2303FA04F20B4B8C1053F824309343DF
:10059000084C8D1044F8253023468C1053F8243035
:1005A0008C07240F00FA04F42343024C8D1044F806
:1005B000253030BD080001402DE9F04102460025FC
:1005C0000026002000230024002791F803C00CF02F
:1005D0000F0591F803C00CF0100CBCF1000F03D014
:1005E00091F802C04CEA050591F800C0BCF1000F7B
:1005F00031D0146800202BE04FF0010C0CFA00F30E
:10060000B1F800C00CEA03069E4220D183004FF0EF
:100610000F0C0CFA03F7BC4305FA03FC4CEA040484
:1006200091F803C0BCF1280F06D14FF0010C0CFA71
:1006300000FCC2F814C00AE091F803C0BCF1480FF6
:1006400005D14FF0010C0CFA00FCC2F810C0401CA0
:100650000828D1D31460B1F800C0BCF1FF0F34DD1D
:10066000546800202EE000F1080C4FF0010808FA51
:100670000CF3B1F800C00CEA03069E4221D18300BE
:100680004FF00F0C0CFA03F7BC4305FA03FC4CEADD
:10069000040491F803C0BCF1280F05D100F1080C47
:1006A00008FA0CF8C2F8148091F803C0BCF1480FA6
:1006B00007D100F1080C4FF0010808FA0CF8C2F855
:1006C0001080401C0828CED35460BDE8F0810000A3
:1006D000F0B50A46002300240021002500F0004662
:1006E000B6F1004F02D11D4EF16901E01B4E716859
:1006F000C0F3034583B200F44016B6F5401F08D19D
:1007000021F07061154E766826F07066134F7E609A
:1007100012E000F48016B6F5801F06D1032606FA13
:1007200005F4A14341F0706106E0460D360103FA7D
:1007300006F6B14341F0706122B1460D360103FA6D
:1007400006F6314300F00046B6F1004F02D1034EE9
:10075000F16101E0014E7160F0BD00000000014058
:100760000161704700BFFEE708B50121142000F0C9
:10077000ABF801211148FFF7ABFF4FF40040ADF893
:10078000000048208DF8030069460D48FFF714FF6C
:100790002020ADF8000048208DF803006946094884
:1007A000FFF70AFF0120ADF8000028208DF80300B4
:1007B00069460348FFF700FF08BD00000002300053
:1007C000000801400010014008B50121242000F07C
:1007D0007BF84FF48070ADF8000010208DF8030016
:1007E00003208DF8020069460948FFF7E5FE4FF443
:1007F00080710748FFF7B4FF0420ADF80000694698
:100800000448FFF7D9FE04210248FFF7A9FF08BDFD
:10081000000801400014014000BFFEE770470000DF
:1008200070B5002100230F22C47804B3154C24684E
:1008300004F4E064C4F5E064210AC1F10403CA4091
:10084000447804FA03F184781440214309010E4CE2
:100850000678A155047804F01F050124AC40057802
:100860006D11AD0005F1E025C5F8004109E00478FF
:1008700004F01F050124AC40044D0678761145F8BC
:10088000264070BD0CED00E000E400E080E100E0F7
:1008900002490143024A1160704700000000FA0556
:1008A0000CED00E07047000029B1064AD26902430E
:1008B000044BDA6104E0034AD2698243014BDA61F6
:1008C000704700000010024029B1064A92690243B5
:1008D000044B9A6104E0034A92698243014B9A6196
:1008E000704700000010024030B5002100220024B3
:1008F00000232D4D6D6805F00C0121B1042905D0B0
:10090000082923D105E0294D056022E0274D056027
:100910001FE0254D6D6805F47012234D6D6805F4D8
:100920008034022505EB92421CB9214D55430560E8
:100930000BE01D4D6D6805F400351DB11C4D554390
:10094000056002E0194D5543056002E0174D056052
:1009500000BF00BF144D6D6805F0F0010909154D89
:100960006B5C0568DD4045600F4D6D6805F4E06126
:10097000090A104D6B5C4568DD4085600A4D6D6865
:1009800005F46051C90A0B4D6B5C4568DD40C560DC
:10099000054D6D6805F44041890B074D6B5CC568DA
:1009A000B5FBF3F5056130BD0010024000127A007E
:1009B00000093D001800002028000020704710B5F5
:1009C00000F002F810BD00000CB50020019000906E
:1009D0003348006840F480303149086000BF304837
:1009E000006800F4003000900198401C01900098CD
:1009F00018B90198B0F5A06FF1D12948006800F44A
:100A0000003010B10120009001E00020009000981B
:100A1000012843D12348006840F0100021490860B4
:100A20000846006820F0030008600846006840F0AF
:100A3000020008601A484068194948600846406842
:100A400048600846406840F4806048600846406856
:100A500020F47C1048600846406840F4E810486084
:100A60000846006840F08070086000BF0C480068CD
:100A700000F000700028F9D00948406820F0030019
:100A8000074948600846406840F00200486000BFDF
:100A90000348406800F00C000828F9D10CBD0000A4
:100AA0000010024000200240042808D14FF0E0214D
:100AB000096941F004014FF0E022116107E04FF0B5
:100AC000E021096921F004014FF0E0221161704733
:100AD0007047000010B51348006840F0010011494C
:100AE000086008464068104908400E4948600846BA
:100AF00000680E4908400B4908600846006820F469
:100B0000802008600846406820F4FE0048604FF4EA
:100B10001F008860FFF753FF4FF000600449086032
:100B200010BD0000001002400000FFF8FFFFF6FEBD
:100B300008ED00E030B589B005460C460121C80239
:100B4000FFF7C2FE01210420FFF7BEFE4FF48070C4
:100B5000ADF8200018208DF8230003208DF8220026
:100B600008A91848FFF728FDADF81850ADF8144053
:100B70000020ADF81A00ADF8160005A9124800F0E3
:100B800053F97020ADF804000120ADF806000020F4
:100B9000ADF80A00ADF80C0001A90B4800F0ECF824
:100BA0000121094800F0BFF80821074800F030F99A
:100BB0000121054800F09CF80121034800F0A7F846
:100BC00009B030BD00080140002C014038B526486E
:100BD0000088642190FBF1F03030C0B28DF8000045
:100BE000214800880A2190FBF1F090FBF1F201FB13
:100BF00012003030C0B28DF801001B48008890FB15
:100C0000F1F201FB12003030C0B28DF80200012178
:100C1000164800F097F830B315A0FFF7F9FA002452
:100C20000DE01DF804001649088000BF1448001F9D
:100C3000008800F040000028F8D0601CC4B2032CEB
:100C4000EFDB10A0FFF7E4FA0FA0FFF7E1FA00BF17
:100C50000B48001F008800F040000028F8D0012158
:100C6000024800F051F838BD0000002000040040A8
:100C700050574DB5C4C6B5C2CACAC73A2000000015
:100C8000043801404B487A000D0A0D0A00000000AC
:100C90007FB505460C4601210220FFF705FEADF8A1
:100CA0000850ADF804400020ADF80A00ADF8060089
:100CB00001A90E4800F0B8F8012211460B4800F0D7
:100CC00052F81D208DF8000000208DF8010003204F
:100CD0008DF8020001208DF803006846FFF7A0FDA3
:100CE0000121024800F013F87FBD0000000400401D
:100CF00021B1028842F08002028004E002884FF6AF
:100D00007F731A4002807047CA430282704721B144
:100D1000028842F00102028004E002884FF6FE736E
:100D20001A400280704731B1B0F8442042F40042CA
:100D3000A0F8442005E0B0F84420C2F30E02A0F869
:100D40004420704730B50246002000230024158A55
:100D500005EA0103958905EA010413B10CB10120EC
:100D600000E0002030BD1AB183890B43838102E08B
:100D700083898B438381704770B500240022002350
:100D8000058C4FF6FE7635400584028C8388048BF3
:100D90004FF68F752C40B51E2C400D882C43751EC8
:100DA0002A400D892A434D882A43144DA8420BD06E
:100DB000134DA84208D0134DA84205D0124DA842A9
:100DC00002D0124DA84213D14FF6F7752A404D8933
:100DD0002A434FF6FB752A408D882A434FF6FF655C
:100DE0002B404FF6FF552B408D892B43CD892B434C
:100DF00083800483CD888586028470BD002C0140E9
:100E000000340140004001400044014000480140DE
:100E10000A460021018B4FF6F773194011430183F5
:100E20007047818670470000002202881D4B98425F
:100E30000ED01D4B98420BD0B0F1804F08D01B4B09
:100E4000984205D01A4B984202D01A4B984204D1CE
:100E50004FF68F731A404B881A43174B984207D0AE
:100E6000164B984204D04FF6FF431A40CB881A43E2
:100E700002808B8883850B8803850A4B98420BD0B0
:100E8000094B984208D00E4B984205D00D4B984222
:100E900002D00D4B984201D10B7A03860123838245
:100EA00070470000002C0140003401400004004065
:100EB00000080040000C00400010004000140040FA
:100EC00000400140004401400048014010B540F29C
:100ED00025511D4800F04AF810B31B4800F002F9F4
:100EE000C4B21A48008800F40040C8B91748008806
:100EF00000F4804060B10A2C03D000201349088020
:100F000020E01248008840F400401049088019E0B1
:100F10000D2C06D10D48008840F480400B49088014
:100F200010E00A480088C0F30D0009490C54074836
:100F30000088401C0549088008460088C72801DD54
:100F40000020088010BD000000380140340000205F
:100F50003800002021B1828942F40052828104E0ED
:100F600082894DF6FF731A408281704770B5024640
:100F7000002400230025002040F66A16B14200D16B
:100F800000BFC1F3421501F01F03012606FA03F367
:100F9000012D02D19689334006E0022D02D1168A36
:100FA000334001E0968A33400C12012606FA04F41D
:100FB0001688344013B10CB1012000E0002070BD50
:100FC000F0B50346002400260025002040F66A17ED
:100FD000B94200D100BF1846C1F3421401F01F0608
:100FE000012707FA06F5012C01D10C3004E0022C90
:100FF00001D1103000E014301AB107682F430760A8
:1010000002E00768AF430760F0BD00002DE9F0473C
:1010100086B005460E460024A24600BFA146002722
:10102000B08900B100BF2F462C8A4CF6FF700440F7
:10103000F08804432C82AC894EF6F3100440B0884B
:1010400031890843718908430443AC81AC8A4FF667
:10105000FF400440B0890443AC8201A8FFF744FC80
:101060001F48874202D1DDF810A001E0DDF80CA096
:10107000A88900F4004040B10AEBCA0000EB0A1056
:1010800031684900B0FBF1F807E00AEBCA0000EB59
:101090000A1031688900B0FBF1F86420B8FBF0F069
:1010A00004012009642101FB1089A88900F4004093
:1010B00040B1322000EBC900B0FBF1F000F00700B6
:1010C000044308E0322000EB09106421B0FBF1F08A
:1010D00000F00F0004432C8106B0BDE8F08700004B
:1010E0000038014001468888C0F30800704700BFFF
:1010F000FEE7014600BF704710B56FF00400FFF730
:10110000D3FC0A4800680A49B0FBF1F009490870AD
:101110000846007800EB4001C1EBC0104FF6FF71AC
:1011200001EAC0000449088010BD0000040000204E
:1011300000127A002C0000202E0000200146114AE7
:1011400012884A434FF0E0235A6100229A611A46FE
:10115000126942F001021A6100BF4FF0E0221069EB
:1011600000F001021AB100F48032002AF5D04FF0ED
:10117000E022126922F001024FF0E0231A610022FE
:101180009A6170472E00002000BF054A128802F0C5
:101190004002002AF9D0C2B2014B1B1D1A807047D1
:1011A000003801400024FFF7A7FF4FF4A060FFF7CD
:1011B0006FFBFFF709FB002117480088FFF7BAFC17
:1011C00015480088401C154991FBF0F0144908802F
:1011D0004FF4165000F028F841F61F4142F20F700C
:1011E000FFF756FDFFF70EF915E00A20FFF7A6FFFF
:1011F00015B1601C84B201E0601E84B2064800880C
:10120000A0F51670A04200DC002504B90125214696
:101210000448FFF706FEE8E702000020401901003D
:1012200000000020002C014010B586B004460121CA
:1012300044F20400FFF748FB4FF40070ADF81400CF
:1012400003208DF8160018208DF8170005A91C48FA
:10125000FFF7B2F94FF48060ADF8140004208DF868
:10126000170005A91648FFF7A7F925208DF80000FB
:1012700003208DF801008DF8020001208DF8030095
:101280006846FFF7CDFA01940020ADF80800ADF8EC
:101290000A00ADF80C00ADF810000C20ADF80E00FF
:1012A00001A90848FFF7B2FE012240F22551054886
:1012B000FFF786FE01210348FFF74CFE06B010BD84
:1012C0000008014000380140E8120008000000203A
:1012D000380000006C0100082013000838000020CE
:1012E00028070000880100080000830300A24A04C8
:1012F00000000000000000000102030406070809C6
:1013000000000000010203040102030406070809AB
:1013100002040608000000000000000000000000B9
:0400000508000131BD
:00000001FF
