:020000040800F2
:10000000000C0020D5010008CD1E0008810E00085C
:10001000C91E0008890400087B27000800000000B2
:10002000000000000000000000000000792000082F
:10003000CD07000800000000411F0008B1220008A1
:10004000EF010008EF010008EF010008EF010008D0
:10005000EF010008EF010008D1070008EF010008D8
:10006000EF010008EF010008EF010008EF010008B0
:10007000EF010008EF010008EF010008EF010008A0
:10008000EF010008EF010008EF010008EF01000890
:10009000EF010008EF010008EF0100083D0A000829
:1000A000EF010008EF010008EF010008EF01000870
:1000B000EF010008EF010008EF010008EF01000860
:1000C000EF010008EF010008EF010008EF01000850
:1000D000EF01000859250008EF010008EF010008B2
:1000E000B5080008EF010008EF010008EF01000863
:1000F000EF010008EF010008EF010008EF01000820
:10010000EF010008EF010008EF010008EF0100080F
:10011000EF010008EF010008EF010008EF010008FF
:10012000EF010008EF010008EF010008EF010008EF
:1001300000F002F800F03FF80AA090E8000C8244BA
:100140008344AAF10107DA4501D100F034F8AFF297
:10015000090EBAE80F0013F0010F18BFFB1A43F0A5
:1001600001031847A45B0000C45B0000103A24BFE1
:1001700078C878C1FAD8520724BF30C830C144BF0C
:1001800004680C607047000000230024002500264E
:10019000103A28BF78C1FBD8520728BF30C148BFEA
:1001A0000B607047782900F07780002070471FB5FA
:1001B0001FBD10B510BD00F039F91146FFF7F7FF6C
:1001C00002F06CFE00F057F903B4FFF7F2FF03BC36
:1001D00002F00AFE0948804709480047FEE7FEE7AB
:1001E000FEE7FEE7FEE7FEE7FEE7FEE7FEE7FEE7E7
:1001F00004480549054A064B70470000B52200082F
:100200003101000800060020000C0020000800203A
:1002100000080020704700000FB4044910B503AA7D
:10022000029800F0CDF810BC5DF814FB38000020F7
:100230002DE9F0410E460446002020622046E16888
:10024000884730B3252805D0D4E901219047206A9A
:10025000401CF2E7E168204600278847050018D0D7
:10026000A5F14100192802D820354FF40067324625
:10027000294620462760FFF795FF40B1012804D0AA
:10028000F61D26F007060836D8E7361DD6E72846BD
:10029000DAE7206ABDE8F08170B504460D462146D4
:1002A0001068AFF300802188090502D50F4A7A440F
:1002B00002E00E4A7A440E32002104F1240305E0E4
:1002C00000F00F060009965D5E54491C0028F7D126
:1002D00020780023000704D5702D02D009B1022335
:1002E00011322046BDE8704000F011B80C590000F2
:1002F000704770477047704710B500F073F800689A
:1003000010BD10B5044600F06DF8046010BD2DE975
:10031000F0470D4699469246044600F124080168CC
:10032000880604D5E06921F01001216000E0012079
:10033000A84201DD471B00E00027A1697A1902EB02
:100340000900081AA0612078C00602D42046AFF345
:100350000080002608E0D4E901211AF80600904741
:10036000206A401C761C20624E45F4DB2078C006D3
:100370000AD52046AFF3008006E0D4E90121302001
:100380009047206A401C2062381EA7F10107F4DC68
:1003900007E0D4E9012118F805009047206A401CC5
:1003A0002062281EA5F10105F3DC2046AFF3008092
:1003B0002078000602D50220BDE8F0870120FBE787
:1003C000074B70B50D467B4400F015F804462846EF
:1003D00000F024F810B14FF0FF3070BD204670BD22
:1003E000B72A0000004870479C05002001694A1C9C
:1003F00002610878704700B58FB0CDE90131002166
:10040000059105497944CDE9031011466846FFF787
:100410000FFF0FB000BD0000E5FFFFFF007B00F005
:1004200080007047004870479C0500207546FFF724
:10043000F9FFAE4605006946534620F007008546A1
:1004400018B020B5FFF7D4FEBDE820404FF00006FD
:100450004FF000074FF000084FF0000B21F00701AC
:10046000AC46ACE8C009ACE8C009ACE8C009ACE8EF
:10047000C0098D46704710B50446AFF30080204692
:10048000BDE81040FFF7A0BE00BFFEE739B1084A43
:100490001268012383401A43054B1A6006E0044AA0
:1004A0001268012383409A43014B1A607047000091
:1004B0000074004041B1094A12684FF480538340F0
:1004C0001A43064B1A6007E0044A12684FF480533F
:1004D00083409A43014B1A6070470000007400404B
:1004E00030B5002200230A4C226840F6FE74844096
:1004F000A243D1E900452C438D682C43CD6844EAE2
:10050000050303FA00F42243014C226030BD0000D1
:100510000074004008B500220092054A009200F1E4
:100520000802009B1A440092009A116008BD000066
:100530000074004008B500220092054A009200F1C4
:100540001402009B1A440092009A116008BD00003A
:100550000074004021B1026842F00102026004E030
:1005600002684FF6FE731A400260704701684FF64A
:10057000FE72114001600021016041608160C16034
:100580004B49884208D14A490839496841F00F016E
:10059000474A083A51608AE045491431884208D1F7
:1005A00043490839496841F0F001414A083A51602D
:1005B0007DE03F492831884208D13D4908394968E2
:1005C00041F470613A4A083A516070E038493C3170
:1005D000884208D136490839496841F47041344AA3
:1005E000083A516063E032495031884208D13049BD
:1005F0000839496841F470212D4A083A516056E0A3
:100600002B496431884208D129490839496841F4A5
:100610007001274A083A516049E0254978318842FB
:1006200008D123490839496841F07061204A083AE5
:1006300051603CE01F49884206D1011F096841F022
:100640000F01021F116032E01A491431884208D1AB
:100650001849091F096841F0F001164A121F11607C
:1006600025E014492831884208D11249091F096838
:1006700041F470610F4A121F116018E00D493C31BE
:10068000884208D10B49091F096841F47041094AA1
:10069000121F11600BE007495031884207D105490C
:1006A000091F096841F47021024A121F1160704746
:1006B000080002400804024010B50022026847F614
:1006C000F0739A430C6A8B6823430C6923434C698B
:1006D00023438C692343CC6923434C6A23438C6AAC
:1006E00023431A430260CB6843600B6883604B6806
:1006F000C36010BD00B585B00121042001F042FCAB
:100700001020ADF800008DF8030003208DF80200E2
:100710006946124800F0DEFA1021104800F0AEFBE6
:100720000121480701F01EFC2420019000200290C6
:1007300003900220049001A90020FFF7D1FE0121BF
:100740000020FFF7A3FE01210020FFF7B3FE0021E8
:100750000846FFF7DFFE05B000BD000000080140BD
:1007600000B585B00121042001F00CFC2020ADF87B
:10077000000010208DF8030003208DF80200694668
:10078000114800F0A7FA20210F4800F077FB012163
:10079000480701F0E7FB2C20019000200290039015
:1007A0000220049001A91020FFF79AFE01211020D9
:1007B000FFF76CFE01211020FFF77CFE00210846A8
:1007C000FFF7B8FE05B000BD00080140704700000B
:1007D0002DE9F0410A2002F02DFB2F480068012886
:1007E00055D12E480078012803D02C4800780228E3
:1007F00022D12B480088182805DD29480088401E92
:100800002749088002E031202549088024480088D3
:10081000401C02F0CEFF064632460B46002021491E
:1008200002F012FE044602F02DFD1F49086002216D
:100830001B48008801F06EFD18480078032803D09B
:1008400016480078042822D1184800880D2805DDB4
:1008500016480088401E1549088002E01D201349F3
:10086000088012480088401C02F0A3FF064632466A
:100870000B4600200E4902F0E7FD044602F002FD9F
:100880000949086000210948008801F05DFD012048
:1008900000F0B0F9BDE8F081000121420000002025
:1008A0000200002080840E41080000200400002087
:1008B00060E326412DE9FC410A2002F0BBFA4348DF
:1008C000006800287CD142480078042803D1012028
:1008D0003F49087004E03E480078401C3C490870DD
:1008E0003B480078012823D131203A490880084646
:1008F0000088401C02F05DFF064632460B46002091
:10090000354902F0A1FD044602F0BCFC3349086001
:1009100002213048008801F0FDFC31A010210B4677
:10092000C822CDE900103C21084601F09FF944E0BF
:100930002748007802280AD12EA010210B46C82291
:10094000CDE900103C21084601F090F935E020483F
:100950000078032823D12CA010210B46C822CDE912
:1009600000103C21084601F081F91D202B49088028
:1009700008460088401C02F01CFF064632460B4623
:100980000020274902F060FD044602F07BFC134979
:10099000086000212148008801F0D6FC0DE00C48D9
:1009A0000078042809D11FA010210B46C822CDE9E8
:1009B00000103C21084601F059F901201E49087039
:1009C0004FF4004000F016F9BDE8FC813C012142E3
:1009D000000000200200002080840E41080000205A
:1009E000576176653A2073717561726520696E2072
:1009F00000000000576176653A20747269616E6785
:100A00006C65202000000000576176653A2073690C
:100A10006E20202020202020000000000400002064
:100A200060E32641576176653A207371756172659E
:100A3000206F757400000000010000202DE9F041D6
:100A40000A2002F0F7F92F480068002855D12E48F7
:100A50000078012803D02C480078022822D12B48A6
:100A60000088312805DA29480088401C2749088079
:100A700002E018202549088024480088401C02F024
:100A800098FE064632460B460020214902F0DCFC67
:100A9000044602F0F7FB1F49086002211B4800884A
:100AA00001F038FC18480078032803D01648007875
:100AB000042822D1184800881D2805DA1648008825
:100AC000401C1549088002E00D2013490880124897
:100AD0000088401C02F06DFE064632460B460020A0
:100AE0000E4902F0B1FC044602F0CCFB0949086053
:100AF00000210948008801F027FC202000F07AF846
:100B0000BDE8F08114012242000000200200002014
:100B100080840E41080000200400002060E326418C
:100B20000EB50121084601F02DFA00F0ABF90521C0
:100B3000022000F0AFF82020019000208DF808007E
:100B40000C208DF8090001208DF80A0001A800F0A2
:100B500057F80F21002000F09DF84FF4004001905D
:100B600000208DF808000C208DF8090001208DF878
:100B70000A0001A800F044F80021084600F08AF8B5
:100B80000120019000208DF8080008208DF8090050
:100B900001208DF80A0001A800F032F806208DF837
:100BA000000002208DF801008DF8020001208DF870
:100BB0000300684601F08CF917208DF80000022030
:100BC0008DF8010001208DF802008DF803006846C1
:100BD00001F07EF928208DF8000002208DF8010038
:100BE00000208DF8020001208DF80300684601F016
:100BF0006FF90EBD01490860704700001404014000
:100C0000002123498279002A3AD00A4612680368F3
:100C10009A430B461A600A1D126803689A430B1D1B
:100C20001A60027911440A6803681A430A60184A74
:100C30000832126803689A43154B08331A601A1D6C
:100C4000126803689A43124B0C331A604279102AD7
:100C50000ED11A1F126803681A430D4B08331A602D
:100C60001A1D126803681A43094B0C331A600DE011
:100C70000749427911440A6803681A430A6005E08B
:100C8000027911440A6803689A430A6070470000B9
:100C90000004014030B500228B071C0F0F2303FA1C
:100CA00004F20B4B8C1053F824309343084C8D10F6
:100CB00044F8253023468C1053F824308C07240F39
:100CC00000FA04F42343024C8D1044F8253030BD63
:100CD000080001402DE9F0410246002500260020D1
:100CE00000230024002791F803C00CF00F0591F8B1
:100CF00003C00CF0100CBCF1000F03D091F802C03F
:100D00004CEA050591F800C0BCF1000F31D0146821
:100D100000202BE04FF0010C0CFA00F3B1F800C0FA
:100D20000CEA03069E4220D183004FF00F0C0CFA10
:100D300003F7BC4305FA03FC4CEA040491F803C032
:100D4000BCF1280F06D14FF0010C0CFA00FCC2F8E0
:100D500014C00AE091F803C0BCF1480F05D14FF070
:100D6000010C0CFA00FCC2F810C0401C0828D1D3BA
:100D70001460B1F800C0BCF1FF0F34DD54680020EE
:100D80002EE000F1080C4FF0010808FA0CF3B1F85E
:100D900000C00CEA03069E4221D183004FF00F0CE5
:100DA0000CFA03F7BC4305FA03FC4CEA040491F87F
:100DB00003C0BCF1280F05D100F1080C08FA0CF8AB
:100DC000C2F8148091F803C0BCF1480F07D100F1BC
:100DD000080C4FF0010808FA0CF8C2F81080401C0B
:100DE0000828CED35460BDE8F0810000F0B50A4673
:100DF000002300240021002500F00046B6F1004F3A
:100E000002D11D4EF16901E01B4E7168C0F303452C
:100E100083B200F44016B6F5401F08D121F070618E
:100E2000154E766826F07066134F7E6012E000F46F
:100E30008016B6F5801F06D1032606FA05F4A143F5
:100E400041F0706106E0460D360103FA06F6B14343
:100E500041F0706122B1460D360103FA06F63143C6
:100E600000F00046B6F1004F02D1034EF16101E0FF
:100E7000014E7160F0BD000000000140016170474B
:100E800000BFFEE708B50121142001F07BF8012125
:100E90001148FFF7ABFF4FF40040ADF800004820C9
:100EA0008DF8030069460D48FFF714FF2020ADF8C8
:100EB000000048208DF8030069460948FFF70AFF43
:100EC0000120ADF8000028208DF803006946034892
:100ED000FFF700FF08BD00000002300000080140DD
:100EE0000010014070B5044600261D480588408862
:100EF00045431B48808846F60401884216D11848AD
:100F00008079012812D10020154988712A20488152
:100F10002B2088810021084600F0AAFD01201049FD
:100F200088712B2048812A20888103E0002108460F
:100F300000F09EFD00F050FF00260DE04FF48070A1
:100F40000849086140004861074804608020486102
:100F5000086180000861761CAE42EFD370BD0000CE
:100F60008C050020001001400C0C014010B5044617
:100F7000002C3BD13A498871F02008804FF4A070D2
:100F800048800846808849F2413188420BD0344875
:100F9000808846F60401884205D03148808845F2B1
:100FA000103188421AD12C202D4908812A204881ED
:100FB0002B2088810846808846F60401884205D0A7
:100FC0002748808845F21031884245D14FF4A070FF
:100FD000234908804FF4F07048803DE022202049EA
:100FE0000881202048812120888135E001201C498A
:100FF00088714FF4A0700880F020488008468088EF
:1010000049F24131884205D01548808845F21031B7
:10101000884207D12C20124908812A2048812B20A0
:10102000888106E022200E49088121204881202065
:1010300088810B48808846F60401884205D008481C
:10104000808845F21031884206D14FF4F07004498F
:1010500008804FF4A0704880002000F005FB10BD10
:101060008C05002070B504460D4616463D48808824
:1010700049F24131884205D03A48808845F2103122
:10108000884240D13749488900F094FE4FF480707F
:1010900035490861400048612012344908608020C9
:1010A00031494861086180000861401008614000D2
:1010B0004861E0B22D49086080202B4948610861F1
:1010C000800008612749888900F074FE4FF4807021
:1010D00025490861400048612812244908608020A1
:1010E00021494861086180000861401008614000A2
:1010F0004861E8B21D49086080201B4948610861C9
:101100008000086112E017488079012804D1154851
:101110000088401E001B84B212494889214600F015
:1011200063FE10498889294600F05EFE4FF4807006
:101130000D494861400048610A4800890B49086030
:1011400080200949486108618000086140100861F9
:1011500040004861054806608020486108618000C1
:10116000086170BD8C050020001001400C0C01408E
:1011700008B50121192000F005FF0121FE48FFF705
:1011800035FE4FF4F860ADF8000010208DF8030034
:1011900003208DF802006946F848FFF79BFD4FF4E5
:1011A000F861F648FFF76AFE4FF6FF70ADF80000F1
:1011B0006946F348FFF78EFD4FF6FF71F048FFF7E1
:1011C0005DFE322001F036FE0121002000F00CFE11
:1011D000322001F02FFE002000F03EFAE94988801D
:1011E00008468088FF280ADB084680884FF6FF7192
:1011F000884204D0E3488088B0F5134F7ED1D320D5
:1012000000F0D8FD00F0FEF900F0FCF900F0FAF96A
:10121000DC498880084680884FF6FF7101EA00208B
:10122000D849888000F0EEF9D64989880843D54925
:1012300088800846808849F2413188425ED0BF20CC
:1012400000F0B8FD00F0DEF900F0DCF900F0DAF9AA
:1012500000F0D8F9CB498880084680884FF6FF71A6
:1012600001EA0020C749888000F0CCF9C549898887
:101270000843C44988800846808846F604018842AD
:1012800074D0D42000F096FD00F0BCF900F0BAF95B
:1012900000F0B8F9BB498880084680884FF6FF7196
:1012A00001EA0020B749888000F0ACF9B549898887
:1012B0000843B44988800846808845F21031884246
:1012C00054D04FF45A4000F075FD00F09BF94FF4F4
:1012D0005B4000F06FFD00F095F9AA498880084650
:1012E00080884FF6FF7101EA0020A64988804FF4FC
:1012F0005C4000F05FFD00F085F900E036E0A149B8
:10130000898808439F49888008468088B0F5004F47
:1013100002D145F2105088809A48808845F21051D9
:10132000884223D0A12000F045FD00F06BF99549DB
:10133000888000F067F993498880084680884FF6D6
:10134000FF7101EA00208F49888000F05BF98D4928
:10135000898808438B4988800846808845F26171F6
:10136000884203D141F66310864988808548818888
:1013700085A0FEF751FF8348808849F241318842B9
:101380007ED1CF2000F016FD002000F001FDC1202D
:1013900000F0FEFC302000F0FBFCED2000F00AFD28
:1013A000642000F0F5FC032000F0F2FC122000F0B5
:1013B000EFFC812000F0ECFCE82000F0FBFC852035
:1013C00000F0E6FC102000F0E3FC7A2000F0E0FCE6
:1013D000CB2000F0EFFC392000F0DAFC2C2000F0EC
:1013E000D7FC002000F0D4FC342000F0D1FC022017
:1013F00000F0CEFCF72000F0DDFC202000F0C8FC5F
:10140000EA2000F0D7FC002000F0C2FC002000F031
:10141000BFFCC02000F0CEFC1B2000F0B9FCC120B6
:1014200000F0C8FC012000F0B3FCC52000F0C2FCB5
:10143000302000F0ADFC302000F0AAFCC72000F006
:10144000B9FCB72000F0A4FC362000F0B3FC482023
:1014500000F09EFC3A2000F0ADFC552000F098FC16
:10146000B12000F0A7FC002000F092FC1A2000F050
:101470008FFCB62000F09EFC0A2000F089FC00E002
:10148000A7E0A22000F084FCF22000F093FC0020F2
:1014900000F07EFC262000F08DFC012000F078FC9E
:1014A000E02000F087FC0F2000F072FC2A2000F002
:1014B0006FFC282000F06CFC082000F069FC0E2076
:1014C00000F066FC082000F063FC542000F060FC93
:1014D000A92000F05DFC432000F05AFC0A2000F037
:1014E00057FC0F2000F054FC002000F051FC0020BD
:1014F00000F04EFC002000F04BFC002000F048FC07
:10150000E12000F057FC002000F042FC152000F024
:101510003FFC172000F03CFC072000F039FC1120B4
:1015200000F036FC062000F033FC2B2000F030FCED
:10153000562000F02DFC3C2000F02AFC052000F095
:1015400027FC102000F024FC0F2000F021FC3F209D
:1015500000F01EFC3F2000F01BFC0F2000F018FCE8
:101560002B2000F027FC002000F012FC002000F0EF
:101570000FFC012010E000000002300000100140CC
:10158000000C01408C050020204C43442049443A83
:1015900025780D0A0000000000F0FAFB3F2000F063
:1015A000F7FB2A2000F006FC002000F0F1FB0020F1
:1015B00000F0EEFB002000F0EBFBEF2000F0E8FB7A
:1015C000112000F0F7FB782001F034FC292000F016
:1015D000F1FB0020FFF7CAFC0120034908604FF629
:1015E000FF70FFF77FFC08BDA801224210B502463C
:1015F000012000E050430B1EA1F10104E1B2F9D13A
:1016000010BD00004FF08831114A1160121D1160A9
:1016100000210F4A0C32116091150E4A11614900E8
:101620005161402151610A490831096888B240215D
:101630001161C90011614FF03331054A1160121D6B
:1016400011604FF6FF71024A0C32116070470000C2
:10165000000C01400010014000B50346184600F0A0
:10166000A9FBFFF7CFFF00BDF0B50546002400271A
:10167000FC48807901280BD1FA48808846F604019D
:10168000884205D0F748808841F66311884208D126
:10169000F4488079F0B9F348808841F663118842B4
:1016A00018D1082D15D2DFE805F00406080A0C0E43
:1016B000101206250DE007250BE0042509E005259D
:1016C00007E0012505E0002503E0032501E00225F0
:1016D00000BF00BFE348808849F24131884217D0FB
:1016E000E048808846F60401884211D0DD488088B1
:1016F00045F2103188420BD0DA48808845F210510B
:10170000884205D0D748808841F6631188427DD150
:10171000082D1CD2DFE805F00406090C0F1215187D
:1017200000BF14E044F0800411E044F040040EE0F7
:1017300044F0C0040BE044F0200408E044F06004EE
:1017400005E044F0A00402E044F0E00400BF00BF64
:10175000C448808845F21051884202D14FF458574E
:1017600000E03627BF48808845F2103188420DD00E
:10177000BC48808845F21051884207D0B94880881B
:1017800041F66311884201D044F00804B5488088CE
:1017900046F60401884201D144F00204214638464D
:1017A00000F022FBAF48808841F6631188421DD0CB
:1017B00004F0200068B1AB480088AA4949888842F3
:1017C00014DAA84806884088A6490880084646805A
:1017D0000CE0A4480088A3494988884206DDA14856
:1017E000068840889F490880084646809D48808832
:1017F00045F2105188427DD19A49488900F0DAFAC1
:101800004FF4807098490861400000E029E1486188
:101810000020964908608020934948610861800053
:10182000086190494989491C88B200F0C3FA4FF415
:1018300080708D4908614000486100208B49086034
:10184000802089494861086180000861854949898B
:10185000891C88B200F0AEFA4FF4807082490861AA
:10186000400048617F480088401E00127F490860A0
:1018700080207D4948610861800008617949498973
:10188000C91C88B200F096FA4FF48070764908615E
:101890004000486173480078401EC0B27349086038
:1018A0008020714948610861800008616D4988891C
:1018B00000F080FA4FF480706B4908614000486185
:1018C00000206A49086080206749486108618000FB
:1018D000086164498989491C88B200F06BFA4FF4A9
:1018E0008070614908614000486100205F490860DC
:1018F000802000E035E05C494861086180000861B3
:1019000058498989891C88B200F054FA4FF48070D4
:10191000554908614000486152484088401E001205
:101920005249086080205049486108618000086180
:101930004C498989C91C88B200F03CFA4FF4807088
:10194000494908614000486146488078401EC0B25D
:101950004649086080204449486108618000086168
:101960007FE04049488900F025FA4FF480703E49F5
:1019700008614000486100203C49086080203A49E5
:1019800048610861800008614010086140004861BA
:101990000020364908608020334948610861800092
:1019A000086140100861400048612E480088401ED0
:1019B00000122E49086080202B4948610861800090
:1019C0000861401008614000486126480078401EC8
:1019D000C0B2264908608020234948610861800020
:1019E00008612049888900F0E5F94FF480701E49AC
:1019F00008614000486100201C49086080201A49A5
:101A00004861086180000861401008614000486139
:101A10000020164908608020134948610861800051
:101A2000086140100861400048610E484088401E2F
:101A300000120E49086080200B494861086180004F
:101A40000861401008614000486106488078401EE7
:101A5000C0B20649086080200349486108618000DF
:101A60000861F0BD8C050020001001400C0C014005
:101A700030B504460D463048808849F241318842ED
:101A800005D02D48808845F21031884240D12A493E
:101A9000488900F08FF94FF48070284908614000B0
:101AA0004861201226490860802024494861086165
:101AB000800008614010086140004861E0B22049A0
:101AC000086080201D4948610861800008611A494A
:101AD000888900F06FF94FF4807018490861400060
:101AE000486128121649086080201449486108613D
:101AF000800008614010086140004861E8B2104968
:101B0000086080200D49486108618000086112E08A
:101B100009488079012804D107480088401E001B2D
:101B200084B205494889214600F05EF90249888956
:101B3000294600F059F930BD8C0500200010014005
:101B40000C0C01402DE9F84F80460E4617461C4606
:101B5000B3462046E31704EB5373DB1021464FEAEC
:101B6000E47C04EB5C7C4FEAEC0CA4EBCC0CBCF109
:101B7000000F02D04FF0010C01E04FF0000C634465
:101B8000224604EBD27C4FEA6C0C03FB0CF3DBB275
:101B90000093A7F12000C7B2002556E00C2C07D116
:101BA00007EB47002B4901EB800010F8059013E08C
:101BB000102C05D1284800EB071010F805900BE019
:101BC000182C07D107EBC700244901EB800010F85F
:101BD000059001E0BDE8F88F4FF0000A2FE009F012
:101BE000800030B11E48028831464046FFF73AFA7D
:101BF00007E00A9828B91B48028831464046FFF79B
:101C000031FA4FEA49604FEA1069701C86B21648F3
:101C10004088B04200DCDDE7A6EB0B00A0420AD111
:101C20005E4608F101001FFA80F80F480088404521
:101C300000DCCFE706E00AF1010000F0FF0ABAF18C
:101C4000080FCCDB00BF681CC5B200988542A5DB3D
:101C500000BFBFE7FE43000872480008624E00085C
:101C600040000020420000208C0500202DE9F847AC
:101C700004460D4690469946DDE9096704F0FF0ADF
:101C800008EB04001FFA80F809EB05001FFA80F941
:101C900016E0444502DB5446A81985B24D4500DBE9
:101CA00014E0002000903A78334629462046FFF79A
:101CB00049FF304606EBD07104EB61018CB27F1C0A
:101CC00038787E2802DC38782028E2DA00BFBDE8C8
:101CD000F8872DE9FF4F82B0064692461F46DDE9A0
:101CE0000F480020019000254DE0781B401EC1B236
:101CF0000A20FFF77BFCBAFBF0F00A21B0FBF1F2FF
:101D000001FB1209019850BB781EA84227DDB9F1EA
:101D1000000F22D108F0800078B108F00100A3463E
:101D200004EBDB71491001FB0561009088B223468A
:101D300030220399FFF706FF0EE008F00100A346EA
:101D400004EBDB71491001FB0561009088B223466A
:101D500020220399FFF7F6FE13E00120019008F01E
:101D60000100A34604EBDB71491001FB0561009003
:101D700088B209F13001CAB223460399FFF7E2FEA7
:101D800000BF681CC5B2BD42AFDB06B0BDE8F08F36
:101D90004FF48071054A116149005161044908609E
:101DA000802151611161890011617047001001406B
:101DB0000C0C01404FF48071054A5161490051619A
:101DC00004490860802151611161890011617047E7
:101DD000001001400C0C014000B502490889FFF7D2
:101DE000E9FF00BD8C05002010B504460B462046D7
:101DF000FFF7E0FF4FF4807005490861400048613B
:101E0000044803608020486108618000086110BDBB
:101E1000001001400C0C014008B50121242000F005
:101E2000B1F84FF48070ADF8000010208DF8030079
:101E300003208DF8020069460948FEF74BFF4FF476
:101E400080710748FFF71AF80420ADF800006946D2
:101E50000448FEF73FFF04210248FFF70FF808BDD2
:101E60000008014000140140F0B58BB007460D4654
:101E700016461C460121022000F064F83846FEF7A1
:101E800075FB104804800095019610200290039481
:101E9000002004908020059040000690800007906C
:101EA000202008904FF44050099000200A90694685
:101EB0003846FEF701FC01213846FEF74BFB0BB01C
:101EC000F0BD00003E00002000BFFEE770470000AC
:101ED00070B5002100230F22C47804B3154C246888
:101EE00004F4E064C4F5E064210AC1F10403CA40CB
:101EF000447804FA03F184781440214309010E4C1C
:101F00000678A155047804F01F050124AC4005783B
:101F10006D11AD0005F1E025C5F8004109E0047838
:101F200004F01F050124AC40044D0678761145F8F5
:101F3000264070BD0CED00E000E400E080E100E030
:101F40007047000029B1064A52690243044B5A61A6
:101F500004E0034A52698243014B5A617047000012
:101F60000010024029B1064AD2690243044BDA61EB
:101F700004E0034AD2698243014BDA6170470000F2
:101F80000010024029B1064A92690243044B9A614B
:101F900004E0034A92698243014B9A617047000052
:101FA0000010024030B500210022002400232D4DF6
:101FB0006D6805F00C0121B1042905D0082923D151
:101FC00005E0294D056022E0274D05601FE0254D05
:101FD0006D6805F47012234D6D6805F48034022598
:101FE00005EB92421CB9214D554305600BE01D4D98
:101FF0006D6805F400351DB11C4D5543056002E0C8
:10200000194D5543056002E0174D056000BF00BF44
:10201000144D6D6805F0F0010909154D6B5C0568FC
:10202000DD4045600F4D6D6805F4E061090A104D13
:102030006B5C4568DD4085600A4D6D6805F4605154
:10204000C90A0B4D6B5C4568DD40C560054D6D6888
:1020500005F44041890B074D6B5CC568B5FBF3F592
:10206000056130BD0010024000127A0000093D00F9
:102070002000002030000020704710B500F002F86A
:1020800010BD00000CB5002001900090334800689E
:1020900040F480303149086000BF3048006800F4E7
:1020A000003000900198401C0190009818B90198E8
:1020B000B0F5A06FF1D12948006800F4003010B1EC
:1020C0000120009001E0002000900098012843D1F9
:1020D0002348006840F01000214908600846006865
:1020E00020F0030008600846006840F00200086025
:1020F0001A484068194948600846406848600846E0
:10210000406840F4806048600846406820F47C10D5
:1021100048600846406840F4E81048600846006897
:1021200040F08070086000BF0C48006800F000704C
:102130000028F9D00948406820F0030007494860AA
:102140000846406840F00200486000BF034840680D
:1021500000F00C000828F9D10CBD0000001002406E
:10216000002002402DE9F04F97B081468A46934601
:1021700000244EE0584601F03BFDCDE90E01A9F1E7
:10218000010001F016FBCDE90001204601F028FB1B
:1021900007460022214B01F037FB0546DDE900230D
:1021A00001F052F900224FF08043CDE9020101F025
:1021B0002BFB1B4A1B4BCDE9040101F025FBCDE9AC
:1021C000060100F0BFFFCDE90A01584601F010FDFD
:1021D000CDE90801DDE90A2301F016FBCDE90C0188
:1021E000DDE90E2301F080F800220F4BCDE910014C
:1021F00001F00AFB4FF066320C4BCDE9120101F001
:1022000023F9CDE9140101F0A7FA2AF81400601CA3
:1022100084B24C45AEDB17B0BDE8F08F0000F03F54
:102220004AD8124DFB21094000FEAF4066660A40C5
:102230002DE9F84F81468A46934600241CE009EBBD
:10224000D971B4EB610F12DA0D49584601F06CFEFA
:10225000009001F0CDFC07464FF06632094B01F0CB
:10226000F3F8054601F078FA2AF8140002E000209D
:102270002AF81400601C84B24C45E0DBBDE8F88FFE
:1022800000F07F4566660A40042808D14FF0E0213F
:10229000096941F004014FF0E022116107E04FF0BD
:1022A000E021096921F004014FF0E022116170473B
:1022B0007047000010B51348006840F00100114954
:1022C000086008464068104908400E4948600846C2
:1022D00000680E4908400B4908600846006820F471
:1022E000802008600846406820F4FE0048604FF4F3
:1022F0001F008860FFF7C1FE4FF0006004490860CE
:1023000010BD0000001002400000FFF8FFFFF6FEC5
:1023100008ED00E03EB505460C4601210846FFF7F2
:1023200021FEADF80450ADF800400020ADF80600E5
:10233000ADF8020069464FF0804000F037F82021E8
:10234000480600F029F83EBD3EB505460C46012181
:102350000420FFF707FEADF80450ADF80040002060
:10236000ADF80600ADF802006946044800F01EF81A
:102370002021024800F010F83EBD00000008004097
:1023800021B1028842F00102028004E002884FF687
:10239000FE731A400280704782884FF68F731A408E
:1023A000828082880A43828070470000002202886F
:1023B0001D4B98420ED01D4B98420BD0B0F1804F70
:1023C00008D01B4B984205D01A4B984202D01A4BAA
:1023D000984204D14FF68F731A404B881A43174B1B
:1023E000984207D0164B984204D04FF6FF431A404C
:1023F000CB881A4302808B8883850B8803850A4B20
:1024000098420BD0094B984208D00E4B984205D009
:102410000D4B984202D00D4B984201D10B7A0386A6
:102420000123838270470000002C014000340140EA
:102430000004004000080040000C00400010004074
:1024400000140040004001400044014000480140A9
:102450002DE9F04F87B006460D469146002470E006
:10246000172C22DA204601F04BFD4946019001F07D
:102470005BFD3649029001F049FC4946039001F0AA
:10248000E3FB8346324901F04FFD824601F0B0FB89
:102490004FF066322F4BCDE9040100F0D5FF07461F
:1024A00001F05AF925F8140049E0482C28DAA4F183
:1024B000170001F00DFD4946019001F035FD23495B
:1024C000029001F023FC494604904FF0804001F057
:1024D0002BFD0390049901F0FDFD1D49059001F0CD
:1024E00023FD069001F084FB07464FF06632194B3E
:1024F00000F0AAFF824601F02FF925F814001EE033
:10250000A4F1470001F0E4FC4946029001F00CFD03
:1025100083460E4901F0FAFB82460D4901F004FDA5
:10252000039001F065FB4FF066320A4BCDE90401E0
:1025300000F08AFF074601F00FF925F81400601C2F
:1025400084B2B4428CDB07B0BDE8F08F0000C0411C
:1025500000F07F4566660A4010B540F225511D48DF
:1025600000F04AF810B31B4800F002F9C4B21A4850
:10257000008800F40040C8B91748008800F4804083
:1025800060B10A2C03D000201349088020E01248D3
:10259000008840F400401049088019E00D2C06D155
:1025A0000D48008840F480400B49088010E00A483C
:1025B0000088C0F30D0009490C5407480088401CEE
:1025C0000549088008460088C72801DD00200880EA
:1025D00010BD0000003801403C000020C404002071
:1025E00021B1828942F40052828104E082894DF651
:1025F000FF731A408281704770B5024600240023A1
:102600000025002040F66A16B14200D100BFC1F398
:10261000421501F01F03012606FA03F3012D02D132
:102620009689334006E0022D02D1168A334001E03C
:10263000968A33400C12012606FA04F416883440B8
:1026400013B10CB1012000E0002070BDF0B50346CD
:10265000002400260025002040F66A17B94200D168
:1026600000BF1846C1F3421401F01F06012707FA04
:1026700006F5012C01D10C3004E0022C01D1103000
:1026800000E014301AB107682F43076002E00768C2
:10269000AF430760F0BD00002DE9F04786B0054666
:1026A0000E460024A24600BFA1460027B08900B113
:1026B00000BF2F462C8A4CF6FF700440F08804437C
:1026C0002C82AC894EF6F3100440B088318908435F
:1026D000718908430443AC81AC8A4FF6FF40044043
:1026E000B0890443AC8201A8FFF75CFC1F48874215
:1026F00002D1DDF810A001E0DDF80CA0A88900F4FB
:10270000004040B10AEBCA0000EB0A1031684900F2
:10271000B0FBF1F807E00AEBCA0000EB0A103168E1
:102720008900B0FBF1F86420B8FBF0F00401200947
:10273000642101FB1089A88900F4004040B13220D7
:1027400000EBC900B0FBF1F000F00700044308E023
:10275000322000EB09106421B0FBF1F000F00F0013
:1027600004432C8106B0BDE8F0870000003801402A
:1027700001468888C0F30800704700BFFEE74900A3
:1027800050EAC12018BF04204A0D18BF40F00100D4
:1027900040F2FF72B2EB515F08BF40F00200012827
:1027A00008BF0520704700002DE9F74F144694B08C
:1027B0000021C4E902111599079121F00045C9498A
:1027C0008D4206DC1599C4E9000117B00020BDE870
:1027D000F08FC549DFF814A3A9423CDD0799C44E28
:1027E0000029C44FC44A1599534619DD01F016F962
:1027F000554506D0C14AC24B01F010F9C4E90001A9
:102800000AE04FF0D352BE4B01F008F932463B4686
:1028100001F004F9C4E9000117B00120BDE8F08F10
:1028200000F062FD554506D0B44AB54B00F05CFDA2
:10283000C4E900010AE04FF0D352B14B00F054FD5F
:1028400032463B4600F050FDC4E9000117B04FF09E
:10285000FF30BDE8F08FAB49A942159978DB21F034
:10286000004183468846A84AA84B00F0CDFF0022CD
:10287000A74B00F039FD00F03FFF099000F099FFF1
:1028800006460F469C4A534600F0BEFF43465A4652
:1028900001F0B8F880468A46984A994B3046394646
:1028A00000F0B2FF2A0D01250B924246534601F07B
:1028B000A9F8032DC4E9000139D00B98C1F30A51DE
:1028C000401A05EB45111139814230DA9148C3466F
:1028D000784400EB0510CDF80CA00C90D0E9002353
:1028E0003046394600F090FF02460B4604910690B0
:1028F0005846039901F092F880468A4602460B46F4
:102900005846039901F08AF8049B069A01F086F86C
:1029100083460C9803913946D0E90223304600F0F3
:1029200073FF5A46039B01F079F86D1CBDE70798C9
:102930000028A2BF099817B0BDE8F08F616881F048
:1029400000416160099817B04042BDE8F08FFFE791
:1029500084461598C1F31301C0F30A50A0F2F53074
:102960004FEA601800F01F06C6F120001390002007
:102970000690079041F4801E05206D4676B1664AA8
:1029800008EB00017A4452F8213002EB8101B34098
:102990004A68139922FA01F1194305E05F4908EBEF
:1029A0000002794451F82210A1FB0E27A1FB0C1361
:1029B0001A449A4234BF0123002303EB070A05EBB4
:1029C0008003D3E901B70F448F4234BF01210021B6
:1029D00093448B4411B1934502D903E0934501D24E
:1029E000012100E00021C3E901B7514445F820105E
:1029F000011EA0F10100C1DC0298059F00F100500A
:102A0000800F12900298DDE90356800000F0D1FE9D
:102A1000834628460D9100F0E3FE6FF01D0201F0A1
:102A200000FCCDE90E01304600F0DAFE6FF03D0209
:102A300001F0F7FB80468A46384600F0D1FE6FF081
:102A40005D0201F0EEFB074642465346119100F04D
:102A50004BFCDDE90E2300F047FC5A460D9B00F0CD
:102A600043FC00250E465A4628460D9B00F0D6FF33
:102A7000DDE90E2300F0D2FF4246534600F0CEFFC0
:102A80003A46119B00F0BEFFDFF898A0244A534657
:102A900000F0BAFE07468846234A244B31462846B2
:102AA00000F0B2FE3A46434600F01EFC0746884658
:102AB0004FF0A84253463146284600F0A5FE3A465C
:102AC000434600F011FC159A12F0004F04D0129A00
:102AD00081F0004152421292C4E90001129817B0ED
:102AE000BDE8F08FFB21E93F7CD90240FB21F93F93
:102AF0007370032E8A19A33B000040543163621A9D
:102B000061B4D03DFB21394183C8C96D305FE43FDA
:102B10000000E03F44330000C0320000A232000059
:102B2000182D4454FB21F93D3326A611460B113CC8
:102B30002DE9FF4D21F0004807460C46B8F1795FBA
:102B400008DA00F0D9FD002801BF0020324904B0A6
:102B5000BDE8F08D3A4623461046194600F054FE73
:102B6000054602462D480E460B460621784400F0E5
:102B70005DF82A46334600F047FEDDE9022382462F
:102B80008B463846214600F03FFE04460F4652462B
:102B90005B462846314600F037FE22463B4600F0B1
:102BA0003DFF07468A464FF0FF322846314601F086
:102BB00038FB1B4A90450ADA3A46534600F02EFF8E
:102BC00004B00022BDE8F04D134B00F01BBF154AC6
:102BD0004245A8BFA8F500154FF00004B8BF124D3C
:102BE00022462B4600F01AFF0646884622462B4610
:102BF0000020094900F012FF04460D463A465346AC
:102C00003046414600F00AFF04B022462B46BDE89C
:102C1000F04D00F0F7BE00000000F03F78300000FB
:102C20003333D33F0000E93F0000D23F2DE9F041AC
:102C30004F1E00EBC7010446D1E9000115461E46B0
:102C400037F006020DD02A46334600F0DDFD7F1E28
:102C500004EBC703D3E9002300F046FB37F006027C
:102C6000F1D1022F25D0042F13D0062F18BFBDE8B5
:102C7000F0812A46334600F0C7FDD4E90A2300F06C
:102C800033FB2A46334600F0BFFDD4E9082300F0A9
:102C90002BFB2A46334600F0B7FDD4E9062300F0AB
:102CA00023FB2A46334600F0AFFDD4E9042300F0AD
:102CB0001BFB2A46334600F0A7FDD4E9022300F0AF
:102CC00013FB2A46334600F09FFDD4E90023BDE8FC
:102CD000F04100F009BB00002DE9FF4D054621F051
:102CE000004084B00C46B0F1795F0BDA2846FFF75C
:102CF00046FD042808BF00F06FF8284608B02146BA
:102D0000BDE8F08D2A460B46104600F07DFD0646D4
:102D10000F462A46234600F077FD804626488A461D
:102D200032463B4605217844FFF780FF83461098E2
:102D3000029160B3214A224B4046514600F064FDA7
:102D4000CDE900015A4640465146029B00F05CFD29
:102D500082468846DDE906014FF0FF3201F061FA54
:102D60005246434600F05AFE32463B4600F04CFDC8
:102D7000DDE9062300F052FEDDE9002300F04EFEFF
:102D800008B02A462346BDE8F04D00F03BBE0B4696
:102D90005A463046394600F037FD084A084B00F0E5
:102DA000A3FA4246534600F02FFD08B02A462346B8
:102DB000BDE8F04D00F098BAB62F000049555555C2
:102DC0005555C5BF012201F02CBA0022134610460A
:102DD000114600F039BB0000024A0020110701F043
:102DE00020BA000001FDFFFF014600BF7047000050
:102DF00010B56FF00400FFF747FA0A4800680A4967
:102E0000B0FBF1F0094908700846007800EB40017A
:102E1000C1EBC0104FF6FF7101EAC0000449088001
:102E200010BD00000C00002000127A0034000020C9
:102E3000360000200146114A12884A434FF0E02331
:102E40005A6100229A611A46126942F001021A611F
:102E500000BF4FF0E022106900F001021AB100F447
:102E60008032002AF5D04FF0E022126922F00102F0
:102E70004FF0E0231A6100229A617047360000206B
:102E800000BF054A128802F04002002AF9D0C2B2FF
:102E9000014B1B1D1A807047003801401CB5FFF71D
:102EA000A7FF4FF4165000F09DF9FEF7B5FF874AD3
:102EB00087496020FFF7BCF94FF07F5285496020B9
:102EC000FFF7C6FA4FF07F5283496020FFF74AF9B7
:102ED0007E4A82496020FFF7ABF9FDF70BFCFDF756
:102EE0003FFCFDF71DFE02217D480088FFF712FA26
:102EF00000217C480088FFF727FA002407E0744887
:102F000030F81400784921F81400601CC4B2602C19
:102F1000F5DB002407E0704830F81400734921F80D
:102F20001400601CC4B2602CF5DB60236E4A70494B
:102F30007048FEF799FF60236C4A6D490C316D486B
:102F40001430FEF791FF01218807FFF719FA0121DC
:102F50006948FFF715FAFEF70BF94FF6FF70FDF71A
:102F6000C1FF4FF478406549088065A010210B46E9
:102F7000C822CDE900103C210846FEF777FE64A088
:102F800010210B46C822CDE9001050213C20FEF74D
:102F90006DFE62A010210B46C822CDE9001064210D
:102FA0003C20FEF763FE0020614908608DE0614827
:102FB0000078012811D16048007870B1002407E042
:102FC000434830F81400484921F81400601CC4B28A
:102FD000602CF5DB0020584908705648007802281C
:102FE00011D15548007870B1002407E0394830F815
:102FF00014003D4921F81400601CC4B2602CF5DBBC
:1030000000204D4908704B480078032811D14A48E8
:10301000007870B1002407E02F4830F814003349DD
:1030200021F81400601CC4B2602CF5DB002042497A
:10303000087040480078042811D13F48007870B1EA
:10304000002407E0254830F81400284921F814002E
:10305000601CC4B2602CF5DB00203749087037488B
:10306000006800F015FF85B20020102105232A46D4
:10307000CDE9001064210846FEF72BFE284600F03B
:103080003FFF81462D480168484601F019F8804607
:103090002B4900F049FF074600F0FAFE0646802063
:1030A000102103233246CDE9001064219420FEF75D
:1030B00010FE1F48006808B9012000E000201C49EC
:1030C00008604FF49670FFF7B5FE70E700004040CF
:1030D0004400002004010020C401002084020020DC
:1030E000020000200400002044030020040400200B
:1030F00008740040300402400008004040000020F6
:10310000576176653A207371756172650000000041
:103110005670703A203320560000000046726571E8
:103120003A20353030302E30303020487A000000E0
:10313000A001214200000020010000200800002022
:1031400000007A4400B5254B21F0004287B09A4236
:1031500003DC0022134600922BE0214B9A4208D157
:1031600040B94FF00100FDF7CCF8FFF72EFE07B095
:1031700000BD03DBFFF726FE07B000BD02AAFFF784
:1031800013FB10F003014FF001000DD0012914D002
:1031900002291AD00DF1080C9CE80F00FFF7C8FCBB
:1031A00007B081F0004100BD0DF1080C00909CE8D3
:1031B0000F00FFF791FD07B000BD0DF1080C9CE872
:1031C0000F00FFF7B5FC07B000BD0DF1080C009033
:1031D0009CE80F00FFF780FDE2E70000FB21E93FDC
:1031E0000000F07F10B586B00446012144F20400CF
:1031F000FEF7C8FE4FF40070ADF8140003208DF800
:10320000160018208DF8170005A91C48FDF762FD6F
:103210004FF48060ADF8140004208DF8170005A964
:103220001648FDF757FD25208DF8000003208DF886
:1032300001008DF8020001208DF803006846FEF7BA
:1032400047FE01940020ADF80800ADF80A00ADF883
:103250000C00ADF810000C20ADF80E0001A90848D4
:10326000FFF71AFA012240F225510548FFF7EEF95F
:1032700001210348FFF7B4F906B010BD0008014072
:103280000038014021F00042A2F16052B2F5801FE7
:1032900001F0004328BFD2F17F6C0BD95FEA001C1C
:1032A00043EAC20242EB507018BF704728BF20F0BB
:1032B00001007047B2F5801FBCBF184670474FEA47
:1032C000410C1CF5001F02D2084600F0F4BE70B598
:1032D00000F044FB00000089FFF7F6BF4FF000400C
:1032E000A0F580007047000010B591EA030F48BFB9
:1032F00083F0004300F19A83841A71EB030C05D22A
:10330000121943EB0C03001B61EB0C01DFF824E105
:103310004FEA1154A4EB135C1EEA430F18BF9EEA58
:10332000445F73D023EA0E03DCF1200E21EA04513E
:1033300043F4801332D322FA0CFE10EB0E0023FA72
:103340000CFE41EB0E01CCF1200E03FA0EFE10EB49
:103350000E0051F10001B1F5801FCCF1200E32D2E8
:1033600001EB045112FA0EF2BDE8104058BF70474D
:10337000401C38BF5FEA420218BF7047002814BFE4
:1033800020F0010041F100014FEA410313F5001F55
:1033900038BF7047A1F1C04100F02EBB012A43EBBA
:1033A0000302ACF1200CDCF11F0E32BF4FF0000E17
:1033B00023FA0CF310EB030041EB0451B4EB115F63
:1033C000D0D0A1EB045101F5801149085FEA30002B
:1033D00001EB04510ED350F1000038BF12FA0EFE7B
:1033E00008D1BDE81040C9E7401C38BF5FEA42027F
:1033F000CAD1C3E7BDE810404FEA410313F5001FEF
:1034000038BF7047A1F1C04100F0F6BA9EEA445FB0
:1034100008D011EA5E0FBDE8104004BF01F0004182
:1034200000207047BDE8104070B500F097FA00BF6B
:1034300064FBBE3E0000E0FF02494FF0000000F0D8
:10344000BEBE00BF0000F87F2DE9C04130B4DFF8F8
:10345000A0C23CEA111418BF3CEA131400F0EC803F
:1034600081EA03051CEA111444EAD57418BF1CEA6A
:10347000131500F0C780A4EB05044FF0004545EAA2
:10348000C12145EAC32341EA505143EA525304F1B2
:103490007F74994204F500344FEAC0204FEAC222FB
:1034A00008BF904200F09C804FEA13650FF240166F
:1034B000765D4FEA134506FB05F7C7F1807706FBFB
:1034C00007F74FEAD737A7FB03687642C8F580387D
:1034D000A7FB06CE38BFA8F1010807FB08E64FF0AE
:1034E000000EA6FB028CE6FB03CEDCF1000CCEF155
:1034F000004E38BFAEF1010EA6FB0C584FF000078E
:103500004FF00005E6FB0E87A1FB08C6A0FB07CE27
:1035100016EB0E0645F10005E1FB076515F1E04EDF
:103520007EBFA4F580345FEA46066D4116F1800740
:1035300045F100054FEA17274FEA066647EA056797
:10354000A6F1DE46B6F1805F4FEA15251FD9384651
:1035500024F0010C05EBC471BCF1FE6F01EB0C1102
:1035600002D8F0BCBDE8008124425CBF01F5801E9A
:103570009EEAC47F02D4F0BCBDE80081244238D466
:10358000F0BCA1F1C041BDE8004100F035BA4FEAFE
:10359000D22242EA43524FEAD323A7FB02864FEAE4
:1035A000D02040EA415007FB03661EEA0E0F4FEAA7
:1035B000D12105FB026658BFA6EB0056B6EB0056BC
:1035C0004FEA520E4EEAC37E18EB0E0E56EB530E28
:1035D000BDD518EB02085E417F1C55F10005B6E72A
:1035E0004FF480154FF000074FF000064FF0000831
:1035F000ADE7F0BC4FF0000001F1C04101F0004127
:10360000BDE8008111EA0C1F0CEA131500D00CE094
:1036100013EA0C1F00F025804FF00000F0BC81EA97
:10362000030101F00041BDE80081F0BCBDE80041AC
:1036300081EA030100F0E0B9F0BCBDE8004170B5DB
:1036400000F08CF9097EFC3E00F007B881EA030126
:103650004FF0000001F00041704781EA030100F0E3
:10366000CBB9F0BCBDE800414FF0000021497047E4
:10367000FFFDFBF9F7F5F4F2F0EEEDEBE9E8E6E437
:10368000E3E1E0DEDDDBDAD8D7D5D4D3D1D0CFCDBE
:10369000CCCBCAC8C7C6C5C4C2C1C0BFBEBDBCBBF7
:1036A000BAB9B8B7B6B5B4B3B2B1B0AFAEADACABF2
:1036B000AAA9A8A8A7A6A5A4A3A3A2A1A09F9F9ECC
:1036C0009D9C9C9B9A99999897979695959493937E
:1036D000929191908F8F8E8E8D8C8C8B8B8A898915
:1036E0008888878786858584848383828281818098
:1036F0000000FF070000F87F4FEA41034FEA5353F1
:10370000A3F58063D3F11E03C8BFD3F1210C0CDDF8
:103710004FF0004242EAC12242EA505232FA03FC20
:103720008CEAE17CACEBE1707047102BC4BF002049
:10373000704703F5787CBCF1FF3F04D06FF0004286
:1037400082EA2100704770B500F008F949922480A0
:1037500000207047F2E700004FEA1153A3F58063A1
:10376000D3F11E03A8BFD3F1200C08DB4FF00042B9
:1037700042EAC12252EA505232FA03F0704709423B
:103780000BD4102BC4BF0020704703F5787CBCF12C
:10379000FF3F05D04FF0FF3070474FF000007047FB
:1037A00070B500F0DBF800BF49922480002070471C
:1037B000F0E710F0004248BF4042B0FA80F310FA40
:1037C00003F10AD0C3F11D0303F580634FEA4150B2
:1037D00002EB035202EBD12170474FF0000070471B
:1037E000B0FA80F310FA03F10AD0C3F11D0303F518
:1037F00080634FEA41504FEA035202EBD1217047F8
:103800004FF0000070470000DFF848C170B51CEAB7
:10381000111E1EBF1CEA13159EEA0C0F95EA0C0F31
:1038200000F06F8081EA030423EA4C134EEAD47E51
:1038300021EA4C1141F4801143F48013AE44A1FB02
:10384000024CA0FB0365AEF17F7E361955EB0C05EB
:10385000A1FB034C4CF10003A0FB021C16EB0C0671
:10386000654153F10003094218BF46F0010613F405
:10387000007F0BD14FEA03314FEA0530340341EAB0
:10388000155140EA16506FF003020AE04FEAC321D7
:103890004FEAC520F40241EA555140EA56506FF014
:1038A000020202EB2E4201EB025585EACE710AD0EC
:1038B0005FEA440C18BF24F0004450F1000041F1CD
:1038C000000120EAD47040F2FE7C624500D270BD57
:1038D000A84214BF4FF080444FF04044002E08BF70
:1038E0000024BEF1806FA8BFA1F1C041BDE87040C7
:1038F00080F282804FF0000001F1C04101F00041F0
:1039000070479EEA0C0F0CEA131518BF95EA0C0FCE
:1039100006D04FF0000081EA030E0EF0004170BDAA
:1039200000F01CF88900013E00F007B800F009B86B
:103930004FEA430C5FEA5C5C08D081EA030100F0C7
:103940005BB84FEA410C5FEA5C5CF6D14FF00000D7
:10395000014970470000FF070000F87F0EF1020EDA
:103960002EF0030E5EF8046B364205D4012A43EBB9
:10397000030515F5001F12D8012841EB010C1CF5B9
:10398000001F0CD80ED14FEAD17C15F5001F0CEBAF
:103990004C0C0CF1020C08BF4CEBD37C04E04FF054
:1039A000080C01E04FEAD37C0CEB4C0526FA05F637
:1039B00006F00706B6F1040C06D20EEB860CBDE845
:1039C00070404CF0010C6047DFE80CF0090B02027C
:1039D0004FF000414FF00000A1F5002170BD1946E5
:1039E0001046012851EB010418BFD4F5001484BF20
:1039F000002001F0004170BD0808A0F500114FEA59
:103A00003101704791EA030F10B581F000413FF595
:103A100073AC83F0004300F009B8000010B591EAE0
:103A2000030F48BF83F000433FF566AC841A71EB87
:103A3000030C07D212198CF0004C43EB0C03001B53
:103A400061EB0C01DFF8A4E14FEA1154A4EB135C25
:103A50001EEA430F18BF9EEA445F00F0B08023EADD
:103A60006E03524221EA0451C3EB6E0338BF5B1E62
:103A7000DCF1200E25D322FA0CFE10EB0E0043FAE7
:103A80000CFE41EB0E01CCF1200E03FA0EFE10EB02
:103A90000E0051F10001CCF1200E29D412FA0EF2E1
:103AA00001EB0451BDE8104058BF7047401C1CBFDB
:103AB000B2F1004F704700280CBF491C20F00100F4
:103AC000704712EB020E43EB030218BF4FF0010EDA
:103AD0004EEA4202ACF1200CDCF11E0E54D943FA3E
:103AE0000CFE10EB0E0051F1FF31CCF11E0ED5D5BE
:103AF0000EF1010E12FA0EFE404141EB010101EB05
:103B0000445C5FEA5C5C10D910EBDE7001EB0451A1
:103B100038BFBEF1004FBDE8104018BF7047002805
:103B20000CBF491C20F00100704730D24FEAD42C62
:103B300011F5001124F400641BD0B1FA81F20B3AA4
:103B4000A41AA41ED2F12003914030FA03F31943C2
:103B5000904001EBCC71002C01EB0451BDE810400A
:103B6000A8BF704701F1C0414FF0000001F00041D3
:103B70007047B0FA80F310FA03F100D110BDE41AD7
:103B8000173C4805C90AE4E701EB045110BD491090
:103B900001EB0451BDE810404FEA300002E04FF065
:103BA000000170474A0008BF0042F8D0B2F5001F7C
:103BB00028BF704701F000414FF0000070479EEAB7
:103BC000445F07D011EA5E0FBDE8104004BF00213A
:103BD00000207047BDE8104070B5FFF7BFFE00BF82
:103BE00040DFF63E83F00041104670470000E0FFE2
:103BF00043004FEAD30C4FEA3C0C43401FBF400741
:103C00000CF1605113F0FE4F70471CF0006F03D1B0
:103C100000200CF0004170470CF0004343EA507064
:103C200010B540EACC0000F000FA00BF000000929E
:103C30004FEA0001FFF7E0BE4FF000414FF00000F7
:103C4000A1F500217047000090EA010F48BF81F004
:103C5000004100F14682421A3CBF801A89184FEA9F
:103C6000D0524FF07F4C1CEA410FA2EBD15318BF4A
:103C70009CEA026F00F03B804FF0004C4CEA0020C1
:103C80004CEA012121FA03FC10EB0C0C1ED202F1CC
:103C9000FF325FEA1C2040EBC25038BF70471CF077
:103CA0007F0F4FEA400C18BFBCF17F4F38BF704701
:103CB000C3F12003994008BF20F00100BCF17F4F01
:103CC00038BF7047A0F1C04000F0F5B94FEA3C00A2
:103CD000000A40EBC25028BF1CF0FF0F4FEA400C17
:103CE000E6D018BFBCF17F4F38BF7047EAE79CEAC7
:103CF000026F05D010EA5C0F08BF00F0004070476B
:103D000010B500F092F900BF64FBBE3E4FF47F0C8B
:103D10001CEAD0121EBF1CEAD11392EA0C0F93EAE0
:103D20000C0F00F0858090EA010F48BF42F48072CA
:103D300040F4000C41F400002CF07F4120F07F4063
:103D400000B58142A2EB03020FF2081CACEB504E0F
:103D5000C0F100009EF800E04FEA4E0E00FB0EFCA2
:103D600038BF49004FEA2C1C02F5FA020CFB0EF397
:103D70004FEACE1E4FEA112C4FEAC1210EEB635ED3
:103D800042EB22420EFB0CFC4FEA1C5300FB0311DA
:103D90004FEA112C4FEA01310EFB0CFC4FEADC4CD0
:103DA00000FB0C11C14228BF09184CEB03335DF82E
:103DB00004EB10EB410143EBC250B2F57C0F38BF6E
:103DC000704729D512F0F00F1CBF00F1C04000F081
:103DD00000407047008182838485868788898B8C28
:103DE0008D8E8F919293959697999A9C9D9FA0A264
:103DF000A3A5A7A8AAACAEB0B2B3B5B7B9BCBEC0B4
:103E0000C2C5C7C9CCCED1D4D7D9DCDFE2E6E9EC54
:103E1000F0F3F7FAFE0000004FEA400C0CF1807C52
:103E2000BCF17E4F28BF7047B0F1C04000F043B9ED
:103E300090EA010F0CEAD11348BF42F48072624548
:103E400038BF634507D213F47F0F16D080EA010014
:103E500000F00040704710B500F0E7F8097EFC3E26
:103E600000F005B880EA010000F00040704780EAE9
:103E7000010000F0004000F01EB912F47F0F04BFF3
:103E80000248704780EA010000F015B90000C07FC9
:103E9000C10DD1F19E0206DB4FEA002343F000433F
:103EA00023FA02F07047004207D54FEA4001B1F112
:103EB000FE4F02D24FF00000704710B500F0B5F889
:103EC00049922480002070476FEA2000704700006C
:103ED00010F0004148BF4042B0FA80F310FA03F2FC
:103EE000C3F19D030BD051EAC35101EB12205306DD
:103EF00038BF704700F1010008BF20F00100704793
:103F0000B0FA80F310FA03F2C3F19D030AD0D90589
:103F100001EB1220530638BF704700F1010008BFC3
:103F200020F00100704700004FF47F0C1CEAD01213
:103F30001EBF1CEAD11392EA0C0F93EA0C0F00F09B
:103F4000478090EA010F48BF42F480724FF0004C66
:103F50004CEA00204CEA012102EB0302A0FB011312
:103F6000A2F50002002918BF43F001035B0028BF3F
:103F70004FEA330342EB22425FEA132C4CEBC25070
:103F80002EBFBCEB436FB2F57C0F70474FEA036C5A
:103F9000BCF1004F08BF20F00100B2F57C0F38BF24
:103FA00070470BD582F0FF0212F5803FC8BF704703
:103FB00000F1C040D8BF00F00040704700F5000C91
:103FC0005FEA4C0C48BF7047B0F1C04000F073B8D6
:103FD00090EA010F0CEAD11348BF42F480726245A7
:103FE00038BF634504D280EA010000F0004070470A
:103FF00010B500F01AF800BF8900013E00F007B8C4
:1040000000F009B85FEA410C5FEA1C6C08D080EA56
:10401000010000F050B85FEA400C5FEA1C6CF6D17A
:104020004FF00040A0F5800070470EF1020E2EF018
:10403000030E5EF8044B244204D44FEA4102B2F16D
:104040007F4F11D84FEA4003B3F17F4F0CD80ED108
:104050004FEAD07CB2F17F4F0CEB4C0C0CF1020C10
:1040600008BF4CEBD17C04E04FF0080C01E04FEAB4
:10407000D17C0CEB4C0324FA03F404F00704B4F1F4
:10408000040C06D20EEB840CBDE810404CF0010C81
:104090006047DFE80CF0070802024FF00040A0F58F
:1040A000800010BD0846420018BFD2F1807288BF60
:1040B00000F0004010BDFF2141EAD050C00570471C
:1040C00080F0004090EA010F7FF5C5AD81F000411E
:1040D00000F007B890EA010F48BF81F000413FF5BA
:1040E000BAAD421A04D882F00042A0EB020011449B
:1040F0004FEAD0524FF07F4C1CEA410FA2EBD15354
:1041000018BF9CEA026F4AD04FF0004C4CEA0020E6
:104110004CEA012121FA03FCB0EB0C0C0FD412F095
:10412000FE0F36D05FEA4C001DD5001240EBC250A6
:1041300038BF70471CF03F0F18BF70470BE0A2F16B
:1041400001025FEA1C2040EBC25038BF70471CF0F0
:104150007F0F18BF7047C3F12003994014BF401E62
:1041600020F00100704780084FEA122308BF704713
:10417000B0FA80FCA2EB0C02CCF1280C60FA0CF037
:1041800093EA122F04BF00EBC25070474FEAC3708E
:104190007047130A5FEADC1008BF7047F6E79CEA35
:1041A000026F04D010EA5C0F08BF0020704710B502
:1041B000FFF73BFF40DFF63E81F0004070470CF018
:1041C0000F03092B08BF082000F059800A2B0BD0E1
:1041D000082B18BF704708BF1CF0400F0AD04FF0E3
:1041E00000004FF0000170471CF0400F18BF4FF067
:1041F000004070471CF0100F08D020F0704300F012
:104200007F4242EAD3014FEA4370704700F06040BA
:1042100021F07F4242EA000201F07F4040EA7270E2
:1042200070474FF0FF0C4CF4E06C1CEA11531CBFBC
:104230009CEA030C9445C2BFDA4201EB025170477D
:10424000002B0DD0BCF1000F0FD0002A01F000416F
:10425000A4BF41F0E04141F07F614FF000007047A2
:1042600001F000414FF00000704750EA01334FF079
:104270009B0C18BF4CF0806C7FF4DEA870471CF4D8
:10428000801F11D01CF4E02F03D06FEACC3149001D
:1042900070474FF04050EFF3008222F0704242EA44
:1042A000000282F3008870474FF00000704708401A
:1042B00048404890FFF089000820FF4008C00920CE
:1042C0004A10287000004C106A205A504B906ED053
:1042D0005AA08AA08AA09AD0AA108C1000000410BC
:1042E00044204440448047007C0047E04410441090
:1042F00044100470000019202B20CD401140001004
:1043000012101220FFC024A0A510647000003FC04E
:10431000248024802480FFE02490249024903F90E7
:104320000010007000000000000003400380000047
:10433000000000000000000000000000000001205C
:10434000F120954095F09F50D550B350955099F07D
:10435000F1000100000008003FF0C0007FF04A803B
:104360007A8000104BA04A404A607B9000001050B9
:1043700020507F60D540554055F0FF405540556076
:1043800055504150000008008FE0405000A0FFC091
:10439000000000007FE000000000FFF000000400CB
:1043A00008003FF0C0002F102AA02A40FFA02A20BA
:1043B0002A102E100000084048404890FFF0890065
:1043C0000820FF4008C009204A10287000001E0085
:1043D0000000FFF01210222022C0FF0022C0222085
:1043E0003E100210000000207C4045804410441024
:1043F0005FF08400840085000480006000000000FD
:1044000000000000000000000000000000003F402D
:1044100000000000000000003000400030004000BC
:10442000000009000BC03D000BC03D00090018C092
:1044300024407FE0224031800000180024C01B008F
:104440000D803240018003801C4027401C800740C3
:1044500000401000600000000000000000000000AC
:10446000000000001F80204040200000402020402D
:104470001F8000000000090006001F8006000900E0
:104480000000040004003F8004000400000000104D
:1044900000600000000000000000040004000400B0
:1044A00004000400000000000040000000000000C4
:1044B0000000002001C006003800400000001F80FE
:1044C0002040204020401F800000000010403FC0DE
:1044D00000400000000018C0214022402440184045
:1044E000000010802040244024401B800000020077
:1044F0000D0011003FC0014000003C8024402440DA
:104500002440238000001F80244024403440038046
:1045100000003000200027C03800200000001B8071
:104520002440244024401B8000001C0022C0224064
:1045300022401F8000000000000008400000000032
:104540000000000000000460000000000000000007
:1045500004000A0011002080404009000900090001
:1045600009000900000000004040208011000A00FE
:1045700004001800200023402400180000001F80C1
:104580002040274029401F400000004007C039005C
:104590000F0001C0004020403FC0244024401B8049
:1045A00000001F802040204020403080000020403C
:1045B0003FC0204020401F80000020403FC02440DA
:1045C0002E4030C0000020403FC024402E0030006C
:1045D00000000F0010802040224033800200204065
:1045E0003FC0040004003FC02040204020403FC0A6
:1045F0002040204000000060202020203FC02000FC
:10460000200020403FC024400B0030C0204020400C
:104610003FC020400040004000C03FC03C0003C0FD
:104620003C003FC0000020403FC00C4023003FC082
:1046300020001F802040204020401F80000020409C
:104640003FC024402400180000001F80214021406A
:1046500020E01FA0000020403FC02440260019C0D9
:10466000004018C024402440224031800000300027
:1046700020403FC020403000000020003F8000402C
:1046800000403F80200020003E0001C007003800AD
:104690002000380007C03C0007C038000000204060
:1046A00039C0060039C0204000002000384007C053
:1046B000384020000000304021C02640384020C053
:1046C0000000000000007FE04020402000000000CB
:1046D00070000C00038000400000000040204020DB
:1046E0007FE00000000000002000400020000000EB
:1046F000000000100010001000100010001000005A
:1047000000004000000000000000000002800540A2
:10471000054003C0004020003FC004400440038027
:104720000000000003800440044006400000000038
:104730000380044024403FC0004000000380054047
:10474000054003400000000004401FC024402440F6
:104750002000000002E005500550065004202040D3
:104760003FC00440040003C000400000044027C0D4
:1047700000400000000000100010041027E00000BE
:10478000000020403FC00140070004C0044020401A
:1047900020403FC000400040000007C0040007C0A8
:1047A000040003C00000044007C00440040003C02C
:1047B0000040000003800440044003800000041017
:1047C00007F0045004400380000000000380044010
:1047D000045007F00010044007C002400400040029
:1047E0000000000006400540054004C00000000035
:1047F00004001F80044000400000040007800040C7
:10480000044007C000400400070004C00180060007
:104810000400060001C0070001C0060000000440BB
:1048200006C0010006C0044000000410071004E0A8
:104830000180060004000000044005C0064004405A
:1048400000000000000004007BE0402000000000A9
:1048500000000000FFF000000000000040207BE0AE
:104860000400000000004000800040002000200004
:1048700040000000000000000000000000000000F8
:1048800000000000000000001FCC000C0000000031
:1048900000000000080030006000080030006000E8
:1048A0000000022003FC1E20022003FC1E20022028
:1048B000000000000E1811043FFF10840C78000067
:1048C00000000F0010840F3800C0077818840078AB
:1048D000000000780F8410C411240E9800E40084B6
:1048E00000080800680070000000000000000000E0
:1048F000000000000000000007E01818200440023B
:104900000000000040022004181807E0000000002A
:1049100000000240024001800FF00180024002408E
:1049200000000080008000800FF800800080008080
:1049300000000001000D000E00000000000000005B
:104940000000000000800080008000800080008067
:1049500000800000000C000C0000000000000000BF
:10496000000000000006001800600180060018002A
:104970002000000007F0080810041004080807F0E1
:1049800000000000080408041FFC000400040000EC
:10499000000000000E0C10141024104411840E0CA2
:1049A000000000000C1810041104110412880C708F
:1049B0000000000000E00320042408241FFC002461
:1049C000000000001F98108411041104108810705A
:1049D0000000000007F00888110411041888007016
:1049E000000000001C00100010FC13001C00100050
:1049F000000000000E3811441084108411440E3859
:104A0000000000000700088C10441044088807F0DC
:104A10000000000000000000030C030C0000000078
:104A2000000000000000000101060000000000007E
:104A3000000000000080014002200410080810045B
:104A40000000022002200220022002200220022078
:104A5000000000001004080804100220014000803B
:104A6000000000000E001200100C106C10800F00EF
:104A7000000003E00C1813E4142417C4082807D01E
:104A800000000004003C03C41C40074000E4001C7C
:104A9000000410041FFC1104110411040E8800709E
:104AA000000003E00C1810041004100410081C107F
:104AB000000010041FFC100410041004080807F084
:104AC000000010041FFC1104110417C4100408187E
:104AD000000010041FFC1104110017C01000080092
:104AE000000003E00C181004100410441C7800406F
:104AF000000010041FFC10840080008010841FFC44
:104B000010040000100410041FFC10041004000026
:104B1000000000030001100110011FFE1000100032
:104B2000000010041FFC110403801464181C1004FE
:104B3000000010041FFC1004000400040004000C1A
:104B4000000010041FFC1F0000FC1F001FFC1004CD
:104B5000000010041FFC0C04030000E010181FFCF0
:104B6000100007F00808100410041004080807F0EB
:104B7000000010041FFC10841080108010800F00B3
:104B8000000007F0081810241024101C080A07F26F
:104B9000000010041FFC1104110011C011300E0C94
:104BA000000400000E1C11041084108410441C38F2
:104BB00000001800100010041FFC10041000180062
:104BC000000010001FF810040004000410041FF877
:104BD000100010001E0011E0001C007013801C006B
:104BE00010001FC0103C00E01F0000E0103C1FC080
:104BF00000001004180C163401C001C01634180C43
:104C0000100410001C00130400FC13041C0010000E
:104C100000000804101C1064108413041C041018F5
:104C200000000000000000007FFE40024002400241
:104C30000000000030000C0003800060001C000336
:104C4000000000004002400240027FFE0000000021
:104C50000000000000002000400040004000200054
:104C6000000000010001000100010001000100013D
:104C70000001000040004000200000000000000093
:104C8000000000000098012401440144014400FC9C
:104C9000000410001FFC008801040104008800705B
:104CA0000000000000700088010401040104008875
:104CB00000000000007000880104010411081FFCBE
:104CC0000004000000F8014401440144014400C80C
:104CD00000000000010401040FFC11041104110084
:104CE0001800000000D601290129012901C9010687
:104CF000000010041FFC008401000100010400FCFE
:104D0000000400000104190419FC00040004000060
:104D100000000000000300010101190119FE00005C
:104D2000000010041FFC0024004001B4010C010429
:104D300000000000100410041FFC00040004000028
:104D40000000010401FC0104010001FC0104010058
:104D500000FC010401FC008401000100010400FCCE
:104D60000004000000F8010401040104010400F83B
:104D70000000010101FF00850104010400880070AA
:104D8000000000000070008801040104010501FF1B
:104D900000010104010401FC008401040100018000
:104DA0000000000000CC012401240124012401980A
:104DB000000000000100010007F8010401040000E8
:104DC0000000010001F8000400040004010801FCD7
:104DD0000004010001800170000C001001600180DE
:104DE000010001F0010C003001C00030010C01F0A5
:104DF000010000000104018C00740170018C0104A9
:104E00000000010101810171000E001801600180A4
:104E1000010000000184010C013401440184010CF3
:104E20000000000000000000000001003EFC400205
:104E300040020000000000000000FFFF0000000032
:104E400000000000400240023EFC010000000000A3
:104E50000000000060008000800040004000200052
:104E60002000000000000000000000000000000022
:104E70000000000000000000000000000000000032
:104E80000000000000000000000000000000000022
:104E900000000000000F80380FFE380F803800003F
:104EA0000000000000000000000000000000000002
:104EB0000100000600000C00003800003100000670
:104EC00000000C000038000030000000000000006E
:104ED000000061800067F807F98000618000618050
:104EE0000061800061800067F807F9800061800040
:104EF000000000000000000001C0E003E0F0063008
:104F0000080418081FFFFE040E080787F00381E05D
:104F100000000000000001F000060C000404080678
:104F20000C7001F9C0000E00003BE000EC1807080F
:104F300008040C180003E00000000001E00007F086
:104F400003F818041C0804170807E1D003C0E000A8
:104F500023B0003C08002008000010000000000002
:104F6000000100003100003200001C0000000000C1
:104F70000000000000000000000000000000000031
:104F80000000000000000000000000000000000021
:104F900000007F0001FFC00780F00C001810000423
:104FA0002000020000000000002000021000040C9D
:104FB00000180780F001FFC0007F00000000000023
:104FC000000000000000000000000000000042009F
:104FD000006600006600003C0000180003FFC000EF
:104FE0001800003C0000660000660000420000005F
:104FF0000000080000080000080000080000080089
:1050000001FFC000080000080000080000080000C0
:105010000800000000000001000031000032000024
:105020001C00000000000000000000000000000064
:105030000000000000000000000008000008000060
:105040000800000800000800000800000800000830
:105050000000080000080000000000000000000040
:105060000000380000380000380000000000000098
:105070000000000000000000000000000000000030
:105080000000000600001C000070000180000E00FF
:1050900000380000C0000700001C000030000000C5
:1050A0000000000000007F8001FFE0038070060028
:1050B0001804000804000806001803807001FFE0CF
:1050C000007F8000000000000000000001000801D7
:1050D000000801000803FFF807FFF80000080000BF
:1050E0000800000800000000000000000001C038B7
:1050F00002C0580400980401180402180404180699
:105100001C1803F81801E0F800000000000000007F
:105110000001C0E003C0F004000804080804080807
:1051200006180803F41801E7F00001E00000000091
:105130000000000000000300000D000011000061ED
:105140000000810803010807FFF80FFFF8000108BD
:105150000001080000000000000000E007FCD0068D
:105160000808061008061008061008061838060F6A
:10517000F00607C0000000000000000000003F80B3
:1051800001FFE0038430020818041008041008042A
:105190001008071810030FF00007C00000000000FF
:1051A0000000000003C0000700000600000600F831
:1051B0000607F806180006E00007000006000000D9
:1051C000000000000001E1E003F7F00634100418CD
:1051D00008041808040C08040C0806161803F3F059
:1051E00001C1E000000000000000F80003FC3003F3
:1051F0000638040208040208040208040410030824
:10520000F001FFC0007F000000000000000000006F
:10521000000000000000000000007038007038003E
:1052200070380000000000000000000000000000D6
:105230000000000000000000000000000000301A24
:1052400000301C0000000000000000000000000012
:105250000000000000000000000800001400002210
:105260000000410000808001004002002004001086
:1052700008000800000000000000210000210000DC
:105280002100002100002100002100002100002158
:1052900000002100002100000000000000000000CC
:1052A0000800080400100200200100400080800077
:1052B000410000220000140000080000000000006F
:1052C0000003C00004C000040000080038080F38C4
:1052D0000808380810000C300007E00003C0000088
:1052E0000000000000003F8000FFE0038070020F1C
:1052F0001006708804C088048308047F8802C09068
:1053000003012000FE400000080000180001F80022
:105310003E0801C20007020007E20000FE00001F75
:10532000C80001F800003800000804000807FFF872
:1053300007FFF80408080408080408080408080619
:10534000180803F41801E7F00001E0000000000075
:1053500000003F8001FFE003807002001804000895
:105360000400080400080400100600200780C000A4
:10537000000004000807FFF807FFF8040008040015
:105380000804000804001802001003807001FFE008
:10539000007F8000000004000807FFF807FFF80402
:1053A0000808040808040808040808043E08040063
:1053B0000806001801006000000004000807FFF85C
:1053C00007FFF804080804080004080004080004A3
:1053D0003E00060000060000018000000000000002
:1053E00000003F8001FFE003807006001804000801
:1053F0000402080402080203F00783F00002000020
:10540000020004000807FFF807FFF8040808000876
:105410000000080000080000080004080807FFF862
:1054200007FFF80400080000000000000400080462
:10543000000804000807FFF807FFF804000804004C
:105440000804000800000000000000000000000642
:10545000000007000001040001040001040003072C
:10546000FFFE07FFFC04000004000004000004002D
:105470000807FFF807FFF8040C08001800003E00BA
:1054800004C7800503C80600F804003804001800AB
:10549000000804000807FFF807FFF80400080000F0
:1054A00008000008000008000008000008000018BC
:1054B00000006000000004000807FFF807800807EC
:1054C000FC00007FC00003F80007C00078000780E0
:1054D0000807FFF807FFF804000804000807FFF8B2
:1054E00007000803C00000E000003800001E0000B4
:1054F00007000001C00400F007FFF80400000000EE
:1055000000007F8001FFE00380700600180400089F
:1055100004000806001803003001FFE0007F80004F
:10552000000004000807FFF807FFF804040804045B
:1055300000040400040400040400060C0003F80046
:1055400001F000000000000000007F8001FFE00388
:1055500080700600880400880400C806003C030030
:105560003E01FFE6007F8400000004000807FFF80A
:1055700007FFF8040808040800040C00040F0004E6
:105580000BC00610F003F03801E00800000800002E
:105590000001E0F803F03006301004180804180881
:1055A000040C08040C080206180207F00781E0004A
:1055B0000000018000060000040000040000040058
:1055C0000807FFF807FFF8040008040000040000C3
:1055D00006000001800004000007FFE007FFF00460
:1055E0000018000008000008000008000008000083
:1055F0000804001007FFE00400000400000600009B
:1056000007E00007FE00041FE00001F8000038007A
:1056100001E0043E0007C000060000040000040092
:105620000007E00007FFC0041FF80007C007F800EC
:1056300007FF80043FF80007C004F80007000004DB
:10564000000000000004000806001807C07805F1FB
:10565000C8003E00001F800463E80780F8060018B9
:105660000400080000000400000600000780000796
:10567000E008047C08001FF80007F800180804E0A0
:1056800008070000060000040000000000010008F8
:105690000600380400F80403E8040F08047C080539
:1056A000F00807C0080700180400600000000000B0
:1056B000000000000000000000000000003FFFFEAE
:1056C0002000022000022000022000022000020030
:1056D000000000000000000008000007000000C0FB
:1056E000000038000006000001C000003000000E7D
:1056F0000000010000000000000000002000022067
:1057000000022000022000022000023FFFFE0000F5
:105710000000000000000000000000000000000089
:1057200000000008000010000030000020000030E1
:105730000000100000080000000000000000000051
:105740000100000100000100000100000100000153
:105750000000010000010000010000010000010044
:1057600000010000000000000000002000002000F8
:105770000010000010000000000000000000000009
:105780000000000000000000000000F00019F80018
:105790001B18002208002608002408002410003FDF
:1057A000F8001FF8000008000018000000040000C6
:1057B00007FFF80FFFF0001818001008002008007D
:1057C0002008003018001FF0000FC000000000008B
:1057D000000007C0001FF00018300020080020085B
:1057E000002008003C08001C1000006000000000C1
:1057F00000000000000007C0001FF0003818002063
:105800000800200800200804101007FFF80FFFF020
:105810000000100000000000000000000007C000B1
:105820001FF0001230002218002208002208003267
:1058300008001E10000E20000000000000002000E4
:1058400000200800200801FFF803FFF806200804E4
:1058500020080420080720000300000000000000CA
:105860000000000E000E6E001FF30031B10020B1E9
:105870000020B1003191001F13002E1E00200E00E9
:10588000300000000004000807FFF80FFFF80010C8
:1058900008002000002000002008003FF8001FF84A
:1058A00000000800000000000000000000200800C8
:1058B0002008002008063FF8063FF8000008000016
:1058C00008000008000000000000000000000000C8
:1058D0000000030000030020010020010020030657
:1058E0003FFE063FFC00000000000000000000003A
:1058F0000004000807FFF80FFFF80001880003000C
:10590000002FC00038F800203800200800000800F0
:10591000000000000000000004000804000804006B
:105920000807FFF80FFFF800000800000800000853
:10593000000000000000002008003FF8003FF800D1
:105940001008002000003FF8003FF8001008002079
:1059500000003FF8003FF8000008000000002008A9
:10596000003FF8003FF80010080010000020000081
:105970002008003FF8001FF80000080000000000A9
:10598000000007C0000FF0001830003008002008A9
:10599000002008003008001830000FF00007C00099
:1059A0000000000000002001003FFF003FFF00104A
:1059B00011002009002008002008003038001FF0E6
:1059C000000FC00000000000000007C0001FF00032
:1059D0003818002008002008002009001011001FBE
:1059E000FF003FFF00000100000000200800200829
:1059F000002008003FF8003FF800080800100800E9
:105A000020080020000030000030000000000000EE
:105A100000000000000C78001E1800330800230866
:105A20000021080021880021980030F00038600033
:105A3000000000000000200000200000200000FF07
:105A4000F003FFF8002008002008002008000030C4
:105A5000000000000000000000002000003FF000F7
:105A60007FF8000018000008000008002010003F28
:105A7000F8007FF00000100000000000000020008F
:105A8000003000003C00003F800023F00000780060
:105A90000070002380003C00003000002000002047
:105AA00000003C00003FE00023F80000E000270079
:105AB000003E00003FE00021F80001E0003E000051
:105AC0002000000000002008002008003838003EB8
:105AD000680027800003C8002CF800383800201820
