:020000040800F2
:10000000000002203DA8000801A4000803A4000885
:1000100005A4000807A4000809A4000800000000C7
:100020000000000000000000000000000BA4000819
:100030000DA40008000000000FA4000811A400088F
:100040008DA800088DA800088DA800088DA80008BC
:100050008DA800088DA800088DA800088DA80008AC
:100060008DA800088DA800088DA800088DA800089C
:100070008DA800088DA800088DA800088DA800088C
:100080008DA800088DA800088DA800088DA800087C
:100090008DA800088DA800088DA800088DA800086C
:1000A0008DA800088DA800088DA800088DA800085C
:1000B0008DA8000819A4000829A400088DA800082C
:1000C0008DA800088DA800088DA800088DA800083C
:1000D0008DA800088DA800088DA800088DA800082C
:1000E0008DA800088DA800088DA800088DA800081C
:1000F0008DA800088DA800088DA800088DA800080C
:100100008DA800088DA8000839A400088DA8000853
:100110008DA800088DA800088DA800088DA80008EB
:100120008DA800088DA800088DA800088DA80008DB
:100130008DA800088DA800088DA800088DA80008CB
:100140008DA800088DA800088DA800088DA80008BB
:100150008DA800088DA800088DA800088DA80008AB
:100160008DA800088DA800088DA800088DA800089B
:100170008DA800088DA800088DA8000800000000C8
:080180008DA800088DA80008FD
:1001C00010B5054C237833B9044B13B10448AFF391
:1001D00000800123237010BD9C0C00200000000053
:1001E000D414020808B5034B1BB103490348AFF30D
:1001F000008008BD00000000A00C0020D4140208FC
:1002000081F0004102E000BF83F0004330B54FEAC7
:1002100041044FEA430594EA050F08BF90EA020F34
:100220001FBF54EA000C55EA020C7FEA645C7FEAC7
:10023000655C00F0E2804FEA5454D4EB5555B8BFEA
:100240006D420CDD2C4480EA020281EA030382EA5B
:10025000000083EA010180EA020281EA0303362DED
:1002600088BF30BD11F0004F4FEA01314FF4801CC0
:100270004CEA113102D0404261EB410113F0004FD2
:100280004FEA03334CEA133302D0524263EB430389
:1002900094EA050F00F0A780A4F10104D5F1200E27
:1002A0000DDB02FA0EFC22FA05F2801841F1000182
:1002B00003FA0EF2801843FA05F359410EE0A5F156
:1002C00020050EF1200E012A03FA0EFC28BF4CF087
:1002D000020C43FA05F3C01851EBE37101F000453D
:1002E00007D54FF0000EDCF1000C7EEB00006EEB4A
:1002F0000101B1F5801F1BD3B1F5001F0CD34908D4
:100300005FEA30004FEA3C0C04F101044FEA44522A
:1003100012F5800F80F09A80BCF1004F08BF5FEAB1
:10032000500C50F1000041EB045141EA050130BD91
:100330005FEA4C0C404141EB0101013C28BFB1F5A3
:10034000801FE9D291F0000F04BF01460020B1FAEE
:1003500081F308BF2033A3F10B03B3F120020CDAC1
:100360000C3208DD02F1140CC2F10C0201FA0CF09F
:1003700021FA02F10CE002F11402D8BFC2F1200C04
:1003800001FA02F120FA0CFCDCBF41EA0C019040BA
:10039000E41AA2BF01EB0451294330BD6FEA040403
:1003A0001F3C1CDA0C340EDC04F11404C4F12002EE
:1003B00020FA04F001FA02F340EA030021FA04F300
:1003C00045EA030130BDC4F10C04C4F1200220FA57
:1003D00002F001FA04F340EA0300294630BD21FA95
:1003E00004F0294630BD94F0000F83F4801306BF5B
:1003F00081F480110134013D4EE77FEA645C18BF4F
:100400007FEA655C29D094EA050F08BF90EA020FE5
:1004100005D054EA000C04BF1946104630BD91EADD
:10042000030F1EBF0021002030BD5FEA545C05D1E0
:100430004000494128BF41F0004130BD14F580041F
:100440003CBF01F5801130BD01F0004545F0FE4193
:1004500041F470014FF0000030BD7FEA645C1ABFC8
:10046000194610467FEA655C1CBF0B46024650EAFF
:10047000013406BF52EA033591EA030F41F400212B
:1004800030BD00BF90F0000F04BF0021704730B5B1
:100490004FF4806404F132044FF000054FF0000186
:1004A00050E700BF90F0000F04BF0021704730B547
:1004B0004FF4806404F1320410F0004548BF40421C
:1004C0004FF000013EE700BF42004FEAE2014FEA71
:1004D00031014FEA02701FBF12F07F4393F07F4F4C
:1004E00081F06051704732F07F4208BF704793F04F
:1004F0007F4F04BF41F40021704730B54FF4607462
:1005000001F0004521F000411CE700BF50EA010264
:1005100008BF704730B54FF000050AE050EA01020D
:1005200008BF704730B511F0004502D5404261EB7D
:1005300041014FF4806404F132045FEA915C3FF4BE
:10054000D8AE4FF003025FEADC0C18BF03325FEA5B
:10055000DC0C18BF033202EBDC02C2F1200300FA0C
:1005600003FC20FA02F001FA03FE40EA0E0021FA31
:1005700002F11444BDE600BF70B54FF0FF0C4CF41F
:10058000E06C1CEA11541DBF1CEA135594EA0C0FD1
:1005900095EA0C0F00F0DEF82C4481EA030621EA0C
:1005A0004C5123EA4C5350EA013518BF52EA033547
:1005B00041F4801143F4801338D0A0FB02CE4FF0F9
:1005C0000005E1FB02E506F00042E0FB03E54FF029
:1005D0000006E1FB03569CF0000F18BF4EF0010E21
:1005E000A4F1FF04B6F5007F64F5407404D25FEA1D
:1005F0004E0E6D4146EB060642EAC62141EA5551D0
:100600004FEAC52040EA5E504FEACE2EB4F1FD0C11
:1006100088BFBCF5E06F1ED8BEF1004F08BF5FEA8F
:10062000500E50F1000041EB045170BD06F0004641
:1006300046EA010140EA020081EA0301B4EB5C04EE
:10064000C2BFD4EB0C0541EA045170BD41F48011E6
:100650004FF0000E013C00F3AB8014F1360FDEBF0B
:10066000002001F0004170BDC4F10004203C35DAE7
:100670000C341BDC04F11404C4F1200500FA05F36A
:1006800020FA04F001FA05F240EA020001F000420B
:1006900021F0004110EBD37021FA04F642EB060181
:1006A0005EEA430E08BF20EAD37070BDC4F10C04AB
:1006B000C4F1200500FA04F320FA05F001FA04F26F
:1006C00040EA020001F0004110EBD37041F100015B
:1006D0005EEA430E08BF20EAD37070BDC4F1200566
:1006E00000FA05F24EEA020E20FA04F301FA05F2CE
:1006F00043EA020321FA04F001F0004121FA04F276
:1007000020EA020000EBD3705EEA430E08BF20EA45
:10071000D37070BD94F0000F0FD101F0004640007F
:1007200041EB010111F4801F08BF013CF7D041EA01
:10073000060195F0000F18BF704703F00046520005
:1007400043EB030313F4801F08BF013DF7D043EAD6
:100750000603704794EA0C0F0CEA135518BF95EA8C
:100760000C0F0CD050EA410618BF52EA4306D1D113
:1007700081EA030101F000414FF0000070BD50EA32
:10078000410606BF1046194652EA430619D094EABC
:100790000C0F02D150EA013613D195EA0C0F05D1A6
:1007A00052EA03361CBF104619460AD181EA0301FA
:1007B00001F0004141F0FE4141F470014FF00000B2
:1007C00070BD41F0FE4141F4780170BD70B54FF04D
:1007D000FF0C4CF4E06C1CEA11541DBF1CEA1355CD
:1007E00094EA0C0F95EA0C0F00F0A7F8A4EB0504AF
:1007F00081EA030E52EA03354FEA013100F08880A6
:100800004FEA03334FF0805545EA131343EA12636E
:100810004FEA022245EA111545EA10654FEA002623
:100820000EF000419D4208BF964244F1FD0404F5DC
:10083000407402D25B084FEA3202B61A65EB030538
:100840005B084FEA32024FF480104FF4002CB6EBF5
:10085000020E75EB030E22BFB61A754640EA0C0075
:100860005B084FEA3202B6EB020E75EB030E22BFB5
:10087000B61A754640EA5C005B084FEA3202B6EBF6
:10088000020E75EB030E22BFB61A754640EA9C00B5
:100890005B084FEA3202B6EB020E75EB030E22BF85
:1008A000B61A754640EADC0055EA060E18D04FEA43
:1008B000051545EA16754FEA06164FEAC30343EAE3
:1008C00052734FEAC2025FEA1C1CC0D111F4801FB0
:1008D0000BD141EA00014FF000004FF0004CB6E7A9
:1008E00011F4801F04BF01430020B4F1FD0C88BF48
:1008F000BCF5E06F3FF6AFAEB5EB030C04BFB6EB53
:10090000020C5FEA500C50F1000041EB045170BD45
:100910000EF0004E4EEA113114EB5C04C2BFD4EB72
:100920000C0541EA045170BD41F480114FF0000EF6
:10093000013C90E645EA060E8DE60CEA135594EA72
:100940000C0F08BF95EA0C0F3FF43BAF94EA0C0F75
:100950000AD150EA01347FF434AF95EA0C0F7FF4EA
:1009600025AF104619462CE795EA0C0F06D152EA3E
:1009700003353FF4FDAE1046194622E750EA410622
:1009800018BF52EA43067FF4C5AE50EA41047FF433
:100990000DAF52EA43057FF4EBAE12E74FF0FF3C98
:1009A00006E000BF4FF0010C02E000BF4FF0010C69
:1009B0004DF804CD4FEA410C7FEA6C5C4FEA430CE2
:1009C00018BF7FEA6C5C1BD001B050EA410C0CBF31
:1009D00052EA430C91EA030F02BF90EA020F002093
:1009E000704710F1000F91EA030F58BF994208BFFA
:1009F00090422CBFD8176FEAE37040F001007047B7
:100A00004FEA410C7FEA6C5C02D150EA013C07D10D
:100A10004FEA430C7FEA6C5CD6D152EA033CD3D058
:100A20005DF8040B704700BF8446104662468C4652
:100A30001946634600E000BF01B5FFF7B7FF002885
:100A400048BF10F1000F01BD4DF808EDFFF7F4FFAE
:100A50000CBF012000205DF808FB00BF4DF808ED39
:100A6000FFF7EAFF34BF012000205DF808FB00BF5C
:100A70004DF808EDFFF7E0FF94BF012000205DF87E
:100A800008FB00BF4DF808EDFFF7CEFF94BF012033
:100A900000205DF808FB00BF4DF808EDFFF7C4FF2C
:100AA00034BF012000205DF808FB00BF4FEA41027F
:100AB00012F5001215D211D56FF47873B3EB6252B0
:100AC00012D94FEAC12343F0004343EA505311F0D7
:100AD000004F23FA02F018BF404270474FF0000069
:100AE000704750EA013005D111F0004008BF6FF0A7
:100AF000004070474FF00000704700BF4A0011D21D
:100B000012F5001211D20DD56FF47873B3EB625267
:100B10000ED44FEAC12343F0004343EA505323FA73
:100B200002F070474FF00000704750EA013002D1E8
:100B30004FF0FF3070474FF0000070474FEA41021E
:100B4000B2F1E04324BFB3F5001CDCF1FE5C0DD92B
:100B500001F0004C4FEAC0024CEA5070B2F1004F75
:100B600040EB830008BF20F00100704711F0804F78
:100B700021D113F13872BCBF01F00040704741F43D
:100B800080114FEA5252C2F11802C2F1200C10FA41
:100B90000CF320FA02F018BF40F001004FEAC12325
:100BA0004FEAD32303FA0CFC40EA0C0023FA02F3C9
:100BB0004FEA4303CCE77FEA625307D150EA01339F
:100BC0001EBF4FF0FE4040F44000704701F000406F
:100BD00040F0FE4040F40000704700BF53B94AB9EE
:100BE000002908BF00281CBF4FF0FF314FF0FF3035
:100BF00000F06EB9ADF1080C6DE904CE00F006F816
:100C0000DDF804E0DDE9022304B070472DE9F04788
:100C1000089D04468C46002B40F083808A4217468C
:100C200047D9B2FA82F242B1C2F1200024FA00F0B0
:100C30009140974040EA010C94404FEA1748230C3A
:100C4000BCFBF8F61FFA87FE08FB16C143EA014316
:100C500006FB0EF1994209D9FB1806F1FF3080F02E
:100C60001981994240F21681023E3B445B1AA4B2BC
:100C7000B3FBF8F008FB103344EA034400FB0EFE1C
:100C8000A64509D93C1900F1FF3380F00581A6453E
:100C900040F2028102383C4440EA0640A4EB0E04D4
:100CA00000261DB1D4400023C5E900433146BDE80C
:100CB000F08702B9FFDEB2FA82F2002A50D1CB1BD4
:100CC0004FEA174E1FFA87F80126B3FBFEFC210CF2
:100CD0000EFB1C3341EA034108FB0CF38B4207D99E
:100CE00079180CF1FF3002D28B4200F2E980844681
:100CF000C91AA3B2B1FBFEF00EFB101143EA014486
:100D000008FB00F8A04507D93C1900F1FF3302D2D7
:100D1000A04500F2D9801846A4EB080440EA0C4034
:100D2000BFE78B4209D9002D00F0B1800026C5E94C
:100D3000000130463146BDE8F087B3FA83F6002E55
:100D40004AD18B4202D3824200F2B880841A61EB0E
:100D5000030101208C46002DA8D0C5E9004CA5E771
:100D6000C2F1200320FA03F6974001FA02F04FEA9D
:100D7000174ED9403043030CB1FBFEF61FFA87F83B
:100D80000EFB161143EA014306FB08F1994204FAEF
:100D900002F409D9FB1806F1FF3C80F08D809942DE
:100DA00040F28A80023E3B445B1A81B2B3FBFEF004
:100DB0000EFB103341EA034100FB08F38B4207D9D5
:100DC000791800F1FF3C73D28B4271D90238394453
:100DD000CB1A40EA064678E7C6F1200C03FA06F47F
:100DE00022FA0CF31C4320FA0CF701FA06F34FEA3F
:100DF000144E21FA0CF11F433B0CB1FBFEF91FFA14
:100E000084F80EFB191143EA014109FB08FA8A45EF
:100E100002FA06F200FA06F308D9611809F1FF3068
:100E200048D28A4546D9A9F102092144A1EB0A0119
:100E3000BFB2B1FBFEF00EFB101147EA014700FB09
:100E400008F8B84507D9E71900F1FF312ED2B845A7
:100E50002CD90238274440EA0940A7EB0807A0FB39
:100E600002894F45C64649461AD317D05DB1B3EB48
:100E70000E0267EB010707FA0CFCF2404CEA020293
:100E8000F740C5E9002700263146BDE8F0872E4629
:100E900028460BE70646E9E61846FDE64345E5D257
:100EA000B8EB020E69EB04010138DFE70846D2E730
:100EB00060468DE78146B9E7664675E730464AE702
:100EC000ACF1020C394413E702383C4424E700BF7C
:100ED000704700BF844641EA000313F003036DD15D
:100EE000403A41D351F8043B40F8043B51F8043BED
:100EF00040F8043B51F8043B40F8043B51F8043BF4
:100F000040F8043B51F8043B40F8043B51F8043BE3
:100F100040F8043B51F8043B40F8043B51F8043BD3
:100F200040F8043B51F8043B40F8043B51F8043BC3
:100F300040F8043B51F8043B40F8043B51F8043BB3
:100F400040F8043B51F8043B40F8043B51F8043BA3
:100F500040F8043B51F8043B40F8043B51F8043B93
:100F600040F8043B403ABDD2303211D351F8043B33
:100F700040F8043B51F8043B40F8043B51F8043B73
:100F800040F8043B51F8043B40F8043B103AEDD2E2
:100F90000C3205D351F8043B40F8043B043AF9D233
:100FA000043208D0D2071CBF11F8013B00F8013B06
:100FB00001D30B8803806046704700BF082A13D313
:100FC0008B078DD010F003038AD0C3F10403D21A2B
:100FD000DB071CBF11F8013B00F8013B80D331F85F
:100FE000023B20F8023B7BE7043AD9D3013A11F8DF
:100FF000013B00F8013BF9D20B7803704B7843704A
:101000008B7883706046704700000000000000008D
:1010100000000000000000000000000000000000D0
:1010200000000000000000000000000000000000C0
:1010300000000000000000000000000000000000B0
:1010400090F800F06DE9024520F007016FF0000C08
:1010500010F0070491F820F040F049804FF00004B0
:101060006FF00700D1E9002391F840F000F108008B
:1010700082FA4CF2A4FA8CF283FA4CF3A2FA8CF3C3
:101080004BBBD1E9022382FA4CF200F10800A4FA2A
:101090008CF283FA4CF3A2FA8CF3E3B9D1E904237E
:1010A00082FA4CF200F10800A4FA8CF283FA4CF3B5
:1010B000A2FA8CF37BB9D1E9062301F1200182FA6F
:1010C0004CF200F10800A4FA8CF283FA4CF3A2FA75
:1010D0008CF3002BC6D0002A04BF04301A4612BA83
:1010E000B2FA82F2FDE8024500EBD2007047D1E986
:1010F000002304F00305C4F100004FEAC50514F015
:10110000040F91F840F00CFA05F562EA05021CBFE5
:1011100063EA050362464FF00004A9E700000000FF
:1011200001F0FF01102A2BDB10F0070F08D010F898
:10113000013B013A8B422DD010F0070F42B3F6D19C
:10114000F0B441EA012141EA014122F007047FF0B5
:1011500000070023F0E80256083C85EA010586EA0C
:10116000010685FA47F5A3FA87F586FA47F6A5FA48
:1011700087F68EB9EED1F0BC01F0FF0102F0070254
:1011800032B110F8013B013A83EA010313B1F8D1FF
:101190000020704701387047002D06BF35460338E0
:1011A000073815F0010F07D1013015F4807F02BF19
:1011B000013015F4C03F0130F0BC0138704700BF6A
:1011C0004FEA410C7FEA6C5C02D150EA013C0AD143
:1011D0004FEA430C7FEA6C5C02D152EA033C02D135
:1011E0004FF0000070474FF00100704710B5044603
:1011F0000E4B18784FF47A73B3FBF0F30C4A106877
:10120000B0FBF3F000F0ACF868B90F2C01D9012065
:101210000AE0002221464FF0FF3000F05FF8054B56
:101220001C60002000E0012010BD00BFA0020020D3
:10123000E8020020A402002008B50B4B1A6842F413
:1012400000721A601A6842F480621A601A6842F4E6
:1012500080721A60032000F02FF80020FFF7C6FF0D
:1012600009F0B2F8002008BD003C0240034A1168B2
:10127000034B1B780B441360704700BF0410002021
:10128000A0020020014B1868704700BF0410002026
:1012900038B50446FFF7F6FF0546B4F1FF3F02D02C
:1012A000044B1B781C44FFF7EDFF401BA042FAD310
:1012B00038BD00BFA0020020074AD36823F4E063D2
:1012C0001B041B0C000200F4E060034343F0BF6307
:1012D00043F40033D360704700ED00E030B4174BA7
:1012E000DB68C3F30223C3F10704042C28BF0424E2
:1012F0001D1D062D18D9033B4FF0FF3505FA04F4E8
:1013000021EA0401994005FA03F322EA0303194391
:1013100000280BDB0901C9B200F1604000F5614013
:1013200080F8001330BC70470023E5E700F00F00A1
:101330000901C9B2024B1954F4E700BF00ED00E007
:1013400014ED00E0002807DB00F01F024009012334
:101350009340024A42F82030704700BF00E100E0AD
:101360000138B0F1807F0AD2064B5860064AF0215E
:1013700082F823100020986007221A60704701202D
:10138000704700BF10E000E000ED00E058B110B57C
:10139000044643791BB101236371002010BD037122
:1013A00008F0B8FCF7E701207047000000230F2B7E
:1013B00000F2D980F0B583B039E0072200E00022C6
:1013C000B2403A430234684E46F82420674A146813
:1013D000EA4324EA05064F6817F4803F01D045EA46
:1013E0000406624C2660646802EA04064F6817F43B
:1013F000003F01D045EA04065C4C6660A46802EA3E
:1014000004064F6817F4801F01D045EA0406574CC4
:10141000A660E46822404E6816F4001F01D045EA39
:101420000402524CE26001330F2B00F29A80012239
:101430009A400C6804EA020532EA0404F3D14C68CD
:10144000661E012E03D9112C01D0122C12D18668F0
:101450005F000324BC4026EA0406CC68BC40344349
:101460008460466826EA02064C68C4F300129A407B
:1014700032434260C7685E000324B440E24327EA77
:1014800004078C68B4403C43C4604C68022C01D013
:10149000122C13D1DF08083750F827E003F00704B7
:1014A0004FEA840C0F2404FA0CF42EEA040E0C69A3
:1014B00004FA0CF444EA0E0440F82740046814408F
:1014C0004A6802F00302B240224302604A6812F006
:1014D000805FA8D000220192254A546C44F48044D5
:1014E0005464526C02F480420192019A9C08A61C3A
:1014F0001D4A52F8267003F0030296000F22B240F4
:1015000027EA02071B4A90423FF459AF02F5806276
:1015100090421AD002F58062904218D002F58062A3
:10152000904216D002F58062904214D002F580629B
:10153000904212D002F58062904210D002F5806293
:1015400090423FF43AAF08223AE7012238E70222FC
:1015500036E7032234E7042232E7052230E7062289
:101560002EE703B0F0BD704700380140003C014059
:1015700000380240000002400369194201D00120F6
:101580007047002070470AB181617047090481618A
:101590007047436931EA030301D081617047090450
:1015A00081617047002800F0D98170B582B004468F
:1015B000036813F0010F3BD0A64B9B6803F00C03AC
:1015C000042B2CD0A34B9B6803F00C03082B21D0D9
:1015D0006368B3F5803F4FD0B3F5A02F52D09D4B39
:1015E0001A6822F480321A601A6822F480221A6083
:1015F0006368002B50D0FFF745FE0546954B1B68EE
:1016000013F4003F14D1FFF73DFE401B6428F5D9C9
:101610000320AAE18F4B5B6813F4800FD8D08D4B69
:101620001B6813F4003F03D06368002B00F098811F
:10163000236813F0020F54D0864B9B6813F00C0FF5
:101640003ED0844B9B6803F00C03082B33D0E36837
:10165000002B67D0804B01221A60FFF713FE05466E
:101660007C4B1B6813F0020F53D1FFF70BFE401B9E
:101670000228F5D9032078E1764A136843F48033D1
:101680001360B5E7734B1A6842F480221A601A6837
:1016900042F480321A60ABE7FFF7F4FD05466D4B6C
:1016A0001B6813F4003FC3D0FFF7ECFD401B642818
:1016B000F5D9032059E1674B5B6813F4800FC6D15D
:1016C000644B1B6813F0020F03D0E368012B40F05A
:1016D0004981604A136823F0F803216943EAC10392
:1016E0001360236813F0080F40D0636963B35B4B4A
:1016F00001221A60FFF7C6FD0546564B5B6F13F0DB
:10170000020F33D1FFF7BEFD401B0228F5D903209D
:101710002BE1504A136823F0F803216943EAC1031F
:101720001360DEE74C4B00221A60FFF7ABFD054665
:10173000484B1B6813F0020FD3D0FFF7A3FD401BEB
:101740000228F5D9032010E1444B00221A60FFF76C
:1017500099FD05463F4B5B6F13F0020F06D0FFF774
:1017600091FD401B0228F5D90320FEE0236813F009
:10177000040F78D0374B1B6C13F0805F0DD1002322
:101780000193344B1A6C42F080521A641B6C03F0C4
:1017900080530193019B012500E00025304B1B681D
:1017A00013F4807F21D0A368012B32D0052B36D0D3
:1017B000284B1A6F22F001021A671A6F22F00402F6
:1017C0001A67A368002B34D0FFF75CFD0646214B57
:1017D0001B6F13F0020F45D1FFF754FD801B41F240
:1017E00088339842F3D90320BFE01D4A136843F4BD
:1017F00080731360FFF746FD0646194B1B6813F410
:10180000807FD0D1FFF73EFD801B0228F5D9032051
:10181000ABE0104A136F43F001031367D1E70D4BA0
:101820001A6F42F004021A671A6F42F001021A6737
:10183000C7E7FFF727FD0646064B1B6F13F0020FA5
:1018400010D0FFF71FFD801B41F288339842F3D977
:1018500003208AE00038024000004742800E4742E1
:1018600000700040E5B9A369002B7DD0464A92681C
:1018700002F00C02082A51D0022B17D0434B002251
:101880001A60FFF7FFFC04463F4B1B6813F0007F14
:1018900042D0FFF7F7FC001B0228F5D9032064E0D3
:1018A000394A136C23F080531364DCE7374B002272
:1018B0001A60FFF7E7FC0546334B1B6813F0007F07
:1018C00006D0FFF7DFFC401B0228F5D903204CE0CF
:1018D000E369226A1343626A43EA8213A26A5208E6
:1018E000013A43EA0243E26A43EA0263264A53604A
:1018F000264B01221A60FFF7C5FC0446224B1B68E9
:1019000013F0007F06D1FFF7BDFC001B0228F5D9BC
:1019100003202AE0002028E0002026E0012B26D02A
:10192000194B5B6803F48001E269914221D103F015
:101930003F02216A8A421ED1616A47F6C0721A408C
:101940008A421AD103F44032A16A8A4217D103F0C5
:101950007063E26A934214D1002006E001207047D0
:10196000012002E0012000E0002002B070BD012053
:10197000FBE70120F9E70120F7E70120F5E7012067
:10198000F3E70120F1E700BF003802406000474262
:10199000F8B52F4B9B6803F00C03042B53D0082B96
:1019A00053D12B4B5A6802F03F025B6813F4800F4F
:1019B00028D0274B5B68C3F3881358010021C01A55
:1019C00061F100018E0146EA906687013C1A66EBE0
:1019D0000105E90041EA5471E000C01841F100013D
:1019E0004B0243EAD0534402204619460023FFF736
:1019F000F5F8174B5B68C3F3014301335B00B0FBA1
:101A0000F3F023E0124B5B68C3F388135C010025FD
:101A1000E41A65F10005AE0146EA9466A701381B99
:101A200066EB0501CC0044EA5074C500E81844F1A7
:101A300000018B0243EA905384022046194600239A
:101A4000FFF7CCF8D5E7034800E00348F8BD00BF36
:101A50000038024000127A000024F400002800F050
:101A60009B8070B50D4604464F4B1B6803F00F0377
:101A70008B4208D2CBB24C4A1370136803F00F03A9
:101A80008B4240F08B80236813F0020F17D013F0C5
:101A9000040F04D0454A936843F4E05393602368ED
:101AA00013F0080F04D0414A936843F460439360F5
:101AB0003E4A936823F0F003A1680B4393602368C8
:101AC00013F0010F32D06368012B21D09A1E012A36
:101AD00025D9364A126812F0020F61D033498A685C
:101AE00022F0030213438B60FFF7CCFB06462F4B1B
:101AF0009B6803F00C036268B3EB820F16D0FFF70C
:101B0000C1FB801B41F288339842F0D9032042E0A8
:101B1000264A126812F4003FE0D101203BE0234A3C
:101B2000126812F0007FD9D1012034E01E4B1B68EF
:101B300003F00F03AB4207D9EAB21B4B1A701B68C4
:101B400003F00F03AB422DD1236813F0040F06D02E
:101B5000164A936823F4E053E1680B4393602368CB
:101B600013F0080F07D0114A936823F460432169EA
:101B700043EAC1039360FFF70BFF0C4B9B68C3F371
:101B800003130B4AD35CD8400A4B18600A4B186801
:101B9000FFF72CFB002070BD012070470120FAE701
:101BA0000120F8E70120F6E7003C0240003802403F
:101BB000EC880208E8020020A4020020014B18680B
:101BC000704700BFE802002008B5FFF7F7FF044B9D
:101BD0009B68C3F38223034AD35CD84008BD00BF8F
:101BE00000380240FC88020808B5FFF7E7FF044B05
:101BF0009B68C3F34233034AD35CD84008BD00BF9F
:101C000000380240FC88020828B370B50E4615461D
:101C1000044690F84930CBB1214651F8080B00F04A
:101C200097FCA2683146206800F0C0FC236BA268D4
:101C30002946606800F0DAFC2268A16852F8213079
:101C400043F0010342F82130002070BD80F8483095
:101C500008F00AF9E0E70120704730B4036A056A2A
:101C600025F001050562846924F0F00444EA0214B9
:101C700023F00A030B438461036230BC704730B425
:101C8000056A25F0100505628469036A24F470442E
:101C900044EA023423F0A00343EA0113846103629F
:101CA00030BC7047836823F070030B4343F0070395
:101CB000836070470268D36843F00103D360026811
:101CC000936803F00703062B03D0136843F0010366
:101CD000136000207047704770477047704710B519
:101CE000044603681A6912F0020F11D0DA6812F084
:101CF000020F0DD06FF002021A610123037703680F
:101D00009B6913F0030F70D0FFF7E6FF00232377E2
:101D100023681A6912F0040F12D0DA6812F0040F67
:101D20000ED06FF004021A610223237723689B69A7
:101D300013F4407F5FD02046FFF7CEFF00232377C8
:101D400023681A6912F0080F12D0DA6812F0080F2F
:101D50000ED06FF008021A61042323772368DB6931
:101D600013F0030F4ED02046FFF7B6FF0023237772
:101D700023681A6912F0100F12D0DA6812F0100FEF
:101D80000ED06FF010021A61082323772368DB69F5
:101D900013F4407F3DD02046FFF79EFF00232377BA
:101DA00023681A6912F0010F03D0DA6812F0010FEC
:101DB00036D123681A6912F0800F03D0DA6812F066
:101DC000800F34D123681A6912F0400F03D0DA680B
:101DD00012F0400F32D123681A6912F0200F03D09D
:101DE000DA6812F0200F30D110BDFFF774FF2046E3
:101DF000FFF773FF8AE72046FFF76DFF2046FFF7E6
:101E00006CFF9BE72046FFF766FF2046FFF765FF64
:101E1000ACE72046FFF75FFF2046FFF75EFFBDE718
:101E20006FF001021A61204608F084FCC1E76FF0F0
:101E300080021A61204600F04CF9C3E76FF04002BF
:101E40001A612046FFF74AFFC5E76FF020021A61CA
:101E5000204600F03DF9C7E70368304A904212D0AF
:101E6000B0F1804F0FD0A2F57C4290420BD002F52A
:101E70008062904207D002F58062904203D002F562
:101E80007842904203D123F070034A681343234AF7
:101E900090422AD0B0F1804F27D0A2F57C429042E8
:101EA00023D002F5806290421FD002F580629042FA
:101EB0001BD002F57842904217D002F57052904242
:101EC00013D002F5806290420FD002F580629042FA
:101ED0000BD0A2F59832904207D002F58062904272
:101EE00003D002F58062904203D123F44073CA68A4
:101EF000134323F080034A69134303608B68C36272
:101F00000B688362054B984203D003F580639842C7
:101F100001D10B6903630123436170470000014055
:101F2000B0B110B5044690F83D3063B1022384F897
:101F30003D30214651F8040BFFF78EFF012384F852
:101F40003D30002010BD80F83C3008F08DFBEDE7FF
:101F50000120704710B4846824F47F4442EA0322CD
:101F60000A43224382605DF8044B704790F83C308E
:101F7000012B66D010B50446012380F83C300223C3
:101F800080F83D300268936823F47F4323F07703A1
:101F900093600B68602B40D022D8402B47D00BD9E0
:101FA000502B0ED1CA6849680068FFF756FE5021D1
:101FB0002068FFF777FE04E0202B0CD008D9302BE7
:101FC00009D0012384F83D30002084F83C0010BD86
:101FD0000BB1102BF5D119462068FFF763FEF0E72F
:101FE000702B0ED0B3F5005FEBD1CB684A688968DF
:101FF0000068FFF7AFFF2268936843F48043936063
:10200000DFE7CB684A6889680068FFF7A3FF2268AA
:10201000936843F077039360D3E7CA684968006820
:10202000FFF72DFE60212068FFF73CFEC9E7CA6874
:1020300049680068FFF711FE40212068FFF732FE73
:10204000BFE702207047000090F83C30012B3BD0E6
:1020500030B4012380F83C30022380F83D3003681F
:102060005C689D6824F070040A6822435A60036823
:10207000164A93421AD0B3F1804F17D0A2F57C4292
:10208000934213D002F5806293420FD002F5806232
:1020900093420BD002F57842934207D002F570527A
:1020A000934203D0A2F59432934204D125F08005E7
:1020B0004A6815439D60012380F83D30002380F875
:1020C0003C30184630BC7047022070470000014089
:1020D0007047704770B504460268136923F4405393
:1020E000C1680B4313618368026913434269134358
:1020F000C2691A430168CB6823F4164323F00C032A
:102100001343CB600268536923F4407381690B4326
:102110005361C369B3F5004F36D00368654A9342F3
:1021200000F09A8002F58062934200F09580FFF7FC
:102130004BFD0026051846EB06012D1846EB010164
:10214000CB0043EA5573EA001546194663689A00C6
:102150009B0F281846EB0101FEF740FD564DA5FBED
:1021600000325109642303FB11031B013233A5FB29
:1021700003235B0903F0F00202EB011203F00F03EB
:10218000216813448B6093E003684A4A934233D03A
:1021900002F5806293422FD0FFF716FD0026051846
:1021A00046EB06012D1846EB0101CB0043EA5573BF
:1021B000EA001546194662683346921846EB030357
:1021C000281846EB0101FEF709FD3B4DA5FB003247
:1021D0005109642303FB1103DB003233A5FB032306
:1021E0005B095A0002F4F87202EB011203F00703D4
:1021F000216813448B605BE0FFF7F6FC00260518AE
:1022000046EB06012D1846EB0101CB0043EA55735E
:10221000EA001546194662683346921846EB0303F6
:10222000281846EB0101FEF7D9FC234DA5FB00322F
:102230005109642303FB1103DB003233A5FB0323A5
:102240005B095A0002F4F87202EB011203F0070373
:10225000216813448B602BE0FFF7C6FC00260518AD
:1022600046EB06012D1846EB0101CB0043EA5573FE
:10227000EA001546194663689A009B0F281846EB3A
:102280000101FEF7ABFC0C4DA5FB003251096423A4
:1022900003FB11031B013233A5FB03235B0903F08E
:1022A000F00202EB011203F00F03216813448B606C
:1022B00070BD00BF001001401F85EB512DE9F843B0
:1022C00005460F4616469946DDF820802C6824689E
:1022D00037EA04030CBF01240024B4421FD1B8F133
:1022E000FF3FF3D0B8F1000F05D0FEF7CBFFA0EB16
:1022F00009004045EAD92A68D36823F4D073D36033
:102300002A68536923F001035361202385F839308B
:1023100085F83A30002385F83830032000E00020AB
:10232000BDE8F88358B310B5044690F839300BB3C4
:10233000242384F839302268D36823F40053D3600F
:102340002046FFF7C7FE2268136923F49043136108
:102350002268536923F02A0353612268D36843F447
:102360000053D3600020E063202384F8393084F8E0
:102370003A3010BD80F8383008F026FAD8E701204E
:1023800070472DE9F04383B01E4690F83930DBB238
:10239000202B59D104460D469046002958D0002ADA
:1023A00058D090F83830012B56D0012380F83830BF
:1023B0004FF00009C0F83C90212380F83930FEF737
:1023C00061FF0746A4F82480A4F8268084F838909A
:1023D00017E000963B46002280212046FFF76EFF63
:1023E00000283BD12B882268C3F30803536023697C
:1023F0000BB9023505E0013503E015F8012B236820
:102400005A60E38C9BB29BB1E28C92B2013A92B2D9
:10241000E284A368B3F5805FDBD000963B460022E0
:1024200080212046FFF74AFF0028E6D003200CE079
:1024300000963B46002240212046FFF73FFF78B937
:10244000202384F8393000E0022003B0BDE8F08397
:102450000120FAE70120F8E70220F6E70320F4E77D
:102460000320F2E72DE9F04383B01E4690F83A309E
:10247000DBB2202B5DD104460D46904600295CD08E
:10248000002A5CD090F83830012B5AD0012380F814
:1024900038304FF00009C0F83C90222380F83A30E1
:1024A000FEF7F0FE0746A4F82C80A4F82E8084F8EE
:1024B00038901DE000963B46002220212046FFF781
:1024C000FDFE00283FD1236933B923685B68C3F35D
:1024D000080325F8023B0BE023685B68DBB225F8B4
:1024E000013B05E023685B6803F07F0305F8013BCF
:1024F000E38D9BB2C3B1E28D92B2013A92B2E28512
:10250000A368B3F5805FD5D000963B46002220211A
:102510002046FFF7D3FEC0B92369002BE2D1236820
:102520005B6805F8013BE3E7202384F83A3000209C
:1025300000E0022003B0BDE8F0830120FAE70120AB
:10254000F8E70220F6E70320F4E70320F2E70000B3
:1025500070B40C6850F82430134E1E404A688D68E1
:1025600042EA0503CA6813430A6913434A691343DD
:102570008A691343CA6913430A6A13434A6A1343B5
:102580008A6A1343CA6A1343CA6B13430A6B134321
:102590003343082D04D040F82430002070BC70472D
:1025A00043F04003F7E700BF8000F0FF30B4013292
:1025B00050F8224004F040440B684D6843EA05138C
:1025C0008D6843EA0523CD6843EA05430D69013D63
:1025D00043EA05534D69023D43EA056389690B43AC
:1025E000234340F82230002030BC7047B3F5804FC1
:1025F00005D06FF0704340F822300020704730B4AF
:1026000050F82230094C1C400B684D6843EA051312
:102610008D6843EA0523CD6843EA054389690B4386
:10262000234340F82230002030BC70470000F0CF38
:1026300008B54FF4C831054808F074FE802008F052
:1026400079FE034809F00CF908BD00BF081000200E
:1026500098580208836801390D2914D8DFE801F081
:10266000090B0D0F13131311071616070707002088
:1026700070475868704798687047D86870471869FD
:102680007047986970474FF0FF30704701207047DE
:10269000012901D10148704700207047B05F02084E
:1026A000826800230B804B80D368013B8B801369C9
:1026B000013BCB80704700000939072911D8DFE8BA
:1026C00001F004120608100A0C0E0848704708486A
:1026D00070470848704708487047084870470848DE
:1026E0007047002070470748704700BFF127000877
:1026F000A32700088B2700083B2700082D27000888
:1027000009270008D927000800B583B00023ADF8D9
:1027100005308DF807308DF8041000926A460421C8
:10272000806900F097FC03B05DF804FB08B5002257
:102730000621806900F08EFC08BD08B50022052145
:10274000806900F087FC08BD00B583B0009101925C
:102750006A460321806900F07DFC03B05DF804FB4C
:1027600038B50446836823B1A068B0FA80F0400908
:1027700038BD1C2008F08EFE0546A06023699B68CA
:1027800098470AF005F9A861EEE738B50546FFF766
:10279000E7FF044600220121A86900F05BFC20430A
:1027A00038BD70B582B005460C461646002300932E
:1027B0000193FFF7D5FFAB6863B15A6902B92246AE
:1027C0005A615C609E60009401966A460721A86980
:1027D00000F040FC02B070BD70B505460C461646D0
:1027E000FFF7BEFFAB6813B1DC601E615C6170BDBA
:1027F00030B583B004460D4600230193FFF7B0FFC8
:10280000A36833B11D60019501AA0221A06900F0FF
:1028100021FC03B030BD08B5084611469AB289B212
:1028200080B201F0ABF908BD2DE9F84F8146924620
:102830001F460A9C0B9DDDF830B093F800806618A7
:10284000404B1B681B7C13F0030303D0022B3BD0CF
:10285000BDE8F88FBBF1000F02D11DE0013DF7D0BC
:10286000C4F103035A00C2F10601C0230B4103EA7D
:102870000803D34031465BF82330524601364846C0
:10288000FFF7C9FF0134042CE8D197F80180013724
:102890000024E3E7013DDBD0C4F103025200C2F1A2
:1028A0000601C0230B4103EA08033146D3405246D8
:1028B00001364846FFF7AFFF0134042CEAD197F800
:1028C000018001370024E5E7BBF1000F0AD125E0C4
:1028D0005BF82330524631464846FFF79CFF0CE038
:1028E000013DB5D0C4F103035A00C2F10601C02373
:1028F0000B4103EA0803D340EAD101360134042C2A
:10290000EED197F8018001370024E9E752463146BD
:102910004846FFF780FF0CE0013D99D0C4F1030366
:102920005A00C2F10601C0230B4103EA0803D34059
:10293000ECD101360134042CEED197F80180013737
:102940000024E9E70C0000202DE9F84F814692466B
:102950001F460A9C0B9DDDF830B093F80080661886
:10296000404B1B681B7C13F0030303D0022B3BD0AE
:10297000BDE8F88FBBF1000F02D11DE0013DF7D09B
:10298000C4F101039A00C2F10401F0230B4103EAF0
:102990000803D34031465BF823305246013648469F
:1029A000FFF739FF0134022CE8D197F80180013795
:1029B0000024E3E7013DDBD0C4F101029200C2F143
:1029C0000401F0230B4103EA08033146D340524689
:1029D00001364846FFF71FFF0134022CEAD197F871
:1029E000018001370024E5E7BBF1000F0AD125E0A3
:1029F0005BF82330524631464846FFF70CFF0CE0A7
:102A0000013DB5D0C4F101039A00C2F10401F023E5
:102A10000B4103EA0803D340EAD101360134022C0A
:102A2000EED197F8018001370024E9E7524631469C
:102A30004846FFF7F0FE0CE0013D99D0C4F10103D8
:102A40009A00C2F10401F0230B4103EA0803D340CA
:102A5000ECD101360134022CEED197F80180013718
:102A60000024E9E70C0000202DE9F84307460D4655
:102A700090461E46089CDDF82490254B1B681B7C65
:102A800013F0030303D0022B1FD0BDE8F883B9F184
:102A9000000F0BD116E016F8013B59F823304246DF
:102AA00029463846FFF7B7FE013C0135002CF2DC21
:102AB000EBE716F8013B424629463846FFF7ABFEE6
:102AC000013C0135002CF4DCDFE7B9F1000F0AD13D
:102AD00017E059F82330424629463846FFF79BFE57
:102AE000013C01350136002CCFDD3378002BF7D0C7
:102AF000EFE7424629463846FFF78DFE013C013597
:102B00000136002CC1DD3378002BF7D0F1E700BF90
:102B10000C0000202DE9F04180460C4617461E4669
:102B2000069D002D09DD56F8043B3A4621464046F5
:102B3000FFF771FE013D0134F3E7BDE8F08108B510
:102B4000084691B280B200F02FFE08BDF8B50446E9
:102B50000D461646FFF7F3FF074623699B68984723
:102B600087EA0003324629462046FFF754FEF8BDA7
:102B70002DE9F84F804691461F460A9C0B9D0C9B01
:102B8000D3F800B0D3F804A00E192C4B1B681B7CA3
:102B900003F00303032B4ED8DFE803F00C2D212DA7
:102BA00053464A464046FFF736FE0134082C0AD009
:102BB000013D40D0314601363A78802323411A4204
:102BC000EED15B46EDE701370024F1E753464A4674
:102BD00031464046FFF71FFE06E0013D2BD03A7814
:102BE000802323411A42F1D101360134082CF4D15B
:102BF00001370024F1E703699B68984782460EE09D
:102C00004A4631464046FFF79AFF8AEA00034A46A1
:102C100031464046FFF7FFFD06E0013D0BD03A7814
:102C2000802323411A42EBD101360134082CF4D120
:102C300001370024F1E7BDE8F88F00BF0C00002049
:102C400000B583B0084611461A46074B1B68DB6B7C
:102C50001B880093BDF8103092B289B280B204F0A4
:102C60007DFC03B05DF804FB0C00002000B583B0D0
:102C700000930B46FFF7E4FF03B05DF804FB00B5DB
:102C800083B00092FFF7DCFF03B05DF804FB0000A7
:102C900038B508461D46049C91B280B200F0BCFCD9
:102CA000074B1B68074A12891A80002C06DD35F88D
:102CB000022B054B1B681A80013CF6E738BD00BFAC
:102CC000A802002030B80120AC0200202DE9F04F0E
:102CD00087B005460E4617469846DDF84090DDF869
:102CE00048A0139C119B013B1F2B21D8DFE803F068
:102CF000233C20552020206C2020202020202083D1
:102D0000202020202020202020202020202020954E
:102D1000159B02930195009623460BEB070205993C
:102D20004046FFF725FF54440BF1010BCB45EFDB89
:102D300007B0BDE8F08F4FF0000B05914346804689
:102D4000149E1D46F2E7159B0293019500962346BB
:102D50000BEB070205994046FFF766FD54440BF163
:102D6000010BCB45EFDBE3E74FF0000B059143464A
:102D70008046149E1D46F4E7159B0293019500962C
:102D800023460BEB070205994046FFF7DDFD54444F
:102D90000BF1010BCB45EFDBCAE74FF0000B0591C0
:102DA00043468046149E1D46F4E70196009523464F
:102DB0000BEB070205994046FFF756FE54440BF112
:102DC000010BCB45F1DBB3E74FF0000B0591434618
:102DD0008046159E1D46F4E7CDF8008023460BEB98
:102DE000070231462846FFF753FF54440BF1010B0D
:102DF000CB45F1DB9CE74FF0000BF9E7CDF8008005
:102E000023460BEB070231462846FFF783FE544466
:102E10000BF1010BCB45F1DB8AE74FF0000BF9E733
:102E20007047704710B50A4B9B8845F21052934289
:102E300003D041F66312934205D1064C636800202B
:102E40009847A08910BDD02005F0AAF9FAE700BF85
:102E500030B80120B402002010B50A4B9B8845F21F
:102E60001052934203D041F66312934205D1064CAF
:102E7000636800209847E08A10BD902005F090F923
:102E8000FAE700BF30B80120B402002010B582B0CC
:102E900000231A466C496D4808F096FE6C4C628817
:102EA0002188002009F021FE62882188002009F095
:102EB00034FEA38845F21052934224D041F66312A7
:102EC00093424DD045F21032934276D046F604023A
:102ED000934272D05E4B9B79002B40F09E805C4CFD
:102EE00040F63F7300939B2322880021084608F098
:102EF00085FE40F65F730093BC23628800210120A9
:102F000008F07CFE15E0A379ABB940F2DF13009323
:102F100000234FF4F0721946184608F06FFE40F295
:102F20001F33009300234FF448721946012008F024
:102F300065FE02B010BD40F2DF13009300234FF492
:102F4000F0721946184608F059FE40F21F330093FC
:102F500000234FF448721946012008F04FFEE8E7BD
:102F60003B4B9B79A3B940F21F33009300234FF4EE
:102F700048721946184608F041FE40F2DF130093EC
:102F800000234FF4F0721946012008F037FED0E715
:102F900040F21F33009300234FF44872194618463D
:102FA00008F02CFE40F2DF13009300234FF4F07280
:102FB0001946012008F022FEBBE7254B9B79A3B9F7
:102FC000E223009340F65B734FF4A07200210846A1
:102FD00008F014FEC423009340F6E4634FF4F0724B
:102FE0000021012008F00AFEA3E7062008F000FEF9
:102FF000E223009340F65B734FF4A0720021084671
:1030000008F0FCFDC423009340F6E4634FF4F07233
:103010000021012008F0F2FD8BE7062008F0E8FD12
:1030200040F63F7300939B23F0220021084608F0EE
:10303000E5FD40F65F730093BC234FF4A0720021BE
:10304000012008F0DBFD74E7F0140208F46A0208BE
:1030500030B80120012901D1002070474FF0FF3026
:1030600070470000014B1868704700BF08A001209E
:10307000044B1B681844034B1B68C31A002BFADC73
:10308000704700BF08A00120704710B5044600F04B
:1030900065F8230A5B00DBB2603B03F0FE0000F042
:1030A00045F900F0B3F8E0B200F040F900F0AEF8F6
:1030B00000F054F8A12000F039F900F0A7F8002042
:1030C00000F076F9044600F075F8204610BD38B5DA
:1030D00004460D4600F042F8230A5B00DBB2603B79
:1030E00003F0FE0000F022F900F090F8E0B200F0EA
:1030F0001DF900F08BF8284600F018F900F086F86A
:1031000000F058F80A20FEF7C3F838BDF8B50746B6
:103110000E4615460024AC420AD2E10026FA01F11F
:103120003819C9B280B2FFF7D2FF0134E4B2F2E736
:10313000F8BDF8B507460E4600200446B4420CD24E
:103140000502B81980B2001B80B2013880B2FFF7C7
:103150009CFF28440134E4B2F0E7F8BD10B5144CEC
:10316000236823F440232360236843F480232360EF
:1031700001224FF400712046FEF705FA01224FF4B8
:1031800080712046FEF7FFF9042005F0B1FD002212
:103190004FF400712046FEF7F6F9042005F0A8FD73
:1031A00000224FF480712046FEF7EDF910BD00BFFC
:1031B0000004024010B5144C236823F4402323601C
:1031C000236843F48023236000224FF4807120465B
:1031D000FEF7D9F900224FF400712046FEF7D3F92B
:1031E000042005F085FD01224FF480712046FEF792
:1031F000CAF901224FF400712046FEF7C4F90420F9
:1032000005F076FD10BD00BF0004024038B51A4C31
:10321000236823F4402323602368236001224FF4B2
:1032200000712046FEF7AFF9012005F061FD012293
:103230004FF480712046FEF7A6F9012005F058FDF5
:1032400000244FF400710C48FEF796F9054638B19A
:103250000134E4B2FA2CF4D9FFF7ACFF012508E001
:1032600000224FF4807100F1804000F50130FEF73C
:103270008AF9284638BD00BF0004024010B5144C3E
:1032800000224FF480712046FEF77DF9236823F475
:1032900040232360236843F48023236000224FF4FB
:1032A00000712046FEF76FF9022005F021FD012292
:1032B0004FF480712046FEF766F9022005F018FDF4
:1032C00000224FF480712046FEF75DF910BD00BF6B
:1032D0000004024010B5144C00224FF480712046C7
:1032E000FEF751F9236823F440232360236843F455
:1032F0008023236001224FF400712046FEF743F93A
:10330000022005F0F5FC01224FF480712046FEF703
:103310003AF9022005F0ECFC00224FF480712046BF
:10332000FEF731F910BD00BF0004024070B504463D
:103330001E48036823F440230360036843F480239A
:10334000036000224FF48071FEF71DF900251FE095
:1033500001224FF400711548FEF715F96400E4B23C
:10336000022005F0C5FC114E01224FF48071304659
:10337000FEF709F9022005F0BBFC00224FF4807132
:103380003046FEF700F9022005F0B2FC0135EDB23F
:10339000072D09D814F0800FDAD100224FF4007104
:1033A0000248FEF7F0F8D9E770BD00BF0004024004
:1033B000F8B507461A4B1A6822F440221A601A68B8
:1033C0001A600024254604E0012005F091FC013537
:1033D000EDB2072D1BD8124E00224FF480713046FB
:1033E000FEF7D1F8022005F083FC01224FF4807132
:1033F0003046FEF7C8F86400E4B24FF4007130467E
:10340000FEF7BAF80028DFD00134E4B2DCE71FB9D8
:10341000FFF760FF2046F8BDFFF730FFFAE700BF77
:103420000004024008B5012300224FF40071024855
:1034300007F02EFA08BD00BF14B80120F8B53A4EC7
:10344000326800235362394D2B70394C214639487C
:1034500007F054FC33685B6A2A7803EB024307EEFB
:10346000903AF8EE677A344BC3ED007A4FF400726D
:103470003249204607F0D6FC012300E00133B3F5C2
:10348000007F0DDA2D4A02EB830292ED007ADFED28
:103490002C7AB4EEE77AF1EE10FAEFDD294A1360E8
:1034A000284D2B68254C04EBC302D2ED007A67EE61
:1034B000A77A03EB430204EB820292ED007A27EE37
:1034C000077A77EE877A04EB031292ED007A27EE03
:1034D000077A77EE877A03EB830304EB830393ED9C
:1034E000007A27EE077A77EE877A17EE900AFCF7D4
:1034F000EBFF41EC100B1DF0C3FE57EC106B2B687B
:1035000004EB83042068FCF7DFFF02460B463046DD
:103510003946FDF75BF900220B4BFDF72DF8FDF75F
:103520000DFB0A4B1860F8BD94C101202CB8012096
:1035300014A0012014B8012028B8012014B00120E3
:103540000000C84210A00120000059400CA001203A
:1035500082B0ADF80600BDF806309BB2ADF806307B
:10356000BDF80620014B1A8002B070477E00006C47
:1035700082B0ADF80600BDF806309BB2ADF806305B
:10358000BDF80620014B5A8002B070477E00006CE7
:1035900082B0044B5B88ADF80630BDF8060080B2FF
:1035A00002B070477E00006C82B0ADF80600ADF846
:1035B0000410BDF80620034B1A80BDF804205A8081
:1035C00002B070477E00006C00B583B0ADF8060015
:1035D000BDF8060080B2FFF7BBFF0120FDF758FEE3
:1035E000FFF7D6FF03B05DF804FB0000024B1A8919
:1035F000024B1A80704700BF30B801207E00006C7B
:1036000043095B0103F4FC6303EBC0239BB203EBB0
:10361000D02080B27047000070B504460D46614B63
:103620009B8849F2413293421FD045F210329342B7
:103630001BD046F6040293422BD041F6631293420C
:1036400046D045F21052934200F08680554B9B794C
:10365000012B00F09F80534E21467089FFF7A4FF95
:103660002946B089FFF7A0FF12E04E4E7089FFF7A0
:103670006FFF200AFFF77CFFE0B2FFF779FFB08908
:10368000FFF766FF280AFFF773FFE8B2FFF770FF46
:1036900070BD444B9B79012B13D0424E7089FFF7CC
:1036A00057FF200AFFF764FFE0B2FFF761FFB08920
:1036B000FFF74EFF280AFFF75BFFE8B2FFF758FF5E
:1036C000E6E7384B1B881C1AA4B2013CA4B2E4E71D
:1036D000344B9B7953BB334A13881C1AA4B2013C68
:1036E000A4B25089FFF734FF0020FFF741FF00200C
:1036F000FFF73EFF200AFFF73BFFE0B2FFF738FF7E
:10370000284CA089FFF724FF280AFFF731FFE8B211
:10371000FFF72EFF60880138C0F30F20FFF728FF66
:1037200060880138C0B2FFF723FFB1E71D4E7089F2
:10373000FFF70EFF200AFFF71BFFE0B2FFF718FFAD
:1037400030880138C0F30F20FFF712FF30880138AE
:10375000C0B2FFF70DFFD3E7124E7089FFF7F8FEF6
:10376000200AFFF705FF7089013080B2FFF7F0FEF5
:10377000E0B2FFF7FDFEB089FFF7EAFE280AFFF787
:10378000F7FEB089013080B2FFF7E2FEE8B2FFF742
:10379000EFFE7DE7034B1B881C1AA4B2013CA4B2C8
:1037A00059E700BF30B8012000B583B00023ADF861
:1037B0000630ADF80430ADF80230504B1B88834220
:1037C00040F298804D4B5B888B4201D8002092E0FC
:1037D000FFF722FF494B9B8849F24132934213D0B5
:1037E00046F6040293420FD045F2103293420BD0BA
:1037F00041F66312934207D045F2105293425AD0D9
:103800002220FFF7A5FE02E02E20FFF7A1FEFFF722
:10381000BFFEADF80600394B9A8841F663139A4211
:103820004ED0FFF7B5FEADF80600344B9B8849F249
:103830004132934207D045F21032934203D045F211
:10384000105293420FD1FFF7A3FEADF80200BDF86E
:103850000630DBB2ADF80430BDF804309BB21B0279
:103860009BB2ADF80430254B9B8849F22532934238
:103870002AD044F23552934226D044F23152934238
:1038800022D04BF2055293421ED04CF20552934285
:103890001AD049F2413293421AD045F21032934283
:1038A00016D045F21052934212D0BDF8060080B2F5
:1038B000FFF7A6FE1FE04FF43850FFF749FEA6E7DA
:1038C000BDF8060080B216E0BDF8060080B212E036
:1038D000BDF8060000F47840BDF80430C3F385233A
:1038E00040EA431000B2BDF80230C3F3C4231843CA
:1038F00080B200E0002003B05DF804FB30B8012086
:1039000010B5964B9B79012B29D02BB9934B9A88F4
:1039100041F663139A422CD0904B9B8849F2413276
:1039200093423ED046F6040293423AD045F210321A
:10393000934236D045F21052934232D041F6631290
:1039400093422ED0072800F2F480DFE810F0050142
:10395000F400FB00F200FD00FF00010103017F4ABB
:10396000928846F604018A42CFD041F663118A421A
:10397000CBD00728D0D8DFE800F0120406080A0CE4
:103980000E100720C8E70420C6E70520C4E7012081
:10399000C2E70020C0E70320BEE70220BCE7062004
:1039A000BAE70138062805D8DFE800F06A06606249
:1039B00064666800002400E0402445F210529342FF
:1039C00060D0362045F21032934209D045F21052B1
:1039D000934205D041F66312934201D044F00804AB
:1039E00046F60402934250D02146FFF7DDFD5B4BC3
:1039F0009B8841F6631293420AD014F0200F47D0FF
:103A0000564A11885288914202D25448028041801D
:103A100045F21052934244D0504C6089FFF798FD14
:103A20000020FFF7A5FD0020FFF7A2FD2088013848
:103A3000C0F30F20FFF79CFD20880138C0B2FFF7CC
:103A400097FDA089FFF784FD0020FFF791FD00207E
:103A5000FFF78EFD60880138C0F30F20FFF788FD67
:103A600060880138C0B2FFF783FD10BDC024A4E711
:103A70002024A2E76024A0E7A0249EE7E0249CE79E
:103A800080249AE74FF458509CE744F00204ABE7D7
:103A9000324A118852889142BAD930480280418016
:103AA000B6E72E4C6089FFF753FD0020FFF760FD5D
:103AB0006089013080B2FFF74BFD0020FFF758FD11
:103AC0006089023080B2FFF743FD20880138C0F3DF
:103AD0000F20FFF74DFD6089033080B2FFF738FDFE
:103AE00020880138C0B2FFF743FDA089FFF730FD01
:103AF0000020FFF73DFDA089013080B2FFF728FDCF
:103B00000020FFF735FDA089023080B2FFF720FDCD
:103B100060880138C0F30F20FFF72AFDA089033029
:103B200080B2FFF715FD60880138C0B2FFF720FDB5
:103B30009BE7002100E0102141F480510320FFF7B2
:103B400033FD92E72021F7E73821F5E72821F3E755
:103B50001821F1E70821EFE73021EDE730B8012027
:103B600008B5FFF759FDFFF741FD024B1A88024BDC
:103B70005A8008BD2EB801207E00006C2DE9F0416E
:103B800004460D461646584B9B8849F241329342F3
:103B90001ED045F2103293421AD045F21052934291
:103BA00030D041F6631293424AD046F60402934263
:103BB00074D04D4B9B79012B00F08F804A4F2146EA
:103BC0007889FFF7F1FC2946B889FFF7EDFC12E090
:103BD000454F7889FFF7BCFC200AFFF7C9FCE0B22B
:103BE000FFF7C6FCB889FFF7B3FC280AFFF7C0FC53
:103BF000E8B2FFF7BDFC3C4B1A893C4B1A805E8053
:103C0000BDE8F081384F7889FFF7A2FC200AFFF762
:103C1000AFFC7889013080B2FFF79AFCE0B2FFF781
:103C2000A7FCB889FFF794FC280AFFF7A1FCB88924
:103C3000013080B2FFF78CFCE8B2FFF799FCDAE7BD
:103C4000294B9B792BB9284B1888041BA4B2013C43
:103C5000A4B2254F7889FFF77BFC4FEA1428404631
:103C6000FFF786FCE4B22046FFF782FC4046FFF7F0
:103C70007FFC2046FFF77CFCB889FFF769FC2C0A23
:103C80002046FFF775FCEDB22846FFF771FC204691
:103C9000FFF76EFC2846FFF76BFCACE7124B9B79F5
:103CA000012B13D0104F7889FFF752FC200AFFF741
:103CB0005FFCE0B2FFF75CFCB889FFF749FC280A1B
:103CC000FFF756FCE8B2FFF753FC94E7064B1B885E
:103CD0001C1AA4B2013CA4B2E4E7034B1B881C1AD3
:103CE000A4B2013CA4B269E730B801207E00006CA8
:103CF00010B50446BE20FFF72BFC0520FFF738FC6B
:103D00002046FCF7CFFB0CA3D3E90023FCF734FCDF
:103D1000FCF7F4FE80B2FFF72BFC0120FFF728FC34
:103D2000FF20FFF725FC0020FFF722FC0020FFF713
:103D30001FFC10BDAFF300806666666666660440D1
:103D400008B500285AD1604B00229A71F0221A80DF
:103D50004FF4A0725A809B8849F24132934217D0A7
:103D600046F60402934213D045F2103293420FD02C
:103D700045F21052934222D041F6631293422FD063
:103D8000514B22221A8120225A8121229A8170E0ED
:103D90004D4A2C2111812A2151812B21918146F6F6
:103DA0000402934203D045F21032934261D1464B54
:103DB0004FF4A0721A804FF4F0725A8059E0424BCF
:103DC0004FF430521A814FF428525A814FF42C523A
:103DD0009A814FF4F0721A804FF448725A8048E08A
:103DE000394B2C221A812B225A812A229A814FF494
:103DF000F0721A804FF448725A803AE0324B012236
:103E00009A714FF4A0721A80F0225A809B8849F26E
:103E10004132934217D045F21032934213D046F606
:103E20000402934229D045F2105293422DD041F61C
:103E3000631293423AD0244A2221118121215181D7
:103E40002021918106E0204A2C2111812A215181D3
:103E50002B21918146F60402934203D045F21032A1
:103E6000934206D1184B4FF4F0721A804FF4A072AF
:103E70005A800020FFF744FD08BD134A2C21118110
:103E80002B2151812A219181E4E70F4A4FF43051CF
:103E900011814FF4285151814FF42C5191814FF4ED
:103EA000487111804FF4F0715180D3E7064A2C21FC
:103EB00011812A2151812B2191814FF44871118068
:103EC0004FF4F0715180C5E730B801202DE9F04181
:103ED0000546174B1C885A8804FB02F49A8846F65C
:103EE00004039A4203D1124B9B79012B07D0002186
:103EF0000846FFF791FBFFF779FB002314E00C4E17
:103F00000020B0712A2777814FF02B08A6F80C808B
:103F10000146FFF781FB0123B371A6F80A80B78140
:103F2000E9E7044A55800133A342FAD3BDE8F081A2
:103F300030B801207E00006C10B582B000240194DE
:103F400001212046FFF730FB3220FDF7A1F9204682
:103F5000FFF73AFB624B9880A0F1FF039BB2B3F5E9
:103F60007F4F33D2B0F5134F30D05D4B998849F273
:103F70004133994200F0B88045F21033994200F085
:103F8000B38045F21053994200F0AE8041F66313BE
:103F9000994200F0A98046F60403994204D04CF2FD
:103FA0000553994240F0B1804E4B9A6922F00F02BE
:103FB0009A619A6922F470629A619A6942F00A02DF
:103FC0009A619A6942F440629A619EE0D320FFF7B9
:103FD000BFFAFFF7DDFA424CA080FFF7D9FAA080C4
:103FE000FFF7D6FA0002A080FFF7D2FAA3881843A1
:103FF00080B2A08049F241339842B6D0BF20FFF78B
:10400000A7FAFFF7C5FAA080FFF7C2FAA080FFF772
:10401000BFFAA080FFF7BCFA0002A080FFF7B8FA51
:10402000A388184380B2A08046F6040398429CD02F
:10403000D420FFF78DFAFFF7ABFAA080FFF7A8FABC
:10404000A080FFF7A5FA0002A080FFF7A1FAA388DD
:10405000184380B2A08045F21033984285D04FF4C7
:104060005A40FFF775FAFFF793FAA0804FF45B40D0
:10407000FFF76EFAFFF78CFA0002A0804FF45C4065
:10408000FFF766FAFFF784FAA388184380B2A0808E
:10409000B0F5004F20D0124B9A8845F210539A4247
:1040A0003FF463AFA120FFF753FAFFF771FA0C4C0E
:1040B000A080FFF76DFA0002A080FFF769FAA388DD
:1040C00003439BB2A38045F2617293427FF44DAFEC
:1040D00041F66312A28048E745F21052A280DAE767
:1040E00030B80120040100A08C4B9A6922F00F0225
:1040F0009A619A6922F470629A619A6942F00302A5
:104100009A619A6942F400729A61854815F074F9CF
:10411000844B9B8849F24132934200F0058146F678
:104120000402934200F0268245F21032934200F0DE
:10413000CD8245F21052934201F0418249F225327C
:10414000934202F0BA8149F22832934202F08C8203
:1041500049F22032934202F07B8349F2313293429A
:1041600002F0238445F20842934202F0018541F2B5
:104170000552934202F09F854BF20552934202F0A2
:10418000AE864CF20552934202F0AC8744F23152B3
:10419000934203F0778044F23552934203F02D812D
:1041A00041F66312934240F0D681E220FFF7D0F946
:1041B0001D20FFF7DDF90220FFF7DAF90420FFF7F1
:1041C000D7F90120FDF764F8E020FFF7C1F90120DD
:1041D000FFF7CEF90A20FDF75BF8E020FFF7B8F90A
:1041E0000320FFF7C5F90C20FDF752F80120FFF777
:1041F000AFF90A20FDF74CF8E620FFF7A9F92F20C8
:10420000FFF7B6F9FF20FFF7B3F9FF20FFF7B0F98A
:10421000B020FFF79DF92020FFF7AAF90020FFF753
:10422000A7F90320FFF7A4F940F21F30FFF7A0F928
:104230000120FFF79DF940F2DF10FFF799F9002008
:10424000FFF796F9B420FFF783F90420FFF790F900
:1042500040F21F40FFF78CF90020FFF789F92E206C
:10426000FFF786F91D20FFF783F90020FFF780F99B
:104270000020FFF77DF90020FFF77AF9B620FFF75D
:1042800067F90220FFF774F94FF40370FFF770F934
:104290000020FFF76DF91720FFF76AF91520FFF7E7
:1042A00067F90020FFF764F90020FFF761F9F020BB
:1042B000FFF74EF90320FFF75BF92920FFF748F9D4
:1042C000D020FFF745F90020FFF752F9BE20FFF795
:1042D0003FF90520FFF74CF9FE20FFF749F90120CF
:1042E000FFF746F90020FFF743F90020FFF740F9F8
:1042F0000020FFF73DF9B820FFF72AF90320FFF768
:1043000037F90120FFF734F9BA20FFF721F901202E
:10431000FFF72EF96420FFF7EBFC1CE1040100A07D
:10432000286B020830B80120CF20FFF711F90020D8
:10433000FFF71EF9019B01330193C120FFF718F924
:104340003020FFF715F9ED20FFF702F96420FFF7A1
:104350000FF90320FFF70CF91220FFF709F981206C
:10436000FFF706F9E820FFF7F3F88520FFF700F9DB
:104370001020FFF7FDF87A20FFF7FAF8CB20FFF7BF
:10438000E7F83920FFF7F4F82C20FFF7F1F80020C8
:10439000FFF7EEF83420FFF7EBF80220FFF7E8F81C
:1043A000F720FFF7D5F82020FFF7E2F8EA20FFF723
:1043B000CFF80020FFF7DCF80020FFF7D9F8C02085
:1043C000FFF7C6F81B20FFF7D3F8C120FFF7C0F8AE
:1043D0000120FFF7CDF8C520FFF7BAF83020FFF72E
:1043E000C7F83020FFF7C4F8C720FFF7B1F8B720AF
:1043F000FFF7BEF83620FFF7ABF84820FFF7B8F814
:104400003A20FFF7A5F85520FFF7B2F8B120FFF7E3
:104410009FF80020FFF7ACF81A20FFF7A9F8B620A4
:10442000FFF796F80A20FFF7A3F8A220FFF7A0F8FD
:10443000F220FFF78DF80020FFF79AF82620FFF70B
:1044400087F80120FFF794F8E020FFF781F80F20AC
:10445000FFF78EF82A20FFF78BF82820FFF788F85F
:104460000820FFF785F80E20FFF782F80820FFF7F5
:104470007FF85420FFF77CF8A920FFF779F8432054
:10448000FFF776F80A20FFF773F80F20FFF770F8B0
:104490000020FFF76DF80020FFF76AF80020FFF713
:1044A00067F80020FFF764F8E120FFF751F80020DB
:1044B000FFF75EF81520FFF75BF81720FFF758F8B5
:1044C0000720FFF755F81120FFF752F80620FFF7F5
:1044D0004FF82B20FFF74CF85620FFF749F83C2007
:1044E000FFF746F80520FFF743F81020FFF740F8E4
:1044F0000F20FFF73DF83F20FFF73AF83F20FFF786
:1045000037F80F20FFF734F82B20FFF721F80020B1
:10451000FFF72EF80020FFF72BF80120FFF728F80F
:104520003F20FFF725F82A20FFF712F80020FFF7B9
:104530001FF80020FFF71CF80020FFF719F8EF2004
:10454000FFF716F81120FFF703F87820FCF7A0FE1C
:104550002920FEF7FDFF0120FFF7F2FB01224FF4B7
:1045600000415948FDF70FF84FF6FF70FFF7AEFC1A
:1045700002B010BD1120FEF7EBFF1420FCF788FEFF
:10458000D020FEF7E5FF0720FEF7F2FF4220FEF7FE
:10459000EFFF1D20FEF7ECFFD120FEF7D9FF002032
:1045A000FEF7E6FF1A20FEF7E3FF0920FEF7E0FF23
:1045B000D220FEF7CDFF0120FEF7DAFF2220FEF722
:1045C000D7FFC020FEF7C4FF1020FEF7D1FF3B202D
:1045D000FEF7CEFF0020FEF7CBFF0220FEF7C8FF5C
:1045E0001120FEF7C5FFC520FEF7B2FF0320FEF73E
:1045F000BFFFC820FEF7ACFF0020FEF7B9FF252063
:10460000FEF7B6FF2120FEF7B3FF0520FEF7B0FF4F
:104610000020FEF7ADFF0A20FEF7AAFF6520FEF797
:10462000A7FF2520FEF7A4FF7720FEF7A1FF50206B
:10463000FEF79EFF0F20FEF79BFF0020FEF798FF7E
:10464000F820FEF785FF0120FEF792FFFE20FEF71F
:104650007FFF0020FEF78CFF0220FEF789FF20205D
:10466000FEF776FF3620FEF773FF0820FEF780FF87
:104670003A20FEF76DFF5520FEF77AFF2B20FEF75C
:1046800067FF0020FEF774FF0020FEF771FF012096
:10469000FEF76EFF3F20FEF76BFF2A20FEF758FF64
:1046A0000020FEF765FF0020FEF762FF0120FEF705
:1046B0005FFFDF20FEF75CFF7820FCF7E9FD292093
:1046C000FEF746FF47E700BF00040240ED20FEF77B
:1046D0003FFF0120FEF74CFFFE20FEF749FFEE20D2
:1046E000FEF736FFDE20FEF743FF2120FEF740FFF6
:1046F000F120FEF72DFF0120FEF73AFFDF20FEF745
:1047000027FF1020FEF734FFC420FEF721FF8F2083
:10471000FEF72EFFC620FEF71BFF0020FEF728FF46
:10472000E220FEF725FFE220FEF722FFE220FEF75F
:104730001FFFBF20FEF70CFFAA20FEF719FFB020D5
:10474000FEF706FF0D20FEF713FF0020FEF710FF17
:104750000D20FEF70DFF0020FEF70AFF1120FEF7E7
:1047600007FF0020FEF704FF1920FEF701FF0020DD
:10477000FEF7FEFE2120FEF7FBFE0020FEF7F8FE0E
:104780002D20FEF7F5FE0020FEF7F2FE3D20FEF79D
:10479000EFFE0020FEF7ECFE5D20FEF7E9FE0020B4
:1047A000FEF7E6FE5D20FEF7E3FE0020FEF7E0FEEA
:1047B000B120FEF7CDFE8020FEF7DAFE0020FEF7E6
:1047C000D7FE8B20FEF7D4FE0020FEF7D1FE962008
:1047D000FEF7CEFE0020FEF7CBFEB220FEF7B8FEBD
:1047E0000020FEF7C5FE0020FEF7C2FE0220FEF705
:1047F000BFFE0020FEF7BCFE0320FEF7B9FE00203E
:10480000FEF7B6FEB320FEF7A3FE0020FEF7B0FED3
:104810000020FEF7ADFE0020FEF7AAFE0020FEF706
:10482000A7FE0020FEF7A4FE0020FEF7A1FE002058
:10483000FEF79EFE0020FEF79BFE0020FEF798FE8E
:104840000020FEF795FE0020FEF792FE0020FEF706
:104850008FFE0020FEF78CFE0020FEF789FE002070
:10486000FEF786FE0020FEF783FE0020FEF780FEA6
:104870000020FEF77DFE0020FEF77AFE0020FEF706
:1048800077FE0020FEF774FE0020FEF771FE002088
:10489000FEF76EFE0020FEF76BFEB420FEF758FE1A
:1048A0008B20FEF765FE0020FEF762FE9620FEF7E5
:1048B0005FFE0020FEF75CFEA120FEF759FE0020FF
:1048C000FEF756FEB520FEF743FE0220FEF750FE2F
:1048D0000020FEF74DFE0320FEF74AFE0020FEF703
:1048E00047FE0420FEF744FE0020FEF741FEB620FE
:1048F000FEF72EFE0020FEF73BFE0020FEF738FEFE
:10490000B720FEF725FE0020FEF732FE0020FEF75E
:104910002FFE3F20FEF72CFE0020FEF729FE5E2032
:10492000FEF726FE0020FEF723FE6420FEF720FEA1
:104930000020FEF71DFE8C20FEF71AFE0020FEF779
:1049400017FEAC20FEF714FE0020FEF711FEDC205F
:10495000FEF70EFE0020FEF70BFE7020FEF708FEAD
:104960000020FEF705FE9020FEF702FE0020FEF775
:10497000FFFDEB20FEF7FCFD0020FEF7F9FDDC203B
:10498000FEF7F6FD0020FEF7F3FDB820FEF7E0FD90
:104990000020FEF7EDFD0020FEF7EAFD0020FEF707
:1049A000E7FD0020FEF7E4FD0020FEF7E1FD00201A
:1049B000FEF7DEFD0020FEF7DBFD0020FEF7D8FD50
:1049C000BA20FEF7C5FD2420FEF7D2FD0020FEF739
:1049D000CFFD0020FEF7CCFD0020FEF7C9FDC12071
:1049E000FEF7B6FD2020FEF7C3FD0020FEF7C0FD58
:1049F0005420FEF7BDFD0020FEF7BAFDFF20FEF7B4
:104A0000B7FD0020FEF7B4FDC220FEF7A1FD0A208D
:104A1000FEF7AEFD0020FEF7ABFD0420FEF7A8FD7B
:104A20000020FEF7A5FDC320FEF792FD3C20FEF717
:104A30009FFD0020FEF79CFD3A20FEF799FD002027
:104A4000FEF796FD3920FEF793FD0020FEF790FD5E
:104A50003720FEF78DFD0020FEF78AFD3C20FEF793
:104A600087FD0020FEF784FD3620FEF781FD002043
:104A7000FEF77EFD3220FEF77BFD0020FEF778FD7D
:104A80002F20FEF775FD0020FEF772FD2C20FEF7AB
:104A90006FFD0020FEF76CFD2920FEF769FD002068
:104AA000FEF766FD2620FEF763FD0020FEF760FDA1
:104AB0002420FEF75DFD0020FEF75AFD2420FEF7BE
:104AC00057FD0020FEF754FD2320FEF751FD002086
:104AD000FEF74EFD3C20FEF74BFD0020FEF748FDA3
:104AE0003620FEF745FD0020FEF742FD3220FEF79E
:104AF0003FFD0020FEF73CFD2F20FEF739FD002092
:104B0000FEF736FD2C20FEF733FD0020FEF730FDCA
:104B10002920FEF72DFD0020FEF72AFD2620FEF7B6
:104B200027FD0020FEF724FD2420FEF721FD0020B4
:104B3000FEF71EFD2420FEF71BFD0020FEF718FDEA
:104B40002320FEF715FD0020FEF712FDC420FEF71E
:104B5000FFFC6220FEF70CFD0020FEF709FD05209A
:104B6000FEF706FD0020FEF703FD8420FEF700FDA2
:104B70000020FEF7FDFCF020FEF7FAFC0020FEF717
:104B8000F7FC1820FEF7F4FC0020FEF7F1FCA4204F
:104B9000FEF7EEFC0020FEF7EBFC1820FEF7E8FC29
:104BA0000020FEF7E5FC5020FEF7E2FC0020FEF7B7
:104BB000DFFC0C20FEF7DCFC0020FEF7D9FC172000
:104BC000FEF7D6FC0020FEF7D3FC9520FEF7D0FCC4
:104BD0000020FEF7CDFCF320FEF7CAFC0020FEF714
:104BE000C7FCE620FEF7C4FC0020FEF7C1FCC52090
:104BF000FEF7AEFC3220FEF7BBFC0020FEF7B8FC4F
:104C00004420FEF7B5FC0020FEF7B2FC6520FEF75D
:104C1000AFFC0020FEF7ACFC7620FEF7A9FC0020DC
:104C2000FEF7A6FC8820FEF7A3FC0020FEF7A0FC00
:104C3000C620FEF78DFC2020FEF79AFC0020FEF730
:104C400097FC1720FEF794FC0020FEF791FC012052
:104C5000FEF78EFC0020FEF78BFCC720FEF778FCE9
:104C60000020FEF785FC0020FEF782FC0020FEF706
:104C70007FFC0020FEF77CFCC820FEF769FC0020CA
:104C8000FEF776FC0020FEF773FC0020FEF770FCB8
:104C90000020FEF76DFCC920FEF75AFC0020FEF74D
:104CA00067FC0020FEF764FC0020FEF761FC00209A
:104CB000FEF75EFC0020FEF75BFC0020FEF758FCD0
:104CC0000020FEF755FC0020FEF752FC0020FEF706
:104CD0004FFC0020FEF74CFC0020FEF749FC0020B2
:104CE000FEF746FC0020FEF743FC0020FEF740FCE8
:104CF0000020FEF73DFC0020FEF73AFCE020FEF726
:104D000027FC1620FEF734FC0020FEF731FC1C20A7
:104D1000FEF72EFC0020FEF72BFC2120FEF728FCDE
:104D20000020FEF725FC3620FEF722FC0020FEF7CF
:104D30001FFC4620FEF71CFC0020FEF719FC522049
:104D4000FEF716FC0020FEF713FC6420FEF710FCB3
:104D50000020FEF70DFC7A20FEF70AFC0020FEF78B
:104D600007FC8B20FEF704FC0020FEF701FC9920D5
:104D7000FEF7FEFB0020FEF7FBFBA820FEF7F8FB8A
:104D80000020FEF7F5FBB920FEF7F2FB0020FEF74E
:104D9000EFFBC420FEF7ECFB0020FEF7E9FBCA2086
:104DA000FEF7E6FB0020FEF7E3FBD220FEF7E0FB78
:104DB0000020FEF7DDFBD920FEF7DAFB0020FEF72E
:104DC000D7FBE020FEF7D4FB0020FEF7D1FBF32059
:104DD000FEF7CEFB0020FEF7CBFBE120FEF7B8FB91
:104DE0001620FEF7C5FB0020FEF7C2FB1C20FEF7D5
:104DF000BFFB0020FEF7BCFB2220FEF7B9FB002022
:104E0000FEF7B6FB3620FEF7B3FB0020FEF7B0FB43
:104E10004520FEF7ADFB0020FEF7AAFB5220FEF76F
:104E2000A7FB0020FEF7A4FB6420FEF7A1FB0020F7
:104E3000FEF79EFB7A20FEF79BFB0020FEF798FB17
:104E40008B20FEF795FB0020FEF792FB9920FEF7E2
:104E50008FFB0020FEF78CFBA820FEF789FB0020CB
:104E6000FEF786FBB920FEF783FB0020FEF780FBF0
:104E7000C420FEF77DFB0020FEF77AFBCA20FEF778
:104E800077FB0020FEF774FBD220FEF771FB0020B9
:104E9000FEF76EFBD820FEF76BFB0020FEF768FBE9
:104EA000E020FEF765FB0020FEF762FBF320FEF733
:104EB0005FFB0020FEF75CFBE220FEF749FB0520CC
:104EC000FEF756FB0020FEF753FB0B20FEF750FBCE
:104ED0000020FEF74DFB1B20FEF74AFB0020FEF7EB
:104EE00047FB3420FEF744FB0020FEF741FB442043
:104EF000FEF73EFB0020FEF73BFB4F20FEF738FBA2
:104F00000020FEF735FB6120FEF732FB0020FEF7A4
:104F10002FFB7920FEF72CFB0020FEF729FB8820D1
:104F2000FEF726FB0020FEF723FB9720FEF720FB71
:104F30000020FEF71DFBA620FEF71AFB0020FEF75F
:104F400017FBB720FEF714FB0020FEF711FBC22071
:104F5000FEF70EFB0020FEF70BFBC720FEF708FB59
:104F60000020FEF705FBD120FEF702FB0020FEF734
:104F7000FFFAD620FEF7FCFA0020FEF7F9FADD2052
:104F8000FEF7F6FA0020FEF7F3FAF320FEF7F0FA48
:104F90000020FEF7EDFAE320FEF7DAFA0520FEF72F
:104FA000E7FA0020FEF7E4FA0A20FEF7E1FA002013
:104FB000FEF7DEFA1C20FEF7DBFA0020FEF7D8FA37
:104FC0003320FEF7D5FA0020FEF7D2FA4420FEF790
:104FD000CFFA0020FEF7CCFA5020FEF7C9FA0020E5
:104FE000FEF7C6FA6220FEF7C3FA0020FEF7C0FA09
:104FF0007820FEF7BDFA0020FEF7BAFA8820FEF707
:10500000B7FA0020FEF7B4FA9720FEF7B1FA0020B5
:10501000FEF7AEFAA620FEF7ABFA0020FEF7A8FADC
:10502000B720FEF7A5FA0020FEF7A2FAC220FEF78D
:105030009FFA0020FEF79CFAC720FEF799FA00209D
:10504000FEF796FAD120FEF793FA0020FEF790FAC9
:10505000D520FEF78DFA0020FEF78AFADD20FEF754
:1050600087FA0020FEF784FAF320FEF781FA002089
:10507000FEF77EFAE420FEF76BFA0120FEF778FADD
:105080000020FEF775FA0120FEF772FA0020FEF705
:105090006FFA0220FEF76CFA0020FEF769FA2A2068
:1050A000FEF766FA0020FEF763FA3C20FEF760FA8E
:1050B0000020FEF75DFA4B20FEF75AFA0020FEF7BB
:1050C00057FA5D20FEF754FA0020FEF751FA7420DB
:1050D000FEF74EFA0020FEF74BFA8420FEF748FA5E
:1050E0000020FEF745FA9320FEF742FA0020FEF773
:1050F0003FFAA220FEF73CFA0020FEF739FAB3206F
:10510000FEF736FA0020FEF733FABE20FEF730FA3B
:105110000020FEF72DFAC420FEF72AFA0020FEF741
:1051200027FACD20FEF724FA0020FEF721FAD3203B
:10513000FEF71EFA0020FEF71BFADD20FEF718FA34
:105140000020FEF715FAF320FEF712FA0020FEF712
:105150000FFAE520FEF7FCF90020FEF709FA00201F
:10516000FEF706FA0020FEF703FA0020FEF700FA29
:105170000220FEF7FDF90020FEF7FAF92920FEF7DC
:10518000F7F90020FEF7F4F93C20FEF7F1F90020D2
:10519000FEF7EEF94B20FEF7EBF90020FEF7E8F9F9
:1051A0005D20FEF7E5F90020FEF7E2F97420FEF736
:1051B000DFF90020FEF7DCF98420FEF7D9F90020A2
:1051C000FEF7D6F99320FEF7D3F90020FEF7D0F9C9
:1051D000A220FEF7CDF90020FEF7CAF9B320FEF7B2
:1051E000C7F90020FEF7C4F9BE20FEF7C1F9002080
:1051F000FEF7BEF9C420FEF7BBF90020FEF7B8F9B0
:10520000CD20FEF7B5F90020FEF7B2F9D320FEF766
:10521000AFF90020FEF7ACF9DC20FEF7A9F9002079
:10522000FEF7A6F9F320FEF7A3F90020FEF7A0F998
:10523000E620FEF78DF91120FEF79AF90020FEF71F
:1052400097F93420FEF794F90020FEF791F95620E3
:10525000FEF78EF90020FEF78BF97620FEF788F92D
:105260000020FEF785F97720FEF782F90020FEF78F
:105270007FF96620FEF77CF90020FEF779F9882097
:10528000FEF776F90020FEF773F99920FEF770F922
:105290000020FEF76DF9BB20FEF76AF90020FEF74B
:1052A00067F99920FEF764F90020FEF761F966209E
:1052B000FEF75EF90020FEF75BF95520FEF758F97E
:1052C0000020FEF755F95520FEF752F90020FEF7B1
:1052D0004FF94520FEF74CF90020FEF749F943202D
:1052E000FEF746F90020FEF743F94420FEF740F9A7
:1052F0000020FEF73DF9E720FEF72AF93220FEF7FD
:1053000037F90020FEF734F95520FEF731F9002077
:10531000FEF72EF97620FEF72BF90020FEF728F98C
:105320006620FEF725F90020FEF722F96720FEF738
:105330001FF90020FEF71CF96720FEF719F900207D
:10534000FEF716F98720FEF713F90020FEF710F993
:105350009920FEF70DF90020FEF70AF9BB20FEF7B1
:1053600007F90020FEF704F99920FEF701F9002063
:10537000FEF7FEF87720FEF7FBF80020FEF7F8F8BE
:105380004420FEF7F5F80020FEF7F2F85620FEF76D
:10539000EFF80020FEF7ECF82320FEF7E9F80020F4
:1053A000FEF7E6F83320FEF7E3F80020FEF7E0F81A
:1053B0004520FEF7DDF80020FEF7DAF8E820FEF7DA
:1053C000C7F80020FEF7D4F80020FEF7D1F89920A6
:1053D000FEF7CEF80020FEF7CBF88720FEF7C8F8DE
:1053E0000020FEF7C5F88820FEF7C2F80020FEF77F
:1053F000BFF87720FEF7BCF80020FEF7B9F866206A
:10540000FEF7B6F80020FEF7B3F88820FEF7B0F8F4
:105410000020FEF7ADF8AA20FEF7AAF80020FEF75C
:10542000A7F8BB20FEF7A4F80020FEF7A1F899200A
:10543000FEF79EF80020FEF79BF86620FEF798F82E
:105440000020FEF795F85520FEF792F80020FEF7B1
:105450008FF85520FEF78CF80020FEF789F84420DD
:10546000FEF786F80020FEF783F84420FEF780F868
:105470000020FEF77DF85520FEF77AF80020FEF7B1
:1054800077F8E920FEF764F8AA20FEF771F800200B
:10549000FEF76EF80020FEF76BF80020FEF768F8C4
:1054A0000020FEF755F8AA20FEF762F8CF20FEF79D
:1054B0004FF80020FEF75CF80020FEF759F80020B6
:1054C000FEF756F80020FEF753F80020FEF750F8DC
:1054D0000020FEF74DF80020FEF74AF80020FEF706
:1054E00047F80020FEF744F80020FEF741F80020BE
:1054F000FEF73EF80020FEF73BF80020FEF738F8F4
:105500000020FEF735F80020FEF732F80020FEF705
:105510002FF80020FEF72CF8F020FEF719F80020F5
:10552000FEF726F85020FEF723F80020FEF720F8BB
:105530000020FEF71DF80020FEF71AF8F320FEF712
:1055400007F80020FEF714F8F920FEF701F806200E
:10555000FEF70EF81020FEF70BF82920FEF708F8EA
:105560000020FEF705F83A20FDF7F2FF5520FDF781
:10557000FFFF1120FDF7ECFF6420FBF789FE2920D7
:10558000FDF7E6FF3520FDF7E3FF0020FDF7F0FF14
:105590005120FDF7DDFFFF20FDF7EAFF5320FDF767
:1055A000D7FF2C20FDF7E4FF5520FDF7D1FF822027
:1055B000FDF7DEFF2C20FDF7CBFFFEF7CCBF55211A
:1055C0004FF47040FDF7F0FFAA214FF20100FDF704
:1055D000EBFF52214FF20200FDF7E6FF08214FF2E8
:1055E0000300FDF7E1FF01214FF20400FDF7DCFFAE
:1055F0000D214FF43040FDF7D7FF0D214BF2010094
:10560000FDF7D2FF0D214BF20200FDF7CDFF342153
:105610004FF43640FDF7C8FF34214BF20160FDF72F
:10562000C3FF34214BF20260FDF7BEFF0D214FF4A2
:105630003140FDF7B9FF0D214BF20110FDF7B4FF2A
:105640000D214BF20210FDF7AFFF34214FF437402C
:10565000FDF7AAFF34214BF20170FDF7A5FF3421BD
:105660004BF20270FDF7A0FF00214FF43240FDF72E
:105670009BFF00214BF20120FDF796FF00214BF22A
:105680000220FDF791FF24214FF43840FDF78CFFF5
:1056900024214BF60100FDF787FF24214BF6020081
:1056A000FDF782FF01214FF43F40FDF77DFF0F2101
:1056B0004FF43340FDF778FF0F214BF20130FDF737
:1056C00073FF0F214BF20230FDF76EFF34214FF4D0
:1056D0003940FDF769FF34214BF60110FDF764FFF7
:1056E00034214BF60210FDF75FFF08214FF43540DF
:1056F000FDF75AFF08214BF20150FDF755FF082135
:105700004BF20250FDF750FF03214FF44240FDF7EA
:105710004BFF24214FF43A40FDF746FF24214BF67E
:105720000120FDF741FF24214BF60220FDF73CFF4D
:1057300000214FF43C40FDF737FF78214BF6014044
:10574000FDF732FF00214BF60240FDF72DFF00214F
:105750004FF43D40FDF728FF78214BF60150FDF74F
:1057600023FF00214BF60250FDF71EFF00214FF4EE
:105770003E40FDF719FF64214BF60160FDF714FF71
:1057800000214FF45140FDF70FFF33214DF201107E
:10579000FDF70AFF00214DF20210FDF705FF34214D
:1057A0004DF20310FDF700FF00214DF20410FDF74C
:1057B000FBFE3A214DF20510FDF7F6FE00214DF2F9
:1057C0000610FDF7F1FE4A214DF20710FDF7ECFE41
:1057D00000214DF20810FDF7E7FE5C214DF20910A3
:1057E000FDF7E2FE00214DF20A10FDF7DDFE8121FA
:1057F0004DF20B10FDF7D8FE00214DF20C10FDF715
:10580000D3FEA6214DF20D10FDF7CEFE00214DF284
:105810000E10FDF7C9FEE5214DF20F10FDF7C4FE95
:1058200001214DF21010FDF7BFFE13214DF21110B2
:10583000FDF7BAFE01214DF21210FDF7B5FE54211D
:105840004DF21310FDF7B0FE01214DF21410FDF7DB
:10585000ABFE82214DF21510FDF7A6FE01214DF29F
:105860001610FDF7A1FECA214DF21710FDF79CFEA0
:1058700002214DF21810FDF797FE00214DF219108C
:10588000FDF792FE02214DF21A10FDF78DFE012167
:105890004DF21B10FDF788FE02214DF21C10FDF7A2
:1058A00083FE34214DF21D10FDF77EFE02214DF2E4
:1058B0001E10FDF779FE67214DF21F10FDF774FEF3
:1058C00002214DF22010FDF76FFE84214DF22110D0
:1058D000FDF76AFE02214DF22210FDF765FEA421BC
:1058E0004DF22310FDF760FE02214DF22410FDF76A
:1058F0005BFEB7214DF22510FDF756FE02214DF259
:105900002610FDF751FECF214DF22710FDF74CFE7A
:1059100002214DF22810FDF747FEDE214DF229103D
:10592000FDF742FE02214DF22A10FDF73DFEF22165
:105930004DF22B10FDF738FE02214DF22C10FDF731
:1059400033FEFE214DF22D10FDF72EFE03214DF208
:105950002E10FDF729FE10214DF22F10FDF724FE29
:1059600003214DF23010FDF71FFE33214DF23110AF
:10597000FDF71AFE03214DF23210FDF715FE6D21E1
:105980004DF23310FDF710FE00214FF45240FDF7A9
:105990000BFE33214DF20120FDF706FE00214DF2F2
:1059A0000220FDF701FE34214DF20320FDF7FCFD3E
:1059B00000214DF20420FDF7F7FD3A214DF20520BC
:1059C000FDF7F2FD00214DF20620FDF7EDFD4A2125
:1059D0004DF20720FDF7E8FD00214DF20820FDF70C
:1059E000E3FD5C214DF20920FDF7DEFD00214DF2C3
:1059F0000A20FDF7D9FD81214DF20B20FDF7D4FDE2
:105A000000214DF20C20FDF7CFFDA6214DF20D2017
:105A1000FDF7CAFD00214DF20E20FDF7C5FDE52181
:105A20004DF20F20FDF7C0FD01214DF21020FDF7D2
:105A3000BBFD13214DF21120FDF7B6FD01214DF202
:105A40001220FDF7B1FD54214DF21320FDF7ACFDFE
:105A500001214DF21420FDF7A7FD82214DF2152002
:105A6000FDF7A2FD01214DF21620FDF79DFDCA2193
:105A70004DF21720FDF798FD02214DF21820FDF799
:105A800093FD00214DF21920FDF78EFD02214DF20C
:105A90001A20FDF789FD01214DF21B20FDF784FD41
:105AA00002214DF21C20FDF77FFD34214DF21D2017
:105AB000FDF77AFD02214DF21E20FDF775FD6721ED
:105AC0004DF21F20FDF770FD02214DF22020FDF761
:105AD0006BFD84214DF22120FDF766FD02214DF280
:105AE0002220FDF761FDA4214DF22320FDF75CFD8E
:105AF00002214DF22420FDF757FDB7214DF225205C
:105B0000FDF752FD02214DF22620FDF74DFDCF217C
