:020000040800F2
:100000000000022005660008D9640008DB640008CF
:10001000DD640008DF640008E164000800000000FF
:10002000000000000000000000000000E364000881
:10003000E564000800000000E7640008E9640008C7
:1000400055660008556600085566000855660008A4
:100050005566000855660008556600085566000894
:100060005566000855660008556600085566000884
:100070005566000855660008556600085566000874
:100080005566000855660008556600085566000864
:100090005566000855660008556600085566000854
:1000A0005566000855660008556600085566000844
:1000B0005566000855660008556600085566000834
:1000C0005566000855660008556600085566000824
:1000D0005566000855660008556600085566000814
:1000E0005566000855660008556600085566000804
:1000F00055660008556600085566000855660008F4
:1001000055660008556600085566000855660008E3
:1001100055660008556600085566000855660008D3
:1001200055660008556600085566000855660008C3
:1001300055660008556600085566000855660008B3
:1001400055660008556600085566000855660008A3
:100150005566000855660008556600085566000893
:100160005566000855660008556600085566000883
:100170005566000855660008556600080000000036
:080180005566000855660008F1
:1001C00010B5054C237833B9044B13B10448AFF391
:1001D00000800123237010BDC00900200000000032
:1001E0007CC6000808B5034B1BB103490348AFF3B5
:1001F000008008BD00000000C40900207CC6000883
:1002000081F0004102E000BF83F0004330B54FEAC7
:1002100041044FEA430594EA050F08BF90EA020F34
:100220001FBF54EA000C55EA020C7FEA645C7FEAC7
:10023000655C00F0E2804FEA5454D4EB5555B8BFEA
:100240006D420CDD2C4480EA020281EA030382EA5B
:10025000000083EA010180EA020281EA0303362DED
:1002600088BF30BD11F0004F4FEA01314FF4801CC0
:100270004CEA113102D0404261EB410113F0004FD2
:100280004FEA03334CEA133302D0524263EB430389
:1002900094EA050F00F0A780A4F10104D5F1200E27
:1002A0000DDB02FA0EFC22FA05F2801841F1000182
:1002B00003FA0EF2801843FA05F359410EE0A5F156
:1002C00020050EF1200E012A03FA0EFC28BF4CF087
:1002D000020C43FA05F3C01851EBE37101F000453D
:1002E00007D54FF0000EDCF1000C7EEB00006EEB4A
:1002F0000101B1F5801F1BD3B1F5001F0CD34908D4
:100300005FEA30004FEA3C0C04F101044FEA44522A
:1003100012F5800F80F09A80BCF1004F08BF5FEAB1
:10032000500C50F1000041EB045141EA050130BD91
:100330005FEA4C0C404141EB0101013C28BFB1F5A3
:10034000801FE9D291F0000F04BF01460020B1FAEE
:1003500081F308BF2033A3F10B03B3F120020CDAC1
:100360000C3208DD02F1140CC2F10C0201FA0CF09F
:1003700021FA02F10CE002F11402D8BFC2F1200C04
:1003800001FA02F120FA0CFCDCBF41EA0C019040BA
:10039000E41AA2BF01EB0451294330BD6FEA040403
:1003A0001F3C1CDA0C340EDC04F11404C4F12002EE
:1003B00020FA04F001FA02F340EA030021FA04F300
:1003C00045EA030130BDC4F10C04C4F1200220FA57
:1003D00002F001FA04F340EA0300294630BD21FA95
:1003E00004F0294630BD94F0000F83F4801306BF5B
:1003F00081F480110134013D4EE77FEA645C18BF4F
:100400007FEA655C29D094EA050F08BF90EA020FE5
:1004100005D054EA000C04BF1946104630BD91EADD
:10042000030F1EBF0021002030BD5FEA545C05D1E0
:100430004000494128BF41F0004130BD14F580041F
:100440003CBF01F5801130BD01F0004545F0FE4193
:1004500041F470014FF0000030BD7FEA645C1ABFC8
:10046000194610467FEA655C1CBF0B46024650EAFF
:10047000013406BF52EA033591EA030F41F400212B
:1004800030BD00BF90F0000F04BF0021704730B5B1
:100490004FF4806404F132044FF000054FF0000186
:1004A00050E700BF90F0000F04BF0021704730B547
:1004B0004FF4806404F1320410F0004548BF40421C
:1004C0004FF000013EE700BF42004FEAE2014FEA71
:1004D00031014FEA02701FBF12F07F4393F07F4F4C
:1004E00081F06051704732F07F4208BF704793F04F
:1004F0007F4F04BF41F40021704730B54FF4607462
:1005000001F0004521F000411CE700BF50EA010264
:1005100008BF704730B54FF000050AE050EA01020D
:1005200008BF704730B511F0004502D5404261EB7D
:1005300041014FF4806404F132045FEA915C3FF4BE
:10054000D8AE4FF003025FEADC0C18BF03325FEA5B
:10055000DC0C18BF033202EBDC02C2F1200300FA0C
:1005600003FC20FA02F001FA03FE40EA0E0021FA31
:1005700002F11444BDE600BF4A0011D212F5001288
:1005800011D20DD56FF47873B3EB62520ED44FEAEB
:10059000C12343F0004343EA505323FA02F070476B
:1005A0004FF00000704750EA013002D14FF0FF30A9
:1005B00070474FF00000704753B94AB9002908BF8F
:1005C00000281CBF4FF0FF314FF0FF3000F06CB936
:1005D000ADF1080C6DE904CE00F006F8DDF804E09A
:1005E000DDE9022304B070472DE9F047089E0D466F
:1005F00004468E46002B40F082808A42174646D938
:10060000B2FA82F24AB1C2F1200105FA02F320FAED
:1006100001F1974041EA030E94404FEA1748230C3A
:10062000BEFBF8FCB9B208FB1CEE43EA0E430CFB20
:1006300001F098420AD9FB180CF1FF3580F01681C1
:10064000984240F21381ACF1020C3B441B1AA4B255
:10065000B3FBF8F008FB103344EA034400FB01F15C
:10066000A14209D93C1900F1FF3380F00181A14278
:1006700040F2FE8002383C44641A40EA0C400021FB
:100680001EB1D4400023C6E90043BDE8F08702B99B
:10069000FFDEB2FA82F2002A4FD1CB1B4FEA174E8F
:1006A0001FFA87F80121B3FBFEFC250C0EFB1C335F
:1006B00045EA034508FB0CF3AB4207D97D190CF161
:1006C000FF3002D2AB4200F2E7808446ED1AA3B2BB
:1006D000B5FBFEF00EFB105543EA054408FB00F89D
:1006E000A04507D93C1900F1FF3302D2A04500F222
:1006F000D7801846A4EB080440EA0C40C0E78B42C0
:1007000008D9002E00F0AF800021C6E90005084698
:10071000BDE8F087B3FA83F100294BD1AB4202D395
:10072000824200F2B780841A65EB030301209E46E3
:10073000002EAAD0C6E9004EA7E7C2F1200C01FAAC
:1007400002F3974020FA0CF04FEA174E21FA0CFC06
:100750001843BCFBFEF1050C0EFB11CC1FFA87F809
:1007600045EA0C4501FB08F3AB4204FA02F409D94F
:100770007D1901F1FF3C80F08B80AB4240F2888014
:1007800002393D44EB1A85B2B3FBFEF00EFB103389
:1007900045EA034500FB08F3AB4207D97D1900F198
:1007A000FF3C71D2AB426FD902383D44EB1A40EAAC
:1007B000014178E7C1F1200C8B4022FA0CF71F436E
:1007C00020FA0CF405FA01F34FEA174E25FA0CF55E
:1007D0001C43230CB5FBFEF91FFA87F80EFB1955D5
:1007E00043EA054509FB08FAAA4502FA01F200FAB4
:1007F00001F308D97D1909F1FF3047D2AA4545D93F
:10080000A9F102093D44A5EB0A05A4B2B5FBFEF02F
:100810000EFB105544EA054400FB08F8A04507D933
:100820003C1900F1FF352DD2A0452BD902383C44AC
:1008300040EA0940A4EB0804A0FB02894C45C646E7
:100840004D4619D316D05EB1B3EB0E0264EB05042E
:1008500004FA0CFCCA404CEA0202CC40C6E900246F
:100860000021BDE8F087314630460EE7AC46EDE6A4
:10087000184601E74345E6D2B8EB020E69EB0705DF
:100880000138E0E72846D3E760468FE78146BAE7BC
:10089000614677E708464BE7ACF1020C3D4415E7AB
:1008A00002383C4426E700BF704700BF000000004C
:1008B00001F0FF01102A2BDB10F0070F08D010F811
:1008C000013B013A8B422DD010F0070F42B3F6D115
:1008D000F0B441EA012141EA014122F007047FF02E
:1008E00000070023F0E80256083C85EA010586EA85
:1008F000010685FA47F5A3FA87F586FA47F6A5FAC1
:1009000087F68EB9EED1F0BC01F0FF0102F00702CC
:1009100032B110F8013B013A83EA010313B1F8D177
:100920000020704701387047002D06BF3546033858
:10093000073815F0010F07D1013015F4807F02BF91
:10094000013015F4C03F0130F0BC0138704700BFE2
:10095000844641EA000313F003036DD1403A41D3CA
:1009600051F8043B40F8043B51F8043B40F8043B89
:1009700051F8043B40F8043B51F8043B40F8043B79
:1009800051F8043B40F8043B51F8043B40F8043B69
:1009900051F8043B40F8043B51F8043B40F8043B59
:1009A00051F8043B40F8043B51F8043B40F8043B49
:1009B00051F8043B40F8043B51F8043B40F8043B39
:1009C00051F8043B40F8043B51F8043B40F8043B29
:1009D00051F8043B40F8043B51F8043B40F8043B19
:1009E000403ABDD2303211D351F8043B40F8043BB9
:1009F00051F8043B40F8043B51F8043B40F8043BF9
:100A000051F8043B40F8043B103AEDD20C3205D3C8
:100A100051F8043B40F8043B043AF9D2043208D0C0
:100A2000D2071CBF11F8013B00F8013B01D30B8832
:100A300003806046704700BF082A13D38B078DD010
:100A400010F003038AD0C3F10403D21ADB071CBFE2
:100A500011F8013B00F8013B80D331F8023B20F84C
:100A6000023B7BE7043AD9D3013A11F8013B00F885
:100A7000013BF9D20B7803704B7843708B7883700D
:100A80006046704700000000000000000000000009
:100A90000000000000000000000000000000000056
:100AA0000000000000000000000000000000000046
:100AB0000000000000000000000000000000000036
:100AC00090F800F06DE9024520F007016FF0000C8E
:100AD00010F0070491F820F040F049804FF0000436
:100AE0006FF00700D1E9002391F840F000F1080011
:100AF00082FA4CF2A4FA8CF283FA4CF3A2FA8CF349
:100B00004BBBD1E9022382FA4CF200F10800A4FAAF
:100B10008CF283FA4CF3A2FA8CF3E3B9D1E9042303
:100B200082FA4CF200F10800A4FA8CF283FA4CF33A
:100B3000A2FA8CF37BB9D1E9062301F1200182FAF4
:100B40004CF200F10800A4FA8CF283FA4CF3A2FAFA
:100B50008CF3002BC6D0002A04BF04301A4612BA08
:100B6000B2FA82F2FDE8024500EBD2007047D1E90B
:100B7000002304F00305C4F100004FEAC50514F09A
:100B8000040F91F840F00CFA05F562EA05021CBF6B
:100B900063EA050362464FF00004A9E770B54FF021
:100BA000FF0C4CF4E06C1CEA11541DBF1CEA1355F9
:100BB00094EA0C0F95EA0C0F00F0DEF82C4481EA61
:100BC000030621EA4C5123EA4C5350EA013518BF81
:100BD00052EA033541F4801143F4801338D0A0FB6E
:100BE00002CE4FF00005E1FB02E506F00042E0FB1B
:100BF00003E54FF00006E1FB03569CF0000F18BF21
:100C00004EF0010EA4F1FF04B6F5007F64F54074C8
:100C100004D25FEA4E0E6D4146EB060642EAC6215B
:100C200041EA55514FEAC52040EA5E504FEACE2EC8
:100C3000B4F1FD0C88BFBCF5E06F1ED8BEF1004FCB
:100C400008BF5FEA500E50F1000041EB045170BD47
:100C500006F0004646EA010140EA020081EA03018B
:100C6000B4EB5C04C2BFD4EB0C0541EA045170BD87
:100C700041F480114FF0000E013C00F3AB8014F101
:100C8000360FDEBF002001F0004170BDC4F100044A
:100C9000203C35DA0C341BDC04F11404C4F12005CB
:100CA00000FA05F320FA04F001FA05F240EA020026
:100CB00001F0004221F0004110EBD37021FA04F65C
:100CC00042EB06015EEA430E08BF20EAD37070BD16
:100CD000C4F10C04C4F1200500FA04F320FA05F075
:100CE00001FA04F240EA020001F0004110EBD37077
:100CF00041F100015EEA430E08BF20EAD37070BDE7
:100D0000C4F1200500FA05F24EEA020E20FA04F3BF
:100D100001FA05F243EA020321FA04F001F000416E
:100D200021FA04F220EA020000EBD3705EEA430EDF
:100D300008BF20EAD37070BD94F0000F0FD101F00E
:100D40000046400041EB010111F4801F08BF013C47
:100D5000F7D041EA060195F0000F18BF704703F085
:100D60000046520043EB030313F4801F08BF013D0C
:100D7000F7D043EA0603704794EA0C0F0CEA1355C8
:100D800018BF95EA0C0F0CD050EA410618BF52EA82
:100D90004306D1D181EA030101F000414FF0000088
:100DA00070BD50EA410606BF1046194652EA430696
:100DB00019D094EA0C0F02D150EA013613D195EA0A
:100DC0000C0F05D152EA03361CBF104619460AD152
:100DD00081EA030101F0004141F0FE4141F470015C
:100DE0004FF0000070BD41F0FE4141F4780170BD4C
:100DF00070B54FF0FF0C4CF4E06C1CEA11541DBFB1
:100E00001CEA135594EA0C0F95EA0C0F00F0A7F8B2
:100E1000A4EB050481EA030E52EA03354FEA0131DF
:100E200000F088804FEA03334FF0805545EA1313F2
:100E300043EA12634FEA022245EA111545EA1065BA
:100E40004FEA00260EF000419D4208BF964244F151
:100E5000FD0404F5407402D25B084FEA3202B61A70
:100E600065EB03055B084FEA32024FF480104FF444
:100E7000002CB6EB020E75EB030E22BFB61A7546B8
:100E800040EA0C005B084FEA3202B6EB020E75EB4B
:100E9000030E22BFB61A754640EA5C005B084FEAB3
:100EA0003202B6EB020E75EB030E22BFB61A754680
:100EB00040EA9C005B084FEA3202B6EB020E75EB8B
:100EC000030E22BFB61A754640EADC0055EA060E4C
:100ED00018D04FEA051545EA16754FEA06164FEA8F
:100EE000C30343EA52734FEAC2025FEA1C1CC0D13B
:100EF00011F4801F0BD141EA00014FF000004FF0C8
:100F0000004CB6E711F4801F04BF01430020B4F188
:100F1000FD0C88BFBCF5E06F3FF6AFAEB5EB030C40
:100F200004BFB6EB020C5FEA500C50F1000041EB3D
:100F3000045170BD0EF0004E4EEA113114EB5C040A
:100F4000C2BFD4EB0C0541EA045170BD41F48011DD
:100F50004FF0000E013C90E645EA060E8DE60CEAE5
:100F6000135594EA0C0F08BF95EA0C0F3FF43BAF02
:100F700094EA0C0F0AD150EA01347FF434AF95EAB9
:100F80000C0F7FF425AF104619462CE795EA0C0F9D
:100F900006D152EA03353FF4FDAE1046194622E76A
:100FA00050EA410618BF52EA43067FF4C5AE50EA44
:100FB00041047FF40DAF52EA43057FF4EBAE12E734
:100FC0004FF0FF3C06E000BF4FF0010C02E000BF15
:100FD0004FF0010C4DF804CD4FEA410C7FEA6C5CF8
:100FE0004FEA430C18BF7FEA6C5C1BD001B050EA9B
:100FF000410C0CBF52EA430C91EA030F02BF90EA86
:10100000020F0020704710F1000F91EA030F58BF44
:10101000994208BF90422CBFD8176FEAE37040F0A6
:10102000010070474FEA410C7FEA6C5C02D150EA44
:10103000013C07D14FEA430C7FEA6C5CD6D152EAFF
:10104000033CD3D05DF8040B704700BF84461046C4
:1010500062468C461946634600E000BF01B5FFF7C3
:10106000B7FF002848BF10F1000F01BD4DF808ED93
:10107000FFF7F4FF0CBF012000205DF808FB00BF64
:101080004DF808EDFFF7EAFF34BF012000205DF8BE
:1010900008FB00BF4DF808EDFFF7E0FF94BF01200B
:1010A00000205DF808FB00BF4DF808EDFFF7CEFF0C
:1010B00094BF012000205DF808FB00BF4DF808ED4B
:1010C000FFF7C4FF34BF012000205DF808FB00BF1C
:1010D0004FEA410C7FEA6C5C02D150EA013C0AD134
:1010E0004FEA430C7FEA6C5C02D152EA033C02D126
:1010F0004FF0000070474FF0010070474FEA410287
:1011000012F5001215D211D56FF47873B3EB625259
:1011100012D94FEAC12343F0004343EA505311F080
:10112000004F23FA02F018BF404270474FF0000012
:10113000704750EA013005D111F0004008BF6FF050
:10114000004070474FF00000704700BF10B50446E4
:101150000E4B18784FF47A73B3FBF0F30C4A106817
:10116000B0FBF3F000F09EF868B90F2C01D9012014
:101170000AE0002221464FF0FF3000F05FF8054BF7
:101180001C60002000E0012010BD00BF0000002016
:101190000C0000200400002008B50B4B1A6842F434
:1011A00000721A601A6842F480621A601A6842F487
:1011B00080721A60032000F02FF80020FFF7C6FFAE
:1011C00005F06EF9002008BD003C0240034A11689A
:1011D000034B1B780B441360704700BFDC090020F1
:1011E00000000020014B1868704700BFDC09002098
:1011F00038B50446FFF7F6FF0546B4F1FF3F02D0CD
:10120000044B1B781C44FFF7EDFF401BA042FAD3B0
:1012100038BD00BF00000020074AD36823F4E06314
:101220001B041B0C000200F4E060034343F0BF63A7
:1012300043F40033D360704700ED00E030B4174B47
:10124000DB68C3F30223C3F10704042C28BF042482
:101250001D1D062D18D9033B4FF0FF3505FA04F488
:1012600021EA0401994005FA03F322EA0303194332
:1012700000280BDB0901C9B200F1604000F56140B4
:1012800080F8001330BC70470023E5E700F00F0042
:101290000901C9B2024B1954F4E700BF00ED00E0A8
:1012A00014ED00E00138B0F1807F0AD2064B58609F
:1012B000064AF02182F823100020986007221A6065
:1012C00070470120704700BF10E000E000ED00E033
:1012D00000230F2B00F2D980F0B583B039E007224C
:1012E00000E00022B2403A430234684E46F824201F
:1012F000674A1468EA4324EA05064F6817F4803FFA
:1013000001D045EA0406624C2660646802EA0406DD
:101310004F6817F4003F01D045EA04065C4C666054
:10132000A46802EA04064F6817F4801F01D045EA5A
:101330000406574CA660E46822404E6816F4001F6D
:1013400001D045EA0402524CE26001330F2B00F257
:101350009A8001229A400C6804EA020532EA0404E9
:10136000F3D14C68661E012E03D9112C01D0122C2A
:1013700012D186685F000324BC4026EA0406CC68CC
:10138000BC4034438460466826EA02064C68C4F3D5
:1013900000129A4032434260C7685E000324B440A2
:1013A000E24327EA04078C68B4403C43C4604C68BD
:1013B000022C01D0122C13D1DF08083750F827E097
:1013C00003F007044FEA840C0F2404FA0CF42EEA0D
:1013D000040E0C6904FA0CF444EA0E0440F82740A9
:1013E000046814404A6802F00302B24022430260DB
:1013F0004A6812F0805FA8D000220192254A546CFE
:1014000044F480445464526C02F480420192019A84
:101410009C08A61C1D4A52F8267003F00302960091
:101420000F22B24027EA02071B4A90423FF459AF0D
:1014300002F5806290421AD002F58062904218D084
:1014400002F58062904216D002F58062904214D07C
:1014500002F58062904212D002F58062904210D074
:1014600002F5806290423FF43AAF08223AE7012247
:1014700038E7022236E7032234E7042232E7052266
:1014800030E706222EE703B0F0BD70470038014078
:10149000003C014000380240000002400AB1816176
:1014A0007047090481617047436931EA030301D041
:1014B000816170470904816170470000002800F0D5
:1014C000D98170B582B00446036813F0010F3BD098
:1014D000A64B9B6803F00C03042B2CD0A34B9B68FA
:1014E00003F00C03082B21D06368B3F5803F4FD085
:1014F000B3F5A02F52D09D4B1A6822F480321A60A7
:101500001A6822F480221A606368002B50D0FFF71B
:1015100069FE0546954B1B6813F4003F14D1FFF795
:1015200061FE401B6428F5D90320AAE18F4B5B685C
:1015300013F4800FD8D08D4B1B6813F4003F03D0F9
:101540006368002B00F09881236813F0020F54D0D9
:10155000864B9B6813F00C0F3ED0844B9B6803F0C6
:101560000C03082B33D0E368002B67D0804B01229B
:101570001A60FFF737FE05467C4B1B6813F0020F1D
:1015800053D1FFF72FFE401B0228F5D9032078E145
:10159000764A136843F480331360B5E7734B1A68D7
:1015A00042F480221A601A6842F480321A60ABE773
:1015B000FFF718FE05466D4B1B6813F4003FC3D0C0
:1015C000FFF710FE401B6428F5D9032059E1674B53
:1015D0005B6813F4800FC6D1644B1B6813F0020FD5
:1015E00003D0E368012B40F04981604A136823F07F
:1015F000F803216943EAC1031360236813F0080F5D
:1016000040D0636963B35B4B01221A60FFF7EAFDC8
:101610000546564B5B6F13F0020F33D1FFF7E2FD27
:10162000401B0228F5D903202BE1504A136823F010
:10163000F803216943EAC1031360DEE74C4B002243
:101640001A60FFF7CFFD0546484B1B6813F0020FE9
:10165000D3D0FFF7C7FD401B0228F5D9032010E1C6
:10166000444B00221A60FFF7BDFD05463F4B5B6F00
:1016700013F0020F06D0FFF7B5FD401B0228F5D985
:101680000320FEE0236813F0040F78D0374B1B6C67
:1016900013F0805F0DD100230193344B1A6C42F09C
:1016A00080521A641B6C03F080530193019B012547
:1016B00000E00025304B1B6813F4807F21D0A36825
:1016C000012B32D0052B36D0284B1A6F22F00102A5
:1016D0001A671A6F22F004021A67A368002B34D02D
:1016E000FFF780FD0646214B1B6F13F0020F45D11B
:1016F000FFF778FD801B41F288339842F3D903202D
:10170000BFE01D4A136843F480731360FFF76AFD5E
:101710000646194B1B6813F4807FD0D1FFF762FD9A
:10172000801B0228F5D90320ABE0104A136F43F069
:1017300001031367D1E70D4B1A6F42F004021A67D9
:101740001A6F42F001021A67C7E7FFF74BFD064622
:10175000064B1B6F13F0020F10D0FFF743FD801BE9
:1017600041F288339842F3D903208AE000380240DE
:1017700000004742800E474200700040E5B9A3696F
:10178000002B7DD0464A926802F00C02082A51D004
:10179000022B17D0434B00221A60FFF723FD0446AB
:1017A0003F4B1B6813F0007F42D0FFF71BFD001B6F
:1017B0000228F5D9032064E0394A136C23F08053E2
:1017C0001364DCE7374B00221A60FFF70BFD054678
:1017D000334B1B6813F0007F06D0FFF703FD401B5F
:1017E0000228F5D903204CE0E369226A1343626AB8
:1017F00043EA8213A26A5208013A43EA0243E26AC8
:1018000043EA0263264A5360264B01221A60FFF71F
:10181000E9FC0446224B1B6813F0007F06D1FFF75A
:10182000E1FC001B0228F5D903202AE0002028E073
:10183000002026E0012B26D0194B5B6803F48001C1
:10184000E269914221D103F03F02216A8A421ED10E
:10185000616A47F6C0721A408A421AD103F44032D4
:10186000A16A8A4217D103F07063E26A934214D1ED
:10187000002006E001207047012002E0012000E086
:10188000002002B070BD0120FBE70120F9E7012034
:10189000F7E70120F5E70120F3E70120F1E700BFBA
:1018A0000038024060004742F8B52F4B9B6803F0B8
:1018B0000C03042B53D0082B53D12B4B5A6802F046
:1018C0003F025B6813F4800F28D0274B5B68C3F39B
:1018D000881358010021C01A61F100018E0146EA07
:1018E000906687013C1A66EB0105E90041EA5471F4
:1018F000E000C01841F100014B0243EAD05344021A
:10190000204619460023FEF757FE174B5B68C3F3CA
:10191000014301335B00B0FBF3F023E0124B5B6843
:10192000C3F388135C010025E41A65F10005AE01DC
:1019300046EA9466A701381B66EB0501CC0044EA31
:101940005074C500E81844F100018B0243EA90533B
:101950008402204619460023FEF72EFED5E70348F1
:1019600000E00348F8BD00BF0038024000127A00D2
:101970000024F400002800F09B8070B50D4604465A
:101980004F4B1B6803F00F038B4208D2CBB24C4A7B
:101990001370136803F00F038B4240F08B802368B1
:1019A00013F0020F17D013F0040F04D0454A9368C8
:1019B00043F4E0539360236813F0080F04D0414AC6
:1019C000936843F4604393603E4A936823F0F003C6
:1019D000A1680B439360236813F0010F32D0636852
:1019E000012B21D09A1E012A25D9364A126812F0FD
:1019F000020F61D033498A6822F0030213438B60DF
:101A0000FFF7F0FB06462F4B9B6803F00C03626860
:101A1000B3EB820F16D0FFF7E5FB801B41F2883352
:101A20009842F0D9032042E0264A126812F4003F9F
:101A3000E0D101203BE0234A126812F0007FD9D1A7
:101A4000012034E01E4B1B6803F00F03AB4207D9A3
:101A5000EAB21B4B1A701B6803F00F03AB422DD187
:101A6000236813F0040F06D0164A936823F4E0535A
:101A7000E1680B439360236813F0080F07D0114A05
:101A8000936823F46043216943EAC1039360FFF73D
:101A90000BFF0C4B9B68C3F303130B4AD35CD8407A
:101AA0000A4B18600A4B1868FFF750FB002070BD06
:101AB000012070470120FAE70120F8E70120F6E74E
:101AC000003C02400038024070DE00080C0000209C
:101AD00004000020014B1868704700BF0C00002074
:101AE00008B5FFF7F7FF044B9B68C3F38223034A53
:101AF000D35CD84008BD00BF0038024080DE00083B
:101B000008B5FFF7E7FF044B9B68C3F34233034A72
:101B1000D35CD84008BD00BF0038024080DE00081A
:101B200028B370B50E461546044690F84930CBB13F
:101B3000214651F8080B00F05BFAA2683146206894
:101B400000F084FA236BA2682946606800F09EFAD0
:101B50002268A16852F8213043F0010342F8213095
:101B6000002070BD80F8483004F0A0FBE0E70120C1
:101B70007047000070B504460268136923F44053AF
:101B8000C1680B43136183680269134342691343BD
:101B9000C2691A430168CB6823F4164323F00C038F
:101BA0001343CB600268536923F4407381690B438C
:101BB0005361C369B3F5004F36D00368654A934259
:101BC00000F09A8002F58062934200F09580FFF762
:101BD00087FF0026051846EB06012D1846EB01018C
:101BE000CB0043EA5573EA001546194663689A002C
:101BF0009B0F281846EB0101FEF7DEFC564DA5FBB6
:101C000000325109642303FB11031B013233A5FB8E
:101C100003235B0903F0F00202EB011203F00F0350
:101C2000216813448B6093E003684A4A934233D09F
:101C300002F5806293422FD0FFF752FF002605186D
:101C400046EB06012D1846EB0101CB0043EA557324
:101C5000EA001546194662683346921846EB0303BC
:101C6000281846EB0101FEF7A7FC3B4DA5FB00320F
:101C70005109642303FB1103DB003233A5FB03236B
:101C80005B095A0002F4F87202EB011203F0070339
:101C9000216813448B605BE0FFF732FF00260518D4
:101CA00046EB06012D1846EB0101CB0043EA5573C4
:101CB000EA001546194662683346921846EB03035C
:101CC000281846EB0101FEF777FC234DA5FB0032F7
:101CD0005109642303FB1103DB003233A5FB03230B
:101CE0005B095A0002F4F87202EB011203F00703D9
:101CF000216813448B602BE0FFF702FF00260518D4
:101D000046EB06012D1846EB0101CB0043EA557363
:101D1000EA001546194663689A009B0F281846EB9F
:101D20000101FEF749FC0C4DA5FB0032510964236B
:101D300003FB11031B013233A5FB03235B0903F0F3
:101D4000F00202EB011203F00F03216813448B60D1
:101D500070BD00BF001001401F85EB512DE9F84315
:101D600005460F4616469946DDF820802C68246803
:101D700037EA04030CBF01240024B4421FD1B8F198
:101D8000FF3FF3D0B8F1000F05D0FFF72BFAA0EB1F
:101D900009004045EAD92A68D36823F4D073D36098
:101DA0002A68536923F001035361202385F83930F1
:101DB00085F83A30002385F83830032000E0002011
:101DC000BDE8F88358B310B5044690F839300BB32A
:101DD000242384F839302268D36823F40053D36075
:101DE0002046FFF7C7FE2268136923F4904313616E
:101DF0002268536923F02A0353612268D36843F4AD
:101E00000053D3600020E063202384F8393084F845
:101E10003A3010BD80F8383004F0BAFBD8E7012022
:101E200070472DE9F04383B01E4690F83930DBB29D
:101E3000202B59D104460D469046002958D0002A3F
:101E400058D090F83830012B56D0012380F8383024
:101E50004FF00009C0F83C90212380F83930FFF79B
:101E6000C1F90746A4F82480A4F8268084F83890A5
:101E700017E000963B46002280212046FFF76EFFC8
:101E800000283BD12B882268C3F3080353602369E1
:101E90000BB9023505E0013503E015F8012B236885
:101EA0005A60E38C9BB29BB1E28C92B2013A92B23F
:101EB000E284A368B3F5805FDBD000963B46002246
:101EC00080212046FFF74AFF0028E6D003200CE0DF
:101ED00000963B46002240212046FFF73FFF78B99D
:101EE000202384F8393000E0022003B0BDE8F083FD
:101EF0000120FAE70120F8E70220F6E70320F4E7E3
:101F00000320F2E72DE9F04383B01E4690F83A3003
:101F1000DBB2202B5DD104460D46904600295CD0F3
:101F2000002A5CD090F83830012B5AD0012380F879
:101F300038304FF00009C0F83C90222380F83A3046
:101F4000FFF750F90746A4F82C80A4F82E8084F8F7
:101F500038901DE000963B46002220212046FFF7E6
:101F6000FDFE00283FD1236933B923685B68C3F3C2
:101F7000080325F8023B0BE023685B68DBB225F819
:101F8000013B05E023685B6803F07F0305F8013B34
:101F9000E38D9BB2C3B1E28D92B2013A92B2E28577
:101FA000A368B3F5805FD5D000963B460022202180
:101FB0002046FFF7D3FEC0B92369002BE2D1236886
:101FC0005B6805F8013BE3E7202384F83A30002002
:101FD00000E0022003B0BDE8F0830120FAE7012011
:101FE000F8E70220F6E70320F4E70320F2E7000019
:101FF00070B40C6850F82430134E1E404A688D6847
:1020000042EA0503CA6813430A6913434A69134342
:102010008A691343CA6913430A6A13434A6A13431A
:102020008A6A1343CA6A1343CA6B13430A6B134386
:102030003343082D04D040F82430002070BC704792
:1020400043F04003F7E700BF8000F0FF30B40132F7
:1020500050F8224004F040440B684D6843EA0513F1
:102060008D6843EA0523CD6843EA05430D69013DC8
:1020700043EA05534D69023D43EA056389690B4311
:10208000234340F82230002030BC7047B3F5804F26
:1020900005D06FF0704340F822300020704730B414
:1020A00050F82230094C1C400B684D6843EA051378
:1020B0008D6843EA0523CD6843EA054389690B43EC
:1020C000234340F82230002030BC70470000F0CF9E
:1020D00082B0ADF80600BDF806309BB2ADF8063010
:1020E000BDF80620014B1A8002B070477E00006CDC
:1020F00082B0ADF80600BDF806309BB2ADF80630F0
:10210000BDF80620014B5A8002B070477E00006C7B
:1021100082B0044B5B88ADF80630BDF8060080B293
:1021200002B070477E00006C82B0ADF80600ADF8DA
:102130000410BDF80620034B1A80BDF804205A8015
:1021400002B070477E00006C00B583B0ADF80600A9
:10215000BDF8060080B2FFF7BBFF0120FFF748F88B
:10216000FFF7D6FF03B05DF804FB0000024B1A89AD
:10217000024B1A80704700BFE40900207E00006C0B
:1021800070B504460D46614B9B8849F2413293423B
:102190001FD045F2103293421BD046F60402934200
:1021A0002BD041F66312934246D045F2105293422F
:1021B00000F08680554B9B79012B00F09F80534E99
:1021C00021467089FFF7B0FF2946B089FFF7ACFFC1
:1021D00012E04E4E7089FFF77BFF200AFFF788FF61
:1021E000E0B2FFF785FFB089FFF772FF280AFFF71B
:1021F0007FFFE8B2FFF77CFF70BD444B9B79012B5A
:1022000013D0424E7089FFF763FF200AFFF770FF7B
:10221000E0B2FFF76DFFB089FFF75AFF280AFFF71A
:1022200067FFE8B2FFF764FFE6E7384B1B881C1A2C
:10223000A4B2013CA4B2E4E7344B9B7953BB334ACC
:1022400013881C1AA4B2013CA4B25089FFF740FFC6
:102250000020FFF74DFF0020FFF74AFF200AFFF79D
:1022600047FFE0B2FFF744FF284CA089FFF730FF9B
:10227000280AFFF73DFFE8B2FFF73AFF6088013810
:10228000C0F30F20FFF734FF60880138C0B2FFF7BA
:102290002FFFB1E71D4E7089FFF71AFF200AFFF7E5
:1022A00027FFE0B2FFF724FF30880138C0F30F208A
:1022B000FFF71EFF30880138C0B2FFF719FFD3E7E0
:1022C000124E7089FFF704FF200AFFF711FF708993
:1022D000013080B2FFF7FCFEE0B2FFF709FFB089E2
:1022E000FFF7F6FE280AFFF703FFB089013080B23E
:1022F000FFF7EEFEE8B2FFF7FBFE7DE7034B1B881E
:102300001C1AA4B2013CA4B259E700BFE4090020A2
:1023100010B5964B9B79012B29D02BB9934B9A88FA
:1023200041F663139A422CD0904B9B8849F241327C
:1023300093423ED046F6040293423AD045F2103220
:10234000934236D045F21052934232D041F6631296
:1023500093422ED0072800F2F480DFE810F0050148
:10236000F400FB00F200FD00FF00010103017F4AC1
:10237000928846F604018A42CFD041F663118A4220
:10238000CBD00728D0D8DFE800F0120406080A0CEA
:102390000E100720C8E70420C6E70520C4E7012087
:1023A000C2E70020C0E70320BEE70220BCE706200A
:1023B000BAE70138062805D8DFE800F06A0660624F
:1023C00064666800002400E0402445F21052934205
:1023D00060D0362045F21032934209D045F21052B7
:1023E000934205D041F66312934201D044F00804B1
:1023F00046F60402934250D02146FFF795FE5B4B10
:102400009B8841F6631293420AD014F0200F47D004
:10241000564A11885288914202D254480280418023
:1024200045F21052934244D0504C6089FFF750FE61
:102430000020FFF75DFE0020FFF75AFE20880138DC
:10244000C0F30F20FFF754FE20880138C0B2FFF719
:102450004FFEA089FFF73CFE0020FFF749FE002059
:10246000FFF746FE60880138C0F30F20FFF740FEFB
:1024700060880138C0B2FFF73BFE10BDC024A4E75E
:102480002024A2E76024A0E7A0249EE7E0249CE7A4
:1024900080249AE74FF458509CE744F00204ABE7DD
:1024A000324A118852889142BAD93048028041801C
:1024B000B6E72E4C6089FFF70BFE0020FFF718FEF1
:1024C0006089013080B2FFF703FE0020FFF710FEA5
:1024D0006089023080B2FFF7FBFD20880138C0F32D
:1024E0000F20FFF705FE6089033080B2FFF7F0FD93
:1024F00020880138C0B2FFF7FBFDA089FFF7E8FD97
:102500000020FFF7F5FDA089013080B2FFF7E0FD64
:102510000020FFF7EDFDA089023080B2FFF7D8FD63
:1025200060880138C0F30F20FFF7E2FDA089033077
:1025300080B2FFF7CDFD60880138C0B2FFF7D8FD4B
:102540009BE7002100E0102141F480510320FFF7B8
:10255000EBFD92E72021F7E73821F5E72821F3E7A3
:102560001821F1E70821EFE73021EDE7E409002029
:102570002DE9F04104460D461646584B9B8849F21A
:10258000413293421ED045F2103293421AD045F2A6
:102590001052934230D041F6631293424AD046F62D
:1025A0000402934274D04D4B9B79012B00F08F8035
:1025B0004A4F21467889FFF7B7FD2946B889FFF7CA
:1025C000B3FD12E0454F7889FFF782FD200AFFF73F
:1025D0008FFDE0B2FFF78CFDB889FFF779FD280A7F
:1025E000FFF786FDE8B2FFF783FD3C4B1A893C4BB1
:1025F0001A805E80BDE8F081384F7889FFF768FD6A
:10260000200AFFF775FD7889013080B2FFF760FD81
:10261000E0B2FFF76DFDB889FFF75AFD280AFFF712
:1026200067FDB889013080B2FFF752FDE8B2FFF7CD
:102630005FFDDAE7294B9B792BB9284B1888041BDF
:10264000A4B2013CA4B2254F7889FFF741FD4FEABF
:1026500014284046FFF74CFDE4B22046FFF748FD42
:102660004046FFF745FD2046FFF742FDB889FFF7DA
:102670002FFD2C0A2046FFF73BFDEDB22846FFF761
:1026800037FD2046FFF734FD2846FFF731FDACE764
:10269000124B9B79012B13D0104F7889FFF718FD4F
:1026A000200AFFF725FDE0B2FFF722FDB889FFF70A
:1026B0000FFD280AFFF71CFDE8B2FFF719FD94E7AC
:1026C000064B1B881C1AA4B2013CA4B2E4E7034BDE
:1026D0001B881C1AA4B2013CA4B269E7E4090020DB
:1026E0007E00006C0000000010B50446BE20FFF71D
:1026F000EFFC0520FFF7FCFC2046FDF7D3FE0CA302
:10270000D3E90023FEF74AFAFDF736FF80B2FFF760
:10271000EFFC0120FFF7ECFCFF20FFF7E9FC0020B5
:10272000FFF7E6FC0020FFF7E3FC10BDAFF30080ED
:10273000666666666666044008B500285AD1604B36
:1027400000229A71F0221A804FF4A0725A809B885E
:1027500049F24132934217D046F60402934213D015
:1027600045F2103293420FD045F21052934222D0DC
:1027700041F6631293422FD0514B22221A8120221C
:102780005A8121229A8170E04D4A2C2111812A21FF
:1027900051812B21918146F60402934203D045F2E8
:1027A0001032934261D1464B4FF4A0721A804FF41D
:1027B000F0725A8059E0424B4FF430521A814FF474
:1027C00028525A814FF42C529A814FF4F0721A8099
:1027D0004FF448725A8048E0394B2C221A812B2240
:1027E0005A812A229A814FF4F0721A804FF448726B
:1027F0005A803AE0324B01229A714FF4A0721A804B
:10280000F0225A809B8849F24132934217D045F218
:102810001032934213D046F60402934229D045F277
:10282000105293422DD041F6631293423AD0244A7B
:1028300022211181212151812021918106E0204A0C
:102840002C2111812A2151812B21918146F60402EC
:10285000934203D045F21032934206D1184B4FF405
:10286000F0721A804FF4A0725A800020FFF750FDDA
:1028700008BD134A2C2111812B2151812A219181DC
:10288000E4E70F4A4FF4305111814FF42851518140
:102890004FF42C5191814FF4487111804FF4F07135
:1028A0005180D3E7064A2C2111812A2151812B2105
:1028B00091814FF4487111804FF4F0715180C5E758
:1028C000E40900202DE9F0410546174B1C885A8881
:1028D00004FB02F49A8846F604039A4203D1124B91
:1028E0009B79012B07D000210846FFF749FCFFF731
:1028F0003DFC002314E00C4E0020B0712A277781A4
:102900004FF02B08A6F80C800146FFF739FC012395
:10291000B371A6F80A80B781E9E7044A558001330C
:10292000A342FAD3BDE8F081E40900207E00006CE8
:1029300010B582B00024019401212046FFF7F4FB7A
:102940003220FEF755FC2046FFF7FEFB624B9880D5
:10295000A0F1FF039BB2B3F57F4F33D2B0F5134F15
:1029600030D05D4B998849F24133994200F0B880EC
:1029700045F21033994200F0B38045F2105399426A
:1029800000F0AE8041F66313994200F0A98046F64C
:102990000403994204D04CF20553994240F0B180AF
:1029A0004E4B9A6922F00F029A619A6922F4706282
:1029B0009A619A6942F00A029A619A6942F4406205
:1029C0009A619EE0D320FFF783FBFFF7A1FB424C07
:1029D000A080FFF79DFBA080FFF79AFB0002A0807C
:1029E000FFF796FBA388184380B2A08049F24133D9
:1029F0009842B6D0BF20FFF76BFBFFF789FBA080A2
:102A0000FFF786FBA080FFF783FBA080FFF780FB2A
:102A10000002A080FFF77CFBA388184380B2A0804F
:102A200046F6040398429CD0D420FFF751FBFFF7F1
:102A30006FFBA080FFF76CFBA080FFF769FB000233
:102A4000A080FFF765FBA388184380B2A08045F201
:102A50001033984285D04FF45A40FFF739FBFFF707
:102A600057FBA0804FF45B40FFF732FBFFF750FBB2
:102A70000002A0804FF45C40FFF72AFBFFF748FB01
:102A8000A388184380B2A080B0F5004F20D0124B2D
:102A90009A8845F210539A423FF463AFA120FFF7A2
:102AA00017FBFFF735FB0C4CA080FFF731FB000252
:102AB000A080FFF72DFBA38803439BB2A38045F2C0
:102AC000617293427FF44DAF41F66312A28048E7F2
:102AD00045F21052A280DAE7E4090020040100A0C8
:102AE0008C4B9A6922F00F029A619A6922F4706203
:102AF0009A619A6942F003029A619A6942F40072FB
:102B00009A61854803F022FE844B9B8849F241324A
:102B1000934200F0058146F60402934200F02682BB
:102B200045F21032934200F0CD8245F210529342AA
:102B300001F0418249F22532934202F0BA8149F212
:102B40002832934202F08C8249F22032934202F002
:102B50007B8349F23132934202F0238445F20842EA
:102B6000934202F0018541F20552934202F09F85A3
:102B70004BF20552934202F0AE864CF2055293425C
:102B800002F0AC8744F23152934203F0778044F272
:102B90003552934203F02D8141F66312934240F087
:102BA000D681E220FFF794FA1D20FFF7A1FA022058
:102BB000FFF79EFA0420FFF79BFA0120FEF718FBAF
:102BC000E020FFF785FA0120FFF792FA0A20FEF7CE
:102BD0000FFBE020FFF77CFA0320FFF789FA0C20B7
:102BE000FEF706FB0120FFF773FA0A20FEF700FB51
:102BF000E620FFF76DFA2F20FFF77AFAFF20FFF7A4
:102C000077FAFF20FFF774FAB020FFF761FA20206F
:102C1000FFF76EFA0020FFF76BFA0320FFF768FA60
:102C200040F21F30FFF764FA0120FFF761FA40F22B
:102C3000DF10FFF75DFA0020FFF75AFAB420FFF724
:102C400047FA0420FFF754FA40F21F40FFF750FA0A
:102C50000020FFF74DFA2E20FFF74AFA1D20FFF75C
:102C600047FA0020FFF744FA0020FFF741FA00205E
:102C7000FFF73EFAB620FFF72BFA0220FFF738FAEB
:102C80004FF40370FFF734FA0020FFF731FA1720F2
:102C9000FFF72EFA1520FFF72BFA0020FFF728FA8E
:102CA0000020FFF725FAF020FFF712FA0320FFF7C4
:102CB0001FFA2920FFF70CFAD020FFF709FA0020AD
:102CC000FFF716FABE20FFF703FA0520FFF710FA08
:102CD000FE20FFF70DFA0120FFF70AFA0020FFF7A8
:102CE00007FA0020FFF704FA0020FFF701FAB820E6
:102CF000FFF7EEF90320FFF7FBF90120FFF7F8F9E2
:102D0000BA20FFF7E5F90120FFF7F2F96420FFF799
:102D1000EBFC1CE1040100A098C60008E4090020B7
:102D2000CF20FFF7D5F90020FFF7E2F9019B01332F
:102D30000193C120FFF7DCF93020FFF7D9F9ED202E
:102D4000FFF7C6F96420FFF7D3F90320FFF7D0F9A6
:102D50001220FFF7CDF98120FFF7CAF9E820FFF72D
:102D6000B7F98520FFF7C4F91020FFF7C1F97A20E1
:102D7000FFF7BEF9CB20FFF7ABF93920FFF7B8F921
:102D80002C20FFF7B5F90020FFF7B2F93420FFF748
:102D9000AFF90220FFF7ACF9F720FFF799F92020EF
:102DA000FFF7A6F9EA20FFF793F90020FFF7A0F953
:102DB0000020FFF79DF9C020FFF78AF91B20FFF7DD
:102DC00097F9C120FFF784F90120FFF791F9C52099
:102DD000FFF77EF93020FFF78BF93020FFF788F9F5
:102DE000C720FFF775F9B720FFF782F93620FFF704
:102DF0006FF94820FFF77CF93A20FFF769F9552071
:102E0000FFF776F9B120FFF763F90020FFF770F9BB
:102E10001A20FFF76DF9B620FFF75AF90A20FFF7DD
:102E200067F9A220FFF764F9F220FFF751F90020BB
:102E3000FFF75EF92620FFF74BF90120FFF758F95D
:102E4000E020FFF745F90F20FFF752F92A20FFF79E
:102E50004FF92820FFF74CF90820FFF749F90E2019
:102E6000FFF746F90820FFF743F95420FFF740F930
:102E7000A920FFF73DF94320FFF73AF90A20FFF7B1
:102E800037F90F20FFF734F90020FFF731F9002060
:102E9000FFF72EF90020FFF72BF90020FFF728F9A4
:102EA000E120FFF715F90020FFF722F91520FFF7C1
:102EB0001FF91720FFF71CF90720FFF719F9112058
:102EC000FFF716F90620FFF713F92B20FFF710F98B
:102ED0005620FFF70DF93C20FFF70AF90520FFF710
:102EE00007F91020FFF704F90F20FFF701F93F2041
:102EF000FFF7FEF83F20FFF7FBF80F20FFF7F8F889
:102F00002B20FFF7E5F80020FFF7F2F80020FFF78D
:102F1000EFF80120FFF7ECF83F20FFF7E9F82A204F
:102F2000FFF7D6F80020FFF7E3F80020FFF7E0F8FE
:102F30000020FFF7DDF8EF20FFF7DAF81120FFF7A8
:102F4000C7F87820FEF754F92920FFF7C1F80020D0
:102F5000FFF7F2FB01224FF400415948FEF79EFAB9
:102F60004FF6FF70FFF7AEFC02B010BD1120FFF767
:102F7000AFF81420FEF73CF9D020FFF7A9F807209E
:102F8000FFF7B6F84220FFF7B3F81D20FFF7B0F8BF
:102F9000D120FFF79DF80020FFF7AAF81A20FFF7CD
:102FA000A7F80920FFF7A4F8D220FFF791F8012035
:102FB000FFF79EF82220FFF79BF8C020FFF788F864
:102FC0001020FFF795F83B20FFF792F80020FFF75D
:102FD0008FF80220FFF78CF81120FFF789F8C52041
:102FE000FFF776F80320FFF783F8C820FFF770F8A3
:102FF0000020FFF77DF82520FFF77AF82120FFF762
:1030000077F80520FFF774F80020FFF771F80A2021
:10301000FFF76EF86520FFF76BF82520FFF768F8DB
:103020007720FFF765F85020FFF762F80F20FFF7D1
:103030005FF80020FFF75CF8F820FFF749F801205F
:10304000FFF756F8FE20FFF743F80020FFF750F88F
:103050000220FFF74DF82020FFF73AF83620FFF75F
:1030600037F80820FFF744F83A20FFF731F85520E9
:10307000FFF73EF82B20FFF72BF80020FFF738F87A
:103080000020FFF735F80120FFF732F83F20FFF767
:103090002FF82A20FFF71CF80020FFF729F800205E
:1030A000FFF726F80120FFF723F8DF20FFF720F8CD
:1030B0007820FEF79DF82920FFF70AF847E700BFC0
:1030C00000040240ED20FFF703F80120FFF710F89D
:1030D000FE20FFF70DF8EE20FEF7FAFFDE20FFF7E7
:1030E00007F82120FFF704F8F120FEF7F1FF012097
:1030F000FEF7FEFFDF20FEF7EBFF1020FEF7F8FFE4
:10310000C420FEF7E5FF8F20FEF7F2FFC620FEF792
:10311000DFFF0020FEF7ECFFE220FEF7E9FFE220F0
:10312000FEF7E6FFE220FEF7E3FFBF20FEF7D0FF49
:10313000AA20FEF7DDFFB020FEF7CAFF0D20FEF744
:10314000D7FF0020FEF7D4FF0D20FEF7D1FF0020AF
:10315000FEF7CEFF1120FEF7CBFF0020FEF7C8FFE1
:103160001920FEF7C5FF0020FEF7C2FF2120FEF761
:10317000BFFF0020FEF7BCFF2D20FEF7B9FF0020A7
:10318000FEF7B6FF3D20FEF7B3FF0020FEF7B0FFCD
:103190005D20FEF7ADFF0020FEF7AAFF5D20FEF7E1
:1031A000A7FF0020FEF7A4FFB120FEF791FF8020CB
:1031B000FEF79EFF0020FEF79BFF8B20FEF798FF97
:1031C0000020FEF795FF9620FEF792FF0020FEF705
:1031D0008FFFB220FEF77CFF0020FEF789FF002062
:1031E000FEF786FF0220FEF783FF0020FEF780FF38
:1031F0000320FEF77DFF0020FEF77AFFB320FEF7E5
:1032000067FF0020FEF774FF0020FEF771FF00202B
:10321000FEF76EFF0020FEF76BFF0020FEF768FF51
:103220000020FEF765FF0020FEF762FF0020FEF79A
:103230005FFF0020FEF75CFF0020FEF759FF002033
:10324000FEF756FF0020FEF753FF0020FEF750FF69
:103250000020FEF74DFF0020FEF74AFF0020FEF79A
:1032600047FF0020FEF744FF0020FEF741FF00204B
:10327000FEF73EFF0020FEF73BFF0020FEF738FF81
:103280000020FEF735FF0020FEF732FF0020FEF79A
:103290002FFFB420FEF71CFF8B20FEF729FF002034
:1032A000FEF726FF9620FEF723FF0020FEF720FF03
:1032B000A120FEF71DFF0020FEF71AFFB520FEF744
:1032C00007FF0220FEF714FF0020FEF711FF032086
:1032D000FEF70EFF0020FEF70BFF0420FEF708FFAD
:1032E0000020FEF705FFB620FEF7F2FE0020FEF7F5
:1032F000FFFE0020FEF7FCFEB720FEF7E9FE0020EF
:10330000FEF7F6FE0020FEF7F3FE3F20FEF7F0FE8C
:103310000020FEF7EDFE5E20FEF7EAFE0020FEF73D
:10332000E7FE6420FEF7E4FE0020FEF7E1FE8C20BD
:10333000FEF7DEFE0020FEF7DBFEAC20FEF7D8FE37
:103340000020FEF7D5FEDC20FEF7D2FE0020FEF7BF
:10335000CFFE7020FEF7CCFE0020FEF7C9FE9020C5
:10336000FEF7C6FE0020FEF7C3FEEB20FEF7C0FE10
:103370000020FEF7BDFEDC20FEF7BAFE0020FEF7BF
:10338000B7FEB820FEF7A4FE0020FEF7B1FE002035
:10339000FEF7AEFE0020FEF7ABFE0020FEF7A8FE13
:1033A0000020FEF7A5FE0020FEF7A2FE0020FEF79B
:1033B0009FFE0020FEF79CFEBA20FEF789FE242027
:1033C000FEF796FE0020FEF793FE0020FEF790FE2B
:1033D0000020FEF78DFEC120FEF77AFE2020FEF7CA
:1033E00087FE0020FEF784FE5420FEF781FE0020B9
:1033F000FEF77EFEFF20FEF77BFE0020FEF778FE44
:10340000C220FEF765FE0A20FEF772FE0020FEF7DE
:103410006FFE0420FEF76CFE0020FEF769FEC3205D
:10342000FEF756FE3C20FEF763FE0020FEF760FE2E
:103430003A20FEF75DFE0020FEF75AFE3920FEF727
:1034400057FE0020FEF754FE3720FEF751FE002005
:10345000FEF74EFE3C20FEF74BFE0020FEF748FE36
:103460003620FEF745FE0020FEF742FE3220FEF732
:103470003FFE0020FEF73CFE2F20FEF739FE002025
:10348000FEF736FE2C20FEF733FE0020FEF730FE5E
:103490002920FEF72DFE0020FEF72AFE2620FEF74B
:1034A00027FE0020FEF724FE2420FEF721FE002048
:1034B000FEF71EFE2420FEF71BFE0020FEF718FE7E
:1034C0002320FEF715FE0020FEF712FE3C20FEF73B
:1034D0000FFE0020FEF70CFE3620FEF709FE00204E
:1034E000FEF706FE3220FEF703FE0020FEF700FE88
:1034F0002F20FEF7FDFD0020FEF7FAFD2C20FEF741
:10350000F7FD0020FEF7F4FD2920FEF7F1FD002075
:10351000FEF7EEFD2620FEF7EBFD0020FEF7E8FDAE
:103520002420FEF7E5FD0020FEF7E2FD2420FEF753
:10353000DFFD0020FEF7DCFD2320FEF7D9FD002093
:10354000FEF7D6FDC420FEF7C3FD6220FEF7D0FDD6
:103550000020FEF7CDFD0520FEF7CAFD0020FEF796
:10356000C7FD8420FEF7C4FD0020FEF7C1FDF0205A
:10357000FEF7BEFD0020FEF7BBFD1820FEF7B8FDEC
:103580000020FEF7B5FDA420FEF7B2FD0020FEF7F7
:10359000AFFD1820FEF7ACFD0020FEF7A9FD50207E
:1035A000FEF7A6FD0020FEF7A3FD0C20FEF7A0FD10
:1035B0000020FEF79DFD1720FEF79AFD0020FEF784
:1035C00097FD9520FEF794FD0020FEF791FDF32076
:1035D000FEF78EFD0020FEF78BFDE620FEF788FD4E
:1035E0000020FEF785FDC520FEF772FD3220FEF7B4
:1035F0007FFD0020FEF77CFD4420FEF779FD0020D2
:10360000FEF776FD6520FEF773FD0020FEF770FDE6
:103610007620FEF76DFD0020FEF76AFD8820FEF79C
:1036200067FD0020FEF764FDC620FEF751FD202057
:10363000FEF75EFD0020FEF75BFD1720FEF758FD4C
:103640000020FEF755FD0120FEF752FD0020FEF799
:103650004FFDC720FEF73CFD0020FEF749FD00208E
:10366000FEF746FD0020FEF743FD0020FEF740FD7B
:10367000C820FEF72DFD0020FEF73AFD0020FEF7E2
:1036800037FD0020FEF734FD0020FEF731FDC92094
:10369000FEF71EFD0020FEF72BFD0020FEF728FDA3
:1036A0000020FEF725FD0020FEF722FD0020FEF79A
:1036B0001FFD0020FEF71CFD0020FEF719FD002075
:1036C000FEF716FD0020FEF713FD0020FEF710FDAB
:1036D0000020FEF70DFD0020FEF70AFD0020FEF79A
:1036E00007FD0020FEF704FD0020FEF701FD00208D
:1036F000FEF7FEFCE020FEF7EBFC1620FEF7F8FCE0
:103700000020FEF7F5FC1C20FEF7F2FC0020FEF77F
:10371000EFFC2120FEF7ECFC0020FEF7E9FC362050
:10372000FEF7E6FC0020FEF7E3FC4620FEF7E0FC97
:103730000020FEF7DDFC5220FEF7DAFC0020FEF749
:10374000D7FC6420FEF7D4FC0020FEF7D1FC7A20E1
:10375000FEF7CEFC0020FEF7CBFC8B20FEF7C8FC6A
:103760000020FEF7C5FC9920FEF7C2FC0020FEF702
:10377000BFFCA820FEF7BCFC0020FEF7B9FCB92076
:10378000FEF7B6FC0020FEF7B3FCC420FEF7B0FC49
:103790000020FEF7ADFCCA20FEF7AAFC0020FEF7D1
:1037A000A7FCD220FEF7A4FC0020FEF7A1FCD92044
:1037B000FEF79EFC0020FEF79BFCE020FEF798FC45
:1037C0000020FEF795FCF320FEF792FC0020FEF7A8
:1037D0008FFCE120FEF77CFC1620FEF789FC002020
:1037E000FEF786FC1C20FEF783FC0020FEF780FC21
:1037F0002220FEF77DFC0020FEF77AFC3620FEF743
:1038000077FC0020FEF774FC4520FEF771FC0020D9
:10381000FEF76EFC5220FEF76BFC0020FEF768FC02
:103820006420FEF765FC0020FEF762FC7A20FEF7BC
:103830005FFC0020FEF75CFC8B20FEF759FC0020AB
:10384000FEF756FC9920FEF753FC0020FEF750FCD3
:10385000A820FEF74DFC0020FEF74AFCB920FEF739
:1038600047FC0020FEF744FCC420FEF741FC00208A
:10387000FEF73EFCCA20FEF73BFC0020FEF738FCBA
:10388000D220FEF735FC0020FEF732FCD820FEF7F0
:103890002FFC0020FEF72CFCE020FEF729FC002086
:1038A000FEF726FCF320FEF723FC0020FEF720FCA9
:1038B000E220FEF70DFC0520FEF71AFC0020FEF7C3
:1038C00017FC0B20FEF714FC0020FEF711FC1B2058
:1038D000FEF70EFC0020FEF70BFC3420FEF708FC80
:1038E0000020FEF705FC4420FEF702FC0020FEF756
:1038F000FFFB4F20FEF7FCFB0020FEF7F9FB6120E9
:10390000FEF7F6FB0020FEF7F3FB7920FEF7F0FB55
:103910000020FEF7EDFB8820FEF7EAFB0020FEF713
:10392000E7FB9720FEF7E4FB0020FEF7E1FBA62073
:10393000FEF7DEFB0020FEF7DBFBB720FEF7D8FB2F
:103940000020FEF7D5FBC220FEF7D2FB0020FEF7D9
:10395000CFFBC720FEF7CCFB0020FEF7C9FBD12030
:10396000FEF7C6FB0020FEF7C3FBD620FEF7C0FB28
:103970000020FEF7BDFBDD20FEF7BAFB0020FEF7BE
:10398000B7FBF320FEF7B4FB0020FEF7B1FBE3200A
:10399000FEF79EFB0520FEF7ABFB0020FEF7A8FB21
:1039A0000A20FEF7A5FB0020FEF7A2FB1C20FEF775
:1039B0009FFB0020FEF79CFB3320FEF799FB0020C5
:1039C000FEF796FB4420FEF793FB0020FEF790FBEA
:1039D0005020FEF78DFB0020FEF78AFB6220FEF7E9
:1039E00087FB0020FEF784FB7820FEF781FB002098
:1039F000FEF77EFB8820FEF77BFB0020FEF778FBBE
:103A00009720FEF775FB0020FEF772FBA620FEF75D
:103A10006FFB0020FEF76CFBB720FEF769FB002070
:103A2000FEF766FBC220FEF763FB0020FEF760FB9B
:103A3000C720FEF75DFB0020FEF75AFBD120FEF702
:103A400057FB0020FEF754FBD520FEF751FB00206A
:103A5000FEF74EFBDD20FEF74BFB0020FEF748FB98
:103A6000F320FEF745FB0020FEF742FBE420FEF7C3
:103A70002FFB0120FEF73CFB0020FEF739FB012065
:103A8000FEF736FB0020FEF733FB0220FEF730FB8B
:103A90000020FEF72DFB2A20FEF72AFB0020FEF770
:103AA00027FB3C20FEF724FB0020FEF721FB4B20E8
:103AB000FEF71EFB0020FEF71BFB5D20FEF718FB48
:103AC0000020FEF715FB7420FEF712FB0020FEF726
:103AD0000FFB8420FEF70CFB0020FEF709FB932070
:103AE000FEF706FB0020FEF703FBA220FEF700FB1B
:103AF0000020FEF7FDFAB320FEF7FAFA0020FEF7E9
:103B0000F7FABE20FEF7F4FA0020FEF7F1FAC4201F
:103B1000FEF7EEFA0020FEF7EBFACD20FEF7E8FA0A
:103B20000020FEF7E5FAD320FEF7E2FA0020FEF7C8
:103B3000DFFADD20FEF7DCFA0020FEF7D9FAF320E9
:103B4000FEF7D6FA0020FEF7D3FAE520FEF7C0FA1A
:103B50000020FEF7CDFA0020FEF7CAFA0020FEF79B
:103B6000C7FA0020FEF7C4FA0220FEF7C1FA0020CF
:103B7000FEF7BEFA2920FEF7BBFA0020FEF7B8FADE
:103B80003C20FEF7B5FA0020FEF7B2FA4B20FEF714
:103B9000AFFA0020FEF7ACFA5D20FEF7A9FA00208C
:103BA000FEF7A6FA7420FEF7A3FA0020FEF7A0FAAB
:103BB0008420FEF79DFA0020FEF79AFA9320FEF784
:103BC00097FA0020FEF794FAA220FEF791FA00205F
:103BD000FEF78EFAB320FEF78BFA0020FEF788FA84
:103BE000BE20FEF785FA0020FEF782FAC420FEF719
:103BF0007FFA0020FEF77CFACD20FEF779FA00204C
:103C0000FEF776FAD320FEF773FA0020FEF770FA7B
:103C1000DC20FEF76DFA0020FEF76AFAF320FEF7CB
:103C200067FA0020FEF764FAE620FEF751FA112049
:103C3000FEF75EFA0020FEF75BFA3420FEF758FA32
:103C40000020FEF755FA5620FEF752FA0020FEF744
:103C50004FFA7620FEF74CFA0020FEF749FA77205B
:103C6000FEF746FA0020FEF743FA6620FEF740FA18
:103C70000020FEF73DFA8820FEF73AFA0020FEF712
:103C800037FA9920FEF734FA0020FEF731FABB200C
:103C9000FEF72EFA0020FEF72BFA9920FEF728FAFD
:103CA0000020FEF725FA6620FEF722FA0020FEF734
:103CB0001FFA5520FEF71CFA0020FEF719FA5520CE
:103CC000FEF716FA0020FEF713FA4520FEF710FA69
:103CD0000020FEF70DFA4320FEF70AFA0020FEF757
:103CE00007FA4420FEF704FA0020FEF701FAE72065
:103CF000FEF7EEF93220FEF7FBF90020FEF7F8F9A7
:103D00005520FEF7F5F90020FEF7F2F97620FEF7D0
:103D1000EFF90020FEF7ECF96620FEF7E9F9002044
:103D2000FEF7E6F96720FEF7E3F90020FEF7E0F979
:103D30006720FEF7DDF90020FEF7DAF98720FEF7AD
:103D4000D7F90020FEF7D4F99920FEF7D1F9002029
:103D5000FEF7CEF9BB20FEF7CBF90020FEF7C8F93D
:103D60009920FEF7C5F90020FEF7C2F97720FEF78B
:103D7000BFF90020FEF7BCF94420FEF7B9F9002096
:103D8000FEF7B6F95620FEF7B3F90020FEF7B0F9BA
:103D90002320FEF7ADF90020FEF7AAF93320FEF745
:103DA000A7F90020FEF7A4F94520FEF7A1F90020AD
:103DB000FEF79EF9E820FEF78BF90020FEF798F950
:103DC0000020FEF795F99920FEF792F90020FEF702
:103DD0008FF98720FEF78CF90020FEF789F98820FB
:103DE000FEF786F90020FEF783F97720FEF780F9C9
:103DF0000020FEF77DF96620FEF77AF90020FEF735
:103E000077F98820FEF774F90020FEF771F9AA20EF
:103E1000FEF76EF90020FEF76BF9BB20FEF768F99C
:103E20000020FEF765F99920FEF762F90020FEF701
:103E30005FF96620FEF75CF90020FEF759F955207E
:103E4000FEF756F90020FEF753F95520FEF750F91A
:103E50000020FEF74DF94420FEF74AF90020FEF756
:103E600047F94420FEF744F90020FEF741F95520B8
:103E7000FEF73EF90020FEF73BF9E920FEF728F9AE
:103E8000AA20FEF735F90020FEF732F90020FEF7F0
:103E90002FF90020FEF72CF90020FEF719F9AA20CF
:103EA000FEF726F9CF20FEF713F90020FEF720F9E0
:103EB0000020FEF71DF90020FEF71AF90020FEF79A
:103EC00017F90020FEF714F90020FEF711F9002081
:103ED000FEF70EF90020FEF70BF90020FEF708F9B7
:103EE0000020FEF705F90020FEF702F90020FEF79A
:103EF000FFF80020FEF7FCF80020FEF7F9F800209C
:103F0000FEF7F6F80020FEF7F3F80020FEF7F0F8D1
:103F1000F020FEF7DDF80020FEF7EAF85020FEF76B
:103F2000E7F80020FEF7E4F80020FEF7E1F80020B3
:103F3000FEF7DEF8F320FEF7CBF80020FEF7D8F806
:103F4000F920FEF7C5F80620FEF7D2F81020FEF79C
:103F5000CFF82920FEF7CCF80020FEF7C9F83A2068
:103F6000FEF7B6F85520FEF7C3F81120FEF7B0F8BB
:103F70006420FDF73DF92920FEF7AAF83520FEF769
:103F8000A7F80020FEF7B4F85120FEF7A1F8FF20B3
:103F9000FEF7AEF85320FEF79BF82C20FEF7A8F8AA
:103FA0005520FEF795F88220FEF7A2F82C20FEF7A8
:103FB0008FF8FEF7CCBF55214FF47040FEF7B4F8F0
:103FC000AA214FF20100FEF7AFF852214FF2020092
:103FD000FEF7AAF808214FF20300FEF7A5F8012129
:103FE0004FF20400FEF7A0F80D214FF43040FEF729
:103FF0009BF80D214BF20100FEF796F80D214BF2D4
:104000000200FEF791F834214FF43640FEF78CF8A9
:1040100034214BF20160FEF787F834214BF2026045
:10402000FEF782F80D214FF43140FEF77DF80D21A7
:104030004BF20110FEF778F80D214BF20210FEF75B
:1040400073F834214FF43740FEF76EF834214BF209
:104050000170FEF769F834214BF20270FEF764F844
:1040600000214FF43240FEF75FF800214BF20120AF
:10407000FEF75AF800214BF20220FEF755F82421F2
:104080004FF43840FEF750F824214BF60100FEF7BC
:104090004BF824214BF60200FEF746F801214FF4BD
:1040A0003F40FEF741F80F214FF43340FEF73CF854
:1040B0000F214BF20130FEF737F80F214BF202309F
:1040C000FEF732F834214FF43940FEF72DF8342151
:1040D0004BF60110FEF728F834214BF60210FEF7DC
:1040E00023F808214FF43540FEF71EF808214BF263
:1040F0000150FEF719F808214BF20250FEF714F8B0
:1041000003214FF44240FEF70FF824214FF43A40C8
:10411000FEF70AF824214BF60120FEF705F82421CA
:104120004BF60220FEF700F800214FF43C40FDF76B
:10413000FBFF78214BF60140FDF7F6FF00214BF61F
:104140000240FDF7F1FF00214FF43D40FDF7ECFF89
:1041500078214BF60150FDF7E7FF00214BF60250A6
:10416000FDF7E2FF00214FF43E40FDF7DDFF642143
:104170004BF60160FDF7D8FF00214FF45140FDF7E9
:10418000D3FF33214DF20110FDF7CEFF00214DF298
:104190000210FDF7C9FF34214DF20310FDF7C4FFF3
:1041A00000214DF20410FDF7BFFF3A214DF205103A
:1041B000FDF7BAFF00214DF20610FDF7B5FF4A21C9
:1041C0004DF20710FDF7B0FF00214DF20810FDF78A
:1041D000ABFF5C214DF20910FDF7A6FF00214DF267
:1041E0000A10FDF7A1FF81214DF20B10FDF79CFF96
:1041F00000214DF20C10FDF797FFA6214DF20D1096
:10420000FDF792FF00214DF20E10FDF78DFFE52125
:104210004DF20F10FDF788FF01214DF21010FDF750
:1042200083FF13214DF21110FDF77EFF01214DF2A6
:104230001210FDF779FF54214DF21310FDF774FFB2
:1042400001214DF21410FDF76FFF82214DF2151080
:10425000FDF76AFF01214DF21610FDF765FFCA2137
:104260004DF21710FDF760FF02214DF21810FDF717
:104270005BFF00214DF21910FDF756FF02214DF2B0
:104280001A10FDF751FF01214DF21B10FDF74CFFF5
:1042900002214DF21C10FDF747FF34214DF21D1095
:1042A000FDF742FF02214DF21E10FDF73DFF672191
:1042B0004DF21F10FDF738FF02214DF22010FDF7DF
:1042C00033FF84214DF22110FDF72EFF02214DF224
:1042D0002210FDF729FFA4214DF22310FDF724FF42
:1042E00002214DF22410FDF71FFFB7214DF22510DA
:1042F000FDF71AFF02214DF22610FDF715FFCF2121
:104300004DF22710FDF710FF02214DF22810FDF7A6
:104310000BFFDE214DF22910FDF706FF02214DF2C1
:104320002A10FDF701FFF2214DF22B10FDF7FCFEE4
:1043300002214DF22C10FDF7F7FEFE214DF22D105B
:10434000FDF7F2FE03214DF22E10FDF7EDFE1021D8
:104350004DF22F10FDF7E8FE03214DF23010FDF76E
:10436000E3FE33214DF23110FDF7DEFE03214DF265
:104370003210FDF7D9FE6D214DF23310FDF7D4FE5A
:1043800000214FF45240FDF7CFFE33214DF20120C2
:10439000FDF7CAFE00214DF20220FDF7C5FE3421D3
:1043A0004DF20320FDF7C0FE00214DF20420FDF781
:1043B000BBFE3A214DF20520FDF7B6FE00214DF27D
:1043C0000620FDF7B1FE4A214DF20720FDF7ACFEB5
:1043D00000214DF20820FDF7A7FE5C214DF20920D7
:1043E000FDF7A2FE00214DF20A20FDF79DFE81217E
:1043F0004DF20B20FDF798FE00214DF20C20FDF749
:1044000093FEA6214DF20D20FDF78EFE00214DF208
:104410000E20FDF789FEE5214DF20F20FDF784FE09
:1044200001214DF21020FDF77FFE13214DF21120E6
:10443000FDF77AFE01214DF21220FDF775FE5421A1
:104440004DF21320FDF770FE01214DF21420FDF70F
:104450006BFE82214DF21520FDF766FE01214DF223
:104460001620FDF761FECA214DF21720FDF75CFE14
:1044700002214DF21820FDF757FE00214DF21920C0
:10448000FDF752FE02214DF21A20FDF74DFE0121EB
:104490004DF21B20FDF748FE02214DF21C20FDF7D6
:1044A00043FE34214DF21D20FDF73EFE02214DF268
:1044B0001E20FDF739FE67214DF21F20FDF734FE67
:1044C00002214DF22020FDF72FFE84214DF2212004
:1044D000FDF72AFE02214DF22220FDF725FEA42140
:1044E0004DF22320FDF720FE02214DF22420FDF79E
:1044F0001BFEB7214DF22520FDF716FE02214DF2DD
:104500002620FDF711FECF214DF22720FDF70CFEEE
:1045100002214DF22820FDF707FEDE214DF2292071
:10452000FDF702FE02214DF22A20FDF7FDFDF221EA
:104530004DF22B20FDF7F8FD02214DF22C20FDF766
:10454000F3FDFE214DF22D20FDF7EEFD03214DF28E
:104550002E20FDF7E9FD10214DF22F20FDF7E4FD9F
:1045600003214DF23020FDF7DFFD33214DF23120E4
:10457000FDF7DAFD03214DF23220FDF7D5FD6D2167
:104580004DF23320FDF7D0FD00214FF45340FDF7ED
:10459000CBFD33214DF20130FDF7C6FD00214DF278
:1045A0000230FDF7C1FD34214DF20330FDF7BCFDB3
:1045B00000214DF20430FDF7B7FD3A214DF20530F0
:1045C000FDF7B2FD00214DF20630FDF7ADFD4A21A9
:1045D0004DF20730FDF7A8FD00214DF20830FDF740
:1045E000A3FD5C214DF20930FDF79EFD00214DF247
:1045F0000A30FDF799FD81214DF20B30FDF794FD56
:1046000000214DF20C30FDF78FFDA6214DF20D304B
:10461000FDF78AFD00214DF20E30FDF785FDE52105
:104620004DF20F30FDF780FD01214DF21030FDF706
:104630007BFD13214DF21130FDF776FD01214DF286
:104640001230FDF771FD54214DF21330FDF76CFD72
:1046500001214DF21430FDF767FD82214DF2153036
:10466000FDF762FD01214DF21630FDF75DFDCA2117
:104670004DF21730FDF758FD02214DF21830FDF7CD
:1046800053FD00214DF21930FDF74EFD02214DF290
:104690001A30FDF749FD01214DF21B30FDF744FDB5
:1046A00002214DF21C30FDF73FFD34214DF21D304B
:1046B000FDF73AFD02214DF21E30FDF735FD672171
:1046C0004DF21F30FDF730FD02214DF22030FDF795
:1046D0002BFD84214DF22130FDF726FD02214DF204
:1046E0002230FDF721FDA4214DF22330FDF71CFD02
:1046F00002214DF22430FDF717FDB7214DF2253090
:10470000FDF712FD02214DF22630FDF70DFDCF2100
:104710004DF22730FDF708FD02214DF22830FDF75C
:1047200003FDDE214DF22930FDF7FEFC02214DF2A2
:104730002A30FDF7F9FCF2214DF22B30FDF7F4FCA5
:1047400002214DF22C30FDF7EFFCFE214DF22D3011
:10475000FDF7EAFC03214DF22E30FDF7E5FC1021B8
:104760004DF22F30FDF7E0FC03214DF23030FDF724
:10477000DBFC33214DF23130FDF7D6FC03214DF245
:104780003230FDF7D1FC6D214DF23330FDF7CCFC1A
:1047900000214FF45440FDF7C7FC33214DF2014096
:1047A000FDF7C2FC00214DF20240FDF7BDFC3421B3
:1047B0004DF20340FDF7B8FC00214DF20440FDF737
:1047C000B3FC3A214DF20540FDF7AEFC00214DF25D
:1047D0000640FDF7A9FC4A214DF20740FDF7A4FC75
:1047E00000214DF20840FDF79FFC5C214DF209408D
:1047F000FDF79AFC00214DF20A40FDF795FC81215E
:104800004DF20B40FDF790FC00214DF20C40FDF7FE
:104810008BFCA6214DF20D40FDF786FC00214DF2E8
:104820000E40FDF781FCE5214DF20F40FDF77CFCC9
:1048300001214DF21040FDF777FC13214DF211409C
:10484000FDF772FC01214DF21240FDF76DFC542181
:104850004DF21340FDF768FC01214DF21440FDF7C5
:1048600063FC82214DF21540FDF75EFC01214DF203
:104870001640FDF759FCCA214DF21740FDF754FCD4
:1048800002214DF21840FDF74FFC00214DF2194076
:10489000FDF74AFC02214DF21A40FDF745FC0121CB
:1048A0004DF21B40FDF740FC02214DF21C40FDF78C
:1048B0003BFC34214DF21D40FDF736FC02214DF248
:1048C0001E40FDF731FC67214DF21F40FDF72CFC27
:1048D00002214DF22040FDF727FC84214DF22140BA
:1048E000FDF722FC02214DF22240FDF71DFCA42120
:1048F0004DF22340FDF718FC02214DF22440FDF754
:1049000013FCB7214DF22540FDF70EFC02214DF2BC
:104910002640FDF709FCCF214DF22740FDF704FCAE
:1049200002214DF22840FDF7FFFBDE214DF2294028
:10493000FDF7FAFB02214DF22A40FDF7F5FBF221CB
:104940004DF22B40FDF7F0FB02214DF22C40FDF71C
:10495000EBFBFE214DF22D40FDF7E6FB03214DF26E
:104960002E40FDF7E1FB10214DF22F40FDF7DCFB5F
:1049700003214DF23040FDF7D7FB33214DF231409A
:10498000FDF7D2FB03214DF23240FDF7CDFB6D2147
:104990004DF23340FDF7C8FB00214FF45540FDF7C1
:1049A000C3FB33214DF20150FDF7BEFB00214DF258
:1049B0000250FDF7B9FB34214DF20350FDF7B4FB73
:1049C00000214DF20450FDF7AFFB3A214DF20550A6
:1049D000FDF7AAFB00214DF20650FDF7A5FB4A2189
:1049E0004DF20750FDF7A0FB00214DF20850FDF7F6
:1049F0009BFB5C214DF20950FDF796FB00214DF227
:104A00000A50FDF791FB81214DF20B50FDF78CFB15
:104A100000214DF20C50FDF787FBA6214DF20D5001
:104A2000FDF782FB00214DF20E50FDF77DFBE521E5
:104A30004DF20F50FDF778FB01214DF21050FDF7BC
:104A400073FB13214DF21150FDF76EFB01214DF266
:104A50001250FDF769FB54214DF21350FDF764FB32
:104A600001214DF21450FDF75FFB82214DF21550EC
:104A7000FDF75AFB01214DF21650FDF755FBCA21F7
:104A80004DF21750FDF750FB02214DF21850FDF783
:104A90004BFB00214DF21950FDF746FB02214DF270
:104AA0001A50FDF741FB01214DF21B50FDF73CFB75
:104AB00002214DF21C50FDF737FB34214DF21D5001
:104AC000FDF732FB02214DF21E50FDF72DFB672151
:104AD0004DF21F50FDF728FB02214DF22050FDF74B
:104AE00023FB84214DF22150FDF71EFB02214DF2E4
:104AF0002250FDF719FBA4214DF22350FDF714FBC2
:104B000002214DF22450FDF70FFBB7214DF2255045
:104B1000FDF70AFB02214DF22650FDF705FBCF21E0
:104B20004DF22750FDF700FB02214DF22850FDF712
:104B3000FBFADE214DF22950FDF7F6FA02214DF283
:104B40002A50FDF7F1FAF2214DF22B50FDF7ECFA65
:104B500002214DF22C50FDF7E7FAFE214DF22D50C7
:104B6000FDF7E2FA03214DF22E50FDF7DDFA102198
:104B70004DF22F50FDF7D8FA03214DF23050FDF7DA
:104B8000D3FA33214DF23150FDF7CEFA03214DF225
:104B90003250FDF7C9FA6D214DF23350FDF7C4FADA
:104BA00000214FF45640FDF7BFFA33214DF201606A
:104BB000FDF7BAFA00214DF20260FDF7B5FA342193
:104BC0004DF20360FDF7B0FA00214DF20460FDF7ED
:104BD000ABFA3A214DF20560FDF7A6FA00214DF23D
:104BE0000660FDF7A1FA4A214DF20760FDF79CFA35
:104BF00000214DF20860FDF797FA5C214DF2096043
:104C0000FDF792FA00214DF20A60FDF78DFA81213D
:104C10004DF20B60FDF788FA00214DF20C60FDF7B4
:104C200083FAA6214DF20D60FDF77EFA00214DF2C8
:104C30000E60FDF779FAE5214DF20F60FDF774FA89
:104C400001214DF21060FDF76FFA13214DF2116052
:104C5000FDF76AFA01214DF21260FDF765FA542161
:104C60004DF21360FDF760FA01214DF21460FDF77B
:104C70005BFA82214DF21560FDF756FA01214DF2E3
:104C80001660FDF751FACA214DF21760FDF74CFA94
:104C900002214DF21860FDF747FA00214DF219602C
:104CA000FDF742FA02214DF21A60FDF73DFA0121AB
:104CB0004DF21B60FDF738FA02214DF21C60FDF742
:104CC00033FA34214DF21D60FDF72EFA02214DF228
:104CD0001E60FDF729FA67214DF21F60FDF724FAE7
:104CE00002214DF22060FDF71FFA84214DF2216070
:104CF000FDF71AFA02214DF22260FDF715FAA42100
:104D00004DF22360FDF710FA02214DF22460FDF709
:104D10000BFAB7214DF22560FDF706FA02214DF29C
:104D20002660FDF701FACF214DF22760FDF7FCF96F
:104D300002214DF22860FDF7F7F9DE214DF22960DE
:104D4000FDF7F2F902214DF22A60FDF7EDF9F221AB
:104D50004DF22B60FDF7E8F902214DF22C60FDF7D2
:104D6000E3F9FE214DF22D60FDF7DEF903214DF24E
:104D70002E60FDF7D9F910214DF22F60FDF7D4F91F
:104D800003214DF23060FDF7CFF933214DF2316050
:104D9000FDF7CAF903214DF23260FDF7C5F96D2127
:104DA0004DF23360FDF7C0F955214FF47040FDF727
:104DB000BBF9AA214FF20100FDF7B6F952214FF2DB
:104DC0000200FDF7B1F908214FF20300FDF7ACF93D
:104DD00000214FF20400FDF7A7F9CC214FF4314038
:104DE000FDF7A2F900214BF20110FDF79DF9052115
:104DF0004FF43640FDF798F970214FF43740FDF736
:104E000093F970214BF20170FDF78EF901214FF4F7
:104E10003840FDF789F903214BF60100FDF784F9CD
:104E200003214BF60200FDF77FF903214BF6030047
:104E3000FDF77AF902214FF43C40FDF775F90021A6
:104E40004BF60140FDF770F900214BF60240FDF7EB
:104E50006BF9D0214FF44940FDF766F902214CF679
:104E60000110FDF761F950214CF60210FDF75CF9D5
:104E700050214CF60310FDF757F950214CF6041061
:104E8000FDF752F900214FF45450FDF74DF955212B
:104E90004FF46850FDF748F94FF48850FDF718F9C2
:104EA0000120FCF7A5F94FF42450FDF711F9FEF7A6
:104EB0004EB847F6F001E520FDF736F94FF4807162
:104EC0000120FDF731F94FF4E0610220FDF72CF9E4
:104ED00041F230010320FDF727F900210420FDF7FE
:104EE00023F940F202210820FDF71EF900210920D4
:104EF000FDF71AF900210A20FDF716F900210C2010
:104F0000FDF712F900210D20FDF70EF900210F2009
:104F1000FDF70AF900211020FDF706F907211120FD
:104F2000FDF702F900211220FDF7FEF80021132001
:104F3000FDF7FAF800210720FDF7F6F841F290613D
:104F40001020FDF7F1F840F227211120FDF7ECF8D1
:104F50009D211220FDF7E8F84FF4C8511320FDF70A
:104F6000E3F825212920FDF7DFF80D212B20FDF79F
:104F7000DBF807213020FDF7D7F840F2033131206C
:104F8000FDF7D2F803213220FDF7CEF840F20621DA
:104F90003520FDF7C9F808213620FDF7C5F840F2A5
:104FA00006413720FDF7C0F84FF441713820FDF776
:104FB000BBF807213920FDF7B7F840F202613C2029
:104FC000FDF7B2F808213D20FDF7AEF80021502092
:104FD000FDF7AAF8EF215120FDF7A6F80021522095
:104FE000FDF7A2F840F23F115320FDF79DF84FF472
:104FF00027416020FDF798F801216120FDF794F822
:1050000000216A20FDF790F800218020FDF78CF840
:1050100000218120FDF788F800218220FDF784F827
:1050200000218320FDF780F800218420FDF77CF823
:1050300000218520FDF778F810219020FDF774F805
:105040004FF4C0619220FDF76FF840F23311072052
:10505000FDF76AF822210020FDF766F8FDF777BF1B
:1050600041F28F01EC20FDF75FF841F23421EF208F
:10507000FDF75AF84FF480710120FDF755F84FF411
:10508000E0610220FDF750F841F230010320FDF706
:105090004BF800210420FDF747F840F202210820D8
:1050A000FDF742F800210920FDF73EF800210A2013
:1050B000FDF73AF801210C20FDF736F800210D200C
:1050C000FDF732F800210F20FDF72EF80021102007
:1050D000FDF72AF807211120FDF726F800211220FC
:1050E000FDF722F800211320FDF71EF8012107200B
:1050F000FDF71AF83220FCF77BF841F290411020BE
:10510000FDF712F840F227211120FDF70DF83220AB
:10511000FCF76EF88A211220FDF706F83220FCF722
:1051200067F84FF4D0511320FCF7FEFF0621292029
:10513000FCF7FAFF0D212B20FCF7F6FF3220FCF7DD
:1051400057F800212020FCF7EFFF00212120FCF779
:10515000EBFF3220FCF74CF800213020FCF7E4FF95
:1051600040F204613120FCF7DFFF40F205313220CC
:10517000FCF7DAFF00213520FCF7D6FF40F60941A5
:105180003620FCF7D1FF4FF401713720FCF7CCFF3C
:1051900040F201313820FCF7C7FF40F20771392097
:1051A000FCF7C2FF00213C20FCF7BEFF40F60A21BD
:1051B0003D20FCF7B9FF3220FCF71AF800215020FF
:1051C000FCF7B2FFEF215120FCF7AEFF0021522087
:1051D000FCF7AAFF40F23F115320FCF7A5FF4FF464
:1051E00027416020FCF7A0FF01216120FCF79CFF14
:1051F00000216A20FCF798FF00218020FCF794FF33
:1052000000218120FCF790FF00218220FCF78CFF19
:1052100000218320FCF788FF00218420FCF784FF15
:1052200000218520FCF780FF10219020FCF77CFFF7
:105230004FF4C0619220FCF777FF40F23311072052
:10524000FCF772FFFDF783BE00210846FCF76CFFF8
:105250004FF480710120FCF767FF4FF4E0610220FA
:10526000FCF762FF41F230010320FCF75DFF0021F3
:105270000420FCF759FF40F202210820FCF754FFFC
:1052800000210920FCF750FF00210A20FCF74CFF09
:1052900001210C20FCF748FF00210D20FCF744FF02
:1052A00000210F20FCF740FF3220FBF7A1FF40F266
:1052B00001110720FCF738FF3220FBF799FF4FF46C
:1052C00086511020FCF730FF07211120FCF72CFF3E
:1052D0004FF488711220FCF727FF4FF43061132040
:1052E000FCF722FF00212920FCF71EFF44F21001E9
:1052F0002B20FCF719FF00215020FCF715FFEF21B0
:105300005120FCF711FF00215220FCF70DFF40F265
:105310003F115320FCF708FF4FF41C516020FCF7AD
:1053200003FF01216120FCF7FFFE00216A20FCF74A
:10533000FBFE00218020FCF7F7FE00218120FCF716
:10534000F3FE00218220FCF7EFFE00218320FCF712
:10535000EBFE00218420FCF7E7FE00218520FCF70E
:10536000E3FE10219020FCF7DFFE00219220FCF7E5
:10537000DBFE01219320FCF7D7FE4FF488719520C6
:10538000FCF7D2FE00219720FCF7CEFE00219820EA
:10539000FCF7CAFE40F273110720FCF7C5FEFDF7CB
:1053A000D6BD41F21401E720FCF7BEFE4FF4807138
:1053B0000120FCF7B9FE4FF400710220FCF7B4FEA7
:1053C00041F238010320FCF7AFFE40F20221082031
:1053D000FCF7AAFE00210920FCF7A6FE00210A2006
:1053E000FCF7A2FE00210C20FCF79EFE00210D2000
:1053F000FCF79AFE00210F20FCF796FE00211020FA
:10540000FCF792FE07211120FCF78EFE00211220EE
:10541000FCF78AFE00211320FCF786FEC820FBF76C
:10542000E7FE41F290611020FCF77EFE40F227215A
:105430001120FCF779FE3220FBF7DAFE0C21122056
:10544000FCF772FE3220FBF7D3FE4FF4006113200D
:10545000FCF76AFE11212920FCF766FE0B212B20A8
:10546000FCF762FE3220FBF7C3FE00212020FCF790
:105470005BFE40F23F112120FCF756FE0021302058
:10548000FCF752FE4FF483713120FCF74DFE0021F2
:105490003220FCF749FE4FF401713520FCF744FE41
:1054A00041F20A613620FCF73FFE40F207713720D7
:1054B000FCF73AFE4FF483713820FCF735FE40F2DA
:1054C00007713920FCF730FE40F202413C20FCF726
:1054D0002BFE40F60F413D20FCF726FE0021502018
:1054E000FCF722FEEF215120FCF71EFE0021522086
:1054F000FCF71AFE40F23F115320FCF715FE4FF463
:105500001C516020FCF710FE01216120FCF70CFE0D
:1055100000216A20FCF708FE00218020FCF704FE31
:1055200000218120FCF700FE00218220FCF7FCFD19
:1055300000218320FCF7F8FD00218420FCF7F4FD16
:1055400000218520FCF7F0FD10219020FCF7ECFDF8
:105550004FF4C0619220FCF7E7FD40F233110720C1
:10556000FCF7E2FDFDF7F3BC4FF480710120FCF77E
:10557000DBFD4FF4E0610220FCF7D6FD41F2300183
:105580000320FCF7D1FD00210420FCF7CDFD40F203
:1055900007210820FCF7C8FD00210920FCF7C4FD05
:1055A00000210A20FCF7C0FD00210C20FCF7BCFD07
:1055B00000210D20FCF7B8FD00210F20FCF7B4FD01
:1055C0001420FBF715FE41F2B0611020FCF7ACFD92
:1055D00001211120FCF7A8FD01211720FCF7A4FDF3
:1055E0004FF49C711220FCF79FFD4FF400611320D3
:1055F000FCF79AFD09212920FCF796FD09212A20B4
:10560000FCF792FD0021A420FCF78EFD0021502024
:10561000FCF78AFDEF215120FCF786FD0021522086
:10562000FCF782FD40F23F115320FCF77DFD4FF463
:105630001C516020FCF778FD01216120FCF774FD0E
:1056400000216A20FCF770FD00218020FCF76CFD32
:1056500000218120FCF768FD00218220FCF764FD19
:1056600000218320FCF760FD00218420FCF75CFD15
:1056700000218520FCF758FD13219020FCF754FDF4
:1056800000219220FCF750FD03219320FCF74CFDF4
:105690004FF488719520FCF747FD40F27311072005
:1056A000FCF742FD3220FBF7A3FDFDF750BC0021C3
:1056B0000720FCF739FD3220FBF79AFD4FF48E717D
:1056C0001220FCF731FD0121A420FCF72DFD0F2154
:1056D0000820FCF729FD08210A20FCF725FD0821F8
:1056E0000D20FCF721FD40F207713020FCF71CFD76
:1056F00007213120FCF718FD40F203613220FCF74E
:1057000013FD4FF4E0613320FCF70EFD40F202215F
:105710003420FCF709FD02213520FCF705FD41F698
:105720000F713620FCF700FD40F207713720FCF7BF
:10573000FBFC00213820FCF7F7FC00213920FCF7A6
:10574000F3FC40F207713A20FCF7EEFC00213B200D
:10575000FCF7EAFC07213C20FCF7E6FC00213D2099
:10576000FCF7E2FC3220FBF743FD01210720FCF7A8
:10577000DBFC01211720FCF7D7FC3220FBF738FDBA
:105780004FF4BD511020FCF7CFFC40F2172111203F
:10579000FCF7CAFC4FF48F711220FCF7C5FC4FF4E4
:1057A00070611320FCF7C0FC00212A20FCF7BCFC30
:1057B0000A212920FCF7B8FC4FF49F711220FCF756
:1057C000B3FC00215020FCF7AFFCEF215120FCF787
:1057D000ABFC00215220FCF7A7FC40F23F11532004
:1057E000FCF7A2FC4FF41C516020FCF79DFC01214A
:1057F0006120FCF799FC00216A20FCF795FC002150
:105800008020FCF791FC00218120FCF78DFC002119
:105810008220FCF789FC00218320FCF785FC002115
:105820008420FCF781FC00218520FCF77DFC1321FE
:105830009020FCF779FC4FF440719220FCF774FC47
:1058400005219320FCF770FC00219520FCF76CFCEF
:1058500000219720FCF768FC00219820FCF764FCED
:105860004FF480710120FCF75FFC4FF4E0610220EF
:10587000FCF75AFC41F238010320FCF755FC0021EB
:105880000420FCF751FC00210C20FCF74DFC00210A
:105890000F20FCF749FC00212020FCF745FC0021EB
:1058A0002120FCF741FC21210720FCF73DFC1420BE
:1058B000FBF79EFC61210720FCF736FC1420FBF768
:1058C00097FC40F273110720FCF72EFC1420FBF725
:1058D0008FFCFDF73CBB00210846FCF725FC0021AE
:1058E0000846FCF721FC00210846FCF71DFC0021BE
:1058F0000846FCF719FC0121A420FCF715FC142034
:10590000FBF776FC4FF41C516020FCF70DFC40F2D5
:1059100002210820FCF708FC4FF405713020FCF749
:1059200003FC43F215713120FCF7FEFB40F20461E9
:105930003220FCF7F9FB40F616613320FCF7F4FB4C
:1059400042F211213420FCF7EFFB4FF4A85135202F
:10595000FCF7EAFB48F207513620FCF7E5FB41F281
:1059600007413720FCF7E0FB41F203413820FCF708
:10597000DBFB20213920FCF7D7FB1A219020FCF714
:10598000D3FB00211020FCF7CFFB07211120FCF7EF
:10599000CBFB00211220FCF7C7FB00211320FCF7F2
:1059A000C3FB1420FBF724FC4FF4E6611020FCF746
:1059B000BBFB40F237111120FCF7B6FB1420FBF7BC
:1059C00017FC4FF4DC711220FCF7AEFB1420FBF740
:1059D0000FFC4FF470611320FCF7A6FB80212A20F6
:1059E000FCF7A2FB48212920FCF79EFB1420FBF7C3
:1059F000FFFB4FF480710120FCF796FB4FF4E06150
:105A00000220FCF791FB41F238010320FCF78CFBEC
:105A100040F202210820FCF787FB00210A20FCF756
:105A200083FB00210C20FCF77FFB00210D20FCF7FD
:105A30007BFB30210E20FCF777FB00215020FCF788
:105A400073FBEF215120FCF76FFB00215220FCF784
:105A50006BFB40F23F115320FCF766FB4FF41C51E7
:105A60006020FCF761FB01216120FCF75DFB002158
:105A70006A20FCF759FB11219020FCF755FB4FF4ED
:105A8000C0619220FCF750FB40F202419320FCF7EA
:105A90004BFB02219420FCF747FB1420FBF7A8FBEB
:105AA00001210720FCF740FB1420FBF7A1FB61213B
:105AB0000720FCF739FB40F273110720FCF734FB99
:105AC00000212020FCF730FB00212120FCF72CFBDB
:105AD00022210020FCF728FBFDF739BA00210846F7
:105AE000FCF722FB00210846FCF71EFB1420FBF705
:105AF0007FFB00210846FCF717FB00210846FCF756
:105B000013FB00210846FCF70FFB00210846FCF7B9
