:020000040800F2
:1000000000000220F555000845520008475200083C
:10001000495200084B5200084D52000800000000F1
:100020000000000000000000000000004F52000827
:1000300051520008000000005352000855520008B9
:100040004556000845560008455600084556000824
:100050004556000845560008455600084556000814
:100060004556000845560008455600084556000804
:1000700045560008455600084556000845560008F4
:1000800045560008455600084556000845560008E4
:1000900045560008455600084556000845560008D4
:1000A00045560008455600084556000845560008C4
:1000B000455600085D5200086D520008455600087C
:1000C00045560008455600084556000845560008A4
:1000D0004556000845560008455600084556000894
:1000E0004556000845560008455600084556000884
:1000F0004556000845560008455600084556000874
:1001000045560008455600087D520008455600082F
:100110004556000845560008455600084556000853
:100120004556000845560008455600084556000843
:100130004556000845560008455600084556000833
:100140004556000845560008455600084556000823
:100150004556000845560008455600084556000813
:100160004556000845560008455600084556000803
:100170004556000845560008455600080000000096
:08018000455600084556000831
:1001C00010B5054C237833B9044B13B10448AFF391
:1001D00000800123237010BD340A002000000000BD
:1001E0004CDF000808B5034B1BB103490348AFF3CC
:1001F000008008BD00000000380A00204CDF000825
:1002000081F0004102E000BF83F0004330B54FEAC7
:1002100041044FEA430594EA050F08BF90EA020F34
:100220001FBF54EA000C55EA020C7FEA645C7FEAC7
:10023000655C00F0E2804FEA5454D4EB5555B8BFEA
:100240006D420CDD2C4480EA020281EA030382EA5B
:10025000000083EA010180EA020281EA0303362DED
:1002600088BF30BD11F0004F4FEA01314FF4801CC0
:100270004CEA113102D0404261EB410113F0004FD2
:100280004FEA03334CEA133302D0524263EB430389
:1002900094EA050F00F0A780A4F10104D5F1200E27
:1002A0000DDB02FA0EFC22FA05F2801841F1000182
:1002B00003FA0EF2801843FA05F359410EE0A5F156
:1002C00020050EF1200E012A03FA0EFC28BF4CF087
:1002D000020C43FA05F3C01851EBE37101F000453D
:1002E00007D54FF0000EDCF1000C7EEB00006EEB4A
:1002F0000101B1F5801F1BD3B1F5001F0CD34908D4
:100300005FEA30004FEA3C0C04F101044FEA44522A
:1003100012F5800F80F09A80BCF1004F08BF5FEAB1
:10032000500C50F1000041EB045141EA050130BD91
:100330005FEA4C0C404141EB0101013C28BFB1F5A3
:10034000801FE9D291F0000F04BF01460020B1FAEE
:1003500081F308BF2033A3F10B03B3F120020CDAC1
:100360000C3208DD02F1140CC2F10C0201FA0CF09F
:1003700021FA02F10CE002F11402D8BFC2F1200C04
:1003800001FA02F120FA0CFCDCBF41EA0C019040BA
:10039000E41AA2BF01EB0451294330BD6FEA040403
:1003A0001F3C1CDA0C340EDC04F11404C4F12002EE
:1003B00020FA04F001FA02F340EA030021FA04F300
:1003C00045EA030130BDC4F10C04C4F1200220FA57
:1003D00002F001FA04F340EA0300294630BD21FA95
:1003E00004F0294630BD94F0000F83F4801306BF5B
:1003F00081F480110134013D4EE77FEA645C18BF4F
:100400007FEA655C29D094EA050F08BF90EA020FE5
:1004100005D054EA000C04BF1946104630BD91EADD
:10042000030F1EBF0021002030BD5FEA545C05D1E0
:100430004000494128BF41F0004130BD14F580041F
:100440003CBF01F5801130BD01F0004545F0FE4193
:1004500041F470014FF0000030BD7FEA645C1ABFC8
:10046000194610467FEA655C1CBF0B46024650EAFF
:10047000013406BF52EA033591EA030F41F400212B
:1004800030BD00BF90F0000F04BF0021704730B5B1
:100490004FF4806404F132044FF000054FF0000186
:1004A00050E700BF90F0000F04BF0021704730B547
:1004B0004FF4806404F1320410F0004548BF40421C
:1004C0004FF000013EE700BF42004FEAE2014FEA71
:1004D00031014FEA02701FBF12F07F4393F07F4F4C
:1004E00081F06051704732F07F4208BF704793F04F
:1004F0007F4F04BF41F40021704730B54FF4607462
:1005000001F0004521F000411CE700BF50EA010264
:1005100008BF704730B54FF000050AE050EA01020D
:1005200008BF704730B511F0004502D5404261EB7D
:1005300041014FF4806404F132045FEA915C3FF4BE
:10054000D8AE4FF003025FEADC0C18BF03325FEA5B
:10055000DC0C18BF033202EBDC02C2F1200300FA0C
:1005600003FC20FA02F001FA03FE40EA0E0021FA31
:1005700002F11444BDE600BF70B54FF0FF0C4CF41F
:10058000E06C1CEA11541DBF1CEA135594EA0C0FD1
:1005900095EA0C0F00F0DEF82C4481EA030621EA0C
:1005A0004C5123EA4C5350EA013518BF52EA033547
:1005B00041F4801143F4801338D0A0FB02CE4FF0F9
:1005C0000005E1FB02E506F00042E0FB03E54FF029
:1005D0000006E1FB03569CF0000F18BF4EF0010E21
:1005E000A4F1FF04B6F5007F64F5407404D25FEA1D
:1005F0004E0E6D4146EB060642EAC62141EA5551D0
:100600004FEAC52040EA5E504FEACE2EB4F1FD0C11
:1006100088BFBCF5E06F1ED8BEF1004F08BF5FEA8F
:10062000500E50F1000041EB045170BD06F0004641
:1006300046EA010140EA020081EA0301B4EB5C04EE
:10064000C2BFD4EB0C0541EA045170BD41F48011E6
:100650004FF0000E013C00F3AB8014F1360FDEBF0B
:10066000002001F0004170BDC4F10004203C35DAE7
:100670000C341BDC04F11404C4F1200500FA05F36A
:1006800020FA04F001FA05F240EA020001F000420B
:1006900021F0004110EBD37021FA04F642EB060181
:1006A0005EEA430E08BF20EAD37070BDC4F10C04AB
:1006B000C4F1200500FA04F320FA05F001FA04F26F
:1006C00040EA020001F0004110EBD37041F100015B
:1006D0005EEA430E08BF20EAD37070BDC4F1200566
:1006E00000FA05F24EEA020E20FA04F301FA05F2CE
:1006F00043EA020321FA04F001F0004121FA04F276
:1007000020EA020000EBD3705EEA430E08BF20EA45
:10071000D37070BD94F0000F0FD101F0004640007F
:1007200041EB010111F4801F08BF013CF7D041EA01
:10073000060195F0000F18BF704703F00046520005
:1007400043EB030313F4801F08BF013DF7D043EAD6
:100750000603704794EA0C0F0CEA135518BF95EA8C
:100760000C0F0CD050EA410618BF52EA4306D1D113
:1007700081EA030101F000414FF0000070BD50EA32
:10078000410606BF1046194652EA430619D094EABC
:100790000C0F02D150EA013613D195EA0C0F05D1A6
:1007A00052EA03361CBF104619460AD181EA0301FA
:1007B00001F0004141F0FE4141F470014FF00000B2
:1007C00070BD41F0FE4141F4780170BD70B54FF04D
:1007D000FF0C4CF4E06C1CEA11541DBF1CEA1355CD
:1007E00094EA0C0F95EA0C0F00F0A7F8A4EB0504AF
:1007F00081EA030E52EA03354FEA013100F08880A6
:100800004FEA03334FF0805545EA131343EA12636E
:100810004FEA022245EA111545EA10654FEA002623
:100820000EF000419D4208BF964244F1FD0404F5DC
:10083000407402D25B084FEA3202B61A65EB030538
:100840005B084FEA32024FF480104FF4002CB6EBF5
:10085000020E75EB030E22BFB61A754640EA0C0075
:100860005B084FEA3202B6EB020E75EB030E22BFB5
:10087000B61A754640EA5C005B084FEA3202B6EBF6
:10088000020E75EB030E22BFB61A754640EA9C00B5
:100890005B084FEA3202B6EB020E75EB030E22BF85
:1008A000B61A754640EADC0055EA060E18D04FEA43
:1008B000051545EA16754FEA06164FEAC30343EAE3
:1008C00052734FEAC2025FEA1C1CC0D111F4801FB0
:1008D0000BD141EA00014FF000004FF0004CB6E7A9
:1008E00011F4801F04BF01430020B4F1FD0C88BF48
:1008F000BCF5E06F3FF6AFAEB5EB030C04BFB6EB53
:10090000020C5FEA500C50F1000041EB045170BD45
:100910000EF0004E4EEA113114EB5C04C2BFD4EB72
:100920000C0541EA045170BD41F480114FF0000EF6
:10093000013C90E645EA060E8DE60CEA135594EA72
:100940000C0F08BF95EA0C0F3FF43BAF94EA0C0F75
:100950000AD150EA01347FF434AF95EA0C0F7FF4EA
:1009600025AF104619462CE795EA0C0F06D152EA3E
:1009700003353FF4FDAE1046194622E750EA410622
:1009800018BF52EA43067FF4C5AE50EA41047FF433
:100990000DAF52EA43057FF4EBAE12E74FF0FF3C98
:1009A00006E000BF4FF0010C02E000BF4FF0010C69
:1009B0004DF804CD4FEA410C7FEA6C5C4FEA430CE2
:1009C00018BF7FEA6C5C1BD001B050EA410C0CBF31
:1009D00052EA430C91EA030F02BF90EA020F002093
:1009E000704710F1000F91EA030F58BF994208BFFA
:1009F00090422CBFD8176FEAE37040F001007047B7
:100A00004FEA410C7FEA6C5C02D150EA013C07D10D
:100A10004FEA430C7FEA6C5CD6D152EA033CD3D058
:100A20005DF8040B704700BF8446104662468C4652
:100A30001946634600E000BF01B5FFF7B7FF002885
:100A400048BF10F1000F01BD4DF808EDFFF7F4FFAE
:100A50000CBF012000205DF808FB00BF4DF808ED39
:100A6000FFF7EAFF34BF012000205DF808FB00BF5C
:100A70004DF808EDFFF7E0FF94BF012000205DF87E
:100A800008FB00BF4DF808EDFFF7CEFF94BF012033
:100A900000205DF808FB00BF4DF808EDFFF7C4FF2C
:100AA00034BF012000205DF808FB00BF4FEA41027F
:100AB00012F5001215D211D56FF47873B3EB6252B0
:100AC00012D94FEAC12343F0004343EA505311F0D7
:100AD000004F23FA02F018BF404270474FF0000069
:100AE000704750EA013005D111F0004008BF6FF0A7
:100AF000004070474FF00000704700BF4A0011D21D
:100B000012F5001211D20DD56FF47873B3EB625267
:100B10000ED44FEAC12343F0004343EA505323FA73
:100B200002F070474FF00000704750EA013002D1E8
:100B30004FF0FF3070474FF0000070474FEA41021E
:100B4000B2F1E04324BFB3F5001CDCF1FE5C0DD92B
:100B500001F0004C4FEAC0024CEA5070B2F1004F75
:100B600040EB830008BF20F00100704711F0804F78
:100B700021D113F13872BCBF01F00040704741F43D
:100B800080114FEA5252C2F11802C2F1200C10FA41
:100B90000CF320FA02F018BF40F001004FEAC12325
:100BA0004FEAD32303FA0CFC40EA0C0023FA02F3C9
:100BB0004FEA4303CCE77FEA625307D150EA01339F
:100BC0001EBF4FF0FE4040F44000704701F000406F
:100BD00040F0FE4040F40000704700BF53B94AB9EE
:100BE000002908BF00281CBF4FF0FF314FF0FF3035
:100BF00000F06EB9ADF1080C6DE904CE00F006F816
:100C0000DDF804E0DDE9022304B070472DE9F04788
:100C1000089D04468C46002B40F083808A4217468C
:100C200047D9B2FA82F242B1C2F1200024FA00F0B0
:100C30009140974040EA010C94404FEA1748230C3A
:100C4000BCFBF8F61FFA87FE08FB16C143EA014316
:100C500006FB0EF1994209D9FB1806F1FF3080F02E
:100C60001981994240F21681023E3B445B1AA4B2BC
:100C7000B3FBF8F008FB103344EA034400FB0EFE1C
:100C8000A64509D93C1900F1FF3380F00581A6453E
:100C900040F2028102383C4440EA0640A4EB0E04D4
:100CA00000261DB1D4400023C5E900433146BDE80C
:100CB000F08702B9FFDEB2FA82F2002A50D1CB1BD4
:100CC0004FEA174E1FFA87F80126B3FBFEFC210CF2
:100CD0000EFB1C3341EA034108FB0CF38B4207D99E
:100CE00079180CF1FF3002D28B4200F2E980844681
:100CF000C91AA3B2B1FBFEF00EFB101143EA014486
:100D000008FB00F8A04507D93C1900F1FF3302D2D7
:100D1000A04500F2D9801846A4EB080440EA0C4034
:100D2000BFE78B4209D9002D00F0B1800026C5E94C
:100D3000000130463146BDE8F087B3FA83F6002E55
:100D40004AD18B4202D3824200F2B880841A61EB0E
:100D5000030101208C46002DA8D0C5E9004CA5E771
:100D6000C2F1200320FA03F6974001FA02F04FEA9D
:100D7000174ED9403043030CB1FBFEF61FFA87F83B
:100D80000EFB161143EA014306FB08F1994204FAEF
:100D900002F409D9FB1806F1FF3C80F08D809942DE
:100DA00040F28A80023E3B445B1A81B2B3FBFEF004
:100DB0000EFB103341EA034100FB08F38B4207D9D5
:100DC000791800F1FF3C73D28B4271D90238394453
:100DD000CB1A40EA064678E7C6F1200C03FA06F47F
:100DE00022FA0CF31C4320FA0CF701FA06F34FEA3F
:100DF000144E21FA0CF11F433B0CB1FBFEF91FFA14
:100E000084F80EFB191143EA014109FB08FA8A45EF
:100E100002FA06F200FA06F308D9611809F1FF3068
:100E200048D28A4546D9A9F102092144A1EB0A0119
:100E3000BFB2B1FBFEF00EFB101147EA014700FB09
:100E400008F8B84507D9E71900F1FF312ED2B845A7
:100E50002CD90238274440EA0940A7EB0807A0FB39
:100E600002894F45C64649461AD317D05DB1B3EB48
:100E70000E0267EB010707FA0CFCF2404CEA020293
:100E8000F740C5E9002700263146BDE8F0872E4629
:100E900028460BE70646E9E61846FDE64345E5D257
:100EA000B8EB020E69EB04010138DFE70846D2E730
:100EB00060468DE78146B9E7664675E730464AE702
:100EC000ACF1020C394413E702383C4424E700BF7C
:100ED000704700BF844641EA000313F003036DD15D
:100EE000403A41D351F8043B40F8043B51F8043BED
:100EF00040F8043B51F8043B40F8043B51F8043BF4
:100F000040F8043B51F8043B40F8043B51F8043BE3
:100F100040F8043B51F8043B40F8043B51F8043BD3
:100F200040F8043B51F8043B40F8043B51F8043BC3
:100F300040F8043B51F8043B40F8043B51F8043BB3
:100F400040F8043B51F8043B40F8043B51F8043BA3
:100F500040F8043B51F8043B40F8043B51F8043B93
:100F600040F8043B403ABDD2303211D351F8043B33
:100F700040F8043B51F8043B40F8043B51F8043B73
:100F800040F8043B51F8043B40F8043B103AEDD2E2
:100F90000C3205D351F8043B40F8043B043AF9D233
:100FA000043208D0D2071CBF11F8013B00F8013B06
:100FB00001D30B8803806046704700BF082A13D313
:100FC0008B078DD010F003038AD0C3F10403D21A2B
:100FD000DB071CBF11F8013B00F8013B80D331F85F
:100FE000023B20F8023B7BE7043AD9D3013A11F8DF
:100FF000013B00F8013BF9D20B7803704B7843704A
:101000008B7883706046704700000000000000008D
:1010100000000000000000000000000000000000D0
:10102000A2EB0300704700BF02780B78012A28BFAB
:101030009A42F5D16DE9044540EA0104CDE9026721
:101040006FF0000C4FEA447212B380EA010414F00E
:10105000070F6AD100F0070420F0070004F0030531
:1010600021F007014FEAC505F0E8042314F0040F4E
:10107000F1E804670CFA05F462EA040266EA040681
:101080000AD063EA0403624667EA0407664603E09F
:10109000F0E80423F1E8046782FA4CF582EA0604DA
:1010A000A4FA8CF46CBB83FA4CF583EA0705A5FA25
:1010B0008CF595B950E9022351E9026782FA4CF5A3
:1010C00082EA0604A4FA8CF483FA4CF583EA070555
:1010D000A5FA8CF52543DBD09CB92DBAB5FA85F479
:1010E00024F0070427FA04F1DDE9026723FA04F388
:1010F00003F0FF0001F0FF01FDE80445A0EB010053
:10110000704724BAB4FA84F424F0070426FA04F1F0
:10111000DDE9026722FA04F202F0FF0001F0FF01AC
:10112000FDE80445A0EB0100704714F0030F3CD12B
:1011300010F0030428D150F8082B51F8083B82FA2C
:101140004CF582EA0305A5FA8CF55DB950F8042C3C
:1011500051F8043C82FA4CF582EA0305A5FA8CF5B5
:10116000002DE8D02DBAB5FA85F424F0070423FA4F
:1011700004F122FA04F202F0FF0001F0FF01FDE8A1
:101180000445A0EB010070474FEAC40420F00300BF
:1011900050F8082B21F0030151F8083B0CFA04F435
:1011A00062EA040263EA0403C9E710F003041AD0F8
:1011B000A1EB040120F00300E40750F8042B06D053
:1011C0000FD28B785FFAA2F4E41A06D12BB1CB7858
:1011D0005FFAB2F4E41A00D11BB920465DF8104B57
:1011E000704701F1040150F8042BCC0721F00301F2
:1011F00051F8043B48D824D222F07F4482FA4CF5BF
:1012000094EA1325A5FA8CF50AD165B951F8043B87
:1012100084EA0204B4EB036F0ED150F8042BEBE721
:101220004FEA132355E035F07F454DD10878FDE8AE
:101230000445C0F1000070474FEA126203F0FF035B
:1012400047E002EA1C4482FA4CF594EA1345A5FAF9
:101250008CF50AD165B951F8043B84EA0204B4EB79
:10126000034F0CD150F8042BEBE74FEA134330E067
:1012700015EA1C4528D10B884FEA124229E04FEAB3
:10128000124203EA1C4324E002F0FF0482FA4CF508
:1012900094EA1365A5FA8CF50AD165B951F8043BB7
:1012A00084EA0204B4EB032F09D150F8042BEBE7D6
:1012B0004FEA13630DE015F0FF0F05D10B684FEAFD
:1012C000122223F07F4304E04FF00000FDE80445C4
:1012D000704712BA1BBA82FA4CF482EA0304A4FAE9
:1012E0008CF5B5FA85F402FA04F203FA04F34FEA36
:1012F0001260FDE80445A0EB136070470000000099
:1013000090F800F06DE9024520F007016FF0000C45
:1013100010F0070491F820F040F049804FF00004ED
:101320006FF00700D1E9002391F840F000F10800C8
:1013300082FA4CF2A4FA8CF283FA4CF3A2FA8CF300
:101340004BBBD1E9022382FA4CF200F10800A4FA67
:101350008CF283FA4CF3A2FA8CF3E3B9D1E90423BB
:1013600082FA4CF200F10800A4FA8CF283FA4CF3F2
:10137000A2FA8CF37BB9D1E9062301F1200182FAAC
:101380004CF200F10800A4FA8CF283FA4CF3A2FAB2
:101390008CF3002BC6D0002A04BF04301A4612BAC0
:1013A000B2FA82F2FDE8024500EBD2007047D1E9C3
:1013B000002304F00305C4F100004FEAC50514F052
:1013C000040F91F840F00CFA05F562EA05021CBF23
:1013D00063EA050362464FF00004A9E7000000003D
:1013E00001F0FF01102A2BDB10F0070F08D010F8D6
:1013F000013B013A8B422DD010F0070F42B3F6D1DA
:10140000F0B441EA012141EA014122F007047FF0F2
:1014100000070023F0E80256083C85EA010586EA49
:10142000010685FA47F5A3FA87F586FA47F6A5FA85
:1014300087F68EB9EED1F0BC01F0FF0102F0070291
:1014400032B110F8013B013A83EA010313B1F8D13C
:101450000020704701387047002D06BF354603381D
:10146000073815F0010F07D1013015F4807F02BF56
:10147000013015F4C03F0130F0BC0138704700BFA7
:101480004FEA410C7FEA6C5C02D150EA013C0AD180
:101490004FEA430C7FEA6C5C02D152EA033C02D172
:1014A0004FF0000070474FF00100704710B5044640
:1014B0000E4B18784FF47A73B3FBF0F30C4A1068B4
:1014C000B0FBF3F000F0ACF868B90F2C01D90120A3
:1014D0000AE0002221464FF0FF3000F05FF8054B94
:1014E0001C60002000E0012010BD00BF3C00002077
:1014F0007C0000204000002008B50B4B1A6842F425
:1015000000721A601A6842F480621A601A6842F423
:1015100080721A60032000F02FF80020FFF7C6FF4A
:1015200003F074FE002008BD003C0240034A11682D
:10153000034B1B780B441360704700BF780C0020EE
:101540003C000020014B1868704700BF780C002059
:1015500038B50446FFF7F6FF0546B4F1FF3F02D069
:10156000044B1B781C44FFF7EDFF401BA042FAD34D
:1015700038BD00BF3C000020074AD36823F4E06375
:101580001B041B0C000200F4E060034343F0BF6344
:1015900043F40033D360704700ED00E030B4174BE4
:1015A000DB68C3F30223C3F10704042C28BF04241F
:1015B0001D1D062D18D9033B4FF0FF3505FA04F425
:1015C00021EA0401994005FA03F322EA03031943CF
:1015D00000280BDB0901C9B200F1604000F5614051
:1015E00080F8001330BC70470023E5E700F00F00DF
:1015F0000901C9B2024B1954F4E700BF00ED00E045
:1016000014ED00E0002807DB00F01F024009012371
:101610009340024A42F82030704700BF00E100E0EA
:101620000138B0F1807F0AD2064B5860064AF0219B
:1016300082F823100020986007221A60704701206A
:10164000704700BF10E000E000ED00E058B110B5B9
:10165000044643791BB101236371002010BD03715F
:1016600003F02CFBF7E701207047000000230F2B4D
:1016700000F2D980F0B583B039E0072200E0002203
:10168000B2403A430234684E46F82420674A146850
:10169000EA4324EA05064F6817F4803F01D045EA83
:1016A0000406624C2660646802EA04064F6817F478
:1016B000003F01D045EA04065C4C6660A46802EA7B
:1016C00004064F6817F4801F01D045EA0406574C02
:1016D000A660E46822404E6816F4001F01D045EA77
:1016E0000402524CE26001330F2B00F29A80012277
:1016F0009A400C6804EA020532EA0404F3D14C680B
:10170000661E012E03D9112C01D0122C12D186682D
:101710005F000324BC4026EA0406CC68BC40344386
:101720008460466826EA02064C68C4F300129A40B8
:1017300032434260C7685E000324B440E24327EAB4
:1017400004078C68B4403C43C4604C68022C01D050
:10175000122C13D1DF08083750F827E003F00704F4
:101760004FEA840C0F2404FA0CF42EEA040E0C69E0
:1017700004FA0CF444EA0E0440F8274004681440CC
:101780004A6802F00302B240224302604A6812F043
:10179000805FA8D000220192254A546C44F4804412
:1017A0005464526C02F480420192019A9C08A61C77
:1017B0001D4A52F8267003F0030296000F22B24031
:1017C00027EA02071B4A90423FF459AF02F58062B4
:1017D00090421AD002F58062904218D002F58062E1
:1017E000904216D002F58062904214D002F58062D9
:1017F000904212D002F58062904210D002F58062D1
:1018000090423FF43AAF08223AE7012238E7022239
:1018100036E7032234E7042232E7052230E70622C6
:101820002EE703B0F0BD704700380140003C014096
:1018300000380240000002400369194201D0012033
:101840007047002070470AB18161704709048161C7
:101850007047436931EA030301D08161704709048D
:1018600081617047002800F0D98170B582B00446CC
:10187000036813F0010F3BD0A64B9B6803F00C03E9
:10188000042B2CD0A34B9B6803F00C03082B21D016
:101890006368B3F5803F4FD0B3F5A02F52D09D4B76
:1018A0001A6822F480321A601A6822F480221A60C0
:1018B0006368002B50D0FFF745FE0546954B1B682B
:1018C00013F4003F14D1FFF73DFE401B6428F5D907
:1018D0000320AAE18F4B5B6813F4800FD8D08D4BA7
:1018E0001B6813F4003F03D06368002B00F098815D
:1018F000236813F0020F54D0864B9B6813F00C0F33
:101900003ED0844B9B6803F00C03082B33D0E36874
:10191000002B67D0804B01221A60FFF713FE0546AB
:101920007C4B1B6813F0020F53D1FFF70BFE401BDB
:101930000228F5D9032078E1764A136843F480330E
:101940001360B5E7734B1A6842F480221A601A6874
:1019500042F480321A60ABE7FFF7F4FD05466D4BA9
:101960001B6813F4003FC3D0FFF7ECFD401B642855
:10197000F5D9032059E1674B5B6813F4800FC6D19A
:10198000644B1B6813F0020F03D0E368012B40F097
:101990004981604A136823F0F803216943EAC103CF
:1019A0001360236813F0080F40D0636963B35B4B87
:1019B00001221A60FFF7C6FD0546564B5B6F13F018
:1019C000020F33D1FFF7BEFD401B0228F5D90320DB
:1019D0002BE1504A136823F0F803216943EAC1035D
:1019E0001360DEE74C4B00221A60FFF7ABFD0546A3
:1019F000484B1B6813F0020FD3D0FFF7A3FD401B29
:101A00000228F5D9032010E1444B00221A60FFF7A9
:101A100099FD05463F4B5B6F13F0020F06D0FFF7B1
:101A200091FD401B0228F5D90320FEE0236813F046
:101A3000040F78D0374B1B6C13F0805F0DD100235F
:101A40000193344B1A6C42F080521A641B6C03F001
:101A500080530193019B012500E00025304B1B685A
:101A600013F4807F21D0A368012B32D0052B36D010
:101A7000284B1A6F22F001021A671A6F22F0040233
:101A80001A67A368002B34D0FFF75CFD0646214B94
:101A90001B6F13F0020F45D1FFF754FD801B41F27D
:101AA00088339842F3D90320BFE01D4A136843F4FA
:101AB00080731360FFF746FD0646194B1B6813F44D
:101AC000807FD0D1FFF73EFD801B0228F5D903208F
:101AD000ABE0104A136F43F001031367D1E70D4BDE
:101AE0001A6F42F004021A671A6F42F001021A6775
:101AF000C7E7FFF727FD0646064B1B6F13F0020FE3
:101B000010D0FFF71FFD801B41F288339842F3D9B4
:101B100003208AE00038024000004742800E47421E
:101B200000700040E5B9A369002B7DD0464A926859
:101B300002F00C02082A51D0022B17D0434B00228E
:101B40001A60FFF7FFFC04463F4B1B6813F0007F51
:101B500042D0FFF7F7FC001B0228F5D9032064E010
:101B6000394A136C23F080531364DCE7374B0022AF
:101B70001A60FFF7E7FC0546334B1B6813F0007F44
:101B800006D0FFF7DFFC401B0228F5D903204CE00C
:101B9000E369226A1343626A43EA8213A26A520823
:101BA000013A43EA0243E26A43EA0263264A536087
:101BB000264B01221A60FFF7C5FC0446224B1B6826
:101BC00013F0007F06D1FFF7BDFC001B0228F5D9FA
:101BD00003202AE0002028E0002026E0012B26D068
:101BE000194B5B6803F48001E269914221D103F053
:101BF0003F02216A8A421ED1616A47F6C0721A40CA
:101C00008A421AD103F44032A16A8A4217D103F002
:101C10007063E26A934214D1002006E0012070470D
:101C2000012002E0012000E0002002B070BD012090
:101C3000FBE70120F9E70120F7E70120F5E70120A4
:101C4000F3E70120F1E700BF00380240600047429F
:101C5000F8B52F4B9B6803F00C03042B53D0082BD3
:101C600053D12B4B5A6802F03F025B6813F4800F8C
:101C700028D0274B5B68C3F3881358010021C01A92
:101C800061F100018E0146EA906687013C1A66EB1D
:101C90000105E90041EA5471E000C01841F100017A
:101CA0004B0243EAD0534402204619460023FEF774
:101CB00095FF174B5B68C3F3014301335B00B0FB37
:101CC000F3F023E0124B5B68C3F388135C0100253B
:101CD000E41A65F10005AE0146EA9466A701381BD7
:101CE00066EB0501CC0044EA5074C500E81844F1E5
:101CF00000018B0243EA90538402204619460023D8
:101D0000FEF76CFFD5E7034800E00348F8BD00BFCD
:101D10000038024000127A000024F400002800F08D
:101D20009B8070B50D4604464F4B1B6803F00F03B4
:101D30008B4208D2CBB24C4A1370136803F00F03E6
:101D40008B4240F08B80236813F0020F17D013F002
:101D5000040F04D0454A936843F4E053936023682A
:101D600013F0080F04D0414A936843F46043936032
:101D70003E4A936823F0F003A1680B439360236805
:101D800013F0010F32D06368012B21D09A1E012A73
:101D900025D9364A126812F0020F61D033498A6899
:101DA00022F0030213438B60FFF7CCFB06462F4B58
:101DB0009B6803F00C036268B3EB820F16D0FFF749
:101DC000C1FB801B41F288339842F0D9032042E0E6
:101DD000264A126812F4003FE0D101203BE0234A7A
:101DE000126812F0007FD9D1012034E01E4B1B682D
:101DF00003F00F03AB4207D9EAB21B4B1A701B6802
:101E000003F00F03AB422DD1236813F0040F06D06B
:101E1000164A936823F4E053E1680B439360236808
:101E200013F0080F07D0114A936823F46043216927
:101E300043EAC1039360FFF70BFF0C4B9B68C3F3AE
:101E400003130B4AD35CD8400A4B18600A4B18683E
:101E5000FFF72CFB002070BD012070470120FAE73E
:101E60000120F8E70120F6E7003C0240003802407C
:101E7000340001087C00002040000020014B18685D
:101E8000704700BF7C00002008B5FFF7F7FF044B48
:101E90009B68C3F38223034AD35CD84008BD00BFCC
:101EA000003802404400010808B5FFF7E7FF044B83
:101EB0009B68C3F34233034AD35CD84008BD00BFDC
:101EC00000380240440001082DE9F04106468846EA
:101ED00017461D463468A46838EA04030CBF012481
:101EE0000024BC4237D0B5F1FF3FF3D0FFF72AFB07
:101EF000069BC01AA84201D2002DEBD1326853686C
:101F000023F0E00353607368B3F5827F0BD0B36AAC
:101F1000B3F5005F14D0012386F85130002386F812
:101F20005030032018E0B368B3F5004F02D0B3F58A
:101F3000806FECD13268136823F040031360E6E74A
:101F40003268136823F4005313603268136843F453
:101F500000531360DFE70020BDE8F08130B585B0A5
:101F60000446164B1868164BA3FB0030400D4FF487
:101F70007A7505FB00F003906368B3F5827F0BD0A0
:101F8000039BBBB1039B013B039323689B6813F046
:101F9000800FF5D100200EE000920B460022802138
:101FA0002046FFF791FF30B1636D43F02003636576
:101FB000032000E0002005B030BD00BF7C00002001
:101FC000819F5E1600283BD010B504460023836233
:101FD00090F85130002B2ED0022384F85130226823
:101FE000136823F0400313606368A2681343E26838
:101FF00013432269134362691343A26902F4007216
:102000001343E2691343226A1343A16A22680B4314
:102010001360638B03F00403616A22680B4353600F
:102020002268D36923F40063D36100206065012333
:1020300084F8513010BD80F8503003F097F8CBE7AA
:10204000012070472DE9F04383B01F460A9D90F8A8
:102050005030012B00F01081044688469146012340
:1020600080F85030FFF76EFA064694F85130DBB234
:102070006268012B0AD0B2F5827F40F0E380A2684B
:10208000002A40F0E980042B40F0E880B8F1000F0E
:1020900000F0E680B9F1000F00F0E480002F00F0BE
:1020A000E38094F85130DBB2042B02D0052384F88E
:1020B000513000236365C4F83890E787A787C4F8D8
:1020C0003080E786A7862364636423681A6812F069
:1020D000400F03D11A6842F040021A60E368B3F57A
:1020E000006F11D063680BB1012F0BD1226B2368F5
:1020F00012781A73236B01332363E38E9BB2013B87
:102100009BB2E38601276BE063680BB1012F0BD113
:10211000226B23681288DA60236B02332363E38E19
:102120009BB2013B9BB2E38601271CE023689A68BF
:1021300012F0010F0ED0E28F92B25AB1DA68A36B9F
:102140001A80A36B0233A363E38F9BB2013B9BB264
:10215000E3870127FFF7F6F9801BA84203D3B5F107
:10216000FF3F40F08380E38E9BB21BB9E38F9BB2AD
:10217000002B53D023689A6812F0020FD6D0E28E5B
:1021800092B2002AD2D0002FD0D0226B1288DA600F
:10219000236B02332363E38E9BB2013B9BB2E38646
:1021A0000027C3E723689A6812F0010F0ED0E28F70
:1021B00092B25AB1DA68A36B1A70A36B0133A363AE
:1021C000E38F9BB2013B9BB2E3870127FFF7BAF98C
:1021D000831BAB4202D3B5F1FF3F49D1002D49D05B
:1021E000E38E9BB213B9E38F9BB2BBB123689A68AD
:1021F00012F0020FD6D0E28E92B2002AD2D0002F77
:10220000D0D0226B12781A73236B01332363E38ED1
:102210009BB2013B9BB2E3860027C3E732462946C7
:102220002046FFF79BFE48B9A36863B90193236872
:10223000DA6801929B680193019B04E020236365A7
:10224000012000E00220012384F85130002384F8AB
:10225000503003B0BDE8F0830220F4E70220F2E73B
:102260000120F0E70120EEE70120ECE70320EAE798
:102270000320E8E70320E6E70220EAE728B370B589
:102280000E461546044690F84930CBB1214651F828
:10229000080B00F097FCA2683146206800F0C0FCF3
:1022A000236BA2682946606800F0DAFC2268A16806
:1022B00052F8213043F0010342F82130002070BD74
:1022C00080F8483002F0A4FDE0E70120704730B408
:1022D000036A056A25F001050562846924F0F004AB
:1022E00044EA021423F00A030B438461036230BC06
:1022F000704730B4056A25F0100505628469036AE9
:1023000024F4704444EA023423F0A00343EA0113A6
:102310008461036230BC7047836823F070030B4311
:1023200043F00703836070470268D36843F00103FA
:10233000D3600268936803F00703062B03D0136889
:1023400043F00103136000207047704770477047E7
:10235000704710B5044603681A6912F0020F11D0D5
:10236000DA6812F0020F0DD06FF002021A61012339
:10237000037703689B6913F0030F70D0FFF7E6FF44
:102380000023237723681A6912F0040F12D0DA6849
:1023900012F0040F0ED06FF004021A6102232377AB
:1023A00023689B6913F4407F5FD02046FFF7CEFF80
:1023B0000023237723681A6912F0080F12D0DA6815
:1023C00012F0080F0ED06FF008021A610423237771
:1023D0002368DB6913F0030F4ED02046FFF7B6FFEA
:1023E0000023237723681A6912F0100F12D0DA68DD
:1023F00012F0100F0ED06FF010021A61082323772D
:102400002368DB6913F4407F3DD02046FFF79EFF31
:102410000023237723681A6912F0010F03D0DA68CA
:1024200012F0010F36D123681A6912F0800F03D021
:10243000DA6812F0800F34D123681A6912F0400F65
:1024400003D0DA6812F0400F32D123681A6912F013
:10245000200F03D0DA6812F0200F30D110BDFFF743
:1024600074FF2046FFF773FF8AE72046FFF76DFFF2
:102470002046FFF76CFF9BE72046FFF766FF2046EC
:10248000FFF765FFACE72046FFF75FFF2046FFF749
:102490005EFFBDE76FF001021A61204603F032F8DB
:1024A000C1E76FF080021A61204600F04CF9C3E7E3
:1024B0006FF040021A612046FFF74AFFC5E76FF050
:1024C00020021A61204600F03DF9C7E70368304A50
:1024D000904212D0B0F1804F0FD0A2F57C429042D2
:1024E0000BD002F58062904207D002F580629042E4
:1024F00003D002F57842904203D123F070034A687A
:102500001343234A90422AD0B0F1804F27D0A2F53E
:102510007C42904223D002F5806290421FD002F5A7
:10252000806290421BD002F57842904217D002F5AB
:102530007052904213D002F5806290420FD002F5A3
:10254000806290420BD0A2F59832904207D002F5FB
:102550008062904203D002F58062904203D123F45E
:102560004073CA68134323F080034A69134303602E
:102570008B68C3620B688362054B984203D003F5F6
:102580008063984201D10B69036301234361704763
:1025900000000140B0B110B5044690F83D3063B181
:1025A000022384F83D30214651F8040BFFF78EFFDB
:1025B000012384F83D30002010BD80F83C3002F04B
:1025C0004DFFEDE70120704710B4846824F47F4488
:1025D00042EA03220A43224382605DF8044B7047BB
:1025E00090F83C30012B66D010B50446012380F8EA
:1025F0003C30022380F83D300268936823F47F4327
:1026000023F0770393600B68602B40D022D8402BD7
:1026100047D00BD9502B0ED1CA6849680068FFF724
:1026200056FE50212068FFF777FE04E0202B0CD0E7
:1026300008D9302B09D0012384F83D30002084F8DC
:102640003C0010BD0BB1102BF5D119462068FFF7E7
:1026500063FEF0E7702B0ED0B3F5005FEBD1CB68D3
:102660004A6889680068FFF7AFFF2268936843F4FF
:1026700080439360DFE7CB684A6889680068FFF7AA
:10268000A3FF2268936843F077039360D3E7CA6897
:1026900049680068FFF72DFE60212068FFF73CFEC7
:1026A000C9E7CA6849680068FFF711FE4021206841
:1026B000FFF732FEBFE702207047000090F83C3081
:1026C000012B3BD030B4012380F83C30022380F84A
:1026D0003D3003685C689D6824F070040A682243FA
:1026E0005A600368164A93421AD0B3F1804F17D04C
:1026F000A2F57C42934213D002F5806293420FD040
:1027000002F5806293420BD002F57842934207D0E3
:1027100002F57052934203D0A2F59432934204D151
:1027200025F080054A6815439D60012380F83D30FF
:10273000002380F83C30184630BC704702207047B8
:10274000000001407047704770B504460268136985
:1027500023F44053C1680B43136183680269134338
:1027600042691343C2691A430168CB6823F41643D4
:1027700023F00C031343CB600268536923F44073C6
:1027800081690B435361C369B3F5004F36D00368C9
:10279000654A934200F09A8002F58062934200F00D
:1027A0009580FFF771FB0026051846EB06012D18F2
:1027B00046EB0101CB0043EA5573EA001546194682
:1027C00063689A009B0F281846EB0101FEF706FA92
:1027D000564DA5FB00325109642303FB11031B0175
:1027E0003233A5FB03235B0903F0F00202EB011275
:1027F00003F00F03216813448B6093E003684A4A97
:10280000934233D002F5806293422FD0FFF73CFB16
:102810000026051846EB06012D1846EB0101CB00FA
:1028200043EA5573EA001546194662683346921822
:1028300046EB0303281846EB0101FEF7CFF93B4DA9
:10284000A5FB00325109642303FB1103DB00323383
:10285000A5FB03235B095A0002F4F87202EB011294
:1028600003F00703216813448B605BE0FFF71CFB58
:102870000026051846EB06012D1846EB0101CB009A
:1028800043EA5573EA0015461946626833469218C2
:1028900046EB0303281846EB0101FEF79FF9234D91
:1028A000A5FB00325109642303FB1103DB00323323
:1028B000A5FB03235B095A0002F4F87202EB011234
:1028C00003F00703216813448B602BE0FFF7ECFA59
:1028D0000026051846EB06012D1846EB0101CB003A
:1028E00043EA5573EA001546194663689A009B0F40
:1028F000281846EB0101FEF771F90C4DA5FB0032DB
:102900005109642303FB11031B013233A5FB03238D
:102910005B0903F0F00202EB011203F00F032168E0
:1029200013448B6070BD00BF001001401F85EB5148
:102930002DE9F84305460F4616469946DDF82080F6
:102940002C68246837EA04030CBF01240024B44235
:102950001FD1B8F1FF3FF3D0B8F1000F05D0FEF75B
:10296000F1FDA0EB09004045EAD92A68D36823F4B9
:10297000D073D3602A68536923F001035361202385
:1029800085F8393085F83A30002385F8383003204F
:1029900000E00020BDE8F88358B310B5044690F875
:1029A00039300BB3242384F839302268D36823F4F8
:1029B0000053D3602046FFF7C7FE2268136923F453
:1029C000904313612268536923F02A0353612268FC
:1029D000D36843F40053D3600020E063202384F8DD
:1029E000393084F83A3010BD80F8383002F0C8FD34
:1029F000D8E7012070472DE9F04383B01E4690F8D8
:102A00003930DBB2202B59D104460D4690460029BF
:102A100058D0002A58D090F83830012B56D00123D6
:102A200080F838304FF00009C0F83C90212380F83E
:102A30003930FEF787FD0746A4F82480A4F82680E5
:102A400084F8389017E000963B460022802120460B
:102A5000FFF76EFF00283BD12B882268C3F30803E1
:102A6000536023690BB9023505E0013503E015F821
:102A7000012B23685A60E38C9BB29BB1E28C92B22B
:102A8000013A92B2E284A368B3F5805FDBD000968E
:102A90003B46002280212046FFF74AFF0028E6D06F
:102AA00003200CE000963B46002240212046FFF721
:102AB0003FFF78B9202384F8393000E0022003B0CA
:102AC000BDE8F0830120FAE70120F8E70220F6E7ED
:102AD0000320F4E70320F2E72DE9F04383B01E461C
:102AE00090F83A30DBB2202B5DD104460D4690467B
:102AF00000295CD0002A5CD090F83830012B5AD0E5
:102B0000012380F838304FF00009C0F83C902223B0
:102B100080F83A30FEF716FD0746A4F82C80A4F89A
:102B20002E8084F838901DE000963B46002220213C
:102B30002046FFF7FDFE00283FD1236933B9236803
:102B40005B68C3F3080325F8023B0BE023685B686E
:102B5000DBB225F8013B05E023685B6803F07F03E7
:102B600005F8013BE38D9BB2C3B1E28D92B2013A0D
:102B700092B2E285A368B3F5805FD5D000963B465C
:102B8000002220212046FFF7D3FEC0B92369002B85
:102B9000E2D123685B6805F8013BE3E7202384F872
:102BA0003A30002000E0022003B0BDE8F0830120AD
:102BB000FAE70120F8E70220F6E70320F4E7032014
:102BC000F2E7000070B40C6850F82430134E1E4039
:102BD0004A688D6842EA0503CA6813430A691343C9
:102BE0004A6913438A691343CA6913430A6A134340
:102BF0004A6A13438A6A1343CA6A1343CA6B13436C
:102C00000A6B13433343082D04D040F824300020CE
:102C100070BC704743F04003F7E700BF8000F0FF4F
:102C200030B4013250F8224004F040440B684D6843
:102C300043EA05138D6843EA0523CD6843EA05435B
:102C40000D69013D43EA05534D69023D43EA0563C1
:102C500089690B43234340F82230002030BC704781
:102C6000B3F5804F05D06FF0704340F8223000205C
:102C7000704730B450F82230094C1C400B684D6846
:102C800043EA05138D6843EA0523CD6843EA05430B
:102C900089690B43234340F82230002030BC704741
:102CA0000000F0CF7047704710B50A4B9B8845F283
:102CB0001052934203D041F66312934205D1064C61
:102CC000636800209847A08910BDD02001F0B0F9BA
:102CD000FAE700BF840C00204800002010B50A4B22
:102CE0009B8845F21052934203D041F663129342FF
:102CF00005D1064C636800209847E08A10BD9020FB
:102D000001F096F9FAE700BF840C0020480000208B
:102D100010B5044600F066F8230A5B00DBB2603BA6
:102D200003F0FE0000F046F900F0B4F8E0B200F065
:102D300041F900F0AFF800F055F8A12000F03AF9A1
:102D400000F0A8F8002000F077F9044600F076F8CB
:102D5000204610BD38B504460D4600F043F8230A5E
:102D60005B00DBB2603B03F0FE0000F023F900F0F3
:102D700091F8E0B200F01EF900F08CF8284600F05F
:102D800019F900F087F800F059F80A20FEF7E0FB87
:102D900038BDF8B507460E4615460024AC420AD2A7
:102DA000E10026FA01F13819C9B280B2FFF7D2FF6B
:102DB0000134E4B2F2E7F8BDF8B507460E4600204C
:102DC0000446B4420CD20502B81980B2001B80B28E
:102DD000013880B2FFF79CFF28440134E4B2F0E7E9
:102DE000F8BD000010B5144C236823F44023236081
:102DF000236843F48023236001224FF400712046AE
:102E0000FEF721FD01224FF480712046FEF71BFDE5
:102E1000042001F0B5FE00224FF400712046FEF7B9
:102E200012FD042001F0ACFE00224FF48071204618
:102E3000FEF709FD10BD00BF0004024010B5144CA0
:102E4000236823F440232360236843F48023236012
:102E500000224FF480712046FEF7F5FC00224FF46B
:102E600000712046FEF7EFFC042001F089FE0122EC
:102E70004FF480712046FEF7E6FC01224FF400710A
:102E80002046FEF7E0FC042001F07AFE10BD00BFF2
:102E90000004024038B51A4C236823F44023236011
:102EA0002368236001224FF400712046FEF7CBFC1B
:102EB000012001F065FE01224FF480712046FEF7EB
:102EC000C2FC012001F05CFE00244FF400710C48AC
:102ED000FEF7B2FC054638B10134E4B2FA2CF4D95D
:102EE000FFF7ACFF012508E000224FF4807100F1EC
:102EF000804000F50130FEF7A6FC284638BD00BF33
:102F00000004024010B5144C00224FF4807120469A
:102F1000FEF799FC236823F440232360236843F4DD
:102F20008023236000224FF400712046FEF78BFCC3
:102F3000022001F025FE01224FF480712046FEF7A9
:102F400082FC022001F01CFE00224FF4807120461A
:102F5000FEF779FC10BD00BF0004024010B5144C10
:102F600000224FF480712046FEF76DFC236823F4A5
:102F700040232360236843F48023236001224FF41D
:102F800000712046FEF75FFC022001F0F9FD0122EE
:102F90004FF480712046FEF756FC022001F0F0FD50
:102FA00000224FF480712046FEF74DFC10BD00BF9B
:102FB0000004024070B504461E48036823F4402311
:102FC0000360036843F48023036000224FF48071A0
:102FD000FEF739FC00251FE001224FF4007115486F
:102FE000FEF731FC6400E4B2022001F0C9FD114E8D
:102FF00001224FF480713046FEF725FC022001F0DB
:10300000BFFD00224FF480713046FEF71CFC022009
:1030100001F0B6FD0135EDB2072D09D814F0800F8F
:10302000DAD100224FF400710248FEF70CFCD9E718
:1030300070BD00BF00040240F8B507461A4B1A687D
:1030400022F440221A601A681A600024254604E01F
:10305000012001F095FD0135EDB2072D1BD8124E70
:1030600000224FF480713046FEF7EDFB022001F0A4
:1030700087FD01224FF480713046FEF7E4FB6400C7
:10308000E4B24FF400713046FEF7D6FB0028DFD0E3
:103090000134E4B2DCE71FB9FFF760FF2046F8BD5A
:1030A000FFF730FFFAE700BF0004024010B584B01C
:1030B000030A8DF80C308DF80D000D4C0022022112
:1030C0002046FEF7C0FB0A230093022302AA03A9AD
:1030D0000848FEF7B7FF012202212046FEF7B3FBA6
:1030E0009DF808009DF8093043EA002004B010BDA7
:1030F00000080240F80C002082B0ADF80600BDF8D0
:1031000006309BB2ADF80630BDF80620014B1A80A0
:1031100002B070477E00006C82B0ADF80600BDF8CA
:1031200006309BB2ADF80630BDF80620014B5A8040
:1031300002B070477E00006C82B0ADF80600ADF8BA
:103140000410BDF80620034B1A80BDF804205A80F5
:1031500002B070477E00006C024B1A89024B1A8045
:10316000704700BF840C00207E00006C70B50446E0
:103170000D46614B9B8849F2413293421FD045F284
:10318000103293421BD046F6040293422BD041F6F4
:103190006312934246D045F21052934200F086806B
:1031A000554B9B79012B00F09F80534E214670892F
:1031B000FFF7C2FF2946B089FFF7BEFF12E04E4E6F
:1031C0007089FFF799FF200AFFF7A6FFE0B2FFF72B
:1031D000A3FFB089FFF790FF280AFFF79DFFE8B231
:1031E000FFF79AFF70BD444B9B79012B13D0424EE1
:1031F0007089FFF781FF200AFFF78EFFE0B2FFF72B
:103200008BFFB089FFF778FF280AFFF785FFE8B248
:10321000FFF782FFE6E7384B1B881C1AA4B2013C7B
:10322000A4B2E4E7344B9B7953BB334A13881C1A8E
:10323000A4B2013CA4B25089FFF75EFF0020FFF763
:103240006BFF0020FFF768FF200AFFF765FFE0B281
:10325000FFF762FF284CA089FFF74EFF280AFFF70F
:103260005BFFE8B2FFF758FF60880138C0F30F201A
:10327000FFF752FF60880138C0B2FFF74DFFB1E79A
:103280001D4E7089FFF738FF200AFFF745FFE0B2B7
:10329000FFF742FF30880138C0F30F20FFF73CFFF3
:1032A00030880138C0B2FFF737FFD3E7124E70897C
:1032B000FFF722FF200AFFF72FFF7089013080B24D
:1032C000FFF71AFFE0B2FFF727FFB089FFF714FFFF
:1032D000280AFFF721FFB089013080B2FFF70CFF09
:1032E000E8B2FFF719FF7DE7034B1B881C1AA4B255
:1032F000013CA4B259E700BF840C002008B5FFF7D9
:1033000035FFFFF729FF024B1A88024B5A8008BD90
:10331000800C00207E00006C2DE9F04104460D4633
:103320001646584B9B8849F2413293421ED045F2D3
:10333000103293421AD045F21052934230D041F6E7
:10334000631293424AD046F60402934274D04D4B26
:103350009B79012B00F08F804A4F21467889FFF737
:10336000EBFE2946B889FFF7E7FE12E0454F788962
:10337000FFF7C2FE200AFFF7CFFEE0B2FFF7CCFE58
:10338000B889FFF7B9FE280AFFF7C6FEE8B2FFF7D3
:10339000C3FE3C4B1A893C4B1A805E80BDE8F0812D
:1033A000384F7889FFF7A8FE200AFFF7B5FE788925
:1033B000013080B2FFF7A0FEE0B2FFF7ADFEB889A2
:1033C000FFF79AFE280AFFF7A7FEB889013080B2FE
:1033D000FFF792FEE8B2FFF79FFEDAE7294B9B79F1
:1033E0002BB9284B1888041BA4B2013CA4B2254F6A
:1033F0007889FFF781FE4FEA14284046FFF78CFEDC
:10340000E4B22046FFF788FE4046FFF785FE2046DF
:10341000FFF782FEB889FFF76FFE2C0A2046FFF700
:103420007BFEEDB22846FFF777FE2046FFF774FEDD
:103430002846FFF771FEACE7124B9B79012B13D0A6
:10344000104F7889FFF758FE200AFFF765FEE0B2BB
:10345000FFF762FEB889FFF74FFE280AFFF75CFE10
:10346000E8B2FFF759FE94E7064B1B881C1AA4B27A
:10347000013CA4B2E4E7034B1B881C1AA4B2013C34
:10348000A4B269E7840C00207E00006C2DE9F041B5
:103490000546174B1C885A8804FB02F49A8846F6A6
:1034A00004039A4203D1124B9B79012B07D00021D0
:1034B0000846FFF75BFEFFF74FFE002314E00C4EBB
:1034C0000020B0712A2777814FF02B08A6F80C80D6
:1034D0000146FFF74BFE0123B371A6F80A80B781BE
:1034E000E9E7044A55800133A342FAD3BDE8F081ED
:1034F000840C00207E00006C2DE9F04F83B08046E4
:10350000A2EB000A8946A3EB010BBAF1000F0DDD17
:1035100001220092BBF1000F14DD01230193DA4573
:103520001CDD564600252F462C461BE0BAF1000F45
:1035300005D0A0EB020A4FF0FF320092EAE7CDF887
:1035400000A0E7E7BBF1000F05D0A1EB030B4FF0A4
:10355000FF330193E3E7CDF804B0E0E75E46E1E72F
:103560000134A4B2731C9C4212DC1FFA89F11FFAC9
:1035700088F0FFF7C3FE57445D44BE4202DABF1B2A
:10358000009B9844AE42EBDAAD1B019B9944E7E700
:1035900003B0BDE8F08F2DE9F04F85B080460F46AF
:1035A00000925300C3F103030193002603E0B3002C
:1035B00006331A440192009B9E424CDCB5B205EBE7
:1035C000080B1FFA8BFBBDF800403B1B9BB202931C
:1035D00019465846FFF792FE04EB080A1FFA8AFACA
:1035E0007B1B9AB2039211465046FFF787FE05EB0C
:1035F00007091FFA89F949465046FFF77FFE04EB99
:10360000070A1FFA8AFA51465846FFF777FEA8EBD9
:103610000505ADB251462846FFF770FEA8EB04043D
:10362000A4B249462046FFF769FE02992846FFF7F3
:1036300065FE03992046FFF761FE0136019A002AD4
:10364000B5DB009AB31A9B000A3301991944019122
:10365000531E0093AFE705B0BDE8F08F2DE9F04FA2
:1036600083B0824688461F469DF830B013F00703AA
:1036700018BF012303EBD703790811FB03F3DBB277
:103680000093203AD3B2019344464FF000093FE043
:10369000019B03EB4303294A02EB830313F8095010
:1036A00047E0274B019A03EB021313F8095040E05F
:1036B000244B1A8821465046FFF72EFE6D00EDB2CE
:1036C0000134A4B2204B5B88A34234D9A4EB080395
:1036D000BB4210D00136F6B2072E15D815F0800F78
:1036E000E6D1BBF1000FE9D1184B1A8821465046AC
:1036F000FFF712FEE2E70AF1010A1FFA8AFA124BFB
:103700001B88534517D9444609F101095FFA89F925
:10371000009B99450FD20C2FBAD0102FC1D0182F73
:1037200009D1019B03EBC303094A02EB830313F89E
:1037300009500026D0E703B0BDE8F08FB0E60008DE
:1037400024EB0008800C0020840C002044000020A2
:1037500014F10008024601204B1EDBB219B102FB36
:1037600000F01946F8E770472DE9F04F83B0834623
:103770008A4691461E469DF830704FF00008454637
:1037800019E0780800FB05B0002300933B46202297
:10379000514680B2FFF762FF0BE07808303400FB3F
:1037A00005B0002300933B46E2B2514680B2FFF7DA
:1037B00055FF0135EDB2B5421CD2711BC9B20139BA
:1037C000C9B20A20FFF7C6FFB9FBF0F00B4CA4FB0F
:1037D0000034E40804EB8404A0EB4404E4B2B8F140
:1037E000000FDAD1731E9D42D7DA002CC9D04FF0FA
:1037F0000108D2E703B0BDE8F08F00BFCDCCCCCC40
:103800002DE9F04782B082460D469DF828700B9E48
:1038100002441FFA82F90B441FFA83F804460CE0B5
:10382000454517D2002300933B4629462046FFF723
:1038300015FF04EB5704A4B201363278A2F120033D
:10384000DBB25E2B06D84C45EAD35FFA8AF43D44DE
:10385000ADB2E5E702B0BDE8F08708B5022001F09F
:103860008FF908BD38B5134C236823F44003236057
:10387000236843F48003236001224FF40061204653
:10388000FDF7E1FF0C4D012211462846FDF7DBFF55
:103890001E2001F075F900224FF400612046FDF76B
:1038A000D2FFFFF7DAFF002201212846FDF7CBFF08
:1038B00038BD00BF001402400004024038B5104C6F
:1038C000236823F440032360236843F480032360C8
:1038D0000C4D012211462846FDF7B5FF1E2001F0D0
:1038E0004FF900224FF400612046FDF7ACFFFFF7CF
:1038F000B4FF012211462846FDF7A5FF38BD00BFE1
:10390000001402400004024038B5184B1A6822F433
:1039100040021A601A681A60154C012211462046AE
:10392000FDF791FF012211462046FDF78CFFFFF7BE
:1039300094FF00244FF400610C48FDF77DFF05461D
:1039400050B10134E4B2FA2C02D8FFF786FFF1E758
:10395000FFF7B4FF012507E00022012100F18040BC
:1039600000F50130FDF76FFF284638BD0014024016
:103970000004024038B5134D002201212846FDF70E
:1039800062FF114C236823F440032360236843F44F
:1039900080032360FFF761FF00224FF4006120469F
:1039A000FDF751FFFFF759FF012211462846FDF7A9
:1039B0004AFFFFF752FF002201212846FDF743FF8F
:1039C00038BD00BF000402400014024010B5124C84
:1039D000002201212046FDF736FF104B1A6822F421
:1039E00040021A601A6842F480021A60FFF735FF3D
:1039F000012211462046FDF726FFFFF72EFF012288
:103A000011462046FDF71FFFFFF727FF0022012187
:103A10002046FDF718FF10BD0004024000140240CC
:103A200070B504461B4B1A6822F440021A601A68EB
:103A300042F480021A60002201211748FDF703FFBB
:103A4000FFF70BFF002518E001224FF40061114839
:103A5000FDF7F9FE6400E4B20F4E01221146304634
:103A6000FDF7F1FEFFF7F9FE002201213046FDF7D8
:103A7000EAFEFFF7F2FE0135EDB2072D09D814F08A
:103A8000800FE1D100224FF400610248FDF7DBFE18
:103A9000E0E770BD0014024000040240F8B507469C
:103AA000184B1A6822F440021A601A681A601E2025
:103AB00001F066F80024254601E00135EDB2072D3E
:103AC00018D8114E002201213046FDF7BCFEFFF749
:103AD000C4FE012211463046FDF7B5FE6400E4B293
:103AE0004FF400610748FDF7A7FE0028E5D0013438
:103AF000E4B2E2E71FB9FFF769FF2046F8BDFFF720
:103B000039FFFAE70014024000040240F8B5044609
:103B10000F461546FFF7A6FE2820FFF781FFFFF7A7
:103B2000F3FE200AFFF77CFFFFF7EEFEE0B2FFF79F
:103B300077FFFFF7E9FE00263446AC4209D2385D34
:103B4000FFF76EFFFFF7E0FE064610B90134E4B25E
:103B5000F3E7FFF7B3FE3046F8BD000000B583B0D1
:103B600000238DF804308DF80500B72B09D80F4AD3
:103B7000D25C9DF804100A448DF804200133DBB2B6
:103B8000F3E79DF804305B428DF80430B822074912
:103B900048F24700FFF7BAFF022201A948F2FF00EE
:103BA000FFF7B4FF002003B05DF804FB98FE0008A7
:103BB00070B504460E461546FFF754FE2820FFF761
:103BC0002FFFFFF7A1FE200AFFF72AFFFFF79CFE59
:103BD000E0B2FFF725FFFFF797FEFFF743FE29202E
:103BE000FFF71EFFFFF790FE0024AC4209D2681ECB
:103BF000201A18BF0120FFF751FF30550134E4B2FD
:103C0000F3E7FFF75BFE70BD30B589B00024009488
:103C1000334B1A6B42F002021A631B6B03F0020370
:103C20000093009B2F4D22464FF400512846FDF78C
:103C30000AFE0A20FDF78CFC01224FF400512846B1
:103C4000FDF701FE0A20FDF783FC02230193012307
:103C5000029303940323049301A92348FDF706FD6F
:103C60006420FDF775FC042206A948F24010FFF716
:103C70009FFF8DF81C4006A91C4804F0BFF81C49A2
:103C800006A8FDF7D1F910B1012009B030BD02231B
:103C90008DF81830012206A948F24000FFF736FFE0
:103CA000012206A948F24700FFF782FF9DF818108D
:103CB0005F290DD90A20FDF74BFC00248DF8184030
:103CC000012206A948F24000FFF720FF2046DCE76A
:103CD000084804F093F80120FFF740FFEAE700BF2F
:103CE00000380240000802400004024070FE000854
:103CF0007CFE000884FE000870B584B08DF80700D3
:103D0000744B1A780132D2B21A70734BA3FB0213B0
:103D1000DB0803EB8303A2EB430313F0FF0F02D096
:103D2000092A00F2AD8001220DF1070148F24E1080
:103D3000FFF73EFF9DF807309DF90720002A1CDBA6
:103D40009DF8070000F00F00002800F09A80052879
:103D500000F2A680FF238340DBB28DF80B305F4A70
:103D600092F82050DB4363F03F0382F820309389C0
:103D70009382D38AD383002426E003F00F03052B1C
:103D8000DED800238DF80B3001220DF10B0148F233
:103D90004E10FFF7BBFED3E79DF80D309DF80C10D9
:103DA00001EB03214D4A231D02EB430399809DF84B
:103DB0000F309DF80E1001EB032104F1080302EB14
:103DC0004303D9800134E4B2042C2DD8434B93F83B
:103DD0002030234113F0010FF4D0042203A9404BFB
:103DE00033F81400FFF7E4FE3C4B93F8303013F047
:103DF000010FD1D09DF80D309DF80C2002EB03226D
:103E0000364904F1080301EB4303DA809DF80F30D3
:103E10009DF80E2002EB032292B2C2F54872231DD8
:103E200001EB43018A80CDE72C4B9A892D4B1B88EF
:103E30009A4205D8294BDA8A2A4B5B889A421AD9CA
:103E40009DF8073013F00E0F09D0244BDA899A81C0
:103E50001A8BDA821F4B00221A70012011E01F4BCF
:103E60009A8A9A81DA8BDA8280228DF8072083F889
:103E70002050012005E0174B00221A70012000E0BD
:103E800000209DF8073003F08F03802B0AD0114BE0
:103E90001B78F02B02D90F4B0A221A7004B070BDA8
:103EA0000020EEE70D4A92F8203092F92020002AF7
:103EB00009DB0A4A4FF6FF719181D18223F01F037B
:103EC00082F82030E3E703F07F03044A82F82030D1
:103ED000DDE700BF920C0020CDCCCCCC4800002008
:103EE00050FF0008840C002008B50E4B9A8845F25C
:103EF00010539A4201D0012008BDFFF785FE10B98A
:103F0000094B0A4A5A60084991F8303043F0800260
:103F1000044B93F9063003F00103134381F830306A
:103F20000020E9E7840C002048000020F93C00084C
:103F300070B50446002517E001224FF400611148D6
:103F4000FDF781FC6400E4B20F4E002201213046EF
:103F5000FDF779FC012000F013FE012211463046E6
:103F6000FDF771FC0135EDB2072D09D814F0800F73
:103F7000E2D100224FF400610248FDF764FCE1E762
:103F800070BD00BF001402400004024038B5054671
:103F9000244C002201212046FDF755FC00224FF45D
:103FA00000612148FDF74FFC00224FF400511F48EB
:103FB000FDF749FC2846FFF7BBFF062000F0E0FDB7
:103FC000002201212046FDF73EFC012000F0D8FD33
:103FD000012211462046FDF736FC012000F0D0FDFD
:103FE000002201212046FDF72EFC00240F2C10D8C2
:103FF0000C4D002201212846FDF725FC012000F090
:10400000BFFD012211462846FDF71DFC0134E4B234
:10401000ECE701224FF400510448FDF714FC0020A6
:1040200038BD00BF000402400014024000080240F6
:1040300030B585B005460024042C0AD82846FFF781
:10404000A5FF04AB03EB440323F80C0C0134A4B22A
:10405000F2E700201BE001339BB2042B16D804AA20
:1040600002EB400232F80C2C04A901EB430131F8B9
:104070000C1C8A42EFD904AD05EB400525F80C1C59
:1040800004A901EB430121F80C2CE4E720460328A6
:1040900003D8441CA4B22346DFE70020012308E034
:1040A00004AA02EB430232F80C2C104480B2013314
:1040B0009BB2032BF4D9034BA3FB0030C0F34F009A
:1040C00005B030BDABAAAAAA70B505460C46064B92
:1040D0001878FFF7ADFF0646044B1878FFF7A8FFE6
:1040E0002E802080012070BD460000204700002067
:1040F00070B582B005460C4601A90DF10600FFF728
:10410000E3FF08B902B070BD69460DF10200FFF788
:10411000DBFF0028F6D0BDF80230BDF80620934240
:1041200003D803F13101914205DA93421ED302F123
:10413000310199421CDBBDF80000BDF80410884233
:1041400003D800F131068E4204DA884212D33131AD
:10415000814211DB13445B102B80BDF80430BDF8A5
:10416000002013445B1023800120CBE70020C9E727
:104170000020C7E70020C5E70020C3E710B50446CC
:1041800002213548FDF758FB00284FD1C4B1334810
:1041900000F116010C30FFF7ABFF304B93F92030E4
:1041A000002B07DB2D4BC02283F820209A899A82AE
:1041B000DA8ADA83294B93F8200000F0800010BDE2
:1041C000264800F116010C30FFF792FF0028E4D0DA
:1041D000224B93ED097A9A8907EE902AF8EEE77A56
:1041E00027EE877AB3F92C2007EE902AF8EEE77ACB
:1041F00077EE877AFCEEE77A17EE902A9A8193EDB4
:104200000A7ADA8A07EE902AF8EEE77A27EE877ABA
:10421000B3F92E2007EE902AF8EEE77A77EE877A48
:10422000FCEEE77A17EE902ADA82B6E70B4B93F8AA
:10423000202093F92030002B08DB084B00229A82C3
:10424000DA834FF6FF729A81DA82B3E702F07F02D7
:10425000024B83F82020ADE7000402404800002014
:104260002DE9F04104460D461A4B1A8000F10D026B
:104270000C380B4692B280B2FFF73EF905F10D0300
:10428000A5F10C019BB2224689B22046FFF734F912
:1042900004F101081FFA88F86F1CBFB23946404686
:1042A000FFF72CF8661EB6B239463046FFF726F8FF
:1042B0006F1EBFB239464046FFF720F839463046F8
:1042C000FFF71CF8062229462046FFF764F9BDE8EF
:1042D000F08100BF800C002010B52DED028B194C31
:1042E000D4ED097A9FED188A67EE887A0422FDEEF4
:1042F000E77A17EE901A2820FEF74BFDD4ED0A7AE4
:1043000067EE887A0422FDEEE77A17EE901A2C20E9
:10431000FEF73FFD0222B4F92C103020FEF739FDE4
:104320000222B4F92E103220FEF733FD94F830103B
:104330003420FEF70FFD0A213520FEF70BFDBDEC02
:10434000028B10BD4800002020BCBE4C10B52DEDE6
:10435000028B3520FEF7DCFC0A2803D00020BDECE0
:10436000028B10BD04212820FEF726FD07EE900ADF
:10437000F8EEE77A9FED188A87EE887A174C84ED7D
:10438000097A04212C20FEF717FD07EE900AF8EEBB
:10439000E77A87EE887A84ED0A7A02213020FEF7E8
:1043A0000BFDA08502213220FEF706FDE0853420BA
:1043B000FEF7AEFC84F8300038B1094B90221A7039
:1043C000084BD0221A700120C9E7054BD0221A7081
:1043D000044B90221A70F6E720BCBE4C4800002027
:1043E00046000020470000202DE9F04383B08146BD
:1043F000884617461E464F4B4FF478421A804E4D62
:104400004E4B0193102400946B882A88A021282009
:10441000FFF7F6F94A4B019300946B882A88A02194
:104420007820FFF7EDF9474B019300946B882A88B9
:10443000B4212820FFF7E4F9434B019300946B88E3
:104440002A88B4217820FFF7DBF9404B01930094D0
:104450006B882A88C8212820FFF7D2F93C4B0193AA
:1044600000946B882A88C8217820FFF7C9F9394B56
:10447000019300946B882A88DC212820FFF7C0F97B
:10448000354B019300946B882A88DC217820FFF754
:10449000B7F9324B019300946B882A88F0212820C9
:1044A000FFF7AEF9009404234A46A0214020FFF70D
:1044B0005BF9009404234246A0219020FFF754F9B1
:1044C000009404233A46B4214020FFF74DF90094AC
:1044D00004233246B4219020FFF746F900940423C8
:1044E000BDF82820C8214020FFF73EF9009404239E
:1044F000BDF82C20C8219020FFF736F90094042342
:10450000BDF83020DC214020FFF72EF90094042371
:10451000BDF83420DC219020FFF726F90094032316
:10452000BDF83820F0216020FFF71EF903B0BDE888
:10453000F08300BF800C0020840C00205CFF00088A
:1045400060FF000864FF000868FF00086CFF0008B7
:1045500070FF000874FF000878FF00087CFF000867
:104560002DE9F04F2DED028B8DB0974C1F2323804A
:104570004FF6FF75954B1D802846FEF787FF4FF4D9
:10458000784626802846FEF781FF00252580904B3F
:104590000193102300936423A02228210846FFF7EB
:1045A0002FF9324614210846FFF75AFE894B83F84B
:1045B000205000225A622C4618E04FF6FF72142158
:1045C0000846FFF74DFE844B188814384FF47842A4
:1045D000142180B2FFF744FE00240A20FCF7B8FF44
:1045E0000134A4B2B4F57A7F00F2A882794E7368E0
:1045F0000120984796F8203003F0C002402AECD101
:1046000023F0400386F82030B1890CAB03EB85031F
:1046100023F8101CF28A23F80E2C0135EDB26B1E24
:10462000032B00F2898201A252F823F0BB45000857
:104630003D460008634600088D460008664C208809
:1046400014384FF6FF72142180B2FFF709FE61881B
:1046500014394FF4784289B21420FFF701FE002488
:10466000BBE75D4C618814394FF6FF7289B21420A4
:10467000FFF7F6FD20886188143914384FF478422A
:1046800089B280B2FFF7ECFD0024A6E7BDF8205008
:10469000BDF82470E81B0028B8BF4042BDF8224096
:1046A000BDF82680A4EB0803002BB8BF5B4203FBD8
:1046B00003F300FB0030FBF7E5FE41EC100B09F0C3
:1046C00047FB51EC100BFCF719FA83B208EE103AD5
:1046D000BDF82890BDF82CA0A9EB0A000028B8BFAF
:1046E0004042BDF82A60BDF82EB0A6EB0B03002BAC
:1046F000B8BF5B4203FB03F300FB0030FBF7C2FED5
:1047000041EC100B09F024FB51EC100BFCF7F6F90F
:1047100083B208EE903AB8EE487AF8EEE87AC7EE3F
:10472000277A17EE900AFBF7CFFE02460B46CDE93B
:10473000062321A3D3E90023FCF790F970B920A345
:10474000D3E90023DDE90601FCF7A6F930B918EE3C
:10475000103A1BB118EE903A002B41D11E4B18882D
:104760005988143914384FF6FF7289B280B2FFF7B6
:1047700077FD4FF4784214210846FFF771FD0022BF
:10478000164BDDE90601FBF7F7FEFCF7B7F980B23F
:104790000490CDF80CB0CDF808A00196CDF80090AB
:1047A00043463A4621462846FFF71EFE002425468A
:1047B0001CE700BFAFF30080666666666666EE3F84
:1047C000CDCCCCCCCCCCF03F800C002044000020E1
:1047D00084FF000848000020840C0020000059409D
:1047E000A5EB09000028B8BF4042A31B002BB8BFAF
:1047F0005B4203FB03F300FB0030FBF743FE41EC9D
:10480000100B09F0A5FA51EC100BFCF777F983B205
:1048100008EE103AA7EB0A000028B8BF4042A8EB08
:104820000B03002BB8BF5B4203FB03F300FB00301C
:10483000FBF728FE41EC100B09F08AFA51EC100B43
:10484000FCF75CF980B2B8EE488A07EE900AF8EE01
:10485000E77AC8EE277A17EE900AFBF735FE024694
:104860000B46CDE90623BAA3D3E90023FCF7F6F8FB
:1048700038B9B9A3D3E90023DDE90601FCF70CF947
:1048800050B3B74B18885988143914384FF6FF7253
:1048900089B280B2FFF7E4FC4FF478421421084655
:1048A000FFF7DEFC0022AF4BDDE90601FBF764FEFB
:1048B000FCF724F980B20490CDF80CB0CDF808A034
:1048C0000196CDF8009043463A4621462846FFF728
:1048D0008BFD0024254689E6A7EB09000028B8BF18
:1048E0004042A8EB0603002BB8BF5B4203FB03F377
:1048F00000FB0030FBF7C6FD41EC100B09F028FA75
:1049000051EC100BFCF7FAF883B208EE103AA5EB65
:104910000A000028B8BF4042A4EB0B03002BB8BF2D
:104920005B4203FB03F300FB0030FBF7ABFD41EC04
:10493000100B09F00DFA51EC100BFCF7DFF880B208
:10494000B8EE488A07EE900AF8EEE77AC8EE277AC2
:1049500017EE900AFBF7B8FD02460B46CDE9062399
:104960007BA3D3E90023FCF779F8002840F0958079
:1049700079A3D3E90023DDE90601FCF78DF80028CF
:1049800040F08B8076490A88A2F1280306EE903A1F
:10499000F8EEE66A7B1B07EE903AF8EEE77A86EED1
:1049A000A77A714B83ED097AE81907EE900AF8EEC1
:1049B000E77A67EE877A06EE902AF8EEE66A76EEF8
:1049C000E77AF6EE005A67EEA57AFDEEE77A17EE83
:1049D000900A98854988A1F1280006EE900AF8EE21
:1049E000E66A301B07EE900AF8EEE77A86EEA76AD1
:1049F00083ED0A6AA01907EE900AF8EEE77A67EEEF
:104A0000867A06EE901AF8EEE66A76EEE77A67EEB8
:104A1000A57AFDEEE77A17EE900AD885FDEEC77A03
:104A200017EE903A002BB8BF5B42022B08DCFDEE7C
:104A3000C67A17EE903A002BB8BF5B42022B5EDDC0
:104A40001439A2F114004FF6FF7289B280B2FFF759
:104A500007FC4FF4784214210846FFF701FC404A56
:104A6000424B019310230093538812881A21282067
:104A7000FEF7C6FE3C4A92F83030B3FA83F35B0986
:104A800082F83030002B33D0394B90221A70394BDA
:104A9000D0221A7000242546A8E5314B1888598881
:104AA000143914384FF6FF7289B280B2FFF7D8FB81
:104AB0004FF4784214210846FFF7D2FB0022294B1D
:104AC000DDE90601FBF758FDFCF718F880B2049009
:104AD000CDF80CB0CDF808A00196CDF80090434673
:104AE0003A4621462846FFF77FFC002425467DE50F
:104AF0001F4BD0221A701F4B90221A70CAE71E4B10
:104B00001F221A804FF6FF70FEF7C0FC144A1B4BA1
:104B1000019310230093538812886E212320FEF7FF
:104B20006FFE4FF47A70FCF713FDFFF7D5FB4FF6DD
:104B3000FF70FEF7ABFC03E000244EE5FFF706FC38
:104B40000DB0BDEC028BBDE8F08F00BFAFF300806D
:104B5000666666666666EE3FCDCCCCCCCCCCF03FCC
:104B6000840C00200000594048000020000001088B
:104B70004600002047000020800C0020140001089F
:104B800030B40C4B5D680C4A146800FB04F49B685D
:104B9000002104E0E81A02441144A14208D21A4656
:104BA000044B9B689A42FBD0F4D9D21A1144F4E723
:104BB00030BC704710E000E0940C002008B5054BB5
:104BC0001860054B1868002302221946806803F01C
:104BD00029F908BD980C002080000020022801D887
:104BE0000120704708B502F0F3FF0923036000209D
:104BF00008BD000010B5013801280AD814464FF04E
:104C0000FF3392B207480068FDF7F5FE40B9204631
:104C100010BD02F0DDFF092303604FF0FF30F7E71E
:104C20000520F5E7980C0020022801D800207047E5
:104C300008B502F0CDFF092303604FF0FF3008BD37
:104C400008B502F0C5FF092303604FF0FF3008BD2F
:104C500008B548B94FF0FF33012208480068FDF756
:104C60003BFF40B9012008BD02F0B2FF09230360F9
:104C70004FF0FF30F7E70520F5E700BF980C002064
:104C800008B5022804D84FF400534B60002008BD3B
:104C900002F09EFF09230360F8E7000008B505480D
:104CA000054B0360FCF7D2FC00B908BD00F03AFAEE
:104CB000FBE700BF9C0C0020003002400268094B5B
:104CC0009A4200D0704782B000230193064B1A6BC2
:104CD00042F480521A631B6B03F480530193019BCF
:104CE00002B070470030024000380240234B1B687E
:104CF00003B170472DE9F04186B0204B01221A60C4
:104D0000002400941E4B9A6B42F001029A639B6B45
:104D100003F001030093009B4FF48058CDF804800A
:104D2000022702970394032604960C25059501A9F2
:104D30001448FCF79BFC4FF6807301930297039491
:104D40000496059501A91048FCF790FC4CF23373CA
:104D50000193029703940496059501A90B48FCF76B
:104D600085FCCDF80480029703940496059501A96B
:104D70000748FCF77BFC06B0BDE8F081A40C0020DE
:104D8000003802400014024000100240000C0240B3
:104D90000018024030B58FB01C484FF0204303602C
:104DA00003F582734360062383600023C3600361BD
:104DB000102141618361C361036243624FF48052F9
:104DC0008262C3624FF4804202634363836343643D
:104DD000022207920F220892052409940A920B914D
:104DE00011240C940D9300930192032502950392D4
:104DF0000491059406936A4607A9FDF73FFA08B99E
:104E00000FB030BD00F08EF9FAE700BFA80C00200B
:104E100008B5FFF76BFF08BD2DE9F0478EB0002401
:104E200009940A940B940C940D940194634B1A6B9F
:104E300042F004021A631A6B02F004020192019A12
:104E400002941A6B42F020021A631A6B02F02002DD
:104E50000292029A03941A6B42F080021A631A6B50
:104E600002F080020392039A04941A6B42F0020249
:104E70001A631A6B02F002020492049A05941A6BE8
:104E800042F010021A631A6B02F010020592059AA2
:104E900006941A6B42F008021A631A6B02F00802B9
:104EA0000692069A07941A6B42F001021A631A6B73
:104EB00002F001020792079A08941A6B42F040022E
:104EC0001A631B6B03F040030893089B3C4F224678
:104ED0004FF400513846FCF7B6FCDFF8EC900122A5
:104EE0004FF420614846FCF7AEFC0122022138460F
:104EF000FCF7A9FC334E012240F201313046FCF7A9
:104F0000A2FC22464FF400413046FCF79CFC4FF4D3
:104F10000053099301250A950B950C9409A938466D
:104F2000FCF7A4FB4FF4007309930A950B940C94BF
:104F300009A94846FCF79AFB4FF00208CDF82480F7
:104F40000A950B954FF0030ACDF830A009A9384611
:104F5000FCF78CFB09950A950B95CDF830A009A9B3
:104F60003046FCF783FBCDF824800A940B9509A901
:104F70003046FCF77BFB4FF4006309930A950B95D1
:104F8000CDF830A009A94846FCF770FB4FF4004368
:104F900009930A950B940C9409A93046FCF766FB1B
:104FA0004FF4407309930A950B95CDF8308009A909
:104FB0003046FCF75BFB0EB0BDE8F08700380240DE
:104FC00000080240000402400014024030B595B0D1
:104FD0003022002108A802F0C1FE002403940494AA
:104FE00005940694079401941B4B1A6C42F080526E
:104FF0001A641B6C03F080530193019B0294174BBE
:105000001A6842F480421A601B6803F480430293DA
:10501000029B012308934FF48033099302250E95D8
:105020004FF480030F9304231093A822119212953A
:10503000139308A8FCF716FC0F230393049505941B
:105040004FF4A05306934FF480530793052103A810
:10505000FCF764FE15B030BD00380240007000401F
:1050600008B5FCF749FAFFF7B1FFFFF7D5FE00F0EE
:105070006DFAFFF78FFEFFF711FE00F07BF900F0ED
:10508000B3F900F03FF900F04FF81F48FFF796FD25
:105090001E48FDF749F91E48FDF746F91D48FDF782
:1050A00043F94CF28B30FEF701F800B2FBF7FAF946
:1050B0000022194BFBF78AFB0022184BFBF75CFA26
:1050C000FBF73CFDFBF700FA0BA3D3E90023FBF74A
:1050D00053FA0BA3D3E90023FBF798F8FBF72EFD57
:1050E000FBF7F2F902460B460D4802F087FE4FF43B
:1050F0007A70FCF72DFAD4E74E62105839B4C8BF65
:105100003F355EBA49806A40140E0020540D0020DD
:10511000940D0020D40D002000408F4000405F40DF
:105120002C0001087047000008B50E480E4B0360C4
:105130004FF48273436000238360C36003610122E4
:1051400042614FF4007282611822C26103624362BD
:1051500083620A23C362FCF735FF00B908BDFFF77D
:10516000E1FFFBE7F80C002000380040F0B589B003
:105170000023039304930593069307930268204B3F
:105180009A4201D009B0F0BD0024009403F5003329
:105190001A6C42F480421A641A6C02F48042009243
:1051A000009A01941A6B42F004021A631A6B02F01F
:1051B00004020192019A02941A6B42F002021A63ED
:1051C0001B6B03F002030293029B0C230393022741
:1051D0000497059403260696052507950DEB030114
:1051E0000848FCF743FA4FF480630393049705944F
:1051F0000696079503A90448FCF738FAC2E700BFF2
:1052000000380040000802400004024082B0002143
:1052100000910B4B5A6C42F480425A645A6C02F46F
:1052200080420092009A01911A6C42F080521A64F6
:105230001B6C03F080530193019B02B0704700BFC9
:10524000003802407047FEE7FEE7FEE7FEE77047E2
:105250007047704708B5FCF769F908BD08B5024802
:10526000FDF777F808BD00BF540D002008B50248CF
:10527000FDF76FF808BD00BF940D002008B5024887
:10528000FDF767F808BD00BFD40D0020012070476E
:1052900008B502F09DFC162303604FF0FF3008BDF7
:1052A00008B54FF0FF31FFF7F3FFFEE708B50346FF
:1052B0000B4A126842B10A4A106803446A46934294
:1052C00006D8074A136008BD054A06491160F2E78F
:1052D00002F07EFC0C2303604FF0FF30F3E700BFC9
:1052E000500D002060100020054BD3F8882042F4B8
:1052F0007002C3F888204FF000629A60704700BFC8
:1053000000ED00E000B587B00023029303930493FF
:105310000593009301931548154A02605322426099
:10532000836040F2E732C260036180238361FDF74E
:1053300031F990B94FF48053029302A90B48FDF75D
:105340004FF968B900230093019369460748FDF7B8
:10535000B5F940B907B05DF804FBFFF7E3FEE9E7F4
:10536000FFF7E0FEEEE7FFF7DDFEF3E7540D002068
:105370000004004000B587B0002302930393049318
:105380000593009301931648164A026040F2473293
:105390004260836040F2E732C26003618023836130
:1053A000FDF7F8F890B94FF48053029302A90C4826
:1053B000FDF716F968B90023009301936946084880
:1053C000FDF77CF940B907B05DF804FBFFF7AAFED2
:1053D000E9E7FFF7A7FEEEE7FFF7A4FEF3E700BF5C
:1053E000940D00200008004000B587B00023029310
:1053F000039304930593009301931648164A0260A1
:1054000041F287324260836042F2CF02C2600361A0
:1054100080238361FDF7BEF890B94FF48053029367
:1054200002A90C48FDF7DCF868B90023009301934A
:1054300069460848FDF742F940B907B05DF804FB3A
:10544000FFF770FEE9E7FFF76DFEEEE7FFF76AFE94
:10545000F3E700BFD40D0020000C004000B585B07C
:105460000368244A934208D0234A934219D0234A1E
:1054700093422AD005B05DF804FB00220192204B34
:10548000196C41F0020119641B6C03F002030193D3
:10549000019B01211D20FCF781F81D20FCF7B2F8CB
:1054A000E8E700220292164B196C41F004011964DE
:1054B0001B6C03F004030293029B02211E20FCF7E5
:1054C0006DF81E20FCF79EF8D4E7002203920C4BE7
:1054D000196C41F0080119641B6C03F00803039375
:1054E000039B03213220FCF759F83220FCF78AF89D
:1054F000C0E700BF0004004000080040000C00406E
:105500000038024010B504460B4B984206D00B4BB6
:105510009C4208D00A4B9C4208D010BD094A13682F
:1055200001331360F3E700F04BFBF3E74FF4007136
:105530000548FCF78EF9F0E7540D0020940D00208B
:10554000D40D00207C0C00200014024008B50A484D
:105550000A4B03604FF4E133436000238360C36070
:1055600003610C2242618361C361FDF715FA00B942
:1055700008BDFFF7D7FDFBE7140E00200010014027
:1055800000B589B000230393049305930693079312
:10559000026803F1804303F588339A4202D009B0D0
:1055A0005DF804FB0022019203F59433596C41F03D
:1055B00010015964596C01F0100101910199029296
:1055C000196B41F0010119631B6B03F00103029396
:1055D000029B4FF4C06303930223049305920323B9
:1055E00006930723079303A90148FCF73FF8D6E782
:1055F00000000240DFF834D0002103E00C4B5B5880
:10560000435004310B480C4B42189A42F6D30B4AD4
:1056100002E0002342F8043B094B9A42F9D3FFF71A
:1056200063FE02F0DBFAFFF71BFD7047000002206B
:105630005C04010800000020340A0020340A002025
:1056400060100020FEE70000074B5A68013210B5D9
:105650005A605A6B5C6A02EBC0014C60002102F890
:105660003010586210BD00BF880E002010B50E49E2
:1056700044680F2301EBC302126C94420A4A03D21E
:1056800013F1FF33F6D210BD0F2B0CD81168091B94
:1056900011608168C06801B1486008B1016010BD47
:1056A00002EBC303596410BD880E0020F8B5274EE5
:1056B000F368B26B013B05461344081883420C465D
:1056C00005D34B591BB943681D44FFF7CFFFB36B9C
:1056D0009C420AD954F8047CE71B3B682BB97B68D1
:1056E00038461D44FFF7C2FF3C460F2306EBC302BA
:1056F000126C954203D213F1FF33F7D223E00F2B44
:1057000021D8083306EBC30260195168A16000225A
:1057100084E82400246140F8045C04F1080001B12D
:10572000486006EBC303A160E26058603368074934
:10573000EA1896F8293032602BB9CB689B1A8A6830
:10574000934288BF8B602846F8BD00BF880E0020BA
:105750002DE9F74F244FFE68BC6B013E834626447B
:10576000B84694E82800ABBB61198E4232D954F890
:1057700005A0BAF1000F2DD07B6B13F83A30012B46
:1057800028D1D8F82C30D1F804900093204601910C
:10579000FFF76CFF0199D8F83420086802EBC002CB
:1057A000204654604A4602F06DFA009B9A4508BFB5
:1057B000D8F8343004EB090108BF5B1B284608BF4A
:1057C000C8F83430FFF772FFBBF1000F01D0584525
:1057D00005D24D462C44A642C3D8012000E000204B
:1057E00003B0BDE8F08F00BF880E002028B1034B46
:1057F000DA6B026002B15060D8637047880E0020F7
:10580000034B5B6B03EBC00040680830704700BF80
:10581000880E0020054BDA690132DA615A6B12F802
:105820003030013302F83030FFF7EABF880E002035
:1058300030B50368094953F8085C4C6B14F83530EF
:10584000012B03D9CA690AB1013ACA61013B04F8C4
:10585000353000230360184630BD00BF880E00209D
:1058600010B5044660B1074B5B6B03EBC00359688E
:105870004868FFF71BFF2046BDE81040FFF7E4BE75
:1058800010BD00BF880E00202DE9F041224CE36AD4
:105890003BB9224B9D685B680835B3FBF5F50235D3
:1058A00003E023691D1D05EBD305E80000F08CF82B
:1058B000804660B3616B2269E76A01EBC003D200E6
:1058C0005E68174B08361B68304698472269666346
:1058D000C4F82C801346691E8B4205D2013306EBB7
:1058E000C30040F8043CF7E706EBC3064FF000089E
:1058F000C6F80480636862629B1A2B44636025616A
:1059000038463FB1FFF7ACFF4046BDE8F0810120CB
:10591000BDE8F081BDE8F081880E0020500A00202B
:105920001800002070B5174A92F8283043BB0123B5
:1059300082F82830144B996811B959688908996020
:105940005A2111621026002102EBC10006FA01F56E
:10595000013110290B4C0564F6D158681968A16310
:1059600002232361A0F114030B4401256363E0606B
:105970005D6065626560FFF799FEFFF785FF25634F
:1059800070BD00BF880E0020500A002008B5FFF748
:10599000C9FF0C4A00239918D1F8BC0010B18368E4
:1059A00000200BE0083B13F1800FF4D108E05A68A7
:1059B0009B68904238BF104613B19B68002BF6D10C
:1059C0000C3808BD880E00202DE9F843394E0446F6
:1059D000FFF7A8FF356C3368AC4224BF033424F0D2
:1059E00003050C35AB42334C3ED3236B62689A42BD
:1059F0000FD97368776A013B7360736B4FEAC7080E
:105A000003EB080252687262012203F8372057B98B
:105A10002AE0013B2363FFF737FF236B0133236346
:105A20000028E6D020E00F2306EBC302126C95425B
:105A30000CD213F1FF33F7D208E094682CB16268FE
:105A4000954214D9A268002AF7D101330F2B03D84D
:105A500006EBC302526CF6E72846FFF779FE0028F2
:105A6000E1D03846FFF7F0FD0020BDE8F883D4F818
:105A70000490336CC5EB09020C3320469A4238BFC0
:105A80004D46FFF7F3FD736B611998444D454FF098
:105A90000003C8F8044027606560A360246141F8F2
:105AA000045C03DAC5EB0900FFF700FE3846BDE8E9
:105AB000F88300BF880E002008B1FFF785BF70474C
:105AC00080B483B000AF7860064B1A687B685A6078
:105AD000044A7B68136000BF0C37BD465DF8047B49
:105AE000704700BFDC0A0020012809DC054B53F891
:105AF000200020B1C3681B681BB10068F9E770473C
:105B000000207047980F0020FFF770BE81690A4A95
